{
	"contracts/coffe.sol": {
		"CoffeCrypto": {
			"abi": [
				{
					"inputs": [],
					"stateMutability": "nonpayable",
					"type": "constructor"
				},
				{
					"anonymous": false,
					"inputs": [
						{
							"indexed": true,
							"internalType": "address",
							"name": "owner",
							"type": "address"
						},
						{
							"indexed": true,
							"internalType": "address",
							"name": "spender",
							"type": "address"
						},
						{
							"indexed": false,
							"internalType": "uint256",
							"name": "value",
							"type": "uint256"
						}
					],
					"name": "Approval",
					"type": "event"
				},
				{
					"anonymous": false,
					"inputs": [
						{
							"indexed": true,
							"internalType": "address",
							"name": "previousOwner",
							"type": "address"
						},
						{
							"indexed": true,
							"internalType": "address",
							"name": "newOwner",
							"type": "address"
						}
					],
					"name": "OwnershipTransferred",
					"type": "event"
				},
				{
					"anonymous": false,
					"inputs": [
						{
							"indexed": true,
							"internalType": "address",
							"name": "from",
							"type": "address"
						},
						{
							"indexed": true,
							"internalType": "address",
							"name": "to",
							"type": "address"
						},
						{
							"indexed": false,
							"internalType": "uint256",
							"name": "value",
							"type": "uint256"
						}
					],
					"name": "Transfer",
					"type": "event"
				},
				{
					"anonymous": false,
					"inputs": [
						{
							"indexed": false,
							"internalType": "address",
							"name": "account",
							"type": "address"
						}
					],
					"name": "botAddedToBlacklist",
					"type": "event"
				},
				{
					"anonymous": false,
					"inputs": [
						{
							"indexed": false,
							"internalType": "address",
							"name": "account",
							"type": "address"
						}
					],
					"name": "botRemovedFromBlacklist",
					"type": "event"
				},
				{
					"stateMutability": "nonpayable",
					"type": "fallback"
				},
				{
					"inputs": [],
					"name": "_maxTxAmount",
					"outputs": [
						{
							"internalType": "uint256",
							"name": "",
							"type": "uint256"
						}
					],
					"stateMutability": "view",
					"type": "function"
				},
				{
					"inputs": [],
					"name": "_maxWalletSize",
					"outputs": [
						{
							"internalType": "uint256",
							"name": "",
							"type": "uint256"
						}
					],
					"stateMutability": "view",
					"type": "function"
				},
				{
					"inputs": [
						{
							"internalType": "uint256",
							"name": "maxWalletSize",
							"type": "uint256"
						}
					],
					"name": "_setMaxWalletSizePercent",
					"outputs": [],
					"stateMutability": "nonpayable",
					"type": "function"
				},
				{
					"inputs": [],
					"name": "_taxPool",
					"outputs": [
						{
							"internalType": "address payable",
							"name": "",
							"type": "address"
						}
					],
					"stateMutability": "view",
					"type": "function"
				},
				{
					"inputs": [
						{
							"internalType": "address",
							"name": "account",
							"type": "address"
						}
					],
					"name": "addBotToBlacklist",
					"outputs": [],
					"stateMutability": "nonpayable",
					"type": "function"
				},
				{
					"inputs": [
						{
							"internalType": "address",
							"name": "owner",
							"type": "address"
						},
						{
							"internalType": "address",
							"name": "spender",
							"type": "address"
						}
					],
					"name": "allowance",
					"outputs": [
						{
							"internalType": "uint256",
							"name": "",
							"type": "uint256"
						}
					],
					"stateMutability": "view",
					"type": "function"
				},
				{
					"inputs": [
						{
							"internalType": "address",
							"name": "spender",
							"type": "address"
						},
						{
							"internalType": "uint256",
							"name": "amount",
							"type": "uint256"
						}
					],
					"name": "approve",
					"outputs": [
						{
							"internalType": "bool",
							"name": "",
							"type": "bool"
						}
					],
					"stateMutability": "nonpayable",
					"type": "function"
				},
				{
					"inputs": [
						{
							"internalType": "address",
							"name": "account",
							"type": "address"
						}
					],
					"name": "balanceOf",
					"outputs": [
						{
							"internalType": "uint256",
							"name": "",
							"type": "uint256"
						}
					],
					"stateMutability": "view",
					"type": "function"
				},
				{
					"inputs": [],
					"name": "buyFee",
					"outputs": [
						{
							"internalType": "uint16",
							"name": "tax",
							"type": "uint16"
						},
						{
							"internalType": "uint16",
							"name": "marketing",
							"type": "uint16"
						}
					],
					"stateMutability": "view",
					"type": "function"
				},
				{
					"inputs": [],
					"name": "decimals",
					"outputs": [
						{
							"internalType": "uint8",
							"name": "",
							"type": "uint8"
						}
					],
					"stateMutability": "view",
					"type": "function"
				},
				{
					"inputs": [
						{
							"internalType": "address",
							"name": "spender",
							"type": "address"
						},
						{
							"internalType": "uint256",
							"name": "subtractedValue",
							"type": "uint256"
						}
					],
					"name": "decreaseAllowance",
					"outputs": [
						{
							"internalType": "bool",
							"name": "",
							"type": "bool"
						}
					],
					"stateMutability": "nonpayable",
					"type": "function"
				},
				{
					"inputs": [
						{
							"internalType": "address",
							"name": "account",
							"type": "address"
						}
					],
					"name": "excludeFromFee",
					"outputs": [],
					"stateMutability": "nonpayable",
					"type": "function"
				},
				{
					"inputs": [
						{
							"internalType": "address",
							"name": "account",
							"type": "address"
						}
					],
					"name": "excludeFromLimit",
					"outputs": [],
					"stateMutability": "nonpayable",
					"type": "function"
				},
				{
					"inputs": [
						{
							"internalType": "address",
							"name": "account",
							"type": "address"
						}
					],
					"name": "excludeFromReward",
					"outputs": [],
					"stateMutability": "nonpayable",
					"type": "function"
				},
				{
					"inputs": [
						{
							"internalType": "address",
							"name": "account",
							"type": "address"
						}
					],
					"name": "includeInFee",
					"outputs": [],
					"stateMutability": "nonpayable",
					"type": "function"
				},
				{
					"inputs": [
						{
							"internalType": "address",
							"name": "account",
							"type": "address"
						}
					],
					"name": "includeInLimit",
					"outputs": [],
					"stateMutability": "nonpayable",
					"type": "function"
				},
				{
					"inputs": [
						{
							"internalType": "address",
							"name": "account",
							"type": "address"
						}
					],
					"name": "includeInReward",
					"outputs": [],
					"stateMutability": "nonpayable",
					"type": "function"
				},
				{
					"inputs": [
						{
							"internalType": "address",
							"name": "spender",
							"type": "address"
						},
						{
							"internalType": "uint256",
							"name": "addedValue",
							"type": "uint256"
						}
					],
					"name": "increaseAllowance",
					"outputs": [
						{
							"internalType": "bool",
							"name": "",
							"type": "bool"
						}
					],
					"stateMutability": "nonpayable",
					"type": "function"
				},
				{
					"inputs": [
						{
							"internalType": "address",
							"name": "account",
							"type": "address"
						}
					],
					"name": "isExcludedFromFee",
					"outputs": [
						{
							"internalType": "bool",
							"name": "",
							"type": "bool"
						}
					],
					"stateMutability": "view",
					"type": "function"
				},
				{
					"inputs": [
						{
							"internalType": "address",
							"name": "account",
							"type": "address"
						}
					],
					"name": "isExcludedFromLimit",
					"outputs": [
						{
							"internalType": "bool",
							"name": "",
							"type": "bool"
						}
					],
					"stateMutability": "view",
					"type": "function"
				},
				{
					"inputs": [
						{
							"internalType": "address",
							"name": "account",
							"type": "address"
						}
					],
					"name": "isExcludedFromReward",
					"outputs": [
						{
							"internalType": "bool",
							"name": "",
							"type": "bool"
						}
					],
					"stateMutability": "view",
					"type": "function"
				},
				{
					"inputs": [],
					"name": "name",
					"outputs": [
						{
							"internalType": "string",
							"name": "",
							"type": "string"
						}
					],
					"stateMutability": "view",
					"type": "function"
				},
				{
					"inputs": [],
					"name": "owner",
					"outputs": [
						{
							"internalType": "address",
							"name": "",
							"type": "address"
						}
					],
					"stateMutability": "view",
					"type": "function"
				},
				{
					"inputs": [
						{
							"internalType": "uint256",
							"name": "tAmount",
							"type": "uint256"
						},
						{
							"internalType": "bool",
							"name": "deductTransferFee",
							"type": "bool"
						}
					],
					"name": "reflectionFromToken",
					"outputs": [
						{
							"internalType": "uint256",
							"name": "",
							"type": "uint256"
						}
					],
					"stateMutability": "view",
					"type": "function"
				},
				{
					"inputs": [
						{
							"internalType": "address",
							"name": "account",
							"type": "address"
						}
					],
					"name": "removeBotFromBlacklist",
					"outputs": [],
					"stateMutability": "nonpayable",
					"type": "function"
				},
				{
					"inputs": [],
					"name": "renounceOwnership",
					"outputs": [],
					"stateMutability": "nonpayable",
					"type": "function"
				},
				{
					"inputs": [],
					"name": "sellFee",
					"outputs": [
						{
							"internalType": "uint16",
							"name": "tax",
							"type": "uint16"
						},
						{
							"internalType": "uint16",
							"name": "marketing",
							"type": "uint16"
						}
					],
					"stateMutability": "view",
					"type": "function"
				},
				{
					"inputs": [
						{
							"internalType": "uint256",
							"name": "maxTxPercent",
							"type": "uint256"
						}
					],
					"name": "setMaxTxPercent",
					"outputs": [],
					"stateMutability": "nonpayable",
					"type": "function"
				},
				{
					"inputs": [],
					"name": "symbol",
					"outputs": [
						{
							"internalType": "string",
							"name": "",
							"type": "string"
						}
					],
					"stateMutability": "view",
					"type": "function"
				},
				{
					"inputs": [
						{
							"internalType": "uint256",
							"name": "rAmount",
							"type": "uint256"
						}
					],
					"name": "tokenFromReflection",
					"outputs": [
						{
							"internalType": "uint256",
							"name": "",
							"type": "uint256"
						}
					],
					"stateMutability": "view",
					"type": "function"
				},
				{
					"inputs": [],
					"name": "totalFees",
					"outputs": [
						{
							"internalType": "uint256",
							"name": "",
							"type": "uint256"
						}
					],
					"stateMutability": "view",
					"type": "function"
				},
				{
					"inputs": [],
					"name": "totalSupply",
					"outputs": [
						{
							"internalType": "uint256",
							"name": "",
							"type": "uint256"
						}
					],
					"stateMutability": "view",
					"type": "function"
				},
				{
					"inputs": [
						{
							"internalType": "address",
							"name": "recipient",
							"type": "address"
						},
						{
							"internalType": "uint256",
							"name": "amount",
							"type": "uint256"
						}
					],
					"name": "transfer",
					"outputs": [
						{
							"internalType": "bool",
							"name": "",
							"type": "bool"
						}
					],
					"stateMutability": "nonpayable",
					"type": "function"
				},
				{
					"inputs": [
						{
							"internalType": "address",
							"name": "sender",
							"type": "address"
						},
						{
							"internalType": "address",
							"name": "recipient",
							"type": "address"
						},
						{
							"internalType": "uint256",
							"name": "amount",
							"type": "uint256"
						}
					],
					"name": "transferFrom",
					"outputs": [
						{
							"internalType": "bool",
							"name": "",
							"type": "bool"
						}
					],
					"stateMutability": "nonpayable",
					"type": "function"
				},
				{
					"inputs": [
						{
							"internalType": "address",
							"name": "newOwner",
							"type": "address"
						}
					],
					"name": "transferOwnership",
					"outputs": [],
					"stateMutability": "nonpayable",
					"type": "function"
				},
				{
					"inputs": [],
					"name": "uniswapV2Pair",
					"outputs": [
						{
							"internalType": "address",
							"name": "",
							"type": "address"
						}
					],
					"stateMutability": "view",
					"type": "function"
				},
				{
					"inputs": [],
					"name": "uniswapV2Router",
					"outputs": [
						{
							"internalType": "contract IUniswapV2Router02",
							"name": "",
							"type": "address"
						}
					],
					"stateMutability": "view",
					"type": "function"
				},
				{
					"inputs": [
						{
							"internalType": "address payable",
							"name": "newAddress",
							"type": "address"
						}
					],
					"name": "updateTaxPoolWallet",
					"outputs": [],
					"stateMutability": "nonpayable",
					"type": "function"
				},
				{
					"inputs": [
						{
							"internalType": "address",
							"name": "_tokenContract",
							"type": "address"
						},
						{
							"internalType": "uint256",
							"name": "_amount",
							"type": "uint256"
						}
					],
					"name": "withdrawToken",
					"outputs": [],
					"stateMutability": "nonpayable",
					"type": "function"
				}
			],
			"devdoc": {
				"kind": "dev",
				"methods": {},
				"version": 1
			},
			"evm": {
				"assembly": "    /* \"contracts/coffe.sol\":18116:38241  contract CoffeCrypto is Context, IERC20, Ownable {... */\n  mstore(0x40, 0xc0)\n    /* \"contracts/coffe.sol\":18797:18816  10 * 10**13 * 10*10 */\n  0x2386f26fc10000\n    /* \"contracts/coffe.sol\":18771:18816  uint256 private _tTotal = 10 * 10**13 * 10*10 */\n  0x0b\n  dup2\n  swap1\n  sstore\n    /* \"contracts/coffe.sol\":18857:18870  MAX % _tTotal */\n  tag_1\n  swap1\n  not(0x00)\n  tag_2\n  jump\t// in\ntag_1:\n    /* \"contracts/coffe.sol\":18850:18871  MAX - (MAX % _tTotal) */\n  tag_3\n  swap1\n  not(0x00)\n  tag_4\n  jump\t// in\ntag_3:\n    /* \"contracts/coffe.sol\":18823:18872  uint256 private _rTotal = (MAX - (MAX % _tTotal)) */\n  0x0c\n  swap1\n  dup2\n  sstore\n    /* \"contracts/coffe.sol\":18914:19017  address payable public _taxPool =... */\n  0x0e\n  dup1\n  sload\n  not(sub(shl(0xa0, 0x01), 0x01))\n  and\n    /* \"contracts/coffe.sol\":18973:19015  0xC97137BDC16Bb7A7548710EE0256410251cB4956 */\n  0xc97137bdc16bb7a7548710ee0256410251cb4956\n    /* \"contracts/coffe.sol\":18914:19017  address payable public _taxPool =... */\n  or\n  swap1\n  sstore\n    /* \"contracts/coffe.sol\":19026:19063  string private _name = \"Coffe Crypto\" */\n  0x40\n  dup1\n  mload\n  dup1\n  dup3\n  add\n  swap1\n  swap2\n  mstore\n  dup2\n  dup2\n  mstore\n  shl(0xa0, 0x436f6666652043727970746f)\n  0x20\n  swap1\n  swap2\n  add\n  swap1\n  dup2\n  mstore\n  tag_5\n  swap2\n  0x0f\n  swap2\n  swap1\n  tag_6\n  jump\t// in\ntag_5:\n  pop\n    /* \"contracts/coffe.sol\":19070:19101  string private _symbol = \"CFEE\" */\n  0x40\n  dup1\n  mload\n  dup1\n  dup3\n  add\n  swap1\n  swap2\n  mstore\n  0x04\n  dup1\n  dup3\n  mstore\n  shl(0xe0, 0x43464545)\n  0x20\n  swap1\n  swap3\n  add\n  swap2\n  dup3\n  mstore\n  tag_7\n  swap2\n  0x10\n  swap2\n  tag_6\n  jump\t// in\ntag_7:\n  pop\n    /* \"contracts/coffe.sol\":19108:19135  uint8 private _decimals = 8 */\n  0x11\n  dup1\n  sload\n  not(0xff)\n  and\n    /* \"contracts/coffe.sol\":19134:19135  8 */\n  0x08\n    /* \"contracts/coffe.sol\":19108:19135  uint8 private _decimals = 8 */\n  or\n  swap1\n  sstore\n    /* \"contracts/coffe.sol\":19560:19579  5 * 10**10 * 10**10 */\n  0x1b1ae4d6e2ef500000\n    /* \"contracts/coffe.sol\":19530:19579  uint256 public _maxTxAmount = 5 * 10**10 * 10**10 */\n  0x15\n  sstore\n    /* \"contracts/coffe.sol\":19642:19661  2 * 10**11 * 10**10 */\n  0x6c6b935b8bbd400000\n    /* \"contracts/coffe.sol\":19610:19661  uint256 public _maxWalletSize = 2 * 10**11 * 10**10 */\n  0x16\n  sstore\n    /* \"contracts/coffe.sol\":19802:20936  constructor() {... */\n  callvalue\n  dup1\n  iszero\n  tag_8\n  jumpi\n  0x00\n  dup1\n  revert\ntag_8:\n  pop\n    /* \"contracts/coffe.sol\":7825:7842  address msgSender */\n  0x00\n    /* \"contracts/coffe.sol\":7868:7886  _owner = msgSender */\n  dup1\n  sload\n  not(sub(shl(0xa0, 0x01), 0x01))\n  and\n    /* \"contracts/coffe.sol\":4209:4219  msg.sender */\n  caller\n    /* \"contracts/coffe.sol\":7868:7886  _owner = msgSender */\n  swap1\n  dup2\n  or\n  dup3\n  sstore\n    /* \"contracts/coffe.sol\":7902:7945  OwnershipTransferred(address(0), msgSender) */\n  mload(0x40)\n    /* \"contracts/coffe.sol\":4209:4219  msg.sender */\n  swap1\n  swap2\n  dup3\n  swap2\n    /* \"contracts/coffe.sol\":7902:7945  OwnershipTransferred(address(0), msgSender) */\n  0x8be0079c531659141344cd1fd0a4f28419497f9722a3daafe3b4186f6b6457e0\n  swap1\n    /* \"contracts/coffe.sol\":7825:7842  address msgSender */\n  dup3\n  swap1\n    /* \"contracts/coffe.sol\":7902:7945  OwnershipTransferred(address(0), msgSender) */\n  log3\n  pop\n    /* \"contracts/coffe.sol\":19851:19858  _rTotal */\n  sload(0x0c)\n    /* \"contracts/coffe.sol\":4209:4219  msg.sender */\n  caller\n    /* \"contracts/coffe.sol\":19827:19848  _rOwned[_msgSender()] */\n  0x00\n  swap1\n  dup2\n  mstore\n    /* \"contracts/coffe.sol\":19827:19834  _rOwned */\n  0x02\n    /* \"contracts/coffe.sol\":19827:19848  _rOwned[_msgSender()] */\n  0x20\n  swap1\n  dup2\n  mstore\n  0x40\n  swap2\n  dup3\n  swap1\n  keccak256\n    /* \"contracts/coffe.sol\":19827:19858  _rOwned[_msgSender()] = _rTotal */\n  swap3\n  swap1\n  swap3\n  sstore\n    /* \"contracts/coffe.sol\":19871:19877  buyFee */\n  0x12\n    /* \"contracts/coffe.sol\":19871:19885  buyFee.tax = 2 */\n  dup1\n  sload\n  not(0xffffffff)\n    /* \"contracts/coffe.sol\":19897:19917  buyFee.marketing = 2 */\n  swap1\n  dup2\n  and\n  0x020002\n  or\n  swap1\n  swap2\n  sstore\n    /* \"contracts/coffe.sol\":19930:19937  sellFee */\n  0x13\n    /* \"contracts/coffe.sol\":19930:19945  sellFee.tax = 5 */\n  dup1\n  sload\n    /* \"contracts/coffe.sol\":19956:19977  sellFee.marketing = 5 */\n  swap1\n  swap2\n  and\n  0x050005\n  or\n  swap1\n  sstore\n    /* \"contracts/coffe.sol\":20330:20356  _uniswapV2Router.factory() */\n  dup1\n  mload\n  shl(0xe0, 0xc45a0155)\n  dup2\n  mstore\n  swap1\n  mload\n    /* \"contracts/coffe.sol\":20063:20105  0xD99D1c33F9fC3444f8101754aBC46c52416550D1 */\n  0xd99d1c33f9fc3444f8101754abc46c52416550d1\n  swap3\n  dup4\n  swap3\n    /* \"contracts/coffe.sol\":20330:20354  _uniswapV2Router.factory */\n  0xc45a0155\n  swap3\n    /* \"contracts/coffe.sol\":20330:20356  _uniswapV2Router.factory() */\n  0x04\n  dup1\n  dup4\n  add\n  swap4\n    /* \"contracts/coffe.sol\":19827:19848  _rOwned[_msgSender()] */\n  swap3\n    /* \"contracts/coffe.sol\":20330:20356  _uniswapV2Router.factory() */\n  dup3\n  swap1\n  sub\n  add\n  dup2\n    /* \"contracts/coffe.sol\":20063:20105  0xD99D1c33F9fC3444f8101754aBC46c52416550D1 */\n  dup7\n    /* \"contracts/coffe.sol\":20330:20356  _uniswapV2Router.factory() */\n  gas\n  staticcall\n  iszero\n  dup1\n  iszero\n  tag_17\n  jumpi\n  returndatasize\n  0x00\n  dup1\n  returndatacopy\n  revert(0x00, returndatasize)\ntag_17:\n  pop\n  pop\n  pop\n  pop\n  mload(0x40)\n  returndatasize\n  not(0x1f)\n  0x1f\n  dup3\n  add\n  and\n  dup3\n  add\n  dup1\n  0x40\n  mstore\n  pop\n  dup2\n  add\n  swap1\n  tag_18\n  swap2\n  swap1\n  tag_19\n  jump\t// in\ntag_18:\n  sub(shl(0xa0, 0x01), 0x01)\n    /* \"contracts/coffe.sol\":20312:20382  IUniswapV2Factory(_uniswapV2Router.factory())... */\n  and\n  0xc9c65396\n    /* \"contracts/coffe.sol\":20391:20395  this */\n  address\n    /* \"contracts/coffe.sol\":20398:20414  _uniswapV2Router */\n  dup4\n  sub(shl(0xa0, 0x01), 0x01)\n    /* \"contracts/coffe.sol\":20398:20419  _uniswapV2Router.WETH */\n  and\n  0xad5c4648\n    /* \"contracts/coffe.sol\":20398:20421  _uniswapV2Router.WETH() */\n  mload(0x40)\n  dup2\n  0xffffffff\n  and\n  0xe0\n  shl\n  dup2\n  mstore\n  0x04\n  add\n  0x20\n  mload(0x40)\n  dup1\n  dup4\n  sub\n  dup2\n  dup7\n  gas\n  staticcall\n  iszero\n  dup1\n  iszero\n  tag_21\n  jumpi\n  returndatasize\n  0x00\n  dup1\n  returndatacopy\n  revert(0x00, returndatasize)\ntag_21:\n  pop\n  pop\n  pop\n  pop\n  mload(0x40)\n  returndatasize\n  not(0x1f)\n  0x1f\n  dup3\n  add\n  and\n  dup3\n  add\n  dup1\n  0x40\n  mstore\n  pop\n  dup2\n  add\n  swap1\n  tag_22\n  swap2\n  swap1\n  tag_19\n  jump\t// in\ntag_22:\n    /* \"contracts/coffe.sol\":20312:20422  IUniswapV2Factory(_uniswapV2Router.factory())... */\n  mload(0x40)\n  not(sub(shl(0xe0, 0x01), 0x01))\n  0xe0\n  dup6\n  swap1\n  shl\n  and\n  dup2\n  mstore\n  sub(shl(0xa0, 0x01), 0x01)\n    /* \"#utility.yul\":980:995   */\n  swap3\n  dup4\n  and\n    /* \"contracts/coffe.sol\":20312:20422  IUniswapV2Factory(_uniswapV2Router.factory())... */\n  0x04\n  dup3\n  add\n    /* \"#utility.yul\":962:996   */\n  mstore\n    /* \"#utility.yul\":1032:1047   */\n  swap2\n  and\n    /* \"#utility.yul\":1012:1030   */\n  0x24\n  dup3\n  add\n    /* \"#utility.yul\":1005:1048   */\n  mstore\n    /* \"#utility.yul\":897:915   */\n  0x44\n  add\n    /* \"contracts/coffe.sol\":20312:20422  IUniswapV2Factory(_uniswapV2Router.factory())... */\n  0x20\n  mload(0x40)\n  dup1\n  dup4\n  sub\n  dup2\n  0x00\n  dup8\n  gas\n  call\n  iszero\n  dup1\n  iszero\n  tag_26\n  jumpi\n  returndatasize\n  0x00\n  dup1\n  returndatacopy\n  revert(0x00, returndatasize)\ntag_26:\n  pop\n  pop\n  pop\n  pop\n  mload(0x40)\n  returndatasize\n  not(0x1f)\n  0x1f\n  dup3\n  add\n  and\n  dup3\n  add\n  dup1\n  0x40\n  mstore\n  pop\n  dup2\n  add\n  swap1\n  tag_27\n  swap2\n  swap1\n  tag_19\n  jump\t// in\ntag_27:\n  sub(shl(0xa0, 0x01), 0x01)\n    /* \"contracts/coffe.sol\":20296:20422  uniswapV2Pair = IUniswapV2Factory(_uniswapV2Router.factory())... */\n  swap1\n  dup2\n  and\n  0xa0\n  mstore\n    /* \"contracts/coffe.sol\":20486:20520  uniswapV2Router = _uniswapV2Router */\n  dup2\n  and\n  0x80\n  mstore\n    /* \"contracts/coffe.sol\":20616:20620  true */\n  0x01\n    /* \"contracts/coffe.sol\":20586:20604  _isExcludedFromFee */\n  0x05\n    /* \"contracts/coffe.sol\":20586:20613  _isExcludedFromFee[owner()] */\n  0x00\n    /* \"contracts/coffe.sol\":20605:20612  owner() */\n  tag_28\n    /* \"contracts/coffe.sol\":8005:8012  address */\n  0x00\n    /* \"contracts/coffe.sol\":8032:8038  _owner */\n  sload\n  sub(shl(0xa0, 0x01), 0x01)\n  and\n  swap1\n    /* \"contracts/coffe.sol\":7967:8046  function owner() public view returns (address) {... */\n  jump\n    /* \"contracts/coffe.sol\":20605:20612  owner() */\ntag_28:\n  sub(shl(0xa0, 0x01), 0x01)\n    /* \"contracts/coffe.sol\":20586:20613  _isExcludedFromFee[owner()] */\n  swap1\n  dup2\n  and\n  dup3\n  mstore\n  0x20\n  dup1\n  dup4\n  add\n  swap4\n  swap1\n  swap4\n  mstore\n  0x40\n  swap2\n  dup3\n  add\n  0x00\n  swap1\n  dup2\n  keccak256\n    /* \"contracts/coffe.sol\":20586:20620  _isExcludedFromFee[owner()] = true */\n  dup1\n  sload\n  swap6\n  iszero\n  iszero\n  not(0xff)\n  swap7\n  dup8\n  and\n  or\n  swap1\n  sstore\n    /* \"contracts/coffe.sol\":20658:20662  this */\n  address\n    /* \"contracts/coffe.sol\":20631:20664  _isExcludedFromFee[address(this)] */\n  dup2\n  mstore\n    /* \"contracts/coffe.sol\":20631:20649  _isExcludedFromFee */\n  0x05\n    /* \"contracts/coffe.sol\":20631:20664  _isExcludedFromFee[address(this)] */\n  dup5\n  mstore\n  dup3\n  dup2\n  keccak256\n    /* \"contracts/coffe.sol\":20631:20671  _isExcludedFromFee[address(this)] = true */\n  dup1\n  sload\n  dup7\n  and\n    /* \"contracts/coffe.sol\":20586:20620  _isExcludedFromFee[owner()] = true */\n  0x01\n    /* \"contracts/coffe.sol\":20631:20671  _isExcludedFromFee[address(this)] = true */\n  swap1\n  dup2\n  or\n  swap1\n  swap2\n  sstore\n    /* \"contracts/coffe.sol\":20701:20709  _taxPool */\n  0x0e\n  dup1\n  sload\n  dup5\n  and\n    /* \"contracts/coffe.sol\":20682:20710  _isExcludedFromFee[_taxPool] */\n  dup4\n  mstore\n  dup5\n  dup4\n  keccak256\n    /* \"contracts/coffe.sol\":20682:20717  _isExcludedFromFee[_taxPool] = true */\n  dup1\n  sload\n  dup9\n  and\n  dup4\n  or\n  swap1\n  sstore\n    /* \"contracts/coffe.sol\":20751:20759  _taxPool */\n  sload\n  swap1\n  swap3\n  and\n    /* \"contracts/coffe.sol\":20730:20760  _isExcludedFromLimit[_taxPool] */\n  dup2\n  mstore\n    /* \"contracts/coffe.sol\":20730:20750  _isExcludedFromLimit */\n  0x09\n    /* \"contracts/coffe.sol\":20730:20760  _isExcludedFromLimit[_taxPool] */\n  swap4\n  dup5\n  swap1\n  mstore\n  swap2\n  dup3\n  keccak256\n    /* \"contracts/coffe.sol\":20730:20767  _isExcludedFromLimit[_taxPool] = true */\n  dup1\n  sload\n  swap1\n  swap5\n  and\n  dup2\n  or\n  swap1\n  swap4\n  sstore\n    /* \"contracts/coffe.sol\":20799:20806  owner() */\n  tag_30\n    /* \"contracts/coffe.sol\":8005:8012  address */\n  0x00\n    /* \"contracts/coffe.sol\":8032:8038  _owner */\n  sload\n  sub(shl(0xa0, 0x01), 0x01)\n  and\n  swap1\n    /* \"contracts/coffe.sol\":7967:8046  function owner() public view returns (address) {... */\n  jump\n    /* \"contracts/coffe.sol\":20799:20806  owner() */\ntag_30:\n  sub(shl(0xa0, 0x01), 0x01)\n    /* \"contracts/coffe.sol\":20778:20807  _isExcludedFromLimit[owner()] */\n  and\n  dup2\n  mstore\n  0x20\n  dup1\n  dup3\n  add\n  swap3\n  swap1\n  swap3\n  mstore\n  0x40\n  swap1\n  dup2\n  add\n  0x00\n  swap1\n  dup2\n  keccak256\n    /* \"contracts/coffe.sol\":20778:20814  _isExcludedFromLimit[owner()] = true */\n  dup1\n  sload\n  swap5\n  iszero\n  iszero\n  not(0xff)\n  swap6\n  dup7\n  and\n  or\n  swap1\n  sstore\n    /* \"contracts/coffe.sol\":20854:20858  this */\n  address\n    /* \"contracts/coffe.sol\":20825:20860  _isExcludedFromLimit[address(this)] */\n  dup2\n  mstore\n    /* \"contracts/coffe.sol\":20825:20845  _isExcludedFromLimit */\n  0x09\n    /* \"contracts/coffe.sol\":20825:20860  _isExcludedFromLimit[address(this)] */\n  swap1\n  swap3\n  mstore\n  swap1\n  keccak256\n    /* \"contracts/coffe.sol\":20825:20867  _isExcludedFromLimit[address(this)] = true */\n  dup1\n  sload\n  swap1\n  swap2\n  and\n    /* \"contracts/coffe.sol\":20778:20814  _isExcludedFromLimit[owner()] = true */\n  0x01\n    /* \"contracts/coffe.sol\":20825:20867  _isExcludedFromLimit[address(this)] = true */\n  or\n  swap1\n  sstore\n    /* \"contracts/coffe.sol\":20906:20918  _msgSender() */\n  tag_31\n    /* \"contracts/coffe.sol\":4209:4219  msg.sender */\n  caller\n  swap1\n    /* \"contracts/coffe.sol\":4113:4228  function _msgSender() internal view virtual returns (address payable) {... */\n  jump\n    /* \"contracts/coffe.sol\":20906:20918  _msgSender() */\ntag_31:\n  sub(shl(0xa0, 0x01), 0x01)\n    /* \"contracts/coffe.sol\":20885:20928  Transfer(address(0), _msgSender(), _tTotal) */\n  and\n    /* \"contracts/coffe.sol\":20902:20903  0 */\n  0x00\n  sub(shl(0xa0, 0x01), 0x01)\n    /* \"contracts/coffe.sol\":20885:20928  Transfer(address(0), _msgSender(), _tTotal) */\n  and\n  0xddf252ad1be2c89b69c2b068fc378daa952ba7f163c4a11628f55a4df523b3ef\n    /* \"contracts/coffe.sol\":20920:20927  _tTotal */\n  sload(0x0b)\n    /* \"contracts/coffe.sol\":20885:20928  Transfer(address(0), _msgSender(), _tTotal) */\n  mload(0x40)\n  tag_32\n  swap2\n    /* \"#utility.yul\":1205:1230   */\n  dup2\n  mstore\n    /* \"#utility.yul\":1193:1195   */\n  0x20\n    /* \"#utility.yul\":1178:1196   */\n  add\n  swap1\n    /* \"#utility.yul\":1059:1236   */\n  jump\n    /* \"contracts/coffe.sol\":20885:20928  Transfer(address(0), _msgSender(), _tTotal) */\ntag_32:\n  mload(0x40)\n  dup1\n  swap2\n  sub\n  swap1\n  log3\n    /* \"contracts/coffe.sol\":19816:20936  {... */\n  pop\n    /* \"contracts/coffe.sol\":18116:38241  contract CoffeCrypto is Context, IERC20, Ownable {... */\n  jump(tag_48)\ntag_6:\n  dup3\n  dup1\n  sload\n  tag_37\n  swap1\n  tag_38\n  jump\t// in\ntag_37:\n  swap1\n  0x00\n  mstore\n  keccak256(0x00, 0x20)\n  swap1\n  0x1f\n  add\n  0x20\n  swap1\n  div\n  dup2\n  add\n  swap3\n  dup3\n  tag_40\n  jumpi\n  0x00\n  dup6\n  sstore\n  jump(tag_43)\ntag_40:\n  dup3\n  0x1f\n  lt\n  tag_41\n  jumpi\n  dup1\n  mload\n  not(0xff)\n  and\n  dup4\n  dup1\n  add\n  or\n  dup6\n  sstore\n  jump(tag_43)\ntag_41:\n  dup3\n  dup1\n  add\n  0x01\n  add\n  dup6\n  sstore\n  dup3\n  iszero\n  tag_43\n  jumpi\n  swap2\n  dup3\n  add\ntag_42:\n  dup3\n  dup2\n  gt\n  iszero\n  tag_43\n  jumpi\n  dup3\n  mload\n  dup3\n  sstore\n  swap2\n  0x20\n  add\n  swap2\n  swap1\n  0x01\n  add\n  swap1\n  jump(tag_42)\ntag_43:\n  pop\n  tag_44\n  swap3\n  swap2\n  pop\n  tag_45\n  jump\t// in\ntag_44:\n  pop\n  swap1\n  jump\t// out\ntag_45:\ntag_46:\n  dup1\n  dup3\n  gt\n  iszero\n  tag_44\n  jumpi\n  0x00\n  dup2\n  sstore\n  0x01\n  add\n  jump(tag_46)\n    /* \"#utility.yul\":14:223   */\ntag_2:\n    /* \"#utility.yul\":46:47   */\n  0x00\n    /* \"#utility.yul\":72:73   */\n  dup3\n    /* \"#utility.yul\":62:194   */\n  tag_50\n  jumpi\n    /* \"#utility.yul\":116:126   */\n  0x4e487b71\n    /* \"#utility.yul\":111:114   */\n  0xe0\n    /* \"#utility.yul\":107:127   */\n  shl\n    /* \"#utility.yul\":104:105   */\n  0x00\n    /* \"#utility.yul\":97:128   */\n  mstore\n    /* \"#utility.yul\":151:155   */\n  0x12\n    /* \"#utility.yul\":148:149   */\n  0x04\n    /* \"#utility.yul\":141:156   */\n  mstore\n    /* \"#utility.yul\":179:183   */\n  0x24\n    /* \"#utility.yul\":176:177   */\n  0x00\n    /* \"#utility.yul\":169:184   */\n  revert\n    /* \"#utility.yul\":62:194   */\ntag_50:\n  pop\n    /* \"#utility.yul\":208:217   */\n  mod\n  swap1\n    /* \"#utility.yul\":14:223   */\n  jump\t// out\n    /* \"#utility.yul\":228:450   */\ntag_4:\n    /* \"#utility.yul\":268:272   */\n  0x00\n    /* \"#utility.yul\":296:297   */\n  dup3\n    /* \"#utility.yul\":293:294   */\n  dup3\n    /* \"#utility.yul\":290:298   */\n  lt\n    /* \"#utility.yul\":287:418   */\n  iszero\n  tag_52\n  jumpi\n    /* \"#utility.yul\":340:350   */\n  0x4e487b71\n    /* \"#utility.yul\":335:338   */\n  0xe0\n    /* \"#utility.yul\":331:351   */\n  shl\n    /* \"#utility.yul\":328:329   */\n  0x00\n    /* \"#utility.yul\":321:352   */\n  mstore\n    /* \"#utility.yul\":375:379   */\n  0x11\n    /* \"#utility.yul\":372:373   */\n  0x04\n    /* \"#utility.yul\":365:380   */\n  mstore\n    /* \"#utility.yul\":403:407   */\n  0x24\n    /* \"#utility.yul\":400:401   */\n  0x00\n    /* \"#utility.yul\":393:408   */\n  revert\n    /* \"#utility.yul\":287:418   */\ntag_52:\n  pop\n    /* \"#utility.yul\":435:444   */\n  sub\n  swap1\n    /* \"#utility.yul\":228:450   */\n  jump\t// out\n    /* \"#utility.yul\":455:745   */\ntag_19:\n    /* \"#utility.yul\":525:531   */\n  0x00\n    /* \"#utility.yul\":578:580   */\n  0x20\n    /* \"#utility.yul\":566:575   */\n  dup3\n    /* \"#utility.yul\":557:564   */\n  dup5\n    /* \"#utility.yul\":553:576   */\n  sub\n    /* \"#utility.yul\":549:581   */\n  slt\n    /* \"#utility.yul\":546:598   */\n  iszero\n  tag_54\n  jumpi\n    /* \"#utility.yul\":594:595   */\n  0x00\n    /* \"#utility.yul\":591:592   */\n  dup1\n    /* \"#utility.yul\":584:596   */\n  revert\n    /* \"#utility.yul\":546:598   */\ntag_54:\n    /* \"#utility.yul\":620:636   */\n  dup2\n  mload\n  sub(shl(0xa0, 0x01), 0x01)\n    /* \"#utility.yul\":665:696   */\n  dup2\n  and\n    /* \"#utility.yul\":655:697   */\n  dup2\n  eq\n    /* \"#utility.yul\":645:715   */\n  tag_55\n  jumpi\n    /* \"#utility.yul\":711:712   */\n  0x00\n    /* \"#utility.yul\":708:709   */\n  dup1\n    /* \"#utility.yul\":701:713   */\n  revert\n    /* \"#utility.yul\":645:715   */\ntag_55:\n    /* \"#utility.yul\":734:739   */\n  swap4\n    /* \"#utility.yul\":455:745   */\n  swap3\n  pop\n  pop\n  pop\n  jump\t// out\n    /* \"#utility.yul\":1241:1621   */\ntag_38:\n    /* \"#utility.yul\":1320:1321   */\n  0x01\n    /* \"#utility.yul\":1316:1328   */\n  dup2\n  dup2\n  shr\n  swap1\n    /* \"#utility.yul\":1363:1375   */\n  dup3\n  and\n  dup1\n    /* \"#utility.yul\":1384:1445   */\n  tag_59\n  jumpi\n    /* \"#utility.yul\":1438:1442   */\n  0x7f\n    /* \"#utility.yul\":1430:1436   */\n  dup3\n    /* \"#utility.yul\":1426:1443   */\n  and\n    /* \"#utility.yul\":1416:1443   */\n  swap2\n  pop\n    /* \"#utility.yul\":1384:1445   */\ntag_59:\n    /* \"#utility.yul\":1491:1493   */\n  0x20\n    /* \"#utility.yul\":1483:1489   */\n  dup3\n    /* \"#utility.yul\":1480:1494   */\n  lt\n    /* \"#utility.yul\":1460:1478   */\n  dup2\n    /* \"#utility.yul\":1457:1495   */\n  eq\n    /* \"#utility.yul\":1454:1615   */\n  iszero\n  tag_60\n  jumpi\n    /* \"#utility.yul\":1537:1547   */\n  0x4e487b71\n    /* \"#utility.yul\":1532:1535   */\n  0xe0\n    /* \"#utility.yul\":1528:1548   */\n  shl\n    /* \"#utility.yul\":1525:1526   */\n  0x00\n    /* \"#utility.yul\":1518:1549   */\n  mstore\n    /* \"#utility.yul\":1572:1576   */\n  0x22\n    /* \"#utility.yul\":1569:1570   */\n  0x04\n    /* \"#utility.yul\":1562:1577   */\n  mstore\n    /* \"#utility.yul\":1600:1604   */\n  0x24\n    /* \"#utility.yul\":1597:1598   */\n  0x00\n    /* \"#utility.yul\":1590:1605   */\n  revert\n    /* \"#utility.yul\":1454:1615   */\ntag_60:\n  pop\n    /* \"#utility.yul\":1241:1621   */\n  swap2\n  swap1\n  pop\n  jump\t// out\ntag_48:\n    /* \"contracts/coffe.sol\":18116:38241  contract CoffeCrypto is Context, IERC20, Ownable {... */\n  mload(0x80)\n  mload(0xa0)\n  codecopy(0x00, dataOffset(sub_0), dataSize(sub_0))\n  0x00\n  assignImmutable(\"0x7b1f476dcca78c0c07534aac79d4a050a1d07b9d08c662437f2c9d98632779bc\")\n  0x00\n  assignImmutable(\"0xb5195a635a48815a20a70a61690787ee680d046bb10d1baaa6f731fa674ca1c3\")\n  return(0x00, dataSize(sub_0))\nstop\n\nsub_0: assembly {\n        /* \"contracts/coffe.sol\":18116:38241  contract CoffeCrypto is Context, IERC20, Ownable {... */\n      mstore(0x40, 0x80)\n      callvalue\n      dup1\n      iszero\n      tag_1\n      jumpi\n      0x00\n      dup1\n      revert\n    tag_1:\n      pop\n      jumpi(tag_2, lt(calldatasize, 0x04))\n      shr(0xe0, calldataload(0x00))\n      dup1\n      0x5342acb4\n      gt\n      tag_43\n      jumpi\n      dup1\n      0xa457c2d7\n      gt\n      tag_44\n      jumpi\n      dup1\n      0xd543dbeb\n      gt\n      tag_45\n      jumpi\n      dup1\n      0xd543dbeb\n      eq\n      tag_38\n      jumpi\n      dup1\n      0xd94160e0\n      eq\n      tag_39\n      jumpi\n      dup1\n      0xdd62ed3e\n      eq\n      tag_40\n      jumpi\n      dup1\n      0xea2f0b37\n      eq\n      tag_41\n      jumpi\n      dup1\n      0xf2fde38b\n      eq\n      tag_42\n      jumpi\n        /* \"contracts/coffe.sol\":38223:38231  revert() */\n      0x00\n      dup1\n      revert\n        /* \"contracts/coffe.sol\":18116:38241  contract CoffeCrypto is Context, IERC20, Ownable {... */\n    tag_45:\n      dup1\n      0xa457c2d7\n      eq\n      tag_33\n      jumpi\n      dup1\n      0xa9059cbb\n      eq\n      tag_34\n      jumpi\n      dup1\n      0xaf2ce614\n      eq\n      tag_35\n      jumpi\n      dup1\n      0xb030b34a\n      eq\n      tag_36\n      jumpi\n      dup1\n      0xba1c4246\n      eq\n      tag_37\n      jumpi\n        /* \"contracts/coffe.sol\":38223:38231  revert() */\n      0x00\n      dup1\n      revert\n        /* \"contracts/coffe.sol\":18116:38241  contract CoffeCrypto is Context, IERC20, Ownable {... */\n    tag_44:\n      dup1\n      0x8da5cb5b\n      gt\n      tag_46\n      jumpi\n      dup1\n      0x8da5cb5b\n      eq\n      tag_28\n      jumpi\n      dup1\n      0x8f9a55c0\n      eq\n      tag_29\n      jumpi\n      dup1\n      0x91d919a9\n      eq\n      tag_30\n      jumpi\n      dup1\n      0x95d89b41\n      eq\n      tag_31\n      jumpi\n      dup1\n      0x9e281a98\n      eq\n      tag_32\n      jumpi\n        /* \"contracts/coffe.sol\":38223:38231  revert() */\n      0x00\n      dup1\n      revert\n        /* \"contracts/coffe.sol\":18116:38241  contract CoffeCrypto is Context, IERC20, Ownable {... */\n    tag_46:\n      dup1\n      0x5342acb4\n      eq\n      tag_23\n      jumpi\n      dup1\n      0x70a08231\n      eq\n      tag_24\n      jumpi\n      dup1\n      0x715018a6\n      eq\n      tag_25\n      jumpi\n      dup1\n      0x7d1db4a5\n      eq\n      tag_26\n      jumpi\n      dup1\n      0x88f82020\n      eq\n      tag_27\n      jumpi\n        /* \"contracts/coffe.sol\":38223:38231  revert() */\n      0x00\n      dup1\n      revert\n        /* \"contracts/coffe.sol\":18116:38241  contract CoffeCrypto is Context, IERC20, Ownable {... */\n    tag_43:\n      dup1\n      0x2d838119\n      gt\n      tag_47\n      jumpi\n      dup1\n      0x4549b039\n      gt\n      tag_48\n      jumpi\n      dup1\n      0x4549b039\n      eq\n      tag_18\n      jumpi\n      dup1\n      0x47062402\n      eq\n      tag_19\n      jumpi\n      dup1\n      0x49bd5a5e\n      eq\n      tag_20\n      jumpi\n      dup1\n      0x4eeb94ce\n      eq\n      tag_21\n      jumpi\n      dup1\n      0x52390c02\n      eq\n      tag_22\n      jumpi\n        /* \"contracts/coffe.sol\":38223:38231  revert() */\n      0x00\n      dup1\n      revert\n        /* \"contracts/coffe.sol\":18116:38241  contract CoffeCrypto is Context, IERC20, Ownable {... */\n    tag_48:\n      dup1\n      0x2d838119\n      eq\n      tag_13\n      jumpi\n      dup1\n      0x313ce567\n      eq\n      tag_14\n      jumpi\n      dup1\n      0x3685d419\n      eq\n      tag_15\n      jumpi\n      dup1\n      0x39509351\n      eq\n      tag_16\n      jumpi\n      dup1\n      0x437823ec\n      eq\n      tag_17\n      jumpi\n        /* \"contracts/coffe.sol\":38223:38231  revert() */\n      0x00\n      dup1\n      revert\n        /* \"contracts/coffe.sol\":18116:38241  contract CoffeCrypto is Context, IERC20, Ownable {... */\n    tag_47:\n      dup1\n      0x1694505e\n      gt\n      tag_49\n      jumpi\n      dup1\n      0x1694505e\n      eq\n      tag_8\n      jumpi\n      dup1\n      0x18160ddd\n      eq\n      tag_9\n      jumpi\n      dup1\n      0x1d7ef879\n      eq\n      tag_10\n      jumpi\n      dup1\n      0x23b872dd\n      eq\n      tag_11\n      jumpi\n      dup1\n      0x2b14ca56\n      eq\n      tag_12\n      jumpi\n        /* \"contracts/coffe.sol\":38223:38231  revert() */\n      0x00\n      dup1\n      revert\n        /* \"contracts/coffe.sol\":18116:38241  contract CoffeCrypto is Context, IERC20, Ownable {... */\n    tag_49:\n      dup1\n      0x06fdde03\n      eq\n      tag_4\n      jumpi\n      dup1\n      0x095ea7b3\n      eq\n      tag_5\n      jumpi\n      dup1\n      0x0bd3a7f9\n      eq\n      tag_6\n      jumpi\n      dup1\n      0x13114a9d\n      eq\n      tag_7\n      jumpi\n    tag_2:\n        /* \"contracts/coffe.sol\":38223:38231  revert() */\n      0x00\n      dup1\n      revert\n        /* \"contracts/coffe.sol\":20944:21027  function name() public view returns (string memory) {... */\n    tag_4:\n      tag_52\n      tag_53\n      jump\t// in\n    tag_52:\n      mload(0x40)\n      tag_54\n      swap2\n      swap1\n      tag_55\n      jump\t// in\n    tag_54:\n      mload(0x40)\n      dup1\n      swap2\n      sub\n      swap1\n      return\n        /* \"contracts/coffe.sol\":21929:22122  function approve(address spender, uint256 amount)... */\n    tag_5:\n      tag_56\n      tag_57\n      calldatasize\n      0x04\n      tag_58\n      jump\t// in\n    tag_57:\n      tag_59\n      jump\t// in\n    tag_56:\n      mload(0x40)\n        /* \"#utility.yul\":1237:1251   */\n      swap1\n      iszero\n        /* \"#utility.yul\":1230:1252   */\n      iszero\n        /* \"#utility.yul\":1212:1253   */\n      dup2\n      mstore\n        /* \"#utility.yul\":1200:1202   */\n      0x20\n        /* \"#utility.yul\":1185:1203   */\n      add\n        /* \"contracts/coffe.sol\":21929:22122  function approve(address spender, uint256 amount)... */\n      tag_54\n        /* \"#utility.yul\":1072:1259   */\n      jump\n        /* \"contracts/coffe.sol\":26628:26743  function excludeFromLimit(address account) public onlyOwner {... */\n    tag_6:\n      tag_62\n      tag_63\n      calldatasize\n      0x04\n      tag_64\n      jump\t// in\n    tag_63:\n      tag_65\n      jump\t// in\n    tag_62:\n      stop\n        /* \"contracts/coffe.sol\":23428:23515  function totalFees() public view returns (uint256) {... */\n    tag_7:\n        /* \"contracts/coffe.sol\":23497:23507  _tFeeTotal */\n      sload(0x0d)\n        /* \"contracts/coffe.sol\":23428:23515  function totalFees() public view returns (uint256) {... */\n    tag_66:\n      mload(0x40)\n        /* \"#utility.yul\":1662:1687   */\n      swap1\n      dup2\n      mstore\n        /* \"#utility.yul\":1650:1652   */\n      0x20\n        /* \"#utility.yul\":1635:1653   */\n      add\n        /* \"contracts/coffe.sol\":23428:23515  function totalFees() public view returns (uint256) {... */\n      tag_54\n        /* \"#utility.yul\":1516:1693   */\n      jump\n        /* \"contracts/coffe.sol\":19425:19476  IUniswapV2Router02 public immutable uniswapV2Router */\n    tag_8:\n      tag_70\n      immutable(\"0xb5195a635a48815a20a70a61690787ee680d046bb10d1baaa6f731fa674ca1c3\")\n      dup2\n      jump\n    tag_70:\n      mload(0x40)\n      sub(shl(0xa0, 0x01), 0x01)\n        /* \"#utility.yul\":1889:1921   */\n      swap1\n      swap2\n      and\n        /* \"#utility.yul\":1871:1922   */\n      dup2\n      mstore\n        /* \"#utility.yul\":1859:1861   */\n      0x20\n        /* \"#utility.yul\":1844:1862   */\n      add\n        /* \"contracts/coffe.sol\":19425:19476  IUniswapV2Router02 public immutable uniswapV2Router */\n      tag_54\n        /* \"#utility.yul\":1698:1928   */\n      jump\n        /* \"contracts/coffe.sol\":21221:21316  function totalSupply() public view override returns (uint256) {... */\n    tag_9:\n        /* \"contracts/coffe.sol\":21301:21308  _tTotal */\n      sload(0x0b)\n        /* \"contracts/coffe.sol\":21221:21316  function totalSupply() public view override returns (uint256) {... */\n      jump(tag_66)\n        /* \"contracts/coffe.sol\":24631:25016  function addBotToBlacklist(address account) external onlyOwner {... */\n    tag_10:\n      tag_62\n      tag_78\n      calldatasize\n      0x04\n      tag_64\n      jump\t// in\n    tag_78:\n      tag_79\n      jump\t// in\n        /* \"contracts/coffe.sol\":22130:22576  function transferFrom(... */\n    tag_11:\n      tag_56\n      tag_81\n      calldatasize\n      0x04\n      tag_82\n      jump\t// in\n    tag_81:\n      tag_83\n      jump\t// in\n        /* \"contracts/coffe.sol\":19328:19350  SellFee public sellFee */\n    tag_12:\n      sload(0x13)\n      tag_85\n      swap1\n      0xffff\n      dup1\n      dup3\n      and\n      swap2\n      0x010000\n      swap1\n      div\n      and\n      dup3\n      jump\n    tag_85:\n      0x40\n      dup1\n      mload\n        /* \"#utility.yul\":2574:2580   */\n      0xffff\n        /* \"#utility.yul\":2607:2622   */\n      swap4\n      dup5\n      and\n        /* \"#utility.yul\":2589:2623   */\n      dup2\n      mstore\n        /* \"#utility.yul\":2659:2674   */\n      swap3\n      swap1\n      swap2\n      and\n        /* \"#utility.yul\":2654:2656   */\n      0x20\n        /* \"#utility.yul\":2639:2657   */\n      dup4\n      add\n        /* \"#utility.yul\":2632:2675   */\n      mstore\n        /* \"#utility.yul\":2537:2555   */\n      add\n        /* \"contracts/coffe.sol\":19328:19350  SellFee public sellFee */\n      tag_54\n        /* \"#utility.yul\":2394:2681   */\n      jump\n        /* \"contracts/coffe.sol\":24173:24495  function tokenFromReflection(uint256 rAmount)... */\n    tag_13:\n      tag_66\n      tag_90\n      calldatasize\n      0x04\n      tag_91\n      jump\t// in\n    tag_90:\n      tag_92\n      jump\t// in\n        /* \"contracts/coffe.sol\":21130:21213  function decimals() public view returns (uint8) {... */\n    tag_14:\n        /* \"contracts/coffe.sol\":21196:21205  _decimals */\n      sload(0x11)\n        /* \"contracts/coffe.sol\":21130:21213  function decimals() public view returns (uint8) {... */\n      mload(0x40)\n        /* \"contracts/coffe.sol\":21196:21205  _decimals */\n      0xff\n      swap1\n      swap2\n      and\n        /* \"#utility.yul\":3013:3049   */\n      dup2\n      mstore\n        /* \"#utility.yul\":3001:3003   */\n      0x20\n        /* \"#utility.yul\":2986:3004   */\n      add\n        /* \"contracts/coffe.sol\":21130:21213  function decimals() public view returns (uint8) {... */\n      tag_54\n        /* \"#utility.yul\":2871:3055   */\n      jump\n        /* \"contracts/coffe.sol\":25910:26383  function includeInReward(address account) external onlyOwner {... */\n    tag_15:\n      tag_62\n      tag_99\n      calldatasize\n      0x04\n      tag_64\n      jump\t// in\n    tag_99:\n      tag_100\n      jump\t// in\n        /* \"contracts/coffe.sol\":22584:22884  function increaseAllowance(address spender, uint256 addedValue)... */\n    tag_16:\n      tag_56\n      tag_102\n      calldatasize\n      0x04\n      tag_58\n      jump\t// in\n    tag_102:\n      tag_103\n      jump\t// in\n        /* \"contracts/coffe.sol\":26391:26502  function excludeFromFee(address account) public onlyOwner {... */\n    tag_17:\n      tag_62\n      tag_106\n      calldatasize\n      0x04\n      tag_64\n      jump\t// in\n    tag_106:\n      tag_107\n      jump\t// in\n        /* \"contracts/coffe.sol\":23525:24163  function reflectionFromToken(uint256 tAmount, bool deductTransferFee)... */\n    tag_18:\n      tag_66\n      tag_109\n      calldatasize\n      0x04\n      tag_110\n      jump\t// in\n    tag_109:\n      tag_111\n      jump\t// in\n        /* \"contracts/coffe.sol\":19301:19321  BuyFee public buyFee */\n    tag_19:\n      sload(0x12)\n      tag_85\n      swap1\n      0xffff\n      dup1\n      dup3\n      and\n      swap2\n      0x010000\n      swap1\n      div\n      and\n      dup3\n      jump\n        /* \"contracts/coffe.sol\":19483:19521  address public immutable uniswapV2Pair */\n    tag_20:\n      tag_70\n      immutable(\"0x7b1f476dcca78c0c07534aac79d4a050a1d07b9d08c662437f2c9d98632779bc\")\n      dup2\n      jump\n        /* \"contracts/coffe.sol\":18914:19017  address payable public _taxPool =... */\n    tag_21:\n      sload(0x0e)\n      tag_70\n      swap1\n      sub(shl(0xa0, 0x01), 0x01)\n      and\n      dup2\n      jump\n        /* \"contracts/coffe.sol\":25570:25902  function excludeFromReward(address account) public onlyOwner {... */\n    tag_22:\n      tag_62\n      tag_125\n      calldatasize\n      0x04\n      tag_64\n      jump\t// in\n    tag_125:\n      tag_126\n      jump\t// in\n        /* \"contracts/coffe.sol\":30329:30453  function isExcludedFromFee(address account) public view returns (bool) {... */\n    tag_23:\n      tag_56\n      tag_128\n      calldatasize\n      0x04\n      tag_64\n      jump\t// in\n    tag_128:\n      sub(shl(0xa0, 0x01), 0x01)\n        /* \"contracts/coffe.sol\":30418:30445  _isExcludedFromFee[account] */\n      and\n        /* \"contracts/coffe.sol\":30394:30398  bool */\n      0x00\n        /* \"contracts/coffe.sol\":30418:30445  _isExcludedFromFee[account] */\n      swap1\n      dup2\n      mstore\n        /* \"contracts/coffe.sol\":30418:30436  _isExcludedFromFee */\n      0x05\n        /* \"contracts/coffe.sol\":30418:30445  _isExcludedFromFee[account] */\n      0x20\n      mstore\n      0x40\n      swap1\n      keccak256\n      sload\n      0xff\n      and\n      swap1\n        /* \"contracts/coffe.sol\":30329:30453  function isExcludedFromFee(address account) public view returns (bool) {... */\n      jump\n        /* \"contracts/coffe.sol\":21324:21522  function balanceOf(address account) public view override returns (uint256) {... */\n    tag_24:\n      tag_66\n      tag_132\n      calldatasize\n      0x04\n      tag_64\n      jump\t// in\n    tag_132:\n      tag_133\n      jump\t// in\n        /* \"contracts/coffe.sol\":8193:8341  function renounceOwnership() public virtual onlyOwner {... */\n    tag_25:\n      tag_62\n      tag_136\n      jump\t// in\n        /* \"contracts/coffe.sol\":19530:19579  uint256 public _maxTxAmount = 5 * 10**10 * 10**10 */\n    tag_26:\n      tag_66\n      sload(0x15)\n      dup2\n      jump\n        /* \"contracts/coffe.sol\":23300:23420  function isExcludedFromReward(address account) public view returns (bool) {... */\n    tag_27:\n      tag_56\n      tag_141\n      calldatasize\n      0x04\n      tag_64\n      jump\t// in\n    tag_141:\n      sub(shl(0xa0, 0x01), 0x01)\n        /* \"contracts/coffe.sol\":23392:23412  _isExcluded[account] */\n      and\n        /* \"contracts/coffe.sol\":23368:23372  bool */\n      0x00\n        /* \"contracts/coffe.sol\":23392:23412  _isExcluded[account] */\n      swap1\n      dup2\n      mstore\n        /* \"contracts/coffe.sol\":23392:23403  _isExcluded */\n      0x06\n        /* \"contracts/coffe.sol\":23392:23412  _isExcluded[account] */\n      0x20\n      mstore\n      0x40\n      swap1\n      keccak256\n      sload\n      0xff\n      and\n      swap1\n        /* \"contracts/coffe.sol\":23300:23420  function isExcludedFromReward(address account) public view returns (bool) {... */\n      jump\n        /* \"contracts/coffe.sol\":7967:8046  function owner() public view returns (address) {... */\n    tag_28:\n        /* \"contracts/coffe.sol\":8005:8012  address */\n      0x00\n        /* \"contracts/coffe.sol\":8032:8038  _owner */\n      sload\n      sub(shl(0xa0, 0x01), 0x01)\n      and\n        /* \"contracts/coffe.sol\":7967:8046  function owner() public view returns (address) {... */\n      jump(tag_70)\n        /* \"contracts/coffe.sol\":19610:19661  uint256 public _maxWalletSize = 2 * 10**11 * 10**10 */\n    tag_29:\n      tag_66\n      sload(0x16)\n      dup2\n      jump\n        /* \"contracts/coffe.sol\":26751:26865  function includeInLimit(address account) public onlyOwner {... */\n    tag_30:\n      tag_62\n      tag_151\n      calldatasize\n      0x04\n      tag_64\n      jump\t// in\n    tag_151:\n      tag_152\n      jump\t// in\n        /* \"contracts/coffe.sol\":21035:21122  function symbol() public view returns (string memory) {... */\n    tag_31:\n      tag_52\n      tag_154\n      jump\t// in\n        /* \"contracts/coffe.sol\":37912:38116  function withdrawToken(address _tokenContract, uint256 _amount) onlyOwner public{... */\n    tag_32:\n      tag_62\n      tag_157\n      calldatasize\n      0x04\n      tag_58\n      jump\t// in\n    tag_157:\n      tag_158\n      jump\t// in\n        /* \"contracts/coffe.sol\":22892:23292  function decreaseAllowance(address spender, uint256 subtractedValue)... */\n    tag_33:\n      tag_56\n      tag_160\n      calldatasize\n      0x04\n      tag_58\n      jump\t// in\n    tag_160:\n      tag_161\n      jump\t// in\n        /* \"contracts/coffe.sol\":21530:21729  function transfer(address recipient, uint256 amount)... */\n    tag_34:\n      tag_56\n      tag_164\n      calldatasize\n      0x04\n      tag_58\n      jump\t// in\n    tag_164:\n      tag_165\n      jump\t// in\n        /* \"contracts/coffe.sol\":27084:27326  function _setMaxWalletSizePercent(uint256 maxWalletSize)... */\n    tag_35:\n      tag_62\n      tag_168\n      calldatasize\n      0x04\n      tag_91\n      jump\t// in\n    tag_168:\n      tag_169\n      jump\t// in\n        /* \"contracts/coffe.sol\":25024:25562  function removeBotFromBlacklist(address account) external onlyOwner {... */\n    tag_36:\n      tag_62\n      tag_171\n      calldatasize\n      0x04\n      tag_64\n      jump\t// in\n    tag_171:\n      tag_172\n      jump\t// in\n        /* \"contracts/coffe.sol\":24505:24621  function updateTaxPoolWallet(address payable newAddress) external onlyOwner {... */\n    tag_37:\n      tag_62\n      tag_174\n      calldatasize\n      0x04\n      tag_64\n      jump\t// in\n    tag_174:\n      tag_176\n      jump\t// in\n        /* \"contracts/coffe.sol\":26873:27076  function setMaxTxPercent(uint256 maxTxPercent) external onlyOwner {... */\n    tag_38:\n      tag_62\n      tag_178\n      calldatasize\n      0x04\n      tag_91\n      jump\t// in\n    tag_178:\n      tag_179\n      jump\t// in\n        /* \"contracts/coffe.sol\":30461:30589  function isExcludedFromLimit(address account) public view returns (bool) {... */\n    tag_39:\n      tag_56\n      tag_181\n      calldatasize\n      0x04\n      tag_64\n      jump\t// in\n    tag_181:\n      sub(shl(0xa0, 0x01), 0x01)\n        /* \"contracts/coffe.sol\":30552:30581  _isExcludedFromLimit[account] */\n      and\n        /* \"contracts/coffe.sol\":30528:30532  bool */\n      0x00\n        /* \"contracts/coffe.sol\":30552:30581  _isExcludedFromLimit[account] */\n      swap1\n      dup2\n      mstore\n        /* \"contracts/coffe.sol\":30552:30572  _isExcludedFromLimit */\n      0x09\n        /* \"contracts/coffe.sol\":30552:30581  _isExcludedFromLimit[account] */\n      0x20\n      mstore\n      0x40\n      swap1\n      keccak256\n      sload\n      0xff\n      and\n      swap1\n        /* \"contracts/coffe.sol\":30461:30589  function isExcludedFromLimit(address account) public view returns (bool) {... */\n      jump\n        /* \"contracts/coffe.sol\":21737:21921  function allowance(address owner, address spender)... */\n    tag_40:\n      tag_66\n      tag_185\n      calldatasize\n      0x04\n      tag_186\n      jump\t// in\n    tag_185:\n      sub(shl(0xa0, 0x01), 0x01)\n        /* \"contracts/coffe.sol\":21886:21904  _allowances[owner] */\n      swap2\n      dup3\n      and\n        /* \"contracts/coffe.sol\":21854:21861  uint256 */\n      0x00\n        /* \"contracts/coffe.sol\":21886:21904  _allowances[owner] */\n      swap1\n      dup2\n      mstore\n        /* \"contracts/coffe.sol\":21886:21897  _allowances */\n      0x04\n        /* \"contracts/coffe.sol\":21886:21904  _allowances[owner] */\n      0x20\n      swap1\n      dup2\n      mstore\n      0x40\n      dup1\n      dup4\n      keccak256\n        /* \"contracts/coffe.sol\":21886:21913  _allowances[owner][spender] */\n      swap4\n      swap1\n      swap5\n      and\n      dup3\n      mstore\n      swap2\n      swap1\n      swap2\n      mstore\n      keccak256\n      sload\n      swap1\n        /* \"contracts/coffe.sol\":21737:21921  function allowance(address owner, address spender)... */\n      jump\n        /* \"contracts/coffe.sol\":26510:26620  function includeInFee(address account) public onlyOwner {... */\n    tag_41:\n      tag_62\n      tag_190\n      calldatasize\n      0x04\n      tag_64\n      jump\t// in\n    tag_190:\n      tag_191\n      jump\t// in\n        /* \"contracts/coffe.sol\":8355:8636  function transferOwnership(address newOwner) public virtual onlyOwner {... */\n    tag_42:\n      tag_62\n      tag_193\n      calldatasize\n      0x04\n      tag_64\n      jump\t// in\n    tag_193:\n      tag_194\n      jump\t// in\n        /* \"contracts/coffe.sol\":20944:21027  function name() public view returns (string memory) {... */\n    tag_53:\n        /* \"contracts/coffe.sol\":20981:20994  string memory */\n      0x60\n        /* \"contracts/coffe.sol\":21014:21019  _name */\n      0x0f\n        /* \"contracts/coffe.sol\":21007:21019  return _name */\n      dup1\n      sload\n      tag_196\n      swap1\n      tag_197\n      jump\t// in\n    tag_196:\n      dup1\n      0x1f\n      add\n      0x20\n      dup1\n      swap2\n      div\n      mul\n      0x20\n      add\n      mload(0x40)\n      swap1\n      dup2\n      add\n      0x40\n      mstore\n      dup1\n      swap3\n      swap2\n      swap1\n      dup2\n      dup2\n      mstore\n      0x20\n      add\n      dup3\n      dup1\n      sload\n      tag_198\n      swap1\n      tag_197\n      jump\t// in\n    tag_198:\n      dup1\n      iszero\n      tag_199\n      jumpi\n      dup1\n      0x1f\n      lt\n      tag_200\n      jumpi\n      0x0100\n      dup1\n      dup4\n      sload\n      div\n      mul\n      dup4\n      mstore\n      swap2\n      0x20\n      add\n      swap2\n      jump(tag_199)\n    tag_200:\n      dup3\n      add\n      swap2\n      swap1\n      0x00\n      mstore\n      keccak256(0x00, 0x20)\n      swap1\n    tag_201:\n      dup2\n      sload\n      dup2\n      mstore\n      swap1\n      0x01\n      add\n      swap1\n      0x20\n      add\n      dup1\n      dup4\n      gt\n      tag_201\n      jumpi\n      dup3\n      swap1\n      sub\n      0x1f\n      and\n      dup3\n      add\n      swap2\n    tag_199:\n      pop\n      pop\n      pop\n      pop\n      pop\n      swap1\n      pop\n        /* \"contracts/coffe.sol\":20944:21027  function name() public view returns (string memory) {... */\n      swap1\n      jump\t// out\n        /* \"contracts/coffe.sol\":21929:22122  function approve(address spender, uint256 amount)... */\n    tag_59:\n        /* \"contracts/coffe.sol\":22031:22035  bool */\n      0x00\n        /* \"contracts/coffe.sol\":22053:22092  _approve(_msgSender(), spender, amount) */\n      tag_203\n        /* \"contracts/coffe.sol\":4209:4219  msg.sender */\n      caller\n        /* \"contracts/coffe.sol\":22076:22083  spender */\n      dup5\n        /* \"contracts/coffe.sol\":22085:22091  amount */\n      dup5\n        /* \"contracts/coffe.sol\":22053:22061  _approve */\n      tag_206\n        /* \"contracts/coffe.sol\":22053:22092  _approve(_msgSender(), spender, amount) */\n      jump\t// in\n    tag_203:\n      pop\n        /* \"contracts/coffe.sol\":22110:22114  true */\n      0x01\n        /* \"contracts/coffe.sol\":21929:22122  function approve(address spender, uint256 amount)... */\n    tag_202:\n      swap3\n      swap2\n      pop\n      pop\n      jump\t// out\n        /* \"contracts/coffe.sol\":26628:26743  function excludeFromLimit(address account) public onlyOwner {... */\n    tag_65:\n        /* \"contracts/coffe.sol\":8100:8106  _owner */\n      and(sub(shl(0xa0, 0x01), 0x01), sload(0x00))\n        /* \"contracts/coffe.sol\":4209:4219  msg.sender */\n      caller\n        /* \"contracts/coffe.sol\":8100:8122  _owner == _msgSender() */\n      eq\n        /* \"contracts/coffe.sol\":8092:8159  require(_owner == _msgSender(), \"Ownable: caller is not the owner\") */\n      tag_209\n      jumpi\n      mload(0x40)\n      shl(0xe5, 0x461bcd)\n      dup2\n      mstore\n      0x04\n      add\n      tag_210\n      swap1\n      tag_211\n      jump\t// in\n    tag_210:\n      mload(0x40)\n      dup1\n      swap2\n      sub\n      swap1\n      revert\n    tag_209:\n      sub(shl(0xa0, 0x01), 0x01)\n        /* \"contracts/coffe.sol\":26699:26728  _isExcludedFromLimit[account] */\n      and\n      0x00\n      swap1\n      dup2\n      mstore\n        /* \"contracts/coffe.sol\":26699:26719  _isExcludedFromLimit */\n      0x09\n        /* \"contracts/coffe.sol\":26699:26728  _isExcludedFromLimit[account] */\n      0x20\n      mstore\n      0x40\n      swap1\n      keccak256\n        /* \"contracts/coffe.sol\":26699:26735  _isExcludedFromLimit[account] = true */\n      dup1\n      sload\n      not(0xff)\n      and\n        /* \"contracts/coffe.sol\":26731:26735  true */\n      0x01\n        /* \"contracts/coffe.sol\":26699:26735  _isExcludedFromLimit[account] = true */\n      or\n      swap1\n      sstore\n        /* \"contracts/coffe.sol\":26628:26743  function excludeFromLimit(address account) public onlyOwner {... */\n      jump\t// out\n        /* \"contracts/coffe.sol\":24631:25016  function addBotToBlacklist(address account) external onlyOwner {... */\n    tag_79:\n        /* \"contracts/coffe.sol\":8100:8106  _owner */\n      and(sub(shl(0xa0, 0x01), 0x01), sload(0x00))\n        /* \"contracts/coffe.sol\":4209:4219  msg.sender */\n      caller\n        /* \"contracts/coffe.sol\":8100:8122  _owner == _msgSender() */\n      eq\n        /* \"contracts/coffe.sol\":8092:8159  require(_owner == _msgSender(), \"Ownable: caller is not the owner\") */\n      tag_217\n      jumpi\n      mload(0x40)\n      shl(0xe5, 0x461bcd)\n      dup2\n      mstore\n      0x04\n      add\n      tag_210\n      swap1\n      tag_211\n      jump\t// in\n    tag_217:\n        /* \"contracts/coffe.sol\":24738:24780  0xD99D1c33F9fC3444f8101754aBC46c52416550D1 */\n      0xd99d1c33f9fc3444f8101754abc46c52416550d1\n      sub(shl(0xa0, 0x01), 0x01)\n        /* \"contracts/coffe.sol\":24727:24780  account != 0xD99D1c33F9fC3444f8101754aBC46c52416550D1 */\n      dup3\n      and\n      eq\n      iszero\n        /* \"contracts/coffe.sol\":24705:24842  require(... */\n      tag_220\n      jumpi\n      mload(0x40)\n      shl(0xe5, 0x461bcd)\n      dup2\n      mstore\n        /* \"#utility.yul\":5530:5532   */\n      0x20\n        /* \"contracts/coffe.sol\":24705:24842  require(... */\n      0x04\n      dup3\n      add\n        /* \"#utility.yul\":5512:5533   */\n      mstore\n        /* \"#utility.yul\":5569:5571   */\n      0x22\n        /* \"#utility.yul\":5549:5567   */\n      0x24\n      dup3\n      add\n        /* \"#utility.yul\":5542:5572   */\n      mstore\n        /* \"#utility.yul\":5608:5642   */\n      0x57652063616e6e6f7420626c61636b6c69737420556e695377617020726f7574\n        /* \"#utility.yul\":5588:5606   */\n      0x44\n      dup3\n      add\n        /* \"#utility.yul\":5581:5643   */\n      mstore\n      shl(0xf1, 0x32b9)\n        /* \"#utility.yul\":5659:5677   */\n      0x64\n      dup3\n      add\n        /* \"#utility.yul\":5652:5684   */\n      mstore\n        /* \"#utility.yul\":5701:5720   */\n      0x84\n      add\n        /* \"contracts/coffe.sol\":24705:24842  require(... */\n      tag_210\n        /* \"#utility.yul\":5328:5726   */\n      jump\n        /* \"contracts/coffe.sol\":24705:24842  require(... */\n    tag_220:\n      sub(shl(0xa0, 0x01), 0x01)\n        /* \"contracts/coffe.sol\":24862:24888  _isBlackListedBot[account] */\n      dup2\n      and\n      0x00\n      swap1\n      dup2\n      mstore\n        /* \"contracts/coffe.sol\":24862:24879  _isBlackListedBot */\n      0x08\n        /* \"contracts/coffe.sol\":24862:24888  _isBlackListedBot[account] */\n      0x20\n      mstore\n      0x40\n      swap1\n      keccak256\n      sload\n      0xff\n      and\n        /* \"contracts/coffe.sol\":24861:24888  !_isBlackListedBot[account] */\n      iszero\n        /* \"contracts/coffe.sol\":24853:24923  require(!_isBlackListedBot[account], \"Account is already blacklisted\") */\n      tag_223\n      jumpi\n      mload(0x40)\n      shl(0xe5, 0x461bcd)\n      dup2\n      mstore\n        /* \"#utility.yul\":5933:5935   */\n      0x20\n        /* \"contracts/coffe.sol\":24853:24923  require(!_isBlackListedBot[account], \"Account is already blacklisted\") */\n      0x04\n      dup3\n      add\n        /* \"#utility.yul\":5915:5936   */\n      mstore\n        /* \"#utility.yul\":5972:5974   */\n      0x1e\n        /* \"#utility.yul\":5952:5970   */\n      0x24\n      dup3\n      add\n        /* \"#utility.yul\":5945:5975   */\n      mstore\n        /* \"#utility.yul\":6011:6043   */\n      0x4163636f756e7420697320616c726561647920626c61636b6c69737465640000\n        /* \"#utility.yul\":5991:6009   */\n      0x44\n      dup3\n      add\n        /* \"#utility.yul\":5984:6044   */\n      mstore\n        /* \"#utility.yul\":6061:6079   */\n      0x64\n      add\n        /* \"contracts/coffe.sol\":24853:24923  require(!_isBlackListedBot[account], \"Account is already blacklisted\") */\n      tag_210\n        /* \"#utility.yul\":5731:6085   */\n      jump\n        /* \"contracts/coffe.sol\":24853:24923  require(!_isBlackListedBot[account], \"Account is already blacklisted\") */\n    tag_223:\n      sub(shl(0xa0, 0x01), 0x01)\n        /* \"contracts/coffe.sol\":24934:24960  _isBlackListedBot[account] */\n      and\n      0x00\n      dup2\n      dup2\n      mstore\n        /* \"contracts/coffe.sol\":24934:24951  _isBlackListedBot */\n      0x08\n        /* \"contracts/coffe.sol\":24934:24960  _isBlackListedBot[account] */\n      0x20\n      mstore\n      0x40\n      dup2\n      keccak256\n        /* \"contracts/coffe.sol\":24934:24967  _isBlackListedBot[account] = true */\n      dup1\n      sload\n      not(0xff)\n      and\n        /* \"contracts/coffe.sol\":24963:24967  true */\n      0x01\n        /* \"contracts/coffe.sol\":24934:24967  _isBlackListedBot[account] = true */\n      swap1\n      dup2\n      or\n      swap1\n      swap2\n      sstore\n        /* \"contracts/coffe.sol\":24978:24994  _blackListedBots */\n      0x0a\n        /* \"contracts/coffe.sol\":24978:25008  _blackListedBots.push(account) */\n      dup1\n      sload\n      swap2\n      dup3\n      add\n      dup2\n      sstore\n      swap1\n      swap2\n      mstore\n      0xc65a7bb8d6351c1cf70c95a316cc6a92839c986682d98bc35f958f4883f9d2a8\n      add\n      dup1\n      sload\n      not(sub(shl(0xa0, 0x01), 0x01))\n      and\n      swap1\n      swap2\n      or\n      swap1\n      sstore\n        /* \"contracts/coffe.sol\":24631:25016  function addBotToBlacklist(address account) external onlyOwner {... */\n      jump\t// out\n        /* \"contracts/coffe.sol\":22130:22576  function transferFrom(... */\n    tag_83:\n        /* \"contracts/coffe.sol\":22262:22266  bool */\n      0x00\n        /* \"contracts/coffe.sol\":22279:22315  _transfer(sender, recipient, amount) */\n      tag_228\n        /* \"contracts/coffe.sol\":22289:22295  sender */\n      dup5\n        /* \"contracts/coffe.sol\":22297:22306  recipient */\n      dup5\n        /* \"contracts/coffe.sol\":22308:22314  amount */\n      dup5\n        /* \"contracts/coffe.sol\":22279:22288  _transfer */\n      tag_229\n        /* \"contracts/coffe.sol\":22279:22315  _transfer(sender, recipient, amount) */\n      jump\t// in\n    tag_228:\n        /* \"contracts/coffe.sol\":22326:22546  _approve(... */\n      tag_230\n        /* \"contracts/coffe.sol\":22349:22355  sender */\n      dup5\n        /* \"contracts/coffe.sol\":4209:4219  msg.sender */\n      caller\n        /* \"contracts/coffe.sol\":22397:22535  _allowances[sender][_msgSender()].sub(... */\n      tag_232\n        /* \"contracts/coffe.sol\":22453:22459  amount */\n      dup6\n        /* \"contracts/coffe.sol\":22397:22535  _allowances[sender][_msgSender()].sub(... */\n      mload(0x40)\n      dup1\n      0x60\n      add\n      0x40\n      mstore\n      dup1\n      0x28\n      dup2\n      mstore\n      0x20\n      add\n      data_974d1b4421da69cc60b481194f0dad36a5bb4e23da810da7a7fb30cdba178330\n      0x28\n      swap2\n      codecopy\n      sub(shl(0xa0, 0x01), 0x01)\n        /* \"contracts/coffe.sol\":22397:22416  _allowances[sender] */\n      dup11\n      and\n      0x00\n      swap1\n      dup2\n      mstore\n        /* \"contracts/coffe.sol\":22397:22408  _allowances */\n      0x04\n        /* \"contracts/coffe.sol\":22397:22416  _allowances[sender] */\n      0x20\n      swap1\n      dup2\n      mstore\n      0x40\n      dup1\n      dup4\n      keccak256\n        /* \"contracts/coffe.sol\":4209:4219  msg.sender */\n      caller\n        /* \"contracts/coffe.sol\":22397:22430  _allowances[sender][_msgSender()] */\n      dup5\n      mstore\n      swap1\n      swap2\n      mstore\n      swap1\n      keccak256\n      sload\n      swap2\n      swap1\n        /* \"contracts/coffe.sol\":22397:22434  _allowances[sender][_msgSender()].sub */\n      tag_234\n        /* \"contracts/coffe.sol\":22397:22535  _allowances[sender][_msgSender()].sub(... */\n      jump\t// in\n    tag_232:\n        /* \"contracts/coffe.sol\":22326:22334  _approve */\n      tag_206\n        /* \"contracts/coffe.sol\":22326:22546  _approve(... */\n      jump\t// in\n    tag_230:\n      pop\n        /* \"contracts/coffe.sol\":22564:22568  true */\n      0x01\n        /* \"contracts/coffe.sol\":22130:22576  function transferFrom(... */\n      swap4\n      swap3\n      pop\n      pop\n      pop\n      jump\t// out\n        /* \"contracts/coffe.sol\":24173:24495  function tokenFromReflection(uint256 rAmount)... */\n    tag_92:\n        /* \"contracts/coffe.sol\":24267:24274  uint256 */\n      0x00\n        /* \"contracts/coffe.sol\":24325:24332  _rTotal */\n      sload(0x0c)\n        /* \"contracts/coffe.sol\":24314:24321  rAmount */\n      dup3\n        /* \"contracts/coffe.sol\":24314:24332  rAmount <= _rTotal */\n      gt\n      iszero\n        /* \"contracts/coffe.sol\":24292:24402  require(... */\n      tag_236\n      jumpi\n      mload(0x40)\n      shl(0xe5, 0x461bcd)\n      dup2\n      mstore\n        /* \"#utility.yul\":6292:6294   */\n      0x20\n        /* \"contracts/coffe.sol\":24292:24402  require(... */\n      0x04\n      dup3\n      add\n        /* \"#utility.yul\":6274:6295   */\n      mstore\n        /* \"#utility.yul\":6331:6333   */\n      0x2a\n        /* \"#utility.yul\":6311:6329   */\n      0x24\n      dup3\n      add\n        /* \"#utility.yul\":6304:6334   */\n      mstore\n        /* \"#utility.yul\":6370:6404   */\n      0x416d6f756e74206d757374206265206c657373207468616e20746f74616c2072\n        /* \"#utility.yul\":6350:6368   */\n      0x44\n      dup3\n      add\n        /* \"#utility.yul\":6343:6405   */\n      mstore\n      shl(0xb0, 0x65666c656374696f6e73)\n        /* \"#utility.yul\":6421:6439   */\n      0x64\n      dup3\n      add\n        /* \"#utility.yul\":6414:6454   */\n      mstore\n        /* \"#utility.yul\":6471:6490   */\n      0x84\n      add\n        /* \"contracts/coffe.sol\":24292:24402  require(... */\n      tag_210\n        /* \"#utility.yul\":6090:6496   */\n      jump\n        /* \"contracts/coffe.sol\":24292:24402  require(... */\n    tag_236:\n        /* \"contracts/coffe.sol\":24413:24432  uint256 currentRate */\n      0x00\n        /* \"contracts/coffe.sol\":24435:24445  _getRate() */\n      tag_239\n        /* \"contracts/coffe.sol\":24435:24443  _getRate */\n      tag_240\n        /* \"contracts/coffe.sol\":24435:24445  _getRate() */\n      jump\t// in\n    tag_239:\n        /* \"contracts/coffe.sol\":24413:24445  uint256 currentRate = _getRate() */\n      swap1\n      pop\n        /* \"contracts/coffe.sol\":24463:24487  rAmount.div(currentRate) */\n      tag_241\n        /* \"contracts/coffe.sol\":24463:24470  rAmount */\n      dup4\n        /* \"contracts/coffe.sol\":24413:24445  uint256 currentRate = _getRate() */\n      dup3\n        /* \"contracts/coffe.sol\":24463:24474  rAmount.div */\n      tag_242\n        /* \"contracts/coffe.sol\":24463:24487  rAmount.div(currentRate) */\n      jump\t// in\n    tag_241:\n        /* \"contracts/coffe.sol\":24456:24487  return rAmount.div(currentRate) */\n      swap4\n        /* \"contracts/coffe.sol\":24173:24495  function tokenFromReflection(uint256 rAmount)... */\n      swap3\n      pop\n      pop\n      pop\n      jump\t// out\n        /* \"contracts/coffe.sol\":25910:26383  function includeInReward(address account) external onlyOwner {... */\n    tag_100:\n        /* \"contracts/coffe.sol\":8100:8106  _owner */\n      and(sub(shl(0xa0, 0x01), 0x01), sload(0x00))\n        /* \"contracts/coffe.sol\":4209:4219  msg.sender */\n      caller\n        /* \"contracts/coffe.sol\":8100:8122  _owner == _msgSender() */\n      eq\n        /* \"contracts/coffe.sol\":8092:8159  require(_owner == _msgSender(), \"Ownable: caller is not the owner\") */\n      tag_246\n      jumpi\n      mload(0x40)\n      shl(0xe5, 0x461bcd)\n      dup2\n      mstore\n      0x04\n      add\n      tag_210\n      swap1\n      tag_211\n      jump\t// in\n    tag_246:\n      sub(shl(0xa0, 0x01), 0x01)\n        /* \"contracts/coffe.sol\":25990:26010  _isExcluded[account] */\n      dup2\n      and\n      0x00\n      swap1\n      dup2\n      mstore\n        /* \"contracts/coffe.sol\":25990:26001  _isExcluded */\n      0x06\n        /* \"contracts/coffe.sol\":25990:26010  _isExcluded[account] */\n      0x20\n      mstore\n      0x40\n      swap1\n      keccak256\n      sload\n      0xff\n      and\n        /* \"contracts/coffe.sol\":25982:26038  require(_isExcluded[account], \"Account is not excluded\") */\n      tag_249\n      jumpi\n      mload(0x40)\n      shl(0xe5, 0x461bcd)\n      dup2\n      mstore\n        /* \"#utility.yul\":6703:6705   */\n      0x20\n        /* \"contracts/coffe.sol\":25982:26038  require(_isExcluded[account], \"Account is not excluded\") */\n      0x04\n      dup3\n      add\n        /* \"#utility.yul\":6685:6706   */\n      mstore\n        /* \"#utility.yul\":6742:6744   */\n      0x17\n        /* \"#utility.yul\":6722:6740   */\n      0x24\n      dup3\n      add\n        /* \"#utility.yul\":6715:6745   */\n      mstore\n        /* \"#utility.yul\":6781:6806   */\n      0x4163636f756e74206973206e6f74206578636c75646564000000000000000000\n        /* \"#utility.yul\":6761:6779   */\n      0x44\n      dup3\n      add\n        /* \"#utility.yul\":6754:6807   */\n      mstore\n        /* \"#utility.yul\":6824:6842   */\n      0x64\n      add\n        /* \"contracts/coffe.sol\":25982:26038  require(_isExcluded[account], \"Account is not excluded\") */\n      tag_210\n        /* \"#utility.yul\":6501:6848   */\n      jump\n        /* \"contracts/coffe.sol\":25982:26038  require(_isExcluded[account], \"Account is not excluded\") */\n    tag_249:\n        /* \"contracts/coffe.sol\":26054:26063  uint256 i */\n      0x00\n        /* \"contracts/coffe.sol\":26049:26376  for (uint256 i = 0; i < _excluded.length; i++) {... */\n    tag_252:\n        /* \"contracts/coffe.sol\":26073:26082  _excluded */\n      0x07\n        /* \"contracts/coffe.sol\":26073:26089  _excluded.length */\n      sload\n        /* \"contracts/coffe.sol\":26069:26089  i < _excluded.length */\n      dup2\n      lt\n        /* \"contracts/coffe.sol\":26049:26376  for (uint256 i = 0; i < _excluded.length; i++) {... */\n      iszero\n      tag_253\n      jumpi\n        /* \"contracts/coffe.sol\":26131:26138  account */\n      dup2\n      sub(shl(0xa0, 0x01), 0x01)\n        /* \"contracts/coffe.sol\":26115:26138  _excluded[i] == account */\n      and\n        /* \"contracts/coffe.sol\":26115:26124  _excluded */\n      0x07\n        /* \"contracts/coffe.sol\":26125:26126  i */\n      dup3\n        /* \"contracts/coffe.sol\":26115:26127  _excluded[i] */\n      dup2\n      sload\n      dup2\n      lt\n      tag_256\n      jumpi\n      tag_256\n      tag_257\n      jump\t// in\n    tag_256:\n      0x00\n      swap2\n      dup3\n      mstore\n      0x20\n      swap1\n      swap2\n      keccak256\n      add\n      sload\n      sub(shl(0xa0, 0x01), 0x01)\n      and\n        /* \"contracts/coffe.sol\":26115:26138  _excluded[i] == account */\n      eq\n        /* \"contracts/coffe.sol\":26111:26365  if (_excluded[i] == account) {... */\n      iszero\n      tag_259\n      jumpi\n        /* \"contracts/coffe.sol\":26174:26183  _excluded */\n      0x07\n        /* \"contracts/coffe.sol\":26184:26200  _excluded.length */\n      dup1\n      sload\n        /* \"contracts/coffe.sol\":26184:26204  _excluded.length - 1 */\n      tag_260\n      swap1\n        /* \"contracts/coffe.sol\":26203:26204  1 */\n      0x01\n      swap1\n        /* \"contracts/coffe.sol\":26184:26204  _excluded.length - 1 */\n      tag_261\n      jump\t// in\n    tag_260:\n        /* \"contracts/coffe.sol\":26174:26205  _excluded[_excluded.length - 1] */\n      dup2\n      sload\n      dup2\n      lt\n      tag_263\n      jumpi\n      tag_263\n      tag_257\n      jump\t// in\n    tag_263:\n      0x00\n      swap2\n      dup3\n      mstore\n      0x20\n      swap1\n      swap2\n      keccak256\n      add\n      sload\n        /* \"contracts/coffe.sol\":26159:26168  _excluded */\n      0x07\n        /* \"contracts/coffe.sol\":26159:26171  _excluded[i] */\n      dup1\n      sload\n      sub(shl(0xa0, 0x01), 0x01)\n        /* \"contracts/coffe.sol\":26174:26205  _excluded[_excluded.length - 1] */\n      swap1\n      swap3\n      and\n      swap2\n        /* \"contracts/coffe.sol\":26169:26170  i */\n      dup4\n      swap1\n        /* \"contracts/coffe.sol\":26159:26171  _excluded[i] */\n      dup2\n      lt\n      tag_266\n      jumpi\n      tag_266\n      tag_257\n      jump\t// in\n    tag_266:\n      0x00\n      swap2\n      dup3\n      mstore\n      0x20\n      dup1\n      dup4\n      keccak256\n      swap2\n      swap1\n      swap2\n      add\n        /* \"contracts/coffe.sol\":26159:26205  _excluded[i] = _excluded[_excluded.length - 1] */\n      dup1\n      sload\n      not(sub(shl(0xa0, 0x01), 0x01))\n      and\n      sub(shl(0xa0, 0x01), 0x01)\n      swap5\n      dup6\n      and\n      or\n      swap1\n      sstore\n        /* \"contracts/coffe.sol\":26224:26240  _tOwned[account] */\n      swap2\n      dup5\n      and\n      dup2\n      mstore\n        /* \"contracts/coffe.sol\":26224:26231  _tOwned */\n      0x03\n        /* \"contracts/coffe.sol\":26224:26240  _tOwned[account] */\n      dup3\n      mstore\n      0x40\n      dup1\n      dup3\n      keccak256\n        /* \"contracts/coffe.sol\":26224:26244  _tOwned[account] = 0 */\n      dup3\n      swap1\n      sstore\n        /* \"contracts/coffe.sol\":26263:26274  _isExcluded */\n      0x06\n        /* \"contracts/coffe.sol\":26263:26283  _isExcluded[account] */\n      swap1\n      swap3\n      mstore\n      keccak256\n        /* \"contracts/coffe.sol\":26263:26291  _isExcluded[account] = false */\n      dup1\n      sload\n      not(0xff)\n      and\n      swap1\n      sstore\n        /* \"contracts/coffe.sol\":26310:26319  _excluded */\n      0x07\n        /* \"contracts/coffe.sol\":26310:26325  _excluded.pop() */\n      dup1\n      sload\n      dup1\n      tag_269\n      jumpi\n      tag_269\n      tag_270\n      jump\t// in\n    tag_269:\n      0x00\n      dup3\n      dup2\n      mstore\n      0x20\n      swap1\n      keccak256\n      dup2\n      add\n      not(0x00)\n      swap1\n      dup2\n      add\n      dup1\n      sload\n      not(sub(shl(0xa0, 0x01), 0x01))\n      and\n      swap1\n      sstore\n      add\n      swap1\n      sstore\n        /* \"contracts/coffe.sol\":26049:26376  for (uint256 i = 0; i < _excluded.length; i++) {... */\n      pop\n        /* \"contracts/coffe.sol\":25910:26383  function includeInReward(address account) external onlyOwner {... */\n      pop\n      jump\t// out\n        /* \"contracts/coffe.sol\":26111:26365  if (_excluded[i] == account) {... */\n    tag_259:\n        /* \"contracts/coffe.sol\":26091:26094  i++ */\n      dup1\n      tag_272\n      dup2\n      tag_273\n      jump\t// in\n    tag_272:\n      swap2\n      pop\n      pop\n        /* \"contracts/coffe.sol\":26049:26376  for (uint256 i = 0; i < _excluded.length; i++) {... */\n      jump(tag_252)\n    tag_253:\n      pop\n        /* \"contracts/coffe.sol\":25910:26383  function includeInReward(address account) external onlyOwner {... */\n      pop\n      jump\t// out\n        /* \"contracts/coffe.sol\":22584:22884  function increaseAllowance(address spender, uint256 addedValue)... */\n    tag_103:\n        /* \"contracts/coffe.sol\":4209:4219  msg.sender */\n      caller\n        /* \"contracts/coffe.sol\":22699:22703  bool */\n      0x00\n        /* \"contracts/coffe.sol\":22793:22818  _allowances[_msgSender()] */\n      dup2\n      dup2\n      mstore\n        /* \"contracts/coffe.sol\":22793:22804  _allowances */\n      0x04\n        /* \"contracts/coffe.sol\":22793:22818  _allowances[_msgSender()] */\n      0x20\n      swap1\n      dup2\n      mstore\n      0x40\n      dup1\n      dup4\n      keccak256\n      sub(shl(0xa0, 0x01), 0x01)\n        /* \"contracts/coffe.sol\":22793:22827  _allowances[_msgSender()][spender] */\n      dup8\n      and\n      dup5\n      mstore\n      swap1\n      swap2\n      mstore\n      dup2\n      keccak256\n      sload\n        /* \"contracts/coffe.sol\":22699:22703  bool */\n      swap1\n      swap2\n        /* \"contracts/coffe.sol\":22721:22854  _approve(... */\n      tag_203\n      swap2\n        /* \"contracts/coffe.sol\":22771:22778  spender */\n      dup6\n      swap1\n        /* \"contracts/coffe.sol\":22793:22843  _allowances[_msgSender()][spender].add(addedValue) */\n      tag_232\n      swap1\n        /* \"contracts/coffe.sol\":22832:22842  addedValue */\n      dup7\n        /* \"contracts/coffe.sol\":22793:22831  _allowances[_msgSender()][spender].add */\n      tag_279\n        /* \"contracts/coffe.sol\":22793:22843  _allowances[_msgSender()][spender].add(addedValue) */\n      jump\t// in\n        /* \"contracts/coffe.sol\":26391:26502  function excludeFromFee(address account) public onlyOwner {... */\n    tag_107:\n        /* \"contracts/coffe.sol\":8100:8106  _owner */\n      and(sub(shl(0xa0, 0x01), 0x01), sload(0x00))\n        /* \"contracts/coffe.sol\":4209:4219  msg.sender */\n      caller\n        /* \"contracts/coffe.sol\":8100:8122  _owner == _msgSender() */\n      eq\n        /* \"contracts/coffe.sol\":8092:8159  require(_owner == _msgSender(), \"Ownable: caller is not the owner\") */\n      tag_282\n      jumpi\n      mload(0x40)\n      shl(0xe5, 0x461bcd)\n      dup2\n      mstore\n      0x04\n      add\n      tag_210\n      swap1\n      tag_211\n      jump\t// in\n    tag_282:\n      sub(shl(0xa0, 0x01), 0x01)\n        /* \"contracts/coffe.sol\":26460:26487  _isExcludedFromFee[account] */\n      and\n      0x00\n      swap1\n      dup2\n      mstore\n        /* \"contracts/coffe.sol\":26460:26478  _isExcludedFromFee */\n      0x05\n        /* \"contracts/coffe.sol\":26460:26487  _isExcludedFromFee[account] */\n      0x20\n      mstore\n      0x40\n      swap1\n      keccak256\n        /* \"contracts/coffe.sol\":26460:26494  _isExcludedFromFee[account] = true */\n      dup1\n      sload\n      not(0xff)\n      and\n        /* \"contracts/coffe.sol\":26490:26494  true */\n      0x01\n        /* \"contracts/coffe.sol\":26460:26494  _isExcludedFromFee[account] = true */\n      or\n      swap1\n      sstore\n        /* \"contracts/coffe.sol\":26391:26502  function excludeFromFee(address account) public onlyOwner {... */\n      jump\t// out\n        /* \"contracts/coffe.sol\":23525:24163  function reflectionFromToken(uint256 tAmount, bool deductTransferFee)... */\n    tag_111:\n        /* \"contracts/coffe.sol\":23643:23650  uint256 */\n      0x00\n        /* \"contracts/coffe.sol\":23687:23694  _tTotal */\n      sload(0x0b)\n        /* \"contracts/coffe.sol\":23676:23683  tAmount */\n      dup4\n        /* \"contracts/coffe.sol\":23676:23694  tAmount <= _tTotal */\n      gt\n      iszero\n        /* \"contracts/coffe.sol\":23668:23730  require(tAmount <= _tTotal, \"Amount must be less than supply\") */\n      tag_286\n      jumpi\n      mload(0x40)\n      shl(0xe5, 0x461bcd)\n      dup2\n      mstore\n        /* \"#utility.yul\":7721:7723   */\n      0x20\n        /* \"contracts/coffe.sol\":23668:23730  require(tAmount <= _tTotal, \"Amount must be less than supply\") */\n      0x04\n      dup3\n      add\n        /* \"#utility.yul\":7703:7724   */\n      mstore\n        /* \"#utility.yul\":7760:7762   */\n      0x1f\n        /* \"#utility.yul\":7740:7758   */\n      0x24\n      dup3\n      add\n        /* \"#utility.yul\":7733:7763   */\n      mstore\n        /* \"#utility.yul\":7799:7832   */\n      0x416d6f756e74206d757374206265206c657373207468616e20737570706c7900\n        /* \"#utility.yul\":7779:7797   */\n      0x44\n      dup3\n      add\n        /* \"#utility.yul\":7772:7833   */\n      mstore\n        /* \"#utility.yul\":7850:7868   */\n      0x64\n      add\n        /* \"contracts/coffe.sol\":23668:23730  require(tAmount <= _tTotal, \"Amount must be less than supply\") */\n      tag_210\n        /* \"#utility.yul\":7519:7874   */\n      jump\n        /* \"contracts/coffe.sol\":23668:23730  require(tAmount <= _tTotal, \"Amount must be less than supply\") */\n    tag_286:\n        /* \"contracts/coffe.sol\":23773:23785  uint256 tFee */\n      0x00\n        /* \"contracts/coffe.sol\":23800:23818  uint256 tMarketing */\n      dup1\n        /* \"contracts/coffe.sol\":23832:23852  _getTValues(tAmount) */\n      tag_289\n        /* \"contracts/coffe.sol\":23844:23851  tAmount */\n      dup6\n        /* \"contracts/coffe.sol\":23832:23843  _getTValues */\n      tag_290\n        /* \"contracts/coffe.sol\":23832:23852  _getTValues(tAmount) */\n      jump\t// in\n    tag_289:\n        /* \"contracts/coffe.sol\":23743:23852  (... */\n      swap3\n      pop\n      swap3\n      pop\n      pop\n        /* \"contracts/coffe.sol\":23864:23879  uint256 rAmount */\n      0x00\n        /* \"contracts/coffe.sol\":23881:23904  uint256 rTransferAmount */\n      dup1\n        /* \"contracts/coffe.sol\":23910:24023  _getRValues(... */\n      tag_291\n        /* \"contracts/coffe.sol\":23936:23943  tAmount */\n      dup8\n        /* \"contracts/coffe.sol\":23958:23962  tFee */\n      dup6\n        /* \"contracts/coffe.sol\":23977:23987  tMarketing */\n      dup6\n        /* \"contracts/coffe.sol\":24002:24012  _getRate() */\n      tag_292\n        /* \"contracts/coffe.sol\":24002:24010  _getRate */\n      tag_240\n        /* \"contracts/coffe.sol\":24002:24012  _getRate() */\n      jump\t// in\n    tag_292:\n        /* \"contracts/coffe.sol\":23910:23921  _getRValues */\n      tag_293\n        /* \"contracts/coffe.sol\":23910:24023  _getRValues(... */\n      jump\t// in\n    tag_291:\n        /* \"contracts/coffe.sol\":23863:24023  (uint256 rAmount, uint256 rTransferAmount, ) = _getRValues(... */\n      pop\n      swap2\n      pop\n      swap2\n      pop\n        /* \"contracts/coffe.sol\":24041:24058  deductTransferFee */\n      dup6\n        /* \"contracts/coffe.sol\":24036:24156  if (!deductTransferFee) {... */\n      tag_294\n      jumpi\n      pop\n        /* \"contracts/coffe.sol\":24082:24089  rAmount */\n      swap3\n      pop\n        /* \"contracts/coffe.sol\":24075:24089  return rAmount */\n      tag_202\n      swap2\n      pop\n      pop\n      jump\n        /* \"contracts/coffe.sol\":24036:24156  if (!deductTransferFee) {... */\n    tag_294:\n        /* \"contracts/coffe.sol\":24129:24144  rTransferAmount */\n      swap4\n      pop\n        /* \"contracts/coffe.sol\":24122:24144  return rTransferAmount */\n      tag_202\n      swap3\n      pop\n      pop\n      pop\n      jump\n        /* \"contracts/coffe.sol\":25570:25902  function excludeFromReward(address account) public onlyOwner {... */\n    tag_126:\n        /* \"contracts/coffe.sol\":8100:8106  _owner */\n      and(sub(shl(0xa0, 0x01), 0x01), sload(0x00))\n        /* \"contracts/coffe.sol\":4209:4219  msg.sender */\n      caller\n        /* \"contracts/coffe.sol\":8100:8122  _owner == _msgSender() */\n      eq\n        /* \"contracts/coffe.sol\":8092:8159  require(_owner == _msgSender(), \"Ownable: caller is not the owner\") */\n      tag_298\n      jumpi\n      mload(0x40)\n      shl(0xe5, 0x461bcd)\n      dup2\n      mstore\n      0x04\n      add\n      tag_210\n      swap1\n      tag_211\n      jump\t// in\n    tag_298:\n      sub(shl(0xa0, 0x01), 0x01)\n        /* \"contracts/coffe.sol\":25651:25671  _isExcluded[account] */\n      dup2\n      and\n      0x00\n      swap1\n      dup2\n      mstore\n        /* \"contracts/coffe.sol\":25651:25662  _isExcluded */\n      0x06\n        /* \"contracts/coffe.sol\":25651:25671  _isExcluded[account] */\n      0x20\n      mstore\n      0x40\n      swap1\n      keccak256\n      sload\n      0xff\n      and\n        /* \"contracts/coffe.sol\":25650:25671  !_isExcluded[account] */\n      iszero\n        /* \"contracts/coffe.sol\":25642:25703  require(!_isExcluded[account], \"Account is already excluded\") */\n      tag_301\n      jumpi\n      mload(0x40)\n      shl(0xe5, 0x461bcd)\n      dup2\n      mstore\n        /* \"#utility.yul\":8081:8083   */\n      0x20\n        /* \"contracts/coffe.sol\":25642:25703  require(!_isExcluded[account], \"Account is already excluded\") */\n      0x04\n      dup3\n      add\n        /* \"#utility.yul\":8063:8084   */\n      mstore\n        /* \"#utility.yul\":8120:8122   */\n      0x1b\n        /* \"#utility.yul\":8100:8118   */\n      0x24\n      dup3\n      add\n        /* \"#utility.yul\":8093:8123   */\n      mstore\n        /* \"#utility.yul\":8159:8188   */\n      0x4163636f756e7420697320616c7265616479206578636c756465640000000000\n        /* \"#utility.yul\":8139:8157   */\n      0x44\n      dup3\n      add\n        /* \"#utility.yul\":8132:8189   */\n      mstore\n        /* \"#utility.yul\":8206:8224   */\n      0x64\n      add\n        /* \"contracts/coffe.sol\":25642:25703  require(!_isExcluded[account], \"Account is already excluded\") */\n      tag_210\n        /* \"#utility.yul\":7879:8230   */\n      jump\n        /* \"contracts/coffe.sol\":25642:25703  require(!_isExcluded[account], \"Account is already excluded\") */\n    tag_301:\n      sub(shl(0xa0, 0x01), 0x01)\n        /* \"contracts/coffe.sol\":25718:25734  _rOwned[account] */\n      dup2\n      and\n        /* \"contracts/coffe.sol\":25737:25738  0 */\n      0x00\n        /* \"contracts/coffe.sol\":25718:25734  _rOwned[account] */\n      swap1\n      dup2\n      mstore\n        /* \"contracts/coffe.sol\":25718:25725  _rOwned */\n      0x02\n        /* \"contracts/coffe.sol\":25718:25734  _rOwned[account] */\n      0x20\n      mstore\n      0x40\n      swap1\n      keccak256\n      sload\n        /* \"contracts/coffe.sol\":25718:25738  _rOwned[account] > 0 */\n      iszero\n        /* \"contracts/coffe.sol\":25714:25823  if (_rOwned[account] > 0) {... */\n      tag_304\n      jumpi\n      sub(shl(0xa0, 0x01), 0x01)\n        /* \"contracts/coffe.sol\":25794:25810  _rOwned[account] */\n      dup2\n      and\n      0x00\n      swap1\n      dup2\n      mstore\n        /* \"contracts/coffe.sol\":25794:25801  _rOwned */\n      0x02\n        /* \"contracts/coffe.sol\":25794:25810  _rOwned[account] */\n      0x20\n      mstore\n      0x40\n      swap1\n      keccak256\n      sload\n        /* \"contracts/coffe.sol\":25774:25811  tokenFromReflection(_rOwned[account]) */\n      tag_305\n      swap1\n        /* \"contracts/coffe.sol\":25774:25793  tokenFromReflection */\n      tag_92\n        /* \"contracts/coffe.sol\":25774:25811  tokenFromReflection(_rOwned[account]) */\n      jump\t// in\n    tag_305:\n      sub(shl(0xa0, 0x01), 0x01)\n        /* \"contracts/coffe.sol\":25755:25771  _tOwned[account] */\n      dup3\n      and\n      0x00\n      swap1\n      dup2\n      mstore\n        /* \"contracts/coffe.sol\":25755:25762  _tOwned */\n      0x03\n        /* \"contracts/coffe.sol\":25755:25771  _tOwned[account] */\n      0x20\n      mstore\n      0x40\n      swap1\n      keccak256\n        /* \"contracts/coffe.sol\":25755:25811  _tOwned[account] = tokenFromReflection(_rOwned[account]) */\n      sstore\n        /* \"contracts/coffe.sol\":25714:25823  if (_rOwned[account] > 0) {... */\n    tag_304:\n      sub(shl(0xa0, 0x01), 0x01)\n        /* \"contracts/coffe.sol\":25833:25853  _isExcluded[account] */\n      and\n      0x00\n      dup2\n      dup2\n      mstore\n        /* \"contracts/coffe.sol\":25833:25844  _isExcluded */\n      0x06\n        /* \"contracts/coffe.sol\":25833:25853  _isExcluded[account] */\n      0x20\n      mstore\n      0x40\n      dup2\n      keccak256\n        /* \"contracts/coffe.sol\":25833:25860  _isExcluded[account] = true */\n      dup1\n      sload\n      not(0xff)\n      and\n        /* \"contracts/coffe.sol\":25856:25860  true */\n      0x01\n        /* \"contracts/coffe.sol\":25833:25860  _isExcluded[account] = true */\n      swap1\n      dup2\n      or\n      swap1\n      swap2\n      sstore\n        /* \"contracts/coffe.sol\":25871:25880  _excluded */\n      0x07\n        /* \"contracts/coffe.sol\":25871:25894  _excluded.push(account) */\n      dup1\n      sload\n      swap2\n      dup3\n      add\n      dup2\n      sstore\n      swap1\n      swap2\n      mstore\n      0xa66cc928b5edb82af9bd49922954155ab7b0942694bea4ce44661d9a8736c688\n      add\n      dup1\n      sload\n      not(sub(shl(0xa0, 0x01), 0x01))\n      and\n      swap1\n      swap2\n      or\n      swap1\n      sstore\n        /* \"contracts/coffe.sol\":25570:25902  function excludeFromReward(address account) public onlyOwner {... */\n      jump\t// out\n        /* \"contracts/coffe.sol\":21324:21522  function balanceOf(address account) public view override returns (uint256) {... */\n    tag_133:\n      sub(shl(0xa0, 0x01), 0x01)\n        /* \"contracts/coffe.sol\":21414:21434  _isExcluded[account] */\n      dup2\n      and\n        /* \"contracts/coffe.sol\":21390:21397  uint256 */\n      0x00\n        /* \"contracts/coffe.sol\":21414:21434  _isExcluded[account] */\n      swap1\n      dup2\n      mstore\n        /* \"contracts/coffe.sol\":21414:21425  _isExcluded */\n      0x06\n        /* \"contracts/coffe.sol\":21414:21434  _isExcluded[account] */\n      0x20\n      mstore\n      0x40\n      dup2\n      keccak256\n      sload\n      0xff\n      and\n        /* \"contracts/coffe.sol\":21410:21459  if (_isExcluded[account]) return _tOwned[account] */\n      iszero\n      tag_309\n      jumpi\n      pop\n      sub(shl(0xa0, 0x01), 0x01)\n        /* \"contracts/coffe.sol\":21443:21459  _tOwned[account] */\n      and\n      0x00\n      swap1\n      dup2\n      mstore\n        /* \"contracts/coffe.sol\":21443:21450  _tOwned */\n      0x03\n        /* \"contracts/coffe.sol\":21443:21459  _tOwned[account] */\n      0x20\n      mstore\n      0x40\n      swap1\n      keccak256\n      sload\n      swap1\n        /* \"contracts/coffe.sol\":21324:21522  function balanceOf(address account) public view override returns (uint256) {... */\n      jump\t// out\n        /* \"contracts/coffe.sol\":21410:21459  if (_isExcluded[account]) return _tOwned[account] */\n    tag_309:\n      sub(shl(0xa0, 0x01), 0x01)\n        /* \"contracts/coffe.sol\":21497:21513  _rOwned[account] */\n      dup3\n      and\n      0x00\n      swap1\n      dup2\n      mstore\n        /* \"contracts/coffe.sol\":21497:21504  _rOwned */\n      0x02\n        /* \"contracts/coffe.sol\":21497:21513  _rOwned[account] */\n      0x20\n      mstore\n      0x40\n      swap1\n      keccak256\n      sload\n        /* \"contracts/coffe.sol\":21477:21514  tokenFromReflection(_rOwned[account]) */\n      tag_202\n      swap1\n        /* \"contracts/coffe.sol\":21477:21496  tokenFromReflection */\n      tag_92\n        /* \"contracts/coffe.sol\":21477:21514  tokenFromReflection(_rOwned[account]) */\n      jump\t// in\n        /* \"contracts/coffe.sol\":8193:8341  function renounceOwnership() public virtual onlyOwner {... */\n    tag_136:\n        /* \"contracts/coffe.sol\":8100:8106  _owner */\n      and(sub(shl(0xa0, 0x01), 0x01), sload(0x00))\n        /* \"contracts/coffe.sol\":4209:4219  msg.sender */\n      caller\n        /* \"contracts/coffe.sol\":8100:8122  _owner == _msgSender() */\n      eq\n        /* \"contracts/coffe.sol\":8092:8159  require(_owner == _msgSender(), \"Ownable: caller is not the owner\") */\n      tag_313\n      jumpi\n      mload(0x40)\n      shl(0xe5, 0x461bcd)\n      dup2\n      mstore\n      0x04\n      add\n      tag_210\n      swap1\n      tag_211\n      jump\t// in\n    tag_313:\n        /* \"contracts/coffe.sol\":8300:8301  0 */\n      0x00\n        /* \"contracts/coffe.sol\":8284:8290  _owner */\n      dup1\n      sload\n        /* \"contracts/coffe.sol\":8263:8303  OwnershipTransferred(_owner, address(0)) */\n      mload(0x40)\n      sub(shl(0xa0, 0x01), 0x01)\n        /* \"contracts/coffe.sol\":8284:8290  _owner */\n      swap1\n      swap2\n      and\n      swap1\n        /* \"contracts/coffe.sol\":8263:8303  OwnershipTransferred(_owner, address(0)) */\n      0x8be0079c531659141344cd1fd0a4f28419497f9722a3daafe3b4186f6b6457e0\n      swap1\n        /* \"contracts/coffe.sol\":8300:8301  0 */\n      dup4\n      swap1\n        /* \"contracts/coffe.sol\":8263:8303  OwnershipTransferred(_owner, address(0)) */\n      log3\n        /* \"contracts/coffe.sol\":8331:8332  0 */\n      0x00\n        /* \"contracts/coffe.sol\":8314:8333  _owner = address(0) */\n      dup1\n      sload\n      not(sub(shl(0xa0, 0x01), 0x01))\n      and\n      swap1\n      sstore\n        /* \"contracts/coffe.sol\":8193:8341  function renounceOwnership() public virtual onlyOwner {... */\n      jump\t// out\n        /* \"contracts/coffe.sol\":26751:26865  function includeInLimit(address account) public onlyOwner {... */\n    tag_152:\n        /* \"contracts/coffe.sol\":8100:8106  _owner */\n      and(sub(shl(0xa0, 0x01), 0x01), sload(0x00))\n        /* \"contracts/coffe.sol\":4209:4219  msg.sender */\n      caller\n        /* \"contracts/coffe.sol\":8100:8122  _owner == _msgSender() */\n      eq\n        /* \"contracts/coffe.sol\":8092:8159  require(_owner == _msgSender(), \"Ownable: caller is not the owner\") */\n      tag_320\n      jumpi\n      mload(0x40)\n      shl(0xe5, 0x461bcd)\n      dup2\n      mstore\n      0x04\n      add\n      tag_210\n      swap1\n      tag_211\n      jump\t// in\n    tag_320:\n      sub(shl(0xa0, 0x01), 0x01)\n        /* \"contracts/coffe.sol\":26820:26849  _isExcludedFromLimit[account] */\n      and\n        /* \"contracts/coffe.sol\":26852:26857  false */\n      0x00\n        /* \"contracts/coffe.sol\":26820:26849  _isExcludedFromLimit[account] */\n      swap1\n      dup2\n      mstore\n        /* \"contracts/coffe.sol\":26820:26840  _isExcludedFromLimit */\n      0x09\n        /* \"contracts/coffe.sol\":26820:26849  _isExcludedFromLimit[account] */\n      0x20\n      mstore\n      0x40\n      swap1\n      keccak256\n        /* \"contracts/coffe.sol\":26820:26857  _isExcludedFromLimit[account] = false */\n      dup1\n      sload\n      not(0xff)\n      and\n      swap1\n      sstore\n        /* \"contracts/coffe.sol\":26751:26865  function includeInLimit(address account) public onlyOwner {... */\n      jump\t// out\n        /* \"contracts/coffe.sol\":21035:21122  function symbol() public view returns (string memory) {... */\n    tag_154:\n        /* \"contracts/coffe.sol\":21074:21087  string memory */\n      0x60\n        /* \"contracts/coffe.sol\":21107:21114  _symbol */\n      0x10\n        /* \"contracts/coffe.sol\":21100:21114  return _symbol */\n      dup1\n      sload\n      tag_196\n      swap1\n      tag_197\n      jump\t// in\n        /* \"contracts/coffe.sol\":37912:38116  function withdrawToken(address _tokenContract, uint256 _amount) onlyOwner public{... */\n    tag_158:\n        /* \"contracts/coffe.sol\":8100:8106  _owner */\n      and(sub(shl(0xa0, 0x01), 0x01), sload(0x00))\n        /* \"contracts/coffe.sol\":4209:4219  msg.sender */\n      caller\n        /* \"contracts/coffe.sol\":8100:8122  _owner == _msgSender() */\n      eq\n        /* \"contracts/coffe.sol\":8092:8159  require(_owner == _msgSender(), \"Ownable: caller is not the owner\") */\n      tag_331\n      jumpi\n      mload(0x40)\n      shl(0xe5, 0x461bcd)\n      dup2\n      mstore\n      0x04\n      add\n      tag_210\n      swap1\n      tag_211\n      jump\t// in\n    tag_331:\n        /* \"contracts/coffe.sol\":38065:38108  tokenContract.transfer(msg.sender, _amount) */\n      mload(0x40)\n      shl(0xe0, 0xa9059cbb)\n      dup2\n      mstore\n        /* \"contracts/coffe.sol\":38088:38098  msg.sender */\n      caller\n        /* \"contracts/coffe.sol\":38065:38108  tokenContract.transfer(msg.sender, _amount) */\n      0x04\n      dup3\n      add\n        /* \"#utility.yul\":8409:8460   */\n      mstore\n        /* \"#utility.yul\":8476:8494   */\n      0x24\n      dup2\n      add\n        /* \"#utility.yul\":8469:8503   */\n      dup3\n      swap1\n      mstore\n        /* \"contracts/coffe.sol\":38039:38053  _tokenContract */\n      dup3\n      swap1\n      sub(shl(0xa0, 0x01), 0x01)\n        /* \"contracts/coffe.sol\":38065:38087  tokenContract.transfer */\n      dup3\n      and\n      swap1\n      0xa9059cbb\n      swap1\n        /* \"#utility.yul\":8382:8400   */\n      0x44\n      add\n        /* \"contracts/coffe.sol\":38065:38108  tokenContract.transfer(msg.sender, _amount) */\n      0x20\n      mload(0x40)\n      dup1\n      dup4\n      sub\n      dup2\n      0x00\n      dup8\n      gas\n      call\n      iszero\n      dup1\n      iszero\n      tag_337\n      jumpi\n      returndatasize\n      0x00\n      dup1\n      returndatacopy\n      revert(0x00, returndatasize)\n    tag_337:\n      pop\n      pop\n      pop\n      pop\n      mload(0x40)\n      returndatasize\n      not(0x1f)\n      0x1f\n      dup3\n      add\n      and\n      dup3\n      add\n      dup1\n      0x40\n      mstore\n      pop\n      dup2\n      add\n      swap1\n      tag_338\n      swap2\n      swap1\n      tag_339\n      jump\t// in\n    tag_338:\n      pop\n        /* \"contracts/coffe.sol\":37992:38116  {... */\n      pop\n        /* \"contracts/coffe.sol\":37912:38116  function withdrawToken(address _tokenContract, uint256 _amount) onlyOwner public{... */\n      pop\n      pop\n      jump\t// out\n        /* \"contracts/coffe.sol\":22892:23292  function decreaseAllowance(address spender, uint256 subtractedValue)... */\n    tag_161:\n        /* \"contracts/coffe.sol\":23012:23016  bool */\n      0x00\n        /* \"contracts/coffe.sol\":23034:23262  _approve(... */\n      tag_203\n        /* \"contracts/coffe.sol\":4209:4219  msg.sender */\n      caller\n        /* \"contracts/coffe.sol\":23084:23091  spender */\n      dup5\n        /* \"contracts/coffe.sol\":23106:23251  _allowances[_msgSender()][spender].sub(... */\n      tag_232\n        /* \"contracts/coffe.sol\":23163:23178  subtractedValue */\n      dup6\n        /* \"contracts/coffe.sol\":23106:23251  _allowances[_msgSender()][spender].sub(... */\n      mload(0x40)\n      dup1\n      0x60\n      add\n      0x40\n      mstore\n      dup1\n      0x25\n      dup2\n      mstore\n      0x20\n      add\n      data_f8b476f7d28209d77d4a4ac1fe36b9f8259aa1bb6bddfa6e89de7e51615cf8a8\n      0x25\n      swap2\n      codecopy\n        /* \"contracts/coffe.sol\":4209:4219  msg.sender */\n      caller\n        /* \"contracts/coffe.sol\":23106:23131  _allowances[_msgSender()] */\n      0x00\n      swap1\n      dup2\n      mstore\n        /* \"contracts/coffe.sol\":23106:23117  _allowances */\n      0x04\n        /* \"contracts/coffe.sol\":23106:23131  _allowances[_msgSender()] */\n      0x20\n      swap1\n      dup2\n      mstore\n      0x40\n      dup1\n      dup4\n      keccak256\n      sub(shl(0xa0, 0x01), 0x01)\n        /* \"contracts/coffe.sol\":23106:23140  _allowances[_msgSender()][spender] */\n      dup14\n      and\n      dup5\n      mstore\n      swap1\n      swap2\n      mstore\n      swap1\n      keccak256\n      sload\n      swap2\n      swap1\n        /* \"contracts/coffe.sol\":23106:23144  _allowances[_msgSender()][spender].sub */\n      tag_234\n        /* \"contracts/coffe.sol\":23106:23251  _allowances[_msgSender()][spender].sub(... */\n      jump\t// in\n        /* \"contracts/coffe.sol\":21530:21729  function transfer(address recipient, uint256 amount)... */\n    tag_165:\n        /* \"contracts/coffe.sol\":21635:21639  bool */\n      0x00\n        /* \"contracts/coffe.sol\":21657:21699  _transfer(_msgSender(), recipient, amount) */\n      tag_203\n        /* \"contracts/coffe.sol\":4209:4219  msg.sender */\n      caller\n        /* \"contracts/coffe.sol\":21681:21690  recipient */\n      dup5\n        /* \"contracts/coffe.sol\":21692:21698  amount */\n      dup5\n        /* \"contracts/coffe.sol\":21657:21666  _transfer */\n      tag_229\n        /* \"contracts/coffe.sol\":21657:21699  _transfer(_msgSender(), recipient, amount) */\n      jump\t// in\n        /* \"contracts/coffe.sol\":27084:27326  function _setMaxWalletSizePercent(uint256 maxWalletSize)... */\n    tag_169:\n        /* \"contracts/coffe.sol\":8100:8106  _owner */\n      and(sub(shl(0xa0, 0x01), 0x01), sload(0x00))\n        /* \"contracts/coffe.sol\":4209:4219  msg.sender */\n      caller\n        /* \"contracts/coffe.sol\":8100:8122  _owner == _msgSender() */\n      eq\n        /* \"contracts/coffe.sol\":8092:8159  require(_owner == _msgSender(), \"Ownable: caller is not the owner\") */\n      tag_350\n      jumpi\n      mload(0x40)\n      shl(0xe5, 0x461bcd)\n      dup2\n      mstore\n      0x04\n      add\n      tag_210\n      swap1\n      tag_211\n      jump\t// in\n    tag_350:\n        /* \"contracts/coffe.sol\":27213:27217  1000 */\n      0x03e8\n        /* \"contracts/coffe.sol\":27196:27209  maxWalletSize */\n      dup2\n        /* \"contracts/coffe.sol\":27196:27217  maxWalletSize <= 1000 */\n      gt\n      iszero\n        /* \"contracts/coffe.sol\":27188:27251  require(maxWalletSize <= 1000, \"maxWalletSize exceeds divider\") */\n      tag_353\n      jumpi\n      mload(0x40)\n      shl(0xe5, 0x461bcd)\n      dup2\n      mstore\n        /* \"#utility.yul\":8966:8968   */\n      0x20\n        /* \"contracts/coffe.sol\":27188:27251  require(maxWalletSize <= 1000, \"maxWalletSize exceeds divider\") */\n      0x04\n      dup3\n      add\n        /* \"#utility.yul\":8948:8969   */\n      mstore\n        /* \"#utility.yul\":9005:9007   */\n      0x1d\n        /* \"#utility.yul\":8985:9003   */\n      0x24\n      dup3\n      add\n        /* \"#utility.yul\":8978:9008   */\n      mstore\n        /* \"#utility.yul\":9044:9075   */\n      0x6d617857616c6c657453697a6520657863656564732064697669646572000000\n        /* \"#utility.yul\":9024:9042   */\n      0x44\n      dup3\n      add\n        /* \"#utility.yul\":9017:9076   */\n      mstore\n        /* \"#utility.yul\":9093:9111   */\n      0x64\n      add\n        /* \"contracts/coffe.sol\":27188:27251  require(maxWalletSize <= 1000, \"maxWalletSize exceeds divider\") */\n      tag_210\n        /* \"#utility.yul\":8764:9117   */\n      jump\n        /* \"contracts/coffe.sol\":27188:27251  require(maxWalletSize <= 1000, \"maxWalletSize exceeds divider\") */\n    tag_353:\n        /* \"contracts/coffe.sol\":27281:27318  _tTotal.mul(maxWalletSize).div(10**3) */\n      tag_356\n        /* \"contracts/coffe.sol\":27312:27317  10**3 */\n      0x03e8\n        /* \"contracts/coffe.sol\":27281:27307  _tTotal.mul(maxWalletSize) */\n      tag_357\n        /* \"contracts/coffe.sol\":27293:27306  maxWalletSize */\n      dup4\n        /* \"contracts/coffe.sol\":27281:27288  _tTotal */\n      sload(0x0b)\n        /* \"contracts/coffe.sol\":27281:27292  _tTotal.mul */\n      tag_358\n      swap1\n        /* \"contracts/coffe.sol\":27281:27307  _tTotal.mul(maxWalletSize) */\n      swap2\n      swap1\n      0xffffffff\n      and\n      jump\t// in\n    tag_357:\n        /* \"contracts/coffe.sol\":27281:27311  _tTotal.mul(maxWalletSize).div */\n      swap1\n      tag_242\n        /* \"contracts/coffe.sol\":27281:27318  _tTotal.mul(maxWalletSize).div(10**3) */\n      jump\t// in\n    tag_356:\n        /* \"contracts/coffe.sol\":27264:27278  _maxWalletSize */\n      0x16\n        /* \"contracts/coffe.sol\":27264:27318  _maxWalletSize = _tTotal.mul(maxWalletSize).div(10**3) */\n      sstore\n      pop\n        /* \"contracts/coffe.sol\":27084:27326  function _setMaxWalletSizePercent(uint256 maxWalletSize)... */\n      jump\t// out\n        /* \"contracts/coffe.sol\":25024:25562  function removeBotFromBlacklist(address account) external onlyOwner {... */\n    tag_172:\n        /* \"contracts/coffe.sol\":8100:8106  _owner */\n      and(sub(shl(0xa0, 0x01), 0x01), sload(0x00))\n        /* \"contracts/coffe.sol\":4209:4219  msg.sender */\n      caller\n        /* \"contracts/coffe.sol\":8100:8122  _owner == _msgSender() */\n      eq\n        /* \"contracts/coffe.sol\":8092:8159  require(_owner == _msgSender(), \"Ownable: caller is not the owner\") */\n      tag_361\n      jumpi\n      mload(0x40)\n      shl(0xe5, 0x461bcd)\n      dup2\n      mstore\n      0x04\n      add\n      tag_210\n      swap1\n      tag_211\n      jump\t// in\n    tag_361:\n      sub(shl(0xa0, 0x01), 0x01)\n        /* \"contracts/coffe.sol\":25111:25137  _isBlackListedBot[account] */\n      dup2\n      and\n      0x00\n      swap1\n      dup2\n      mstore\n        /* \"contracts/coffe.sol\":25111:25128  _isBlackListedBot */\n      0x08\n        /* \"contracts/coffe.sol\":25111:25137  _isBlackListedBot[account] */\n      0x20\n      mstore\n      0x40\n      swap1\n      keccak256\n      sload\n      0xff\n      and\n        /* \"contracts/coffe.sol\":25103:25168  require(_isBlackListedBot[account], \"Account is not blacklisted\") */\n      tag_364\n      jumpi\n      mload(0x40)\n      shl(0xe5, 0x461bcd)\n      dup2\n      mstore\n        /* \"#utility.yul\":9324:9326   */\n      0x20\n        /* \"contracts/coffe.sol\":25103:25168  require(_isBlackListedBot[account], \"Account is not blacklisted\") */\n      0x04\n      dup3\n      add\n        /* \"#utility.yul\":9306:9327   */\n      mstore\n        /* \"#utility.yul\":9363:9365   */\n      0x1a\n        /* \"#utility.yul\":9343:9361   */\n      0x24\n      dup3\n      add\n        /* \"#utility.yul\":9336:9366   */\n      mstore\n        /* \"#utility.yul\":9402:9430   */\n      0x4163636f756e74206973206e6f7420626c61636b6c6973746564000000000000\n        /* \"#utility.yul\":9382:9400   */\n      0x44\n      dup3\n      add\n        /* \"#utility.yul\":9375:9431   */\n      mstore\n        /* \"#utility.yul\":9448:9466   */\n      0x64\n      add\n        /* \"contracts/coffe.sol\":25103:25168  require(_isBlackListedBot[account], \"Account is not blacklisted\") */\n      tag_210\n        /* \"#utility.yul\":9122:9472   */\n      jump\n        /* \"contracts/coffe.sol\":25103:25168  require(_isBlackListedBot[account], \"Account is not blacklisted\") */\n    tag_364:\n        /* \"contracts/coffe.sol\":25184:25193  uint256 i */\n      0x00\n        /* \"contracts/coffe.sol\":25179:25555  for (uint256 i = 0; i < _blackListedBots.length; i++) {... */\n    tag_367:\n        /* \"contracts/coffe.sol\":25203:25219  _blackListedBots */\n      0x0a\n        /* \"contracts/coffe.sol\":25203:25226  _blackListedBots.length */\n      sload\n        /* \"contracts/coffe.sol\":25199:25226  i < _blackListedBots.length */\n      dup2\n      lt\n        /* \"contracts/coffe.sol\":25179:25555  for (uint256 i = 0; i < _blackListedBots.length; i++) {... */\n      iszero\n      tag_253\n      jumpi\n        /* \"contracts/coffe.sol\":25275:25282  account */\n      dup2\n      sub(shl(0xa0, 0x01), 0x01)\n        /* \"contracts/coffe.sol\":25252:25282  _blackListedBots[i] == account */\n      and\n        /* \"contracts/coffe.sol\":25252:25268  _blackListedBots */\n      0x0a\n        /* \"contracts/coffe.sol\":25269:25270  i */\n      dup3\n        /* \"contracts/coffe.sol\":25252:25271  _blackListedBots[i] */\n      dup2\n      sload\n      dup2\n      lt\n      tag_371\n      jumpi\n      tag_371\n      tag_257\n      jump\t// in\n    tag_371:\n      0x00\n      swap2\n      dup3\n      mstore\n      0x20\n      swap1\n      swap2\n      keccak256\n      add\n      sload\n      sub(shl(0xa0, 0x01), 0x01)\n      and\n        /* \"contracts/coffe.sol\":25252:25282  _blackListedBots[i] == account */\n      eq\n        /* \"contracts/coffe.sol\":25248:25544  if (_blackListedBots[i] == account) {... */\n      iszero\n      tag_373\n      jumpi\n        /* \"contracts/coffe.sol\":25325:25341  _blackListedBots */\n      0x0a\n        /* \"contracts/coffe.sol\":25364:25387  _blackListedBots.length */\n      dup1\n      sload\n        /* \"contracts/coffe.sol\":25364:25391  _blackListedBots.length - 1 */\n      tag_374\n      swap1\n        /* \"contracts/coffe.sol\":25390:25391  1 */\n      0x01\n      swap1\n        /* \"contracts/coffe.sol\":25364:25391  _blackListedBots.length - 1 */\n      tag_261\n      jump\t// in\n    tag_374:\n        /* \"contracts/coffe.sol\":25325:25410  _blackListedBots[... */\n      dup2\n      sload\n      dup2\n      lt\n      tag_376\n      jumpi\n      tag_376\n      tag_257\n      jump\t// in\n    tag_376:\n      0x00\n      swap2\n      dup3\n      mstore\n      0x20\n      swap1\n      swap2\n      keccak256\n      add\n      sload\n        /* \"contracts/coffe.sol\":25303:25319  _blackListedBots */\n      0x0a\n        /* \"contracts/coffe.sol\":25303:25322  _blackListedBots[i] */\n      dup1\n      sload\n      sub(shl(0xa0, 0x01), 0x01)\n        /* \"contracts/coffe.sol\":25325:25410  _blackListedBots[... */\n      swap1\n      swap3\n      and\n      swap2\n        /* \"contracts/coffe.sol\":25320:25321  i */\n      dup4\n      swap1\n        /* \"contracts/coffe.sol\":25303:25322  _blackListedBots[i] */\n      dup2\n      lt\n      tag_379\n      jumpi\n      tag_379\n      tag_257\n      jump\t// in\n    tag_379:\n      0x00\n      swap2\n      dup3\n      mstore\n      0x20\n      dup1\n      dup4\n      keccak256\n      swap2\n      swap1\n      swap2\n      add\n        /* \"contracts/coffe.sol\":25303:25410  _blackListedBots[i] = _blackListedBots[... */\n      dup1\n      sload\n      not(sub(shl(0xa0, 0x01), 0x01))\n      and\n      sub(shl(0xa0, 0x01), 0x01)\n      swap5\n      dup6\n      and\n      or\n      swap1\n      sstore\n        /* \"contracts/coffe.sol\":25429:25455  _isBlackListedBot[account] */\n      swap2\n      dup5\n      and\n      dup2\n      mstore\n        /* \"contracts/coffe.sol\":25429:25446  _isBlackListedBot */\n      0x08\n        /* \"contracts/coffe.sol\":25429:25455  _isBlackListedBot[account] */\n      swap1\n      swap2\n      mstore\n      0x40\n      swap1\n      keccak256\n        /* \"contracts/coffe.sol\":25429:25463  _isBlackListedBot[account] = false */\n      dup1\n      sload\n      not(0xff)\n      and\n      swap1\n      sstore\n        /* \"contracts/coffe.sol\":25482:25498  _blackListedBots */\n      0x0a\n        /* \"contracts/coffe.sol\":25482:25504  _blackListedBots.pop() */\n      dup1\n      sload\n      dup1\n      tag_269\n      jumpi\n      tag_269\n      tag_270\n      jump\t// in\n        /* \"contracts/coffe.sol\":25248:25544  if (_blackListedBots[i] == account) {... */\n    tag_373:\n        /* \"contracts/coffe.sol\":25228:25231  i++ */\n      dup1\n      tag_384\n      dup2\n      tag_273\n      jump\t// in\n    tag_384:\n      swap2\n      pop\n      pop\n        /* \"contracts/coffe.sol\":25179:25555  for (uint256 i = 0; i < _blackListedBots.length; i++) {... */\n      jump(tag_367)\n        /* \"contracts/coffe.sol\":24505:24621  function updateTaxPoolWallet(address payable newAddress) external onlyOwner {... */\n    tag_176:\n        /* \"contracts/coffe.sol\":8100:8106  _owner */\n      and(sub(shl(0xa0, 0x01), 0x01), sload(0x00))\n        /* \"contracts/coffe.sol\":4209:4219  msg.sender */\n      caller\n        /* \"contracts/coffe.sol\":8100:8122  _owner == _msgSender() */\n      eq\n        /* \"contracts/coffe.sol\":8092:8159  require(_owner == _msgSender(), \"Ownable: caller is not the owner\") */\n      tag_387\n      jumpi\n      mload(0x40)\n      shl(0xe5, 0x461bcd)\n      dup2\n      mstore\n      0x04\n      add\n      tag_210\n      swap1\n      tag_211\n      jump\t// in\n    tag_387:\n        /* \"contracts/coffe.sol\":24592:24600  _taxPool */\n      0x0e\n        /* \"contracts/coffe.sol\":24592:24613  _taxPool = newAddress */\n      dup1\n      sload\n      not(sub(shl(0xa0, 0x01), 0x01))\n      and\n      sub(shl(0xa0, 0x01), 0x01)\n      swap3\n      swap1\n      swap3\n      and\n      swap2\n      swap1\n      swap2\n      or\n      swap1\n      sstore\n        /* \"contracts/coffe.sol\":24505:24621  function updateTaxPoolWallet(address payable newAddress) external onlyOwner {... */\n      jump\t// out\n        /* \"contracts/coffe.sol\":26873:27076  function setMaxTxPercent(uint256 maxTxPercent) external onlyOwner {... */\n    tag_179:\n        /* \"contracts/coffe.sol\":8100:8106  _owner */\n      and(sub(shl(0xa0, 0x01), 0x01), sload(0x00))\n        /* \"contracts/coffe.sol\":4209:4219  msg.sender */\n      caller\n        /* \"contracts/coffe.sol\":8100:8122  _owner == _msgSender() */\n      eq\n        /* \"contracts/coffe.sol\":8092:8159  require(_owner == _msgSender(), \"Ownable: caller is not the owner\") */\n      tag_392\n      jumpi\n      mload(0x40)\n      shl(0xe5, 0x461bcd)\n      dup2\n      mstore\n      0x04\n      add\n      tag_210\n      swap1\n      tag_211\n      jump\t// in\n    tag_392:\n        /* \"contracts/coffe.sol\":26968:26972  1000 */\n      0x03e8\n        /* \"contracts/coffe.sol\":26952:26964  maxTxPercent */\n      dup2\n        /* \"contracts/coffe.sol\":26952:26972  maxTxPercent <= 1000 */\n      gt\n      iszero\n        /* \"contracts/coffe.sol\":26944:27005  require(maxTxPercent <= 1000, \"maxTxPercent exceeds divider\") */\n      tag_395\n      jumpi\n      mload(0x40)\n      shl(0xe5, 0x461bcd)\n      dup2\n      mstore\n        /* \"#utility.yul\":9679:9681   */\n      0x20\n        /* \"contracts/coffe.sol\":26944:27005  require(maxTxPercent <= 1000, \"maxTxPercent exceeds divider\") */\n      0x04\n      dup3\n      add\n        /* \"#utility.yul\":9661:9682   */\n      mstore\n        /* \"#utility.yul\":9718:9720   */\n      0x1c\n        /* \"#utility.yul\":9698:9716   */\n      0x24\n      dup3\n      add\n        /* \"#utility.yul\":9691:9721   */\n      mstore\n        /* \"#utility.yul\":9757:9787   */\n      0x6d6178547850657263656e742065786365656473206469766964657200000000\n        /* \"#utility.yul\":9737:9755   */\n      0x44\n      dup3\n      add\n        /* \"#utility.yul\":9730:9788   */\n      mstore\n        /* \"#utility.yul\":9805:9823   */\n      0x64\n      add\n        /* \"contracts/coffe.sol\":26944:27005  require(maxTxPercent <= 1000, \"maxTxPercent exceeds divider\") */\n      tag_210\n        /* \"#utility.yul\":9477:9829   */\n      jump\n        /* \"contracts/coffe.sol\":26944:27005  require(maxTxPercent <= 1000, \"maxTxPercent exceeds divider\") */\n    tag_395:\n        /* \"contracts/coffe.sol\":27032:27068  _tTotal.mul(maxTxPercent).div(10**3) */\n      tag_398\n        /* \"contracts/coffe.sol\":27062:27067  10**3 */\n      0x03e8\n        /* \"contracts/coffe.sol\":27032:27057  _tTotal.mul(maxTxPercent) */\n      tag_357\n        /* \"contracts/coffe.sol\":27044:27056  maxTxPercent */\n      dup4\n        /* \"contracts/coffe.sol\":27032:27039  _tTotal */\n      sload(0x0b)\n        /* \"contracts/coffe.sol\":27032:27043  _tTotal.mul */\n      tag_358\n      swap1\n        /* \"contracts/coffe.sol\":27032:27057  _tTotal.mul(maxTxPercent) */\n      swap2\n      swap1\n      0xffffffff\n      and\n      jump\t// in\n        /* \"contracts/coffe.sol\":27032:27068  _tTotal.mul(maxTxPercent).div(10**3) */\n    tag_398:\n        /* \"contracts/coffe.sol\":27017:27029  _maxTxAmount */\n      0x15\n        /* \"contracts/coffe.sol\":27017:27068  _maxTxAmount = _tTotal.mul(maxTxPercent).div(10**3) */\n      sstore\n      pop\n        /* \"contracts/coffe.sol\":26873:27076  function setMaxTxPercent(uint256 maxTxPercent) external onlyOwner {... */\n      jump\t// out\n        /* \"contracts/coffe.sol\":26510:26620  function includeInFee(address account) public onlyOwner {... */\n    tag_191:\n        /* \"contracts/coffe.sol\":8100:8106  _owner */\n      and(sub(shl(0xa0, 0x01), 0x01), sload(0x00))\n        /* \"contracts/coffe.sol\":4209:4219  msg.sender */\n      caller\n        /* \"contracts/coffe.sol\":8100:8122  _owner == _msgSender() */\n      eq\n        /* \"contracts/coffe.sol\":8092:8159  require(_owner == _msgSender(), \"Ownable: caller is not the owner\") */\n      tag_404\n      jumpi\n      mload(0x40)\n      shl(0xe5, 0x461bcd)\n      dup2\n      mstore\n      0x04\n      add\n      tag_210\n      swap1\n      tag_211\n      jump\t// in\n    tag_404:\n      sub(shl(0xa0, 0x01), 0x01)\n        /* \"contracts/coffe.sol\":26577:26604  _isExcludedFromFee[account] */\n      and\n        /* \"contracts/coffe.sol\":26607:26612  false */\n      0x00\n        /* \"contracts/coffe.sol\":26577:26604  _isExcludedFromFee[account] */\n      swap1\n      dup2\n      mstore\n        /* \"contracts/coffe.sol\":26577:26595  _isExcludedFromFee */\n      0x05\n        /* \"contracts/coffe.sol\":26577:26604  _isExcludedFromFee[account] */\n      0x20\n      mstore\n      0x40\n      swap1\n      keccak256\n        /* \"contracts/coffe.sol\":26577:26612  _isExcludedFromFee[account] = false */\n      dup1\n      sload\n      not(0xff)\n      and\n      swap1\n      sstore\n        /* \"contracts/coffe.sol\":26510:26620  function includeInFee(address account) public onlyOwner {... */\n      jump\t// out\n        /* \"contracts/coffe.sol\":8355:8636  function transferOwnership(address newOwner) public virtual onlyOwner {... */\n    tag_194:\n        /* \"contracts/coffe.sol\":8100:8106  _owner */\n      and(sub(shl(0xa0, 0x01), 0x01), sload(0x00))\n        /* \"contracts/coffe.sol\":4209:4219  msg.sender */\n      caller\n        /* \"contracts/coffe.sol\":8100:8122  _owner == _msgSender() */\n      eq\n        /* \"contracts/coffe.sol\":8092:8159  require(_owner == _msgSender(), \"Ownable: caller is not the owner\") */\n      tag_409\n      jumpi\n      mload(0x40)\n      shl(0xe5, 0x461bcd)\n      dup2\n      mstore\n      0x04\n      add\n      tag_210\n      swap1\n      tag_211\n      jump\t// in\n    tag_409:\n      sub(shl(0xa0, 0x01), 0x01)\n        /* \"contracts/coffe.sol\":8458:8480  newOwner != address(0) */\n      dup2\n      and\n        /* \"contracts/coffe.sol\":8436:8546  require(... */\n      tag_412\n      jumpi\n      mload(0x40)\n      shl(0xe5, 0x461bcd)\n      dup2\n      mstore\n        /* \"#utility.yul\":10036:10038   */\n      0x20\n        /* \"contracts/coffe.sol\":8436:8546  require(... */\n      0x04\n      dup3\n      add\n        /* \"#utility.yul\":10018:10039   */\n      mstore\n        /* \"#utility.yul\":10075:10077   */\n      0x26\n        /* \"#utility.yul\":10055:10073   */\n      0x24\n      dup3\n      add\n        /* \"#utility.yul\":10048:10078   */\n      mstore\n        /* \"#utility.yul\":10114:10148   */\n      0x4f776e61626c653a206e6577206f776e657220697320746865207a65726f2061\n        /* \"#utility.yul\":10094:10112   */\n      0x44\n      dup3\n      add\n        /* \"#utility.yul\":10087:10149   */\n      mstore\n      shl(0xd0, 0x646472657373)\n        /* \"#utility.yul\":10165:10183   */\n      0x64\n      dup3\n      add\n        /* \"#utility.yul\":10158:10194   */\n      mstore\n        /* \"#utility.yul\":10211:10230   */\n      0x84\n      add\n        /* \"contracts/coffe.sol\":8436:8546  require(... */\n      tag_210\n        /* \"#utility.yul\":9834:10236   */\n      jump\n        /* \"contracts/coffe.sol\":8436:8546  require(... */\n    tag_412:\n        /* \"contracts/coffe.sol\":8583:8589  _owner */\n      0x00\n      dup1\n      sload\n        /* \"contracts/coffe.sol\":8562:8600  OwnershipTransferred(_owner, newOwner) */\n      mload(0x40)\n      sub(shl(0xa0, 0x01), 0x01)\n      dup1\n      dup6\n      and\n      swap4\n        /* \"contracts/coffe.sol\":8583:8589  _owner */\n      swap3\n      and\n      swap2\n        /* \"contracts/coffe.sol\":8562:8600  OwnershipTransferred(_owner, newOwner) */\n      0x8be0079c531659141344cd1fd0a4f28419497f9722a3daafe3b4186f6b6457e0\n      swap2\n      log3\n        /* \"contracts/coffe.sol\":8611:8617  _owner */\n      0x00\n        /* \"contracts/coffe.sol\":8611:8628  _owner = newOwner */\n      dup1\n      sload\n      not(sub(shl(0xa0, 0x01), 0x01))\n      and\n      sub(shl(0xa0, 0x01), 0x01)\n      swap3\n      swap1\n      swap3\n      and\n      swap2\n      swap1\n      swap2\n      or\n      swap1\n      sstore\n        /* \"contracts/coffe.sol\":8355:8636  function transferOwnership(address newOwner) public virtual onlyOwner {... */\n      jump\t// out\n        /* \"contracts/coffe.sol\":30597:30968  function _approve(... */\n    tag_206:\n      sub(shl(0xa0, 0x01), 0x01)\n        /* \"contracts/coffe.sol\":30724:30743  owner != address(0) */\n      dup4\n      and\n        /* \"contracts/coffe.sol\":30716:30784  require(owner != address(0), \"ERC20: approve from the zero address\") */\n      tag_417\n      jumpi\n      mload(0x40)\n      shl(0xe5, 0x461bcd)\n      dup2\n      mstore\n        /* \"#utility.yul\":10443:10445   */\n      0x20\n        /* \"contracts/coffe.sol\":30716:30784  require(owner != address(0), \"ERC20: approve from the zero address\") */\n      0x04\n      dup3\n      add\n        /* \"#utility.yul\":10425:10446   */\n      mstore\n        /* \"#utility.yul\":10482:10484   */\n      0x24\n        /* \"#utility.yul\":10462:10480   */\n      dup1\n      dup3\n      add\n        /* \"#utility.yul\":10455:10485   */\n      mstore\n        /* \"#utility.yul\":10521:10555   */\n      0x45524332303a20617070726f76652066726f6d20746865207a65726f20616464\n        /* \"#utility.yul\":10501:10519   */\n      0x44\n      dup3\n      add\n        /* \"#utility.yul\":10494:10556   */\n      mstore\n      shl(0xe0, 0x72657373)\n        /* \"#utility.yul\":10572:10590   */\n      0x64\n      dup3\n      add\n        /* \"#utility.yul\":10565:10599   */\n      mstore\n        /* \"#utility.yul\":10616:10635   */\n      0x84\n      add\n        /* \"contracts/coffe.sol\":30716:30784  require(owner != address(0), \"ERC20: approve from the zero address\") */\n      tag_210\n        /* \"#utility.yul\":10241:10641   */\n      jump\n        /* \"contracts/coffe.sol\":30716:30784  require(owner != address(0), \"ERC20: approve from the zero address\") */\n    tag_417:\n      sub(shl(0xa0, 0x01), 0x01)\n        /* \"contracts/coffe.sol\":30803:30824  spender != address(0) */\n      dup3\n      and\n        /* \"contracts/coffe.sol\":30795:30863  require(spender != address(0), \"ERC20: approve to the zero address\") */\n      tag_420\n      jumpi\n      mload(0x40)\n      shl(0xe5, 0x461bcd)\n      dup2\n      mstore\n        /* \"#utility.yul\":10848:10850   */\n      0x20\n        /* \"contracts/coffe.sol\":30795:30863  require(spender != address(0), \"ERC20: approve to the zero address\") */\n      0x04\n      dup3\n      add\n        /* \"#utility.yul\":10830:10851   */\n      mstore\n        /* \"#utility.yul\":10887:10889   */\n      0x22\n        /* \"#utility.yul\":10867:10885   */\n      0x24\n      dup3\n      add\n        /* \"#utility.yul\":10860:10890   */\n      mstore\n        /* \"#utility.yul\":10926:10960   */\n      0x45524332303a20617070726f766520746f20746865207a65726f206164647265\n        /* \"#utility.yul\":10906:10924   */\n      0x44\n      dup3\n      add\n        /* \"#utility.yul\":10899:10961   */\n      mstore\n      shl(0xf0, 0x7373)\n        /* \"#utility.yul\":10977:10995   */\n      0x64\n      dup3\n      add\n        /* \"#utility.yul\":10970:11002   */\n      mstore\n        /* \"#utility.yul\":11019:11038   */\n      0x84\n      add\n        /* \"contracts/coffe.sol\":30795:30863  require(spender != address(0), \"ERC20: approve to the zero address\") */\n      tag_210\n        /* \"#utility.yul\":10646:11044   */\n      jump\n        /* \"contracts/coffe.sol\":30795:30863  require(spender != address(0), \"ERC20: approve to the zero address\") */\n    tag_420:\n      sub(shl(0xa0, 0x01), 0x01)\n        /* \"contracts/coffe.sol\":30876:30894  _allowances[owner] */\n      dup4\n      dup2\n      and\n      0x00\n      dup2\n      dup2\n      mstore\n        /* \"contracts/coffe.sol\":30876:30887  _allowances */\n      0x04\n        /* \"contracts/coffe.sol\":30876:30894  _allowances[owner] */\n      0x20\n      swap1\n      dup2\n      mstore\n      0x40\n      dup1\n      dup4\n      keccak256\n        /* \"contracts/coffe.sol\":30876:30903  _allowances[owner][spender] */\n      swap5\n      dup8\n      and\n      dup1\n      dup5\n      mstore\n      swap5\n      dup3\n      mstore\n      swap2\n      dup3\n      swap1\n      keccak256\n        /* \"contracts/coffe.sol\":30876:30912  _allowances[owner][spender] = amount */\n      dup6\n      swap1\n      sstore\n        /* \"contracts/coffe.sol\":30928:30960  Approval(owner, spender, amount) */\n      swap1\n      mload\n        /* \"#utility.yul\":1662:1687   */\n      dup5\n      dup2\n      mstore\n        /* \"contracts/coffe.sol\":30928:30960  Approval(owner, spender, amount) */\n      0x8c5be1e5ebec7d5bd14f71427d1e84f3dd0314c0f7b2291e5b200ac8c7c3b925\n      swap2\n        /* \"#utility.yul\":1635:1653   */\n      add\n        /* \"contracts/coffe.sol\":30928:30960  Approval(owner, spender, amount) */\n      mload(0x40)\n      dup1\n      swap2\n      sub\n      swap1\n      log3\n        /* \"contracts/coffe.sol\":30597:30968  function _approve(... */\n      pop\n      pop\n      pop\n      jump\t// out\n        /* \"contracts/coffe.sol\":30976:32430  function _transfer(... */\n    tag_229:\n      sub(shl(0xa0, 0x01), 0x01)\n        /* \"contracts/coffe.sol\":31098:31116  from != address(0) */\n      dup4\n      and\n        /* \"contracts/coffe.sol\":31090:31158  require(from != address(0), \"ERC20: transfer from the zero address\") */\n      tag_425\n      jumpi\n      mload(0x40)\n      shl(0xe5, 0x461bcd)\n      dup2\n      mstore\n        /* \"#utility.yul\":11251:11253   */\n      0x20\n        /* \"contracts/coffe.sol\":31090:31158  require(from != address(0), \"ERC20: transfer from the zero address\") */\n      0x04\n      dup3\n      add\n        /* \"#utility.yul\":11233:11254   */\n      mstore\n        /* \"#utility.yul\":11290:11292   */\n      0x25\n        /* \"#utility.yul\":11270:11288   */\n      0x24\n      dup3\n      add\n        /* \"#utility.yul\":11263:11293   */\n      mstore\n        /* \"#utility.yul\":11329:11363   */\n      0x45524332303a207472616e736665722066726f6d20746865207a65726f206164\n        /* \"#utility.yul\":11309:11327   */\n      0x44\n      dup3\n      add\n        /* \"#utility.yul\":11302:11364   */\n      mstore\n      shl(0xd8, 0x6472657373)\n        /* \"#utility.yul\":11380:11398   */\n      0x64\n      dup3\n      add\n        /* \"#utility.yul\":11373:11408   */\n      mstore\n        /* \"#utility.yul\":11425:11444   */\n      0x84\n      add\n        /* \"contracts/coffe.sol\":31090:31158  require(from != address(0), \"ERC20: transfer from the zero address\") */\n      tag_210\n        /* \"#utility.yul\":11049:11450   */\n      jump\n        /* \"contracts/coffe.sol\":31090:31158  require(from != address(0), \"ERC20: transfer from the zero address\") */\n    tag_425:\n      sub(shl(0xa0, 0x01), 0x01)\n        /* \"contracts/coffe.sol\":31177:31193  to != address(0) */\n      dup3\n      and\n        /* \"contracts/coffe.sol\":31169:31233  require(to != address(0), \"ERC20: transfer to the zero address\") */\n      tag_428\n      jumpi\n      mload(0x40)\n      shl(0xe5, 0x461bcd)\n      dup2\n      mstore\n        /* \"#utility.yul\":11657:11659   */\n      0x20\n        /* \"contracts/coffe.sol\":31169:31233  require(to != address(0), \"ERC20: transfer to the zero address\") */\n      0x04\n      dup3\n      add\n        /* \"#utility.yul\":11639:11660   */\n      mstore\n        /* \"#utility.yul\":11696:11698   */\n      0x23\n        /* \"#utility.yul\":11676:11694   */\n      0x24\n      dup3\n      add\n        /* \"#utility.yul\":11669:11699   */\n      mstore\n        /* \"#utility.yul\":11735:11769   */\n      0x45524332303a207472616e7366657220746f20746865207a65726f2061646472\n        /* \"#utility.yul\":11715:11733   */\n      0x44\n      dup3\n      add\n        /* \"#utility.yul\":11708:11770   */\n      mstore\n      shl(0xe8, 0x657373)\n        /* \"#utility.yul\":11786:11804   */\n      0x64\n      dup3\n      add\n        /* \"#utility.yul\":11779:11812   */\n      mstore\n        /* \"#utility.yul\":11829:11848   */\n      0x84\n      add\n        /* \"contracts/coffe.sol\":31169:31233  require(to != address(0), \"ERC20: transfer to the zero address\") */\n      tag_210\n        /* \"#utility.yul\":11455:11854   */\n      jump\n        /* \"contracts/coffe.sol\":31169:31233  require(to != address(0), \"ERC20: transfer to the zero address\") */\n    tag_428:\n        /* \"contracts/coffe.sol\":31261:31262  0 */\n      0x00\n        /* \"contracts/coffe.sol\":31252:31258  amount */\n      dup2\n        /* \"contracts/coffe.sol\":31252:31262  amount > 0 */\n      gt\n        /* \"contracts/coffe.sol\":31244:31308  require(amount > 0, \"Transfer amount must be greater than zero\") */\n      tag_431\n      jumpi\n      mload(0x40)\n      shl(0xe5, 0x461bcd)\n      dup2\n      mstore\n        /* \"#utility.yul\":12061:12063   */\n      0x20\n        /* \"contracts/coffe.sol\":31244:31308  require(amount > 0, \"Transfer amount must be greater than zero\") */\n      0x04\n      dup3\n      add\n        /* \"#utility.yul\":12043:12064   */\n      mstore\n        /* \"#utility.yul\":12100:12102   */\n      0x29\n        /* \"#utility.yul\":12080:12098   */\n      0x24\n      dup3\n      add\n        /* \"#utility.yul\":12073:12103   */\n      mstore\n        /* \"#utility.yul\":12139:12173   */\n      0x5472616e7366657220616d6f756e74206d757374206265206772656174657220\n        /* \"#utility.yul\":12119:12137   */\n      0x44\n      dup3\n      add\n        /* \"#utility.yul\":12112:12174   */\n      mstore\n      shl(0xb8, 0x7468616e207a65726f)\n        /* \"#utility.yul\":12190:12208   */\n      0x64\n      dup3\n      add\n        /* \"#utility.yul\":12183:12222   */\n      mstore\n        /* \"#utility.yul\":12239:12258   */\n      0x84\n      add\n        /* \"contracts/coffe.sol\":31244:31308  require(amount > 0, \"Transfer amount must be greater than zero\") */\n      tag_210\n        /* \"#utility.yul\":11859:12264   */\n      jump\n        /* \"contracts/coffe.sol\":31244:31308  require(amount > 0, \"Transfer amount must be greater than zero\") */\n    tag_431:\n      sub(shl(0xa0, 0x01), 0x01)\n        /* \"contracts/coffe.sol\":31328:31351  _isBlackListedBot[from] */\n      dup4\n      and\n      0x00\n      swap1\n      dup2\n      mstore\n        /* \"contracts/coffe.sol\":31328:31345  _isBlackListedBot */\n      0x08\n        /* \"contracts/coffe.sol\":31328:31351  _isBlackListedBot[from] */\n      0x20\n      mstore\n      0x40\n      swap1\n      keccak256\n      sload\n      0xff\n      and\n        /* \"contracts/coffe.sol\":31327:31351  !_isBlackListedBot[from] */\n      iszero\n        /* \"contracts/coffe.sol\":31319:31375  require(!_isBlackListedBot[from], \"You are blacklisted\") */\n      tag_434\n      jumpi\n      mload(0x40)\n      shl(0xe5, 0x461bcd)\n      dup2\n      mstore\n        /* \"#utility.yul\":12471:12473   */\n      0x20\n        /* \"contracts/coffe.sol\":31319:31375  require(!_isBlackListedBot[from], \"You are blacklisted\") */\n      0x04\n      dup3\n      add\n        /* \"#utility.yul\":12453:12474   */\n      mstore\n        /* \"#utility.yul\":12510:12512   */\n      0x13\n        /* \"#utility.yul\":12490:12508   */\n      0x24\n      dup3\n      add\n        /* \"#utility.yul\":12483:12513   */\n      mstore\n      shl(0x6a, 0x165bdd48185c9948189b1858dadb1a5cdd1959)\n        /* \"#utility.yul\":12529:12547   */\n      0x44\n      dup3\n      add\n        /* \"#utility.yul\":12522:12571   */\n      mstore\n        /* \"#utility.yul\":12588:12606   */\n      0x64\n      add\n        /* \"contracts/coffe.sol\":31319:31375  require(!_isBlackListedBot[from], \"You are blacklisted\") */\n      tag_210\n        /* \"#utility.yul\":12269:12612   */\n      jump\n        /* \"contracts/coffe.sol\":31319:31375  require(!_isBlackListedBot[from], \"You are blacklisted\") */\n    tag_434:\n        /* \"contracts/coffe.sol\":31413:31423  msg.sender */\n      caller\n        /* \"contracts/coffe.sol\":31395:31424  _isBlackListedBot[msg.sender] */\n      0x00\n      swap1\n      dup2\n      mstore\n        /* \"contracts/coffe.sol\":31395:31412  _isBlackListedBot */\n      0x08\n        /* \"contracts/coffe.sol\":31395:31424  _isBlackListedBot[msg.sender] */\n      0x20\n      mstore\n      0x40\n      swap1\n      keccak256\n      sload\n      0xff\n      and\n        /* \"contracts/coffe.sol\":31394:31424  !_isBlackListedBot[msg.sender] */\n      iszero\n        /* \"contracts/coffe.sol\":31386:31440  require(!_isBlackListedBot[msg.sender], \"blacklisted\") */\n      tag_437\n      jumpi\n      mload(0x40)\n      shl(0xe5, 0x461bcd)\n      dup2\n      mstore\n        /* \"#utility.yul\":12819:12821   */\n      0x20\n        /* \"contracts/coffe.sol\":31386:31440  require(!_isBlackListedBot[msg.sender], \"blacklisted\") */\n      0x04\n      dup3\n      add\n        /* \"#utility.yul\":12801:12822   */\n      mstore\n        /* \"#utility.yul\":12858:12860   */\n      0x0b\n        /* \"#utility.yul\":12838:12856   */\n      0x24\n      dup3\n      add\n        /* \"#utility.yul\":12831:12861   */\n      mstore\n      shl(0xaa, 0x189b1858dadb1a5cdd1959)\n        /* \"#utility.yul\":12877:12895   */\n      0x44\n      dup3\n      add\n        /* \"#utility.yul\":12870:12911   */\n      mstore\n        /* \"#utility.yul\":12928:12946   */\n      0x64\n      add\n        /* \"contracts/coffe.sol\":31386:31440  require(!_isBlackListedBot[msg.sender], \"blacklisted\") */\n      tag_210\n        /* \"#utility.yul\":12617:12952   */\n      jump\n        /* \"contracts/coffe.sol\":31386:31440  require(!_isBlackListedBot[msg.sender], \"blacklisted\") */\n    tag_437:\n        /* \"contracts/coffe.sol\":31478:31487  tx.origin */\n      origin\n        /* \"contracts/coffe.sol\":31460:31488  _isBlackListedBot[tx.origin] */\n      0x00\n      swap1\n      dup2\n      mstore\n        /* \"contracts/coffe.sol\":31460:31477  _isBlackListedBot */\n      0x08\n        /* \"contracts/coffe.sol\":31460:31488  _isBlackListedBot[tx.origin] */\n      0x20\n      mstore\n      0x40\n      swap1\n      keccak256\n      sload\n      0xff\n      and\n        /* \"contracts/coffe.sol\":31459:31488  !_isBlackListedBot[tx.origin] */\n      iszero\n        /* \"contracts/coffe.sol\":31451:31504  require(!_isBlackListedBot[tx.origin], \"blacklisted\") */\n      tag_440\n      jumpi\n      mload(0x40)\n      shl(0xe5, 0x461bcd)\n      dup2\n      mstore\n        /* \"#utility.yul\":12819:12821   */\n      0x20\n        /* \"contracts/coffe.sol\":31451:31504  require(!_isBlackListedBot[tx.origin], \"blacklisted\") */\n      0x04\n      dup3\n      add\n        /* \"#utility.yul\":12801:12822   */\n      mstore\n        /* \"#utility.yul\":12858:12860   */\n      0x0b\n        /* \"#utility.yul\":12838:12856   */\n      0x24\n      dup3\n      add\n        /* \"#utility.yul\":12831:12861   */\n      mstore\n      shl(0xaa, 0x189b1858dadb1a5cdd1959)\n        /* \"#utility.yul\":12877:12895   */\n      0x44\n      dup3\n      add\n        /* \"#utility.yul\":12870:12911   */\n      mstore\n        /* \"#utility.yul\":12928:12946   */\n      0x64\n      add\n        /* \"contracts/coffe.sol\":31451:31504  require(!_isBlackListedBot[tx.origin], \"blacklisted\") */\n      tag_210\n        /* \"#utility.yul\":12617:12952   */\n      jump\n        /* \"contracts/coffe.sol\":31451:31504  require(!_isBlackListedBot[tx.origin], \"blacklisted\") */\n    tag_440:\n      sub(shl(0xa0, 0x01), 0x01)\n        /* \"contracts/coffe.sol\":31698:31722  _isExcludedFromFee[from] */\n      dup4\n      and\n        /* \"contracts/coffe.sol\":31578:31590  bool takeFee */\n      0x00\n        /* \"contracts/coffe.sol\":31698:31722  _isExcludedFromFee[from] */\n      swap1\n      dup2\n      mstore\n        /* \"contracts/coffe.sol\":31698:31716  _isExcludedFromFee */\n      0x05\n        /* \"contracts/coffe.sol\":31698:31722  _isExcludedFromFee[from] */\n      0x20\n      mstore\n      0x40\n      swap1\n      keccak256\n      sload\n        /* \"contracts/coffe.sol\":31593:31597  true */\n      0x01\n      swap1\n        /* \"contracts/coffe.sol\":31698:31722  _isExcludedFromFee[from] */\n      0xff\n      and\n      dup1\n        /* \"contracts/coffe.sol\":31698:31748  _isExcludedFromFee[from] || _isExcludedFromFee[to] */\n      tag_442\n      jumpi\n      pop\n      sub(shl(0xa0, 0x01), 0x01)\n        /* \"contracts/coffe.sol\":31726:31748  _isExcludedFromFee[to] */\n      dup4\n      and\n      0x00\n      swap1\n      dup2\n      mstore\n        /* \"contracts/coffe.sol\":31726:31744  _isExcludedFromFee */\n      0x05\n        /* \"contracts/coffe.sol\":31726:31748  _isExcludedFromFee[to] */\n      0x20\n      mstore\n      0x40\n      swap1\n      keccak256\n      sload\n      0xff\n      and\n        /* \"contracts/coffe.sol\":31698:31748  _isExcludedFromFee[from] || _isExcludedFromFee[to] */\n    tag_442:\n        /* \"contracts/coffe.sol\":31694:31792  if (_isExcludedFromFee[from] || _isExcludedFromFee[to]) {... */\n      iszero\n      tag_443\n      jumpi\n      pop\n        /* \"contracts/coffe.sol\":31775:31780  false */\n      0x00\n        /* \"contracts/coffe.sol\":31694:31792  if (_isExcludedFromFee[from] || _isExcludedFromFee[to]) {... */\n    tag_443:\n        /* \"contracts/coffe.sol\":31806:31813  takeFee */\n      dup1\n        /* \"contracts/coffe.sol\":31802:32320  if (takeFee) {... */\n      iszero\n      tag_454\n      jumpi\n      sub(shl(0xa0, 0x01), 0x01)\n        /* \"contracts/coffe.sol\":31835:31861  _isExcludedFromLimit[from] */\n      dup5\n      and\n      0x00\n      swap1\n      dup2\n      mstore\n        /* \"contracts/coffe.sol\":31835:31855  _isExcludedFromLimit */\n      0x09\n        /* \"contracts/coffe.sol\":31835:31861  _isExcludedFromLimit[from] */\n      0x20\n      mstore\n      0x40\n      swap1\n      keccak256\n      sload\n      0xff\n      and\n        /* \"contracts/coffe.sol\":31834:31861  !_isExcludedFromLimit[from] */\n      iszero\n        /* \"contracts/coffe.sol\":31834:31890  !_isExcludedFromLimit[from] && !_isExcludedFromLimit[to] */\n      dup1\n      iszero\n      tag_445\n      jumpi\n      pop\n      sub(shl(0xa0, 0x01), 0x01)\n        /* \"contracts/coffe.sol\":31866:31890  _isExcludedFromLimit[to] */\n      dup4\n      and\n      0x00\n      swap1\n      dup2\n      mstore\n        /* \"contracts/coffe.sol\":31866:31886  _isExcludedFromLimit */\n      0x09\n        /* \"contracts/coffe.sol\":31866:31890  _isExcludedFromLimit[to] */\n      0x20\n      mstore\n      0x40\n      swap1\n      keccak256\n      sload\n      0xff\n      and\n        /* \"contracts/coffe.sol\":31865:31890  !_isExcludedFromLimit[to] */\n      iszero\n        /* \"contracts/coffe.sol\":31834:31890  !_isExcludedFromLimit[from] && !_isExcludedFromLimit[to] */\n    tag_445:\n        /* \"contracts/coffe.sol\":31830:32309  if (!_isExcludedFromLimit[from] && !_isExcludedFromLimit[to]) {... */\n      iszero\n      tag_454\n      jumpi\n        /* \"contracts/coffe.sol\":31951:31963  _maxTxAmount */\n      sload(0x15)\n        /* \"contracts/coffe.sol\":31941:31947  amount */\n      dup3\n        /* \"contracts/coffe.sol\":31941:31963  amount <= _maxTxAmount */\n      gt\n      iszero\n        /* \"contracts/coffe.sol\":31911:32047  require(... */\n      tag_447\n      jumpi\n      mload(0x40)\n      shl(0xe5, 0x461bcd)\n      dup2\n      mstore\n        /* \"#utility.yul\":13159:13161   */\n      0x20\n        /* \"contracts/coffe.sol\":31911:32047  require(... */\n      0x04\n      dup3\n      add\n        /* \"#utility.yul\":13141:13162   */\n      mstore\n        /* \"#utility.yul\":13198:13200   */\n      0x28\n        /* \"#utility.yul\":13178:13196   */\n      0x24\n      dup3\n      add\n        /* \"#utility.yul\":13171:13201   */\n      mstore\n        /* \"#utility.yul\":13237:13271   */\n      0x5472616e7366657220616d6f756e74206578636565647320746865206d617854\n        /* \"#utility.yul\":13217:13235   */\n      0x44\n      dup3\n      add\n        /* \"#utility.yul\":13210:13272   */\n      mstore\n      shl(0xc1, 0x3c20b6b7bab73a17)\n        /* \"#utility.yul\":13288:13306   */\n      0x64\n      dup3\n      add\n        /* \"#utility.yul\":13281:13319   */\n      mstore\n        /* \"#utility.yul\":13336:13355   */\n      0x84\n      add\n        /* \"contracts/coffe.sol\":31911:32047  require(... */\n      tag_210\n        /* \"#utility.yul\":12957:13361   */\n      jump\n        /* \"contracts/coffe.sol\":31911:32047  require(... */\n    tag_447:\n        /* \"contracts/coffe.sol\":32076:32089  uniswapV2Pair */\n      immutable(\"0x7b1f476dcca78c0c07534aac79d4a050a1d07b9d08c662437f2c9d98632779bc\")\n      sub(shl(0xa0, 0x01), 0x01)\n        /* \"contracts/coffe.sol\":32070:32089  to != uniswapV2Pair */\n      and\n        /* \"contracts/coffe.sol\":32070:32072  to */\n      dup4\n      sub(shl(0xa0, 0x01), 0x01)\n        /* \"contracts/coffe.sol\":32070:32089  to != uniswapV2Pair */\n      and\n      eq\n        /* \"contracts/coffe.sol\":32066:32294  if (to != uniswapV2Pair) {... */\n      tag_454\n      jumpi\n        /* \"contracts/coffe.sol\":32174:32188  _maxWalletSize */\n      sload(0x16)\n        /* \"contracts/coffe.sol\":32157:32170  balanceOf(to) */\n      tag_451\n        /* \"contracts/coffe.sol\":32167:32169  to */\n      dup5\n        /* \"contracts/coffe.sol\":32157:32166  balanceOf */\n      tag_133\n        /* \"contracts/coffe.sol\":32157:32170  balanceOf(to) */\n      jump\t// in\n    tag_451:\n        /* \"contracts/coffe.sol\":32148:32170  amount + balanceOf(to) */\n      tag_452\n      swap1\n        /* \"contracts/coffe.sol\":32148:32154  amount */\n      dup5\n        /* \"contracts/coffe.sol\":32148:32170  amount + balanceOf(to) */\n      tag_453\n      jump\t// in\n    tag_452:\n        /* \"contracts/coffe.sol\":32148:32188  amount + balanceOf(to) <= _maxWalletSize */\n      gt\n      iszero\n        /* \"contracts/coffe.sol\":32114:32274  require(... */\n      tag_454\n      jumpi\n      mload(0x40)\n      shl(0xe5, 0x461bcd)\n      dup2\n      mstore\n        /* \"#utility.yul\":13701:13703   */\n      0x20\n        /* \"contracts/coffe.sol\":32114:32274  require(... */\n      0x04\n      dup3\n      add\n        /* \"#utility.yul\":13683:13704   */\n      mstore\n        /* \"#utility.yul\":13740:13742   */\n      0x22\n        /* \"#utility.yul\":13720:13738   */\n      0x24\n      dup3\n      add\n        /* \"#utility.yul\":13713:13743   */\n      mstore\n        /* \"#utility.yul\":13779:13813   */\n      0x526563697069656e742065786365656473206d61782077616c6c65742073697a\n        /* \"#utility.yul\":13759:13777   */\n      0x44\n      dup3\n      add\n        /* \"#utility.yul\":13752:13814   */\n      mstore\n      shl(0xf1, 0x3297)\n        /* \"#utility.yul\":13830:13848   */\n      0x64\n      dup3\n      add\n        /* \"#utility.yul\":13823:13855   */\n      mstore\n        /* \"#utility.yul\":13872:13891   */\n      0x84\n      add\n        /* \"contracts/coffe.sol\":32114:32274  require(... */\n      tag_210\n        /* \"#utility.yul\":13499:13897   */\n      jump\n        /* \"contracts/coffe.sol\":32114:32274  require(... */\n    tag_454:\n        /* \"contracts/coffe.sol\":32381:32422  _tokenTransfer(from, to, amount, takeFee) */\n      tag_338\n        /* \"contracts/coffe.sol\":32396:32400  from */\n      dup5\n        /* \"contracts/coffe.sol\":32402:32404  to */\n      dup5\n        /* \"contracts/coffe.sol\":32406:32412  amount */\n      dup5\n        /* \"contracts/coffe.sol\":32414:32421  takeFee */\n      dup5\n        /* \"contracts/coffe.sol\":32381:32395  _tokenTransfer */\n      tag_458\n        /* \"contracts/coffe.sol\":32381:32422  _tokenTransfer(from, to, amount, takeFee) */\n      jump\t// in\n        /* \"contracts/coffe.sol\":2827:3053  function sub(... */\n    tag_234:\n        /* \"contracts/coffe.sol\":2947:2954  uint256 */\n      0x00\n        /* \"contracts/coffe.sol\":2983:2995  errorMessage */\n      dup2\n        /* \"contracts/coffe.sol\":2975:2981  b <= a */\n      dup5\n      dup5\n      gt\n      iszero\n        /* \"contracts/coffe.sol\":2967:2996  require(b <= a, errorMessage) */\n      tag_460\n      jumpi\n      mload(0x40)\n      shl(0xe5, 0x461bcd)\n      dup2\n      mstore\n      0x04\n      add\n      tag_210\n      swap2\n      swap1\n      tag_55\n      jump\t// in\n    tag_460:\n      pop\n        /* \"contracts/coffe.sol\":3007:3016  uint256 c */\n      0x00\n        /* \"contracts/coffe.sol\":3019:3024  a - b */\n      tag_462\n        /* \"contracts/coffe.sol\":3023:3024  b */\n      dup5\n        /* \"contracts/coffe.sol\":3019:3020  a */\n      dup7\n        /* \"contracts/coffe.sol\":3019:3024  a - b */\n      tag_261\n      jump\t// in\n    tag_462:\n        /* \"contracts/coffe.sol\":3007:3024  uint256 c = a - b */\n      swap6\n        /* \"contracts/coffe.sol\":2827:3053  function sub(... */\n      swap5\n      pop\n      pop\n      pop\n      pop\n      pop\n      jump\t// out\n        /* \"contracts/coffe.sol\":28545:28709  function _getRate() private view returns (uint256) {... */\n    tag_240:\n        /* \"contracts/coffe.sol\":28587:28594  uint256 */\n      0x00\n        /* \"contracts/coffe.sol\":28608:28623  uint256 rSupply */\n      dup1\n        /* \"contracts/coffe.sol\":28625:28640  uint256 tSupply */\n      0x00\n        /* \"contracts/coffe.sol\":28644:28663  _getCurrentSupply() */\n      tag_464\n        /* \"contracts/coffe.sol\":28644:28661  _getCurrentSupply */\n      tag_465\n        /* \"contracts/coffe.sol\":28644:28663  _getCurrentSupply() */\n      jump\t// in\n    tag_464:\n        /* \"contracts/coffe.sol\":28607:28663  (uint256 rSupply, uint256 tSupply) = _getCurrentSupply() */\n      swap1\n      swap3\n      pop\n      swap1\n      pop\n        /* \"contracts/coffe.sol\":28681:28701  rSupply.div(tSupply) */\n      tag_466\n        /* \"contracts/coffe.sol\":28607:28663  (uint256 rSupply, uint256 tSupply) = _getCurrentSupply() */\n      dup3\n      dup3\n        /* \"contracts/coffe.sol\":28681:28692  rSupply.div */\n      tag_242\n        /* \"contracts/coffe.sol\":28681:28701  rSupply.div(tSupply) */\n      jump\t// in\n    tag_466:\n        /* \"contracts/coffe.sol\":28674:28701  return rSupply.div(tSupply) */\n      swap3\n      pop\n      pop\n      pop\n        /* \"contracts/coffe.sol\":28545:28709  function _getRate() private view returns (uint256) {... */\n      swap1\n      jump\t// out\n        /* \"contracts/coffe.sol\":3341:3473  function div(uint256 a, uint256 b) internal pure returns (uint256) {... */\n    tag_242:\n        /* \"contracts/coffe.sol\":3399:3406  uint256 */\n      0x00\n        /* \"contracts/coffe.sol\":3426:3465  div(a, b, \"SafeMath: division by zero\") */\n      tag_241\n        /* \"contracts/coffe.sol\":3430:3431  a */\n      dup4\n        /* \"contracts/coffe.sol\":3433:3434  b */\n      dup4\n        /* \"contracts/coffe.sol\":3426:3465  div(a, b, \"SafeMath: division by zero\") */\n      mload(0x40)\n      dup1\n      0x40\n      add\n      0x40\n      mstore\n      dup1\n      0x1a\n      dup2\n      mstore\n      0x20\n      add\n      0x536166654d6174683a206469766973696f6e206279207a65726f000000000000\n      dup2\n      mstore\n      pop\n        /* \"contracts/coffe.sol\":3426:3429  div */\n      tag_469\n        /* \"contracts/coffe.sol\":3426:3465  div(a, b, \"SafeMath: division by zero\") */\n      jump\t// in\n        /* \"contracts/coffe.sol\":2483:2664  function add(uint256 a, uint256 b) internal pure returns (uint256) {... */\n    tag_279:\n        /* \"contracts/coffe.sol\":2541:2548  uint256 */\n      0x00\n      dup1\n        /* \"contracts/coffe.sol\":2573:2578  a + b */\n      tag_471\n        /* \"contracts/coffe.sol\":2577:2578  b */\n      dup4\n        /* \"contracts/coffe.sol\":2573:2574  a */\n      dup6\n        /* \"contracts/coffe.sol\":2573:2578  a + b */\n      tag_453\n      jump\t// in\n    tag_471:\n        /* \"contracts/coffe.sol\":2561:2578  uint256 c = a + b */\n      swap1\n      pop\n        /* \"contracts/coffe.sol\":2602:2603  a */\n      dup4\n        /* \"contracts/coffe.sol\":2597:2598  c */\n      dup2\n        /* \"contracts/coffe.sol\":2597:2603  c >= a */\n      lt\n      iszero\n        /* \"contracts/coffe.sol\":2589:2635  require(c >= a, \"SafeMath: addition overflow\") */\n      tag_241\n      jumpi\n      mload(0x40)\n      shl(0xe5, 0x461bcd)\n      dup2\n      mstore\n        /* \"#utility.yul\":14104:14106   */\n      0x20\n        /* \"contracts/coffe.sol\":2589:2635  require(c >= a, \"SafeMath: addition overflow\") */\n      0x04\n      dup3\n      add\n        /* \"#utility.yul\":14086:14107   */\n      mstore\n        /* \"#utility.yul\":14143:14145   */\n      0x1b\n        /* \"#utility.yul\":14123:14141   */\n      0x24\n      dup3\n      add\n        /* \"#utility.yul\":14116:14146   */\n      mstore\n        /* \"#utility.yul\":14182:14211   */\n      0x536166654d6174683a206164646974696f6e206f766572666c6f770000000000\n        /* \"#utility.yul\":14162:14180   */\n      0x44\n      dup3\n      add\n        /* \"#utility.yul\":14155:14212   */\n      mstore\n        /* \"#utility.yul\":14229:14247   */\n      0x64\n      add\n        /* \"contracts/coffe.sol\":2589:2635  require(c >= a, \"SafeMath: addition overflow\") */\n      tag_210\n        /* \"#utility.yul\":13902:14253   */\n      jump\n        /* \"contracts/coffe.sol\":27489:27947  function _getTValues(uint256 tAmount)... */\n    tag_290:\n        /* \"contracts/coffe.sol\":27590:27597  uint256 */\n      0x00\n        /* \"contracts/coffe.sol\":27612:27619  uint256 */\n      dup1\n        /* \"contracts/coffe.sol\":27634:27641  uint256 */\n      0x00\n        /* \"contracts/coffe.sol\":27669:27681  uint256 tFee */\n      dup1\n        /* \"contracts/coffe.sol\":27684:27708  calculateTaxFee(tAmount) */\n      tag_476\n        /* \"contracts/coffe.sol\":27700:27707  tAmount */\n      dup6\n        /* \"contracts/coffe.sol\":27684:27699  calculateTaxFee */\n      tag_477\n        /* \"contracts/coffe.sol\":27684:27708  calculateTaxFee(tAmount) */\n      jump\t// in\n    tag_476:\n        /* \"contracts/coffe.sol\":27669:27708  uint256 tFee = calculateTaxFee(tAmount) */\n      swap1\n      pop\n        /* \"contracts/coffe.sol\":27719:27737  uint256 tMarketing */\n      0x00\n        /* \"contracts/coffe.sol\":27740:27770  calculateMarketingFee(tAmount) */\n      tag_478\n        /* \"contracts/coffe.sol\":27762:27769  tAmount */\n      dup7\n        /* \"contracts/coffe.sol\":27740:27761  calculateMarketingFee */\n      tag_479\n        /* \"contracts/coffe.sol\":27740:27770  calculateMarketingFee(tAmount) */\n      jump\t// in\n    tag_478:\n        /* \"contracts/coffe.sol\":27719:27770  uint256 tMarketing = calculateMarketingFee(tAmount) */\n      swap1\n      pop\n        /* \"contracts/coffe.sol\":27781:27804  uint256 tTransferAmount */\n      0x00\n        /* \"contracts/coffe.sol\":27807:27824  tAmount.sub(tFee) */\n      tag_480\n        /* \"contracts/coffe.sol\":27807:27814  tAmount */\n      dup8\n        /* \"contracts/coffe.sol\":27819:27823  tFee */\n      dup5\n        /* \"contracts/coffe.sol\":27807:27818  tAmount.sub */\n      tag_481\n        /* \"contracts/coffe.sol\":27807:27824  tAmount.sub(tFee) */\n      jump\t// in\n    tag_480:\n        /* \"contracts/coffe.sol\":27781:27824  uint256 tTransferAmount = tAmount.sub(tFee) */\n      swap1\n      pop\n        /* \"contracts/coffe.sol\":27853:27884  tTransferAmount.sub(tMarketing) */\n      tag_482\n        /* \"contracts/coffe.sol\":27781:27824  uint256 tTransferAmount = tAmount.sub(tFee) */\n      dup2\n        /* \"contracts/coffe.sol\":27873:27883  tMarketing */\n      dup4\n        /* \"contracts/coffe.sol\":27853:27872  tTransferAmount.sub */\n      tag_481\n        /* \"contracts/coffe.sol\":27853:27884  tTransferAmount.sub(tMarketing) */\n      jump\t// in\n    tag_482:\n        /* \"contracts/coffe.sol\":27835:27884  tTransferAmount = tTransferAmount.sub(tMarketing) */\n      swap8\n        /* \"contracts/coffe.sol\":27922:27926  tFee */\n      swap3\n      swap7\n      pop\n        /* \"contracts/coffe.sol\":27928:27938  tMarketing */\n      swap1\n      swap5\n      pop\n        /* \"contracts/coffe.sol\":27489:27947  function _getTValues(uint256 tAmount)... */\n      swap1\n      swap3\n      pop\n      pop\n      pop\n      jump\t// out\n        /* \"contracts/coffe.sol\":27955:28537  function _getRValues(... */\n    tag_293:\n        /* \"contracts/coffe.sol\":28154:28161  uint256 */\n      0x00\n      dup1\n      dup1\n      dup1\n        /* \"contracts/coffe.sol\":28251:28275  tAmount.mul(currentRate) */\n      tag_484\n        /* \"contracts/coffe.sol\":28251:28258  tAmount */\n      dup9\n        /* \"contracts/coffe.sol\":28263:28274  currentRate */\n      dup7\n        /* \"contracts/coffe.sol\":28251:28262  tAmount.mul */\n      tag_358\n        /* \"contracts/coffe.sol\":28251:28275  tAmount.mul(currentRate) */\n      jump\t// in\n    tag_484:\n        /* \"contracts/coffe.sol\":28233:28275  uint256 rAmount = tAmount.mul(currentRate) */\n      swap1\n      pop\n        /* \"contracts/coffe.sol\":28286:28298  uint256 rFee */\n      0x00\n        /* \"contracts/coffe.sol\":28301:28322  tFee.mul(currentRate) */\n      tag_485\n        /* \"contracts/coffe.sol\":28301:28305  tFee */\n      dup9\n        /* \"contracts/coffe.sol\":28310:28321  currentRate */\n      dup8\n        /* \"contracts/coffe.sol\":28301:28309  tFee.mul */\n      tag_358\n        /* \"contracts/coffe.sol\":28301:28322  tFee.mul(currentRate) */\n      jump\t// in\n    tag_485:\n        /* \"contracts/coffe.sol\":28286:28322  uint256 rFee = tFee.mul(currentRate) */\n      swap1\n      pop\n        /* \"contracts/coffe.sol\":28333:28351  uint256 rMarketing */\n      0x00\n        /* \"contracts/coffe.sol\":28354:28381  tMarketing.mul(currentRate) */\n      tag_486\n        /* \"contracts/coffe.sol\":28354:28364  tMarketing */\n      dup9\n        /* \"contracts/coffe.sol\":28369:28380  currentRate */\n      dup9\n        /* \"contracts/coffe.sol\":28354:28368  tMarketing.mul */\n      tag_358\n        /* \"contracts/coffe.sol\":28354:28381  tMarketing.mul(currentRate) */\n      jump\t// in\n    tag_486:\n        /* \"contracts/coffe.sol\":28333:28381  uint256 rMarketing = tMarketing.mul(currentRate) */\n      swap1\n      pop\n        /* \"contracts/coffe.sol\":28392:28415  uint256 rTransferAmount */\n      0x00\n        /* \"contracts/coffe.sol\":28418:28479  rAmount... */\n      tag_487\n        /* \"contracts/coffe.sol\":28333:28381  uint256 rMarketing = tMarketing.mul(currentRate) */\n      dup3\n        /* \"contracts/coffe.sol\":28418:28449  rAmount... */\n      tag_488\n        /* \"contracts/coffe.sol\":28418:28425  rAmount */\n      dup7\n        /* \"contracts/coffe.sol\":28444:28448  rFee */\n      dup7\n        /* \"contracts/coffe.sol\":28418:28443  rAmount... */\n      tag_481\n        /* \"contracts/coffe.sol\":28418:28449  rAmount... */\n      jump\t// in\n    tag_488:\n        /* \"contracts/coffe.sol\":28418:28467  rAmount... */\n      swap1\n      tag_481\n        /* \"contracts/coffe.sol\":28418:28479  rAmount... */\n      jump\t// in\n    tag_487:\n        /* \"contracts/coffe.sol\":28498:28505  rAmount */\n      swap4\n      swap12\n      swap4\n      swap11\n      pop\n        /* \"contracts/coffe.sol\":28524:28528  rFee */\n      swap2\n      swap9\n      pop\n        /* \"contracts/coffe.sol\":27955:28537  function _getRValues(... */\n      swap2\n      swap7\n      pop\n      pop\n      pop\n      pop\n      pop\n      pop\n      pop\n      jump\t// out\n        /* \"contracts/coffe.sol\":3067:3327  function mul(uint256 a, uint256 b) internal pure returns (uint256) {... */\n    tag_358:\n        /* \"contracts/coffe.sol\":3125:3132  uint256 */\n      0x00\n        /* \"contracts/coffe.sol\":3159:3165  a == 0 */\n      dup3\n        /* \"contracts/coffe.sol\":3155:3202  if (a == 0) {... */\n      tag_490\n      jumpi\n      pop\n        /* \"contracts/coffe.sol\":3189:3190  0 */\n      0x00\n        /* \"contracts/coffe.sol\":3182:3190  return 0 */\n      jump(tag_202)\n        /* \"contracts/coffe.sol\":3155:3202  if (a == 0) {... */\n    tag_490:\n        /* \"contracts/coffe.sol\":3214:3223  uint256 c */\n      0x00\n        /* \"contracts/coffe.sol\":3226:3231  a * b */\n      tag_491\n        /* \"contracts/coffe.sol\":3230:3231  b */\n      dup4\n        /* \"contracts/coffe.sol\":3226:3227  a */\n      dup6\n        /* \"contracts/coffe.sol\":3226:3231  a * b */\n      tag_492\n      jump\t// in\n    tag_491:\n        /* \"contracts/coffe.sol\":3214:3231  uint256 c = a * b */\n      swap1\n      pop\n        /* \"contracts/coffe.sol\":3259:3260  b */\n      dup3\n        /* \"contracts/coffe.sol\":3250:3255  c / a */\n      tag_493\n        /* \"contracts/coffe.sol\":3254:3255  a */\n      dup6\n        /* \"contracts/coffe.sol\":3214:3231  uint256 c = a * b */\n      dup4\n        /* \"contracts/coffe.sol\":3250:3255  c / a */\n      tag_494\n      jump\t// in\n    tag_493:\n        /* \"contracts/coffe.sol\":3250:3260  c / a == b */\n      eq\n        /* \"contracts/coffe.sol\":3242:3298  require(c / a == b, \"SafeMath: multiplication overflow\") */\n      tag_241\n      jumpi\n      mload(0x40)\n      shl(0xe5, 0x461bcd)\n      dup2\n      mstore\n        /* \"#utility.yul\":14855:14857   */\n      0x20\n        /* \"contracts/coffe.sol\":3242:3298  require(c / a == b, \"SafeMath: multiplication overflow\") */\n      0x04\n      dup3\n      add\n        /* \"#utility.yul\":14837:14858   */\n      mstore\n        /* \"#utility.yul\":14894:14896   */\n      0x21\n        /* \"#utility.yul\":14874:14892   */\n      0x24\n      dup3\n      add\n        /* \"#utility.yul\":14867:14897   */\n      mstore\n        /* \"#utility.yul\":14933:14967   */\n      0x536166654d6174683a206d756c7469706c69636174696f6e206f766572666c6f\n        /* \"#utility.yul\":14913:14931   */\n      0x44\n      dup3\n      add\n        /* \"#utility.yul\":14906:14968   */\n      mstore\n      shl(0xf8, 0x77)\n        /* \"#utility.yul\":14984:15002   */\n      0x64\n      dup3\n      add\n        /* \"#utility.yul\":14977:15008   */\n      mstore\n        /* \"#utility.yul\":15025:15044   */\n      0x84\n      add\n        /* \"contracts/coffe.sol\":3242:3298  require(c / a == b, \"SafeMath: multiplication overflow\") */\n      tag_210\n        /* \"#utility.yul\":14653:15050   */\n      jump\n        /* \"contracts/coffe.sol\":33637:34659  function _tokenTransfer(... */\n    tag_458:\n        /* \"contracts/coffe.sol\":33792:33799  takeFee */\n      dup1\n        /* \"contracts/coffe.sol\":33788:34018  if (takeFee) {... */\n      iszero\n      tag_506\n      jumpi\n        /* \"contracts/coffe.sol\":33816:33830  removeAllFee() */\n      tag_500\n        /* \"contracts/coffe.sol\":30039:30046  _taxFee */\n      0x14\n        /* \"contracts/coffe.sol\":30039:30050  _taxFee = 0 */\n      dup1\n      sload\n      not(0xffffffff)\n        /* \"contracts/coffe.sol\":30061:30078  _marketingFee = 0 */\n      and\n      swap1\n      sstore\n        /* \"contracts/coffe.sol\":29996:30086  function removeAllFee() private {... */\n      jump\n        /* \"contracts/coffe.sol\":33816:33830  removeAllFee() */\n    tag_500:\n        /* \"contracts/coffe.sol\":33859:33872  uniswapV2Pair */\n      immutable(\"0x7b1f476dcca78c0c07534aac79d4a050a1d07b9d08c662437f2c9d98632779bc\")\n      sub(shl(0xa0, 0x01), 0x01)\n        /* \"contracts/coffe.sol\":33849:33872  sender == uniswapV2Pair */\n      and\n        /* \"contracts/coffe.sol\":33849:33855  sender */\n      dup5\n      sub(shl(0xa0, 0x01), 0x01)\n        /* \"contracts/coffe.sol\":33849:33872  sender == uniswapV2Pair */\n      and\n      eq\n        /* \"contracts/coffe.sol\":33845:33917  if (sender == uniswapV2Pair) {... */\n      iszero\n      tag_503\n      jumpi\n        /* \"contracts/coffe.sol\":33893:33901  setBuy() */\n      tag_503\n        /* \"contracts/coffe.sol\":30141:30147  buyFee */\n      0x12\n        /* \"contracts/coffe.sol\":30141:30151  buyFee.tax */\n      sload\n        /* \"contracts/coffe.sol\":30131:30138  _taxFee */\n      0x14\n        /* \"contracts/coffe.sol\":30131:30151  _taxFee = buyFee.tax */\n      dup1\n      sload\n        /* \"contracts/coffe.sol\":30178:30194  buyFee.marketing */\n      0x010000\n      dup1\n      dup5\n      div\n        /* \"contracts/coffe.sol\":30141:30151  buyFee.tax */\n      0xffff\n        /* \"contracts/coffe.sol\":30178:30194  buyFee.marketing */\n      swap1\n      dup2\n      and\n        /* \"contracts/coffe.sol\":30162:30194  _marketingFee = buyFee.marketing */\n      swap1\n      swap2\n      mul\n      not(0xffffffff)\n      swap1\n      swap3\n      and\n        /* \"contracts/coffe.sol\":30141:30151  buyFee.tax */\n      swap4\n      and\n        /* \"contracts/coffe.sol\":30162:30194  _marketingFee = buyFee.marketing */\n      swap3\n      swap1\n      swap3\n      or\n      swap2\n      swap1\n      swap2\n      or\n      swap1\n      sstore\n        /* \"contracts/coffe.sol\":30094:30202  function setBuy() private {... */\n      jump\n        /* \"contracts/coffe.sol\":33893:33901  setBuy() */\n    tag_503:\n        /* \"contracts/coffe.sol\":33948:33961  uniswapV2Pair */\n      immutable(\"0x7b1f476dcca78c0c07534aac79d4a050a1d07b9d08c662437f2c9d98632779bc\")\n      sub(shl(0xa0, 0x01), 0x01)\n        /* \"contracts/coffe.sol\":33935:33961  recipient == uniswapV2Pair */\n      and\n        /* \"contracts/coffe.sol\":33935:33944  recipient */\n      dup4\n      sub(shl(0xa0, 0x01), 0x01)\n        /* \"contracts/coffe.sol\":33935:33961  recipient == uniswapV2Pair */\n      and\n      eq\n        /* \"contracts/coffe.sol\":33931:34007  if (recipient == uniswapV2Pair) {... */\n      iszero\n      tag_506\n      jumpi\n        /* \"contracts/coffe.sol\":33982:33991  setSell() */\n      tag_506\n        /* \"contracts/coffe.sol\":30258:30265  sellFee */\n      0x13\n        /* \"contracts/coffe.sol\":30258:30269  sellFee.tax */\n      sload\n        /* \"contracts/coffe.sol\":30248:30255  _taxFee */\n      0x14\n        /* \"contracts/coffe.sol\":30248:30269  _taxFee = sellFee.tax */\n      dup1\n      sload\n        /* \"contracts/coffe.sol\":30296:30313  sellFee.marketing */\n      0x010000\n      dup1\n      dup5\n      div\n        /* \"contracts/coffe.sol\":30258:30269  sellFee.tax */\n      0xffff\n        /* \"contracts/coffe.sol\":30296:30313  sellFee.marketing */\n      swap1\n      dup2\n      and\n        /* \"contracts/coffe.sol\":30280:30313  _marketingFee = sellFee.marketing */\n      swap1\n      swap2\n      mul\n      not(0xffffffff)\n      swap1\n      swap3\n      and\n        /* \"contracts/coffe.sol\":30258:30269  sellFee.tax */\n      swap4\n      and\n        /* \"contracts/coffe.sol\":30280:30313  _marketingFee = sellFee.marketing */\n      swap3\n      swap1\n      swap3\n      or\n      swap2\n      swap1\n      swap2\n      or\n      swap1\n      sstore\n        /* \"contracts/coffe.sol\":30210:30321  function setSell() private {... */\n      jump\n        /* \"contracts/coffe.sol\":33982:33991  setSell() */\n    tag_506:\n      sub(shl(0xa0, 0x01), 0x01)\n        /* \"contracts/coffe.sol\":34034:34053  _isExcluded[sender] */\n      dup5\n      and\n      0x00\n      swap1\n      dup2\n      mstore\n        /* \"contracts/coffe.sol\":34034:34045  _isExcluded */\n      0x06\n        /* \"contracts/coffe.sol\":34034:34053  _isExcluded[sender] */\n      0x20\n      mstore\n      0x40\n      swap1\n      keccak256\n      sload\n      0xff\n      and\n        /* \"contracts/coffe.sol\":34034:34080  _isExcluded[sender] && !_isExcluded[recipient] */\n      dup1\n      iszero\n      tag_508\n      jumpi\n      pop\n      sub(shl(0xa0, 0x01), 0x01)\n        /* \"contracts/coffe.sol\":34058:34080  _isExcluded[recipient] */\n      dup4\n      and\n      0x00\n      swap1\n      dup2\n      mstore\n        /* \"contracts/coffe.sol\":34058:34069  _isExcluded */\n      0x06\n        /* \"contracts/coffe.sol\":34058:34080  _isExcluded[recipient] */\n      0x20\n      mstore\n      0x40\n      swap1\n      keccak256\n      sload\n      0xff\n      and\n        /* \"contracts/coffe.sol\":34057:34080  !_isExcluded[recipient] */\n      iszero\n        /* \"contracts/coffe.sol\":34034:34080  _isExcluded[sender] && !_isExcluded[recipient] */\n    tag_508:\n        /* \"contracts/coffe.sol\":34030:34627  if (_isExcluded[sender] && !_isExcluded[recipient]) {... */\n      iszero\n      tag_509\n      jumpi\n        /* \"contracts/coffe.sol\":34097:34145  _transferFromExcluded(sender, recipient, amount) */\n      tag_510\n        /* \"contracts/coffe.sol\":34119:34125  sender */\n      dup5\n        /* \"contracts/coffe.sol\":34127:34136  recipient */\n      dup5\n        /* \"contracts/coffe.sol\":34138:34144  amount */\n      dup5\n        /* \"contracts/coffe.sol\":34097:34118  _transferFromExcluded */\n      tag_511\n        /* \"contracts/coffe.sol\":34097:34145  _transferFromExcluded(sender, recipient, amount) */\n      jump\t// in\n    tag_510:\n        /* \"contracts/coffe.sol\":34030:34627  if (_isExcluded[sender] && !_isExcluded[recipient]) {... */\n      jump(tag_528)\n    tag_509:\n      sub(shl(0xa0, 0x01), 0x01)\n        /* \"contracts/coffe.sol\":34168:34187  _isExcluded[sender] */\n      dup5\n      and\n      0x00\n      swap1\n      dup2\n      mstore\n        /* \"contracts/coffe.sol\":34168:34179  _isExcluded */\n      0x06\n        /* \"contracts/coffe.sol\":34168:34187  _isExcluded[sender] */\n      0x20\n      mstore\n      0x40\n      swap1\n      keccak256\n      sload\n      0xff\n      and\n        /* \"contracts/coffe.sol\":34167:34187  !_isExcluded[sender] */\n      iszero\n        /* \"contracts/coffe.sol\":34167:34213  !_isExcluded[sender] && _isExcluded[recipient] */\n      dup1\n      iszero\n      tag_513\n      jumpi\n      pop\n      sub(shl(0xa0, 0x01), 0x01)\n        /* \"contracts/coffe.sol\":34191:34213  _isExcluded[recipient] */\n      dup4\n      and\n      0x00\n      swap1\n      dup2\n      mstore\n        /* \"contracts/coffe.sol\":34191:34202  _isExcluded */\n      0x06\n        /* \"contracts/coffe.sol\":34191:34213  _isExcluded[recipient] */\n      0x20\n      mstore\n      0x40\n      swap1\n      keccak256\n      sload\n      0xff\n      and\n        /* \"contracts/coffe.sol\":34167:34213  !_isExcluded[sender] && _isExcluded[recipient] */\n    tag_513:\n        /* \"contracts/coffe.sol\":34163:34627  if (!_isExcluded[sender] && _isExcluded[recipient]) {... */\n      iszero\n      tag_514\n      jumpi\n        /* \"contracts/coffe.sol\":34230:34276  _transferToExcluded(sender, recipient, amount) */\n      tag_510\n        /* \"contracts/coffe.sol\":34250:34256  sender */\n      dup5\n        /* \"contracts/coffe.sol\":34258:34267  recipient */\n      dup5\n        /* \"contracts/coffe.sol\":34269:34275  amount */\n      dup5\n        /* \"contracts/coffe.sol\":34230:34249  _transferToExcluded */\n      tag_516\n        /* \"contracts/coffe.sol\":34230:34276  _transferToExcluded(sender, recipient, amount) */\n      jump\t// in\n        /* \"contracts/coffe.sol\":34163:34627  if (!_isExcluded[sender] && _isExcluded[recipient]) {... */\n    tag_514:\n      sub(shl(0xa0, 0x01), 0x01)\n        /* \"contracts/coffe.sol\":34299:34318  _isExcluded[sender] */\n      dup5\n      and\n      0x00\n      swap1\n      dup2\n      mstore\n        /* \"contracts/coffe.sol\":34299:34310  _isExcluded */\n      0x06\n        /* \"contracts/coffe.sol\":34299:34318  _isExcluded[sender] */\n      0x20\n      mstore\n      0x40\n      swap1\n      keccak256\n      sload\n      0xff\n      and\n        /* \"contracts/coffe.sol\":34298:34318  !_isExcluded[sender] */\n      iszero\n        /* \"contracts/coffe.sol\":34298:34345  !_isExcluded[sender] && !_isExcluded[recipient] */\n      dup1\n      iszero\n      tag_518\n      jumpi\n      pop\n      sub(shl(0xa0, 0x01), 0x01)\n        /* \"contracts/coffe.sol\":34323:34345  _isExcluded[recipient] */\n      dup4\n      and\n      0x00\n      swap1\n      dup2\n      mstore\n        /* \"contracts/coffe.sol\":34323:34334  _isExcluded */\n      0x06\n        /* \"contracts/coffe.sol\":34323:34345  _isExcluded[recipient] */\n      0x20\n      mstore\n      0x40\n      swap1\n      keccak256\n      sload\n      0xff\n      and\n        /* \"contracts/coffe.sol\":34322:34345  !_isExcluded[recipient] */\n      iszero\n        /* \"contracts/coffe.sol\":34298:34345  !_isExcluded[sender] && !_isExcluded[recipient] */\n    tag_518:\n        /* \"contracts/coffe.sol\":34294:34627  if (!_isExcluded[sender] && !_isExcluded[recipient]) {... */\n      iszero\n      tag_519\n      jumpi\n        /* \"contracts/coffe.sol\":34362:34406  _transferStandard(sender, recipient, amount) */\n      tag_510\n        /* \"contracts/coffe.sol\":34380:34386  sender */\n      dup5\n        /* \"contracts/coffe.sol\":34388:34397  recipient */\n      dup5\n        /* \"contracts/coffe.sol\":34399:34405  amount */\n      dup5\n        /* \"contracts/coffe.sol\":34362:34379  _transferStandard */\n      tag_521\n        /* \"contracts/coffe.sol\":34362:34406  _transferStandard(sender, recipient, amount) */\n      jump\t// in\n        /* \"contracts/coffe.sol\":34294:34627  if (!_isExcluded[sender] && !_isExcluded[recipient]) {... */\n    tag_519:\n      sub(shl(0xa0, 0x01), 0x01)\n        /* \"contracts/coffe.sol\":34428:34447  _isExcluded[sender] */\n      dup5\n      and\n      0x00\n      swap1\n      dup2\n      mstore\n        /* \"contracts/coffe.sol\":34428:34439  _isExcluded */\n      0x06\n        /* \"contracts/coffe.sol\":34428:34447  _isExcluded[sender] */\n      0x20\n      mstore\n      0x40\n      swap1\n      keccak256\n      sload\n      0xff\n      and\n        /* \"contracts/coffe.sol\":34428:34473  _isExcluded[sender] && _isExcluded[recipient] */\n      dup1\n      iszero\n      tag_523\n      jumpi\n      pop\n      sub(shl(0xa0, 0x01), 0x01)\n        /* \"contracts/coffe.sol\":34451:34473  _isExcluded[recipient] */\n      dup4\n      and\n      0x00\n      swap1\n      dup2\n      mstore\n        /* \"contracts/coffe.sol\":34451:34462  _isExcluded */\n      0x06\n        /* \"contracts/coffe.sol\":34451:34473  _isExcluded[recipient] */\n      0x20\n      mstore\n      0x40\n      swap1\n      keccak256\n      sload\n      0xff\n      and\n        /* \"contracts/coffe.sol\":34428:34473  _isExcluded[sender] && _isExcluded[recipient] */\n    tag_523:\n        /* \"contracts/coffe.sol\":34424:34627  if (_isExcluded[sender] && _isExcluded[recipient]) {... */\n      iszero\n      tag_524\n      jumpi\n        /* \"contracts/coffe.sol\":34490:34538  _transferBothExcluded(sender, recipient, amount) */\n      tag_510\n        /* \"contracts/coffe.sol\":34512:34518  sender */\n      dup5\n        /* \"contracts/coffe.sol\":34520:34529  recipient */\n      dup5\n        /* \"contracts/coffe.sol\":34531:34537  amount */\n      dup5\n        /* \"contracts/coffe.sol\":34490:34511  _transferBothExcluded */\n      tag_526\n        /* \"contracts/coffe.sol\":34490:34538  _transferBothExcluded(sender, recipient, amount) */\n      jump\t// in\n        /* \"contracts/coffe.sol\":34424:34627  if (_isExcluded[sender] && _isExcluded[recipient]) {... */\n    tag_524:\n        /* \"contracts/coffe.sol\":34571:34615  _transferStandard(sender, recipient, amount) */\n      tag_528\n        /* \"contracts/coffe.sol\":34589:34595  sender */\n      dup5\n        /* \"contracts/coffe.sol\":34597:34606  recipient */\n      dup5\n        /* \"contracts/coffe.sol\":34608:34614  amount */\n      dup5\n        /* \"contracts/coffe.sol\":34571:34588  _transferStandard */\n      tag_521\n        /* \"contracts/coffe.sol\":34571:34615  _transferStandard(sender, recipient, amount) */\n      jump\t// in\n    tag_528:\n        /* \"contracts/coffe.sol\":34637:34651  removeAllFee() */\n      tag_338\n        /* \"contracts/coffe.sol\":30039:30046  _taxFee */\n      0x14\n        /* \"contracts/coffe.sol\":30039:30050  _taxFee = 0 */\n      dup1\n      sload\n      not(0xffffffff)\n        /* \"contracts/coffe.sol\":30061:30078  _marketingFee = 0 */\n      and\n      swap1\n      sstore\n        /* \"contracts/coffe.sol\":29996:30086  function removeAllFee() private {... */\n      jump\n        /* \"contracts/coffe.sol\":28717:29322  function _getCurrentSupply() private view returns (uint256, uint256) {... */\n    tag_465:\n        /* \"contracts/coffe.sol\":28815:28822  _rTotal */\n      sload(0x0c)\n        /* \"contracts/coffe.sol\":28851:28858  _tTotal */\n      sload(0x0b)\n        /* \"contracts/coffe.sol\":28768:28775  uint256 */\n      0x00\n      swap2\n      dup3\n      swap2\n      dup3\n        /* \"contracts/coffe.sol\":28869:29207  for (uint256 i = 0; i < _excluded.length; i++) {... */\n    tag_531:\n        /* \"contracts/coffe.sol\":28893:28902  _excluded */\n      0x07\n        /* \"contracts/coffe.sol\":28893:28909  _excluded.length */\n      sload\n        /* \"contracts/coffe.sol\":28889:28909  i < _excluded.length */\n      dup2\n      lt\n        /* \"contracts/coffe.sol\":28869:29207  for (uint256 i = 0; i < _excluded.length; i++) {... */\n      iszero\n      tag_532\n      jumpi\n        /* \"contracts/coffe.sol\":28977:28984  rSupply */\n      dup3\n        /* \"contracts/coffe.sol\":28953:28960  _rOwned */\n      0x02\n        /* \"contracts/coffe.sol\":28953:28974  _rOwned[_excluded[i]] */\n      0x00\n        /* \"contracts/coffe.sol\":28961:28970  _excluded */\n      0x07\n        /* \"contracts/coffe.sol\":28971:28972  i */\n      dup5\n        /* \"contracts/coffe.sol\":28961:28973  _excluded[i] */\n      dup2\n      sload\n      dup2\n      lt\n      tag_535\n      jumpi\n      tag_535\n      tag_257\n      jump\t// in\n    tag_535:\n      0x00\n      swap2\n      dup3\n      mstore\n      0x20\n      dup1\n      dup4\n      keccak256\n      swap1\n      swap2\n      add\n      sload\n      sub(shl(0xa0, 0x01), 0x01)\n      and\n        /* \"contracts/coffe.sol\":28953:28974  _rOwned[_excluded[i]] */\n      dup4\n      mstore\n      dup3\n      add\n      swap3\n      swap1\n      swap3\n      mstore\n      0x40\n      add\n      swap1\n      keccak256\n      sload\n        /* \"contracts/coffe.sol\":28953:28984  _rOwned[_excluded[i]] > rSupply */\n      gt\n      dup1\n        /* \"contracts/coffe.sol\":28953:29036  _rOwned[_excluded[i]] > rSupply ||... */\n      tag_537\n      jumpi\n      pop\n        /* \"contracts/coffe.sol\":29029:29036  tSupply */\n      dup2\n        /* \"contracts/coffe.sol\":29005:29012  _tOwned */\n      0x03\n        /* \"contracts/coffe.sol\":29005:29026  _tOwned[_excluded[i]] */\n      0x00\n        /* \"contracts/coffe.sol\":29013:29022  _excluded */\n      0x07\n        /* \"contracts/coffe.sol\":29023:29024  i */\n      dup5\n        /* \"contracts/coffe.sol\":29013:29025  _excluded[i] */\n      dup2\n      sload\n      dup2\n      lt\n      tag_539\n      jumpi\n      tag_539\n      tag_257\n      jump\t// in\n    tag_539:\n      0x00\n      swap2\n      dup3\n      mstore\n      0x20\n      dup1\n      dup4\n      keccak256\n      swap1\n      swap2\n      add\n      sload\n      sub(shl(0xa0, 0x01), 0x01)\n      and\n        /* \"contracts/coffe.sol\":29005:29026  _tOwned[_excluded[i]] */\n      dup4\n      mstore\n      dup3\n      add\n      swap3\n      swap1\n      swap3\n      mstore\n      0x40\n      add\n      swap1\n      keccak256\n      sload\n        /* \"contracts/coffe.sol\":29005:29036  _tOwned[_excluded[i]] > tSupply */\n      gt\n        /* \"contracts/coffe.sol\":28953:29036  _rOwned[_excluded[i]] > rSupply ||... */\n    tag_537:\n        /* \"contracts/coffe.sol\":28931:29077  if (... */\n      iszero\n      tag_541\n      jumpi\n        /* \"contracts/coffe.sol\":29060:29067  _rTotal */\n      sload(0x0c)\n        /* \"contracts/coffe.sol\":29069:29076  _tTotal */\n      sload(0x0b)\n        /* \"contracts/coffe.sol\":29052:29077  return (_rTotal, _tTotal) */\n      swap5\n      pop\n      swap5\n      pop\n      pop\n      pop\n      pop\n        /* \"contracts/coffe.sol\":28717:29322  function _getCurrentSupply() private view returns (uint256, uint256) {... */\n      swap1\n      swap2\n      jump\t// out\n        /* \"contracts/coffe.sol\":28931:29077  if (... */\n    tag_541:\n        /* \"contracts/coffe.sol\":29102:29136  rSupply.sub(_rOwned[_excluded[i]]) */\n      tag_542\n        /* \"contracts/coffe.sol\":29114:29121  _rOwned */\n      0x02\n        /* \"contracts/coffe.sol\":29114:29135  _rOwned[_excluded[i]] */\n      0x00\n        /* \"contracts/coffe.sol\":29122:29131  _excluded */\n      0x07\n        /* \"contracts/coffe.sol\":29132:29133  i */\n      dup5\n        /* \"contracts/coffe.sol\":29122:29134  _excluded[i] */\n      dup2\n      sload\n      dup2\n      lt\n      tag_544\n      jumpi\n      tag_544\n      tag_257\n      jump\t// in\n    tag_544:\n      0x00\n      swap2\n      dup3\n      mstore\n      0x20\n      dup1\n      dup4\n      keccak256\n      swap1\n      swap2\n      add\n      sload\n      sub(shl(0xa0, 0x01), 0x01)\n      and\n        /* \"contracts/coffe.sol\":29114:29135  _rOwned[_excluded[i]] */\n      dup4\n      mstore\n      dup3\n      add\n      swap3\n      swap1\n      swap3\n      mstore\n      0x40\n      add\n      swap1\n      keccak256\n      sload\n        /* \"contracts/coffe.sol\":29102:29109  rSupply */\n      dup5\n      swap1\n        /* \"contracts/coffe.sol\":29102:29113  rSupply.sub */\n      tag_481\n        /* \"contracts/coffe.sol\":29102:29136  rSupply.sub(_rOwned[_excluded[i]]) */\n      jump\t// in\n    tag_542:\n        /* \"contracts/coffe.sol\":29092:29136  rSupply = rSupply.sub(_rOwned[_excluded[i]]) */\n      swap3\n      pop\n        /* \"contracts/coffe.sol\":29161:29195  tSupply.sub(_tOwned[_excluded[i]]) */\n      tag_546\n        /* \"contracts/coffe.sol\":29173:29180  _tOwned */\n      0x03\n        /* \"contracts/coffe.sol\":29173:29194  _tOwned[_excluded[i]] */\n      0x00\n        /* \"contracts/coffe.sol\":29181:29190  _excluded */\n      0x07\n        /* \"contracts/coffe.sol\":29191:29192  i */\n      dup5\n        /* \"contracts/coffe.sol\":29181:29193  _excluded[i] */\n      dup2\n      sload\n      dup2\n      lt\n      tag_548\n      jumpi\n      tag_548\n      tag_257\n      jump\t// in\n    tag_548:\n      0x00\n      swap2\n      dup3\n      mstore\n      0x20\n      dup1\n      dup4\n      keccak256\n      swap1\n      swap2\n      add\n      sload\n      sub(shl(0xa0, 0x01), 0x01)\n      and\n        /* \"contracts/coffe.sol\":29173:29194  _tOwned[_excluded[i]] */\n      dup4\n      mstore\n      dup3\n      add\n      swap3\n      swap1\n      swap3\n      mstore\n      0x40\n      add\n      swap1\n      keccak256\n      sload\n        /* \"contracts/coffe.sol\":29161:29168  tSupply */\n      dup4\n      swap1\n        /* \"contracts/coffe.sol\":29161:29172  tSupply.sub */\n      tag_481\n        /* \"contracts/coffe.sol\":29161:29195  tSupply.sub(_tOwned[_excluded[i]]) */\n      jump\t// in\n    tag_546:\n        /* \"contracts/coffe.sol\":29151:29195  tSupply = tSupply.sub(_tOwned[_excluded[i]]) */\n      swap2\n      pop\n        /* \"contracts/coffe.sol\":28911:28914  i++ */\n      dup1\n      tag_550\n      dup2\n      tag_273\n      jump\t// in\n    tag_550:\n      swap2\n      pop\n      pop\n        /* \"contracts/coffe.sol\":28869:29207  for (uint256 i = 0; i < _excluded.length; i++) {... */\n      jump(tag_531)\n    tag_532:\n      pop\n        /* \"contracts/coffe.sol\":29243:29250  _tTotal */\n      sload(0x0b)\n        /* \"contracts/coffe.sol\":29231:29238  _rTotal */\n      sload(0x0c)\n        /* \"contracts/coffe.sol\":29231:29251  _rTotal.div(_tTotal) */\n      tag_551\n      swap2\n        /* \"contracts/coffe.sol\":29231:29242  _rTotal.div */\n      tag_242\n        /* \"contracts/coffe.sol\":29231:29251  _rTotal.div(_tTotal) */\n      jump\t// in\n    tag_551:\n        /* \"contracts/coffe.sol\":29221:29228  rSupply */\n      dup3\n        /* \"contracts/coffe.sol\":29221:29251  rSupply < _rTotal.div(_tTotal) */\n      lt\n        /* \"contracts/coffe.sol\":29217:29278  if (rSupply < _rTotal.div(_tTotal)) return (_rTotal, _tTotal) */\n      iszero\n      tag_552\n      jumpi\n        /* \"contracts/coffe.sol\":29261:29268  _rTotal */\n      sload(0x0c)\n        /* \"contracts/coffe.sol\":29270:29277  _tTotal */\n      sload(0x0b)\n        /* \"contracts/coffe.sol\":29253:29278  return (_rTotal, _tTotal) */\n      swap4\n      pop\n      swap4\n      pop\n      pop\n      pop\n        /* \"contracts/coffe.sol\":28717:29322  function _getCurrentSupply() private view returns (uint256, uint256) {... */\n      swap1\n      swap2\n      jump\t// out\n        /* \"contracts/coffe.sol\":29217:29278  if (rSupply < _rTotal.div(_tTotal)) return (_rTotal, _tTotal) */\n    tag_552:\n        /* \"contracts/coffe.sol\":29297:29304  rSupply */\n      swap1\n      swap4\n        /* \"contracts/coffe.sol\":29306:29313  tSupply */\n      swap1\n      swap3\n      pop\n        /* \"contracts/coffe.sol\":28717:29322  function _getCurrentSupply() private view returns (uint256, uint256) {... */\n      swap1\n      pop\n      jump\t// out\n        /* \"contracts/coffe.sol\":3481:3716  function div(... */\n    tag_469:\n        /* \"contracts/coffe.sol\":3601:3608  uint256 */\n      0x00\n        /* \"contracts/coffe.sol\":3636:3648  errorMessage */\n      dup2\n        /* \"contracts/coffe.sol\":3629:3634  b > 0 */\n      dup4\n        /* \"contracts/coffe.sol\":3621:3649  require(b > 0, errorMessage) */\n      tag_554\n      jumpi\n      mload(0x40)\n      shl(0xe5, 0x461bcd)\n      dup2\n      mstore\n      0x04\n      add\n      tag_210\n      swap2\n      swap1\n      tag_55\n      jump\t// in\n    tag_554:\n      pop\n        /* \"contracts/coffe.sol\":3660:3669  uint256 c */\n      0x00\n        /* \"contracts/coffe.sol\":3672:3677  a / b */\n      tag_462\n        /* \"contracts/coffe.sol\":3676:3677  b */\n      dup5\n        /* \"contracts/coffe.sol\":3672:3673  a */\n      dup7\n        /* \"contracts/coffe.sol\":3672:3677  a / b */\n      tag_494\n      jump\t// in\n        /* \"contracts/coffe.sol\":29674:29804  function calculateTaxFee(uint256 _amount) private view returns (uint256) {... */\n    tag_477:\n        /* \"contracts/coffe.sol\":29777:29784  _taxFee */\n      sload(0x14)\n        /* \"contracts/coffe.sol\":29738:29745  uint256 */\n      0x00\n      swap1\n        /* \"contracts/coffe.sol\":29765:29796  _amount.mul(_taxFee).div(10**2) */\n      tag_202\n      swap1\n        /* \"contracts/coffe.sol\":29790:29795  10**2 */\n      0x64\n      swap1\n        /* \"contracts/coffe.sol\":29765:29785  _amount.mul(_taxFee) */\n      tag_357\n      swap1\n        /* \"contracts/coffe.sol\":29765:29772  _amount */\n      dup6\n      swap1\n        /* \"contracts/coffe.sol\":29777:29784  _taxFee */\n      0xffff\n      and\n        /* \"contracts/coffe.sol\":29765:29776  _amount.mul */\n      tag_358\n        /* \"contracts/coffe.sol\":29765:29785  _amount.mul(_taxFee) */\n      jump\t// in\n        /* \"contracts/coffe.sol\":29814:29988  function calculateMarketingFee(uint256 _amount)... */\n    tag_479:\n        /* \"contracts/coffe.sol\":29955:29968  _marketingFee */\n      sload(0x14)\n        /* \"contracts/coffe.sol\":29911:29918  uint256 */\n      0x00\n      swap1\n        /* \"contracts/coffe.sol\":29943:29980  _amount.mul(_marketingFee).div(10**2) */\n      tag_202\n      swap1\n        /* \"contracts/coffe.sol\":29974:29979  10**2 */\n      0x64\n      swap1\n        /* \"contracts/coffe.sol\":29943:29969  _amount.mul(_marketingFee) */\n      tag_357\n      swap1\n        /* \"contracts/coffe.sol\":29943:29950  _amount */\n      dup6\n      swap1\n        /* \"contracts/coffe.sol\":29955:29968  _marketingFee */\n      0x010000\n      swap1\n      div\n      0xffff\n      and\n        /* \"contracts/coffe.sol\":29943:29954  _amount.mul */\n      tag_358\n        /* \"contracts/coffe.sol\":29943:29969  _amount.mul(_marketingFee) */\n      jump\t// in\n        /* \"contracts/coffe.sol\":2677:2813  function sub(uint256 a, uint256 b) internal pure returns (uint256) {... */\n    tag_481:\n        /* \"contracts/coffe.sol\":2735:2742  uint256 */\n      0x00\n        /* \"contracts/coffe.sol\":2762:2805  sub(a, b, \"SafeMath: subtraction overflow\") */\n      tag_241\n        /* \"contracts/coffe.sol\":2766:2767  a */\n      dup4\n        /* \"contracts/coffe.sol\":2769:2770  b */\n      dup4\n        /* \"contracts/coffe.sol\":2762:2805  sub(a, b, \"SafeMath: subtraction overflow\") */\n      mload(0x40)\n      dup1\n      0x40\n      add\n      0x40\n      mstore\n      dup1\n      0x1e\n      dup2\n      mstore\n      0x20\n      add\n      0x536166654d6174683a207375627472616374696f6e206f766572666c6f770000\n      dup2\n      mstore\n      pop\n        /* \"contracts/coffe.sol\":2762:2765  sub */\n      tag_234\n        /* \"contracts/coffe.sol\":2762:2805  sub(a, b, \"SafeMath: subtraction overflow\") */\n      jump\t// in\n        /* \"contracts/coffe.sol\":36190:36967  function _transferFromExcluded(... */\n    tag_511:\n        /* \"contracts/coffe.sol\":36341:36364  uint256 tTransferAmount */\n      0x00\n        /* \"contracts/coffe.sol\":36379:36391  uint256 tFee */\n      dup1\n        /* \"contracts/coffe.sol\":36406:36424  uint256 tMarketing */\n      0x00\n        /* \"contracts/coffe.sol\":36438:36458  _getTValues(tAmount) */\n      tag_569\n        /* \"contracts/coffe.sol\":36450:36457  tAmount */\n      dup5\n        /* \"contracts/coffe.sol\":36438:36449  _getTValues */\n      tag_290\n        /* \"contracts/coffe.sol\":36438:36458  _getTValues(tAmount) */\n      jump\t// in\n    tag_569:\n        /* \"contracts/coffe.sol\":36326:36458  (... */\n      swap3\n      pop\n      swap3\n      pop\n      swap3\n      pop\n        /* \"contracts/coffe.sol\":36470:36485  uint256 rAmount */\n      0x00\n        /* \"contracts/coffe.sol\":36487:36510  uint256 rTransferAmount */\n      dup1\n        /* \"contracts/coffe.sol\":36512:36524  uint256 rFee */\n      0x00\n        /* \"contracts/coffe.sol\":36528:36641  _getRValues(... */\n      tag_570\n        /* \"contracts/coffe.sol\":36554:36561  tAmount */\n      dup8\n        /* \"contracts/coffe.sol\":36576:36580  tFee */\n      dup7\n        /* \"contracts/coffe.sol\":36595:36605  tMarketing */\n      dup7\n        /* \"contracts/coffe.sol\":36620:36630  _getRate() */\n      tag_292\n        /* \"contracts/coffe.sol\":36620:36628  _getRate */\n      tag_240\n        /* \"contracts/coffe.sol\":36620:36630  _getRate() */\n      jump\t// in\n        /* \"contracts/coffe.sol\":36528:36641  _getRValues(... */\n    tag_570:\n      sub(shl(0xa0, 0x01), 0x01)\n        /* \"contracts/coffe.sol\":36672:36687  _tOwned[sender] */\n      dup13\n      and\n      0x00\n      swap1\n      dup2\n      mstore\n        /* \"contracts/coffe.sol\":36672:36679  _tOwned */\n      0x03\n        /* \"contracts/coffe.sol\":36672:36687  _tOwned[sender] */\n      0x20\n      mstore\n      0x40\n      swap1\n      keccak256\n      sload\n        /* \"contracts/coffe.sol\":36469:36641  (uint256 rAmount, uint256 rTransferAmount, uint256 rFee) = _getRValues(... */\n      swap3\n      swap6\n      pop\n      swap1\n      swap4\n      pop\n      swap2\n      pop\n        /* \"contracts/coffe.sol\":36672:36700  _tOwned[sender].sub(tAmount) */\n      tag_572\n      swap1\n        /* \"contracts/coffe.sol\":36692:36699  tAmount */\n      dup9\n        /* \"contracts/coffe.sol\":36672:36691  _tOwned[sender].sub */\n      tag_481\n        /* \"contracts/coffe.sol\":36672:36700  _tOwned[sender].sub(tAmount) */\n      jump\t// in\n    tag_572:\n      sub(shl(0xa0, 0x01), 0x01)\n        /* \"contracts/coffe.sol\":36654:36669  _tOwned[sender] */\n      dup11\n      and\n      0x00\n      swap1\n      dup2\n      mstore\n        /* \"contracts/coffe.sol\":36654:36661  _tOwned */\n      0x03\n        /* \"contracts/coffe.sol\":36654:36669  _tOwned[sender] */\n      0x20\n      swap1\n      dup2\n      mstore\n      0x40\n      dup1\n      dup4\n      keccak256\n        /* \"contracts/coffe.sol\":36654:36700  _tOwned[sender] = _tOwned[sender].sub(tAmount) */\n      swap4\n      swap1\n      swap4\n      sstore\n        /* \"contracts/coffe.sol\":36729:36736  _rOwned */\n      0x02\n        /* \"contracts/coffe.sol\":36729:36744  _rOwned[sender] */\n      swap1\n      mstore\n      keccak256\n      sload\n        /* \"contracts/coffe.sol\":36729:36757  _rOwned[sender].sub(rAmount) */\n      tag_573\n      swap1\n        /* \"contracts/coffe.sol\":36749:36756  rAmount */\n      dup5\n        /* \"contracts/coffe.sol\":36729:36748  _rOwned[sender].sub */\n      tag_481\n        /* \"contracts/coffe.sol\":36729:36757  _rOwned[sender].sub(rAmount) */\n      jump\t// in\n    tag_573:\n      sub(shl(0xa0, 0x01), 0x01)\n        /* \"contracts/coffe.sol\":36711:36726  _rOwned[sender] */\n      dup1\n      dup12\n      and\n      0x00\n      swap1\n      dup2\n      mstore\n        /* \"contracts/coffe.sol\":36711:36718  _rOwned */\n      0x02\n        /* \"contracts/coffe.sol\":36711:36726  _rOwned[sender] */\n      0x20\n      mstore\n      0x40\n      dup1\n      dup3\n      keccak256\n        /* \"contracts/coffe.sol\":36711:36757  _rOwned[sender] = _rOwned[sender].sub(rAmount) */\n      swap4\n      swap1\n      swap4\n      sstore\n        /* \"contracts/coffe.sol\":36789:36807  _rOwned[recipient] */\n      swap1\n      dup11\n      and\n      dup2\n      mstore\n      keccak256\n      sload\n        /* \"contracts/coffe.sol\":36789:36828  _rOwned[recipient].add(rTransferAmount) */\n      tag_574\n      swap1\n        /* \"contracts/coffe.sol\":36812:36827  rTransferAmount */\n      dup4\n        /* \"contracts/coffe.sol\":36789:36811  _rOwned[recipient].add */\n      tag_279\n        /* \"contracts/coffe.sol\":36789:36828  _rOwned[recipient].add(rTransferAmount) */\n      jump\t// in\n    tag_574:\n      sub(shl(0xa0, 0x01), 0x01)\n        /* \"contracts/coffe.sol\":36768:36786  _rOwned[recipient] */\n      dup10\n      and\n      0x00\n      swap1\n      dup2\n      mstore\n        /* \"contracts/coffe.sol\":36768:36775  _rOwned */\n      0x02\n        /* \"contracts/coffe.sol\":36768:36786  _rOwned[recipient] */\n      0x20\n      mstore\n      0x40\n      swap1\n      keccak256\n        /* \"contracts/coffe.sol\":36768:36828  _rOwned[recipient] = _rOwned[recipient].add(rTransferAmount) */\n      sstore\n        /* \"contracts/coffe.sol\":36839:36865  _takeMarketing(tMarketing) */\n      tag_575\n        /* \"contracts/coffe.sol\":36854:36864  tMarketing */\n      dup5\n        /* \"contracts/coffe.sol\":36839:36853  _takeMarketing */\n      tag_576\n        /* \"contracts/coffe.sol\":36839:36865  _takeMarketing(tMarketing) */\n      jump\t// in\n    tag_575:\n        /* \"contracts/coffe.sol\":36876:36899  _reflectFee(rFee, tFee) */\n      tag_577\n        /* \"contracts/coffe.sol\":36888:36892  rFee */\n      dup2\n        /* \"contracts/coffe.sol\":36894:36898  tFee */\n      dup7\n        /* \"contracts/coffe.sol\":36876:36887  _reflectFee */\n      tag_578\n        /* \"contracts/coffe.sol\":36876:36899  _reflectFee(rFee, tFee) */\n      jump\t// in\n    tag_577:\n        /* \"contracts/coffe.sol\":36932:36941  recipient */\n      dup8\n      sub(shl(0xa0, 0x01), 0x01)\n        /* \"contracts/coffe.sol\":36915:36959  Transfer(sender, recipient, tTransferAmount) */\n      and\n        /* \"contracts/coffe.sol\":36924:36930  sender */\n      dup10\n      sub(shl(0xa0, 0x01), 0x01)\n        /* \"contracts/coffe.sol\":36915:36959  Transfer(sender, recipient, tTransferAmount) */\n      and\n      0xddf252ad1be2c89b69c2b068fc378daa952ba7f163c4a11628f55a4df523b3ef\n        /* \"contracts/coffe.sol\":36943:36958  tTransferAmount */\n      dup9\n        /* \"contracts/coffe.sol\":36915:36959  Transfer(sender, recipient, tTransferAmount) */\n      mload(0x40)\n      tag_579\n      swap2\n        /* \"#utility.yul\":1662:1687   */\n      dup2\n      mstore\n        /* \"#utility.yul\":1650:1652   */\n      0x20\n        /* \"#utility.yul\":1635:1653   */\n      add\n      swap1\n        /* \"#utility.yul\":1516:1693   */\n      jump\n        /* \"contracts/coffe.sol\":36915:36959  Transfer(sender, recipient, tTransferAmount) */\n    tag_579:\n      mload(0x40)\n      dup1\n      swap2\n      sub\n      swap1\n      log3\n        /* \"contracts/coffe.sol\":36315:36967  {... */\n      pop\n      pop\n      pop\n      pop\n      pop\n      pop\n        /* \"contracts/coffe.sol\":36190:36967  function _transferFromExcluded(... */\n      pop\n      pop\n      pop\n      jump\t// out\n        /* \"contracts/coffe.sol\":35393:36182  function _transferToExcluded(... */\n    tag_516:\n        /* \"contracts/coffe.sol\":35542:35565  uint256 tTransferAmount */\n      0x00\n        /* \"contracts/coffe.sol\":35580:35592  uint256 tFee */\n      dup1\n        /* \"contracts/coffe.sol\":35607:35625  uint256 tMarketing */\n      0x00\n        /* \"contracts/coffe.sol\":35639:35659  _getTValues(tAmount) */\n      tag_581\n        /* \"contracts/coffe.sol\":35651:35658  tAmount */\n      dup5\n        /* \"contracts/coffe.sol\":35639:35650  _getTValues */\n      tag_290\n        /* \"contracts/coffe.sol\":35639:35659  _getTValues(tAmount) */\n      jump\t// in\n    tag_581:\n        /* \"contracts/coffe.sol\":35527:35659  (... */\n      swap3\n      pop\n      swap3\n      pop\n      swap3\n      pop\n        /* \"contracts/coffe.sol\":35671:35686  uint256 rAmount */\n      0x00\n        /* \"contracts/coffe.sol\":35688:35711  uint256 rTransferAmount */\n      dup1\n        /* \"contracts/coffe.sol\":35713:35725  uint256 rFee */\n      0x00\n        /* \"contracts/coffe.sol\":35729:35842  _getRValues(... */\n      tag_582\n        /* \"contracts/coffe.sol\":35755:35762  tAmount */\n      dup8\n        /* \"contracts/coffe.sol\":35777:35781  tFee */\n      dup7\n        /* \"contracts/coffe.sol\":35796:35806  tMarketing */\n      dup7\n        /* \"contracts/coffe.sol\":35821:35831  _getRate() */\n      tag_292\n        /* \"contracts/coffe.sol\":35821:35829  _getRate */\n      tag_240\n        /* \"contracts/coffe.sol\":35821:35831  _getRate() */\n      jump\t// in\n        /* \"contracts/coffe.sol\":35729:35842  _getRValues(... */\n    tag_582:\n      sub(shl(0xa0, 0x01), 0x01)\n        /* \"contracts/coffe.sol\":35873:35888  _rOwned[sender] */\n      dup13\n      and\n      0x00\n      swap1\n      dup2\n      mstore\n        /* \"contracts/coffe.sol\":35873:35880  _rOwned */\n      0x02\n        /* \"contracts/coffe.sol\":35873:35888  _rOwned[sender] */\n      0x20\n      mstore\n      0x40\n      swap1\n      keccak256\n      sload\n        /* \"contracts/coffe.sol\":35670:35842  (uint256 rAmount, uint256 rTransferAmount, uint256 rFee) = _getRValues(... */\n      swap3\n      swap6\n      pop\n      swap1\n      swap4\n      pop\n      swap2\n      pop\n        /* \"contracts/coffe.sol\":35873:35901  _rOwned[sender].sub(rAmount) */\n      tag_584\n      swap1\n        /* \"contracts/coffe.sol\":35670:35842  (uint256 rAmount, uint256 rTransferAmount, uint256 rFee) = _getRValues(... */\n      dup5\n        /* \"contracts/coffe.sol\":35873:35892  _rOwned[sender].sub */\n      tag_481\n        /* \"contracts/coffe.sol\":35873:35901  _rOwned[sender].sub(rAmount) */\n      jump\t// in\n    tag_584:\n      sub(shl(0xa0, 0x01), 0x01)\n        /* \"contracts/coffe.sol\":35855:35870  _rOwned[sender] */\n      dup1\n      dup12\n      and\n      0x00\n      swap1\n      dup2\n      mstore\n        /* \"contracts/coffe.sol\":35855:35862  _rOwned */\n      0x02\n        /* \"contracts/coffe.sol\":35855:35870  _rOwned[sender] */\n      0x20\n      swap1\n      dup2\n      mstore\n      0x40\n      dup1\n      dup4\n      keccak256\n        /* \"contracts/coffe.sol\":35855:35901  _rOwned[sender] = _rOwned[sender].sub(rAmount) */\n      swap5\n      swap1\n      swap5\n      sstore\n        /* \"contracts/coffe.sol\":35933:35951  _tOwned[recipient] */\n      swap2\n      dup12\n      and\n      dup2\n      mstore\n        /* \"contracts/coffe.sol\":35933:35940  _tOwned */\n      0x03\n        /* \"contracts/coffe.sol\":35933:35951  _tOwned[recipient] */\n      swap1\n      swap2\n      mstore\n      keccak256\n      sload\n        /* \"contracts/coffe.sol\":35933:35972  _tOwned[recipient].add(tTransferAmount) */\n      tag_585\n      swap1\n        /* \"contracts/coffe.sol\":35956:35971  tTransferAmount */\n      dup8\n        /* \"contracts/coffe.sol\":35933:35955  _tOwned[recipient].add */\n      tag_279\n        /* \"contracts/coffe.sol\":35933:35972  _tOwned[recipient].add(tTransferAmount) */\n      jump\t// in\n    tag_585:\n      sub(shl(0xa0, 0x01), 0x01)\n        /* \"contracts/coffe.sol\":35912:35930  _tOwned[recipient] */\n      dup10\n      and\n      0x00\n      swap1\n      dup2\n      mstore\n        /* \"contracts/coffe.sol\":35912:35919  _tOwned */\n      0x03\n        /* \"contracts/coffe.sol\":35912:35930  _tOwned[recipient] */\n      0x20\n      swap1\n      dup2\n      mstore\n      0x40\n      dup1\n      dup4\n      keccak256\n        /* \"contracts/coffe.sol\":35912:35972  _tOwned[recipient] = _tOwned[recipient].add(tTransferAmount) */\n      swap4\n      swap1\n      swap4\n      sstore\n        /* \"contracts/coffe.sol\":36004:36011  _rOwned */\n      0x02\n        /* \"contracts/coffe.sol\":36004:36022  _rOwned[recipient] */\n      swap1\n      mstore\n      keccak256\n      sload\n        /* \"contracts/coffe.sol\":36004:36043  _rOwned[recipient].add(rTransferAmount) */\n      tag_574\n      swap1\n        /* \"contracts/coffe.sol\":36027:36042  rTransferAmount */\n      dup4\n        /* \"contracts/coffe.sol\":36004:36026  _rOwned[recipient].add */\n      tag_279\n        /* \"contracts/coffe.sol\":36004:36043  _rOwned[recipient].add(rTransferAmount) */\n      jump\t// in\n        /* \"contracts/coffe.sol\":34667:35383  function _transferStandard(... */\n    tag_521:\n        /* \"contracts/coffe.sol\":34814:34837  uint256 tTransferAmount */\n      0x00\n        /* \"contracts/coffe.sol\":34852:34864  uint256 tFee */\n      dup1\n        /* \"contracts/coffe.sol\":34879:34897  uint256 tMarketing */\n      0x00\n        /* \"contracts/coffe.sol\":34911:34931  _getTValues(tAmount) */\n      tag_591\n        /* \"contracts/coffe.sol\":34923:34930  tAmount */\n      dup5\n        /* \"contracts/coffe.sol\":34911:34922  _getTValues */\n      tag_290\n        /* \"contracts/coffe.sol\":34911:34931  _getTValues(tAmount) */\n      jump\t// in\n    tag_591:\n        /* \"contracts/coffe.sol\":34799:34931  (... */\n      swap3\n      pop\n      swap3\n      pop\n      swap3\n      pop\n        /* \"contracts/coffe.sol\":34943:34958  uint256 rAmount */\n      0x00\n        /* \"contracts/coffe.sol\":34960:34983  uint256 rTransferAmount */\n      dup1\n        /* \"contracts/coffe.sol\":34985:34997  uint256 rFee */\n      0x00\n        /* \"contracts/coffe.sol\":35001:35114  _getRValues(... */\n      tag_592\n        /* \"contracts/coffe.sol\":35027:35034  tAmount */\n      dup8\n        /* \"contracts/coffe.sol\":35049:35053  tFee */\n      dup7\n        /* \"contracts/coffe.sol\":35068:35078  tMarketing */\n      dup7\n        /* \"contracts/coffe.sol\":35093:35103  _getRate() */\n      tag_292\n        /* \"contracts/coffe.sol\":35093:35101  _getRate */\n      tag_240\n        /* \"contracts/coffe.sol\":35093:35103  _getRate() */\n      jump\t// in\n        /* \"contracts/coffe.sol\":35001:35114  _getRValues(... */\n    tag_592:\n      sub(shl(0xa0, 0x01), 0x01)\n        /* \"contracts/coffe.sol\":35145:35160  _rOwned[sender] */\n      dup13\n      and\n      0x00\n      swap1\n      dup2\n      mstore\n        /* \"contracts/coffe.sol\":35145:35152  _rOwned */\n      0x02\n        /* \"contracts/coffe.sol\":35145:35160  _rOwned[sender] */\n      0x20\n      mstore\n      0x40\n      swap1\n      keccak256\n      sload\n        /* \"contracts/coffe.sol\":34942:35114  (uint256 rAmount, uint256 rTransferAmount, uint256 rFee) = _getRValues(... */\n      swap3\n      swap6\n      pop\n      swap1\n      swap4\n      pop\n      swap2\n      pop\n        /* \"contracts/coffe.sol\":35145:35173  _rOwned[sender].sub(rAmount) */\n      tag_573\n      swap1\n        /* \"contracts/coffe.sol\":34942:35114  (uint256 rAmount, uint256 rTransferAmount, uint256 rFee) = _getRValues(... */\n      dup5\n        /* \"contracts/coffe.sol\":35145:35164  _rOwned[sender].sub */\n      tag_481\n        /* \"contracts/coffe.sol\":35145:35173  _rOwned[sender].sub(rAmount) */\n      jump\t// in\n        /* \"contracts/coffe.sol\":36975:37823  function _transferBothExcluded(... */\n    tag_526:\n        /* \"contracts/coffe.sol\":37126:37149  uint256 tTransferAmount */\n      0x00\n        /* \"contracts/coffe.sol\":37164:37176  uint256 tFee */\n      dup1\n        /* \"contracts/coffe.sol\":37191:37209  uint256 tMarketing */\n      0x00\n        /* \"contracts/coffe.sol\":37223:37243  _getTValues(tAmount) */\n      tag_600\n        /* \"contracts/coffe.sol\":37235:37242  tAmount */\n      dup5\n        /* \"contracts/coffe.sol\":37223:37234  _getTValues */\n      tag_290\n        /* \"contracts/coffe.sol\":37223:37243  _getTValues(tAmount) */\n      jump\t// in\n    tag_600:\n        /* \"contracts/coffe.sol\":37111:37243  (... */\n      swap3\n      pop\n      swap3\n      pop\n      swap3\n      pop\n        /* \"contracts/coffe.sol\":37255:37270  uint256 rAmount */\n      0x00\n        /* \"contracts/coffe.sol\":37272:37295  uint256 rTransferAmount */\n      dup1\n        /* \"contracts/coffe.sol\":37297:37309  uint256 rFee */\n      0x00\n        /* \"contracts/coffe.sol\":37313:37426  _getRValues(... */\n      tag_601\n        /* \"contracts/coffe.sol\":37339:37346  tAmount */\n      dup8\n        /* \"contracts/coffe.sol\":37361:37365  tFee */\n      dup7\n        /* \"contracts/coffe.sol\":37380:37390  tMarketing */\n      dup7\n        /* \"contracts/coffe.sol\":37405:37415  _getRate() */\n      tag_292\n        /* \"contracts/coffe.sol\":37405:37413  _getRate */\n      tag_240\n        /* \"contracts/coffe.sol\":37405:37415  _getRate() */\n      jump\t// in\n        /* \"contracts/coffe.sol\":37313:37426  _getRValues(... */\n    tag_601:\n      sub(shl(0xa0, 0x01), 0x01)\n        /* \"contracts/coffe.sol\":37457:37472  _tOwned[sender] */\n      dup13\n      and\n      0x00\n      swap1\n      dup2\n      mstore\n        /* \"contracts/coffe.sol\":37457:37464  _tOwned */\n      0x03\n        /* \"contracts/coffe.sol\":37457:37472  _tOwned[sender] */\n      0x20\n      mstore\n      0x40\n      swap1\n      keccak256\n      sload\n        /* \"contracts/coffe.sol\":37254:37426  (uint256 rAmount, uint256 rTransferAmount, uint256 rFee) = _getRValues(... */\n      swap3\n      swap6\n      pop\n      swap1\n      swap4\n      pop\n      swap2\n      pop\n        /* \"contracts/coffe.sol\":37457:37485  _tOwned[sender].sub(tAmount) */\n      tag_603\n      swap1\n        /* \"contracts/coffe.sol\":37477:37484  tAmount */\n      dup9\n        /* \"contracts/coffe.sol\":37457:37476  _tOwned[sender].sub */\n      tag_481\n        /* \"contracts/coffe.sol\":37457:37485  _tOwned[sender].sub(tAmount) */\n      jump\t// in\n    tag_603:\n      sub(shl(0xa0, 0x01), 0x01)\n        /* \"contracts/coffe.sol\":37439:37454  _tOwned[sender] */\n      dup11\n      and\n      0x00\n      swap1\n      dup2\n      mstore\n        /* \"contracts/coffe.sol\":37439:37446  _tOwned */\n      0x03\n        /* \"contracts/coffe.sol\":37439:37454  _tOwned[sender] */\n      0x20\n      swap1\n      dup2\n      mstore\n      0x40\n      dup1\n      dup4\n      keccak256\n        /* \"contracts/coffe.sol\":37439:37485  _tOwned[sender] = _tOwned[sender].sub(tAmount) */\n      swap4\n      swap1\n      swap4\n      sstore\n        /* \"contracts/coffe.sol\":37514:37521  _rOwned */\n      0x02\n        /* \"contracts/coffe.sol\":37514:37529  _rOwned[sender] */\n      swap1\n      mstore\n      keccak256\n      sload\n        /* \"contracts/coffe.sol\":37514:37542  _rOwned[sender].sub(rAmount) */\n      tag_584\n      swap1\n        /* \"contracts/coffe.sol\":37534:37541  rAmount */\n      dup5\n        /* \"contracts/coffe.sol\":37514:37533  _rOwned[sender].sub */\n      tag_481\n        /* \"contracts/coffe.sol\":37514:37542  _rOwned[sender].sub(rAmount) */\n      jump\t// in\n        /* \"contracts/coffe.sol\":29332:29662  function _takeMarketing(uint256 tMarketing) private {... */\n    tag_576:\n        /* \"contracts/coffe.sol\":29395:29414  uint256 currentRate */\n      0x00\n        /* \"contracts/coffe.sol\":29417:29427  _getRate() */\n      tag_611\n        /* \"contracts/coffe.sol\":29417:29425  _getRate */\n      tag_240\n        /* \"contracts/coffe.sol\":29417:29427  _getRate() */\n      jump\t// in\n    tag_611:\n        /* \"contracts/coffe.sol\":29395:29427  uint256 currentRate = _getRate() */\n      swap1\n      pop\n        /* \"contracts/coffe.sol\":29438:29456  uint256 rMarketing */\n      0x00\n        /* \"contracts/coffe.sol\":29459:29486  tMarketing.mul(currentRate) */\n      tag_612\n        /* \"contracts/coffe.sol\":29459:29469  tMarketing */\n      dup4\n        /* \"contracts/coffe.sol\":29395:29427  uint256 currentRate = _getRate() */\n      dup4\n        /* \"contracts/coffe.sol\":29459:29473  tMarketing.mul */\n      tag_358\n        /* \"contracts/coffe.sol\":29459:29486  tMarketing.mul(currentRate) */\n      jump\t// in\n    tag_612:\n        /* \"contracts/coffe.sol\":29525:29533  _taxPool */\n      and(sub(shl(0xa0, 0x01), 0x01), sload(0x0e))\n        /* \"contracts/coffe.sol\":29517:29534  _rOwned[_taxPool] */\n      0x00\n      swap1\n      dup2\n      mstore\n        /* \"contracts/coffe.sol\":29517:29524  _rOwned */\n      0x02\n        /* \"contracts/coffe.sol\":29517:29534  _rOwned[_taxPool] */\n      0x20\n      mstore\n      0x40\n      swap1\n      keccak256\n      sload\n        /* \"contracts/coffe.sol\":29438:29486  uint256 rMarketing = tMarketing.mul(currentRate) */\n      swap1\n      swap2\n      pop\n        /* \"contracts/coffe.sol\":29517:29550  _rOwned[_taxPool].add(rMarketing) */\n      tag_613\n      swap1\n        /* \"contracts/coffe.sol\":29438:29486  uint256 rMarketing = tMarketing.mul(currentRate) */\n      dup3\n        /* \"contracts/coffe.sol\":29517:29538  _rOwned[_taxPool].add */\n      tag_279\n        /* \"contracts/coffe.sol\":29517:29550  _rOwned[_taxPool].add(rMarketing) */\n      jump\t// in\n    tag_613:\n        /* \"contracts/coffe.sol\":29505:29513  _taxPool */\n      0x0e\n      dup1\n      sload\n      sub(shl(0xa0, 0x01), 0x01)\n      swap1\n      dup2\n      and\n        /* \"contracts/coffe.sol\":29497:29514  _rOwned[_taxPool] */\n      0x00\n      swap1\n      dup2\n      mstore\n        /* \"contracts/coffe.sol\":29497:29504  _rOwned */\n      0x02\n        /* \"contracts/coffe.sol\":29497:29514  _rOwned[_taxPool] */\n      0x20\n      swap1\n      dup2\n      mstore\n      0x40\n      dup1\n      dup4\n      keccak256\n        /* \"contracts/coffe.sol\":29497:29550  _rOwned[_taxPool] = _rOwned[_taxPool].add(rMarketing) */\n      swap6\n      swap1\n      swap6\n      sstore\n        /* \"contracts/coffe.sol\":29577:29585  _taxPool */\n      swap3\n      sload\n      swap1\n      swap2\n      and\n        /* \"contracts/coffe.sol\":29565:29586  _isExcluded[_taxPool] */\n      dup2\n      mstore\n        /* \"contracts/coffe.sol\":29565:29576  _isExcluded */\n      0x06\n        /* \"contracts/coffe.sol\":29565:29586  _isExcluded[_taxPool] */\n      swap1\n      swap2\n      mstore\n      keccak256\n      sload\n      0xff\n      and\n        /* \"contracts/coffe.sol\":29561:29654  if (_isExcluded[_taxPool])... */\n      iszero\n      tag_614\n      jumpi\n        /* \"contracts/coffe.sol\":29629:29637  _taxPool */\n      and(sub(shl(0xa0, 0x01), 0x01), sload(0x0e))\n        /* \"contracts/coffe.sol\":29621:29638  _tOwned[_taxPool] */\n      0x00\n      swap1\n      dup2\n      mstore\n        /* \"contracts/coffe.sol\":29621:29628  _tOwned */\n      0x03\n        /* \"contracts/coffe.sol\":29621:29638  _tOwned[_taxPool] */\n      0x20\n      mstore\n      0x40\n      swap1\n      keccak256\n      sload\n        /* \"contracts/coffe.sol\":29621:29654  _tOwned[_taxPool].add(tMarketing) */\n      tag_615\n      swap1\n        /* \"contracts/coffe.sol\":29643:29653  tMarketing */\n      dup5\n        /* \"contracts/coffe.sol\":29621:29642  _tOwned[_taxPool].add */\n      tag_279\n        /* \"contracts/coffe.sol\":29621:29654  _tOwned[_taxPool].add(tMarketing) */\n      jump\t// in\n    tag_615:\n        /* \"contracts/coffe.sol\":29609:29617  _taxPool */\n      and(sub(shl(0xa0, 0x01), 0x01), sload(0x0e))\n        /* \"contracts/coffe.sol\":29601:29618  _tOwned[_taxPool] */\n      0x00\n      swap1\n      dup2\n      mstore\n        /* \"contracts/coffe.sol\":29601:29608  _tOwned */\n      0x03\n        /* \"contracts/coffe.sol\":29601:29618  _tOwned[_taxPool] */\n      0x20\n      mstore\n      0x40\n      swap1\n      keccak256\n        /* \"contracts/coffe.sol\":29601:29654  _tOwned[_taxPool] = _tOwned[_taxPool].add(tMarketing) */\n      sstore\n        /* \"contracts/coffe.sol\":29561:29654  if (_isExcluded[_taxPool])... */\n    tag_614:\n        /* \"contracts/coffe.sol\":29384:29662  {... */\n      pop\n      pop\n        /* \"contracts/coffe.sol\":29332:29662  function _takeMarketing(uint256 tMarketing) private {... */\n      pop\n      jump\t// out\n        /* \"contracts/coffe.sol\":27334:27481  function _reflectFee(uint256 rFee, uint256 tFee) private {... */\n    tag_578:\n        /* \"contracts/coffe.sol\":27412:27419  _rTotal */\n      sload(0x0c)\n        /* \"contracts/coffe.sol\":27412:27429  _rTotal.sub(rFee) */\n      tag_617\n      swap1\n        /* \"contracts/coffe.sol\":27424:27428  rFee */\n      dup4\n        /* \"contracts/coffe.sol\":27412:27423  _rTotal.sub */\n      tag_481\n        /* \"contracts/coffe.sol\":27412:27429  _rTotal.sub(rFee) */\n      jump\t// in\n    tag_617:\n        /* \"contracts/coffe.sol\":27402:27409  _rTotal */\n      0x0c\n        /* \"contracts/coffe.sol\":27402:27429  _rTotal = _rTotal.sub(rFee) */\n      sstore\n        /* \"contracts/coffe.sol\":27453:27463  _tFeeTotal */\n      sload(0x0d)\n        /* \"contracts/coffe.sol\":27453:27473  _tFeeTotal.add(tFee) */\n      tag_618\n      swap1\n        /* \"contracts/coffe.sol\":27468:27472  tFee */\n      dup3\n        /* \"contracts/coffe.sol\":27453:27467  _tFeeTotal.add */\n      tag_279\n        /* \"contracts/coffe.sol\":27453:27473  _tFeeTotal.add(tFee) */\n      jump\t// in\n    tag_618:\n        /* \"contracts/coffe.sol\":27440:27450  _tFeeTotal */\n      0x0d\n        /* \"contracts/coffe.sol\":27440:27473  _tFeeTotal = _tFeeTotal.add(tFee) */\n      sstore\n      pop\n      pop\n        /* \"contracts/coffe.sol\":27334:27481  function _reflectFee(uint256 rFee, uint256 tFee) private {... */\n      jump\t// out\n        /* \"#utility.yul\":14:611   */\n    tag_55:\n        /* \"#utility.yul\":126:130   */\n      0x00\n        /* \"#utility.yul\":155:157   */\n      0x20\n        /* \"#utility.yul\":184:186   */\n      dup1\n        /* \"#utility.yul\":173:182   */\n      dup4\n        /* \"#utility.yul\":166:187   */\n      mstore\n        /* \"#utility.yul\":216:222   */\n      dup4\n        /* \"#utility.yul\":210:223   */\n      mload\n        /* \"#utility.yul\":259:265   */\n      dup1\n        /* \"#utility.yul\":254:256   */\n      dup3\n        /* \"#utility.yul\":243:252   */\n      dup6\n        /* \"#utility.yul\":239:257   */\n      add\n        /* \"#utility.yul\":232:266   */\n      mstore\n        /* \"#utility.yul\":284:285   */\n      0x00\n        /* \"#utility.yul\":294:434   */\n    tag_624:\n        /* \"#utility.yul\":308:314   */\n      dup2\n        /* \"#utility.yul\":305:306   */\n      dup2\n        /* \"#utility.yul\":302:315   */\n      lt\n        /* \"#utility.yul\":294:434   */\n      iszero\n      tag_626\n      jumpi\n        /* \"#utility.yul\":403:417   */\n      dup6\n      dup2\n      add\n        /* \"#utility.yul\":399:422   */\n      dup4\n      add\n        /* \"#utility.yul\":393:423   */\n      mload\n        /* \"#utility.yul\":369:386   */\n      dup6\n      dup3\n      add\n        /* \"#utility.yul\":388:390   */\n      0x40\n        /* \"#utility.yul\":365:391   */\n      add\n        /* \"#utility.yul\":358:424   */\n      mstore\n        /* \"#utility.yul\":323:333   */\n      dup3\n      add\n        /* \"#utility.yul\":294:434   */\n      jump(tag_624)\n    tag_626:\n        /* \"#utility.yul\":452:458   */\n      dup2\n        /* \"#utility.yul\":449:450   */\n      dup2\n        /* \"#utility.yul\":446:459   */\n      gt\n        /* \"#utility.yul\":443:534   */\n      iszero\n      tag_627\n      jumpi\n        /* \"#utility.yul\":522:523   */\n      0x00\n        /* \"#utility.yul\":517:519   */\n      0x40\n        /* \"#utility.yul\":508:514   */\n      dup4\n        /* \"#utility.yul\":497:506   */\n      dup8\n        /* \"#utility.yul\":493:515   */\n      add\n        /* \"#utility.yul\":489:520   */\n      add\n        /* \"#utility.yul\":482:524   */\n      mstore\n        /* \"#utility.yul\":443:534   */\n    tag_627:\n      pop\n        /* \"#utility.yul\":595:597   */\n      0x1f\n        /* \"#utility.yul\":574:589   */\n      add\n      not(0x1f)\n        /* \"#utility.yul\":570:599   */\n      and\n        /* \"#utility.yul\":555:600   */\n      swap3\n      swap1\n      swap3\n      add\n        /* \"#utility.yul\":602:604   */\n      0x40\n        /* \"#utility.yul\":551:605   */\n      add\n      swap4\n        /* \"#utility.yul\":14:611   */\n      swap3\n      pop\n      pop\n      pop\n      jump\t// out\n        /* \"#utility.yul\":616:747   */\n    tag_619:\n      sub(shl(0xa0, 0x01), 0x01)\n        /* \"#utility.yul\":691:722   */\n      dup2\n      and\n        /* \"#utility.yul\":681:723   */\n      dup2\n      eq\n        /* \"#utility.yul\":671:741   */\n      tag_629\n      jumpi\n        /* \"#utility.yul\":737:738   */\n      0x00\n        /* \"#utility.yul\":734:735   */\n      dup1\n        /* \"#utility.yul\":727:739   */\n      revert\n        /* \"#utility.yul\":671:741   */\n    tag_629:\n        /* \"#utility.yul\":616:747   */\n      pop\n      jump\t// out\n        /* \"#utility.yul\":752:1067   */\n    tag_58:\n        /* \"#utility.yul\":820:826   */\n      0x00\n        /* \"#utility.yul\":828:834   */\n      dup1\n        /* \"#utility.yul\":881:883   */\n      0x40\n        /* \"#utility.yul\":869:878   */\n      dup4\n        /* \"#utility.yul\":860:867   */\n      dup6\n        /* \"#utility.yul\":856:879   */\n      sub\n        /* \"#utility.yul\":852:884   */\n      slt\n        /* \"#utility.yul\":849:901   */\n      iszero\n      tag_631\n      jumpi\n        /* \"#utility.yul\":897:898   */\n      0x00\n        /* \"#utility.yul\":894:895   */\n      dup1\n        /* \"#utility.yul\":887:899   */\n      revert\n        /* \"#utility.yul\":849:901   */\n    tag_631:\n        /* \"#utility.yul\":936:945   */\n      dup3\n        /* \"#utility.yul\":923:946   */\n      calldataload\n        /* \"#utility.yul\":955:986   */\n      tag_632\n        /* \"#utility.yul\":980:985   */\n      dup2\n        /* \"#utility.yul\":955:986   */\n      tag_619\n      jump\t// in\n    tag_632:\n        /* \"#utility.yul\":1005:1010   */\n      swap5\n        /* \"#utility.yul\":1057:1059   */\n      0x20\n        /* \"#utility.yul\":1042:1060   */\n      swap4\n      swap1\n      swap4\n      add\n        /* \"#utility.yul\":1029:1061   */\n      calldataload\n      swap4\n      pop\n      pop\n      pop\n        /* \"#utility.yul\":752:1067   */\n      jump\t// out\n        /* \"#utility.yul\":1264:1511   */\n    tag_64:\n        /* \"#utility.yul\":1323:1329   */\n      0x00\n        /* \"#utility.yul\":1376:1378   */\n      0x20\n        /* \"#utility.yul\":1364:1373   */\n      dup3\n        /* \"#utility.yul\":1355:1362   */\n      dup5\n        /* \"#utility.yul\":1351:1374   */\n      sub\n        /* \"#utility.yul\":1347:1379   */\n      slt\n        /* \"#utility.yul\":1344:1396   */\n      iszero\n      tag_635\n      jumpi\n        /* \"#utility.yul\":1392:1393   */\n      0x00\n        /* \"#utility.yul\":1389:1390   */\n      dup1\n        /* \"#utility.yul\":1382:1394   */\n      revert\n        /* \"#utility.yul\":1344:1396   */\n    tag_635:\n        /* \"#utility.yul\":1431:1440   */\n      dup2\n        /* \"#utility.yul\":1418:1441   */\n      calldataload\n        /* \"#utility.yul\":1450:1481   */\n      tag_241\n        /* \"#utility.yul\":1475:1480   */\n      dup2\n        /* \"#utility.yul\":1450:1481   */\n      tag_619\n      jump\t// in\n        /* \"#utility.yul\":1933:2389   */\n    tag_82:\n        /* \"#utility.yul\":2010:2016   */\n      0x00\n        /* \"#utility.yul\":2018:2024   */\n      dup1\n        /* \"#utility.yul\":2026:2032   */\n      0x00\n        /* \"#utility.yul\":2079:2081   */\n      0x60\n        /* \"#utility.yul\":2067:2076   */\n      dup5\n        /* \"#utility.yul\":2058:2065   */\n      dup7\n        /* \"#utility.yul\":2054:2077   */\n      sub\n        /* \"#utility.yul\":2050:2082   */\n      slt\n        /* \"#utility.yul\":2047:2099   */\n      iszero\n      tag_640\n      jumpi\n        /* \"#utility.yul\":2095:2096   */\n      0x00\n        /* \"#utility.yul\":2092:2093   */\n      dup1\n        /* \"#utility.yul\":2085:2097   */\n      revert\n        /* \"#utility.yul\":2047:2099   */\n    tag_640:\n        /* \"#utility.yul\":2134:2143   */\n      dup4\n        /* \"#utility.yul\":2121:2144   */\n      calldataload\n        /* \"#utility.yul\":2153:2184   */\n      tag_641\n        /* \"#utility.yul\":2178:2183   */\n      dup2\n        /* \"#utility.yul\":2153:2184   */\n      tag_619\n      jump\t// in\n    tag_641:\n        /* \"#utility.yul\":2203:2208   */\n      swap3\n      pop\n        /* \"#utility.yul\":2260:2262   */\n      0x20\n        /* \"#utility.yul\":2245:2263   */\n      dup5\n      add\n        /* \"#utility.yul\":2232:2264   */\n      calldataload\n        /* \"#utility.yul\":2273:2306   */\n      tag_642\n        /* \"#utility.yul\":2232:2264   */\n      dup2\n        /* \"#utility.yul\":2273:2306   */\n      tag_619\n      jump\t// in\n    tag_642:\n        /* \"#utility.yul\":1933:2389   */\n      swap3\n      swap6\n        /* \"#utility.yul\":2325:2332   */\n      swap3\n      swap5\n      pop\n      pop\n      pop\n        /* \"#utility.yul\":2379:2381   */\n      0x40\n        /* \"#utility.yul\":2364:2382   */\n      swap2\n      swap1\n      swap2\n      add\n        /* \"#utility.yul\":2351:2383   */\n      calldataload\n      swap1\n        /* \"#utility.yul\":1933:2389   */\n      jump\t// out\n        /* \"#utility.yul\":2686:2866   */\n    tag_91:\n        /* \"#utility.yul\":2745:2751   */\n      0x00\n        /* \"#utility.yul\":2798:2800   */\n      0x20\n        /* \"#utility.yul\":2786:2795   */\n      dup3\n        /* \"#utility.yul\":2777:2784   */\n      dup5\n        /* \"#utility.yul\":2773:2796   */\n      sub\n        /* \"#utility.yul\":2769:2801   */\n      slt\n        /* \"#utility.yul\":2766:2818   */\n      iszero\n      tag_645\n      jumpi\n        /* \"#utility.yul\":2814:2815   */\n      0x00\n        /* \"#utility.yul\":2811:2812   */\n      dup1\n        /* \"#utility.yul\":2804:2816   */\n      revert\n        /* \"#utility.yul\":2766:2818   */\n    tag_645:\n      pop\n        /* \"#utility.yul\":2837:2860   */\n      calldataload\n      swap2\n        /* \"#utility.yul\":2686:2866   */\n      swap1\n      pop\n      jump\t// out\n        /* \"#utility.yul\":3060:3178   */\n    tag_620:\n        /* \"#utility.yul\":3146:3151   */\n      dup1\n        /* \"#utility.yul\":3139:3152   */\n      iszero\n        /* \"#utility.yul\":3132:3153   */\n      iszero\n        /* \"#utility.yul\":3125:3130   */\n      dup2\n        /* \"#utility.yul\":3122:3154   */\n      eq\n        /* \"#utility.yul\":3112:3172   */\n      tag_629\n      jumpi\n        /* \"#utility.yul\":3168:3169   */\n      0x00\n        /* \"#utility.yul\":3165:3166   */\n      dup1\n        /* \"#utility.yul\":3158:3170   */\n      revert\n        /* \"#utility.yul\":3183:3492   */\n    tag_110:\n        /* \"#utility.yul\":3248:3254   */\n      0x00\n        /* \"#utility.yul\":3256:3262   */\n      dup1\n        /* \"#utility.yul\":3309:3311   */\n      0x40\n        /* \"#utility.yul\":3297:3306   */\n      dup4\n        /* \"#utility.yul\":3288:3295   */\n      dup6\n        /* \"#utility.yul\":3284:3307   */\n      sub\n        /* \"#utility.yul\":3280:3312   */\n      slt\n        /* \"#utility.yul\":3277:3329   */\n      iszero\n      tag_650\n      jumpi\n        /* \"#utility.yul\":3325:3326   */\n      0x00\n        /* \"#utility.yul\":3322:3323   */\n      dup1\n        /* \"#utility.yul\":3315:3327   */\n      revert\n        /* \"#utility.yul\":3277:3329   */\n    tag_650:\n        /* \"#utility.yul\":3361:3370   */\n      dup3\n        /* \"#utility.yul\":3348:3371   */\n      calldataload\n        /* \"#utility.yul\":3338:3371   */\n      swap2\n      pop\n        /* \"#utility.yul\":3421:3423   */\n      0x20\n        /* \"#utility.yul\":3410:3419   */\n      dup4\n        /* \"#utility.yul\":3406:3424   */\n      add\n        /* \"#utility.yul\":3393:3425   */\n      calldataload\n        /* \"#utility.yul\":3434:3462   */\n      tag_651\n        /* \"#utility.yul\":3456:3461   */\n      dup2\n        /* \"#utility.yul\":3434:3462   */\n      tag_620\n      jump\t// in\n    tag_651:\n        /* \"#utility.yul\":3481:3486   */\n      dup1\n        /* \"#utility.yul\":3471:3486   */\n      swap2\n      pop\n      pop\n        /* \"#utility.yul\":3183:3492   */\n      swap3\n      pop\n      swap3\n      swap1\n      pop\n      jump\t// out\n        /* \"#utility.yul\":4189:4577   */\n    tag_186:\n        /* \"#utility.yul\":4257:4263   */\n      0x00\n        /* \"#utility.yul\":4265:4271   */\n      dup1\n        /* \"#utility.yul\":4318:4320   */\n      0x40\n        /* \"#utility.yul\":4306:4315   */\n      dup4\n        /* \"#utility.yul\":4297:4304   */\n      dup6\n        /* \"#utility.yul\":4293:4316   */\n      sub\n        /* \"#utility.yul\":4289:4321   */\n      slt\n        /* \"#utility.yul\":4286:4338   */\n      iszero\n      tag_658\n      jumpi\n        /* \"#utility.yul\":4334:4335   */\n      0x00\n        /* \"#utility.yul\":4331:4332   */\n      dup1\n        /* \"#utility.yul\":4324:4336   */\n      revert\n        /* \"#utility.yul\":4286:4338   */\n    tag_658:\n        /* \"#utility.yul\":4373:4382   */\n      dup3\n        /* \"#utility.yul\":4360:4383   */\n      calldataload\n        /* \"#utility.yul\":4392:4423   */\n      tag_659\n        /* \"#utility.yul\":4417:4422   */\n      dup2\n        /* \"#utility.yul\":4392:4423   */\n      tag_619\n      jump\t// in\n    tag_659:\n        /* \"#utility.yul\":4442:4447   */\n      swap2\n      pop\n        /* \"#utility.yul\":4499:4501   */\n      0x20\n        /* \"#utility.yul\":4484:4502   */\n      dup4\n      add\n        /* \"#utility.yul\":4471:4503   */\n      calldataload\n        /* \"#utility.yul\":4512:4545   */\n      tag_651\n        /* \"#utility.yul\":4471:4503   */\n      dup2\n        /* \"#utility.yul\":4512:4545   */\n      tag_619\n      jump\t// in\n        /* \"#utility.yul\":4582:4962   */\n    tag_197:\n        /* \"#utility.yul\":4661:4662   */\n      0x01\n        /* \"#utility.yul\":4657:4669   */\n      dup2\n      dup2\n      shr\n      swap1\n        /* \"#utility.yul\":4704:4716   */\n      dup3\n      and\n      dup1\n        /* \"#utility.yul\":4725:4786   */\n      tag_662\n      jumpi\n        /* \"#utility.yul\":4779:4783   */\n      0x7f\n        /* \"#utility.yul\":4771:4777   */\n      dup3\n        /* \"#utility.yul\":4767:4784   */\n      and\n        /* \"#utility.yul\":4757:4784   */\n      swap2\n      pop\n        /* \"#utility.yul\":4725:4786   */\n    tag_662:\n        /* \"#utility.yul\":4832:4834   */\n      0x20\n        /* \"#utility.yul\":4824:4830   */\n      dup3\n        /* \"#utility.yul\":4821:4835   */\n      lt\n        /* \"#utility.yul\":4801:4819   */\n      dup2\n        /* \"#utility.yul\":4798:4836   */\n      eq\n        /* \"#utility.yul\":4795:4956   */\n      iszero\n      tag_663\n      jumpi\n        /* \"#utility.yul\":4878:4888   */\n      0x4e487b71\n        /* \"#utility.yul\":4873:4876   */\n      0xe0\n        /* \"#utility.yul\":4869:4889   */\n      shl\n        /* \"#utility.yul\":4866:4867   */\n      0x00\n        /* \"#utility.yul\":4859:4890   */\n      mstore\n        /* \"#utility.yul\":4913:4917   */\n      0x22\n        /* \"#utility.yul\":4910:4911   */\n      0x04\n        /* \"#utility.yul\":4903:4918   */\n      mstore\n        /* \"#utility.yul\":4941:4945   */\n      0x24\n        /* \"#utility.yul\":4938:4939   */\n      0x00\n        /* \"#utility.yul\":4931:4946   */\n      revert\n        /* \"#utility.yul\":4795:4956   */\n    tag_663:\n      pop\n        /* \"#utility.yul\":4582:4962   */\n      swap2\n      swap1\n      pop\n      jump\t// out\n        /* \"#utility.yul\":4967:5323   */\n    tag_211:\n        /* \"#utility.yul\":5169:5171   */\n      0x20\n        /* \"#utility.yul\":5151:5172   */\n      dup1\n      dup3\n      mstore\n        /* \"#utility.yul\":5188:5206   */\n      dup2\n      dup2\n      add\n        /* \"#utility.yul\":5181:5211   */\n      mstore\n        /* \"#utility.yul\":5247:5281   */\n      0x4f776e61626c653a2063616c6c6572206973206e6f7420746865206f776e6572\n        /* \"#utility.yul\":5242:5244   */\n      0x40\n        /* \"#utility.yul\":5227:5245   */\n      dup3\n      add\n        /* \"#utility.yul\":5220:5282   */\n      mstore\n        /* \"#utility.yul\":5314:5316   */\n      0x60\n        /* \"#utility.yul\":5299:5317   */\n      add\n      swap1\n        /* \"#utility.yul\":4967:5323   */\n      jump\t// out\n        /* \"#utility.yul\":6853:6980   */\n    tag_257:\n        /* \"#utility.yul\":6914:6924   */\n      0x4e487b71\n        /* \"#utility.yul\":6909:6912   */\n      0xe0\n        /* \"#utility.yul\":6905:6925   */\n      shl\n        /* \"#utility.yul\":6902:6903   */\n      0x00\n        /* \"#utility.yul\":6895:6926   */\n      mstore\n        /* \"#utility.yul\":6945:6949   */\n      0x32\n        /* \"#utility.yul\":6942:6943   */\n      0x04\n        /* \"#utility.yul\":6935:6950   */\n      mstore\n        /* \"#utility.yul\":6969:6973   */\n      0x24\n        /* \"#utility.yul\":6966:6967   */\n      0x00\n        /* \"#utility.yul\":6959:6974   */\n      revert\n        /* \"#utility.yul\":6985:7112   */\n    tag_621:\n        /* \"#utility.yul\":7046:7056   */\n      0x4e487b71\n        /* \"#utility.yul\":7041:7044   */\n      0xe0\n        /* \"#utility.yul\":7037:7057   */\n      shl\n        /* \"#utility.yul\":7034:7035   */\n      0x00\n        /* \"#utility.yul\":7027:7058   */\n      mstore\n        /* \"#utility.yul\":7077:7081   */\n      0x11\n        /* \"#utility.yul\":7074:7075   */\n      0x04\n        /* \"#utility.yul\":7067:7082   */\n      mstore\n        /* \"#utility.yul\":7101:7105   */\n      0x24\n        /* \"#utility.yul\":7098:7099   */\n      0x00\n        /* \"#utility.yul\":7091:7106   */\n      revert\n        /* \"#utility.yul\":7117:7242   */\n    tag_261:\n        /* \"#utility.yul\":7157:7161   */\n      0x00\n        /* \"#utility.yul\":7185:7186   */\n      dup3\n        /* \"#utility.yul\":7182:7183   */\n      dup3\n        /* \"#utility.yul\":7179:7187   */\n      lt\n        /* \"#utility.yul\":7176:7210   */\n      iszero\n      tag_673\n      jumpi\n        /* \"#utility.yul\":7190:7208   */\n      tag_673\n      tag_621\n      jump\t// in\n    tag_673:\n      pop\n        /* \"#utility.yul\":7227:7236   */\n      sub\n      swap1\n        /* \"#utility.yul\":7117:7242   */\n      jump\t// out\n        /* \"#utility.yul\":7247:7374   */\n    tag_270:\n        /* \"#utility.yul\":7308:7318   */\n      0x4e487b71\n        /* \"#utility.yul\":7303:7306   */\n      0xe0\n        /* \"#utility.yul\":7299:7319   */\n      shl\n        /* \"#utility.yul\":7296:7297   */\n      0x00\n        /* \"#utility.yul\":7289:7320   */\n      mstore\n        /* \"#utility.yul\":7339:7343   */\n      0x31\n        /* \"#utility.yul\":7336:7337   */\n      0x04\n        /* \"#utility.yul\":7329:7344   */\n      mstore\n        /* \"#utility.yul\":7363:7367   */\n      0x24\n        /* \"#utility.yul\":7360:7361   */\n      0x00\n        /* \"#utility.yul\":7353:7368   */\n      revert\n        /* \"#utility.yul\":7379:7514   */\n    tag_273:\n        /* \"#utility.yul\":7418:7421   */\n      0x00\n      not(0x00)\n        /* \"#utility.yul\":7439:7456   */\n      dup3\n      eq\n        /* \"#utility.yul\":7436:7479   */\n      iszero\n      tag_677\n      jumpi\n        /* \"#utility.yul\":7459:7477   */\n      tag_677\n      tag_621\n      jump\t// in\n    tag_677:\n      pop\n        /* \"#utility.yul\":7506:7507   */\n      0x01\n        /* \"#utility.yul\":7495:7508   */\n      add\n      swap1\n        /* \"#utility.yul\":7379:7514   */\n      jump\t// out\n        /* \"#utility.yul\":8514:8759   */\n    tag_339:\n        /* \"#utility.yul\":8581:8587   */\n      0x00\n        /* \"#utility.yul\":8634:8636   */\n      0x20\n        /* \"#utility.yul\":8622:8631   */\n      dup3\n        /* \"#utility.yul\":8613:8620   */\n      dup5\n        /* \"#utility.yul\":8609:8632   */\n      sub\n        /* \"#utility.yul\":8605:8637   */\n      slt\n        /* \"#utility.yul\":8602:8654   */\n      iszero\n      tag_682\n      jumpi\n        /* \"#utility.yul\":8650:8651   */\n      0x00\n        /* \"#utility.yul\":8647:8648   */\n      dup1\n        /* \"#utility.yul\":8640:8652   */\n      revert\n        /* \"#utility.yul\":8602:8654   */\n    tag_682:\n        /* \"#utility.yul\":8682:8691   */\n      dup2\n        /* \"#utility.yul\":8676:8692   */\n      mload\n        /* \"#utility.yul\":8701:8729   */\n      tag_241\n        /* \"#utility.yul\":8723:8728   */\n      dup2\n        /* \"#utility.yul\":8701:8729   */\n      tag_620\n      jump\t// in\n        /* \"#utility.yul\":13366:13494   */\n    tag_453:\n        /* \"#utility.yul\":13406:13409   */\n      0x00\n        /* \"#utility.yul\":13437:13438   */\n      dup3\n        /* \"#utility.yul\":13433:13439   */\n      not\n        /* \"#utility.yul\":13430:13431   */\n      dup3\n        /* \"#utility.yul\":13427:13440   */\n      gt\n        /* \"#utility.yul\":13424:13463   */\n      iszero\n      tag_698\n      jumpi\n        /* \"#utility.yul\":13443:13461   */\n      tag_698\n      tag_621\n      jump\t// in\n    tag_698:\n      pop\n        /* \"#utility.yul\":13479:13488   */\n      add\n      swap1\n        /* \"#utility.yul\":13366:13494   */\n      jump\t// out\n        /* \"#utility.yul\":14258:14426   */\n    tag_492:\n        /* \"#utility.yul\":14298:14305   */\n      0x00\n        /* \"#utility.yul\":14364:14365   */\n      dup2\n        /* \"#utility.yul\":14360:14361   */\n      0x00\n        /* \"#utility.yul\":14356:14362   */\n      not\n        /* \"#utility.yul\":14352:14366   */\n      div\n        /* \"#utility.yul\":14349:14350   */\n      dup4\n        /* \"#utility.yul\":14346:14367   */\n      gt\n        /* \"#utility.yul\":14341:14342   */\n      dup3\n        /* \"#utility.yul\":14334:14343   */\n      iszero\n        /* \"#utility.yul\":14327:14344   */\n      iszero\n        /* \"#utility.yul\":14323:14368   */\n      and\n        /* \"#utility.yul\":14320:14391   */\n      iszero\n      tag_703\n      jumpi\n        /* \"#utility.yul\":14371:14389   */\n      tag_703\n      tag_621\n      jump\t// in\n    tag_703:\n      pop\n        /* \"#utility.yul\":14411:14420   */\n      mul\n      swap1\n        /* \"#utility.yul\":14258:14426   */\n      jump\t// out\n        /* \"#utility.yul\":14431:14648   */\n    tag_494:\n        /* \"#utility.yul\":14471:14472   */\n      0x00\n        /* \"#utility.yul\":14497:14498   */\n      dup3\n        /* \"#utility.yul\":14487:14619   */\n      tag_705\n      jumpi\n        /* \"#utility.yul\":14541:14551   */\n      0x4e487b71\n        /* \"#utility.yul\":14536:14539   */\n      0xe0\n        /* \"#utility.yul\":14532:14552   */\n      shl\n        /* \"#utility.yul\":14529:14530   */\n      0x00\n        /* \"#utility.yul\":14522:14553   */\n      mstore\n        /* \"#utility.yul\":14576:14580   */\n      0x12\n        /* \"#utility.yul\":14573:14574   */\n      0x04\n        /* \"#utility.yul\":14566:14581   */\n      mstore\n        /* \"#utility.yul\":14604:14608   */\n      0x24\n        /* \"#utility.yul\":14601:14602   */\n      0x00\n        /* \"#utility.yul\":14594:14609   */\n      revert\n        /* \"#utility.yul\":14487:14619   */\n    tag_705:\n      pop\n        /* \"#utility.yul\":14633:14642   */\n      div\n      swap1\n        /* \"#utility.yul\":14431:14648   */\n      jump\t// out\n    stop\n    data_974d1b4421da69cc60b481194f0dad36a5bb4e23da810da7a7fb30cdba178330 45524332303a207472616e7366657220616d6f756e74206578636565647320616c6c6f77616e6365\n    data_f8b476f7d28209d77d4a4ac1fe36b9f8259aa1bb6bddfa6e89de7e51615cf8a8 45524332303a2064656372656173656420616c6c6f77616e63652062656c6f77207a65726f\n\n    auxdata: 0xa26469706673582212207016eeff90730f75e585454a20032d6aa45c24b7dfbf3a9513d3aecdb2d6274864736f6c634300080a0033\n}\n",
				"bytecode": {
					"linkReferences": {},
					"object": "60c0604052662386f26fc10000600b8190556200001f90600019620004bd565b6200002d90600019620004e0565b600c908155600e80546001600160a01b03191673c97137bdc16bb7a7548710ee0256410251cb4956179055604080518082019091528181526b436f6666652043727970746f60a01b60209091019081526200008c91600f919062000417565b50604080518082019091526004808252634346454560e01b6020909201918252620000ba9160109162000417565b506011805460ff19166008179055681b1ae4d6e2ef500000601555686c6b935b8bbd400000601655348015620000ef57600080fd5b50600080546001600160a01b031916339081178255604051909182917f8be0079c531659141344cd1fd0a4f28419497f9722a3daafe3b4186f6b6457e0908290a350600c5433600090815260026020908152604091829020929092556012805463ffffffff1990811662020002179091556013805490911662050005179055805163c45a015560e01b8152905173d99d1c33f9fc3444f8101754abc46c52416550d192839263c45a015592600480830193928290030181865afa158015620001bb573d6000803e3d6000fd5b505050506040513d601f19601f82011682018060405250810190620001e1919062000506565b6001600160a01b031663c9c6539630836001600160a01b031663ad5c46486040518163ffffffff1660e01b8152600401602060405180830381865afa1580156200022f573d6000803e3d6000fd5b505050506040513d601f19601f8201168201806040525081019062000255919062000506565b6040516001600160e01b031960e085901b1681526001600160a01b039283166004820152911660248201526044016020604051808303816000875af1158015620002a3573d6000803e3d6000fd5b505050506040513d601f19601f82011682018060405250810190620002c9919062000506565b6001600160a01b0390811660a0528116608052600160056000620002f56000546001600160a01b031690565b6001600160a01b03908116825260208083019390935260409182016000908120805495151560ff1996871617905530815260058452828120805486166001908117909155600e805484168352848320805488168317905554909216815260099384905291822080549094168117909355620003786000546001600160a01b031690565b6001600160a01b0316815260208082019290925260409081016000908120805494151560ff199586161790553081526009909252902080549091166001179055620003c03390565b6001600160a01b031660006001600160a01b03167fddf252ad1be2c89b69c2b068fc378daa952ba7f163c4a11628f55a4df523b3ef600b546040516200040891815260200190565b60405180910390a35062000575565b828054620004259062000538565b90600052602060002090601f01602090048101928262000449576000855562000494565b82601f106200046457805160ff191683800117855562000494565b8280016001018555821562000494579182015b828111156200049457825182559160200191906001019062000477565b50620004a2929150620004a6565b5090565b5b80821115620004a25760008155600101620004a7565b600082620004db57634e487b7160e01b600052601260045260246000fd5b500690565b6000828210156200050157634e487b7160e01b600052601160045260246000fd5b500390565b6000602082840312156200051957600080fd5b81516001600160a01b03811681146200053157600080fd5b9392505050565b600181811c908216806200054d57607f821691505b602082108114156200056f57634e487b7160e01b600052602260045260246000fd5b50919050565b60805160a051612668620005b0600039600081816103db0152818161182001528181611b030152611b6e015260006102af01526126686000f3fe608060405234801561001057600080fd5b506004361061023d5760003560e01c80635342acb41161013b578063a457c2d7116100b8578063d543dbeb1161007c578063d543dbeb14610546578063d94160e014610559578063dd62ed3e14610585578063ea2f0b37146105be578063f2fde38b146105d157600080fd5b8063a457c2d7146104e7578063a9059cbb146104fa578063af2ce6141461050d578063b030b34a14610520578063ba1c42461461053357600080fd5b80638da5cb5b116100ff5780638da5cb5b1461049f5780638f9a55c0146104b057806391d919a9146104b957806395d89b41146104cc5780639e281a98146104d457600080fd5b80635342acb41461042357806370a082311461044f578063715018a6146104625780637d1db4a51461046a57806388f820201461047357600080fd5b80632d838119116101c95780634549b0391161018d5780634549b039146103ab57806347062402146103be57806349bd5a5e146103d65780634eeb94ce146103fd57806352390c021461041057600080fd5b80632d8381191461034a578063313ce5671461035d5780633685d419146103725780633950935114610385578063437823ec1461039857600080fd5b80631694505e116102105780631694505e146102aa57806318160ddd146102e95780631d7ef879146102f157806323b872dd146103045780632b14ca561461031757600080fd5b806306fdde0314610242578063095ea7b3146102605780630bd3a7f91461028357806313114a9d14610298575b600080fd5b61024a6105e4565b604051610257919061230f565b60405180910390f35b61027361026e36600461237c565b610676565b6040519015158152602001610257565b6102966102913660046123a8565b61068d565b005b600d545b604051908152602001610257565b6102d17f000000000000000000000000000000000000000000000000000000000000000081565b6040516001600160a01b039091168152602001610257565b600b5461029c565b6102966102ff3660046123a8565b6106e4565b6102736103123660046123c5565b610855565b60135461032f9061ffff808216916201000090041682565b6040805161ffff938416815292909116602083015201610257565b61029c610358366004612406565b6108be565b60115460405160ff9091168152602001610257565b6102966103803660046123a8565b610942565b61027361039336600461237c565b610af9565b6102966103a63660046123a8565b610b2f565b61029c6103b936600461242d565b610b7d565b60125461032f9061ffff808216916201000090041682565b6102d17f000000000000000000000000000000000000000000000000000000000000000081565b600e546102d1906001600160a01b031681565b61029661041e3660046123a8565b610c18565b6102736104313660046123a8565b6001600160a01b031660009081526005602052604090205460ff1690565b61029c61045d3660046123a8565b610d6b565b610296610dca565b61029c60155481565b6102736104813660046123a8565b6001600160a01b031660009081526006602052604090205460ff1690565b6000546001600160a01b03166102d1565b61029c60165481565b6102966104c73660046123a8565b610e3e565b61024a610e89565b6102966104e236600461237c565b610e98565b6102736104f536600461237c565b610f3b565b61027361050836600461237c565b610f8a565b61029661051b366004612406565b610f97565b61029661052e3660046123a8565b61103a565b6102966105413660046123a8565b6111be565b610296610554366004612406565b61120a565b6102736105673660046123a8565b6001600160a01b031660009081526009602052604090205460ff1690565b61029c61059336600461245d565b6001600160a01b03918216600090815260046020908152604080832093909416825291909152205490565b6102966105cc3660046123a8565b6112a7565b6102966105df3660046123a8565b6112f2565b6060600f80546105f39061248b565b80601f016020809104026020016040519081016040528092919081815260200182805461061f9061248b565b801561066c5780601f106106415761010080835404028352916020019161066c565b820191906000526020600020905b81548152906001019060200180831161064f57829003601f168201915b5050505050905090565b60006106833384846113dc565b5060015b92915050565b6000546001600160a01b031633146106c05760405162461bcd60e51b81526004016106b7906124c6565b60405180910390fd5b6001600160a01b03166000908152600960205260409020805460ff19166001179055565b6000546001600160a01b0316331461070e5760405162461bcd60e51b81526004016106b7906124c6565b73d99d1c33f9fc3444f8101754abc46c52416550d16001600160a01b03821614156107865760405162461bcd60e51b815260206004820152602260248201527f57652063616e6e6f7420626c61636b6c69737420556e695377617020726f757460448201526132b960f11b60648201526084016106b7565b6001600160a01b03811660009081526008602052604090205460ff16156107ef5760405162461bcd60e51b815260206004820152601e60248201527f4163636f756e7420697320616c726561647920626c61636b6c6973746564000060448201526064016106b7565b6001600160a01b03166000818152600860205260408120805460ff19166001908117909155600a805491820181559091527fc65a7bb8d6351c1cf70c95a316cc6a92839c986682d98bc35f958f4883f9d2a80180546001600160a01b0319169091179055565b6000610862848484611500565b6108b484336108af856040518060600160405280602881526020016125e6602891396001600160a01b038a16600090815260046020908152604080832033845290915290205491906118d2565b6113dc565b5060019392505050565b6000600c548211156109255760405162461bcd60e51b815260206004820152602a60248201527f416d6f756e74206d757374206265206c657373207468616e20746f74616c207260448201526965666c656374696f6e7360b01b60648201526084016106b7565b600061092f61190c565b905061093b838261192f565b9392505050565b6000546001600160a01b0316331461096c5760405162461bcd60e51b81526004016106b7906124c6565b6001600160a01b03811660009081526006602052604090205460ff166109d45760405162461bcd60e51b815260206004820152601760248201527f4163636f756e74206973206e6f74206578636c7564656400000000000000000060448201526064016106b7565b60005b600754811015610af557816001600160a01b0316600782815481106109fe576109fe6124fb565b6000918252602090912001546001600160a01b03161415610ae35760078054610a2990600190612527565b81548110610a3957610a396124fb565b600091825260209091200154600780546001600160a01b039092169183908110610a6557610a656124fb565b600091825260208083209190910180546001600160a01b0319166001600160a01b039485161790559184168152600382526040808220829055600690925220805460ff191690556007805480610abd57610abd61253e565b600082815260209020810160001990810180546001600160a01b03191690550190555050565b80610aed81612554565b9150506109d7565b5050565b3360008181526004602090815260408083206001600160a01b038716845290915281205490916106839185906108af9086611971565b6000546001600160a01b03163314610b595760405162461bcd60e51b81526004016106b7906124c6565b6001600160a01b03166000908152600560205260409020805460ff19166001179055565b6000600b54831115610bd15760405162461bcd60e51b815260206004820152601f60248201527f416d6f756e74206d757374206265206c657373207468616e20737570706c790060448201526064016106b7565b600080610bdd856119d0565b9250925050600080610bf8878585610bf361190c565b611a14565b509150915085610c0d57509250610687915050565b935061068792505050565b6000546001600160a01b03163314610c425760405162461bcd60e51b81526004016106b7906124c6565b6001600160a01b03811660009081526006602052604090205460ff1615610cab5760405162461bcd60e51b815260206004820152601b60248201527f4163636f756e7420697320616c7265616479206578636c75646564000000000060448201526064016106b7565b6001600160a01b03811660009081526002602052604090205415610d05576001600160a01b038116600090815260026020526040902054610ceb906108be565b6001600160a01b0382166000908152600360205260409020555b6001600160a01b03166000818152600660205260408120805460ff191660019081179091556007805491820181559091527fa66cc928b5edb82af9bd49922954155ab7b0942694bea4ce44661d9a8736c6880180546001600160a01b0319169091179055565b6001600160a01b03811660009081526006602052604081205460ff1615610da857506001600160a01b031660009081526003602052604090205490565b6001600160a01b038216600090815260026020526040902054610687906108be565b6000546001600160a01b03163314610df45760405162461bcd60e51b81526004016106b7906124c6565b600080546040516001600160a01b03909116907f8be0079c531659141344cd1fd0a4f28419497f9722a3daafe3b4186f6b6457e0908390a3600080546001600160a01b0319169055565b6000546001600160a01b03163314610e685760405162461bcd60e51b81526004016106b7906124c6565b6001600160a01b03166000908152600960205260409020805460ff19169055565b6060601080546105f39061248b565b6000546001600160a01b03163314610ec25760405162461bcd60e51b81526004016106b7906124c6565b60405163a9059cbb60e01b81523360048201526024810182905282906001600160a01b0382169063a9059cbb906044016020604051808303816000875af1158015610f11573d6000803e3d6000fd5b505050506040513d601f19601f82011682018060405250810190610f35919061256f565b50505050565b600061068333846108af8560405180606001604052806025815260200161260e602591393360009081526004602090815260408083206001600160a01b038d16845290915290205491906118d2565b6000610683338484611500565b6000546001600160a01b03163314610fc15760405162461bcd60e51b81526004016106b7906124c6565b6103e88111156110135760405162461bcd60e51b815260206004820152601d60248201527f6d617857616c6c657453697a652065786365656473206469766964657200000060448201526064016106b7565b6110346103e861102e83600b54611a6a90919063ffffffff16565b9061192f565b60165550565b6000546001600160a01b031633146110645760405162461bcd60e51b81526004016106b7906124c6565b6001600160a01b03811660009081526008602052604090205460ff166110cc5760405162461bcd60e51b815260206004820152601a60248201527f4163636f756e74206973206e6f7420626c61636b6c697374656400000000000060448201526064016106b7565b60005b600a54811015610af557816001600160a01b0316600a82815481106110f6576110f66124fb565b6000918252602090912001546001600160a01b031614156111ac57600a805461112190600190612527565b81548110611131576111316124fb565b600091825260209091200154600a80546001600160a01b03909216918390811061115d5761115d6124fb565b600091825260208083209190910180546001600160a01b0319166001600160a01b039485161790559184168152600890915260409020805460ff19169055600a805480610abd57610abd61253e565b806111b681612554565b9150506110cf565b6000546001600160a01b031633146111e85760405162461bcd60e51b81526004016106b7906124c6565b600e80546001600160a01b0319166001600160a01b0392909216919091179055565b6000546001600160a01b031633146112345760405162461bcd60e51b81526004016106b7906124c6565b6103e88111156112865760405162461bcd60e51b815260206004820152601c60248201527f6d6178547850657263656e74206578636565647320646976696465720000000060448201526064016106b7565b6112a16103e861102e83600b54611a6a90919063ffffffff16565b60155550565b6000546001600160a01b031633146112d15760405162461bcd60e51b81526004016106b7906124c6565b6001600160a01b03166000908152600560205260409020805460ff19169055565b6000546001600160a01b0316331461131c5760405162461bcd60e51b81526004016106b7906124c6565b6001600160a01b0381166113815760405162461bcd60e51b815260206004820152602660248201527f4f776e61626c653a206e6577206f776e657220697320746865207a65726f206160448201526564647265737360d01b60648201526084016106b7565b600080546040516001600160a01b03808516939216917f8be0079c531659141344cd1fd0a4f28419497f9722a3daafe3b4186f6b6457e091a3600080546001600160a01b0319166001600160a01b0392909216919091179055565b6001600160a01b03831661143e5760405162461bcd60e51b8152602060048201526024808201527f45524332303a20617070726f76652066726f6d20746865207a65726f206164646044820152637265737360e01b60648201526084016106b7565b6001600160a01b03821661149f5760405162461bcd60e51b815260206004820152602260248201527f45524332303a20617070726f766520746f20746865207a65726f206164647265604482015261737360f01b60648201526084016106b7565b6001600160a01b0383811660008181526004602090815260408083209487168084529482529182902085905590518481527f8c5be1e5ebec7d5bd14f71427d1e84f3dd0314c0f7b2291e5b200ac8c7c3b925910160405180910390a3505050565b6001600160a01b0383166115645760405162461bcd60e51b815260206004820152602560248201527f45524332303a207472616e736665722066726f6d20746865207a65726f206164604482015264647265737360d81b60648201526084016106b7565b6001600160a01b0382166115c65760405162461bcd60e51b815260206004820152602360248201527f45524332303a207472616e7366657220746f20746865207a65726f206164647260448201526265737360e81b60648201526084016106b7565b600081116116285760405162461bcd60e51b815260206004820152602960248201527f5472616e7366657220616d6f756e74206d7573742062652067726561746572206044820152687468616e207a65726f60b81b60648201526084016106b7565b6001600160a01b03831660009081526008602052604090205460ff16156116875760405162461bcd60e51b8152602060048201526013602482015272165bdd48185c9948189b1858dadb1a5cdd1959606a1b60448201526064016106b7565b3360009081526008602052604090205460ff16156116d55760405162461bcd60e51b815260206004820152600b60248201526a189b1858dadb1a5cdd195960aa1b60448201526064016106b7565b3260009081526008602052604090205460ff16156117235760405162461bcd60e51b815260206004820152600b60248201526a189b1858dadb1a5cdd195960aa1b60448201526064016106b7565b6001600160a01b03831660009081526005602052604090205460019060ff168061176557506001600160a01b03831660009081526005602052604090205460ff165b1561176e575060005b80156118c6576001600160a01b03841660009081526009602052604090205460ff161580156117b657506001600160a01b03831660009081526009602052604090205460ff16155b156118c65760155482111561181e5760405162461bcd60e51b815260206004820152602860248201527f5472616e7366657220616d6f756e74206578636565647320746865206d6178546044820152673c20b6b7bab73a1760c11b60648201526084016106b7565b7f00000000000000000000000000000000000000000000000000000000000000006001600160a01b0316836001600160a01b0316146118c65760165461186384610d6b565b61186d908461258c565b11156118c65760405162461bcd60e51b815260206004820152602260248201527f526563697069656e742065786365656473206d61782077616c6c65742073697a604482015261329760f11b60648201526084016106b7565b610f3584848484611ae9565b600081848411156118f65760405162461bcd60e51b81526004016106b7919061230f565b5060006119038486612527565b95945050505050565b6000806000611919611d3d565b9092509050611928828261192f565b9250505090565b600061093b83836040518060400160405280601a81526020017f536166654d6174683a206469766973696f6e206279207a65726f000000000000815250611ebf565b60008061197e838561258c565b90508381101561093b5760405162461bcd60e51b815260206004820152601b60248201527f536166654d6174683a206164646974696f6e206f766572666c6f77000000000060448201526064016106b7565b6000806000806119df85611eed565b905060006119ec86611f09565b905060006119fa8784611f2b565b9050611a068183611f2b565b979296509094509092505050565b6000808080611a238886611a6a565b90506000611a318887611a6a565b90506000611a3f8888611a6a565b90506000611a5782611a518686611f2b565b90611f2b565b939b939a50919850919650505050505050565b600082611a7957506000610687565b6000611a8583856125a4565b905082611a9285836125c3565b1461093b5760405162461bcd60e51b815260206004820152602160248201527f536166654d6174683a206d756c7469706c69636174696f6e206f766572666c6f6044820152607760f81b60648201526084016106b7565b8015611bd757611b016014805463ffffffff19169055565b7f00000000000000000000000000000000000000000000000000000000000000006001600160a01b0316846001600160a01b03161415611b6c57611b6c601254601480546201000080840461ffff90811690910263ffffffff19909216931692909217919091179055565b7f00000000000000000000000000000000000000000000000000000000000000006001600160a01b0316836001600160a01b03161415611bd757611bd7601354601480546201000080840461ffff90811690910263ffffffff19909216931692909217919091179055565b6001600160a01b03841660009081526006602052604090205460ff168015611c1857506001600160a01b03831660009081526006602052604090205460ff16155b15611c2d57611c28848484611f6d565b611d2b565b6001600160a01b03841660009081526006602052604090205460ff16158015611c6e57506001600160a01b03831660009081526006602052604090205460ff165b15611c7e57611c288484846120a1565b6001600160a01b03841660009081526006602052604090205460ff16158015611cc057506001600160a01b03831660009081526006602052604090205460ff16155b15611cd057611c28848484612158565b6001600160a01b03841660009081526006602052604090205460ff168015611d1057506001600160a01b03831660009081526006602052604090205460ff165b15611d2057611c288484846121aa565b611d2b848484612158565b610f356014805463ffffffff19169055565b600c54600b546000918291825b600754811015611e8f57826002600060078481548110611d6c57611d6c6124fb565b60009182526020808320909101546001600160a01b031683528201929092526040019020541180611dd75750816003600060078481548110611db057611db06124fb565b60009182526020808320909101546001600160a01b03168352820192909252604001902054115b15611ded57600c54600b54945094505050509091565b611e336002600060078481548110611e0757611e076124fb565b60009182526020808320909101546001600160a01b031683528201929092526040019020548490611f2b565b9250611e7b6003600060078481548110611e4f57611e4f6124fb565b60009182526020808320909101546001600160a01b031683528201929092526040019020548390611f2b565b915080611e8781612554565b915050611d4a565b50600b54600c54611e9f9161192f565b821015611eb657600c54600b549350935050509091565b90939092509050565b60008183611ee05760405162461bcd60e51b81526004016106b7919061230f565b50600061190384866125c3565b6014546000906106879060649061102e90859061ffff16611a6a565b6014546000906106879060649061102e90859062010000900461ffff16611a6a565b600061093b83836040518060400160405280601e81526020017f536166654d6174683a207375627472616374696f6e206f766572666c6f7700008152506118d2565b6000806000611f7b846119d0565b9250925092506000806000611f94878686610bf361190c565b6001600160a01b038c166000908152600360205260409020549295509093509150611fbf9088611f2b565b6001600160a01b038a16600090815260036020908152604080832093909355600290522054611fee9084611f2b565b6001600160a01b03808b1660009081526002602052604080822093909355908a168152205461201d9083611971565b6001600160a01b03891660009081526002602052604090205561203f8461222b565b61204981866122eb565b876001600160a01b0316896001600160a01b03167fddf252ad1be2c89b69c2b068fc378daa952ba7f163c4a11628f55a4df523b3ef8860405161208e91815260200190565b60405180910390a3505050505050505050565b60008060006120af846119d0565b92509250925060008060006120c8878686610bf361190c565b6001600160a01b038c1660009081526002602052604090205492955090935091506120f39084611f2b565b6001600160a01b03808b16600090815260026020908152604080832094909455918b168152600390915220546121299087611971565b6001600160a01b03891660009081526003602090815260408083209390935560029052205461201d9083611971565b6000806000612166846119d0565b925092509250600080600061217f878686610bf361190c565b6001600160a01b038c166000908152600260205260409020549295509093509150611fee9084611f2b565b60008060006121b8846119d0565b92509250925060008060006121d1878686610bf361190c565b6001600160a01b038c1660009081526003602052604090205492955090935091506121fc9088611f2b565b6001600160a01b038a166000908152600360209081526040808320939093556002905220546120f39084611f2b565b600061223561190c565b905060006122438383611a6a565b600e546001600160a01b031660009081526002602052604090205490915061226b9082611971565b600e80546001600160a01b03908116600090815260026020908152604080832095909555925490911681526006909152205460ff16156122e657600e546001600160a01b03166000908152600360205260409020546122ca9084611971565b600e546001600160a01b03166000908152600360205260409020555b505050565b600c546122f89083611f2b565b600c55600d546123089082611971565b600d555050565b600060208083528351808285015260005b8181101561233c57858101830151858201604001528201612320565b8181111561234e576000604083870101525b50601f01601f1916929092016040019392505050565b6001600160a01b038116811461237957600080fd5b50565b6000806040838503121561238f57600080fd5b823561239a81612364565b946020939093013593505050565b6000602082840312156123ba57600080fd5b813561093b81612364565b6000806000606084860312156123da57600080fd5b83356123e581612364565b925060208401356123f581612364565b929592945050506040919091013590565b60006020828403121561241857600080fd5b5035919050565b801515811461237957600080fd5b6000806040838503121561244057600080fd5b8235915060208301356124528161241f565b809150509250929050565b6000806040838503121561247057600080fd5b823561247b81612364565b9150602083013561245281612364565b600181811c9082168061249f57607f821691505b602082108114156124c057634e487b7160e01b600052602260045260246000fd5b50919050565b6020808252818101527f4f776e61626c653a2063616c6c6572206973206e6f7420746865206f776e6572604082015260600190565b634e487b7160e01b600052603260045260246000fd5b634e487b7160e01b600052601160045260246000fd5b60008282101561253957612539612511565b500390565b634e487b7160e01b600052603160045260246000fd5b600060001982141561256857612568612511565b5060010190565b60006020828403121561258157600080fd5b815161093b8161241f565b6000821982111561259f5761259f612511565b500190565b60008160001904831182151516156125be576125be612511565b500290565b6000826125e057634e487b7160e01b600052601260045260246000fd5b50049056fe45524332303a207472616e7366657220616d6f756e74206578636565647320616c6c6f77616e636545524332303a2064656372656173656420616c6c6f77616e63652062656c6f77207a65726fa26469706673582212207016eeff90730f75e585454a20032d6aa45c24b7dfbf3a9513d3aecdb2d6274864736f6c634300080a0033",
					"opcodes": "PUSH1 0xC0 PUSH1 0x40 MSTORE PUSH7 0x2386F26FC10000 PUSH1 0xB DUP2 SWAP1 SSTORE PUSH3 0x1F SWAP1 PUSH1 0x0 NOT PUSH3 0x4BD JUMP JUMPDEST PUSH3 0x2D SWAP1 PUSH1 0x0 NOT PUSH3 0x4E0 JUMP JUMPDEST PUSH1 0xC SWAP1 DUP2 SSTORE PUSH1 0xE DUP1 SLOAD PUSH1 0x1 PUSH1 0x1 PUSH1 0xA0 SHL SUB NOT AND PUSH20 0xC97137BDC16BB7A7548710EE0256410251CB4956 OR SWAP1 SSTORE PUSH1 0x40 DUP1 MLOAD DUP1 DUP3 ADD SWAP1 SWAP2 MSTORE DUP2 DUP2 MSTORE PUSH12 0x436F6666652043727970746F PUSH1 0xA0 SHL PUSH1 0x20 SWAP1 SWAP2 ADD SWAP1 DUP2 MSTORE PUSH3 0x8C SWAP2 PUSH1 0xF SWAP2 SWAP1 PUSH3 0x417 JUMP JUMPDEST POP PUSH1 0x40 DUP1 MLOAD DUP1 DUP3 ADD SWAP1 SWAP2 MSTORE PUSH1 0x4 DUP1 DUP3 MSTORE PUSH4 0x43464545 PUSH1 0xE0 SHL PUSH1 0x20 SWAP1 SWAP3 ADD SWAP2 DUP3 MSTORE PUSH3 0xBA SWAP2 PUSH1 0x10 SWAP2 PUSH3 0x417 JUMP JUMPDEST POP PUSH1 0x11 DUP1 SLOAD PUSH1 0xFF NOT AND PUSH1 0x8 OR SWAP1 SSTORE PUSH9 0x1B1AE4D6E2EF500000 PUSH1 0x15 SSTORE PUSH9 0x6C6B935B8BBD400000 PUSH1 0x16 SSTORE CALLVALUE DUP1 ISZERO PUSH3 0xEF JUMPI PUSH1 0x0 DUP1 REVERT JUMPDEST POP PUSH1 0x0 DUP1 SLOAD PUSH1 0x1 PUSH1 0x1 PUSH1 0xA0 SHL SUB NOT AND CALLER SWAP1 DUP2 OR DUP3 SSTORE PUSH1 0x40 MLOAD SWAP1 SWAP2 DUP3 SWAP2 PUSH32 0x8BE0079C531659141344CD1FD0A4F28419497F9722A3DAAFE3B4186F6B6457E0 SWAP1 DUP3 SWAP1 LOG3 POP PUSH1 0xC SLOAD CALLER PUSH1 0x0 SWAP1 DUP2 MSTORE PUSH1 0x2 PUSH1 0x20 SWAP1 DUP2 MSTORE PUSH1 0x40 SWAP2 DUP3 SWAP1 KECCAK256 SWAP3 SWAP1 SWAP3 SSTORE PUSH1 0x12 DUP1 SLOAD PUSH4 0xFFFFFFFF NOT SWAP1 DUP2 AND PUSH3 0x20002 OR SWAP1 SWAP2 SSTORE PUSH1 0x13 DUP1 SLOAD SWAP1 SWAP2 AND PUSH3 0x50005 OR SWAP1 SSTORE DUP1 MLOAD PUSH4 0xC45A0155 PUSH1 0xE0 SHL DUP2 MSTORE SWAP1 MLOAD PUSH20 0xD99D1C33F9FC3444F8101754ABC46C52416550D1 SWAP3 DUP4 SWAP3 PUSH4 0xC45A0155 SWAP3 PUSH1 0x4 DUP1 DUP4 ADD SWAP4 SWAP3 DUP3 SWAP1 SUB ADD DUP2 DUP7 GAS STATICCALL ISZERO DUP1 ISZERO PUSH3 0x1BB JUMPI RETURNDATASIZE PUSH1 0x0 DUP1 RETURNDATACOPY RETURNDATASIZE PUSH1 0x0 REVERT JUMPDEST POP POP POP POP PUSH1 0x40 MLOAD RETURNDATASIZE PUSH1 0x1F NOT PUSH1 0x1F DUP3 ADD AND DUP3 ADD DUP1 PUSH1 0x40 MSTORE POP DUP2 ADD SWAP1 PUSH3 0x1E1 SWAP2 SWAP1 PUSH3 0x506 JUMP JUMPDEST PUSH1 0x1 PUSH1 0x1 PUSH1 0xA0 SHL SUB AND PUSH4 0xC9C65396 ADDRESS DUP4 PUSH1 0x1 PUSH1 0x1 PUSH1 0xA0 SHL SUB AND PUSH4 0xAD5C4648 PUSH1 0x40 MLOAD DUP2 PUSH4 0xFFFFFFFF AND PUSH1 0xE0 SHL DUP2 MSTORE PUSH1 0x4 ADD PUSH1 0x20 PUSH1 0x40 MLOAD DUP1 DUP4 SUB DUP2 DUP7 GAS STATICCALL ISZERO DUP1 ISZERO PUSH3 0x22F JUMPI RETURNDATASIZE PUSH1 0x0 DUP1 RETURNDATACOPY RETURNDATASIZE PUSH1 0x0 REVERT JUMPDEST POP POP POP POP PUSH1 0x40 MLOAD RETURNDATASIZE PUSH1 0x1F NOT PUSH1 0x1F DUP3 ADD AND DUP3 ADD DUP1 PUSH1 0x40 MSTORE POP DUP2 ADD SWAP1 PUSH3 0x255 SWAP2 SWAP1 PUSH3 0x506 JUMP JUMPDEST PUSH1 0x40 MLOAD PUSH1 0x1 PUSH1 0x1 PUSH1 0xE0 SHL SUB NOT PUSH1 0xE0 DUP6 SWAP1 SHL AND DUP2 MSTORE PUSH1 0x1 PUSH1 0x1 PUSH1 0xA0 SHL SUB SWAP3 DUP4 AND PUSH1 0x4 DUP3 ADD MSTORE SWAP2 AND PUSH1 0x24 DUP3 ADD MSTORE PUSH1 0x44 ADD PUSH1 0x20 PUSH1 0x40 MLOAD DUP1 DUP4 SUB DUP2 PUSH1 0x0 DUP8 GAS CALL ISZERO DUP1 ISZERO PUSH3 0x2A3 JUMPI RETURNDATASIZE PUSH1 0x0 DUP1 RETURNDATACOPY RETURNDATASIZE PUSH1 0x0 REVERT JUMPDEST POP POP POP POP PUSH1 0x40 MLOAD RETURNDATASIZE PUSH1 0x1F NOT PUSH1 0x1F DUP3 ADD AND DUP3 ADD DUP1 PUSH1 0x40 MSTORE POP DUP2 ADD SWAP1 PUSH3 0x2C9 SWAP2 SWAP1 PUSH3 0x506 JUMP JUMPDEST PUSH1 0x1 PUSH1 0x1 PUSH1 0xA0 SHL SUB SWAP1 DUP2 AND PUSH1 0xA0 MSTORE DUP2 AND PUSH1 0x80 MSTORE PUSH1 0x1 PUSH1 0x5 PUSH1 0x0 PUSH3 0x2F5 PUSH1 0x0 SLOAD PUSH1 0x1 PUSH1 0x1 PUSH1 0xA0 SHL SUB AND SWAP1 JUMP JUMPDEST PUSH1 0x1 PUSH1 0x1 PUSH1 0xA0 SHL SUB SWAP1 DUP2 AND DUP3 MSTORE PUSH1 0x20 DUP1 DUP4 ADD SWAP4 SWAP1 SWAP4 MSTORE PUSH1 0x40 SWAP2 DUP3 ADD PUSH1 0x0 SWAP1 DUP2 KECCAK256 DUP1 SLOAD SWAP6 ISZERO ISZERO PUSH1 0xFF NOT SWAP7 DUP8 AND OR SWAP1 SSTORE ADDRESS DUP2 MSTORE PUSH1 0x5 DUP5 MSTORE DUP3 DUP2 KECCAK256 DUP1 SLOAD DUP7 AND PUSH1 0x1 SWAP1 DUP2 OR SWAP1 SWAP2 SSTORE PUSH1 0xE DUP1 SLOAD DUP5 AND DUP4 MSTORE DUP5 DUP4 KECCAK256 DUP1 SLOAD DUP9 AND DUP4 OR SWAP1 SSTORE SLOAD SWAP1 SWAP3 AND DUP2 MSTORE PUSH1 0x9 SWAP4 DUP5 SWAP1 MSTORE SWAP2 DUP3 KECCAK256 DUP1 SLOAD SWAP1 SWAP5 AND DUP2 OR SWAP1 SWAP4 SSTORE PUSH3 0x378 PUSH1 0x0 SLOAD PUSH1 0x1 PUSH1 0x1 PUSH1 0xA0 SHL SUB AND SWAP1 JUMP JUMPDEST PUSH1 0x1 PUSH1 0x1 PUSH1 0xA0 SHL SUB AND DUP2 MSTORE PUSH1 0x20 DUP1 DUP3 ADD SWAP3 SWAP1 SWAP3 MSTORE PUSH1 0x40 SWAP1 DUP2 ADD PUSH1 0x0 SWAP1 DUP2 KECCAK256 DUP1 SLOAD SWAP5 ISZERO ISZERO PUSH1 0xFF NOT SWAP6 DUP7 AND OR SWAP1 SSTORE ADDRESS DUP2 MSTORE PUSH1 0x9 SWAP1 SWAP3 MSTORE SWAP1 KECCAK256 DUP1 SLOAD SWAP1 SWAP2 AND PUSH1 0x1 OR SWAP1 SSTORE PUSH3 0x3C0 CALLER SWAP1 JUMP JUMPDEST PUSH1 0x1 PUSH1 0x1 PUSH1 0xA0 SHL SUB AND PUSH1 0x0 PUSH1 0x1 PUSH1 0x1 PUSH1 0xA0 SHL SUB AND PUSH32 0xDDF252AD1BE2C89B69C2B068FC378DAA952BA7F163C4A11628F55A4DF523B3EF PUSH1 0xB SLOAD PUSH1 0x40 MLOAD PUSH3 0x408 SWAP2 DUP2 MSTORE PUSH1 0x20 ADD SWAP1 JUMP JUMPDEST PUSH1 0x40 MLOAD DUP1 SWAP2 SUB SWAP1 LOG3 POP PUSH3 0x575 JUMP JUMPDEST DUP3 DUP1 SLOAD PUSH3 0x425 SWAP1 PUSH3 0x538 JUMP JUMPDEST SWAP1 PUSH1 0x0 MSTORE PUSH1 0x20 PUSH1 0x0 KECCAK256 SWAP1 PUSH1 0x1F ADD PUSH1 0x20 SWAP1 DIV DUP2 ADD SWAP3 DUP3 PUSH3 0x449 JUMPI PUSH1 0x0 DUP6 SSTORE PUSH3 0x494 JUMP JUMPDEST DUP3 PUSH1 0x1F LT PUSH3 0x464 JUMPI DUP1 MLOAD PUSH1 0xFF NOT AND DUP4 DUP1 ADD OR DUP6 SSTORE PUSH3 0x494 JUMP JUMPDEST DUP3 DUP1 ADD PUSH1 0x1 ADD DUP6 SSTORE DUP3 ISZERO PUSH3 0x494 JUMPI SWAP2 DUP3 ADD JUMPDEST DUP3 DUP2 GT ISZERO PUSH3 0x494 JUMPI DUP3 MLOAD DUP3 SSTORE SWAP2 PUSH1 0x20 ADD SWAP2 SWAP1 PUSH1 0x1 ADD SWAP1 PUSH3 0x477 JUMP JUMPDEST POP PUSH3 0x4A2 SWAP3 SWAP2 POP PUSH3 0x4A6 JUMP JUMPDEST POP SWAP1 JUMP JUMPDEST JUMPDEST DUP1 DUP3 GT ISZERO PUSH3 0x4A2 JUMPI PUSH1 0x0 DUP2 SSTORE PUSH1 0x1 ADD PUSH3 0x4A7 JUMP JUMPDEST PUSH1 0x0 DUP3 PUSH3 0x4DB JUMPI PUSH4 0x4E487B71 PUSH1 0xE0 SHL PUSH1 0x0 MSTORE PUSH1 0x12 PUSH1 0x4 MSTORE PUSH1 0x24 PUSH1 0x0 REVERT JUMPDEST POP MOD SWAP1 JUMP JUMPDEST PUSH1 0x0 DUP3 DUP3 LT ISZERO PUSH3 0x501 JUMPI PUSH4 0x4E487B71 PUSH1 0xE0 SHL PUSH1 0x0 MSTORE PUSH1 0x11 PUSH1 0x4 MSTORE PUSH1 0x24 PUSH1 0x0 REVERT JUMPDEST POP SUB SWAP1 JUMP JUMPDEST PUSH1 0x0 PUSH1 0x20 DUP3 DUP5 SUB SLT ISZERO PUSH3 0x519 JUMPI PUSH1 0x0 DUP1 REVERT JUMPDEST DUP2 MLOAD PUSH1 0x1 PUSH1 0x1 PUSH1 0xA0 SHL SUB DUP2 AND DUP2 EQ PUSH3 0x531 JUMPI PUSH1 0x0 DUP1 REVERT JUMPDEST SWAP4 SWAP3 POP POP POP JUMP JUMPDEST PUSH1 0x1 DUP2 DUP2 SHR SWAP1 DUP3 AND DUP1 PUSH3 0x54D JUMPI PUSH1 0x7F DUP3 AND SWAP2 POP JUMPDEST PUSH1 0x20 DUP3 LT DUP2 EQ ISZERO PUSH3 0x56F JUMPI PUSH4 0x4E487B71 PUSH1 0xE0 SHL PUSH1 0x0 MSTORE PUSH1 0x22 PUSH1 0x4 MSTORE PUSH1 0x24 PUSH1 0x0 REVERT JUMPDEST POP SWAP2 SWAP1 POP JUMP JUMPDEST PUSH1 0x80 MLOAD PUSH1 0xA0 MLOAD PUSH2 0x2668 PUSH3 0x5B0 PUSH1 0x0 CODECOPY PUSH1 0x0 DUP2 DUP2 PUSH2 0x3DB ADD MSTORE DUP2 DUP2 PUSH2 0x1820 ADD MSTORE DUP2 DUP2 PUSH2 0x1B03 ADD MSTORE PUSH2 0x1B6E ADD MSTORE PUSH1 0x0 PUSH2 0x2AF ADD MSTORE PUSH2 0x2668 PUSH1 0x0 RETURN INVALID PUSH1 0x80 PUSH1 0x40 MSTORE CALLVALUE DUP1 ISZERO PUSH2 0x10 JUMPI PUSH1 0x0 DUP1 REVERT JUMPDEST POP PUSH1 0x4 CALLDATASIZE LT PUSH2 0x23D JUMPI PUSH1 0x0 CALLDATALOAD PUSH1 0xE0 SHR DUP1 PUSH4 0x5342ACB4 GT PUSH2 0x13B JUMPI DUP1 PUSH4 0xA457C2D7 GT PUSH2 0xB8 JUMPI DUP1 PUSH4 0xD543DBEB GT PUSH2 0x7C JUMPI DUP1 PUSH4 0xD543DBEB EQ PUSH2 0x546 JUMPI DUP1 PUSH4 0xD94160E0 EQ PUSH2 0x559 JUMPI DUP1 PUSH4 0xDD62ED3E EQ PUSH2 0x585 JUMPI DUP1 PUSH4 0xEA2F0B37 EQ PUSH2 0x5BE JUMPI DUP1 PUSH4 0xF2FDE38B EQ PUSH2 0x5D1 JUMPI PUSH1 0x0 DUP1 REVERT JUMPDEST DUP1 PUSH4 0xA457C2D7 EQ PUSH2 0x4E7 JUMPI DUP1 PUSH4 0xA9059CBB EQ PUSH2 0x4FA JUMPI DUP1 PUSH4 0xAF2CE614 EQ PUSH2 0x50D JUMPI DUP1 PUSH4 0xB030B34A EQ PUSH2 0x520 JUMPI DUP1 PUSH4 0xBA1C4246 EQ PUSH2 0x533 JUMPI PUSH1 0x0 DUP1 REVERT JUMPDEST DUP1 PUSH4 0x8DA5CB5B GT PUSH2 0xFF JUMPI DUP1 PUSH4 0x8DA5CB5B EQ PUSH2 0x49F JUMPI DUP1 PUSH4 0x8F9A55C0 EQ PUSH2 0x4B0 JUMPI DUP1 PUSH4 0x91D919A9 EQ PUSH2 0x4B9 JUMPI DUP1 PUSH4 0x95D89B41 EQ PUSH2 0x4CC JUMPI DUP1 PUSH4 0x9E281A98 EQ PUSH2 0x4D4 JUMPI PUSH1 0x0 DUP1 REVERT JUMPDEST DUP1 PUSH4 0x5342ACB4 EQ PUSH2 0x423 JUMPI DUP1 PUSH4 0x70A08231 EQ PUSH2 0x44F JUMPI DUP1 PUSH4 0x715018A6 EQ PUSH2 0x462 JUMPI DUP1 PUSH4 0x7D1DB4A5 EQ PUSH2 0x46A JUMPI DUP1 PUSH4 0x88F82020 EQ PUSH2 0x473 JUMPI PUSH1 0x0 DUP1 REVERT JUMPDEST DUP1 PUSH4 0x2D838119 GT PUSH2 0x1C9 JUMPI DUP1 PUSH4 0x4549B039 GT PUSH2 0x18D JUMPI DUP1 PUSH4 0x4549B039 EQ PUSH2 0x3AB JUMPI DUP1 PUSH4 0x47062402 EQ PUSH2 0x3BE JUMPI DUP1 PUSH4 0x49BD5A5E EQ PUSH2 0x3D6 JUMPI DUP1 PUSH4 0x4EEB94CE EQ PUSH2 0x3FD JUMPI DUP1 PUSH4 0x52390C02 EQ PUSH2 0x410 JUMPI PUSH1 0x0 DUP1 REVERT JUMPDEST DUP1 PUSH4 0x2D838119 EQ PUSH2 0x34A JUMPI DUP1 PUSH4 0x313CE567 EQ PUSH2 0x35D JUMPI DUP1 PUSH4 0x3685D419 EQ PUSH2 0x372 JUMPI DUP1 PUSH4 0x39509351 EQ PUSH2 0x385 JUMPI DUP1 PUSH4 0x437823EC EQ PUSH2 0x398 JUMPI PUSH1 0x0 DUP1 REVERT JUMPDEST DUP1 PUSH4 0x1694505E GT PUSH2 0x210 JUMPI DUP1 PUSH4 0x1694505E EQ PUSH2 0x2AA JUMPI DUP1 PUSH4 0x18160DDD EQ PUSH2 0x2E9 JUMPI DUP1 PUSH4 0x1D7EF879 EQ PUSH2 0x2F1 JUMPI DUP1 PUSH4 0x23B872DD EQ PUSH2 0x304 JUMPI DUP1 PUSH4 0x2B14CA56 EQ PUSH2 0x317 JUMPI PUSH1 0x0 DUP1 REVERT JUMPDEST DUP1 PUSH4 0x6FDDE03 EQ PUSH2 0x242 JUMPI DUP1 PUSH4 0x95EA7B3 EQ PUSH2 0x260 JUMPI DUP1 PUSH4 0xBD3A7F9 EQ PUSH2 0x283 JUMPI DUP1 PUSH4 0x13114A9D EQ PUSH2 0x298 JUMPI JUMPDEST PUSH1 0x0 DUP1 REVERT JUMPDEST PUSH2 0x24A PUSH2 0x5E4 JUMP JUMPDEST PUSH1 0x40 MLOAD PUSH2 0x257 SWAP2 SWAP1 PUSH2 0x230F JUMP JUMPDEST PUSH1 0x40 MLOAD DUP1 SWAP2 SUB SWAP1 RETURN JUMPDEST PUSH2 0x273 PUSH2 0x26E CALLDATASIZE PUSH1 0x4 PUSH2 0x237C JUMP JUMPDEST PUSH2 0x676 JUMP JUMPDEST PUSH1 0x40 MLOAD SWAP1 ISZERO ISZERO DUP2 MSTORE PUSH1 0x20 ADD PUSH2 0x257 JUMP JUMPDEST PUSH2 0x296 PUSH2 0x291 CALLDATASIZE PUSH1 0x4 PUSH2 0x23A8 JUMP JUMPDEST PUSH2 0x68D JUMP JUMPDEST STOP JUMPDEST PUSH1 0xD SLOAD JUMPDEST PUSH1 0x40 MLOAD SWAP1 DUP2 MSTORE PUSH1 0x20 ADD PUSH2 0x257 JUMP JUMPDEST PUSH2 0x2D1 PUSH32 0x0 DUP2 JUMP JUMPDEST PUSH1 0x40 MLOAD PUSH1 0x1 PUSH1 0x1 PUSH1 0xA0 SHL SUB SWAP1 SWAP2 AND DUP2 MSTORE PUSH1 0x20 ADD PUSH2 0x257 JUMP JUMPDEST PUSH1 0xB SLOAD PUSH2 0x29C JUMP JUMPDEST PUSH2 0x296 PUSH2 0x2FF CALLDATASIZE PUSH1 0x4 PUSH2 0x23A8 JUMP JUMPDEST PUSH2 0x6E4 JUMP JUMPDEST PUSH2 0x273 PUSH2 0x312 CALLDATASIZE PUSH1 0x4 PUSH2 0x23C5 JUMP JUMPDEST PUSH2 0x855 JUMP JUMPDEST PUSH1 0x13 SLOAD PUSH2 0x32F SWAP1 PUSH2 0xFFFF DUP1 DUP3 AND SWAP2 PUSH3 0x10000 SWAP1 DIV AND DUP3 JUMP JUMPDEST PUSH1 0x40 DUP1 MLOAD PUSH2 0xFFFF SWAP4 DUP5 AND DUP2 MSTORE SWAP3 SWAP1 SWAP2 AND PUSH1 0x20 DUP4 ADD MSTORE ADD PUSH2 0x257 JUMP JUMPDEST PUSH2 0x29C PUSH2 0x358 CALLDATASIZE PUSH1 0x4 PUSH2 0x2406 JUMP JUMPDEST PUSH2 0x8BE JUMP JUMPDEST PUSH1 0x11 SLOAD PUSH1 0x40 MLOAD PUSH1 0xFF SWAP1 SWAP2 AND DUP2 MSTORE PUSH1 0x20 ADD PUSH2 0x257 JUMP JUMPDEST PUSH2 0x296 PUSH2 0x380 CALLDATASIZE PUSH1 0x4 PUSH2 0x23A8 JUMP JUMPDEST PUSH2 0x942 JUMP JUMPDEST PUSH2 0x273 PUSH2 0x393 CALLDATASIZE PUSH1 0x4 PUSH2 0x237C JUMP JUMPDEST PUSH2 0xAF9 JUMP JUMPDEST PUSH2 0x296 PUSH2 0x3A6 CALLDATASIZE PUSH1 0x4 PUSH2 0x23A8 JUMP JUMPDEST PUSH2 0xB2F JUMP JUMPDEST PUSH2 0x29C PUSH2 0x3B9 CALLDATASIZE PUSH1 0x4 PUSH2 0x242D JUMP JUMPDEST PUSH2 0xB7D JUMP JUMPDEST PUSH1 0x12 SLOAD PUSH2 0x32F SWAP1 PUSH2 0xFFFF DUP1 DUP3 AND SWAP2 PUSH3 0x10000 SWAP1 DIV AND DUP3 JUMP JUMPDEST PUSH2 0x2D1 PUSH32 0x0 DUP2 JUMP JUMPDEST PUSH1 0xE SLOAD PUSH2 0x2D1 SWAP1 PUSH1 0x1 PUSH1 0x1 PUSH1 0xA0 SHL SUB AND DUP2 JUMP JUMPDEST PUSH2 0x296 PUSH2 0x41E CALLDATASIZE PUSH1 0x4 PUSH2 0x23A8 JUMP JUMPDEST PUSH2 0xC18 JUMP JUMPDEST PUSH2 0x273 PUSH2 0x431 CALLDATASIZE PUSH1 0x4 PUSH2 0x23A8 JUMP JUMPDEST PUSH1 0x1 PUSH1 0x1 PUSH1 0xA0 SHL SUB AND PUSH1 0x0 SWAP1 DUP2 MSTORE PUSH1 0x5 PUSH1 0x20 MSTORE PUSH1 0x40 SWAP1 KECCAK256 SLOAD PUSH1 0xFF AND SWAP1 JUMP JUMPDEST PUSH2 0x29C PUSH2 0x45D CALLDATASIZE PUSH1 0x4 PUSH2 0x23A8 JUMP JUMPDEST PUSH2 0xD6B JUMP JUMPDEST PUSH2 0x296 PUSH2 0xDCA JUMP JUMPDEST PUSH2 0x29C PUSH1 0x15 SLOAD DUP2 JUMP JUMPDEST PUSH2 0x273 PUSH2 0x481 CALLDATASIZE PUSH1 0x4 PUSH2 0x23A8 JUMP JUMPDEST PUSH1 0x1 PUSH1 0x1 PUSH1 0xA0 SHL SUB AND PUSH1 0x0 SWAP1 DUP2 MSTORE PUSH1 0x6 PUSH1 0x20 MSTORE PUSH1 0x40 SWAP1 KECCAK256 SLOAD PUSH1 0xFF AND SWAP1 JUMP JUMPDEST PUSH1 0x0 SLOAD PUSH1 0x1 PUSH1 0x1 PUSH1 0xA0 SHL SUB AND PUSH2 0x2D1 JUMP JUMPDEST PUSH2 0x29C PUSH1 0x16 SLOAD DUP2 JUMP JUMPDEST PUSH2 0x296 PUSH2 0x4C7 CALLDATASIZE PUSH1 0x4 PUSH2 0x23A8 JUMP JUMPDEST PUSH2 0xE3E JUMP JUMPDEST PUSH2 0x24A PUSH2 0xE89 JUMP JUMPDEST PUSH2 0x296 PUSH2 0x4E2 CALLDATASIZE PUSH1 0x4 PUSH2 0x237C JUMP JUMPDEST PUSH2 0xE98 JUMP JUMPDEST PUSH2 0x273 PUSH2 0x4F5 CALLDATASIZE PUSH1 0x4 PUSH2 0x237C JUMP JUMPDEST PUSH2 0xF3B JUMP JUMPDEST PUSH2 0x273 PUSH2 0x508 CALLDATASIZE PUSH1 0x4 PUSH2 0x237C JUMP JUMPDEST PUSH2 0xF8A JUMP JUMPDEST PUSH2 0x296 PUSH2 0x51B CALLDATASIZE PUSH1 0x4 PUSH2 0x2406 JUMP JUMPDEST PUSH2 0xF97 JUMP JUMPDEST PUSH2 0x296 PUSH2 0x52E CALLDATASIZE PUSH1 0x4 PUSH2 0x23A8 JUMP JUMPDEST PUSH2 0x103A JUMP JUMPDEST PUSH2 0x296 PUSH2 0x541 CALLDATASIZE PUSH1 0x4 PUSH2 0x23A8 JUMP JUMPDEST PUSH2 0x11BE JUMP JUMPDEST PUSH2 0x296 PUSH2 0x554 CALLDATASIZE PUSH1 0x4 PUSH2 0x2406 JUMP JUMPDEST PUSH2 0x120A JUMP JUMPDEST PUSH2 0x273 PUSH2 0x567 CALLDATASIZE PUSH1 0x4 PUSH2 0x23A8 JUMP JUMPDEST PUSH1 0x1 PUSH1 0x1 PUSH1 0xA0 SHL SUB AND PUSH1 0x0 SWAP1 DUP2 MSTORE PUSH1 0x9 PUSH1 0x20 MSTORE PUSH1 0x40 SWAP1 KECCAK256 SLOAD PUSH1 0xFF AND SWAP1 JUMP JUMPDEST PUSH2 0x29C PUSH2 0x593 CALLDATASIZE PUSH1 0x4 PUSH2 0x245D JUMP JUMPDEST PUSH1 0x1 PUSH1 0x1 PUSH1 0xA0 SHL SUB SWAP2 DUP3 AND PUSH1 0x0 SWAP1 DUP2 MSTORE PUSH1 0x4 PUSH1 0x20 SWAP1 DUP2 MSTORE PUSH1 0x40 DUP1 DUP4 KECCAK256 SWAP4 SWAP1 SWAP5 AND DUP3 MSTORE SWAP2 SWAP1 SWAP2 MSTORE KECCAK256 SLOAD SWAP1 JUMP JUMPDEST PUSH2 0x296 PUSH2 0x5CC CALLDATASIZE PUSH1 0x4 PUSH2 0x23A8 JUMP JUMPDEST PUSH2 0x12A7 JUMP JUMPDEST PUSH2 0x296 PUSH2 0x5DF CALLDATASIZE PUSH1 0x4 PUSH2 0x23A8 JUMP JUMPDEST PUSH2 0x12F2 JUMP JUMPDEST PUSH1 0x60 PUSH1 0xF DUP1 SLOAD PUSH2 0x5F3 SWAP1 PUSH2 0x248B JUMP JUMPDEST DUP1 PUSH1 0x1F ADD PUSH1 0x20 DUP1 SWAP2 DIV MUL PUSH1 0x20 ADD PUSH1 0x40 MLOAD SWAP1 DUP2 ADD PUSH1 0x40 MSTORE DUP1 SWAP3 SWAP2 SWAP1 DUP2 DUP2 MSTORE PUSH1 0x20 ADD DUP3 DUP1 SLOAD PUSH2 0x61F SWAP1 PUSH2 0x248B JUMP JUMPDEST DUP1 ISZERO PUSH2 0x66C JUMPI DUP1 PUSH1 0x1F LT PUSH2 0x641 JUMPI PUSH2 0x100 DUP1 DUP4 SLOAD DIV MUL DUP4 MSTORE SWAP2 PUSH1 0x20 ADD SWAP2 PUSH2 0x66C JUMP JUMPDEST DUP3 ADD SWAP2 SWAP1 PUSH1 0x0 MSTORE PUSH1 0x20 PUSH1 0x0 KECCAK256 SWAP1 JUMPDEST DUP2 SLOAD DUP2 MSTORE SWAP1 PUSH1 0x1 ADD SWAP1 PUSH1 0x20 ADD DUP1 DUP4 GT PUSH2 0x64F JUMPI DUP3 SWAP1 SUB PUSH1 0x1F AND DUP3 ADD SWAP2 JUMPDEST POP POP POP POP POP SWAP1 POP SWAP1 JUMP JUMPDEST PUSH1 0x0 PUSH2 0x683 CALLER DUP5 DUP5 PUSH2 0x13DC JUMP JUMPDEST POP PUSH1 0x1 JUMPDEST SWAP3 SWAP2 POP POP JUMP JUMPDEST PUSH1 0x0 SLOAD PUSH1 0x1 PUSH1 0x1 PUSH1 0xA0 SHL SUB AND CALLER EQ PUSH2 0x6C0 JUMPI PUSH1 0x40 MLOAD PUSH3 0x461BCD PUSH1 0xE5 SHL DUP2 MSTORE PUSH1 0x4 ADD PUSH2 0x6B7 SWAP1 PUSH2 0x24C6 JUMP JUMPDEST PUSH1 0x40 MLOAD DUP1 SWAP2 SUB SWAP1 REVERT JUMPDEST PUSH1 0x1 PUSH1 0x1 PUSH1 0xA0 SHL SUB AND PUSH1 0x0 SWAP1 DUP2 MSTORE PUSH1 0x9 PUSH1 0x20 MSTORE PUSH1 0x40 SWAP1 KECCAK256 DUP1 SLOAD PUSH1 0xFF NOT AND PUSH1 0x1 OR SWAP1 SSTORE JUMP JUMPDEST PUSH1 0x0 SLOAD PUSH1 0x1 PUSH1 0x1 PUSH1 0xA0 SHL SUB AND CALLER EQ PUSH2 0x70E JUMPI PUSH1 0x40 MLOAD PUSH3 0x461BCD PUSH1 0xE5 SHL DUP2 MSTORE PUSH1 0x4 ADD PUSH2 0x6B7 SWAP1 PUSH2 0x24C6 JUMP JUMPDEST PUSH20 0xD99D1C33F9FC3444F8101754ABC46C52416550D1 PUSH1 0x1 PUSH1 0x1 PUSH1 0xA0 SHL SUB DUP3 AND EQ ISZERO PUSH2 0x786 JUMPI PUSH1 0x40 MLOAD PUSH3 0x461BCD PUSH1 0xE5 SHL DUP2 MSTORE PUSH1 0x20 PUSH1 0x4 DUP3 ADD MSTORE PUSH1 0x22 PUSH1 0x24 DUP3 ADD MSTORE PUSH32 0x57652063616E6E6F7420626C61636B6C69737420556E695377617020726F7574 PUSH1 0x44 DUP3 ADD MSTORE PUSH2 0x32B9 PUSH1 0xF1 SHL PUSH1 0x64 DUP3 ADD MSTORE PUSH1 0x84 ADD PUSH2 0x6B7 JUMP JUMPDEST PUSH1 0x1 PUSH1 0x1 PUSH1 0xA0 SHL SUB DUP2 AND PUSH1 0x0 SWAP1 DUP2 MSTORE PUSH1 0x8 PUSH1 0x20 MSTORE PUSH1 0x40 SWAP1 KECCAK256 SLOAD PUSH1 0xFF AND ISZERO PUSH2 0x7EF JUMPI PUSH1 0x40 MLOAD PUSH3 0x461BCD PUSH1 0xE5 SHL DUP2 MSTORE PUSH1 0x20 PUSH1 0x4 DUP3 ADD MSTORE PUSH1 0x1E PUSH1 0x24 DUP3 ADD MSTORE PUSH32 0x4163636F756E7420697320616C726561647920626C61636B6C69737465640000 PUSH1 0x44 DUP3 ADD MSTORE PUSH1 0x64 ADD PUSH2 0x6B7 JUMP JUMPDEST PUSH1 0x1 PUSH1 0x1 PUSH1 0xA0 SHL SUB AND PUSH1 0x0 DUP2 DUP2 MSTORE PUSH1 0x8 PUSH1 0x20 MSTORE PUSH1 0x40 DUP2 KECCAK256 DUP1 SLOAD PUSH1 0xFF NOT AND PUSH1 0x1 SWAP1 DUP2 OR SWAP1 SWAP2 SSTORE PUSH1 0xA DUP1 SLOAD SWAP2 DUP3 ADD DUP2 SSTORE SWAP1 SWAP2 MSTORE PUSH32 0xC65A7BB8D6351C1CF70C95A316CC6A92839C986682D98BC35F958F4883F9D2A8 ADD DUP1 SLOAD PUSH1 0x1 PUSH1 0x1 PUSH1 0xA0 SHL SUB NOT AND SWAP1 SWAP2 OR SWAP1 SSTORE JUMP JUMPDEST PUSH1 0x0 PUSH2 0x862 DUP5 DUP5 DUP5 PUSH2 0x1500 JUMP JUMPDEST PUSH2 0x8B4 DUP5 CALLER PUSH2 0x8AF DUP6 PUSH1 0x40 MLOAD DUP1 PUSH1 0x60 ADD PUSH1 0x40 MSTORE DUP1 PUSH1 0x28 DUP2 MSTORE PUSH1 0x20 ADD PUSH2 0x25E6 PUSH1 0x28 SWAP2 CODECOPY PUSH1 0x1 PUSH1 0x1 PUSH1 0xA0 SHL SUB DUP11 AND PUSH1 0x0 SWAP1 DUP2 MSTORE PUSH1 0x4 PUSH1 0x20 SWAP1 DUP2 MSTORE PUSH1 0x40 DUP1 DUP4 KECCAK256 CALLER DUP5 MSTORE SWAP1 SWAP2 MSTORE SWAP1 KECCAK256 SLOAD SWAP2 SWAP1 PUSH2 0x18D2 JUMP JUMPDEST PUSH2 0x13DC JUMP JUMPDEST POP PUSH1 0x1 SWAP4 SWAP3 POP POP POP JUMP JUMPDEST PUSH1 0x0 PUSH1 0xC SLOAD DUP3 GT ISZERO PUSH2 0x925 JUMPI PUSH1 0x40 MLOAD PUSH3 0x461BCD PUSH1 0xE5 SHL DUP2 MSTORE PUSH1 0x20 PUSH1 0x4 DUP3 ADD MSTORE PUSH1 0x2A PUSH1 0x24 DUP3 ADD MSTORE PUSH32 0x416D6F756E74206D757374206265206C657373207468616E20746F74616C2072 PUSH1 0x44 DUP3 ADD MSTORE PUSH10 0x65666C656374696F6E73 PUSH1 0xB0 SHL PUSH1 0x64 DUP3 ADD MSTORE PUSH1 0x84 ADD PUSH2 0x6B7 JUMP JUMPDEST PUSH1 0x0 PUSH2 0x92F PUSH2 0x190C JUMP JUMPDEST SWAP1 POP PUSH2 0x93B DUP4 DUP3 PUSH2 0x192F JUMP JUMPDEST SWAP4 SWAP3 POP POP POP JUMP JUMPDEST PUSH1 0x0 SLOAD PUSH1 0x1 PUSH1 0x1 PUSH1 0xA0 SHL SUB AND CALLER EQ PUSH2 0x96C JUMPI PUSH1 0x40 MLOAD PUSH3 0x461BCD PUSH1 0xE5 SHL DUP2 MSTORE PUSH1 0x4 ADD PUSH2 0x6B7 SWAP1 PUSH2 0x24C6 JUMP JUMPDEST PUSH1 0x1 PUSH1 0x1 PUSH1 0xA0 SHL SUB DUP2 AND PUSH1 0x0 SWAP1 DUP2 MSTORE PUSH1 0x6 PUSH1 0x20 MSTORE PUSH1 0x40 SWAP1 KECCAK256 SLOAD PUSH1 0xFF AND PUSH2 0x9D4 JUMPI PUSH1 0x40 MLOAD PUSH3 0x461BCD PUSH1 0xE5 SHL DUP2 MSTORE PUSH1 0x20 PUSH1 0x4 DUP3 ADD MSTORE PUSH1 0x17 PUSH1 0x24 DUP3 ADD MSTORE PUSH32 0x4163636F756E74206973206E6F74206578636C75646564000000000000000000 PUSH1 0x44 DUP3 ADD MSTORE PUSH1 0x64 ADD PUSH2 0x6B7 JUMP JUMPDEST PUSH1 0x0 JUMPDEST PUSH1 0x7 SLOAD DUP2 LT ISZERO PUSH2 0xAF5 JUMPI DUP2 PUSH1 0x1 PUSH1 0x1 PUSH1 0xA0 SHL SUB AND PUSH1 0x7 DUP3 DUP2 SLOAD DUP2 LT PUSH2 0x9FE JUMPI PUSH2 0x9FE PUSH2 0x24FB JUMP JUMPDEST PUSH1 0x0 SWAP2 DUP3 MSTORE PUSH1 0x20 SWAP1 SWAP2 KECCAK256 ADD SLOAD PUSH1 0x1 PUSH1 0x1 PUSH1 0xA0 SHL SUB AND EQ ISZERO PUSH2 0xAE3 JUMPI PUSH1 0x7 DUP1 SLOAD PUSH2 0xA29 SWAP1 PUSH1 0x1 SWAP1 PUSH2 0x2527 JUMP JUMPDEST DUP2 SLOAD DUP2 LT PUSH2 0xA39 JUMPI PUSH2 0xA39 PUSH2 0x24FB JUMP JUMPDEST PUSH1 0x0 SWAP2 DUP3 MSTORE PUSH1 0x20 SWAP1 SWAP2 KECCAK256 ADD SLOAD PUSH1 0x7 DUP1 SLOAD PUSH1 0x1 PUSH1 0x1 PUSH1 0xA0 SHL SUB SWAP1 SWAP3 AND SWAP2 DUP4 SWAP1 DUP2 LT PUSH2 0xA65 JUMPI PUSH2 0xA65 PUSH2 0x24FB JUMP JUMPDEST PUSH1 0x0 SWAP2 DUP3 MSTORE PUSH1 0x20 DUP1 DUP4 KECCAK256 SWAP2 SWAP1 SWAP2 ADD DUP1 SLOAD PUSH1 0x1 PUSH1 0x1 PUSH1 0xA0 SHL SUB NOT AND PUSH1 0x1 PUSH1 0x1 PUSH1 0xA0 SHL SUB SWAP5 DUP6 AND OR SWAP1 SSTORE SWAP2 DUP5 AND DUP2 MSTORE PUSH1 0x3 DUP3 MSTORE PUSH1 0x40 DUP1 DUP3 KECCAK256 DUP3 SWAP1 SSTORE PUSH1 0x6 SWAP1 SWAP3 MSTORE KECCAK256 DUP1 SLOAD PUSH1 0xFF NOT AND SWAP1 SSTORE PUSH1 0x7 DUP1 SLOAD DUP1 PUSH2 0xABD JUMPI PUSH2 0xABD PUSH2 0x253E JUMP JUMPDEST PUSH1 0x0 DUP3 DUP2 MSTORE PUSH1 0x20 SWAP1 KECCAK256 DUP2 ADD PUSH1 0x0 NOT SWAP1 DUP2 ADD DUP1 SLOAD PUSH1 0x1 PUSH1 0x1 PUSH1 0xA0 SHL SUB NOT AND SWAP1 SSTORE ADD SWAP1 SSTORE POP POP JUMP JUMPDEST DUP1 PUSH2 0xAED DUP2 PUSH2 0x2554 JUMP JUMPDEST SWAP2 POP POP PUSH2 0x9D7 JUMP JUMPDEST POP POP JUMP JUMPDEST CALLER PUSH1 0x0 DUP2 DUP2 MSTORE PUSH1 0x4 PUSH1 0x20 SWAP1 DUP2 MSTORE PUSH1 0x40 DUP1 DUP4 KECCAK256 PUSH1 0x1 PUSH1 0x1 PUSH1 0xA0 SHL SUB DUP8 AND DUP5 MSTORE SWAP1 SWAP2 MSTORE DUP2 KECCAK256 SLOAD SWAP1 SWAP2 PUSH2 0x683 SWAP2 DUP6 SWAP1 PUSH2 0x8AF SWAP1 DUP7 PUSH2 0x1971 JUMP JUMPDEST PUSH1 0x0 SLOAD PUSH1 0x1 PUSH1 0x1 PUSH1 0xA0 SHL SUB AND CALLER EQ PUSH2 0xB59 JUMPI PUSH1 0x40 MLOAD PUSH3 0x461BCD PUSH1 0xE5 SHL DUP2 MSTORE PUSH1 0x4 ADD PUSH2 0x6B7 SWAP1 PUSH2 0x24C6 JUMP JUMPDEST PUSH1 0x1 PUSH1 0x1 PUSH1 0xA0 SHL SUB AND PUSH1 0x0 SWAP1 DUP2 MSTORE PUSH1 0x5 PUSH1 0x20 MSTORE PUSH1 0x40 SWAP1 KECCAK256 DUP1 SLOAD PUSH1 0xFF NOT AND PUSH1 0x1 OR SWAP1 SSTORE JUMP JUMPDEST PUSH1 0x0 PUSH1 0xB SLOAD DUP4 GT ISZERO PUSH2 0xBD1 JUMPI PUSH1 0x40 MLOAD PUSH3 0x461BCD PUSH1 0xE5 SHL DUP2 MSTORE PUSH1 0x20 PUSH1 0x4 DUP3 ADD MSTORE PUSH1 0x1F PUSH1 0x24 DUP3 ADD MSTORE PUSH32 0x416D6F756E74206D757374206265206C657373207468616E20737570706C7900 PUSH1 0x44 DUP3 ADD MSTORE PUSH1 0x64 ADD PUSH2 0x6B7 JUMP JUMPDEST PUSH1 0x0 DUP1 PUSH2 0xBDD DUP6 PUSH2 0x19D0 JUMP JUMPDEST SWAP3 POP SWAP3 POP POP PUSH1 0x0 DUP1 PUSH2 0xBF8 DUP8 DUP6 DUP6 PUSH2 0xBF3 PUSH2 0x190C JUMP JUMPDEST PUSH2 0x1A14 JUMP JUMPDEST POP SWAP2 POP SWAP2 POP DUP6 PUSH2 0xC0D JUMPI POP SWAP3 POP PUSH2 0x687 SWAP2 POP POP JUMP JUMPDEST SWAP4 POP PUSH2 0x687 SWAP3 POP POP POP JUMP JUMPDEST PUSH1 0x0 SLOAD PUSH1 0x1 PUSH1 0x1 PUSH1 0xA0 SHL SUB AND CALLER EQ PUSH2 0xC42 JUMPI PUSH1 0x40 MLOAD PUSH3 0x461BCD PUSH1 0xE5 SHL DUP2 MSTORE PUSH1 0x4 ADD PUSH2 0x6B7 SWAP1 PUSH2 0x24C6 JUMP JUMPDEST PUSH1 0x1 PUSH1 0x1 PUSH1 0xA0 SHL SUB DUP2 AND PUSH1 0x0 SWAP1 DUP2 MSTORE PUSH1 0x6 PUSH1 0x20 MSTORE PUSH1 0x40 SWAP1 KECCAK256 SLOAD PUSH1 0xFF AND ISZERO PUSH2 0xCAB JUMPI PUSH1 0x40 MLOAD PUSH3 0x461BCD PUSH1 0xE5 SHL DUP2 MSTORE PUSH1 0x20 PUSH1 0x4 DUP3 ADD MSTORE PUSH1 0x1B PUSH1 0x24 DUP3 ADD MSTORE PUSH32 0x4163636F756E7420697320616C7265616479206578636C756465640000000000 PUSH1 0x44 DUP3 ADD MSTORE PUSH1 0x64 ADD PUSH2 0x6B7 JUMP JUMPDEST PUSH1 0x1 PUSH1 0x1 PUSH1 0xA0 SHL SUB DUP2 AND PUSH1 0x0 SWAP1 DUP2 MSTORE PUSH1 0x2 PUSH1 0x20 MSTORE PUSH1 0x40 SWAP1 KECCAK256 SLOAD ISZERO PUSH2 0xD05 JUMPI PUSH1 0x1 PUSH1 0x1 PUSH1 0xA0 SHL SUB DUP2 AND PUSH1 0x0 SWAP1 DUP2 MSTORE PUSH1 0x2 PUSH1 0x20 MSTORE PUSH1 0x40 SWAP1 KECCAK256 SLOAD PUSH2 0xCEB SWAP1 PUSH2 0x8BE JUMP JUMPDEST PUSH1 0x1 PUSH1 0x1 PUSH1 0xA0 SHL SUB DUP3 AND PUSH1 0x0 SWAP1 DUP2 MSTORE PUSH1 0x3 PUSH1 0x20 MSTORE PUSH1 0x40 SWAP1 KECCAK256 SSTORE JUMPDEST PUSH1 0x1 PUSH1 0x1 PUSH1 0xA0 SHL SUB AND PUSH1 0x0 DUP2 DUP2 MSTORE PUSH1 0x6 PUSH1 0x20 MSTORE PUSH1 0x40 DUP2 KECCAK256 DUP1 SLOAD PUSH1 0xFF NOT AND PUSH1 0x1 SWAP1 DUP2 OR SWAP1 SWAP2 SSTORE PUSH1 0x7 DUP1 SLOAD SWAP2 DUP3 ADD DUP2 SSTORE SWAP1 SWAP2 MSTORE PUSH32 0xA66CC928B5EDB82AF9BD49922954155AB7B0942694BEA4CE44661D9A8736C688 ADD DUP1 SLOAD PUSH1 0x1 PUSH1 0x1 PUSH1 0xA0 SHL SUB NOT AND SWAP1 SWAP2 OR SWAP1 SSTORE JUMP JUMPDEST PUSH1 0x1 PUSH1 0x1 PUSH1 0xA0 SHL SUB DUP2 AND PUSH1 0x0 SWAP1 DUP2 MSTORE PUSH1 0x6 PUSH1 0x20 MSTORE PUSH1 0x40 DUP2 KECCAK256 SLOAD PUSH1 0xFF AND ISZERO PUSH2 0xDA8 JUMPI POP PUSH1 0x1 PUSH1 0x1 PUSH1 0xA0 SHL SUB AND PUSH1 0x0 SWAP1 DUP2 MSTORE PUSH1 0x3 PUSH1 0x20 MSTORE PUSH1 0x40 SWAP1 KECCAK256 SLOAD SWAP1 JUMP JUMPDEST PUSH1 0x1 PUSH1 0x1 PUSH1 0xA0 SHL SUB DUP3 AND PUSH1 0x0 SWAP1 DUP2 MSTORE PUSH1 0x2 PUSH1 0x20 MSTORE PUSH1 0x40 SWAP1 KECCAK256 SLOAD PUSH2 0x687 SWAP1 PUSH2 0x8BE JUMP JUMPDEST PUSH1 0x0 SLOAD PUSH1 0x1 PUSH1 0x1 PUSH1 0xA0 SHL SUB AND CALLER EQ PUSH2 0xDF4 JUMPI PUSH1 0x40 MLOAD PUSH3 0x461BCD PUSH1 0xE5 SHL DUP2 MSTORE PUSH1 0x4 ADD PUSH2 0x6B7 SWAP1 PUSH2 0x24C6 JUMP JUMPDEST PUSH1 0x0 DUP1 SLOAD PUSH1 0x40 MLOAD PUSH1 0x1 PUSH1 0x1 PUSH1 0xA0 SHL SUB SWAP1 SWAP2 AND SWAP1 PUSH32 0x8BE0079C531659141344CD1FD0A4F28419497F9722A3DAAFE3B4186F6B6457E0 SWAP1 DUP4 SWAP1 LOG3 PUSH1 0x0 DUP1 SLOAD PUSH1 0x1 PUSH1 0x1 PUSH1 0xA0 SHL SUB NOT AND SWAP1 SSTORE JUMP JUMPDEST PUSH1 0x0 SLOAD PUSH1 0x1 PUSH1 0x1 PUSH1 0xA0 SHL SUB AND CALLER EQ PUSH2 0xE68 JUMPI PUSH1 0x40 MLOAD PUSH3 0x461BCD PUSH1 0xE5 SHL DUP2 MSTORE PUSH1 0x4 ADD PUSH2 0x6B7 SWAP1 PUSH2 0x24C6 JUMP JUMPDEST PUSH1 0x1 PUSH1 0x1 PUSH1 0xA0 SHL SUB AND PUSH1 0x0 SWAP1 DUP2 MSTORE PUSH1 0x9 PUSH1 0x20 MSTORE PUSH1 0x40 SWAP1 KECCAK256 DUP1 SLOAD PUSH1 0xFF NOT AND SWAP1 SSTORE JUMP JUMPDEST PUSH1 0x60 PUSH1 0x10 DUP1 SLOAD PUSH2 0x5F3 SWAP1 PUSH2 0x248B JUMP JUMPDEST PUSH1 0x0 SLOAD PUSH1 0x1 PUSH1 0x1 PUSH1 0xA0 SHL SUB AND CALLER EQ PUSH2 0xEC2 JUMPI PUSH1 0x40 MLOAD PUSH3 0x461BCD PUSH1 0xE5 SHL DUP2 MSTORE PUSH1 0x4 ADD PUSH2 0x6B7 SWAP1 PUSH2 0x24C6 JUMP JUMPDEST PUSH1 0x40 MLOAD PUSH4 0xA9059CBB PUSH1 0xE0 SHL DUP2 MSTORE CALLER PUSH1 0x4 DUP3 ADD MSTORE PUSH1 0x24 DUP2 ADD DUP3 SWAP1 MSTORE DUP3 SWAP1 PUSH1 0x1 PUSH1 0x1 PUSH1 0xA0 SHL SUB DUP3 AND SWAP1 PUSH4 0xA9059CBB SWAP1 PUSH1 0x44 ADD PUSH1 0x20 PUSH1 0x40 MLOAD DUP1 DUP4 SUB DUP2 PUSH1 0x0 DUP8 GAS CALL ISZERO DUP1 ISZERO PUSH2 0xF11 JUMPI RETURNDATASIZE PUSH1 0x0 DUP1 RETURNDATACOPY RETURNDATASIZE PUSH1 0x0 REVERT JUMPDEST POP POP POP POP PUSH1 0x40 MLOAD RETURNDATASIZE PUSH1 0x1F NOT PUSH1 0x1F DUP3 ADD AND DUP3 ADD DUP1 PUSH1 0x40 MSTORE POP DUP2 ADD SWAP1 PUSH2 0xF35 SWAP2 SWAP1 PUSH2 0x256F JUMP JUMPDEST POP POP POP POP JUMP JUMPDEST PUSH1 0x0 PUSH2 0x683 CALLER DUP5 PUSH2 0x8AF DUP6 PUSH1 0x40 MLOAD DUP1 PUSH1 0x60 ADD PUSH1 0x40 MSTORE DUP1 PUSH1 0x25 DUP2 MSTORE PUSH1 0x20 ADD PUSH2 0x260E PUSH1 0x25 SWAP2 CODECOPY CALLER PUSH1 0x0 SWAP1 DUP2 MSTORE PUSH1 0x4 PUSH1 0x20 SWAP1 DUP2 MSTORE PUSH1 0x40 DUP1 DUP4 KECCAK256 PUSH1 0x1 PUSH1 0x1 PUSH1 0xA0 SHL SUB DUP14 AND DUP5 MSTORE SWAP1 SWAP2 MSTORE SWAP1 KECCAK256 SLOAD SWAP2 SWAP1 PUSH2 0x18D2 JUMP JUMPDEST PUSH1 0x0 PUSH2 0x683 CALLER DUP5 DUP5 PUSH2 0x1500 JUMP JUMPDEST PUSH1 0x0 SLOAD PUSH1 0x1 PUSH1 0x1 PUSH1 0xA0 SHL SUB AND CALLER EQ PUSH2 0xFC1 JUMPI PUSH1 0x40 MLOAD PUSH3 0x461BCD PUSH1 0xE5 SHL DUP2 MSTORE PUSH1 0x4 ADD PUSH2 0x6B7 SWAP1 PUSH2 0x24C6 JUMP JUMPDEST PUSH2 0x3E8 DUP2 GT ISZERO PUSH2 0x1013 JUMPI PUSH1 0x40 MLOAD PUSH3 0x461BCD PUSH1 0xE5 SHL DUP2 MSTORE PUSH1 0x20 PUSH1 0x4 DUP3 ADD MSTORE PUSH1 0x1D PUSH1 0x24 DUP3 ADD MSTORE PUSH32 0x6D617857616C6C657453697A6520657863656564732064697669646572000000 PUSH1 0x44 DUP3 ADD MSTORE PUSH1 0x64 ADD PUSH2 0x6B7 JUMP JUMPDEST PUSH2 0x1034 PUSH2 0x3E8 PUSH2 0x102E DUP4 PUSH1 0xB SLOAD PUSH2 0x1A6A SWAP1 SWAP2 SWAP1 PUSH4 0xFFFFFFFF AND JUMP JUMPDEST SWAP1 PUSH2 0x192F JUMP JUMPDEST PUSH1 0x16 SSTORE POP JUMP JUMPDEST PUSH1 0x0 SLOAD PUSH1 0x1 PUSH1 0x1 PUSH1 0xA0 SHL SUB AND CALLER EQ PUSH2 0x1064 JUMPI PUSH1 0x40 MLOAD PUSH3 0x461BCD PUSH1 0xE5 SHL DUP2 MSTORE PUSH1 0x4 ADD PUSH2 0x6B7 SWAP1 PUSH2 0x24C6 JUMP JUMPDEST PUSH1 0x1 PUSH1 0x1 PUSH1 0xA0 SHL SUB DUP2 AND PUSH1 0x0 SWAP1 DUP2 MSTORE PUSH1 0x8 PUSH1 0x20 MSTORE PUSH1 0x40 SWAP1 KECCAK256 SLOAD PUSH1 0xFF AND PUSH2 0x10CC JUMPI PUSH1 0x40 MLOAD PUSH3 0x461BCD PUSH1 0xE5 SHL DUP2 MSTORE PUSH1 0x20 PUSH1 0x4 DUP3 ADD MSTORE PUSH1 0x1A PUSH1 0x24 DUP3 ADD MSTORE PUSH32 0x4163636F756E74206973206E6F7420626C61636B6C6973746564000000000000 PUSH1 0x44 DUP3 ADD MSTORE PUSH1 0x64 ADD PUSH2 0x6B7 JUMP JUMPDEST PUSH1 0x0 JUMPDEST PUSH1 0xA SLOAD DUP2 LT ISZERO PUSH2 0xAF5 JUMPI DUP2 PUSH1 0x1 PUSH1 0x1 PUSH1 0xA0 SHL SUB AND PUSH1 0xA DUP3 DUP2 SLOAD DUP2 LT PUSH2 0x10F6 JUMPI PUSH2 0x10F6 PUSH2 0x24FB JUMP JUMPDEST PUSH1 0x0 SWAP2 DUP3 MSTORE PUSH1 0x20 SWAP1 SWAP2 KECCAK256 ADD SLOAD PUSH1 0x1 PUSH1 0x1 PUSH1 0xA0 SHL SUB AND EQ ISZERO PUSH2 0x11AC JUMPI PUSH1 0xA DUP1 SLOAD PUSH2 0x1121 SWAP1 PUSH1 0x1 SWAP1 PUSH2 0x2527 JUMP JUMPDEST DUP2 SLOAD DUP2 LT PUSH2 0x1131 JUMPI PUSH2 0x1131 PUSH2 0x24FB JUMP JUMPDEST PUSH1 0x0 SWAP2 DUP3 MSTORE PUSH1 0x20 SWAP1 SWAP2 KECCAK256 ADD SLOAD PUSH1 0xA DUP1 SLOAD PUSH1 0x1 PUSH1 0x1 PUSH1 0xA0 SHL SUB SWAP1 SWAP3 AND SWAP2 DUP4 SWAP1 DUP2 LT PUSH2 0x115D JUMPI PUSH2 0x115D PUSH2 0x24FB JUMP JUMPDEST PUSH1 0x0 SWAP2 DUP3 MSTORE PUSH1 0x20 DUP1 DUP4 KECCAK256 SWAP2 SWAP1 SWAP2 ADD DUP1 SLOAD PUSH1 0x1 PUSH1 0x1 PUSH1 0xA0 SHL SUB NOT AND PUSH1 0x1 PUSH1 0x1 PUSH1 0xA0 SHL SUB SWAP5 DUP6 AND OR SWAP1 SSTORE SWAP2 DUP5 AND DUP2 MSTORE PUSH1 0x8 SWAP1 SWAP2 MSTORE PUSH1 0x40 SWAP1 KECCAK256 DUP1 SLOAD PUSH1 0xFF NOT AND SWAP1 SSTORE PUSH1 0xA DUP1 SLOAD DUP1 PUSH2 0xABD JUMPI PUSH2 0xABD PUSH2 0x253E JUMP JUMPDEST DUP1 PUSH2 0x11B6 DUP2 PUSH2 0x2554 JUMP JUMPDEST SWAP2 POP POP PUSH2 0x10CF JUMP JUMPDEST PUSH1 0x0 SLOAD PUSH1 0x1 PUSH1 0x1 PUSH1 0xA0 SHL SUB AND CALLER EQ PUSH2 0x11E8 JUMPI PUSH1 0x40 MLOAD PUSH3 0x461BCD PUSH1 0xE5 SHL DUP2 MSTORE PUSH1 0x4 ADD PUSH2 0x6B7 SWAP1 PUSH2 0x24C6 JUMP JUMPDEST PUSH1 0xE DUP1 SLOAD PUSH1 0x1 PUSH1 0x1 PUSH1 0xA0 SHL SUB NOT AND PUSH1 0x1 PUSH1 0x1 PUSH1 0xA0 SHL SUB SWAP3 SWAP1 SWAP3 AND SWAP2 SWAP1 SWAP2 OR SWAP1 SSTORE JUMP JUMPDEST PUSH1 0x0 SLOAD PUSH1 0x1 PUSH1 0x1 PUSH1 0xA0 SHL SUB AND CALLER EQ PUSH2 0x1234 JUMPI PUSH1 0x40 MLOAD PUSH3 0x461BCD PUSH1 0xE5 SHL DUP2 MSTORE PUSH1 0x4 ADD PUSH2 0x6B7 SWAP1 PUSH2 0x24C6 JUMP JUMPDEST PUSH2 0x3E8 DUP2 GT ISZERO PUSH2 0x1286 JUMPI PUSH1 0x40 MLOAD PUSH3 0x461BCD PUSH1 0xE5 SHL DUP2 MSTORE PUSH1 0x20 PUSH1 0x4 DUP3 ADD MSTORE PUSH1 0x1C PUSH1 0x24 DUP3 ADD MSTORE PUSH32 0x6D6178547850657263656E742065786365656473206469766964657200000000 PUSH1 0x44 DUP3 ADD MSTORE PUSH1 0x64 ADD PUSH2 0x6B7 JUMP JUMPDEST PUSH2 0x12A1 PUSH2 0x3E8 PUSH2 0x102E DUP4 PUSH1 0xB SLOAD PUSH2 0x1A6A SWAP1 SWAP2 SWAP1 PUSH4 0xFFFFFFFF AND JUMP JUMPDEST PUSH1 0x15 SSTORE POP JUMP JUMPDEST PUSH1 0x0 SLOAD PUSH1 0x1 PUSH1 0x1 PUSH1 0xA0 SHL SUB AND CALLER EQ PUSH2 0x12D1 JUMPI PUSH1 0x40 MLOAD PUSH3 0x461BCD PUSH1 0xE5 SHL DUP2 MSTORE PUSH1 0x4 ADD PUSH2 0x6B7 SWAP1 PUSH2 0x24C6 JUMP JUMPDEST PUSH1 0x1 PUSH1 0x1 PUSH1 0xA0 SHL SUB AND PUSH1 0x0 SWAP1 DUP2 MSTORE PUSH1 0x5 PUSH1 0x20 MSTORE PUSH1 0x40 SWAP1 KECCAK256 DUP1 SLOAD PUSH1 0xFF NOT AND SWAP1 SSTORE JUMP JUMPDEST PUSH1 0x0 SLOAD PUSH1 0x1 PUSH1 0x1 PUSH1 0xA0 SHL SUB AND CALLER EQ PUSH2 0x131C JUMPI PUSH1 0x40 MLOAD PUSH3 0x461BCD PUSH1 0xE5 SHL DUP2 MSTORE PUSH1 0x4 ADD PUSH2 0x6B7 SWAP1 PUSH2 0x24C6 JUMP JUMPDEST PUSH1 0x1 PUSH1 0x1 PUSH1 0xA0 SHL SUB DUP2 AND PUSH2 0x1381 JUMPI PUSH1 0x40 MLOAD PUSH3 0x461BCD PUSH1 0xE5 SHL DUP2 MSTORE PUSH1 0x20 PUSH1 0x4 DUP3 ADD MSTORE PUSH1 0x26 PUSH1 0x24 DUP3 ADD MSTORE PUSH32 0x4F776E61626C653A206E6577206F776E657220697320746865207A65726F2061 PUSH1 0x44 DUP3 ADD MSTORE PUSH6 0x646472657373 PUSH1 0xD0 SHL PUSH1 0x64 DUP3 ADD MSTORE PUSH1 0x84 ADD PUSH2 0x6B7 JUMP JUMPDEST PUSH1 0x0 DUP1 SLOAD PUSH1 0x40 MLOAD PUSH1 0x1 PUSH1 0x1 PUSH1 0xA0 SHL SUB DUP1 DUP6 AND SWAP4 SWAP3 AND SWAP2 PUSH32 0x8BE0079C531659141344CD1FD0A4F28419497F9722A3DAAFE3B4186F6B6457E0 SWAP2 LOG3 PUSH1 0x0 DUP1 SLOAD PUSH1 0x1 PUSH1 0x1 PUSH1 0xA0 SHL SUB NOT AND PUSH1 0x1 PUSH1 0x1 PUSH1 0xA0 SHL SUB SWAP3 SWAP1 SWAP3 AND SWAP2 SWAP1 SWAP2 OR SWAP1 SSTORE JUMP JUMPDEST PUSH1 0x1 PUSH1 0x1 PUSH1 0xA0 SHL SUB DUP4 AND PUSH2 0x143E JUMPI PUSH1 0x40 MLOAD PUSH3 0x461BCD PUSH1 0xE5 SHL DUP2 MSTORE PUSH1 0x20 PUSH1 0x4 DUP3 ADD MSTORE PUSH1 0x24 DUP1 DUP3 ADD MSTORE PUSH32 0x45524332303A20617070726F76652066726F6D20746865207A65726F20616464 PUSH1 0x44 DUP3 ADD MSTORE PUSH4 0x72657373 PUSH1 0xE0 SHL PUSH1 0x64 DUP3 ADD MSTORE PUSH1 0x84 ADD PUSH2 0x6B7 JUMP JUMPDEST PUSH1 0x1 PUSH1 0x1 PUSH1 0xA0 SHL SUB DUP3 AND PUSH2 0x149F JUMPI PUSH1 0x40 MLOAD PUSH3 0x461BCD PUSH1 0xE5 SHL DUP2 MSTORE PUSH1 0x20 PUSH1 0x4 DUP3 ADD MSTORE PUSH1 0x22 PUSH1 0x24 DUP3 ADD MSTORE PUSH32 0x45524332303A20617070726F766520746F20746865207A65726F206164647265 PUSH1 0x44 DUP3 ADD MSTORE PUSH2 0x7373 PUSH1 0xF0 SHL PUSH1 0x64 DUP3 ADD MSTORE PUSH1 0x84 ADD PUSH2 0x6B7 JUMP JUMPDEST PUSH1 0x1 PUSH1 0x1 PUSH1 0xA0 SHL SUB DUP4 DUP2 AND PUSH1 0x0 DUP2 DUP2 MSTORE PUSH1 0x4 PUSH1 0x20 SWAP1 DUP2 MSTORE PUSH1 0x40 DUP1 DUP4 KECCAK256 SWAP5 DUP8 AND DUP1 DUP5 MSTORE SWAP5 DUP3 MSTORE SWAP2 DUP3 SWAP1 KECCAK256 DUP6 SWAP1 SSTORE SWAP1 MLOAD DUP5 DUP2 MSTORE PUSH32 0x8C5BE1E5EBEC7D5BD14F71427D1E84F3DD0314C0F7B2291E5B200AC8C7C3B925 SWAP2 ADD PUSH1 0x40 MLOAD DUP1 SWAP2 SUB SWAP1 LOG3 POP POP POP JUMP JUMPDEST PUSH1 0x1 PUSH1 0x1 PUSH1 0xA0 SHL SUB DUP4 AND PUSH2 0x1564 JUMPI PUSH1 0x40 MLOAD PUSH3 0x461BCD PUSH1 0xE5 SHL DUP2 MSTORE PUSH1 0x20 PUSH1 0x4 DUP3 ADD MSTORE PUSH1 0x25 PUSH1 0x24 DUP3 ADD MSTORE PUSH32 0x45524332303A207472616E736665722066726F6D20746865207A65726F206164 PUSH1 0x44 DUP3 ADD MSTORE PUSH5 0x6472657373 PUSH1 0xD8 SHL PUSH1 0x64 DUP3 ADD MSTORE PUSH1 0x84 ADD PUSH2 0x6B7 JUMP JUMPDEST PUSH1 0x1 PUSH1 0x1 PUSH1 0xA0 SHL SUB DUP3 AND PUSH2 0x15C6 JUMPI PUSH1 0x40 MLOAD PUSH3 0x461BCD PUSH1 0xE5 SHL DUP2 MSTORE PUSH1 0x20 PUSH1 0x4 DUP3 ADD MSTORE PUSH1 0x23 PUSH1 0x24 DUP3 ADD MSTORE PUSH32 0x45524332303A207472616E7366657220746F20746865207A65726F2061646472 PUSH1 0x44 DUP3 ADD MSTORE PUSH3 0x657373 PUSH1 0xE8 SHL PUSH1 0x64 DUP3 ADD MSTORE PUSH1 0x84 ADD PUSH2 0x6B7 JUMP JUMPDEST PUSH1 0x0 DUP2 GT PUSH2 0x1628 JUMPI PUSH1 0x40 MLOAD PUSH3 0x461BCD PUSH1 0xE5 SHL DUP2 MSTORE PUSH1 0x20 PUSH1 0x4 DUP3 ADD MSTORE PUSH1 0x29 PUSH1 0x24 DUP3 ADD MSTORE PUSH32 0x5472616E7366657220616D6F756E74206D757374206265206772656174657220 PUSH1 0x44 DUP3 ADD MSTORE PUSH9 0x7468616E207A65726F PUSH1 0xB8 SHL PUSH1 0x64 DUP3 ADD MSTORE PUSH1 0x84 ADD PUSH2 0x6B7 JUMP JUMPDEST PUSH1 0x1 PUSH1 0x1 PUSH1 0xA0 SHL SUB DUP4 AND PUSH1 0x0 SWAP1 DUP2 MSTORE PUSH1 0x8 PUSH1 0x20 MSTORE PUSH1 0x40 SWAP1 KECCAK256 SLOAD PUSH1 0xFF AND ISZERO PUSH2 0x1687 JUMPI PUSH1 0x40 MLOAD PUSH3 0x461BCD PUSH1 0xE5 SHL DUP2 MSTORE PUSH1 0x20 PUSH1 0x4 DUP3 ADD MSTORE PUSH1 0x13 PUSH1 0x24 DUP3 ADD MSTORE PUSH19 0x165BDD48185C9948189B1858DADB1A5CDD1959 PUSH1 0x6A SHL PUSH1 0x44 DUP3 ADD MSTORE PUSH1 0x64 ADD PUSH2 0x6B7 JUMP JUMPDEST CALLER PUSH1 0x0 SWAP1 DUP2 MSTORE PUSH1 0x8 PUSH1 0x20 MSTORE PUSH1 0x40 SWAP1 KECCAK256 SLOAD PUSH1 0xFF AND ISZERO PUSH2 0x16D5 JUMPI PUSH1 0x40 MLOAD PUSH3 0x461BCD PUSH1 0xE5 SHL DUP2 MSTORE PUSH1 0x20 PUSH1 0x4 DUP3 ADD MSTORE PUSH1 0xB PUSH1 0x24 DUP3 ADD MSTORE PUSH11 0x189B1858DADB1A5CDD1959 PUSH1 0xAA SHL PUSH1 0x44 DUP3 ADD MSTORE PUSH1 0x64 ADD PUSH2 0x6B7 JUMP JUMPDEST ORIGIN PUSH1 0x0 SWAP1 DUP2 MSTORE PUSH1 0x8 PUSH1 0x20 MSTORE PUSH1 0x40 SWAP1 KECCAK256 SLOAD PUSH1 0xFF AND ISZERO PUSH2 0x1723 JUMPI PUSH1 0x40 MLOAD PUSH3 0x461BCD PUSH1 0xE5 SHL DUP2 MSTORE PUSH1 0x20 PUSH1 0x4 DUP3 ADD MSTORE PUSH1 0xB PUSH1 0x24 DUP3 ADD MSTORE PUSH11 0x189B1858DADB1A5CDD1959 PUSH1 0xAA SHL PUSH1 0x44 DUP3 ADD MSTORE PUSH1 0x64 ADD PUSH2 0x6B7 JUMP JUMPDEST PUSH1 0x1 PUSH1 0x1 PUSH1 0xA0 SHL SUB DUP4 AND PUSH1 0x0 SWAP1 DUP2 MSTORE PUSH1 0x5 PUSH1 0x20 MSTORE PUSH1 0x40 SWAP1 KECCAK256 SLOAD PUSH1 0x1 SWAP1 PUSH1 0xFF AND DUP1 PUSH2 0x1765 JUMPI POP PUSH1 0x1 PUSH1 0x1 PUSH1 0xA0 SHL SUB DUP4 AND PUSH1 0x0 SWAP1 DUP2 MSTORE PUSH1 0x5 PUSH1 0x20 MSTORE PUSH1 0x40 SWAP1 KECCAK256 SLOAD PUSH1 0xFF AND JUMPDEST ISZERO PUSH2 0x176E JUMPI POP PUSH1 0x0 JUMPDEST DUP1 ISZERO PUSH2 0x18C6 JUMPI PUSH1 0x1 PUSH1 0x1 PUSH1 0xA0 SHL SUB DUP5 AND PUSH1 0x0 SWAP1 DUP2 MSTORE PUSH1 0x9 PUSH1 0x20 MSTORE PUSH1 0x40 SWAP1 KECCAK256 SLOAD PUSH1 0xFF AND ISZERO DUP1 ISZERO PUSH2 0x17B6 JUMPI POP PUSH1 0x1 PUSH1 0x1 PUSH1 0xA0 SHL SUB DUP4 AND PUSH1 0x0 SWAP1 DUP2 MSTORE PUSH1 0x9 PUSH1 0x20 MSTORE PUSH1 0x40 SWAP1 KECCAK256 SLOAD PUSH1 0xFF AND ISZERO JUMPDEST ISZERO PUSH2 0x18C6 JUMPI PUSH1 0x15 SLOAD DUP3 GT ISZERO PUSH2 0x181E JUMPI PUSH1 0x40 MLOAD PUSH3 0x461BCD PUSH1 0xE5 SHL DUP2 MSTORE PUSH1 0x20 PUSH1 0x4 DUP3 ADD MSTORE PUSH1 0x28 PUSH1 0x24 DUP3 ADD MSTORE PUSH32 0x5472616E7366657220616D6F756E74206578636565647320746865206D617854 PUSH1 0x44 DUP3 ADD MSTORE PUSH8 0x3C20B6B7BAB73A17 PUSH1 0xC1 SHL PUSH1 0x64 DUP3 ADD MSTORE PUSH1 0x84 ADD PUSH2 0x6B7 JUMP JUMPDEST PUSH32 0x0 PUSH1 0x1 PUSH1 0x1 PUSH1 0xA0 SHL SUB AND DUP4 PUSH1 0x1 PUSH1 0x1 PUSH1 0xA0 SHL SUB AND EQ PUSH2 0x18C6 JUMPI PUSH1 0x16 SLOAD PUSH2 0x1863 DUP5 PUSH2 0xD6B JUMP JUMPDEST PUSH2 0x186D SWAP1 DUP5 PUSH2 0x258C JUMP JUMPDEST GT ISZERO PUSH2 0x18C6 JUMPI PUSH1 0x40 MLOAD PUSH3 0x461BCD PUSH1 0xE5 SHL DUP2 MSTORE PUSH1 0x20 PUSH1 0x4 DUP3 ADD MSTORE PUSH1 0x22 PUSH1 0x24 DUP3 ADD MSTORE PUSH32 0x526563697069656E742065786365656473206D61782077616C6C65742073697A PUSH1 0x44 DUP3 ADD MSTORE PUSH2 0x3297 PUSH1 0xF1 SHL PUSH1 0x64 DUP3 ADD MSTORE PUSH1 0x84 ADD PUSH2 0x6B7 JUMP JUMPDEST PUSH2 0xF35 DUP5 DUP5 DUP5 DUP5 PUSH2 0x1AE9 JUMP JUMPDEST PUSH1 0x0 DUP2 DUP5 DUP5 GT ISZERO PUSH2 0x18F6 JUMPI PUSH1 0x40 MLOAD PUSH3 0x461BCD PUSH1 0xE5 SHL DUP2 MSTORE PUSH1 0x4 ADD PUSH2 0x6B7 SWAP2 SWAP1 PUSH2 0x230F JUMP JUMPDEST POP PUSH1 0x0 PUSH2 0x1903 DUP5 DUP7 PUSH2 0x2527 JUMP JUMPDEST SWAP6 SWAP5 POP POP POP POP POP JUMP JUMPDEST PUSH1 0x0 DUP1 PUSH1 0x0 PUSH2 0x1919 PUSH2 0x1D3D JUMP JUMPDEST SWAP1 SWAP3 POP SWAP1 POP PUSH2 0x1928 DUP3 DUP3 PUSH2 0x192F JUMP JUMPDEST SWAP3 POP POP POP SWAP1 JUMP JUMPDEST PUSH1 0x0 PUSH2 0x93B DUP4 DUP4 PUSH1 0x40 MLOAD DUP1 PUSH1 0x40 ADD PUSH1 0x40 MSTORE DUP1 PUSH1 0x1A DUP2 MSTORE PUSH1 0x20 ADD PUSH32 0x536166654D6174683A206469766973696F6E206279207A65726F000000000000 DUP2 MSTORE POP PUSH2 0x1EBF JUMP JUMPDEST PUSH1 0x0 DUP1 PUSH2 0x197E DUP4 DUP6 PUSH2 0x258C JUMP JUMPDEST SWAP1 POP DUP4 DUP2 LT ISZERO PUSH2 0x93B JUMPI PUSH1 0x40 MLOAD PUSH3 0x461BCD PUSH1 0xE5 SHL DUP2 MSTORE PUSH1 0x20 PUSH1 0x4 DUP3 ADD MSTORE PUSH1 0x1B PUSH1 0x24 DUP3 ADD MSTORE PUSH32 0x536166654D6174683A206164646974696F6E206F766572666C6F770000000000 PUSH1 0x44 DUP3 ADD MSTORE PUSH1 0x64 ADD PUSH2 0x6B7 JUMP JUMPDEST PUSH1 0x0 DUP1 PUSH1 0x0 DUP1 PUSH2 0x19DF DUP6 PUSH2 0x1EED JUMP JUMPDEST SWAP1 POP PUSH1 0x0 PUSH2 0x19EC DUP7 PUSH2 0x1F09 JUMP JUMPDEST SWAP1 POP PUSH1 0x0 PUSH2 0x19FA DUP8 DUP5 PUSH2 0x1F2B JUMP JUMPDEST SWAP1 POP PUSH2 0x1A06 DUP2 DUP4 PUSH2 0x1F2B JUMP JUMPDEST SWAP8 SWAP3 SWAP7 POP SWAP1 SWAP5 POP SWAP1 SWAP3 POP POP POP JUMP JUMPDEST PUSH1 0x0 DUP1 DUP1 DUP1 PUSH2 0x1A23 DUP9 DUP7 PUSH2 0x1A6A JUMP JUMPDEST SWAP1 POP PUSH1 0x0 PUSH2 0x1A31 DUP9 DUP8 PUSH2 0x1A6A JUMP JUMPDEST SWAP1 POP PUSH1 0x0 PUSH2 0x1A3F DUP9 DUP9 PUSH2 0x1A6A JUMP JUMPDEST SWAP1 POP PUSH1 0x0 PUSH2 0x1A57 DUP3 PUSH2 0x1A51 DUP7 DUP7 PUSH2 0x1F2B JUMP JUMPDEST SWAP1 PUSH2 0x1F2B JUMP JUMPDEST SWAP4 SWAP12 SWAP4 SWAP11 POP SWAP2 SWAP9 POP SWAP2 SWAP7 POP POP POP POP POP POP POP JUMP JUMPDEST PUSH1 0x0 DUP3 PUSH2 0x1A79 JUMPI POP PUSH1 0x0 PUSH2 0x687 JUMP JUMPDEST PUSH1 0x0 PUSH2 0x1A85 DUP4 DUP6 PUSH2 0x25A4 JUMP JUMPDEST SWAP1 POP DUP3 PUSH2 0x1A92 DUP6 DUP4 PUSH2 0x25C3 JUMP JUMPDEST EQ PUSH2 0x93B JUMPI PUSH1 0x40 MLOAD PUSH3 0x461BCD PUSH1 0xE5 SHL DUP2 MSTORE PUSH1 0x20 PUSH1 0x4 DUP3 ADD MSTORE PUSH1 0x21 PUSH1 0x24 DUP3 ADD MSTORE PUSH32 0x536166654D6174683A206D756C7469706C69636174696F6E206F766572666C6F PUSH1 0x44 DUP3 ADD MSTORE PUSH1 0x77 PUSH1 0xF8 SHL PUSH1 0x64 DUP3 ADD MSTORE PUSH1 0x84 ADD PUSH2 0x6B7 JUMP JUMPDEST DUP1 ISZERO PUSH2 0x1BD7 JUMPI PUSH2 0x1B01 PUSH1 0x14 DUP1 SLOAD PUSH4 0xFFFFFFFF NOT AND SWAP1 SSTORE JUMP JUMPDEST PUSH32 0x0 PUSH1 0x1 PUSH1 0x1 PUSH1 0xA0 SHL SUB AND DUP5 PUSH1 0x1 PUSH1 0x1 PUSH1 0xA0 SHL SUB AND EQ ISZERO PUSH2 0x1B6C JUMPI PUSH2 0x1B6C PUSH1 0x12 SLOAD PUSH1 0x14 DUP1 SLOAD PUSH3 0x10000 DUP1 DUP5 DIV PUSH2 0xFFFF SWAP1 DUP2 AND SWAP1 SWAP2 MUL PUSH4 0xFFFFFFFF NOT SWAP1 SWAP3 AND SWAP4 AND SWAP3 SWAP1 SWAP3 OR SWAP2 SWAP1 SWAP2 OR SWAP1 SSTORE JUMP JUMPDEST PUSH32 0x0 PUSH1 0x1 PUSH1 0x1 PUSH1 0xA0 SHL SUB AND DUP4 PUSH1 0x1 PUSH1 0x1 PUSH1 0xA0 SHL SUB AND EQ ISZERO PUSH2 0x1BD7 JUMPI PUSH2 0x1BD7 PUSH1 0x13 SLOAD PUSH1 0x14 DUP1 SLOAD PUSH3 0x10000 DUP1 DUP5 DIV PUSH2 0xFFFF SWAP1 DUP2 AND SWAP1 SWAP2 MUL PUSH4 0xFFFFFFFF NOT SWAP1 SWAP3 AND SWAP4 AND SWAP3 SWAP1 SWAP3 OR SWAP2 SWAP1 SWAP2 OR SWAP1 SSTORE JUMP JUMPDEST PUSH1 0x1 PUSH1 0x1 PUSH1 0xA0 SHL SUB DUP5 AND PUSH1 0x0 SWAP1 DUP2 MSTORE PUSH1 0x6 PUSH1 0x20 MSTORE PUSH1 0x40 SWAP1 KECCAK256 SLOAD PUSH1 0xFF AND DUP1 ISZERO PUSH2 0x1C18 JUMPI POP PUSH1 0x1 PUSH1 0x1 PUSH1 0xA0 SHL SUB DUP4 AND PUSH1 0x0 SWAP1 DUP2 MSTORE PUSH1 0x6 PUSH1 0x20 MSTORE PUSH1 0x40 SWAP1 KECCAK256 SLOAD PUSH1 0xFF AND ISZERO JUMPDEST ISZERO PUSH2 0x1C2D JUMPI PUSH2 0x1C28 DUP5 DUP5 DUP5 PUSH2 0x1F6D JUMP JUMPDEST PUSH2 0x1D2B JUMP JUMPDEST PUSH1 0x1 PUSH1 0x1 PUSH1 0xA0 SHL SUB DUP5 AND PUSH1 0x0 SWAP1 DUP2 MSTORE PUSH1 0x6 PUSH1 0x20 MSTORE PUSH1 0x40 SWAP1 KECCAK256 SLOAD PUSH1 0xFF AND ISZERO DUP1 ISZERO PUSH2 0x1C6E JUMPI POP PUSH1 0x1 PUSH1 0x1 PUSH1 0xA0 SHL SUB DUP4 AND PUSH1 0x0 SWAP1 DUP2 MSTORE PUSH1 0x6 PUSH1 0x20 MSTORE PUSH1 0x40 SWAP1 KECCAK256 SLOAD PUSH1 0xFF AND JUMPDEST ISZERO PUSH2 0x1C7E JUMPI PUSH2 0x1C28 DUP5 DUP5 DUP5 PUSH2 0x20A1 JUMP JUMPDEST PUSH1 0x1 PUSH1 0x1 PUSH1 0xA0 SHL SUB DUP5 AND PUSH1 0x0 SWAP1 DUP2 MSTORE PUSH1 0x6 PUSH1 0x20 MSTORE PUSH1 0x40 SWAP1 KECCAK256 SLOAD PUSH1 0xFF AND ISZERO DUP1 ISZERO PUSH2 0x1CC0 JUMPI POP PUSH1 0x1 PUSH1 0x1 PUSH1 0xA0 SHL SUB DUP4 AND PUSH1 0x0 SWAP1 DUP2 MSTORE PUSH1 0x6 PUSH1 0x20 MSTORE PUSH1 0x40 SWAP1 KECCAK256 SLOAD PUSH1 0xFF AND ISZERO JUMPDEST ISZERO PUSH2 0x1CD0 JUMPI PUSH2 0x1C28 DUP5 DUP5 DUP5 PUSH2 0x2158 JUMP JUMPDEST PUSH1 0x1 PUSH1 0x1 PUSH1 0xA0 SHL SUB DUP5 AND PUSH1 0x0 SWAP1 DUP2 MSTORE PUSH1 0x6 PUSH1 0x20 MSTORE PUSH1 0x40 SWAP1 KECCAK256 SLOAD PUSH1 0xFF AND DUP1 ISZERO PUSH2 0x1D10 JUMPI POP PUSH1 0x1 PUSH1 0x1 PUSH1 0xA0 SHL SUB DUP4 AND PUSH1 0x0 SWAP1 DUP2 MSTORE PUSH1 0x6 PUSH1 0x20 MSTORE PUSH1 0x40 SWAP1 KECCAK256 SLOAD PUSH1 0xFF AND JUMPDEST ISZERO PUSH2 0x1D20 JUMPI PUSH2 0x1C28 DUP5 DUP5 DUP5 PUSH2 0x21AA JUMP JUMPDEST PUSH2 0x1D2B DUP5 DUP5 DUP5 PUSH2 0x2158 JUMP JUMPDEST PUSH2 0xF35 PUSH1 0x14 DUP1 SLOAD PUSH4 0xFFFFFFFF NOT AND SWAP1 SSTORE JUMP JUMPDEST PUSH1 0xC SLOAD PUSH1 0xB SLOAD PUSH1 0x0 SWAP2 DUP3 SWAP2 DUP3 JUMPDEST PUSH1 0x7 SLOAD DUP2 LT ISZERO PUSH2 0x1E8F JUMPI DUP3 PUSH1 0x2 PUSH1 0x0 PUSH1 0x7 DUP5 DUP2 SLOAD DUP2 LT PUSH2 0x1D6C JUMPI PUSH2 0x1D6C PUSH2 0x24FB JUMP JUMPDEST PUSH1 0x0 SWAP2 DUP3 MSTORE PUSH1 0x20 DUP1 DUP4 KECCAK256 SWAP1 SWAP2 ADD SLOAD PUSH1 0x1 PUSH1 0x1 PUSH1 0xA0 SHL SUB AND DUP4 MSTORE DUP3 ADD SWAP3 SWAP1 SWAP3 MSTORE PUSH1 0x40 ADD SWAP1 KECCAK256 SLOAD GT DUP1 PUSH2 0x1DD7 JUMPI POP DUP2 PUSH1 0x3 PUSH1 0x0 PUSH1 0x7 DUP5 DUP2 SLOAD DUP2 LT PUSH2 0x1DB0 JUMPI PUSH2 0x1DB0 PUSH2 0x24FB JUMP JUMPDEST PUSH1 0x0 SWAP2 DUP3 MSTORE PUSH1 0x20 DUP1 DUP4 KECCAK256 SWAP1 SWAP2 ADD SLOAD PUSH1 0x1 PUSH1 0x1 PUSH1 0xA0 SHL SUB AND DUP4 MSTORE DUP3 ADD SWAP3 SWAP1 SWAP3 MSTORE PUSH1 0x40 ADD SWAP1 KECCAK256 SLOAD GT JUMPDEST ISZERO PUSH2 0x1DED JUMPI PUSH1 0xC SLOAD PUSH1 0xB SLOAD SWAP5 POP SWAP5 POP POP POP POP SWAP1 SWAP2 JUMP JUMPDEST PUSH2 0x1E33 PUSH1 0x2 PUSH1 0x0 PUSH1 0x7 DUP5 DUP2 SLOAD DUP2 LT PUSH2 0x1E07 JUMPI PUSH2 0x1E07 PUSH2 0x24FB JUMP JUMPDEST PUSH1 0x0 SWAP2 DUP3 MSTORE PUSH1 0x20 DUP1 DUP4 KECCAK256 SWAP1 SWAP2 ADD SLOAD PUSH1 0x1 PUSH1 0x1 PUSH1 0xA0 SHL SUB AND DUP4 MSTORE DUP3 ADD SWAP3 SWAP1 SWAP3 MSTORE PUSH1 0x40 ADD SWAP1 KECCAK256 SLOAD DUP5 SWAP1 PUSH2 0x1F2B JUMP JUMPDEST SWAP3 POP PUSH2 0x1E7B PUSH1 0x3 PUSH1 0x0 PUSH1 0x7 DUP5 DUP2 SLOAD DUP2 LT PUSH2 0x1E4F JUMPI PUSH2 0x1E4F PUSH2 0x24FB JUMP JUMPDEST PUSH1 0x0 SWAP2 DUP3 MSTORE PUSH1 0x20 DUP1 DUP4 KECCAK256 SWAP1 SWAP2 ADD SLOAD PUSH1 0x1 PUSH1 0x1 PUSH1 0xA0 SHL SUB AND DUP4 MSTORE DUP3 ADD SWAP3 SWAP1 SWAP3 MSTORE PUSH1 0x40 ADD SWAP1 KECCAK256 SLOAD DUP4 SWAP1 PUSH2 0x1F2B JUMP JUMPDEST SWAP2 POP DUP1 PUSH2 0x1E87 DUP2 PUSH2 0x2554 JUMP JUMPDEST SWAP2 POP POP PUSH2 0x1D4A JUMP JUMPDEST POP PUSH1 0xB SLOAD PUSH1 0xC SLOAD PUSH2 0x1E9F SWAP2 PUSH2 0x192F JUMP JUMPDEST DUP3 LT ISZERO PUSH2 0x1EB6 JUMPI PUSH1 0xC SLOAD PUSH1 0xB SLOAD SWAP4 POP SWAP4 POP POP POP SWAP1 SWAP2 JUMP JUMPDEST SWAP1 SWAP4 SWAP1 SWAP3 POP SWAP1 POP JUMP JUMPDEST PUSH1 0x0 DUP2 DUP4 PUSH2 0x1EE0 JUMPI PUSH1 0x40 MLOAD PUSH3 0x461BCD PUSH1 0xE5 SHL DUP2 MSTORE PUSH1 0x4 ADD PUSH2 0x6B7 SWAP2 SWAP1 PUSH2 0x230F JUMP JUMPDEST POP PUSH1 0x0 PUSH2 0x1903 DUP5 DUP7 PUSH2 0x25C3 JUMP JUMPDEST PUSH1 0x14 SLOAD PUSH1 0x0 SWAP1 PUSH2 0x687 SWAP1 PUSH1 0x64 SWAP1 PUSH2 0x102E SWAP1 DUP6 SWAP1 PUSH2 0xFFFF AND PUSH2 0x1A6A JUMP JUMPDEST PUSH1 0x14 SLOAD PUSH1 0x0 SWAP1 PUSH2 0x687 SWAP1 PUSH1 0x64 SWAP1 PUSH2 0x102E SWAP1 DUP6 SWAP1 PUSH3 0x10000 SWAP1 DIV PUSH2 0xFFFF AND PUSH2 0x1A6A JUMP JUMPDEST PUSH1 0x0 PUSH2 0x93B DUP4 DUP4 PUSH1 0x40 MLOAD DUP1 PUSH1 0x40 ADD PUSH1 0x40 MSTORE DUP1 PUSH1 0x1E DUP2 MSTORE PUSH1 0x20 ADD PUSH32 0x536166654D6174683A207375627472616374696F6E206F766572666C6F770000 DUP2 MSTORE POP PUSH2 0x18D2 JUMP JUMPDEST PUSH1 0x0 DUP1 PUSH1 0x0 PUSH2 0x1F7B DUP5 PUSH2 0x19D0 JUMP JUMPDEST SWAP3 POP SWAP3 POP SWAP3 POP PUSH1 0x0 DUP1 PUSH1 0x0 PUSH2 0x1F94 DUP8 DUP7 DUP7 PUSH2 0xBF3 PUSH2 0x190C JUMP JUMPDEST PUSH1 0x1 PUSH1 0x1 PUSH1 0xA0 SHL SUB DUP13 AND PUSH1 0x0 SWAP1 DUP2 MSTORE PUSH1 0x3 PUSH1 0x20 MSTORE PUSH1 0x40 SWAP1 KECCAK256 SLOAD SWAP3 SWAP6 POP SWAP1 SWAP4 POP SWAP2 POP PUSH2 0x1FBF SWAP1 DUP9 PUSH2 0x1F2B JUMP JUMPDEST PUSH1 0x1 PUSH1 0x1 PUSH1 0xA0 SHL SUB DUP11 AND PUSH1 0x0 SWAP1 DUP2 MSTORE PUSH1 0x3 PUSH1 0x20 SWAP1 DUP2 MSTORE PUSH1 0x40 DUP1 DUP4 KECCAK256 SWAP4 SWAP1 SWAP4 SSTORE PUSH1 0x2 SWAP1 MSTORE KECCAK256 SLOAD PUSH2 0x1FEE SWAP1 DUP5 PUSH2 0x1F2B JUMP JUMPDEST PUSH1 0x1 PUSH1 0x1 PUSH1 0xA0 SHL SUB DUP1 DUP12 AND PUSH1 0x0 SWAP1 DUP2 MSTORE PUSH1 0x2 PUSH1 0x20 MSTORE PUSH1 0x40 DUP1 DUP3 KECCAK256 SWAP4 SWAP1 SWAP4 SSTORE SWAP1 DUP11 AND DUP2 MSTORE KECCAK256 SLOAD PUSH2 0x201D SWAP1 DUP4 PUSH2 0x1971 JUMP JUMPDEST PUSH1 0x1 PUSH1 0x1 PUSH1 0xA0 SHL SUB DUP10 AND PUSH1 0x0 SWAP1 DUP2 MSTORE PUSH1 0x2 PUSH1 0x20 MSTORE PUSH1 0x40 SWAP1 KECCAK256 SSTORE PUSH2 0x203F DUP5 PUSH2 0x222B JUMP JUMPDEST PUSH2 0x2049 DUP2 DUP7 PUSH2 0x22EB JUMP JUMPDEST DUP8 PUSH1 0x1 PUSH1 0x1 PUSH1 0xA0 SHL SUB AND DUP10 PUSH1 0x1 PUSH1 0x1 PUSH1 0xA0 SHL SUB AND PUSH32 0xDDF252AD1BE2C89B69C2B068FC378DAA952BA7F163C4A11628F55A4DF523B3EF DUP9 PUSH1 0x40 MLOAD PUSH2 0x208E SWAP2 DUP2 MSTORE PUSH1 0x20 ADD SWAP1 JUMP JUMPDEST PUSH1 0x40 MLOAD DUP1 SWAP2 SUB SWAP1 LOG3 POP POP POP POP POP POP POP POP POP JUMP JUMPDEST PUSH1 0x0 DUP1 PUSH1 0x0 PUSH2 0x20AF DUP5 PUSH2 0x19D0 JUMP JUMPDEST SWAP3 POP SWAP3 POP SWAP3 POP PUSH1 0x0 DUP1 PUSH1 0x0 PUSH2 0x20C8 DUP8 DUP7 DUP7 PUSH2 0xBF3 PUSH2 0x190C JUMP JUMPDEST PUSH1 0x1 PUSH1 0x1 PUSH1 0xA0 SHL SUB DUP13 AND PUSH1 0x0 SWAP1 DUP2 MSTORE PUSH1 0x2 PUSH1 0x20 MSTORE PUSH1 0x40 SWAP1 KECCAK256 SLOAD SWAP3 SWAP6 POP SWAP1 SWAP4 POP SWAP2 POP PUSH2 0x20F3 SWAP1 DUP5 PUSH2 0x1F2B JUMP JUMPDEST PUSH1 0x1 PUSH1 0x1 PUSH1 0xA0 SHL SUB DUP1 DUP12 AND PUSH1 0x0 SWAP1 DUP2 MSTORE PUSH1 0x2 PUSH1 0x20 SWAP1 DUP2 MSTORE PUSH1 0x40 DUP1 DUP4 KECCAK256 SWAP5 SWAP1 SWAP5 SSTORE SWAP2 DUP12 AND DUP2 MSTORE PUSH1 0x3 SWAP1 SWAP2 MSTORE KECCAK256 SLOAD PUSH2 0x2129 SWAP1 DUP8 PUSH2 0x1971 JUMP JUMPDEST PUSH1 0x1 PUSH1 0x1 PUSH1 0xA0 SHL SUB DUP10 AND PUSH1 0x0 SWAP1 DUP2 MSTORE PUSH1 0x3 PUSH1 0x20 SWAP1 DUP2 MSTORE PUSH1 0x40 DUP1 DUP4 KECCAK256 SWAP4 SWAP1 SWAP4 SSTORE PUSH1 0x2 SWAP1 MSTORE KECCAK256 SLOAD PUSH2 0x201D SWAP1 DUP4 PUSH2 0x1971 JUMP JUMPDEST PUSH1 0x0 DUP1 PUSH1 0x0 PUSH2 0x2166 DUP5 PUSH2 0x19D0 JUMP JUMPDEST SWAP3 POP SWAP3 POP SWAP3 POP PUSH1 0x0 DUP1 PUSH1 0x0 PUSH2 0x217F DUP8 DUP7 DUP7 PUSH2 0xBF3 PUSH2 0x190C JUMP JUMPDEST PUSH1 0x1 PUSH1 0x1 PUSH1 0xA0 SHL SUB DUP13 AND PUSH1 0x0 SWAP1 DUP2 MSTORE PUSH1 0x2 PUSH1 0x20 MSTORE PUSH1 0x40 SWAP1 KECCAK256 SLOAD SWAP3 SWAP6 POP SWAP1 SWAP4 POP SWAP2 POP PUSH2 0x1FEE SWAP1 DUP5 PUSH2 0x1F2B JUMP JUMPDEST PUSH1 0x0 DUP1 PUSH1 0x0 PUSH2 0x21B8 DUP5 PUSH2 0x19D0 JUMP JUMPDEST SWAP3 POP SWAP3 POP SWAP3 POP PUSH1 0x0 DUP1 PUSH1 0x0 PUSH2 0x21D1 DUP8 DUP7 DUP7 PUSH2 0xBF3 PUSH2 0x190C JUMP JUMPDEST PUSH1 0x1 PUSH1 0x1 PUSH1 0xA0 SHL SUB DUP13 AND PUSH1 0x0 SWAP1 DUP2 MSTORE PUSH1 0x3 PUSH1 0x20 MSTORE PUSH1 0x40 SWAP1 KECCAK256 SLOAD SWAP3 SWAP6 POP SWAP1 SWAP4 POP SWAP2 POP PUSH2 0x21FC SWAP1 DUP9 PUSH2 0x1F2B JUMP JUMPDEST PUSH1 0x1 PUSH1 0x1 PUSH1 0xA0 SHL SUB DUP11 AND PUSH1 0x0 SWAP1 DUP2 MSTORE PUSH1 0x3 PUSH1 0x20 SWAP1 DUP2 MSTORE PUSH1 0x40 DUP1 DUP4 KECCAK256 SWAP4 SWAP1 SWAP4 SSTORE PUSH1 0x2 SWAP1 MSTORE KECCAK256 SLOAD PUSH2 0x20F3 SWAP1 DUP5 PUSH2 0x1F2B JUMP JUMPDEST PUSH1 0x0 PUSH2 0x2235 PUSH2 0x190C JUMP JUMPDEST SWAP1 POP PUSH1 0x0 PUSH2 0x2243 DUP4 DUP4 PUSH2 0x1A6A JUMP JUMPDEST PUSH1 0xE SLOAD PUSH1 0x1 PUSH1 0x1 PUSH1 0xA0 SHL SUB AND PUSH1 0x0 SWAP1 DUP2 MSTORE PUSH1 0x2 PUSH1 0x20 MSTORE PUSH1 0x40 SWAP1 KECCAK256 SLOAD SWAP1 SWAP2 POP PUSH2 0x226B SWAP1 DUP3 PUSH2 0x1971 JUMP JUMPDEST PUSH1 0xE DUP1 SLOAD PUSH1 0x1 PUSH1 0x1 PUSH1 0xA0 SHL SUB SWAP1 DUP2 AND PUSH1 0x0 SWAP1 DUP2 MSTORE PUSH1 0x2 PUSH1 0x20 SWAP1 DUP2 MSTORE PUSH1 0x40 DUP1 DUP4 KECCAK256 SWAP6 SWAP1 SWAP6 SSTORE SWAP3 SLOAD SWAP1 SWAP2 AND DUP2 MSTORE PUSH1 0x6 SWAP1 SWAP2 MSTORE KECCAK256 SLOAD PUSH1 0xFF AND ISZERO PUSH2 0x22E6 JUMPI PUSH1 0xE SLOAD PUSH1 0x1 PUSH1 0x1 PUSH1 0xA0 SHL SUB AND PUSH1 0x0 SWAP1 DUP2 MSTORE PUSH1 0x3 PUSH1 0x20 MSTORE PUSH1 0x40 SWAP1 KECCAK256 SLOAD PUSH2 0x22CA SWAP1 DUP5 PUSH2 0x1971 JUMP JUMPDEST PUSH1 0xE SLOAD PUSH1 0x1 PUSH1 0x1 PUSH1 0xA0 SHL SUB AND PUSH1 0x0 SWAP1 DUP2 MSTORE PUSH1 0x3 PUSH1 0x20 MSTORE PUSH1 0x40 SWAP1 KECCAK256 SSTORE JUMPDEST POP POP POP JUMP JUMPDEST PUSH1 0xC SLOAD PUSH2 0x22F8 SWAP1 DUP4 PUSH2 0x1F2B JUMP JUMPDEST PUSH1 0xC SSTORE PUSH1 0xD SLOAD PUSH2 0x2308 SWAP1 DUP3 PUSH2 0x1971 JUMP JUMPDEST PUSH1 0xD SSTORE POP POP JUMP JUMPDEST PUSH1 0x0 PUSH1 0x20 DUP1 DUP4 MSTORE DUP4 MLOAD DUP1 DUP3 DUP6 ADD MSTORE PUSH1 0x0 JUMPDEST DUP2 DUP2 LT ISZERO PUSH2 0x233C JUMPI DUP6 DUP2 ADD DUP4 ADD MLOAD DUP6 DUP3 ADD PUSH1 0x40 ADD MSTORE DUP3 ADD PUSH2 0x2320 JUMP JUMPDEST DUP2 DUP2 GT ISZERO PUSH2 0x234E JUMPI PUSH1 0x0 PUSH1 0x40 DUP4 DUP8 ADD ADD MSTORE JUMPDEST POP PUSH1 0x1F ADD PUSH1 0x1F NOT AND SWAP3 SWAP1 SWAP3 ADD PUSH1 0x40 ADD SWAP4 SWAP3 POP POP POP JUMP JUMPDEST PUSH1 0x1 PUSH1 0x1 PUSH1 0xA0 SHL SUB DUP2 AND DUP2 EQ PUSH2 0x2379 JUMPI PUSH1 0x0 DUP1 REVERT JUMPDEST POP JUMP JUMPDEST PUSH1 0x0 DUP1 PUSH1 0x40 DUP4 DUP6 SUB SLT ISZERO PUSH2 0x238F JUMPI PUSH1 0x0 DUP1 REVERT JUMPDEST DUP3 CALLDATALOAD PUSH2 0x239A DUP2 PUSH2 0x2364 JUMP JUMPDEST SWAP5 PUSH1 0x20 SWAP4 SWAP1 SWAP4 ADD CALLDATALOAD SWAP4 POP POP POP JUMP JUMPDEST PUSH1 0x0 PUSH1 0x20 DUP3 DUP5 SUB SLT ISZERO PUSH2 0x23BA JUMPI PUSH1 0x0 DUP1 REVERT JUMPDEST DUP2 CALLDATALOAD PUSH2 0x93B DUP2 PUSH2 0x2364 JUMP JUMPDEST PUSH1 0x0 DUP1 PUSH1 0x0 PUSH1 0x60 DUP5 DUP7 SUB SLT ISZERO PUSH2 0x23DA JUMPI PUSH1 0x0 DUP1 REVERT JUMPDEST DUP4 CALLDATALOAD PUSH2 0x23E5 DUP2 PUSH2 0x2364 JUMP JUMPDEST SWAP3 POP PUSH1 0x20 DUP5 ADD CALLDATALOAD PUSH2 0x23F5 DUP2 PUSH2 0x2364 JUMP JUMPDEST SWAP3 SWAP6 SWAP3 SWAP5 POP POP POP PUSH1 0x40 SWAP2 SWAP1 SWAP2 ADD CALLDATALOAD SWAP1 JUMP JUMPDEST PUSH1 0x0 PUSH1 0x20 DUP3 DUP5 SUB SLT ISZERO PUSH2 0x2418 JUMPI PUSH1 0x0 DUP1 REVERT JUMPDEST POP CALLDATALOAD SWAP2 SWAP1 POP JUMP JUMPDEST DUP1 ISZERO ISZERO DUP2 EQ PUSH2 0x2379 JUMPI PUSH1 0x0 DUP1 REVERT JUMPDEST PUSH1 0x0 DUP1 PUSH1 0x40 DUP4 DUP6 SUB SLT ISZERO PUSH2 0x2440 JUMPI PUSH1 0x0 DUP1 REVERT JUMPDEST DUP3 CALLDATALOAD SWAP2 POP PUSH1 0x20 DUP4 ADD CALLDATALOAD PUSH2 0x2452 DUP2 PUSH2 0x241F JUMP JUMPDEST DUP1 SWAP2 POP POP SWAP3 POP SWAP3 SWAP1 POP JUMP JUMPDEST PUSH1 0x0 DUP1 PUSH1 0x40 DUP4 DUP6 SUB SLT ISZERO PUSH2 0x2470 JUMPI PUSH1 0x0 DUP1 REVERT JUMPDEST DUP3 CALLDATALOAD PUSH2 0x247B DUP2 PUSH2 0x2364 JUMP JUMPDEST SWAP2 POP PUSH1 0x20 DUP4 ADD CALLDATALOAD PUSH2 0x2452 DUP2 PUSH2 0x2364 JUMP JUMPDEST PUSH1 0x1 DUP2 DUP2 SHR SWAP1 DUP3 AND DUP1 PUSH2 0x249F JUMPI PUSH1 0x7F DUP3 AND SWAP2 POP JUMPDEST PUSH1 0x20 DUP3 LT DUP2 EQ ISZERO PUSH2 0x24C0 JUMPI PUSH4 0x4E487B71 PUSH1 0xE0 SHL PUSH1 0x0 MSTORE PUSH1 0x22 PUSH1 0x4 MSTORE PUSH1 0x24 PUSH1 0x0 REVERT JUMPDEST POP SWAP2 SWAP1 POP JUMP JUMPDEST PUSH1 0x20 DUP1 DUP3 MSTORE DUP2 DUP2 ADD MSTORE PUSH32 0x4F776E61626C653A2063616C6C6572206973206E6F7420746865206F776E6572 PUSH1 0x40 DUP3 ADD MSTORE PUSH1 0x60 ADD SWAP1 JUMP JUMPDEST PUSH4 0x4E487B71 PUSH1 0xE0 SHL PUSH1 0x0 MSTORE PUSH1 0x32 PUSH1 0x4 MSTORE PUSH1 0x24 PUSH1 0x0 REVERT JUMPDEST PUSH4 0x4E487B71 PUSH1 0xE0 SHL PUSH1 0x0 MSTORE PUSH1 0x11 PUSH1 0x4 MSTORE PUSH1 0x24 PUSH1 0x0 REVERT JUMPDEST PUSH1 0x0 DUP3 DUP3 LT ISZERO PUSH2 0x2539 JUMPI PUSH2 0x2539 PUSH2 0x2511 JUMP JUMPDEST POP SUB SWAP1 JUMP JUMPDEST PUSH4 0x4E487B71 PUSH1 0xE0 SHL PUSH1 0x0 MSTORE PUSH1 0x31 PUSH1 0x4 MSTORE PUSH1 0x24 PUSH1 0x0 REVERT JUMPDEST PUSH1 0x0 PUSH1 0x0 NOT DUP3 EQ ISZERO PUSH2 0x2568 JUMPI PUSH2 0x2568 PUSH2 0x2511 JUMP JUMPDEST POP PUSH1 0x1 ADD SWAP1 JUMP JUMPDEST PUSH1 0x0 PUSH1 0x20 DUP3 DUP5 SUB SLT ISZERO PUSH2 0x2581 JUMPI PUSH1 0x0 DUP1 REVERT JUMPDEST DUP2 MLOAD PUSH2 0x93B DUP2 PUSH2 0x241F JUMP JUMPDEST PUSH1 0x0 DUP3 NOT DUP3 GT ISZERO PUSH2 0x259F JUMPI PUSH2 0x259F PUSH2 0x2511 JUMP JUMPDEST POP ADD SWAP1 JUMP JUMPDEST PUSH1 0x0 DUP2 PUSH1 0x0 NOT DIV DUP4 GT DUP3 ISZERO ISZERO AND ISZERO PUSH2 0x25BE JUMPI PUSH2 0x25BE PUSH2 0x2511 JUMP JUMPDEST POP MUL SWAP1 JUMP JUMPDEST PUSH1 0x0 DUP3 PUSH2 0x25E0 JUMPI PUSH4 0x4E487B71 PUSH1 0xE0 SHL PUSH1 0x0 MSTORE PUSH1 0x12 PUSH1 0x4 MSTORE PUSH1 0x24 PUSH1 0x0 REVERT JUMPDEST POP DIV SWAP1 JUMP INVALID GASLIMIT MSTORE NUMBER ORIGIN ADDRESS GASPRICE KECCAK256 PUSH21 0x72616E7366657220616D6F756E7420657863656564 PUSH20 0x20616C6C6F77616E636545524332303A20646563 PUSH19 0x656173656420616C6C6F77616E63652062656C PUSH16 0x77207A65726FA2646970667358221220 PUSH17 0x16EEFF90730F75E585454A20032D6AA45C 0x24 0xB7 0xDF 0xBF GASPRICE SWAP6 SGT 0xD3 0xAE 0xCD 0xB2 0xD6 0x27 BASEFEE PUSH5 0x736F6C6343 STOP ADDMOD EXP STOP CALLER "
				},
				"gasEstimates": {
					"creation": {
						"codeDepositCost": "1966400",
						"executionCost": "infinite",
						"totalCost": "infinite"
					},
					"external": {
						"": "239",
						"_maxTxAmount()": "2407",
						"_maxWalletSize()": "2362",
						"_setMaxWalletSizePercent(uint256)": "infinite",
						"_taxPool()": "2448",
						"addBotToBlacklist(address)": "77569",
						"allowance(address,address)": "infinite",
						"approve(address,uint256)": "24660",
						"balanceOf(address)": "infinite",
						"buyFee()": "2430",
						"decimals()": "2357",
						"decreaseAllowance(address,uint256)": "infinite",
						"excludeFromFee(address)": "26878",
						"excludeFromLimit(address)": "26835",
						"excludeFromReward(address)": "infinite",
						"includeInFee(address)": "26848",
						"includeInLimit(address)": "26827",
						"includeInReward(address)": "infinite",
						"increaseAllowance(address,uint256)": "27117",
						"isExcludedFromFee(address)": "2589",
						"isExcludedFromLimit(address)": "2609",
						"isExcludedFromReward(address)": "2677",
						"name()": "infinite",
						"owner()": "2376",
						"reflectionFromToken(uint256,bool)": "infinite",
						"removeBotFromBlacklist(address)": "infinite",
						"renounceOwnership()": "30255",
						"sellFee()": "2497",
						"setMaxTxPercent(uint256)": "infinite",
						"symbol()": "infinite",
						"tokenFromReflection(uint256)": "infinite",
						"totalFees()": "2394",
						"totalSupply()": "2360",
						"transfer(address,uint256)": "infinite",
						"transferFrom(address,address,uint256)": "infinite",
						"transferOwnership(address)": "30526",
						"uniswapV2Pair()": "infinite",
						"uniswapV2Router()": "infinite",
						"updateTaxPoolWallet(address)": "26838",
						"withdrawToken(address,uint256)": "infinite"
					},
					"internal": {
						"_approve(address,address,uint256)": "infinite",
						"_getCurrentSupply()": "infinite",
						"_getRValues(uint256,uint256,uint256,uint256)": "infinite",
						"_getRate()": "infinite",
						"_getTValues(uint256)": "infinite",
						"_reflectFee(uint256,uint256)": "infinite",
						"_takeMarketing(uint256)": "infinite",
						"_tokenTransfer(address,address,uint256,bool)": "infinite",
						"_transfer(address,address,uint256)": "infinite",
						"_transferBothExcluded(address,address,uint256)": "infinite",
						"_transferFromExcluded(address,address,uint256)": "infinite",
						"_transferStandard(address,address,uint256)": "infinite",
						"_transferToExcluded(address,address,uint256)": "infinite",
						"addLiquidity(uint256,uint256)": "infinite",
						"calculateMarketingFee(uint256)": "infinite",
						"calculateTaxFee(uint256)": "infinite",
						"removeAllFee()": "infinite",
						"setBuy()": "infinite",
						"setSell()": "infinite",
						"swapTokensForEth(uint256)": "infinite"
					}
				},
				"methodIdentifiers": {
					"_maxTxAmount()": "7d1db4a5",
					"_maxWalletSize()": "8f9a55c0",
					"_setMaxWalletSizePercent(uint256)": "af2ce614",
					"_taxPool()": "4eeb94ce",
					"addBotToBlacklist(address)": "1d7ef879",
					"allowance(address,address)": "dd62ed3e",
					"approve(address,uint256)": "095ea7b3",
					"balanceOf(address)": "70a08231",
					"buyFee()": "47062402",
					"decimals()": "313ce567",
					"decreaseAllowance(address,uint256)": "a457c2d7",
					"excludeFromFee(address)": "437823ec",
					"excludeFromLimit(address)": "0bd3a7f9",
					"excludeFromReward(address)": "52390c02",
					"includeInFee(address)": "ea2f0b37",
					"includeInLimit(address)": "91d919a9",
					"includeInReward(address)": "3685d419",
					"increaseAllowance(address,uint256)": "39509351",
					"isExcludedFromFee(address)": "5342acb4",
					"isExcludedFromLimit(address)": "d94160e0",
					"isExcludedFromReward(address)": "88f82020",
					"name()": "06fdde03",
					"owner()": "8da5cb5b",
					"reflectionFromToken(uint256,bool)": "4549b039",
					"removeBotFromBlacklist(address)": "b030b34a",
					"renounceOwnership()": "715018a6",
					"sellFee()": "2b14ca56",
					"setMaxTxPercent(uint256)": "d543dbeb",
					"symbol()": "95d89b41",
					"tokenFromReflection(uint256)": "2d838119",
					"totalFees()": "13114a9d",
					"totalSupply()": "18160ddd",
					"transfer(address,uint256)": "a9059cbb",
					"transferFrom(address,address,uint256)": "23b872dd",
					"transferOwnership(address)": "f2fde38b",
					"uniswapV2Pair()": "49bd5a5e",
					"uniswapV2Router()": "1694505e",
					"updateTaxPoolWallet(address)": "ba1c4246",
					"withdrawToken(address,uint256)": "9e281a98"
				}
			},
			"storageLayout": {
				"storage": [
					{
						"astId": 476,
						"contract": "contracts/coffe.sol:CoffeCrypto",
						"label": "_owner",
						"offset": 0,
						"slot": "0",
						"type": "t_address"
					},
					{
						"astId": 478,
						"contract": "contracts/coffe.sol:CoffeCrypto",
						"label": "_previousOwner",
						"offset": 0,
						"slot": "1",
						"type": "t_address"
					},
					{
						"astId": 1282,
						"contract": "contracts/coffe.sol:CoffeCrypto",
						"label": "_rOwned",
						"offset": 0,
						"slot": "2",
						"type": "t_mapping(t_address,t_uint256)"
					},
					{
						"astId": 1286,
						"contract": "contracts/coffe.sol:CoffeCrypto",
						"label": "_tOwned",
						"offset": 0,
						"slot": "3",
						"type": "t_mapping(t_address,t_uint256)"
					},
					{
						"astId": 1292,
						"contract": "contracts/coffe.sol:CoffeCrypto",
						"label": "_allowances",
						"offset": 0,
						"slot": "4",
						"type": "t_mapping(t_address,t_mapping(t_address,t_uint256))"
					},
					{
						"astId": 1296,
						"contract": "contracts/coffe.sol:CoffeCrypto",
						"label": "_isExcludedFromFee",
						"offset": 0,
						"slot": "5",
						"type": "t_mapping(t_address,t_bool)"
					},
					{
						"astId": 1300,
						"contract": "contracts/coffe.sol:CoffeCrypto",
						"label": "_isExcluded",
						"offset": 0,
						"slot": "6",
						"type": "t_mapping(t_address,t_bool)"
					},
					{
						"astId": 1303,
						"contract": "contracts/coffe.sol:CoffeCrypto",
						"label": "_excluded",
						"offset": 0,
						"slot": "7",
						"type": "t_array(t_address)dyn_storage"
					},
					{
						"astId": 1307,
						"contract": "contracts/coffe.sol:CoffeCrypto",
						"label": "_isBlackListedBot",
						"offset": 0,
						"slot": "8",
						"type": "t_mapping(t_address,t_bool)"
					},
					{
						"astId": 1311,
						"contract": "contracts/coffe.sol:CoffeCrypto",
						"label": "_isExcludedFromLimit",
						"offset": 0,
						"slot": "9",
						"type": "t_mapping(t_address,t_bool)"
					},
					{
						"astId": 1314,
						"contract": "contracts/coffe.sol:CoffeCrypto",
						"label": "_blackListedBots",
						"offset": 0,
						"slot": "10",
						"type": "t_array(t_address)dyn_storage"
					},
					{
						"astId": 1332,
						"contract": "contracts/coffe.sol:CoffeCrypto",
						"label": "_tTotal",
						"offset": 0,
						"slot": "11",
						"type": "t_uint256"
					},
					{
						"astId": 1341,
						"contract": "contracts/coffe.sol:CoffeCrypto",
						"label": "_rTotal",
						"offset": 0,
						"slot": "12",
						"type": "t_uint256"
					},
					{
						"astId": 1343,
						"contract": "contracts/coffe.sol:CoffeCrypto",
						"label": "_tFeeTotal",
						"offset": 0,
						"slot": "13",
						"type": "t_uint256"
					},
					{
						"astId": 1352,
						"contract": "contracts/coffe.sol:CoffeCrypto",
						"label": "_taxPool",
						"offset": 0,
						"slot": "14",
						"type": "t_address_payable"
					},
					{
						"astId": 1355,
						"contract": "contracts/coffe.sol:CoffeCrypto",
						"label": "_name",
						"offset": 0,
						"slot": "15",
						"type": "t_string_storage"
					},
					{
						"astId": 1358,
						"contract": "contracts/coffe.sol:CoffeCrypto",
						"label": "_symbol",
						"offset": 0,
						"slot": "16",
						"type": "t_string_storage"
					},
					{
						"astId": 1361,
						"contract": "contracts/coffe.sol:CoffeCrypto",
						"label": "_decimals",
						"offset": 0,
						"slot": "17",
						"type": "t_uint8"
					},
					{
						"astId": 1374,
						"contract": "contracts/coffe.sol:CoffeCrypto",
						"label": "buyFee",
						"offset": 0,
						"slot": "18",
						"type": "t_struct(BuyFee)1366_storage"
					},
					{
						"astId": 1377,
						"contract": "contracts/coffe.sol:CoffeCrypto",
						"label": "sellFee",
						"offset": 0,
						"slot": "19",
						"type": "t_struct(SellFee)1371_storage"
					},
					{
						"astId": 1379,
						"contract": "contracts/coffe.sol:CoffeCrypto",
						"label": "_taxFee",
						"offset": 0,
						"slot": "20",
						"type": "t_uint16"
					},
					{
						"astId": 1381,
						"contract": "contracts/coffe.sol:CoffeCrypto",
						"label": "_marketingFee",
						"offset": 2,
						"slot": "20",
						"type": "t_uint16"
					},
					{
						"astId": 1397,
						"contract": "contracts/coffe.sol:CoffeCrypto",
						"label": "_maxTxAmount",
						"offset": 0,
						"slot": "21",
						"type": "t_uint256"
					},
					{
						"astId": 1408,
						"contract": "contracts/coffe.sol:CoffeCrypto",
						"label": "_maxWalletSize",
						"offset": 0,
						"slot": "22",
						"type": "t_uint256"
					}
				],
				"types": {
					"t_address": {
						"encoding": "inplace",
						"label": "address",
						"numberOfBytes": "20"
					},
					"t_address_payable": {
						"encoding": "inplace",
						"label": "address payable",
						"numberOfBytes": "20"
					},
					"t_array(t_address)dyn_storage": {
						"base": "t_address",
						"encoding": "dynamic_array",
						"label": "address[]",
						"numberOfBytes": "32"
					},
					"t_bool": {
						"encoding": "inplace",
						"label": "bool",
						"numberOfBytes": "1"
					},
					"t_mapping(t_address,t_bool)": {
						"encoding": "mapping",
						"key": "t_address",
						"label": "mapping(address => bool)",
						"numberOfBytes": "32",
						"value": "t_bool"
					},
					"t_mapping(t_address,t_mapping(t_address,t_uint256))": {
						"encoding": "mapping",
						"key": "t_address",
						"label": "mapping(address => mapping(address => uint256))",
						"numberOfBytes": "32",
						"value": "t_mapping(t_address,t_uint256)"
					},
					"t_mapping(t_address,t_uint256)": {
						"encoding": "mapping",
						"key": "t_address",
						"label": "mapping(address => uint256)",
						"numberOfBytes": "32",
						"value": "t_uint256"
					},
					"t_string_storage": {
						"encoding": "bytes",
						"label": "string",
						"numberOfBytes": "32"
					},
					"t_struct(BuyFee)1366_storage": {
						"encoding": "inplace",
						"label": "struct CoffeCrypto.BuyFee",
						"members": [
							{
								"astId": 1363,
								"contract": "contracts/coffe.sol:CoffeCrypto",
								"label": "tax",
								"offset": 0,
								"slot": "0",
								"type": "t_uint16"
							},
							{
								"astId": 1365,
								"contract": "contracts/coffe.sol:CoffeCrypto",
								"label": "marketing",
								"offset": 2,
								"slot": "0",
								"type": "t_uint16"
							}
						],
						"numberOfBytes": "32"
					},
					"t_struct(SellFee)1371_storage": {
						"encoding": "inplace",
						"label": "struct CoffeCrypto.SellFee",
						"members": [
							{
								"astId": 1368,
								"contract": "contracts/coffe.sol:CoffeCrypto",
								"label": "tax",
								"offset": 0,
								"slot": "0",
								"type": "t_uint16"
							},
							{
								"astId": 1370,
								"contract": "contracts/coffe.sol:CoffeCrypto",
								"label": "marketing",
								"offset": 2,
								"slot": "0",
								"type": "t_uint16"
							}
						],
						"numberOfBytes": "32"
					},
					"t_uint16": {
						"encoding": "inplace",
						"label": "uint16",
						"numberOfBytes": "2"
					},
					"t_uint256": {
						"encoding": "inplace",
						"label": "uint256",
						"numberOfBytes": "32"
					},
					"t_uint8": {
						"encoding": "inplace",
						"label": "uint8",
						"numberOfBytes": "1"
					}
				}
			},
			"userdoc": {
				"kind": "user",
				"methods": {},
				"version": 1
			}
		}
	}
}