{
	"data": {
		"bytecode": {
			"linkReferences": {},
			"object": "60c0604052662386f26fc10000600b8190556200001f90600019620004bd565b6200002d90600019620004e0565b600c55600e80546001600160a01b03191673c97137bdc16bb7a7548710ee0256410251cb495617905560408051808201909152600d8082526c436f666665652043727970746f60981b60209092019182526200008c91600f9162000417565b50604080518082019091526004808252634346454560e01b6020909201918252620000ba9160109162000417565b506011805460ff19166008179055681b1ae4d6e2ef500000601555686c6b935b8bbd400000601655348015620000ef57600080fd5b50600080546001600160a01b031916339081178255604051909182917f8be0079c531659141344cd1fd0a4f28419497f9722a3daafe3b4186f6b6457e0908290a350600c5433600090815260026020908152604091829020929092556012805463ffffffff1990811662020002179091556013805490911662050005179055805163c45a015560e01b8152905173d99d1c33f9fc3444f8101754abc46c52416550d192839263c45a015592600480830193928290030181865afa158015620001bb573d6000803e3d6000fd5b505050506040513d601f19601f82011682018060405250810190620001e1919062000506565b6001600160a01b031663c9c6539630836001600160a01b031663ad5c46486040518163ffffffff1660e01b8152600401602060405180830381865afa1580156200022f573d6000803e3d6000fd5b505050506040513d601f19601f8201168201806040525081019062000255919062000506565b6040516001600160e01b031960e085901b1681526001600160a01b039283166004820152911660248201526044016020604051808303816000875af1158015620002a3573d6000803e3d6000fd5b505050506040513d601f19601f82011682018060405250810190620002c9919062000506565b6001600160a01b0390811660a0528116608052600160056000620002f56000546001600160a01b031690565b6001600160a01b03908116825260208083019390935260409182016000908120805495151560ff1996871617905530815260058452828120805486166001908117909155600e805484168352848320805488168317905554909216815260099384905291822080549094168117909355620003786000546001600160a01b031690565b6001600160a01b0316815260208082019290925260409081016000908120805494151560ff199586161790553081526009909252902080549091166001179055620003c03390565b6001600160a01b031660006001600160a01b03167fddf252ad1be2c89b69c2b068fc378daa952ba7f163c4a11628f55a4df523b3ef600b546040516200040891815260200190565b60405180910390a35062000575565b828054620004259062000538565b90600052602060002090601f01602090048101928262000449576000855562000494565b82601f106200046457805160ff191683800117855562000494565b8280016001018555821562000494579182015b828111156200049457825182559160200191906001019062000477565b50620004a2929150620004a6565b5090565b5b80821115620004a25760008155600101620004a7565b600082620004db57634e487b7160e01b600052601260045260246000fd5b500690565b6000828210156200050157634e487b7160e01b600052601160045260246000fd5b500390565b6000602082840312156200051957600080fd5b81516001600160a01b03811681146200053157600080fd5b9392505050565b600181811c908216806200054d57607f821691505b602082108114156200056f57634e487b7160e01b600052602260045260246000fd5b50919050565b60805160a051612730620005b0600039600081816103f9015281816118ee01528181611c0d0152611c78015260006102ba01526127306000f3fe608060405234801561001057600080fd5b50600436106102485760003560e01c80635342acb41161013b578063a457c2d7116100b8578063d543dbeb1161007c578063d543dbeb14610564578063d94160e014610577578063dd62ed3e146105a3578063ea2f0b37146105dc578063f2fde38b146105ef57600080fd5b8063a457c2d714610505578063a9059cbb14610518578063af2ce6141461052b578063b030b34a1461053e578063ba1c42461461055157600080fd5b80638da5cb5b116100ff5780638da5cb5b146104bd5780638f9a55c0146104ce57806391d919a9146104d757806395d89b41146104ea5780639e281a98146104f257600080fd5b80635342acb41461044157806370a082311461046d578063715018a6146104805780637d1db4a51461048857806388f820201461049157600080fd5b8063313ce567116101c95780634549b0391161018d5780634549b039146103c957806347062402146103dc57806349bd5a5e146103f45780634eeb94ce1461041b57806352390c021461042e57600080fd5b8063313ce567146103685780633685d4191461037d578063395093511461039057806342966c68146103a3578063437823ec146103b657600080fd5b806318160ddd1161021057806318160ddd146102f45780631d7ef879146102fc57806323b872dd1461030f5780632b14ca56146103225780632d8381191461035557600080fd5b806306fdde031461024d578063095ea7b31461026b5780630bd3a7f91461028e57806313114a9d146102a35780631694505e146102b5575b600080fd5b610255610602565b60405161026291906123d7565b60405180910390f35b61027e610279366004612444565b610694565b6040519015158152602001610262565b6102a161029c366004612470565b6106ab565b005b600d545b604051908152602001610262565b6102dc7f000000000000000000000000000000000000000000000000000000000000000081565b6040516001600160a01b039091168152602001610262565b600b546102a7565b6102a161030a366004612470565b610702565b61027e61031d36600461248d565b610873565b60135461033a9061ffff808216916201000090041682565b6040805161ffff938416815292909116602083015201610262565b6102a76103633660046124ce565b6108dc565b60115460405160ff9091168152602001610262565b6102a161038b366004612470565b610960565b61027e61039e366004612444565b610b17565b6102a16103b13660046124ce565b610b4d565b6102a16103c4366004612470565b610bfd565b6102a76103d73660046124f5565b610c4b565b60125461033a9061ffff808216916201000090041682565b6102dc7f000000000000000000000000000000000000000000000000000000000000000081565b600e546102dc906001600160a01b031681565b6102a161043c366004612470565b610ce6565b61027e61044f366004612470565b6001600160a01b031660009081526005602052604090205460ff1690565b6102a761047b366004612470565b610e39565b6102a1610e98565b6102a760155481565b61027e61049f366004612470565b6001600160a01b031660009081526006602052604090205460ff1690565b6000546001600160a01b03166102dc565b6102a760165481565b6102a16104e5366004612470565b610f0c565b610255610f57565b6102a1610500366004612444565b610f66565b61027e610513366004612444565b611009565b61027e610526366004612444565b611058565b6102a16105393660046124ce565b611065565b6102a161054c366004612470565b611108565b6102a161055f366004612470565b61128c565b6102a16105723660046124ce565b6112d8565b61027e610585366004612470565b6001600160a01b031660009081526009602052604090205460ff1690565b6102a76105b1366004612525565b6001600160a01b03918216600090815260046020908152604080832093909416825291909152205490565b6102a16105ea366004612470565b611375565b6102a16105fd366004612470565b6113c0565b6060600f805461061190612553565b80601f016020809104026020016040519081016040528092919081815260200182805461063d90612553565b801561068a5780601f1061065f5761010080835404028352916020019161068a565b820191906000526020600020905b81548152906001019060200180831161066d57829003601f168201915b5050505050905090565b60006106a13384846114aa565b5060015b92915050565b6000546001600160a01b031633146106de5760405162461bcd60e51b81526004016106d59061258e565b60405180910390fd5b6001600160a01b03166000908152600960205260409020805460ff19166001179055565b6000546001600160a01b0316331461072c5760405162461bcd60e51b81526004016106d59061258e565b73d99d1c33f9fc3444f8101754abc46c52416550d16001600160a01b03821614156107a45760405162461bcd60e51b815260206004820152602260248201527f57652063616e6e6f7420626c61636b6c69737420556e695377617020726f757460448201526132b960f11b60648201526084016106d5565b6001600160a01b03811660009081526008602052604090205460ff161561080d5760405162461bcd60e51b815260206004820152601e60248201527f4163636f756e7420697320616c726561647920626c61636b6c6973746564000060448201526064016106d5565b6001600160a01b03166000818152600860205260408120805460ff19166001908117909155600a805491820181559091527fc65a7bb8d6351c1cf70c95a316cc6a92839c986682d98bc35f958f4883f9d2a80180546001600160a01b0319169091179055565b60006108808484846115ce565b6108d284336108cd856040518060600160405280602881526020016126ae602891396001600160a01b038a16600090815260046020908152604080832033845290915290205491906119a0565b6114aa565b5060019392505050565b6000600c548211156109435760405162461bcd60e51b815260206004820152602a60248201527f416d6f756e74206d757374206265206c657373207468616e20746f74616c207260448201526965666c656374696f6e7360b01b60648201526084016106d5565b600061094d6119da565b905061095983826119fd565b9392505050565b6000546001600160a01b0316331461098a5760405162461bcd60e51b81526004016106d59061258e565b6001600160a01b03811660009081526006602052604090205460ff166109f25760405162461bcd60e51b815260206004820152601760248201527f4163636f756e74206973206e6f74206578636c7564656400000000000000000060448201526064016106d5565b60005b600754811015610b1357816001600160a01b031660078281548110610a1c57610a1c6125c3565b6000918252602090912001546001600160a01b03161415610b015760078054610a47906001906125ef565b81548110610a5757610a576125c3565b600091825260209091200154600780546001600160a01b039092169183908110610a8357610a836125c3565b600091825260208083209190910180546001600160a01b0319166001600160a01b039485161790559184168152600382526040808220829055600690925220805460ff191690556007805480610adb57610adb612606565b600082815260209020810160001990810180546001600160a01b03191690550190555050565b80610b0b8161261c565b9150506109f5565b5050565b3360008181526004602090815260408083206001600160a01b038716845290915281205490916106a19185906108cd9086611a3f565b80610b5733610e39565b1015610b9a5760405162461bcd60e51b81526020600482015260126024820152714e6f7420656e6f7567682062616c616e636560701b60448201526064016106d5565b610bad81610ba733610e39565b90611a9e565b5080600b6000828254610bc091906125ef565b909155505060405181815233907fcc16f5dbb4873280815c1ee09dbd06736cffcc184412cf7a71a0fdb75d397ca59060200160405180910390a250565b6000546001600160a01b03163314610c275760405162461bcd60e51b81526004016106d59061258e565b6001600160a01b03166000908152600560205260409020805460ff19166001179055565b6000600b54831115610c9f5760405162461bcd60e51b815260206004820152601f60248201527f416d6f756e74206d757374206265206c657373207468616e20737570706c790060448201526064016106d5565b600080610cab85611ae0565b9250925050600080610cc6878585610cc16119da565b611b24565b509150915085610cdb575092506106a5915050565b93506106a592505050565b6000546001600160a01b03163314610d105760405162461bcd60e51b81526004016106d59061258e565b6001600160a01b03811660009081526006602052604090205460ff1615610d795760405162461bcd60e51b815260206004820152601b60248201527f4163636f756e7420697320616c7265616479206578636c75646564000000000060448201526064016106d5565b6001600160a01b03811660009081526002602052604090205415610dd3576001600160a01b038116600090815260026020526040902054610db9906108dc565b6001600160a01b0382166000908152600360205260409020555b6001600160a01b03166000818152600660205260408120805460ff191660019081179091556007805491820181559091527fa66cc928b5edb82af9bd49922954155ab7b0942694bea4ce44661d9a8736c6880180546001600160a01b0319169091179055565b6001600160a01b03811660009081526006602052604081205460ff1615610e7657506001600160a01b031660009081526003602052604090205490565b6001600160a01b0382166000908152600260205260409020546106a5906108dc565b6000546001600160a01b03163314610ec25760405162461bcd60e51b81526004016106d59061258e565b600080546040516001600160a01b03909116907f8be0079c531659141344cd1fd0a4f28419497f9722a3daafe3b4186f6b6457e0908390a3600080546001600160a01b0319169055565b6000546001600160a01b03163314610f365760405162461bcd60e51b81526004016106d59061258e565b6001600160a01b03166000908152600960205260409020805460ff19169055565b60606010805461061190612553565b6000546001600160a01b03163314610f905760405162461bcd60e51b81526004016106d59061258e565b60405163a9059cbb60e01b81523360048201526024810182905282906001600160a01b0382169063a9059cbb906044016020604051808303816000875af1158015610fdf573d6000803e3d6000fd5b505050506040513d601f19601f820116820180604052508101906110039190612637565b50505050565b60006106a133846108cd856040518060600160405280602581526020016126d6602591393360009081526004602090815260408083206001600160a01b038d16845290915290205491906119a0565b60006106a13384846115ce565b6000546001600160a01b0316331461108f5760405162461bcd60e51b81526004016106d59061258e565b6103e88111156110e15760405162461bcd60e51b815260206004820152601d60248201527f6d617857616c6c657453697a652065786365656473206469766964657200000060448201526064016106d5565b6111026103e86110fc83600b54611b7490919063ffffffff16565b906119fd565b60165550565b6000546001600160a01b031633146111325760405162461bcd60e51b81526004016106d59061258e565b6001600160a01b03811660009081526008602052604090205460ff1661119a5760405162461bcd60e51b815260206004820152601a60248201527f4163636f756e74206973206e6f7420626c61636b6c697374656400000000000060448201526064016106d5565b60005b600a54811015610b1357816001600160a01b0316600a82815481106111c4576111c46125c3565b6000918252602090912001546001600160a01b0316141561127a57600a80546111ef906001906125ef565b815481106111ff576111ff6125c3565b600091825260209091200154600a80546001600160a01b03909216918390811061122b5761122b6125c3565b600091825260208083209190910180546001600160a01b0319166001600160a01b039485161790559184168152600890915260409020805460ff19169055600a805480610adb57610adb612606565b806112848161261c565b91505061119d565b6000546001600160a01b031633146112b65760405162461bcd60e51b81526004016106d59061258e565b600e80546001600160a01b0319166001600160a01b0392909216919091179055565b6000546001600160a01b031633146113025760405162461bcd60e51b81526004016106d59061258e565b6103e88111156113545760405162461bcd60e51b815260206004820152601c60248201527f6d6178547850657263656e74206578636565647320646976696465720000000060448201526064016106d5565b61136f6103e86110fc83600b54611b7490919063ffffffff16565b60155550565b6000546001600160a01b0316331461139f5760405162461bcd60e51b81526004016106d59061258e565b6001600160a01b03166000908152600560205260409020805460ff19169055565b6000546001600160a01b031633146113ea5760405162461bcd60e51b81526004016106d59061258e565b6001600160a01b03811661144f5760405162461bcd60e51b815260206004820152602660248201527f4f776e61626c653a206e6577206f776e657220697320746865207a65726f206160448201526564647265737360d01b60648201526084016106d5565b600080546040516001600160a01b03808516939216917f8be0079c531659141344cd1fd0a4f28419497f9722a3daafe3b4186f6b6457e091a3600080546001600160a01b0319166001600160a01b0392909216919091179055565b6001600160a01b03831661150c5760405162461bcd60e51b8152602060048201526024808201527f45524332303a20617070726f76652066726f6d20746865207a65726f206164646044820152637265737360e01b60648201526084016106d5565b6001600160a01b03821661156d5760405162461bcd60e51b815260206004820152602260248201527f45524332303a20617070726f766520746f20746865207a65726f206164647265604482015261737360f01b60648201526084016106d5565b6001600160a01b0383811660008181526004602090815260408083209487168084529482529182902085905590518481527f8c5be1e5ebec7d5bd14f71427d1e84f3dd0314c0f7b2291e5b200ac8c7c3b925910160405180910390a3505050565b6001600160a01b0383166116325760405162461bcd60e51b815260206004820152602560248201527f45524332303a207472616e736665722066726f6d20746865207a65726f206164604482015264647265737360d81b60648201526084016106d5565b6001600160a01b0382166116945760405162461bcd60e51b815260206004820152602360248201527f45524332303a207472616e7366657220746f20746865207a65726f206164647260448201526265737360e81b60648201526084016106d5565b600081116116f65760405162461bcd60e51b815260206004820152602960248201527f5472616e7366657220616d6f756e74206d7573742062652067726561746572206044820152687468616e207a65726f60b81b60648201526084016106d5565b6001600160a01b03831660009081526008602052604090205460ff16156117555760405162461bcd60e51b8152602060048201526013602482015272165bdd48185c9948189b1858dadb1a5cdd1959606a1b60448201526064016106d5565b3360009081526008602052604090205460ff16156117a35760405162461bcd60e51b815260206004820152600b60248201526a189b1858dadb1a5cdd195960aa1b60448201526064016106d5565b3260009081526008602052604090205460ff16156117f15760405162461bcd60e51b815260206004820152600b60248201526a189b1858dadb1a5cdd195960aa1b60448201526064016106d5565b6001600160a01b03831660009081526005602052604090205460019060ff168061183357506001600160a01b03831660009081526005602052604090205460ff165b1561183c575060005b8015611994576001600160a01b03841660009081526009602052604090205460ff1615801561188457506001600160a01b03831660009081526009602052604090205460ff16155b15611994576015548211156118ec5760405162461bcd60e51b815260206004820152602860248201527f5472616e7366657220616d6f756e74206578636565647320746865206d6178546044820152673c20b6b7bab73a1760c11b60648201526084016106d5565b7f00000000000000000000000000000000000000000000000000000000000000006001600160a01b0316836001600160a01b0316146119945760165461193184610e39565b61193b9084612654565b11156119945760405162461bcd60e51b815260206004820152602260248201527f526563697069656e742065786365656473206d61782077616c6c65742073697a604482015261329760f11b60648201526084016106d5565b61100384848484611bf3565b600081848411156119c45760405162461bcd60e51b81526004016106d591906123d7565b5060006119d184866125ef565b95945050505050565b60008060006119e7611e47565b90925090506119f682826119fd565b9250505090565b600061095983836040518060400160405280601a81526020017f536166654d6174683a206469766973696f6e206279207a65726f000000000000815250611fc9565b600080611a4c8385612654565b9050838110156109595760405162461bcd60e51b815260206004820152601b60248201527f536166654d6174683a206164646974696f6e206f766572666c6f77000000000060448201526064016106d5565b600061095983836040518060400160405280601e81526020017f536166654d6174683a207375627472616374696f6e206f766572666c6f7700008152506119a0565b600080600080611aef85611ff7565b90506000611afc86612013565b90506000611b0a8784611a9e565b9050611b168183611a9e565b979296509094509092505050565b6000808080611b338886611b74565b90506000611b418887611b74565b90506000611b4f8888611b74565b90506000611b6182610ba78686611a9e565b939b939a50919850919650505050505050565b600082611b83575060006106a5565b6000611b8f838561266c565b905082611b9c858361268b565b146109595760405162461bcd60e51b815260206004820152602160248201527f536166654d6174683a206d756c7469706c69636174696f6e206f766572666c6f6044820152607760f81b60648201526084016106d5565b8015611ce157611c0b6014805463ffffffff19169055565b7f00000000000000000000000000000000000000000000000000000000000000006001600160a01b0316846001600160a01b03161415611c7657611c76601254601480546201000080840461ffff90811690910263ffffffff19909216931692909217919091179055565b7f00000000000000000000000000000000000000000000000000000000000000006001600160a01b0316836001600160a01b03161415611ce157611ce1601354601480546201000080840461ffff90811690910263ffffffff19909216931692909217919091179055565b6001600160a01b03841660009081526006602052604090205460ff168015611d2257506001600160a01b03831660009081526006602052604090205460ff16155b15611d3757611d32848484612035565b611e35565b6001600160a01b03841660009081526006602052604090205460ff16158015611d7857506001600160a01b03831660009081526006602052604090205460ff165b15611d8857611d32848484612169565b6001600160a01b03841660009081526006602052604090205460ff16158015611dca57506001600160a01b03831660009081526006602052604090205460ff16155b15611dda57611d32848484612220565b6001600160a01b03841660009081526006602052604090205460ff168015611e1a57506001600160a01b03831660009081526006602052604090205460ff165b15611e2a57611d32848484612272565b611e35848484612220565b6110036014805463ffffffff19169055565b600c54600b546000918291825b600754811015611f9957826002600060078481548110611e7657611e766125c3565b60009182526020808320909101546001600160a01b031683528201929092526040019020541180611ee15750816003600060078481548110611eba57611eba6125c3565b60009182526020808320909101546001600160a01b03168352820192909252604001902054115b15611ef757600c54600b54945094505050509091565b611f3d6002600060078481548110611f1157611f116125c3565b60009182526020808320909101546001600160a01b031683528201929092526040019020548490611a9e565b9250611f856003600060078481548110611f5957611f596125c3565b60009182526020808320909101546001600160a01b031683528201929092526040019020548390611a9e565b915080611f918161261c565b915050611e54565b50600b54600c54611fa9916119fd565b821015611fc057600c54600b549350935050509091565b90939092509050565b60008183611fea5760405162461bcd60e51b81526004016106d591906123d7565b5060006119d1848661268b565b6014546000906106a5906064906110fc90859061ffff16611b74565b6014546000906106a5906064906110fc90859062010000900461ffff16611b74565b600080600061204384611ae0565b925092509250600080600061205c878686610cc16119da565b6001600160a01b038c1660009081526003602052604090205492955090935091506120879088611a9e565b6001600160a01b038a166000908152600360209081526040808320939093556002905220546120b69084611a9e565b6001600160a01b03808b1660009081526002602052604080822093909355908a16815220546120e59083611a3f565b6001600160a01b038916600090815260026020526040902055612107846122f3565b61211181866123b3565b876001600160a01b0316896001600160a01b03167fddf252ad1be2c89b69c2b068fc378daa952ba7f163c4a11628f55a4df523b3ef8860405161215691815260200190565b60405180910390a3505050505050505050565b600080600061217784611ae0565b9250925092506000806000612190878686610cc16119da565b6001600160a01b038c1660009081526002602052604090205492955090935091506121bb9084611a9e565b6001600160a01b03808b16600090815260026020908152604080832094909455918b168152600390915220546121f19087611a3f565b6001600160a01b0389166000908152600360209081526040808320939093556002905220546120e59083611a3f565b600080600061222e84611ae0565b9250925092506000806000612247878686610cc16119da565b6001600160a01b038c1660009081526002602052604090205492955090935091506120b69084611a9e565b600080600061228084611ae0565b9250925092506000806000612299878686610cc16119da565b6001600160a01b038c1660009081526003602052604090205492955090935091506122c49088611a9e565b6001600160a01b038a166000908152600360209081526040808320939093556002905220546121bb9084611a9e565b60006122fd6119da565b9050600061230b8383611b74565b600e546001600160a01b03166000908152600260205260409020549091506123339082611a3f565b600e80546001600160a01b03908116600090815260026020908152604080832095909555925490911681526006909152205460ff16156123ae57600e546001600160a01b03166000908152600360205260409020546123929084611a3f565b600e546001600160a01b03166000908152600360205260409020555b505050565b600c546123c09083611a9e565b600c55600d546123d09082611a3f565b600d555050565b600060208083528351808285015260005b81811015612404578581018301518582016040015282016123e8565b81811115612416576000604083870101525b50601f01601f1916929092016040019392505050565b6001600160a01b038116811461244157600080fd5b50565b6000806040838503121561245757600080fd5b82356124628161242c565b946020939093013593505050565b60006020828403121561248257600080fd5b81356109598161242c565b6000806000606084860312156124a257600080fd5b83356124ad8161242c565b925060208401356124bd8161242c565b929592945050506040919091013590565b6000602082840312156124e057600080fd5b5035919050565b801515811461244157600080fd5b6000806040838503121561250857600080fd5b82359150602083013561251a816124e7565b809150509250929050565b6000806040838503121561253857600080fd5b82356125438161242c565b9150602083013561251a8161242c565b600181811c9082168061256757607f821691505b6020821081141561258857634e487b7160e01b600052602260045260246000fd5b50919050565b6020808252818101527f4f776e61626c653a2063616c6c6572206973206e6f7420746865206f776e6572604082015260600190565b634e487b7160e01b600052603260045260246000fd5b634e487b7160e01b600052601160045260246000fd5b600082821015612601576126016125d9565b500390565b634e487b7160e01b600052603160045260246000fd5b6000600019821415612630576126306125d9565b5060010190565b60006020828403121561264957600080fd5b8151610959816124e7565b60008219821115612667576126676125d9565b500190565b6000816000190483118215151615612686576126866125d9565b500290565b6000826126a857634e487b7160e01b600052601260045260246000fd5b50049056fe45524332303a207472616e7366657220616d6f756e74206578636565647320616c6c6f77616e636545524332303a2064656372656173656420616c6c6f77616e63652062656c6f77207a65726fa2646970667358221220aa170fd1932ee23297792089715b04acf719b51f0b4d71187b457180b3497c2e64736f6c634300080a0033",
			"opcodes": "PUSH1 0xC0 PUSH1 0x40 MSTORE PUSH7 0x2386F26FC10000 PUSH1 0xB DUP2 SWAP1 SSTORE PUSH3 0x1F SWAP1 PUSH1 0x0 NOT PUSH3 0x4BD JUMP JUMPDEST PUSH3 0x2D SWAP1 PUSH1 0x0 NOT PUSH3 0x4E0 JUMP JUMPDEST PUSH1 0xC SSTORE PUSH1 0xE DUP1 SLOAD PUSH1 0x1 PUSH1 0x1 PUSH1 0xA0 SHL SUB NOT AND PUSH20 0xC97137BDC16BB7A7548710EE0256410251CB4956 OR SWAP1 SSTORE PUSH1 0x40 DUP1 MLOAD DUP1 DUP3 ADD SWAP1 SWAP2 MSTORE PUSH1 0xD DUP1 DUP3 MSTORE PUSH13 0x436F666665652043727970746F PUSH1 0x98 SHL PUSH1 0x20 SWAP1 SWAP3 ADD SWAP2 DUP3 MSTORE PUSH3 0x8C SWAP2 PUSH1 0xF SWAP2 PUSH3 0x417 JUMP JUMPDEST POP PUSH1 0x40 DUP1 MLOAD DUP1 DUP3 ADD SWAP1 SWAP2 MSTORE PUSH1 0x4 DUP1 DUP3 MSTORE PUSH4 0x43464545 PUSH1 0xE0 SHL PUSH1 0x20 SWAP1 SWAP3 ADD SWAP2 DUP3 MSTORE PUSH3 0xBA SWAP2 PUSH1 0x10 SWAP2 PUSH3 0x417 JUMP JUMPDEST POP PUSH1 0x11 DUP1 SLOAD PUSH1 0xFF NOT AND PUSH1 0x8 OR SWAP1 SSTORE PUSH9 0x1B1AE4D6E2EF500000 PUSH1 0x15 SSTORE PUSH9 0x6C6B935B8BBD400000 PUSH1 0x16 SSTORE CALLVALUE DUP1 ISZERO PUSH3 0xEF JUMPI PUSH1 0x0 DUP1 REVERT JUMPDEST POP PUSH1 0x0 DUP1 SLOAD PUSH1 0x1 PUSH1 0x1 PUSH1 0xA0 SHL SUB NOT AND CALLER SWAP1 DUP2 OR DUP3 SSTORE PUSH1 0x40 MLOAD SWAP1 SWAP2 DUP3 SWAP2 PUSH32 0x8BE0079C531659141344CD1FD0A4F28419497F9722A3DAAFE3B4186F6B6457E0 SWAP1 DUP3 SWAP1 LOG3 POP PUSH1 0xC SLOAD CALLER PUSH1 0x0 SWAP1 DUP2 MSTORE PUSH1 0x2 PUSH1 0x20 SWAP1 DUP2 MSTORE PUSH1 0x40 SWAP2 DUP3 SWAP1 KECCAK256 SWAP3 SWAP1 SWAP3 SSTORE PUSH1 0x12 DUP1 SLOAD PUSH4 0xFFFFFFFF NOT SWAP1 DUP2 AND PUSH3 0x20002 OR SWAP1 SWAP2 SSTORE PUSH1 0x13 DUP1 SLOAD SWAP1 SWAP2 AND PUSH3 0x50005 OR SWAP1 SSTORE DUP1 MLOAD PUSH4 0xC45A0155 PUSH1 0xE0 SHL DUP2 MSTORE SWAP1 MLOAD PUSH20 0xD99D1C33F9FC3444F8101754ABC46C52416550D1 SWAP3 DUP4 SWAP3 PUSH4 0xC45A0155 SWAP3 PUSH1 0x4 DUP1 DUP4 ADD SWAP4 SWAP3 DUP3 SWAP1 SUB ADD DUP2 DUP7 GAS STATICCALL ISZERO DUP1 ISZERO PUSH3 0x1BB JUMPI RETURNDATASIZE PUSH1 0x0 DUP1 RETURNDATACOPY RETURNDATASIZE PUSH1 0x0 REVERT JUMPDEST POP POP POP POP PUSH1 0x40 MLOAD RETURNDATASIZE PUSH1 0x1F NOT PUSH1 0x1F DUP3 ADD AND DUP3 ADD DUP1 PUSH1 0x40 MSTORE POP DUP2 ADD SWAP1 PUSH3 0x1E1 SWAP2 SWAP1 PUSH3 0x506 JUMP JUMPDEST PUSH1 0x1 PUSH1 0x1 PUSH1 0xA0 SHL SUB AND PUSH4 0xC9C65396 ADDRESS DUP4 PUSH1 0x1 PUSH1 0x1 PUSH1 0xA0 SHL SUB AND PUSH4 0xAD5C4648 PUSH1 0x40 MLOAD DUP2 PUSH4 0xFFFFFFFF AND PUSH1 0xE0 SHL DUP2 MSTORE PUSH1 0x4 ADD PUSH1 0x20 PUSH1 0x40 MLOAD DUP1 DUP4 SUB DUP2 DUP7 GAS STATICCALL ISZERO DUP1 ISZERO PUSH3 0x22F JUMPI RETURNDATASIZE PUSH1 0x0 DUP1 RETURNDATACOPY RETURNDATASIZE PUSH1 0x0 REVERT JUMPDEST POP POP POP POP PUSH1 0x40 MLOAD RETURNDATASIZE PUSH1 0x1F NOT PUSH1 0x1F DUP3 ADD AND DUP3 ADD DUP1 PUSH1 0x40 MSTORE POP DUP2 ADD SWAP1 PUSH3 0x255 SWAP2 SWAP1 PUSH3 0x506 JUMP JUMPDEST PUSH1 0x40 MLOAD PUSH1 0x1 PUSH1 0x1 PUSH1 0xE0 SHL SUB NOT PUSH1 0xE0 DUP6 SWAP1 SHL AND DUP2 MSTORE PUSH1 0x1 PUSH1 0x1 PUSH1 0xA0 SHL SUB SWAP3 DUP4 AND PUSH1 0x4 DUP3 ADD MSTORE SWAP2 AND PUSH1 0x24 DUP3 ADD MSTORE PUSH1 0x44 ADD PUSH1 0x20 PUSH1 0x40 MLOAD DUP1 DUP4 SUB DUP2 PUSH1 0x0 DUP8 GAS CALL ISZERO DUP1 ISZERO PUSH3 0x2A3 JUMPI RETURNDATASIZE PUSH1 0x0 DUP1 RETURNDATACOPY RETURNDATASIZE PUSH1 0x0 REVERT JUMPDEST POP POP POP POP PUSH1 0x40 MLOAD RETURNDATASIZE PUSH1 0x1F NOT PUSH1 0x1F DUP3 ADD AND DUP3 ADD DUP1 PUSH1 0x40 MSTORE POP DUP2 ADD SWAP1 PUSH3 0x2C9 SWAP2 SWAP1 PUSH3 0x506 JUMP JUMPDEST PUSH1 0x1 PUSH1 0x1 PUSH1 0xA0 SHL SUB SWAP1 DUP2 AND PUSH1 0xA0 MSTORE DUP2 AND PUSH1 0x80 MSTORE PUSH1 0x1 PUSH1 0x5 PUSH1 0x0 PUSH3 0x2F5 PUSH1 0x0 SLOAD PUSH1 0x1 PUSH1 0x1 PUSH1 0xA0 SHL SUB AND SWAP1 JUMP JUMPDEST PUSH1 0x1 PUSH1 0x1 PUSH1 0xA0 SHL SUB SWAP1 DUP2 AND DUP3 MSTORE PUSH1 0x20 DUP1 DUP4 ADD SWAP4 SWAP1 SWAP4 MSTORE PUSH1 0x40 SWAP2 DUP3 ADD PUSH1 0x0 SWAP1 DUP2 KECCAK256 DUP1 SLOAD SWAP6 ISZERO ISZERO PUSH1 0xFF NOT SWAP7 DUP8 AND OR SWAP1 SSTORE ADDRESS DUP2 MSTORE PUSH1 0x5 DUP5 MSTORE DUP3 DUP2 KECCAK256 DUP1 SLOAD DUP7 AND PUSH1 0x1 SWAP1 DUP2 OR SWAP1 SWAP2 SSTORE PUSH1 0xE DUP1 SLOAD DUP5 AND DUP4 MSTORE DUP5 DUP4 KECCAK256 DUP1 SLOAD DUP9 AND DUP4 OR SWAP1 SSTORE SLOAD SWAP1 SWAP3 AND DUP2 MSTORE PUSH1 0x9 SWAP4 DUP5 SWAP1 MSTORE SWAP2 DUP3 KECCAK256 DUP1 SLOAD SWAP1 SWAP5 AND DUP2 OR SWAP1 SWAP4 SSTORE PUSH3 0x378 PUSH1 0x0 SLOAD PUSH1 0x1 PUSH1 0x1 PUSH1 0xA0 SHL SUB AND SWAP1 JUMP JUMPDEST PUSH1 0x1 PUSH1 0x1 PUSH1 0xA0 SHL SUB AND DUP2 MSTORE PUSH1 0x20 DUP1 DUP3 ADD SWAP3 SWAP1 SWAP3 MSTORE PUSH1 0x40 SWAP1 DUP2 ADD PUSH1 0x0 SWAP1 DUP2 KECCAK256 DUP1 SLOAD SWAP5 ISZERO ISZERO PUSH1 0xFF NOT SWAP6 DUP7 AND OR SWAP1 SSTORE ADDRESS DUP2 MSTORE PUSH1 0x9 SWAP1 SWAP3 MSTORE SWAP1 KECCAK256 DUP1 SLOAD SWAP1 SWAP2 AND PUSH1 0x1 OR SWAP1 SSTORE PUSH3 0x3C0 CALLER SWAP1 JUMP JUMPDEST PUSH1 0x1 PUSH1 0x1 PUSH1 0xA0 SHL SUB AND PUSH1 0x0 PUSH1 0x1 PUSH1 0x1 PUSH1 0xA0 SHL SUB AND PUSH32 0xDDF252AD1BE2C89B69C2B068FC378DAA952BA7F163C4A11628F55A4DF523B3EF PUSH1 0xB SLOAD PUSH1 0x40 MLOAD PUSH3 0x408 SWAP2 DUP2 MSTORE PUSH1 0x20 ADD SWAP1 JUMP JUMPDEST PUSH1 0x40 MLOAD DUP1 SWAP2 SUB SWAP1 LOG3 POP PUSH3 0x575 JUMP JUMPDEST DUP3 DUP1 SLOAD PUSH3 0x425 SWAP1 PUSH3 0x538 JUMP JUMPDEST SWAP1 PUSH1 0x0 MSTORE PUSH1 0x20 PUSH1 0x0 KECCAK256 SWAP1 PUSH1 0x1F ADD PUSH1 0x20 SWAP1 DIV DUP2 ADD SWAP3 DUP3 PUSH3 0x449 JUMPI PUSH1 0x0 DUP6 SSTORE PUSH3 0x494 JUMP JUMPDEST DUP3 PUSH1 0x1F LT PUSH3 0x464 JUMPI DUP1 MLOAD PUSH1 0xFF NOT AND DUP4 DUP1 ADD OR DUP6 SSTORE PUSH3 0x494 JUMP JUMPDEST DUP3 DUP1 ADD PUSH1 0x1 ADD DUP6 SSTORE DUP3 ISZERO PUSH3 0x494 JUMPI SWAP2 DUP3 ADD JUMPDEST DUP3 DUP2 GT ISZERO PUSH3 0x494 JUMPI DUP3 MLOAD DUP3 SSTORE SWAP2 PUSH1 0x20 ADD SWAP2 SWAP1 PUSH1 0x1 ADD SWAP1 PUSH3 0x477 JUMP JUMPDEST POP PUSH3 0x4A2 SWAP3 SWAP2 POP PUSH3 0x4A6 JUMP JUMPDEST POP SWAP1 JUMP JUMPDEST JUMPDEST DUP1 DUP3 GT ISZERO PUSH3 0x4A2 JUMPI PUSH1 0x0 DUP2 SSTORE PUSH1 0x1 ADD PUSH3 0x4A7 JUMP JUMPDEST PUSH1 0x0 DUP3 PUSH3 0x4DB JUMPI PUSH4 0x4E487B71 PUSH1 0xE0 SHL PUSH1 0x0 MSTORE PUSH1 0x12 PUSH1 0x4 MSTORE PUSH1 0x24 PUSH1 0x0 REVERT JUMPDEST POP MOD SWAP1 JUMP JUMPDEST PUSH1 0x0 DUP3 DUP3 LT ISZERO PUSH3 0x501 JUMPI PUSH4 0x4E487B71 PUSH1 0xE0 SHL PUSH1 0x0 MSTORE PUSH1 0x11 PUSH1 0x4 MSTORE PUSH1 0x24 PUSH1 0x0 REVERT JUMPDEST POP SUB SWAP1 JUMP JUMPDEST PUSH1 0x0 PUSH1 0x20 DUP3 DUP5 SUB SLT ISZERO PUSH3 0x519 JUMPI PUSH1 0x0 DUP1 REVERT JUMPDEST DUP2 MLOAD PUSH1 0x1 PUSH1 0x1 PUSH1 0xA0 SHL SUB DUP2 AND DUP2 EQ PUSH3 0x531 JUMPI PUSH1 0x0 DUP1 REVERT JUMPDEST SWAP4 SWAP3 POP POP POP JUMP JUMPDEST PUSH1 0x1 DUP2 DUP2 SHR SWAP1 DUP3 AND DUP1 PUSH3 0x54D JUMPI PUSH1 0x7F DUP3 AND SWAP2 POP JUMPDEST PUSH1 0x20 DUP3 LT DUP2 EQ ISZERO PUSH3 0x56F JUMPI PUSH4 0x4E487B71 PUSH1 0xE0 SHL PUSH1 0x0 MSTORE PUSH1 0x22 PUSH1 0x4 MSTORE PUSH1 0x24 PUSH1 0x0 REVERT JUMPDEST POP SWAP2 SWAP1 POP JUMP JUMPDEST PUSH1 0x80 MLOAD PUSH1 0xA0 MLOAD PUSH2 0x2730 PUSH3 0x5B0 PUSH1 0x0 CODECOPY PUSH1 0x0 DUP2 DUP2 PUSH2 0x3F9 ADD MSTORE DUP2 DUP2 PUSH2 0x18EE ADD MSTORE DUP2 DUP2 PUSH2 0x1C0D ADD MSTORE PUSH2 0x1C78 ADD MSTORE PUSH1 0x0 PUSH2 0x2BA ADD MSTORE PUSH2 0x2730 PUSH1 0x0 RETURN INVALID PUSH1 0x80 PUSH1 0x40 MSTORE CALLVALUE DUP1 ISZERO PUSH2 0x10 JUMPI PUSH1 0x0 DUP1 REVERT JUMPDEST POP PUSH1 0x4 CALLDATASIZE LT PUSH2 0x248 JUMPI PUSH1 0x0 CALLDATALOAD PUSH1 0xE0 SHR DUP1 PUSH4 0x5342ACB4 GT PUSH2 0x13B JUMPI DUP1 PUSH4 0xA457C2D7 GT PUSH2 0xB8 JUMPI DUP1 PUSH4 0xD543DBEB GT PUSH2 0x7C JUMPI DUP1 PUSH4 0xD543DBEB EQ PUSH2 0x564 JUMPI DUP1 PUSH4 0xD94160E0 EQ PUSH2 0x577 JUMPI DUP1 PUSH4 0xDD62ED3E EQ PUSH2 0x5A3 JUMPI DUP1 PUSH4 0xEA2F0B37 EQ PUSH2 0x5DC JUMPI DUP1 PUSH4 0xF2FDE38B EQ PUSH2 0x5EF JUMPI PUSH1 0x0 DUP1 REVERT JUMPDEST DUP1 PUSH4 0xA457C2D7 EQ PUSH2 0x505 JUMPI DUP1 PUSH4 0xA9059CBB EQ PUSH2 0x518 JUMPI DUP1 PUSH4 0xAF2CE614 EQ PUSH2 0x52B JUMPI DUP1 PUSH4 0xB030B34A EQ PUSH2 0x53E JUMPI DUP1 PUSH4 0xBA1C4246 EQ PUSH2 0x551 JUMPI PUSH1 0x0 DUP1 REVERT JUMPDEST DUP1 PUSH4 0x8DA5CB5B GT PUSH2 0xFF JUMPI DUP1 PUSH4 0x8DA5CB5B EQ PUSH2 0x4BD JUMPI DUP1 PUSH4 0x8F9A55C0 EQ PUSH2 0x4CE JUMPI DUP1 PUSH4 0x91D919A9 EQ PUSH2 0x4D7 JUMPI DUP1 PUSH4 0x95D89B41 EQ PUSH2 0x4EA JUMPI DUP1 PUSH4 0x9E281A98 EQ PUSH2 0x4F2 JUMPI PUSH1 0x0 DUP1 REVERT JUMPDEST DUP1 PUSH4 0x5342ACB4 EQ PUSH2 0x441 JUMPI DUP1 PUSH4 0x70A08231 EQ PUSH2 0x46D JUMPI DUP1 PUSH4 0x715018A6 EQ PUSH2 0x480 JUMPI DUP1 PUSH4 0x7D1DB4A5 EQ PUSH2 0x488 JUMPI DUP1 PUSH4 0x88F82020 EQ PUSH2 0x491 JUMPI PUSH1 0x0 DUP1 REVERT JUMPDEST DUP1 PUSH4 0x313CE567 GT PUSH2 0x1C9 JUMPI DUP1 PUSH4 0x4549B039 GT PUSH2 0x18D JUMPI DUP1 PUSH4 0x4549B039 EQ PUSH2 0x3C9 JUMPI DUP1 PUSH4 0x47062402 EQ PUSH2 0x3DC JUMPI DUP1 PUSH4 0x49BD5A5E EQ PUSH2 0x3F4 JUMPI DUP1 PUSH4 0x4EEB94CE EQ PUSH2 0x41B JUMPI DUP1 PUSH4 0x52390C02 EQ PUSH2 0x42E JUMPI PUSH1 0x0 DUP1 REVERT JUMPDEST DUP1 PUSH4 0x313CE567 EQ PUSH2 0x368 JUMPI DUP1 PUSH4 0x3685D419 EQ PUSH2 0x37D JUMPI DUP1 PUSH4 0x39509351 EQ PUSH2 0x390 JUMPI DUP1 PUSH4 0x42966C68 EQ PUSH2 0x3A3 JUMPI DUP1 PUSH4 0x437823EC EQ PUSH2 0x3B6 JUMPI PUSH1 0x0 DUP1 REVERT JUMPDEST DUP1 PUSH4 0x18160DDD GT PUSH2 0x210 JUMPI DUP1 PUSH4 0x18160DDD EQ PUSH2 0x2F4 JUMPI DUP1 PUSH4 0x1D7EF879 EQ PUSH2 0x2FC JUMPI DUP1 PUSH4 0x23B872DD EQ PUSH2 0x30F JUMPI DUP1 PUSH4 0x2B14CA56 EQ PUSH2 0x322 JUMPI DUP1 PUSH4 0x2D838119 EQ PUSH2 0x355 JUMPI PUSH1 0x0 DUP1 REVERT JUMPDEST DUP1 PUSH4 0x6FDDE03 EQ PUSH2 0x24D JUMPI DUP1 PUSH4 0x95EA7B3 EQ PUSH2 0x26B JUMPI DUP1 PUSH4 0xBD3A7F9 EQ PUSH2 0x28E JUMPI DUP1 PUSH4 0x13114A9D EQ PUSH2 0x2A3 JUMPI DUP1 PUSH4 0x1694505E EQ PUSH2 0x2B5 JUMPI JUMPDEST PUSH1 0x0 DUP1 REVERT JUMPDEST PUSH2 0x255 PUSH2 0x602 JUMP JUMPDEST PUSH1 0x40 MLOAD PUSH2 0x262 SWAP2 SWAP1 PUSH2 0x23D7 JUMP JUMPDEST PUSH1 0x40 MLOAD DUP1 SWAP2 SUB SWAP1 RETURN JUMPDEST PUSH2 0x27E PUSH2 0x279 CALLDATASIZE PUSH1 0x4 PUSH2 0x2444 JUMP JUMPDEST PUSH2 0x694 JUMP JUMPDEST PUSH1 0x40 MLOAD SWAP1 ISZERO ISZERO DUP2 MSTORE PUSH1 0x20 ADD PUSH2 0x262 JUMP JUMPDEST PUSH2 0x2A1 PUSH2 0x29C CALLDATASIZE PUSH1 0x4 PUSH2 0x2470 JUMP JUMPDEST PUSH2 0x6AB JUMP JUMPDEST STOP JUMPDEST PUSH1 0xD SLOAD JUMPDEST PUSH1 0x40 MLOAD SWAP1 DUP2 MSTORE PUSH1 0x20 ADD PUSH2 0x262 JUMP JUMPDEST PUSH2 0x2DC PUSH32 0x0 DUP2 JUMP JUMPDEST PUSH1 0x40 MLOAD PUSH1 0x1 PUSH1 0x1 PUSH1 0xA0 SHL SUB SWAP1 SWAP2 AND DUP2 MSTORE PUSH1 0x20 ADD PUSH2 0x262 JUMP JUMPDEST PUSH1 0xB SLOAD PUSH2 0x2A7 JUMP JUMPDEST PUSH2 0x2A1 PUSH2 0x30A CALLDATASIZE PUSH1 0x4 PUSH2 0x2470 JUMP JUMPDEST PUSH2 0x702 JUMP JUMPDEST PUSH2 0x27E PUSH2 0x31D CALLDATASIZE PUSH1 0x4 PUSH2 0x248D JUMP JUMPDEST PUSH2 0x873 JUMP JUMPDEST PUSH1 0x13 SLOAD PUSH2 0x33A SWAP1 PUSH2 0xFFFF DUP1 DUP3 AND SWAP2 PUSH3 0x10000 SWAP1 DIV AND DUP3 JUMP JUMPDEST PUSH1 0x40 DUP1 MLOAD PUSH2 0xFFFF SWAP4 DUP5 AND DUP2 MSTORE SWAP3 SWAP1 SWAP2 AND PUSH1 0x20 DUP4 ADD MSTORE ADD PUSH2 0x262 JUMP JUMPDEST PUSH2 0x2A7 PUSH2 0x363 CALLDATASIZE PUSH1 0x4 PUSH2 0x24CE JUMP JUMPDEST PUSH2 0x8DC JUMP JUMPDEST PUSH1 0x11 SLOAD PUSH1 0x40 MLOAD PUSH1 0xFF SWAP1 SWAP2 AND DUP2 MSTORE PUSH1 0x20 ADD PUSH2 0x262 JUMP JUMPDEST PUSH2 0x2A1 PUSH2 0x38B CALLDATASIZE PUSH1 0x4 PUSH2 0x2470 JUMP JUMPDEST PUSH2 0x960 JUMP JUMPDEST PUSH2 0x27E PUSH2 0x39E CALLDATASIZE PUSH1 0x4 PUSH2 0x2444 JUMP JUMPDEST PUSH2 0xB17 JUMP JUMPDEST PUSH2 0x2A1 PUSH2 0x3B1 CALLDATASIZE PUSH1 0x4 PUSH2 0x24CE JUMP JUMPDEST PUSH2 0xB4D JUMP JUMPDEST PUSH2 0x2A1 PUSH2 0x3C4 CALLDATASIZE PUSH1 0x4 PUSH2 0x2470 JUMP JUMPDEST PUSH2 0xBFD JUMP JUMPDEST PUSH2 0x2A7 PUSH2 0x3D7 CALLDATASIZE PUSH1 0x4 PUSH2 0x24F5 JUMP JUMPDEST PUSH2 0xC4B JUMP JUMPDEST PUSH1 0x12 SLOAD PUSH2 0x33A SWAP1 PUSH2 0xFFFF DUP1 DUP3 AND SWAP2 PUSH3 0x10000 SWAP1 DIV AND DUP3 JUMP JUMPDEST PUSH2 0x2DC PUSH32 0x0 DUP2 JUMP JUMPDEST PUSH1 0xE SLOAD PUSH2 0x2DC SWAP1 PUSH1 0x1 PUSH1 0x1 PUSH1 0xA0 SHL SUB AND DUP2 JUMP JUMPDEST PUSH2 0x2A1 PUSH2 0x43C CALLDATASIZE PUSH1 0x4 PUSH2 0x2470 JUMP JUMPDEST PUSH2 0xCE6 JUMP JUMPDEST PUSH2 0x27E PUSH2 0x44F CALLDATASIZE PUSH1 0x4 PUSH2 0x2470 JUMP JUMPDEST PUSH1 0x1 PUSH1 0x1 PUSH1 0xA0 SHL SUB AND PUSH1 0x0 SWAP1 DUP2 MSTORE PUSH1 0x5 PUSH1 0x20 MSTORE PUSH1 0x40 SWAP1 KECCAK256 SLOAD PUSH1 0xFF AND SWAP1 JUMP JUMPDEST PUSH2 0x2A7 PUSH2 0x47B CALLDATASIZE PUSH1 0x4 PUSH2 0x2470 JUMP JUMPDEST PUSH2 0xE39 JUMP JUMPDEST PUSH2 0x2A1 PUSH2 0xE98 JUMP JUMPDEST PUSH2 0x2A7 PUSH1 0x15 SLOAD DUP2 JUMP JUMPDEST PUSH2 0x27E PUSH2 0x49F CALLDATASIZE PUSH1 0x4 PUSH2 0x2470 JUMP JUMPDEST PUSH1 0x1 PUSH1 0x1 PUSH1 0xA0 SHL SUB AND PUSH1 0x0 SWAP1 DUP2 MSTORE PUSH1 0x6 PUSH1 0x20 MSTORE PUSH1 0x40 SWAP1 KECCAK256 SLOAD PUSH1 0xFF AND SWAP1 JUMP JUMPDEST PUSH1 0x0 SLOAD PUSH1 0x1 PUSH1 0x1 PUSH1 0xA0 SHL SUB AND PUSH2 0x2DC JUMP JUMPDEST PUSH2 0x2A7 PUSH1 0x16 SLOAD DUP2 JUMP JUMPDEST PUSH2 0x2A1 PUSH2 0x4E5 CALLDATASIZE PUSH1 0x4 PUSH2 0x2470 JUMP JUMPDEST PUSH2 0xF0C JUMP JUMPDEST PUSH2 0x255 PUSH2 0xF57 JUMP JUMPDEST PUSH2 0x2A1 PUSH2 0x500 CALLDATASIZE PUSH1 0x4 PUSH2 0x2444 JUMP JUMPDEST PUSH2 0xF66 JUMP JUMPDEST PUSH2 0x27E PUSH2 0x513 CALLDATASIZE PUSH1 0x4 PUSH2 0x2444 JUMP JUMPDEST PUSH2 0x1009 JUMP JUMPDEST PUSH2 0x27E PUSH2 0x526 CALLDATASIZE PUSH1 0x4 PUSH2 0x2444 JUMP JUMPDEST PUSH2 0x1058 JUMP JUMPDEST PUSH2 0x2A1 PUSH2 0x539 CALLDATASIZE PUSH1 0x4 PUSH2 0x24CE JUMP JUMPDEST PUSH2 0x1065 JUMP JUMPDEST PUSH2 0x2A1 PUSH2 0x54C CALLDATASIZE PUSH1 0x4 PUSH2 0x2470 JUMP JUMPDEST PUSH2 0x1108 JUMP JUMPDEST PUSH2 0x2A1 PUSH2 0x55F CALLDATASIZE PUSH1 0x4 PUSH2 0x2470 JUMP JUMPDEST PUSH2 0x128C JUMP JUMPDEST PUSH2 0x2A1 PUSH2 0x572 CALLDATASIZE PUSH1 0x4 PUSH2 0x24CE JUMP JUMPDEST PUSH2 0x12D8 JUMP JUMPDEST PUSH2 0x27E PUSH2 0x585 CALLDATASIZE PUSH1 0x4 PUSH2 0x2470 JUMP JUMPDEST PUSH1 0x1 PUSH1 0x1 PUSH1 0xA0 SHL SUB AND PUSH1 0x0 SWAP1 DUP2 MSTORE PUSH1 0x9 PUSH1 0x20 MSTORE PUSH1 0x40 SWAP1 KECCAK256 SLOAD PUSH1 0xFF AND SWAP1 JUMP JUMPDEST PUSH2 0x2A7 PUSH2 0x5B1 CALLDATASIZE PUSH1 0x4 PUSH2 0x2525 JUMP JUMPDEST PUSH1 0x1 PUSH1 0x1 PUSH1 0xA0 SHL SUB SWAP2 DUP3 AND PUSH1 0x0 SWAP1 DUP2 MSTORE PUSH1 0x4 PUSH1 0x20 SWAP1 DUP2 MSTORE PUSH1 0x40 DUP1 DUP4 KECCAK256 SWAP4 SWAP1 SWAP5 AND DUP3 MSTORE SWAP2 SWAP1 SWAP2 MSTORE KECCAK256 SLOAD SWAP1 JUMP JUMPDEST PUSH2 0x2A1 PUSH2 0x5EA CALLDATASIZE PUSH1 0x4 PUSH2 0x2470 JUMP JUMPDEST PUSH2 0x1375 JUMP JUMPDEST PUSH2 0x2A1 PUSH2 0x5FD CALLDATASIZE PUSH1 0x4 PUSH2 0x2470 JUMP JUMPDEST PUSH2 0x13C0 JUMP JUMPDEST PUSH1 0x60 PUSH1 0xF DUP1 SLOAD PUSH2 0x611 SWAP1 PUSH2 0x2553 JUMP JUMPDEST DUP1 PUSH1 0x1F ADD PUSH1 0x20 DUP1 SWAP2 DIV MUL PUSH1 0x20 ADD PUSH1 0x40 MLOAD SWAP1 DUP2 ADD PUSH1 0x40 MSTORE DUP1 SWAP3 SWAP2 SWAP1 DUP2 DUP2 MSTORE PUSH1 0x20 ADD DUP3 DUP1 SLOAD PUSH2 0x63D SWAP1 PUSH2 0x2553 JUMP JUMPDEST DUP1 ISZERO PUSH2 0x68A JUMPI DUP1 PUSH1 0x1F LT PUSH2 0x65F JUMPI PUSH2 0x100 DUP1 DUP4 SLOAD DIV MUL DUP4 MSTORE SWAP2 PUSH1 0x20 ADD SWAP2 PUSH2 0x68A JUMP JUMPDEST DUP3 ADD SWAP2 SWAP1 PUSH1 0x0 MSTORE PUSH1 0x20 PUSH1 0x0 KECCAK256 SWAP1 JUMPDEST DUP2 SLOAD DUP2 MSTORE SWAP1 PUSH1 0x1 ADD SWAP1 PUSH1 0x20 ADD DUP1 DUP4 GT PUSH2 0x66D JUMPI DUP3 SWAP1 SUB PUSH1 0x1F AND DUP3 ADD SWAP2 JUMPDEST POP POP POP POP POP SWAP1 POP SWAP1 JUMP JUMPDEST PUSH1 0x0 PUSH2 0x6A1 CALLER DUP5 DUP5 PUSH2 0x14AA JUMP JUMPDEST POP PUSH1 0x1 JUMPDEST SWAP3 SWAP2 POP POP JUMP JUMPDEST PUSH1 0x0 SLOAD PUSH1 0x1 PUSH1 0x1 PUSH1 0xA0 SHL SUB AND CALLER EQ PUSH2 0x6DE JUMPI PUSH1 0x40 MLOAD PUSH3 0x461BCD PUSH1 0xE5 SHL DUP2 MSTORE PUSH1 0x4 ADD PUSH2 0x6D5 SWAP1 PUSH2 0x258E JUMP JUMPDEST PUSH1 0x40 MLOAD DUP1 SWAP2 SUB SWAP1 REVERT JUMPDEST PUSH1 0x1 PUSH1 0x1 PUSH1 0xA0 SHL SUB AND PUSH1 0x0 SWAP1 DUP2 MSTORE PUSH1 0x9 PUSH1 0x20 MSTORE PUSH1 0x40 SWAP1 KECCAK256 DUP1 SLOAD PUSH1 0xFF NOT AND PUSH1 0x1 OR SWAP1 SSTORE JUMP JUMPDEST PUSH1 0x0 SLOAD PUSH1 0x1 PUSH1 0x1 PUSH1 0xA0 SHL SUB AND CALLER EQ PUSH2 0x72C JUMPI PUSH1 0x40 MLOAD PUSH3 0x461BCD PUSH1 0xE5 SHL DUP2 MSTORE PUSH1 0x4 ADD PUSH2 0x6D5 SWAP1 PUSH2 0x258E JUMP JUMPDEST PUSH20 0xD99D1C33F9FC3444F8101754ABC46C52416550D1 PUSH1 0x1 PUSH1 0x1 PUSH1 0xA0 SHL SUB DUP3 AND EQ ISZERO PUSH2 0x7A4 JUMPI PUSH1 0x40 MLOAD PUSH3 0x461BCD PUSH1 0xE5 SHL DUP2 MSTORE PUSH1 0x20 PUSH1 0x4 DUP3 ADD MSTORE PUSH1 0x22 PUSH1 0x24 DUP3 ADD MSTORE PUSH32 0x57652063616E6E6F7420626C61636B6C69737420556E695377617020726F7574 PUSH1 0x44 DUP3 ADD MSTORE PUSH2 0x32B9 PUSH1 0xF1 SHL PUSH1 0x64 DUP3 ADD MSTORE PUSH1 0x84 ADD PUSH2 0x6D5 JUMP JUMPDEST PUSH1 0x1 PUSH1 0x1 PUSH1 0xA0 SHL SUB DUP2 AND PUSH1 0x0 SWAP1 DUP2 MSTORE PUSH1 0x8 PUSH1 0x20 MSTORE PUSH1 0x40 SWAP1 KECCAK256 SLOAD PUSH1 0xFF AND ISZERO PUSH2 0x80D JUMPI PUSH1 0x40 MLOAD PUSH3 0x461BCD PUSH1 0xE5 SHL DUP2 MSTORE PUSH1 0x20 PUSH1 0x4 DUP3 ADD MSTORE PUSH1 0x1E PUSH1 0x24 DUP3 ADD MSTORE PUSH32 0x4163636F756E7420697320616C726561647920626C61636B6C69737465640000 PUSH1 0x44 DUP3 ADD MSTORE PUSH1 0x64 ADD PUSH2 0x6D5 JUMP JUMPDEST PUSH1 0x1 PUSH1 0x1 PUSH1 0xA0 SHL SUB AND PUSH1 0x0 DUP2 DUP2 MSTORE PUSH1 0x8 PUSH1 0x20 MSTORE PUSH1 0x40 DUP2 KECCAK256 DUP1 SLOAD PUSH1 0xFF NOT AND PUSH1 0x1 SWAP1 DUP2 OR SWAP1 SWAP2 SSTORE PUSH1 0xA DUP1 SLOAD SWAP2 DUP3 ADD DUP2 SSTORE SWAP1 SWAP2 MSTORE PUSH32 0xC65A7BB8D6351C1CF70C95A316CC6A92839C986682D98BC35F958F4883F9D2A8 ADD DUP1 SLOAD PUSH1 0x1 PUSH1 0x1 PUSH1 0xA0 SHL SUB NOT AND SWAP1 SWAP2 OR SWAP1 SSTORE JUMP JUMPDEST PUSH1 0x0 PUSH2 0x880 DUP5 DUP5 DUP5 PUSH2 0x15CE JUMP JUMPDEST PUSH2 0x8D2 DUP5 CALLER PUSH2 0x8CD DUP6 PUSH1 0x40 MLOAD DUP1 PUSH1 0x60 ADD PUSH1 0x40 MSTORE DUP1 PUSH1 0x28 DUP2 MSTORE PUSH1 0x20 ADD PUSH2 0x26AE PUSH1 0x28 SWAP2 CODECOPY PUSH1 0x1 PUSH1 0x1 PUSH1 0xA0 SHL SUB DUP11 AND PUSH1 0x0 SWAP1 DUP2 MSTORE PUSH1 0x4 PUSH1 0x20 SWAP1 DUP2 MSTORE PUSH1 0x40 DUP1 DUP4 KECCAK256 CALLER DUP5 MSTORE SWAP1 SWAP2 MSTORE SWAP1 KECCAK256 SLOAD SWAP2 SWAP1 PUSH2 0x19A0 JUMP JUMPDEST PUSH2 0x14AA JUMP JUMPDEST POP PUSH1 0x1 SWAP4 SWAP3 POP POP POP JUMP JUMPDEST PUSH1 0x0 PUSH1 0xC SLOAD DUP3 GT ISZERO PUSH2 0x943 JUMPI PUSH1 0x40 MLOAD PUSH3 0x461BCD PUSH1 0xE5 SHL DUP2 MSTORE PUSH1 0x20 PUSH1 0x4 DUP3 ADD MSTORE PUSH1 0x2A PUSH1 0x24 DUP3 ADD MSTORE PUSH32 0x416D6F756E74206D757374206265206C657373207468616E20746F74616C2072 PUSH1 0x44 DUP3 ADD MSTORE PUSH10 0x65666C656374696F6E73 PUSH1 0xB0 SHL PUSH1 0x64 DUP3 ADD MSTORE PUSH1 0x84 ADD PUSH2 0x6D5 JUMP JUMPDEST PUSH1 0x0 PUSH2 0x94D PUSH2 0x19DA JUMP JUMPDEST SWAP1 POP PUSH2 0x959 DUP4 DUP3 PUSH2 0x19FD JUMP JUMPDEST SWAP4 SWAP3 POP POP POP JUMP JUMPDEST PUSH1 0x0 SLOAD PUSH1 0x1 PUSH1 0x1 PUSH1 0xA0 SHL SUB AND CALLER EQ PUSH2 0x98A JUMPI PUSH1 0x40 MLOAD PUSH3 0x461BCD PUSH1 0xE5 SHL DUP2 MSTORE PUSH1 0x4 ADD PUSH2 0x6D5 SWAP1 PUSH2 0x258E JUMP JUMPDEST PUSH1 0x1 PUSH1 0x1 PUSH1 0xA0 SHL SUB DUP2 AND PUSH1 0x0 SWAP1 DUP2 MSTORE PUSH1 0x6 PUSH1 0x20 MSTORE PUSH1 0x40 SWAP1 KECCAK256 SLOAD PUSH1 0xFF AND PUSH2 0x9F2 JUMPI PUSH1 0x40 MLOAD PUSH3 0x461BCD PUSH1 0xE5 SHL DUP2 MSTORE PUSH1 0x20 PUSH1 0x4 DUP3 ADD MSTORE PUSH1 0x17 PUSH1 0x24 DUP3 ADD MSTORE PUSH32 0x4163636F756E74206973206E6F74206578636C75646564000000000000000000 PUSH1 0x44 DUP3 ADD MSTORE PUSH1 0x64 ADD PUSH2 0x6D5 JUMP JUMPDEST PUSH1 0x0 JUMPDEST PUSH1 0x7 SLOAD DUP2 LT ISZERO PUSH2 0xB13 JUMPI DUP2 PUSH1 0x1 PUSH1 0x1 PUSH1 0xA0 SHL SUB AND PUSH1 0x7 DUP3 DUP2 SLOAD DUP2 LT PUSH2 0xA1C JUMPI PUSH2 0xA1C PUSH2 0x25C3 JUMP JUMPDEST PUSH1 0x0 SWAP2 DUP3 MSTORE PUSH1 0x20 SWAP1 SWAP2 KECCAK256 ADD SLOAD PUSH1 0x1 PUSH1 0x1 PUSH1 0xA0 SHL SUB AND EQ ISZERO PUSH2 0xB01 JUMPI PUSH1 0x7 DUP1 SLOAD PUSH2 0xA47 SWAP1 PUSH1 0x1 SWAP1 PUSH2 0x25EF JUMP JUMPDEST DUP2 SLOAD DUP2 LT PUSH2 0xA57 JUMPI PUSH2 0xA57 PUSH2 0x25C3 JUMP JUMPDEST PUSH1 0x0 SWAP2 DUP3 MSTORE PUSH1 0x20 SWAP1 SWAP2 KECCAK256 ADD SLOAD PUSH1 0x7 DUP1 SLOAD PUSH1 0x1 PUSH1 0x1 PUSH1 0xA0 SHL SUB SWAP1 SWAP3 AND SWAP2 DUP4 SWAP1 DUP2 LT PUSH2 0xA83 JUMPI PUSH2 0xA83 PUSH2 0x25C3 JUMP JUMPDEST PUSH1 0x0 SWAP2 DUP3 MSTORE PUSH1 0x20 DUP1 DUP4 KECCAK256 SWAP2 SWAP1 SWAP2 ADD DUP1 SLOAD PUSH1 0x1 PUSH1 0x1 PUSH1 0xA0 SHL SUB NOT AND PUSH1 0x1 PUSH1 0x1 PUSH1 0xA0 SHL SUB SWAP5 DUP6 AND OR SWAP1 SSTORE SWAP2 DUP5 AND DUP2 MSTORE PUSH1 0x3 DUP3 MSTORE PUSH1 0x40 DUP1 DUP3 KECCAK256 DUP3 SWAP1 SSTORE PUSH1 0x6 SWAP1 SWAP3 MSTORE KECCAK256 DUP1 SLOAD PUSH1 0xFF NOT AND SWAP1 SSTORE PUSH1 0x7 DUP1 SLOAD DUP1 PUSH2 0xADB JUMPI PUSH2 0xADB PUSH2 0x2606 JUMP JUMPDEST PUSH1 0x0 DUP3 DUP2 MSTORE PUSH1 0x20 SWAP1 KECCAK256 DUP2 ADD PUSH1 0x0 NOT SWAP1 DUP2 ADD DUP1 SLOAD PUSH1 0x1 PUSH1 0x1 PUSH1 0xA0 SHL SUB NOT AND SWAP1 SSTORE ADD SWAP1 SSTORE POP POP JUMP JUMPDEST DUP1 PUSH2 0xB0B DUP2 PUSH2 0x261C JUMP JUMPDEST SWAP2 POP POP PUSH2 0x9F5 JUMP JUMPDEST POP POP JUMP JUMPDEST CALLER PUSH1 0x0 DUP2 DUP2 MSTORE PUSH1 0x4 PUSH1 0x20 SWAP1 DUP2 MSTORE PUSH1 0x40 DUP1 DUP4 KECCAK256 PUSH1 0x1 PUSH1 0x1 PUSH1 0xA0 SHL SUB DUP8 AND DUP5 MSTORE SWAP1 SWAP2 MSTORE DUP2 KECCAK256 SLOAD SWAP1 SWAP2 PUSH2 0x6A1 SWAP2 DUP6 SWAP1 PUSH2 0x8CD SWAP1 DUP7 PUSH2 0x1A3F JUMP JUMPDEST DUP1 PUSH2 0xB57 CALLER PUSH2 0xE39 JUMP JUMPDEST LT ISZERO PUSH2 0xB9A JUMPI PUSH1 0x40 MLOAD PUSH3 0x461BCD PUSH1 0xE5 SHL DUP2 MSTORE PUSH1 0x20 PUSH1 0x4 DUP3 ADD MSTORE PUSH1 0x12 PUSH1 0x24 DUP3 ADD MSTORE PUSH18 0x4E6F7420656E6F7567682062616C616E6365 PUSH1 0x70 SHL PUSH1 0x44 DUP3 ADD MSTORE PUSH1 0x64 ADD PUSH2 0x6D5 JUMP JUMPDEST PUSH2 0xBAD DUP2 PUSH2 0xBA7 CALLER PUSH2 0xE39 JUMP JUMPDEST SWAP1 PUSH2 0x1A9E JUMP JUMPDEST POP DUP1 PUSH1 0xB PUSH1 0x0 DUP3 DUP3 SLOAD PUSH2 0xBC0 SWAP2 SWAP1 PUSH2 0x25EF JUMP JUMPDEST SWAP1 SWAP2 SSTORE POP POP PUSH1 0x40 MLOAD DUP2 DUP2 MSTORE CALLER SWAP1 PUSH32 0xCC16F5DBB4873280815C1EE09DBD06736CFFCC184412CF7A71A0FDB75D397CA5 SWAP1 PUSH1 0x20 ADD PUSH1 0x40 MLOAD DUP1 SWAP2 SUB SWAP1 LOG2 POP JUMP JUMPDEST PUSH1 0x0 SLOAD PUSH1 0x1 PUSH1 0x1 PUSH1 0xA0 SHL SUB AND CALLER EQ PUSH2 0xC27 JUMPI PUSH1 0x40 MLOAD PUSH3 0x461BCD PUSH1 0xE5 SHL DUP2 MSTORE PUSH1 0x4 ADD PUSH2 0x6D5 SWAP1 PUSH2 0x258E JUMP JUMPDEST PUSH1 0x1 PUSH1 0x1 PUSH1 0xA0 SHL SUB AND PUSH1 0x0 SWAP1 DUP2 MSTORE PUSH1 0x5 PUSH1 0x20 MSTORE PUSH1 0x40 SWAP1 KECCAK256 DUP1 SLOAD PUSH1 0xFF NOT AND PUSH1 0x1 OR SWAP1 SSTORE JUMP JUMPDEST PUSH1 0x0 PUSH1 0xB SLOAD DUP4 GT ISZERO PUSH2 0xC9F JUMPI PUSH1 0x40 MLOAD PUSH3 0x461BCD PUSH1 0xE5 SHL DUP2 MSTORE PUSH1 0x20 PUSH1 0x4 DUP3 ADD MSTORE PUSH1 0x1F PUSH1 0x24 DUP3 ADD MSTORE PUSH32 0x416D6F756E74206D757374206265206C657373207468616E20737570706C7900 PUSH1 0x44 DUP3 ADD MSTORE PUSH1 0x64 ADD PUSH2 0x6D5 JUMP JUMPDEST PUSH1 0x0 DUP1 PUSH2 0xCAB DUP6 PUSH2 0x1AE0 JUMP JUMPDEST SWAP3 POP SWAP3 POP POP PUSH1 0x0 DUP1 PUSH2 0xCC6 DUP8 DUP6 DUP6 PUSH2 0xCC1 PUSH2 0x19DA JUMP JUMPDEST PUSH2 0x1B24 JUMP JUMPDEST POP SWAP2 POP SWAP2 POP DUP6 PUSH2 0xCDB JUMPI POP SWAP3 POP PUSH2 0x6A5 SWAP2 POP POP JUMP JUMPDEST SWAP4 POP PUSH2 0x6A5 SWAP3 POP POP POP JUMP JUMPDEST PUSH1 0x0 SLOAD PUSH1 0x1 PUSH1 0x1 PUSH1 0xA0 SHL SUB AND CALLER EQ PUSH2 0xD10 JUMPI PUSH1 0x40 MLOAD PUSH3 0x461BCD PUSH1 0xE5 SHL DUP2 MSTORE PUSH1 0x4 ADD PUSH2 0x6D5 SWAP1 PUSH2 0x258E JUMP JUMPDEST PUSH1 0x1 PUSH1 0x1 PUSH1 0xA0 SHL SUB DUP2 AND PUSH1 0x0 SWAP1 DUP2 MSTORE PUSH1 0x6 PUSH1 0x20 MSTORE PUSH1 0x40 SWAP1 KECCAK256 SLOAD PUSH1 0xFF AND ISZERO PUSH2 0xD79 JUMPI PUSH1 0x40 MLOAD PUSH3 0x461BCD PUSH1 0xE5 SHL DUP2 MSTORE PUSH1 0x20 PUSH1 0x4 DUP3 ADD MSTORE PUSH1 0x1B PUSH1 0x24 DUP3 ADD MSTORE PUSH32 0x4163636F756E7420697320616C7265616479206578636C756465640000000000 PUSH1 0x44 DUP3 ADD MSTORE PUSH1 0x64 ADD PUSH2 0x6D5 JUMP JUMPDEST PUSH1 0x1 PUSH1 0x1 PUSH1 0xA0 SHL SUB DUP2 AND PUSH1 0x0 SWAP1 DUP2 MSTORE PUSH1 0x2 PUSH1 0x20 MSTORE PUSH1 0x40 SWAP1 KECCAK256 SLOAD ISZERO PUSH2 0xDD3 JUMPI PUSH1 0x1 PUSH1 0x1 PUSH1 0xA0 SHL SUB DUP2 AND PUSH1 0x0 SWAP1 DUP2 MSTORE PUSH1 0x2 PUSH1 0x20 MSTORE PUSH1 0x40 SWAP1 KECCAK256 SLOAD PUSH2 0xDB9 SWAP1 PUSH2 0x8DC JUMP JUMPDEST PUSH1 0x1 PUSH1 0x1 PUSH1 0xA0 SHL SUB DUP3 AND PUSH1 0x0 SWAP1 DUP2 MSTORE PUSH1 0x3 PUSH1 0x20 MSTORE PUSH1 0x40 SWAP1 KECCAK256 SSTORE JUMPDEST PUSH1 0x1 PUSH1 0x1 PUSH1 0xA0 SHL SUB AND PUSH1 0x0 DUP2 DUP2 MSTORE PUSH1 0x6 PUSH1 0x20 MSTORE PUSH1 0x40 DUP2 KECCAK256 DUP1 SLOAD PUSH1 0xFF NOT AND PUSH1 0x1 SWAP1 DUP2 OR SWAP1 SWAP2 SSTORE PUSH1 0x7 DUP1 SLOAD SWAP2 DUP3 ADD DUP2 SSTORE SWAP1 SWAP2 MSTORE PUSH32 0xA66CC928B5EDB82AF9BD49922954155AB7B0942694BEA4CE44661D9A8736C688 ADD DUP1 SLOAD PUSH1 0x1 PUSH1 0x1 PUSH1 0xA0 SHL SUB NOT AND SWAP1 SWAP2 OR SWAP1 SSTORE JUMP JUMPDEST PUSH1 0x1 PUSH1 0x1 PUSH1 0xA0 SHL SUB DUP2 AND PUSH1 0x0 SWAP1 DUP2 MSTORE PUSH1 0x6 PUSH1 0x20 MSTORE PUSH1 0x40 DUP2 KECCAK256 SLOAD PUSH1 0xFF AND ISZERO PUSH2 0xE76 JUMPI POP PUSH1 0x1 PUSH1 0x1 PUSH1 0xA0 SHL SUB AND PUSH1 0x0 SWAP1 DUP2 MSTORE PUSH1 0x3 PUSH1 0x20 MSTORE PUSH1 0x40 SWAP1 KECCAK256 SLOAD SWAP1 JUMP JUMPDEST PUSH1 0x1 PUSH1 0x1 PUSH1 0xA0 SHL SUB DUP3 AND PUSH1 0x0 SWAP1 DUP2 MSTORE PUSH1 0x2 PUSH1 0x20 MSTORE PUSH1 0x40 SWAP1 KECCAK256 SLOAD PUSH2 0x6A5 SWAP1 PUSH2 0x8DC JUMP JUMPDEST PUSH1 0x0 SLOAD PUSH1 0x1 PUSH1 0x1 PUSH1 0xA0 SHL SUB AND CALLER EQ PUSH2 0xEC2 JUMPI PUSH1 0x40 MLOAD PUSH3 0x461BCD PUSH1 0xE5 SHL DUP2 MSTORE PUSH1 0x4 ADD PUSH2 0x6D5 SWAP1 PUSH2 0x258E JUMP JUMPDEST PUSH1 0x0 DUP1 SLOAD PUSH1 0x40 MLOAD PUSH1 0x1 PUSH1 0x1 PUSH1 0xA0 SHL SUB SWAP1 SWAP2 AND SWAP1 PUSH32 0x8BE0079C531659141344CD1FD0A4F28419497F9722A3DAAFE3B4186F6B6457E0 SWAP1 DUP4 SWAP1 LOG3 PUSH1 0x0 DUP1 SLOAD PUSH1 0x1 PUSH1 0x1 PUSH1 0xA0 SHL SUB NOT AND SWAP1 SSTORE JUMP JUMPDEST PUSH1 0x0 SLOAD PUSH1 0x1 PUSH1 0x1 PUSH1 0xA0 SHL SUB AND CALLER EQ PUSH2 0xF36 JUMPI PUSH1 0x40 MLOAD PUSH3 0x461BCD PUSH1 0xE5 SHL DUP2 MSTORE PUSH1 0x4 ADD PUSH2 0x6D5 SWAP1 PUSH2 0x258E JUMP JUMPDEST PUSH1 0x1 PUSH1 0x1 PUSH1 0xA0 SHL SUB AND PUSH1 0x0 SWAP1 DUP2 MSTORE PUSH1 0x9 PUSH1 0x20 MSTORE PUSH1 0x40 SWAP1 KECCAK256 DUP1 SLOAD PUSH1 0xFF NOT AND SWAP1 SSTORE JUMP JUMPDEST PUSH1 0x60 PUSH1 0x10 DUP1 SLOAD PUSH2 0x611 SWAP1 PUSH2 0x2553 JUMP JUMPDEST PUSH1 0x0 SLOAD PUSH1 0x1 PUSH1 0x1 PUSH1 0xA0 SHL SUB AND CALLER EQ PUSH2 0xF90 JUMPI PUSH1 0x40 MLOAD PUSH3 0x461BCD PUSH1 0xE5 SHL DUP2 MSTORE PUSH1 0x4 ADD PUSH2 0x6D5 SWAP1 PUSH2 0x258E JUMP JUMPDEST PUSH1 0x40 MLOAD PUSH4 0xA9059CBB PUSH1 0xE0 SHL DUP2 MSTORE CALLER PUSH1 0x4 DUP3 ADD MSTORE PUSH1 0x24 DUP2 ADD DUP3 SWAP1 MSTORE DUP3 SWAP1 PUSH1 0x1 PUSH1 0x1 PUSH1 0xA0 SHL SUB DUP3 AND SWAP1 PUSH4 0xA9059CBB SWAP1 PUSH1 0x44 ADD PUSH1 0x20 PUSH1 0x40 MLOAD DUP1 DUP4 SUB DUP2 PUSH1 0x0 DUP8 GAS CALL ISZERO DUP1 ISZERO PUSH2 0xFDF JUMPI RETURNDATASIZE PUSH1 0x0 DUP1 RETURNDATACOPY RETURNDATASIZE PUSH1 0x0 REVERT JUMPDEST POP POP POP POP PUSH1 0x40 MLOAD RETURNDATASIZE PUSH1 0x1F NOT PUSH1 0x1F DUP3 ADD AND DUP3 ADD DUP1 PUSH1 0x40 MSTORE POP DUP2 ADD SWAP1 PUSH2 0x1003 SWAP2 SWAP1 PUSH2 0x2637 JUMP JUMPDEST POP POP POP POP JUMP JUMPDEST PUSH1 0x0 PUSH2 0x6A1 CALLER DUP5 PUSH2 0x8CD DUP6 PUSH1 0x40 MLOAD DUP1 PUSH1 0x60 ADD PUSH1 0x40 MSTORE DUP1 PUSH1 0x25 DUP2 MSTORE PUSH1 0x20 ADD PUSH2 0x26D6 PUSH1 0x25 SWAP2 CODECOPY CALLER PUSH1 0x0 SWAP1 DUP2 MSTORE PUSH1 0x4 PUSH1 0x20 SWAP1 DUP2 MSTORE PUSH1 0x40 DUP1 DUP4 KECCAK256 PUSH1 0x1 PUSH1 0x1 PUSH1 0xA0 SHL SUB DUP14 AND DUP5 MSTORE SWAP1 SWAP2 MSTORE SWAP1 KECCAK256 SLOAD SWAP2 SWAP1 PUSH2 0x19A0 JUMP JUMPDEST PUSH1 0x0 PUSH2 0x6A1 CALLER DUP5 DUP5 PUSH2 0x15CE JUMP JUMPDEST PUSH1 0x0 SLOAD PUSH1 0x1 PUSH1 0x1 PUSH1 0xA0 SHL SUB AND CALLER EQ PUSH2 0x108F JUMPI PUSH1 0x40 MLOAD PUSH3 0x461BCD PUSH1 0xE5 SHL DUP2 MSTORE PUSH1 0x4 ADD PUSH2 0x6D5 SWAP1 PUSH2 0x258E JUMP JUMPDEST PUSH2 0x3E8 DUP2 GT ISZERO PUSH2 0x10E1 JUMPI PUSH1 0x40 MLOAD PUSH3 0x461BCD PUSH1 0xE5 SHL DUP2 MSTORE PUSH1 0x20 PUSH1 0x4 DUP3 ADD MSTORE PUSH1 0x1D PUSH1 0x24 DUP3 ADD MSTORE PUSH32 0x6D617857616C6C657453697A6520657863656564732064697669646572000000 PUSH1 0x44 DUP3 ADD MSTORE PUSH1 0x64 ADD PUSH2 0x6D5 JUMP JUMPDEST PUSH2 0x1102 PUSH2 0x3E8 PUSH2 0x10FC DUP4 PUSH1 0xB SLOAD PUSH2 0x1B74 SWAP1 SWAP2 SWAP1 PUSH4 0xFFFFFFFF AND JUMP JUMPDEST SWAP1 PUSH2 0x19FD JUMP JUMPDEST PUSH1 0x16 SSTORE POP JUMP JUMPDEST PUSH1 0x0 SLOAD PUSH1 0x1 PUSH1 0x1 PUSH1 0xA0 SHL SUB AND CALLER EQ PUSH2 0x1132 JUMPI PUSH1 0x40 MLOAD PUSH3 0x461BCD PUSH1 0xE5 SHL DUP2 MSTORE PUSH1 0x4 ADD PUSH2 0x6D5 SWAP1 PUSH2 0x258E JUMP JUMPDEST PUSH1 0x1 PUSH1 0x1 PUSH1 0xA0 SHL SUB DUP2 AND PUSH1 0x0 SWAP1 DUP2 MSTORE PUSH1 0x8 PUSH1 0x20 MSTORE PUSH1 0x40 SWAP1 KECCAK256 SLOAD PUSH1 0xFF AND PUSH2 0x119A JUMPI PUSH1 0x40 MLOAD PUSH3 0x461BCD PUSH1 0xE5 SHL DUP2 MSTORE PUSH1 0x20 PUSH1 0x4 DUP3 ADD MSTORE PUSH1 0x1A PUSH1 0x24 DUP3 ADD MSTORE PUSH32 0x4163636F756E74206973206E6F7420626C61636B6C6973746564000000000000 PUSH1 0x44 DUP3 ADD MSTORE PUSH1 0x64 ADD PUSH2 0x6D5 JUMP JUMPDEST PUSH1 0x0 JUMPDEST PUSH1 0xA SLOAD DUP2 LT ISZERO PUSH2 0xB13 JUMPI DUP2 PUSH1 0x1 PUSH1 0x1 PUSH1 0xA0 SHL SUB AND PUSH1 0xA DUP3 DUP2 SLOAD DUP2 LT PUSH2 0x11C4 JUMPI PUSH2 0x11C4 PUSH2 0x25C3 JUMP JUMPDEST PUSH1 0x0 SWAP2 DUP3 MSTORE PUSH1 0x20 SWAP1 SWAP2 KECCAK256 ADD SLOAD PUSH1 0x1 PUSH1 0x1 PUSH1 0xA0 SHL SUB AND EQ ISZERO PUSH2 0x127A JUMPI PUSH1 0xA DUP1 SLOAD PUSH2 0x11EF SWAP1 PUSH1 0x1 SWAP1 PUSH2 0x25EF JUMP JUMPDEST DUP2 SLOAD DUP2 LT PUSH2 0x11FF JUMPI PUSH2 0x11FF PUSH2 0x25C3 JUMP JUMPDEST PUSH1 0x0 SWAP2 DUP3 MSTORE PUSH1 0x20 SWAP1 SWAP2 KECCAK256 ADD SLOAD PUSH1 0xA DUP1 SLOAD PUSH1 0x1 PUSH1 0x1 PUSH1 0xA0 SHL SUB SWAP1 SWAP3 AND SWAP2 DUP4 SWAP1 DUP2 LT PUSH2 0x122B JUMPI PUSH2 0x122B PUSH2 0x25C3 JUMP JUMPDEST PUSH1 0x0 SWAP2 DUP3 MSTORE PUSH1 0x20 DUP1 DUP4 KECCAK256 SWAP2 SWAP1 SWAP2 ADD DUP1 SLOAD PUSH1 0x1 PUSH1 0x1 PUSH1 0xA0 SHL SUB NOT AND PUSH1 0x1 PUSH1 0x1 PUSH1 0xA0 SHL SUB SWAP5 DUP6 AND OR SWAP1 SSTORE SWAP2 DUP5 AND DUP2 MSTORE PUSH1 0x8 SWAP1 SWAP2 MSTORE PUSH1 0x40 SWAP1 KECCAK256 DUP1 SLOAD PUSH1 0xFF NOT AND SWAP1 SSTORE PUSH1 0xA DUP1 SLOAD DUP1 PUSH2 0xADB JUMPI PUSH2 0xADB PUSH2 0x2606 JUMP JUMPDEST DUP1 PUSH2 0x1284 DUP2 PUSH2 0x261C JUMP JUMPDEST SWAP2 POP POP PUSH2 0x119D JUMP JUMPDEST PUSH1 0x0 SLOAD PUSH1 0x1 PUSH1 0x1 PUSH1 0xA0 SHL SUB AND CALLER EQ PUSH2 0x12B6 JUMPI PUSH1 0x40 MLOAD PUSH3 0x461BCD PUSH1 0xE5 SHL DUP2 MSTORE PUSH1 0x4 ADD PUSH2 0x6D5 SWAP1 PUSH2 0x258E JUMP JUMPDEST PUSH1 0xE DUP1 SLOAD PUSH1 0x1 PUSH1 0x1 PUSH1 0xA0 SHL SUB NOT AND PUSH1 0x1 PUSH1 0x1 PUSH1 0xA0 SHL SUB SWAP3 SWAP1 SWAP3 AND SWAP2 SWAP1 SWAP2 OR SWAP1 SSTORE JUMP JUMPDEST PUSH1 0x0 SLOAD PUSH1 0x1 PUSH1 0x1 PUSH1 0xA0 SHL SUB AND CALLER EQ PUSH2 0x1302 JUMPI PUSH1 0x40 MLOAD PUSH3 0x461BCD PUSH1 0xE5 SHL DUP2 MSTORE PUSH1 0x4 ADD PUSH2 0x6D5 SWAP1 PUSH2 0x258E JUMP JUMPDEST PUSH2 0x3E8 DUP2 GT ISZERO PUSH2 0x1354 JUMPI PUSH1 0x40 MLOAD PUSH3 0x461BCD PUSH1 0xE5 SHL DUP2 MSTORE PUSH1 0x20 PUSH1 0x4 DUP3 ADD MSTORE PUSH1 0x1C PUSH1 0x24 DUP3 ADD MSTORE PUSH32 0x6D6178547850657263656E742065786365656473206469766964657200000000 PUSH1 0x44 DUP3 ADD MSTORE PUSH1 0x64 ADD PUSH2 0x6D5 JUMP JUMPDEST PUSH2 0x136F PUSH2 0x3E8 PUSH2 0x10FC DUP4 PUSH1 0xB SLOAD PUSH2 0x1B74 SWAP1 SWAP2 SWAP1 PUSH4 0xFFFFFFFF AND JUMP JUMPDEST PUSH1 0x15 SSTORE POP JUMP JUMPDEST PUSH1 0x0 SLOAD PUSH1 0x1 PUSH1 0x1 PUSH1 0xA0 SHL SUB AND CALLER EQ PUSH2 0x139F JUMPI PUSH1 0x40 MLOAD PUSH3 0x461BCD PUSH1 0xE5 SHL DUP2 MSTORE PUSH1 0x4 ADD PUSH2 0x6D5 SWAP1 PUSH2 0x258E JUMP JUMPDEST PUSH1 0x1 PUSH1 0x1 PUSH1 0xA0 SHL SUB AND PUSH1 0x0 SWAP1 DUP2 MSTORE PUSH1 0x5 PUSH1 0x20 MSTORE PUSH1 0x40 SWAP1 KECCAK256 DUP1 SLOAD PUSH1 0xFF NOT AND SWAP1 SSTORE JUMP JUMPDEST PUSH1 0x0 SLOAD PUSH1 0x1 PUSH1 0x1 PUSH1 0xA0 SHL SUB AND CALLER EQ PUSH2 0x13EA JUMPI PUSH1 0x40 MLOAD PUSH3 0x461BCD PUSH1 0xE5 SHL DUP2 MSTORE PUSH1 0x4 ADD PUSH2 0x6D5 SWAP1 PUSH2 0x258E JUMP JUMPDEST PUSH1 0x1 PUSH1 0x1 PUSH1 0xA0 SHL SUB DUP2 AND PUSH2 0x144F JUMPI PUSH1 0x40 MLOAD PUSH3 0x461BCD PUSH1 0xE5 SHL DUP2 MSTORE PUSH1 0x20 PUSH1 0x4 DUP3 ADD MSTORE PUSH1 0x26 PUSH1 0x24 DUP3 ADD MSTORE PUSH32 0x4F776E61626C653A206E6577206F776E657220697320746865207A65726F2061 PUSH1 0x44 DUP3 ADD MSTORE PUSH6 0x646472657373 PUSH1 0xD0 SHL PUSH1 0x64 DUP3 ADD MSTORE PUSH1 0x84 ADD PUSH2 0x6D5 JUMP JUMPDEST PUSH1 0x0 DUP1 SLOAD PUSH1 0x40 MLOAD PUSH1 0x1 PUSH1 0x1 PUSH1 0xA0 SHL SUB DUP1 DUP6 AND SWAP4 SWAP3 AND SWAP2 PUSH32 0x8BE0079C531659141344CD1FD0A4F28419497F9722A3DAAFE3B4186F6B6457E0 SWAP2 LOG3 PUSH1 0x0 DUP1 SLOAD PUSH1 0x1 PUSH1 0x1 PUSH1 0xA0 SHL SUB NOT AND PUSH1 0x1 PUSH1 0x1 PUSH1 0xA0 SHL SUB SWAP3 SWAP1 SWAP3 AND SWAP2 SWAP1 SWAP2 OR SWAP1 SSTORE JUMP JUMPDEST PUSH1 0x1 PUSH1 0x1 PUSH1 0xA0 SHL SUB DUP4 AND PUSH2 0x150C JUMPI PUSH1 0x40 MLOAD PUSH3 0x461BCD PUSH1 0xE5 SHL DUP2 MSTORE PUSH1 0x20 PUSH1 0x4 DUP3 ADD MSTORE PUSH1 0x24 DUP1 DUP3 ADD MSTORE PUSH32 0x45524332303A20617070726F76652066726F6D20746865207A65726F20616464 PUSH1 0x44 DUP3 ADD MSTORE PUSH4 0x72657373 PUSH1 0xE0 SHL PUSH1 0x64 DUP3 ADD MSTORE PUSH1 0x84 ADD PUSH2 0x6D5 JUMP JUMPDEST PUSH1 0x1 PUSH1 0x1 PUSH1 0xA0 SHL SUB DUP3 AND PUSH2 0x156D JUMPI PUSH1 0x40 MLOAD PUSH3 0x461BCD PUSH1 0xE5 SHL DUP2 MSTORE PUSH1 0x20 PUSH1 0x4 DUP3 ADD MSTORE PUSH1 0x22 PUSH1 0x24 DUP3 ADD MSTORE PUSH32 0x45524332303A20617070726F766520746F20746865207A65726F206164647265 PUSH1 0x44 DUP3 ADD MSTORE PUSH2 0x7373 PUSH1 0xF0 SHL PUSH1 0x64 DUP3 ADD MSTORE PUSH1 0x84 ADD PUSH2 0x6D5 JUMP JUMPDEST PUSH1 0x1 PUSH1 0x1 PUSH1 0xA0 SHL SUB DUP4 DUP2 AND PUSH1 0x0 DUP2 DUP2 MSTORE PUSH1 0x4 PUSH1 0x20 SWAP1 DUP2 MSTORE PUSH1 0x40 DUP1 DUP4 KECCAK256 SWAP5 DUP8 AND DUP1 DUP5 MSTORE SWAP5 DUP3 MSTORE SWAP2 DUP3 SWAP1 KECCAK256 DUP6 SWAP1 SSTORE SWAP1 MLOAD DUP5 DUP2 MSTORE PUSH32 0x8C5BE1E5EBEC7D5BD14F71427D1E84F3DD0314C0F7B2291E5B200AC8C7C3B925 SWAP2 ADD PUSH1 0x40 MLOAD DUP1 SWAP2 SUB SWAP1 LOG3 POP POP POP JUMP JUMPDEST PUSH1 0x1 PUSH1 0x1 PUSH1 0xA0 SHL SUB DUP4 AND PUSH2 0x1632 JUMPI PUSH1 0x40 MLOAD PUSH3 0x461BCD PUSH1 0xE5 SHL DUP2 MSTORE PUSH1 0x20 PUSH1 0x4 DUP3 ADD MSTORE PUSH1 0x25 PUSH1 0x24 DUP3 ADD MSTORE PUSH32 0x45524332303A207472616E736665722066726F6D20746865207A65726F206164 PUSH1 0x44 DUP3 ADD MSTORE PUSH5 0x6472657373 PUSH1 0xD8 SHL PUSH1 0x64 DUP3 ADD MSTORE PUSH1 0x84 ADD PUSH2 0x6D5 JUMP JUMPDEST PUSH1 0x1 PUSH1 0x1 PUSH1 0xA0 SHL SUB DUP3 AND PUSH2 0x1694 JUMPI PUSH1 0x40 MLOAD PUSH3 0x461BCD PUSH1 0xE5 SHL DUP2 MSTORE PUSH1 0x20 PUSH1 0x4 DUP3 ADD MSTORE PUSH1 0x23 PUSH1 0x24 DUP3 ADD MSTORE PUSH32 0x45524332303A207472616E7366657220746F20746865207A65726F2061646472 PUSH1 0x44 DUP3 ADD MSTORE PUSH3 0x657373 PUSH1 0xE8 SHL PUSH1 0x64 DUP3 ADD MSTORE PUSH1 0x84 ADD PUSH2 0x6D5 JUMP JUMPDEST PUSH1 0x0 DUP2 GT PUSH2 0x16F6 JUMPI PUSH1 0x40 MLOAD PUSH3 0x461BCD PUSH1 0xE5 SHL DUP2 MSTORE PUSH1 0x20 PUSH1 0x4 DUP3 ADD MSTORE PUSH1 0x29 PUSH1 0x24 DUP3 ADD MSTORE PUSH32 0x5472616E7366657220616D6F756E74206D757374206265206772656174657220 PUSH1 0x44 DUP3 ADD MSTORE PUSH9 0x7468616E207A65726F PUSH1 0xB8 SHL PUSH1 0x64 DUP3 ADD MSTORE PUSH1 0x84 ADD PUSH2 0x6D5 JUMP JUMPDEST PUSH1 0x1 PUSH1 0x1 PUSH1 0xA0 SHL SUB DUP4 AND PUSH1 0x0 SWAP1 DUP2 MSTORE PUSH1 0x8 PUSH1 0x20 MSTORE PUSH1 0x40 SWAP1 KECCAK256 SLOAD PUSH1 0xFF AND ISZERO PUSH2 0x1755 JUMPI PUSH1 0x40 MLOAD PUSH3 0x461BCD PUSH1 0xE5 SHL DUP2 MSTORE PUSH1 0x20 PUSH1 0x4 DUP3 ADD MSTORE PUSH1 0x13 PUSH1 0x24 DUP3 ADD MSTORE PUSH19 0x165BDD48185C9948189B1858DADB1A5CDD1959 PUSH1 0x6A SHL PUSH1 0x44 DUP3 ADD MSTORE PUSH1 0x64 ADD PUSH2 0x6D5 JUMP JUMPDEST CALLER PUSH1 0x0 SWAP1 DUP2 MSTORE PUSH1 0x8 PUSH1 0x20 MSTORE PUSH1 0x40 SWAP1 KECCAK256 SLOAD PUSH1 0xFF AND ISZERO PUSH2 0x17A3 JUMPI PUSH1 0x40 MLOAD PUSH3 0x461BCD PUSH1 0xE5 SHL DUP2 MSTORE PUSH1 0x20 PUSH1 0x4 DUP3 ADD MSTORE PUSH1 0xB PUSH1 0x24 DUP3 ADD MSTORE PUSH11 0x189B1858DADB1A5CDD1959 PUSH1 0xAA SHL PUSH1 0x44 DUP3 ADD MSTORE PUSH1 0x64 ADD PUSH2 0x6D5 JUMP JUMPDEST ORIGIN PUSH1 0x0 SWAP1 DUP2 MSTORE PUSH1 0x8 PUSH1 0x20 MSTORE PUSH1 0x40 SWAP1 KECCAK256 SLOAD PUSH1 0xFF AND ISZERO PUSH2 0x17F1 JUMPI PUSH1 0x40 MLOAD PUSH3 0x461BCD PUSH1 0xE5 SHL DUP2 MSTORE PUSH1 0x20 PUSH1 0x4 DUP3 ADD MSTORE PUSH1 0xB PUSH1 0x24 DUP3 ADD MSTORE PUSH11 0x189B1858DADB1A5CDD1959 PUSH1 0xAA SHL PUSH1 0x44 DUP3 ADD MSTORE PUSH1 0x64 ADD PUSH2 0x6D5 JUMP JUMPDEST PUSH1 0x1 PUSH1 0x1 PUSH1 0xA0 SHL SUB DUP4 AND PUSH1 0x0 SWAP1 DUP2 MSTORE PUSH1 0x5 PUSH1 0x20 MSTORE PUSH1 0x40 SWAP1 KECCAK256 SLOAD PUSH1 0x1 SWAP1 PUSH1 0xFF AND DUP1 PUSH2 0x1833 JUMPI POP PUSH1 0x1 PUSH1 0x1 PUSH1 0xA0 SHL SUB DUP4 AND PUSH1 0x0 SWAP1 DUP2 MSTORE PUSH1 0x5 PUSH1 0x20 MSTORE PUSH1 0x40 SWAP1 KECCAK256 SLOAD PUSH1 0xFF AND JUMPDEST ISZERO PUSH2 0x183C JUMPI POP PUSH1 0x0 JUMPDEST DUP1 ISZERO PUSH2 0x1994 JUMPI PUSH1 0x1 PUSH1 0x1 PUSH1 0xA0 SHL SUB DUP5 AND PUSH1 0x0 SWAP1 DUP2 MSTORE PUSH1 0x9 PUSH1 0x20 MSTORE PUSH1 0x40 SWAP1 KECCAK256 SLOAD PUSH1 0xFF AND ISZERO DUP1 ISZERO PUSH2 0x1884 JUMPI POP PUSH1 0x1 PUSH1 0x1 PUSH1 0xA0 SHL SUB DUP4 AND PUSH1 0x0 SWAP1 DUP2 MSTORE PUSH1 0x9 PUSH1 0x20 MSTORE PUSH1 0x40 SWAP1 KECCAK256 SLOAD PUSH1 0xFF AND ISZERO JUMPDEST ISZERO PUSH2 0x1994 JUMPI PUSH1 0x15 SLOAD DUP3 GT ISZERO PUSH2 0x18EC JUMPI PUSH1 0x40 MLOAD PUSH3 0x461BCD PUSH1 0xE5 SHL DUP2 MSTORE PUSH1 0x20 PUSH1 0x4 DUP3 ADD MSTORE PUSH1 0x28 PUSH1 0x24 DUP3 ADD MSTORE PUSH32 0x5472616E7366657220616D6F756E74206578636565647320746865206D617854 PUSH1 0x44 DUP3 ADD MSTORE PUSH8 0x3C20B6B7BAB73A17 PUSH1 0xC1 SHL PUSH1 0x64 DUP3 ADD MSTORE PUSH1 0x84 ADD PUSH2 0x6D5 JUMP JUMPDEST PUSH32 0x0 PUSH1 0x1 PUSH1 0x1 PUSH1 0xA0 SHL SUB AND DUP4 PUSH1 0x1 PUSH1 0x1 PUSH1 0xA0 SHL SUB AND EQ PUSH2 0x1994 JUMPI PUSH1 0x16 SLOAD PUSH2 0x1931 DUP5 PUSH2 0xE39 JUMP JUMPDEST PUSH2 0x193B SWAP1 DUP5 PUSH2 0x2654 JUMP JUMPDEST GT ISZERO PUSH2 0x1994 JUMPI PUSH1 0x40 MLOAD PUSH3 0x461BCD PUSH1 0xE5 SHL DUP2 MSTORE PUSH1 0x20 PUSH1 0x4 DUP3 ADD MSTORE PUSH1 0x22 PUSH1 0x24 DUP3 ADD MSTORE PUSH32 0x526563697069656E742065786365656473206D61782077616C6C65742073697A PUSH1 0x44 DUP3 ADD MSTORE PUSH2 0x3297 PUSH1 0xF1 SHL PUSH1 0x64 DUP3 ADD MSTORE PUSH1 0x84 ADD PUSH2 0x6D5 JUMP JUMPDEST PUSH2 0x1003 DUP5 DUP5 DUP5 DUP5 PUSH2 0x1BF3 JUMP JUMPDEST PUSH1 0x0 DUP2 DUP5 DUP5 GT ISZERO PUSH2 0x19C4 JUMPI PUSH1 0x40 MLOAD PUSH3 0x461BCD PUSH1 0xE5 SHL DUP2 MSTORE PUSH1 0x4 ADD PUSH2 0x6D5 SWAP2 SWAP1 PUSH2 0x23D7 JUMP JUMPDEST POP PUSH1 0x0 PUSH2 0x19D1 DUP5 DUP7 PUSH2 0x25EF JUMP JUMPDEST SWAP6 SWAP5 POP POP POP POP POP JUMP JUMPDEST PUSH1 0x0 DUP1 PUSH1 0x0 PUSH2 0x19E7 PUSH2 0x1E47 JUMP JUMPDEST SWAP1 SWAP3 POP SWAP1 POP PUSH2 0x19F6 DUP3 DUP3 PUSH2 0x19FD JUMP JUMPDEST SWAP3 POP POP POP SWAP1 JUMP JUMPDEST PUSH1 0x0 PUSH2 0x959 DUP4 DUP4 PUSH1 0x40 MLOAD DUP1 PUSH1 0x40 ADD PUSH1 0x40 MSTORE DUP1 PUSH1 0x1A DUP2 MSTORE PUSH1 0x20 ADD PUSH32 0x536166654D6174683A206469766973696F6E206279207A65726F000000000000 DUP2 MSTORE POP PUSH2 0x1FC9 JUMP JUMPDEST PUSH1 0x0 DUP1 PUSH2 0x1A4C DUP4 DUP6 PUSH2 0x2654 JUMP JUMPDEST SWAP1 POP DUP4 DUP2 LT ISZERO PUSH2 0x959 JUMPI PUSH1 0x40 MLOAD PUSH3 0x461BCD PUSH1 0xE5 SHL DUP2 MSTORE PUSH1 0x20 PUSH1 0x4 DUP3 ADD MSTORE PUSH1 0x1B PUSH1 0x24 DUP3 ADD MSTORE PUSH32 0x536166654D6174683A206164646974696F6E206F766572666C6F770000000000 PUSH1 0x44 DUP3 ADD MSTORE PUSH1 0x64 ADD PUSH2 0x6D5 JUMP JUMPDEST PUSH1 0x0 PUSH2 0x959 DUP4 DUP4 PUSH1 0x40 MLOAD DUP1 PUSH1 0x40 ADD PUSH1 0x40 MSTORE DUP1 PUSH1 0x1E DUP2 MSTORE PUSH1 0x20 ADD PUSH32 0x536166654D6174683A207375627472616374696F6E206F766572666C6F770000 DUP2 MSTORE POP PUSH2 0x19A0 JUMP JUMPDEST PUSH1 0x0 DUP1 PUSH1 0x0 DUP1 PUSH2 0x1AEF DUP6 PUSH2 0x1FF7 JUMP JUMPDEST SWAP1 POP PUSH1 0x0 PUSH2 0x1AFC DUP7 PUSH2 0x2013 JUMP JUMPDEST SWAP1 POP PUSH1 0x0 PUSH2 0x1B0A DUP8 DUP5 PUSH2 0x1A9E JUMP JUMPDEST SWAP1 POP PUSH2 0x1B16 DUP2 DUP4 PUSH2 0x1A9E JUMP JUMPDEST SWAP8 SWAP3 SWAP7 POP SWAP1 SWAP5 POP SWAP1 SWAP3 POP POP POP JUMP JUMPDEST PUSH1 0x0 DUP1 DUP1 DUP1 PUSH2 0x1B33 DUP9 DUP7 PUSH2 0x1B74 JUMP JUMPDEST SWAP1 POP PUSH1 0x0 PUSH2 0x1B41 DUP9 DUP8 PUSH2 0x1B74 JUMP JUMPDEST SWAP1 POP PUSH1 0x0 PUSH2 0x1B4F DUP9 DUP9 PUSH2 0x1B74 JUMP JUMPDEST SWAP1 POP PUSH1 0x0 PUSH2 0x1B61 DUP3 PUSH2 0xBA7 DUP7 DUP7 PUSH2 0x1A9E JUMP JUMPDEST SWAP4 SWAP12 SWAP4 SWAP11 POP SWAP2 SWAP9 POP SWAP2 SWAP7 POP POP POP POP POP POP POP JUMP JUMPDEST PUSH1 0x0 DUP3 PUSH2 0x1B83 JUMPI POP PUSH1 0x0 PUSH2 0x6A5 JUMP JUMPDEST PUSH1 0x0 PUSH2 0x1B8F DUP4 DUP6 PUSH2 0x266C JUMP JUMPDEST SWAP1 POP DUP3 PUSH2 0x1B9C DUP6 DUP4 PUSH2 0x268B JUMP JUMPDEST EQ PUSH2 0x959 JUMPI PUSH1 0x40 MLOAD PUSH3 0x461BCD PUSH1 0xE5 SHL DUP2 MSTORE PUSH1 0x20 PUSH1 0x4 DUP3 ADD MSTORE PUSH1 0x21 PUSH1 0x24 DUP3 ADD MSTORE PUSH32 0x536166654D6174683A206D756C7469706C69636174696F6E206F766572666C6F PUSH1 0x44 DUP3 ADD MSTORE PUSH1 0x77 PUSH1 0xF8 SHL PUSH1 0x64 DUP3 ADD MSTORE PUSH1 0x84 ADD PUSH2 0x6D5 JUMP JUMPDEST DUP1 ISZERO PUSH2 0x1CE1 JUMPI PUSH2 0x1C0B PUSH1 0x14 DUP1 SLOAD PUSH4 0xFFFFFFFF NOT AND SWAP1 SSTORE JUMP JUMPDEST PUSH32 0x0 PUSH1 0x1 PUSH1 0x1 PUSH1 0xA0 SHL SUB AND DUP5 PUSH1 0x1 PUSH1 0x1 PUSH1 0xA0 SHL SUB AND EQ ISZERO PUSH2 0x1C76 JUMPI PUSH2 0x1C76 PUSH1 0x12 SLOAD PUSH1 0x14 DUP1 SLOAD PUSH3 0x10000 DUP1 DUP5 DIV PUSH2 0xFFFF SWAP1 DUP2 AND SWAP1 SWAP2 MUL PUSH4 0xFFFFFFFF NOT SWAP1 SWAP3 AND SWAP4 AND SWAP3 SWAP1 SWAP3 OR SWAP2 SWAP1 SWAP2 OR SWAP1 SSTORE JUMP JUMPDEST PUSH32 0x0 PUSH1 0x1 PUSH1 0x1 PUSH1 0xA0 SHL SUB AND DUP4 PUSH1 0x1 PUSH1 0x1 PUSH1 0xA0 SHL SUB AND EQ ISZERO PUSH2 0x1CE1 JUMPI PUSH2 0x1CE1 PUSH1 0x13 SLOAD PUSH1 0x14 DUP1 SLOAD PUSH3 0x10000 DUP1 DUP5 DIV PUSH2 0xFFFF SWAP1 DUP2 AND SWAP1 SWAP2 MUL PUSH4 0xFFFFFFFF NOT SWAP1 SWAP3 AND SWAP4 AND SWAP3 SWAP1 SWAP3 OR SWAP2 SWAP1 SWAP2 OR SWAP1 SSTORE JUMP JUMPDEST PUSH1 0x1 PUSH1 0x1 PUSH1 0xA0 SHL SUB DUP5 AND PUSH1 0x0 SWAP1 DUP2 MSTORE PUSH1 0x6 PUSH1 0x20 MSTORE PUSH1 0x40 SWAP1 KECCAK256 SLOAD PUSH1 0xFF AND DUP1 ISZERO PUSH2 0x1D22 JUMPI POP PUSH1 0x1 PUSH1 0x1 PUSH1 0xA0 SHL SUB DUP4 AND PUSH1 0x0 SWAP1 DUP2 MSTORE PUSH1 0x6 PUSH1 0x20 MSTORE PUSH1 0x40 SWAP1 KECCAK256 SLOAD PUSH1 0xFF AND ISZERO JUMPDEST ISZERO PUSH2 0x1D37 JUMPI PUSH2 0x1D32 DUP5 DUP5 DUP5 PUSH2 0x2035 JUMP JUMPDEST PUSH2 0x1E35 JUMP JUMPDEST PUSH1 0x1 PUSH1 0x1 PUSH1 0xA0 SHL SUB DUP5 AND PUSH1 0x0 SWAP1 DUP2 MSTORE PUSH1 0x6 PUSH1 0x20 MSTORE PUSH1 0x40 SWAP1 KECCAK256 SLOAD PUSH1 0xFF AND ISZERO DUP1 ISZERO PUSH2 0x1D78 JUMPI POP PUSH1 0x1 PUSH1 0x1 PUSH1 0xA0 SHL SUB DUP4 AND PUSH1 0x0 SWAP1 DUP2 MSTORE PUSH1 0x6 PUSH1 0x20 MSTORE PUSH1 0x40 SWAP1 KECCAK256 SLOAD PUSH1 0xFF AND JUMPDEST ISZERO PUSH2 0x1D88 JUMPI PUSH2 0x1D32 DUP5 DUP5 DUP5 PUSH2 0x2169 JUMP JUMPDEST PUSH1 0x1 PUSH1 0x1 PUSH1 0xA0 SHL SUB DUP5 AND PUSH1 0x0 SWAP1 DUP2 MSTORE PUSH1 0x6 PUSH1 0x20 MSTORE PUSH1 0x40 SWAP1 KECCAK256 SLOAD PUSH1 0xFF AND ISZERO DUP1 ISZERO PUSH2 0x1DCA JUMPI POP PUSH1 0x1 PUSH1 0x1 PUSH1 0xA0 SHL SUB DUP4 AND PUSH1 0x0 SWAP1 DUP2 MSTORE PUSH1 0x6 PUSH1 0x20 MSTORE PUSH1 0x40 SWAP1 KECCAK256 SLOAD PUSH1 0xFF AND ISZERO JUMPDEST ISZERO PUSH2 0x1DDA JUMPI PUSH2 0x1D32 DUP5 DUP5 DUP5 PUSH2 0x2220 JUMP JUMPDEST PUSH1 0x1 PUSH1 0x1 PUSH1 0xA0 SHL SUB DUP5 AND PUSH1 0x0 SWAP1 DUP2 MSTORE PUSH1 0x6 PUSH1 0x20 MSTORE PUSH1 0x40 SWAP1 KECCAK256 SLOAD PUSH1 0xFF AND DUP1 ISZERO PUSH2 0x1E1A JUMPI POP PUSH1 0x1 PUSH1 0x1 PUSH1 0xA0 SHL SUB DUP4 AND PUSH1 0x0 SWAP1 DUP2 MSTORE PUSH1 0x6 PUSH1 0x20 MSTORE PUSH1 0x40 SWAP1 KECCAK256 SLOAD PUSH1 0xFF AND JUMPDEST ISZERO PUSH2 0x1E2A JUMPI PUSH2 0x1D32 DUP5 DUP5 DUP5 PUSH2 0x2272 JUMP JUMPDEST PUSH2 0x1E35 DUP5 DUP5 DUP5 PUSH2 0x2220 JUMP JUMPDEST PUSH2 0x1003 PUSH1 0x14 DUP1 SLOAD PUSH4 0xFFFFFFFF NOT AND SWAP1 SSTORE JUMP JUMPDEST PUSH1 0xC SLOAD PUSH1 0xB SLOAD PUSH1 0x0 SWAP2 DUP3 SWAP2 DUP3 JUMPDEST PUSH1 0x7 SLOAD DUP2 LT ISZERO PUSH2 0x1F99 JUMPI DUP3 PUSH1 0x2 PUSH1 0x0 PUSH1 0x7 DUP5 DUP2 SLOAD DUP2 LT PUSH2 0x1E76 JUMPI PUSH2 0x1E76 PUSH2 0x25C3 JUMP JUMPDEST PUSH1 0x0 SWAP2 DUP3 MSTORE PUSH1 0x20 DUP1 DUP4 KECCAK256 SWAP1 SWAP2 ADD SLOAD PUSH1 0x1 PUSH1 0x1 PUSH1 0xA0 SHL SUB AND DUP4 MSTORE DUP3 ADD SWAP3 SWAP1 SWAP3 MSTORE PUSH1 0x40 ADD SWAP1 KECCAK256 SLOAD GT DUP1 PUSH2 0x1EE1 JUMPI POP DUP2 PUSH1 0x3 PUSH1 0x0 PUSH1 0x7 DUP5 DUP2 SLOAD DUP2 LT PUSH2 0x1EBA JUMPI PUSH2 0x1EBA PUSH2 0x25C3 JUMP JUMPDEST PUSH1 0x0 SWAP2 DUP3 MSTORE PUSH1 0x20 DUP1 DUP4 KECCAK256 SWAP1 SWAP2 ADD SLOAD PUSH1 0x1 PUSH1 0x1 PUSH1 0xA0 SHL SUB AND DUP4 MSTORE DUP3 ADD SWAP3 SWAP1 SWAP3 MSTORE PUSH1 0x40 ADD SWAP1 KECCAK256 SLOAD GT JUMPDEST ISZERO PUSH2 0x1EF7 JUMPI PUSH1 0xC SLOAD PUSH1 0xB SLOAD SWAP5 POP SWAP5 POP POP POP POP SWAP1 SWAP2 JUMP JUMPDEST PUSH2 0x1F3D PUSH1 0x2 PUSH1 0x0 PUSH1 0x7 DUP5 DUP2 SLOAD DUP2 LT PUSH2 0x1F11 JUMPI PUSH2 0x1F11 PUSH2 0x25C3 JUMP JUMPDEST PUSH1 0x0 SWAP2 DUP3 MSTORE PUSH1 0x20 DUP1 DUP4 KECCAK256 SWAP1 SWAP2 ADD SLOAD PUSH1 0x1 PUSH1 0x1 PUSH1 0xA0 SHL SUB AND DUP4 MSTORE DUP3 ADD SWAP3 SWAP1 SWAP3 MSTORE PUSH1 0x40 ADD SWAP1 KECCAK256 SLOAD DUP5 SWAP1 PUSH2 0x1A9E JUMP JUMPDEST SWAP3 POP PUSH2 0x1F85 PUSH1 0x3 PUSH1 0x0 PUSH1 0x7 DUP5 DUP2 SLOAD DUP2 LT PUSH2 0x1F59 JUMPI PUSH2 0x1F59 PUSH2 0x25C3 JUMP JUMPDEST PUSH1 0x0 SWAP2 DUP3 MSTORE PUSH1 0x20 DUP1 DUP4 KECCAK256 SWAP1 SWAP2 ADD SLOAD PUSH1 0x1 PUSH1 0x1 PUSH1 0xA0 SHL SUB AND DUP4 MSTORE DUP3 ADD SWAP3 SWAP1 SWAP3 MSTORE PUSH1 0x40 ADD SWAP1 KECCAK256 SLOAD DUP4 SWAP1 PUSH2 0x1A9E JUMP JUMPDEST SWAP2 POP DUP1 PUSH2 0x1F91 DUP2 PUSH2 0x261C JUMP JUMPDEST SWAP2 POP POP PUSH2 0x1E54 JUMP JUMPDEST POP PUSH1 0xB SLOAD PUSH1 0xC SLOAD PUSH2 0x1FA9 SWAP2 PUSH2 0x19FD JUMP JUMPDEST DUP3 LT ISZERO PUSH2 0x1FC0 JUMPI PUSH1 0xC SLOAD PUSH1 0xB SLOAD SWAP4 POP SWAP4 POP POP POP SWAP1 SWAP2 JUMP JUMPDEST SWAP1 SWAP4 SWAP1 SWAP3 POP SWAP1 POP JUMP JUMPDEST PUSH1 0x0 DUP2 DUP4 PUSH2 0x1FEA JUMPI PUSH1 0x40 MLOAD PUSH3 0x461BCD PUSH1 0xE5 SHL DUP2 MSTORE PUSH1 0x4 ADD PUSH2 0x6D5 SWAP2 SWAP1 PUSH2 0x23D7 JUMP JUMPDEST POP PUSH1 0x0 PUSH2 0x19D1 DUP5 DUP7 PUSH2 0x268B JUMP JUMPDEST PUSH1 0x14 SLOAD PUSH1 0x0 SWAP1 PUSH2 0x6A5 SWAP1 PUSH1 0x64 SWAP1 PUSH2 0x10FC SWAP1 DUP6 SWAP1 PUSH2 0xFFFF AND PUSH2 0x1B74 JUMP JUMPDEST PUSH1 0x14 SLOAD PUSH1 0x0 SWAP1 PUSH2 0x6A5 SWAP1 PUSH1 0x64 SWAP1 PUSH2 0x10FC SWAP1 DUP6 SWAP1 PUSH3 0x10000 SWAP1 DIV PUSH2 0xFFFF AND PUSH2 0x1B74 JUMP JUMPDEST PUSH1 0x0 DUP1 PUSH1 0x0 PUSH2 0x2043 DUP5 PUSH2 0x1AE0 JUMP JUMPDEST SWAP3 POP SWAP3 POP SWAP3 POP PUSH1 0x0 DUP1 PUSH1 0x0 PUSH2 0x205C DUP8 DUP7 DUP7 PUSH2 0xCC1 PUSH2 0x19DA JUMP JUMPDEST PUSH1 0x1 PUSH1 0x1 PUSH1 0xA0 SHL SUB DUP13 AND PUSH1 0x0 SWAP1 DUP2 MSTORE PUSH1 0x3 PUSH1 0x20 MSTORE PUSH1 0x40 SWAP1 KECCAK256 SLOAD SWAP3 SWAP6 POP SWAP1 SWAP4 POP SWAP2 POP PUSH2 0x2087 SWAP1 DUP9 PUSH2 0x1A9E JUMP JUMPDEST PUSH1 0x1 PUSH1 0x1 PUSH1 0xA0 SHL SUB DUP11 AND PUSH1 0x0 SWAP1 DUP2 MSTORE PUSH1 0x3 PUSH1 0x20 SWAP1 DUP2 MSTORE PUSH1 0x40 DUP1 DUP4 KECCAK256 SWAP4 SWAP1 SWAP4 SSTORE PUSH1 0x2 SWAP1 MSTORE KECCAK256 SLOAD PUSH2 0x20B6 SWAP1 DUP5 PUSH2 0x1A9E JUMP JUMPDEST PUSH1 0x1 PUSH1 0x1 PUSH1 0xA0 SHL SUB DUP1 DUP12 AND PUSH1 0x0 SWAP1 DUP2 MSTORE PUSH1 0x2 PUSH1 0x20 MSTORE PUSH1 0x40 DUP1 DUP3 KECCAK256 SWAP4 SWAP1 SWAP4 SSTORE SWAP1 DUP11 AND DUP2 MSTORE KECCAK256 SLOAD PUSH2 0x20E5 SWAP1 DUP4 PUSH2 0x1A3F JUMP JUMPDEST PUSH1 0x1 PUSH1 0x1 PUSH1 0xA0 SHL SUB DUP10 AND PUSH1 0x0 SWAP1 DUP2 MSTORE PUSH1 0x2 PUSH1 0x20 MSTORE PUSH1 0x40 SWAP1 KECCAK256 SSTORE PUSH2 0x2107 DUP5 PUSH2 0x22F3 JUMP JUMPDEST PUSH2 0x2111 DUP2 DUP7 PUSH2 0x23B3 JUMP JUMPDEST DUP8 PUSH1 0x1 PUSH1 0x1 PUSH1 0xA0 SHL SUB AND DUP10 PUSH1 0x1 PUSH1 0x1 PUSH1 0xA0 SHL SUB AND PUSH32 0xDDF252AD1BE2C89B69C2B068FC378DAA952BA7F163C4A11628F55A4DF523B3EF DUP9 PUSH1 0x40 MLOAD PUSH2 0x2156 SWAP2 DUP2 MSTORE PUSH1 0x20 ADD SWAP1 JUMP JUMPDEST PUSH1 0x40 MLOAD DUP1 SWAP2 SUB SWAP1 LOG3 POP POP POP POP POP POP POP POP POP JUMP JUMPDEST PUSH1 0x0 DUP1 PUSH1 0x0 PUSH2 0x2177 DUP5 PUSH2 0x1AE0 JUMP JUMPDEST SWAP3 POP SWAP3 POP SWAP3 POP PUSH1 0x0 DUP1 PUSH1 0x0 PUSH2 0x2190 DUP8 DUP7 DUP7 PUSH2 0xCC1 PUSH2 0x19DA JUMP JUMPDEST PUSH1 0x1 PUSH1 0x1 PUSH1 0xA0 SHL SUB DUP13 AND PUSH1 0x0 SWAP1 DUP2 MSTORE PUSH1 0x2 PUSH1 0x20 MSTORE PUSH1 0x40 SWAP1 KECCAK256 SLOAD SWAP3 SWAP6 POP SWAP1 SWAP4 POP SWAP2 POP PUSH2 0x21BB SWAP1 DUP5 PUSH2 0x1A9E JUMP JUMPDEST PUSH1 0x1 PUSH1 0x1 PUSH1 0xA0 SHL SUB DUP1 DUP12 AND PUSH1 0x0 SWAP1 DUP2 MSTORE PUSH1 0x2 PUSH1 0x20 SWAP1 DUP2 MSTORE PUSH1 0x40 DUP1 DUP4 KECCAK256 SWAP5 SWAP1 SWAP5 SSTORE SWAP2 DUP12 AND DUP2 MSTORE PUSH1 0x3 SWAP1 SWAP2 MSTORE KECCAK256 SLOAD PUSH2 0x21F1 SWAP1 DUP8 PUSH2 0x1A3F JUMP JUMPDEST PUSH1 0x1 PUSH1 0x1 PUSH1 0xA0 SHL SUB DUP10 AND PUSH1 0x0 SWAP1 DUP2 MSTORE PUSH1 0x3 PUSH1 0x20 SWAP1 DUP2 MSTORE PUSH1 0x40 DUP1 DUP4 KECCAK256 SWAP4 SWAP1 SWAP4 SSTORE PUSH1 0x2 SWAP1 MSTORE KECCAK256 SLOAD PUSH2 0x20E5 SWAP1 DUP4 PUSH2 0x1A3F JUMP JUMPDEST PUSH1 0x0 DUP1 PUSH1 0x0 PUSH2 0x222E DUP5 PUSH2 0x1AE0 JUMP JUMPDEST SWAP3 POP SWAP3 POP SWAP3 POP PUSH1 0x0 DUP1 PUSH1 0x0 PUSH2 0x2247 DUP8 DUP7 DUP7 PUSH2 0xCC1 PUSH2 0x19DA JUMP JUMPDEST PUSH1 0x1 PUSH1 0x1 PUSH1 0xA0 SHL SUB DUP13 AND PUSH1 0x0 SWAP1 DUP2 MSTORE PUSH1 0x2 PUSH1 0x20 MSTORE PUSH1 0x40 SWAP1 KECCAK256 SLOAD SWAP3 SWAP6 POP SWAP1 SWAP4 POP SWAP2 POP PUSH2 0x20B6 SWAP1 DUP5 PUSH2 0x1A9E JUMP JUMPDEST PUSH1 0x0 DUP1 PUSH1 0x0 PUSH2 0x2280 DUP5 PUSH2 0x1AE0 JUMP JUMPDEST SWAP3 POP SWAP3 POP SWAP3 POP PUSH1 0x0 DUP1 PUSH1 0x0 PUSH2 0x2299 DUP8 DUP7 DUP7 PUSH2 0xCC1 PUSH2 0x19DA JUMP JUMPDEST PUSH1 0x1 PUSH1 0x1 PUSH1 0xA0 SHL SUB DUP13 AND PUSH1 0x0 SWAP1 DUP2 MSTORE PUSH1 0x3 PUSH1 0x20 MSTORE PUSH1 0x40 SWAP1 KECCAK256 SLOAD SWAP3 SWAP6 POP SWAP1 SWAP4 POP SWAP2 POP PUSH2 0x22C4 SWAP1 DUP9 PUSH2 0x1A9E JUMP JUMPDEST PUSH1 0x1 PUSH1 0x1 PUSH1 0xA0 SHL SUB DUP11 AND PUSH1 0x0 SWAP1 DUP2 MSTORE PUSH1 0x3 PUSH1 0x20 SWAP1 DUP2 MSTORE PUSH1 0x40 DUP1 DUP4 KECCAK256 SWAP4 SWAP1 SWAP4 SSTORE PUSH1 0x2 SWAP1 MSTORE KECCAK256 SLOAD PUSH2 0x21BB SWAP1 DUP5 PUSH2 0x1A9E JUMP JUMPDEST PUSH1 0x0 PUSH2 0x22FD PUSH2 0x19DA JUMP JUMPDEST SWAP1 POP PUSH1 0x0 PUSH2 0x230B DUP4 DUP4 PUSH2 0x1B74 JUMP JUMPDEST PUSH1 0xE SLOAD PUSH1 0x1 PUSH1 0x1 PUSH1 0xA0 SHL SUB AND PUSH1 0x0 SWAP1 DUP2 MSTORE PUSH1 0x2 PUSH1 0x20 MSTORE PUSH1 0x40 SWAP1 KECCAK256 SLOAD SWAP1 SWAP2 POP PUSH2 0x2333 SWAP1 DUP3 PUSH2 0x1A3F JUMP JUMPDEST PUSH1 0xE DUP1 SLOAD PUSH1 0x1 PUSH1 0x1 PUSH1 0xA0 SHL SUB SWAP1 DUP2 AND PUSH1 0x0 SWAP1 DUP2 MSTORE PUSH1 0x2 PUSH1 0x20 SWAP1 DUP2 MSTORE PUSH1 0x40 DUP1 DUP4 KECCAK256 SWAP6 SWAP1 SWAP6 SSTORE SWAP3 SLOAD SWAP1 SWAP2 AND DUP2 MSTORE PUSH1 0x6 SWAP1 SWAP2 MSTORE KECCAK256 SLOAD PUSH1 0xFF AND ISZERO PUSH2 0x23AE JUMPI PUSH1 0xE SLOAD PUSH1 0x1 PUSH1 0x1 PUSH1 0xA0 SHL SUB AND PUSH1 0x0 SWAP1 DUP2 MSTORE PUSH1 0x3 PUSH1 0x20 MSTORE PUSH1 0x40 SWAP1 KECCAK256 SLOAD PUSH2 0x2392 SWAP1 DUP5 PUSH2 0x1A3F JUMP JUMPDEST PUSH1 0xE SLOAD PUSH1 0x1 PUSH1 0x1 PUSH1 0xA0 SHL SUB AND PUSH1 0x0 SWAP1 DUP2 MSTORE PUSH1 0x3 PUSH1 0x20 MSTORE PUSH1 0x40 SWAP1 KECCAK256 SSTORE JUMPDEST POP POP POP JUMP JUMPDEST PUSH1 0xC SLOAD PUSH2 0x23C0 SWAP1 DUP4 PUSH2 0x1A9E JUMP JUMPDEST PUSH1 0xC SSTORE PUSH1 0xD SLOAD PUSH2 0x23D0 SWAP1 DUP3 PUSH2 0x1A3F JUMP JUMPDEST PUSH1 0xD SSTORE POP POP JUMP JUMPDEST PUSH1 0x0 PUSH1 0x20 DUP1 DUP4 MSTORE DUP4 MLOAD DUP1 DUP3 DUP6 ADD MSTORE PUSH1 0x0 JUMPDEST DUP2 DUP2 LT ISZERO PUSH2 0x2404 JUMPI DUP6 DUP2 ADD DUP4 ADD MLOAD DUP6 DUP3 ADD PUSH1 0x40 ADD MSTORE DUP3 ADD PUSH2 0x23E8 JUMP JUMPDEST DUP2 DUP2 GT ISZERO PUSH2 0x2416 JUMPI PUSH1 0x0 PUSH1 0x40 DUP4 DUP8 ADD ADD MSTORE JUMPDEST POP PUSH1 0x1F ADD PUSH1 0x1F NOT AND SWAP3 SWAP1 SWAP3 ADD PUSH1 0x40 ADD SWAP4 SWAP3 POP POP POP JUMP JUMPDEST PUSH1 0x1 PUSH1 0x1 PUSH1 0xA0 SHL SUB DUP2 AND DUP2 EQ PUSH2 0x2441 JUMPI PUSH1 0x0 DUP1 REVERT JUMPDEST POP JUMP JUMPDEST PUSH1 0x0 DUP1 PUSH1 0x40 DUP4 DUP6 SUB SLT ISZERO PUSH2 0x2457 JUMPI PUSH1 0x0 DUP1 REVERT JUMPDEST DUP3 CALLDATALOAD PUSH2 0x2462 DUP2 PUSH2 0x242C JUMP JUMPDEST SWAP5 PUSH1 0x20 SWAP4 SWAP1 SWAP4 ADD CALLDATALOAD SWAP4 POP POP POP JUMP JUMPDEST PUSH1 0x0 PUSH1 0x20 DUP3 DUP5 SUB SLT ISZERO PUSH2 0x2482 JUMPI PUSH1 0x0 DUP1 REVERT JUMPDEST DUP2 CALLDATALOAD PUSH2 0x959 DUP2 PUSH2 0x242C JUMP JUMPDEST PUSH1 0x0 DUP1 PUSH1 0x0 PUSH1 0x60 DUP5 DUP7 SUB SLT ISZERO PUSH2 0x24A2 JUMPI PUSH1 0x0 DUP1 REVERT JUMPDEST DUP4 CALLDATALOAD PUSH2 0x24AD DUP2 PUSH2 0x242C JUMP JUMPDEST SWAP3 POP PUSH1 0x20 DUP5 ADD CALLDATALOAD PUSH2 0x24BD DUP2 PUSH2 0x242C JUMP JUMPDEST SWAP3 SWAP6 SWAP3 SWAP5 POP POP POP PUSH1 0x40 SWAP2 SWAP1 SWAP2 ADD CALLDATALOAD SWAP1 JUMP JUMPDEST PUSH1 0x0 PUSH1 0x20 DUP3 DUP5 SUB SLT ISZERO PUSH2 0x24E0 JUMPI PUSH1 0x0 DUP1 REVERT JUMPDEST POP CALLDATALOAD SWAP2 SWAP1 POP JUMP JUMPDEST DUP1 ISZERO ISZERO DUP2 EQ PUSH2 0x2441 JUMPI PUSH1 0x0 DUP1 REVERT JUMPDEST PUSH1 0x0 DUP1 PUSH1 0x40 DUP4 DUP6 SUB SLT ISZERO PUSH2 0x2508 JUMPI PUSH1 0x0 DUP1 REVERT JUMPDEST DUP3 CALLDATALOAD SWAP2 POP PUSH1 0x20 DUP4 ADD CALLDATALOAD PUSH2 0x251A DUP2 PUSH2 0x24E7 JUMP JUMPDEST DUP1 SWAP2 POP POP SWAP3 POP SWAP3 SWAP1 POP JUMP JUMPDEST PUSH1 0x0 DUP1 PUSH1 0x40 DUP4 DUP6 SUB SLT ISZERO PUSH2 0x2538 JUMPI PUSH1 0x0 DUP1 REVERT JUMPDEST DUP3 CALLDATALOAD PUSH2 0x2543 DUP2 PUSH2 0x242C JUMP JUMPDEST SWAP2 POP PUSH1 0x20 DUP4 ADD CALLDATALOAD PUSH2 0x251A DUP2 PUSH2 0x242C JUMP JUMPDEST PUSH1 0x1 DUP2 DUP2 SHR SWAP1 DUP3 AND DUP1 PUSH2 0x2567 JUMPI PUSH1 0x7F DUP3 AND SWAP2 POP JUMPDEST PUSH1 0x20 DUP3 LT DUP2 EQ ISZERO PUSH2 0x2588 JUMPI PUSH4 0x4E487B71 PUSH1 0xE0 SHL PUSH1 0x0 MSTORE PUSH1 0x22 PUSH1 0x4 MSTORE PUSH1 0x24 PUSH1 0x0 REVERT JUMPDEST POP SWAP2 SWAP1 POP JUMP JUMPDEST PUSH1 0x20 DUP1 DUP3 MSTORE DUP2 DUP2 ADD MSTORE PUSH32 0x4F776E61626C653A2063616C6C6572206973206E6F7420746865206F776E6572 PUSH1 0x40 DUP3 ADD MSTORE PUSH1 0x60 ADD SWAP1 JUMP JUMPDEST PUSH4 0x4E487B71 PUSH1 0xE0 SHL PUSH1 0x0 MSTORE PUSH1 0x32 PUSH1 0x4 MSTORE PUSH1 0x24 PUSH1 0x0 REVERT JUMPDEST PUSH4 0x4E487B71 PUSH1 0xE0 SHL PUSH1 0x0 MSTORE PUSH1 0x11 PUSH1 0x4 MSTORE PUSH1 0x24 PUSH1 0x0 REVERT JUMPDEST PUSH1 0x0 DUP3 DUP3 LT ISZERO PUSH2 0x2601 JUMPI PUSH2 0x2601 PUSH2 0x25D9 JUMP JUMPDEST POP SUB SWAP1 JUMP JUMPDEST PUSH4 0x4E487B71 PUSH1 0xE0 SHL PUSH1 0x0 MSTORE PUSH1 0x31 PUSH1 0x4 MSTORE PUSH1 0x24 PUSH1 0x0 REVERT JUMPDEST PUSH1 0x0 PUSH1 0x0 NOT DUP3 EQ ISZERO PUSH2 0x2630 JUMPI PUSH2 0x2630 PUSH2 0x25D9 JUMP JUMPDEST POP PUSH1 0x1 ADD SWAP1 JUMP JUMPDEST PUSH1 0x0 PUSH1 0x20 DUP3 DUP5 SUB SLT ISZERO PUSH2 0x2649 JUMPI PUSH1 0x0 DUP1 REVERT JUMPDEST DUP2 MLOAD PUSH2 0x959 DUP2 PUSH2 0x24E7 JUMP JUMPDEST PUSH1 0x0 DUP3 NOT DUP3 GT ISZERO PUSH2 0x2667 JUMPI PUSH2 0x2667 PUSH2 0x25D9 JUMP JUMPDEST POP ADD SWAP1 JUMP JUMPDEST PUSH1 0x0 DUP2 PUSH1 0x0 NOT DIV DUP4 GT DUP3 ISZERO ISZERO AND ISZERO PUSH2 0x2686 JUMPI PUSH2 0x2686 PUSH2 0x25D9 JUMP JUMPDEST POP MUL SWAP1 JUMP JUMPDEST PUSH1 0x0 DUP3 PUSH2 0x26A8 JUMPI PUSH4 0x4E487B71 PUSH1 0xE0 SHL PUSH1 0x0 MSTORE PUSH1 0x12 PUSH1 0x4 MSTORE PUSH1 0x24 PUSH1 0x0 REVERT JUMPDEST POP DIV SWAP1 JUMP INVALID GASLIMIT MSTORE NUMBER ORIGIN ADDRESS GASPRICE KECCAK256 PUSH21 0x72616E7366657220616D6F756E7420657863656564 PUSH20 0x20616C6C6F77616E636545524332303A20646563 PUSH19 0x656173656420616C6C6F77616E63652062656C PUSH16 0x77207A65726FA2646970667358221220 0xAA OR 0xF 0xD1 SWAP4 0x2E 0xE2 ORIGIN SWAP8 PUSH26 0x2089715B04ACF719B51F0B4D71187B457180B3497C2E64736F6C PUSH4 0x4300080A STOP CALLER "
		},
		"gasEstimates": {
			"creation": {
				"codeDepositCost": "2006400",
				"executionCost": "infinite",
				"totalCost": "infinite"
			},
			"external": {
				"": "261",
				"_maxTxAmount()": "2407",
				"_maxWalletSize()": "2362",
				"_setMaxWalletSizePercent(uint256)": "infinite",
				"_taxPool()": "2448",
				"addBotToBlacklist(address)": "77547",
				"allowance(address,address)": "infinite",
				"approve(address,uint256)": "24660",
				"balanceOf(address)": "infinite",
				"burn(uint256)": "infinite",
				"buyFee()": "2430",
				"decimals()": "2335",
				"decreaseAllowance(address,uint256)": "infinite",
				"excludeFromFee(address)": "26878",
				"excludeFromLimit(address)": "26835",
				"excludeFromReward(address)": "infinite",
				"includeInFee(address)": "26848",
				"includeInLimit(address)": "26827",
				"includeInReward(address)": "infinite",
				"increaseAllowance(address,uint256)": "27095",
				"isExcludedFromFee(address)": "2589",
				"isExcludedFromLimit(address)": "2609",
				"isExcludedFromReward(address)": "2677",
				"name()": "infinite",
				"owner()": "2376",
				"reflectionFromToken(uint256,bool)": "infinite",
				"removeBotFromBlacklist(address)": "infinite",
				"renounceOwnership()": "30255",
				"sellFee()": "2475",
				"setMaxTxPercent(uint256)": "infinite",
				"symbol()": "infinite",
				"tokenFromReflection(uint256)": "infinite",
				"totalFees()": "2394",
				"totalSupply()": "2338",
				"transfer(address,uint256)": "infinite",
				"transferFrom(address,address,uint256)": "infinite",
				"transferOwnership(address)": "30526",
				"uniswapV2Pair()": "infinite",
				"uniswapV2Router()": "infinite",
				"updateTaxPoolWallet(address)": "26838",
				"withdrawToken(address,uint256)": "infinite"
			},
			"internal": {
				"_approve(address,address,uint256)": "infinite",
				"_getCurrentSupply()": "infinite",
				"_getRValues(uint256,uint256,uint256,uint256)": "infinite",
				"_getRate()": "infinite",
				"_getTValues(uint256)": "infinite",
				"_reflectFee(uint256,uint256)": "infinite",
				"_takeMarketing(uint256)": "infinite",
				"_tokenTransfer(address,address,uint256,bool)": "infinite",
				"_transfer(address,address,uint256)": "infinite",
				"_transferBothExcluded(address,address,uint256)": "infinite",
				"_transferFromExcluded(address,address,uint256)": "infinite",
				"_transferStandard(address,address,uint256)": "infinite",
				"_transferToExcluded(address,address,uint256)": "infinite",
				"addLiquidity(uint256,uint256)": "infinite",
				"calculateMarketingFee(uint256)": "infinite",
				"calculateTaxFee(uint256)": "infinite",
				"removeAllFee()": "infinite",
				"setBuy()": "infinite",
				"setSell()": "infinite",
				"swapTokensForEth(uint256)": "infinite"
			}
		},
		"methodIdentifiers": {
			"_maxTxAmount()": "7d1db4a5",
			"_maxWalletSize()": "8f9a55c0",
			"_setMaxWalletSizePercent(uint256)": "af2ce614",
			"_taxPool()": "4eeb94ce",
			"addBotToBlacklist(address)": "1d7ef879",
			"allowance(address,address)": "dd62ed3e",
			"approve(address,uint256)": "095ea7b3",
			"balanceOf(address)": "70a08231",
			"burn(uint256)": "42966c68",
			"buyFee()": "47062402",
			"decimals()": "313ce567",
			"decreaseAllowance(address,uint256)": "a457c2d7",
			"excludeFromFee(address)": "437823ec",
			"excludeFromLimit(address)": "0bd3a7f9",
			"excludeFromReward(address)": "52390c02",
			"includeInFee(address)": "ea2f0b37",
			"includeInLimit(address)": "91d919a9",
			"includeInReward(address)": "3685d419",
			"increaseAllowance(address,uint256)": "39509351",
			"isExcludedFromFee(address)": "5342acb4",
			"isExcludedFromLimit(address)": "d94160e0",
			"isExcludedFromReward(address)": "88f82020",
			"name()": "06fdde03",
			"owner()": "8da5cb5b",
			"reflectionFromToken(uint256,bool)": "4549b039",
			"removeBotFromBlacklist(address)": "b030b34a",
			"renounceOwnership()": "715018a6",
			"sellFee()": "2b14ca56",
			"setMaxTxPercent(uint256)": "d543dbeb",
			"symbol()": "95d89b41",
			"tokenFromReflection(uint256)": "2d838119",
			"totalFees()": "13114a9d",
			"totalSupply()": "18160ddd",
			"transfer(address,uint256)": "a9059cbb",
			"transferFrom(address,address,uint256)": "23b872dd",
			"transferOwnership(address)": "f2fde38b",
			"uniswapV2Pair()": "49bd5a5e",
			"uniswapV2Router()": "1694505e",
			"updateTaxPoolWallet(address)": "ba1c4246",
			"withdrawToken(address,uint256)": "9e281a98"
		}
	},
	"abi": [
		{
			"inputs": [],
			"stateMutability": "nonpayable",
			"type": "constructor"
		},
		{
			"anonymous": false,
			"inputs": [
				{
					"indexed": true,
					"internalType": "address",
					"name": "owner",
					"type": "address"
				},
				{
					"indexed": true,
					"internalType": "address",
					"name": "spender",
					"type": "address"
				},
				{
					"indexed": false,
					"internalType": "uint256",
					"name": "value",
					"type": "uint256"
				}
			],
			"name": "Approval",
			"type": "event"
		},
		{
			"anonymous": false,
			"inputs": [
				{
					"indexed": true,
					"internalType": "address",
					"name": "burner",
					"type": "address"
				},
				{
					"indexed": false,
					"internalType": "uint256",
					"name": "value",
					"type": "uint256"
				}
			],
			"name": "Burn",
			"type": "event"
		},
		{
			"anonymous": false,
			"inputs": [
				{
					"indexed": true,
					"internalType": "address",
					"name": "previousOwner",
					"type": "address"
				},
				{
					"indexed": true,
					"internalType": "address",
					"name": "newOwner",
					"type": "address"
				}
			],
			"name": "OwnershipTransferred",
			"type": "event"
		},
		{
			"anonymous": false,
			"inputs": [
				{
					"indexed": true,
					"internalType": "address",
					"name": "from",
					"type": "address"
				},
				{
					"indexed": true,
					"internalType": "address",
					"name": "to",
					"type": "address"
				},
				{
					"indexed": false,
					"internalType": "uint256",
					"name": "value",
					"type": "uint256"
				}
			],
			"name": "Transfer",
			"type": "event"
		},
		{
			"anonymous": false,
			"inputs": [
				{
					"indexed": false,
					"internalType": "address",
					"name": "account",
					"type": "address"
				}
			],
			"name": "botAddedToBlacklist",
			"type": "event"
		},
		{
			"anonymous": false,
			"inputs": [
				{
					"indexed": false,
					"internalType": "address",
					"name": "account",
					"type": "address"
				}
			],
			"name": "botRemovedFromBlacklist",
			"type": "event"
		},
		{
			"stateMutability": "nonpayable",
			"type": "fallback"
		},
		{
			"inputs": [],
			"name": "_maxTxAmount",
			"outputs": [
				{
					"internalType": "uint256",
					"name": "",
					"type": "uint256"
				}
			],
			"stateMutability": "view",
			"type": "function"
		},
		{
			"inputs": [],
			"name": "_maxWalletSize",
			"outputs": [
				{
					"internalType": "uint256",
					"name": "",
					"type": "uint256"
				}
			],
			"stateMutability": "view",
			"type": "function"
		},
		{
			"inputs": [
				{
					"internalType": "uint256",
					"name": "maxWalletSize",
					"type": "uint256"
				}
			],
			"name": "_setMaxWalletSizePercent",
			"outputs": [],
			"stateMutability": "nonpayable",
			"type": "function"
		},
		{
			"inputs": [],
			"name": "_taxPool",
			"outputs": [
				{
					"internalType": "address payable",
					"name": "",
					"type": "address"
				}
			],
			"stateMutability": "view",
			"type": "function"
		},
		{
			"inputs": [
				{
					"internalType": "address",
					"name": "account",
					"type": "address"
				}
			],
			"name": "addBotToBlacklist",
			"outputs": [],
			"stateMutability": "nonpayable",
			"type": "function"
		},
		{
			"inputs": [
				{
					"internalType": "address",
					"name": "owner",
					"type": "address"
				},
				{
					"internalType": "address",
					"name": "spender",
					"type": "address"
				}
			],
			"name": "allowance",
			"outputs": [
				{
					"internalType": "uint256",
					"name": "",
					"type": "uint256"
				}
			],
			"stateMutability": "view",
			"type": "function"
		},
		{
			"inputs": [
				{
					"internalType": "address",
					"name": "spender",
					"type": "address"
				},
				{
					"internalType": "uint256",
					"name": "amount",
					"type": "uint256"
				}
			],
			"name": "approve",
			"outputs": [
				{
					"internalType": "bool",
					"name": "",
					"type": "bool"
				}
			],
			"stateMutability": "nonpayable",
			"type": "function"
		},
		{
			"inputs": [
				{
					"internalType": "address",
					"name": "account",
					"type": "address"
				}
			],
			"name": "balanceOf",
			"outputs": [
				{
					"internalType": "uint256",
					"name": "",
					"type": "uint256"
				}
			],
			"stateMutability": "view",
			"type": "function"
		},
		{
			"inputs": [
				{
					"internalType": "uint256",
					"name": "value",
					"type": "uint256"
				}
			],
			"name": "burn",
			"outputs": [],
			"stateMutability": "nonpayable",
			"type": "function"
		},
		{
			"inputs": [],
			"name": "buyFee",
			"outputs": [
				{
					"internalType": "uint16",
					"name": "tax",
					"type": "uint16"
				},
				{
					"internalType": "uint16",
					"name": "marketing",
					"type": "uint16"
				}
			],
			"stateMutability": "view",
			"type": "function"
		},
		{
			"inputs": [],
			"name": "decimals",
			"outputs": [
				{
					"internalType": "uint8",
					"name": "",
					"type": "uint8"
				}
			],
			"stateMutability": "view",
			"type": "function"
		},
		{
			"inputs": [
				{
					"internalType": "address",
					"name": "spender",
					"type": "address"
				},
				{
					"internalType": "uint256",
					"name": "subtractedValue",
					"type": "uint256"
				}
			],
			"name": "decreaseAllowance",
			"outputs": [
				{
					"internalType": "bool",
					"name": "",
					"type": "bool"
				}
			],
			"stateMutability": "nonpayable",
			"type": "function"
		},
		{
			"inputs": [
				{
					"internalType": "address",
					"name": "account",
					"type": "address"
				}
			],
			"name": "excludeFromFee",
			"outputs": [],
			"stateMutability": "nonpayable",
			"type": "function"
		},
		{
			"inputs": [
				{
					"internalType": "address",
					"name": "account",
					"type": "address"
				}
			],
			"name": "excludeFromLimit",
			"outputs": [],
			"stateMutability": "nonpayable",
			"type": "function"
		},
		{
			"inputs": [
				{
					"internalType": "address",
					"name": "account",
					"type": "address"
				}
			],
			"name": "excludeFromReward",
			"outputs": [],
			"stateMutability": "nonpayable",
			"type": "function"
		},
		{
			"inputs": [
				{
					"internalType": "address",
					"name": "account",
					"type": "address"
				}
			],
			"name": "includeInFee",
			"outputs": [],
			"stateMutability": "nonpayable",
			"type": "function"
		},
		{
			"inputs": [
				{
					"internalType": "address",
					"name": "account",
					"type": "address"
				}
			],
			"name": "includeInLimit",
			"outputs": [],
			"stateMutability": "nonpayable",
			"type": "function"
		},
		{
			"inputs": [
				{
					"internalType": "address",
					"name": "account",
					"type": "address"
				}
			],
			"name": "includeInReward",
			"outputs": [],
			"stateMutability": "nonpayable",
			"type": "function"
		},
		{
			"inputs": [
				{
					"internalType": "address",
					"name": "spender",
					"type": "address"
				},
				{
					"internalType": "uint256",
					"name": "addedValue",
					"type": "uint256"
				}
			],
			"name": "increaseAllowance",
			"outputs": [
				{
					"internalType": "bool",
					"name": "",
					"type": "bool"
				}
			],
			"stateMutability": "nonpayable",
			"type": "function"
		},
		{
			"inputs": [
				{
					"internalType": "address",
					"name": "account",
					"type": "address"
				}
			],
			"name": "isExcludedFromFee",
			"outputs": [
				{
					"internalType": "bool",
					"name": "",
					"type": "bool"
				}
			],
			"stateMutability": "view",
			"type": "function"
		},
		{
			"inputs": [
				{
					"internalType": "address",
					"name": "account",
					"type": "address"
				}
			],
			"name": "isExcludedFromLimit",
			"outputs": [
				{
					"internalType": "bool",
					"name": "",
					"type": "bool"
				}
			],
			"stateMutability": "view",
			"type": "function"
		},
		{
			"inputs": [
				{
					"internalType": "address",
					"name": "account",
					"type": "address"
				}
			],
			"name": "isExcludedFromReward",
			"outputs": [
				{
					"internalType": "bool",
					"name": "",
					"type": "bool"
				}
			],
			"stateMutability": "view",
			"type": "function"
		},
		{
			"inputs": [],
			"name": "name",
			"outputs": [
				{
					"internalType": "string",
					"name": "",
					"type": "string"
				}
			],
			"stateMutability": "view",
			"type": "function"
		},
		{
			"inputs": [],
			"name": "owner",
			"outputs": [
				{
					"internalType": "address",
					"name": "",
					"type": "address"
				}
			],
			"stateMutability": "view",
			"type": "function"
		},
		{
			"inputs": [
				{
					"internalType": "uint256",
					"name": "tAmount",
					"type": "uint256"
				},
				{
					"internalType": "bool",
					"name": "deductTransferFee",
					"type": "bool"
				}
			],
			"name": "reflectionFromToken",
			"outputs": [
				{
					"internalType": "uint256",
					"name": "",
					"type": "uint256"
				}
			],
			"stateMutability": "view",
			"type": "function"
		},
		{
			"inputs": [
				{
					"internalType": "address",
					"name": "account",
					"type": "address"
				}
			],
			"name": "removeBotFromBlacklist",
			"outputs": [],
			"stateMutability": "nonpayable",
			"type": "function"
		},
		{
			"inputs": [],
			"name": "renounceOwnership",
			"outputs": [],
			"stateMutability": "nonpayable",
			"type": "function"
		},
		{
			"inputs": [],
			"name": "sellFee",
			"outputs": [
				{
					"internalType": "uint16",
					"name": "tax",
					"type": "uint16"
				},
				{
					"internalType": "uint16",
					"name": "marketing",
					"type": "uint16"
				}
			],
			"stateMutability": "view",
			"type": "function"
		},
		{
			"inputs": [
				{
					"internalType": "uint256",
					"name": "maxTxPercent",
					"type": "uint256"
				}
			],
			"name": "setMaxTxPercent",
			"outputs": [],
			"stateMutability": "nonpayable",
			"type": "function"
		},
		{
			"inputs": [],
			"name": "symbol",
			"outputs": [
				{
					"internalType": "string",
					"name": "",
					"type": "string"
				}
			],
			"stateMutability": "view",
			"type": "function"
		},
		{
			"inputs": [
				{
					"internalType": "uint256",
					"name": "rAmount",
					"type": "uint256"
				}
			],
			"name": "tokenFromReflection",
			"outputs": [
				{
					"internalType": "uint256",
					"name": "",
					"type": "uint256"
				}
			],
			"stateMutability": "view",
			"type": "function"
		},
		{
			"inputs": [],
			"name": "totalFees",
			"outputs": [
				{
					"internalType": "uint256",
					"name": "",
					"type": "uint256"
				}
			],
			"stateMutability": "view",
			"type": "function"
		},
		{
			"inputs": [],
			"name": "totalSupply",
			"outputs": [
				{
					"internalType": "uint256",
					"name": "",
					"type": "uint256"
				}
			],
			"stateMutability": "view",
			"type": "function"
		},
		{
			"inputs": [
				{
					"internalType": "address",
					"name": "recipient",
					"type": "address"
				},
				{
					"internalType": "uint256",
					"name": "amount",
					"type": "uint256"
				}
			],
			"name": "transfer",
			"outputs": [
				{
					"internalType": "bool",
					"name": "",
					"type": "bool"
				}
			],
			"stateMutability": "nonpayable",
			"type": "function"
		},
		{
			"inputs": [
				{
					"internalType": "address",
					"name": "sender",
					"type": "address"
				},
				{
					"internalType": "address",
					"name": "recipient",
					"type": "address"
				},
				{
					"internalType": "uint256",
					"name": "amount",
					"type": "uint256"
				}
			],
			"name": "transferFrom",
			"outputs": [
				{
					"internalType": "bool",
					"name": "",
					"type": "bool"
				}
			],
			"stateMutability": "nonpayable",
			"type": "function"
		},
		{
			"inputs": [
				{
					"internalType": "address",
					"name": "newOwner",
					"type": "address"
				}
			],
			"name": "transferOwnership",
			"outputs": [],
			"stateMutability": "nonpayable",
			"type": "function"
		},
		{
			"inputs": [],
			"name": "uniswapV2Pair",
			"outputs": [
				{
					"internalType": "address",
					"name": "",
					"type": "address"
				}
			],
			"stateMutability": "view",
			"type": "function"
		},
		{
			"inputs": [],
			"name": "uniswapV2Router",
			"outputs": [
				{
					"internalType": "contract IUniswapV2Router02",
					"name": "",
					"type": "address"
				}
			],
			"stateMutability": "view",
			"type": "function"
		},
		{
			"inputs": [
				{
					"internalType": "address payable",
					"name": "newAddress",
					"type": "address"
				}
			],
			"name": "updateTaxPoolWallet",
			"outputs": [],
			"stateMutability": "nonpayable",
			"type": "function"
		},
		{
			"inputs": [
				{
					"internalType": "address",
					"name": "_tokenContract",
					"type": "address"
				},
				{
					"internalType": "uint256",
					"name": "_amount",
					"type": "uint256"
				}
			],
			"name": "withdrawToken",
			"outputs": [],
			"stateMutability": "nonpayable",
			"type": "function"
		}
	]
}