{
	"contracts/coffe.sol": {
		"CoffeeCrypto": {
			"abi": [
				{
					"inputs": [],
					"stateMutability": "nonpayable",
					"type": "constructor"
				},
				{
					"anonymous": false,
					"inputs": [
						{
							"indexed": true,
							"internalType": "address",
							"name": "owner",
							"type": "address"
						},
						{
							"indexed": true,
							"internalType": "address",
							"name": "spender",
							"type": "address"
						},
						{
							"indexed": false,
							"internalType": "uint256",
							"name": "value",
							"type": "uint256"
						}
					],
					"name": "Approval",
					"type": "event"
				},
				{
					"anonymous": false,
					"inputs": [
						{
							"indexed": true,
							"internalType": "address",
							"name": "burner",
							"type": "address"
						},
						{
							"indexed": false,
							"internalType": "uint256",
							"name": "value",
							"type": "uint256"
						}
					],
					"name": "Burn",
					"type": "event"
				},
				{
					"anonymous": false,
					"inputs": [
						{
							"indexed": true,
							"internalType": "address",
							"name": "previousOwner",
							"type": "address"
						},
						{
							"indexed": true,
							"internalType": "address",
							"name": "newOwner",
							"type": "address"
						}
					],
					"name": "OwnershipTransferred",
					"type": "event"
				},
				{
					"anonymous": false,
					"inputs": [
						{
							"indexed": true,
							"internalType": "address",
							"name": "from",
							"type": "address"
						},
						{
							"indexed": true,
							"internalType": "address",
							"name": "to",
							"type": "address"
						},
						{
							"indexed": false,
							"internalType": "uint256",
							"name": "value",
							"type": "uint256"
						}
					],
					"name": "Transfer",
					"type": "event"
				},
				{
					"anonymous": false,
					"inputs": [
						{
							"indexed": false,
							"internalType": "address",
							"name": "account",
							"type": "address"
						}
					],
					"name": "botAddedToBlacklist",
					"type": "event"
				},
				{
					"anonymous": false,
					"inputs": [
						{
							"indexed": false,
							"internalType": "address",
							"name": "account",
							"type": "address"
						}
					],
					"name": "botRemovedFromBlacklist",
					"type": "event"
				},
				{
					"stateMutability": "nonpayable",
					"type": "fallback"
				},
				{
					"inputs": [],
					"name": "_maxTxAmount",
					"outputs": [
						{
							"internalType": "uint256",
							"name": "",
							"type": "uint256"
						}
					],
					"stateMutability": "view",
					"type": "function"
				},
				{
					"inputs": [],
					"name": "_maxWalletSize",
					"outputs": [
						{
							"internalType": "uint256",
							"name": "",
							"type": "uint256"
						}
					],
					"stateMutability": "view",
					"type": "function"
				},
				{
					"inputs": [
						{
							"internalType": "uint256",
							"name": "maxWalletSize",
							"type": "uint256"
						}
					],
					"name": "_setMaxWalletSizePercent",
					"outputs": [],
					"stateMutability": "nonpayable",
					"type": "function"
				},
				{
					"inputs": [],
					"name": "_taxPool",
					"outputs": [
						{
							"internalType": "address payable",
							"name": "",
							"type": "address"
						}
					],
					"stateMutability": "view",
					"type": "function"
				},
				{
					"inputs": [
						{
							"internalType": "address",
							"name": "account",
							"type": "address"
						}
					],
					"name": "addBotToBlacklist",
					"outputs": [],
					"stateMutability": "nonpayable",
					"type": "function"
				},
				{
					"inputs": [
						{
							"internalType": "address",
							"name": "owner",
							"type": "address"
						},
						{
							"internalType": "address",
							"name": "spender",
							"type": "address"
						}
					],
					"name": "allowance",
					"outputs": [
						{
							"internalType": "uint256",
							"name": "",
							"type": "uint256"
						}
					],
					"stateMutability": "view",
					"type": "function"
				},
				{
					"inputs": [
						{
							"internalType": "address",
							"name": "spender",
							"type": "address"
						},
						{
							"internalType": "uint256",
							"name": "amount",
							"type": "uint256"
						}
					],
					"name": "approve",
					"outputs": [
						{
							"internalType": "bool",
							"name": "",
							"type": "bool"
						}
					],
					"stateMutability": "nonpayable",
					"type": "function"
				},
				{
					"inputs": [
						{
							"internalType": "address",
							"name": "account",
							"type": "address"
						}
					],
					"name": "balanceOf",
					"outputs": [
						{
							"internalType": "uint256",
							"name": "",
							"type": "uint256"
						}
					],
					"stateMutability": "view",
					"type": "function"
				},
				{
					"inputs": [
						{
							"internalType": "uint256",
							"name": "value",
							"type": "uint256"
						}
					],
					"name": "burn",
					"outputs": [],
					"stateMutability": "nonpayable",
					"type": "function"
				},
				{
					"inputs": [],
					"name": "buyFee",
					"outputs": [
						{
							"internalType": "uint16",
							"name": "tax",
							"type": "uint16"
						},
						{
							"internalType": "uint16",
							"name": "marketing",
							"type": "uint16"
						}
					],
					"stateMutability": "view",
					"type": "function"
				},
				{
					"inputs": [],
					"name": "decimals",
					"outputs": [
						{
							"internalType": "uint8",
							"name": "",
							"type": "uint8"
						}
					],
					"stateMutability": "view",
					"type": "function"
				},
				{
					"inputs": [
						{
							"internalType": "address",
							"name": "spender",
							"type": "address"
						},
						{
							"internalType": "uint256",
							"name": "subtractedValue",
							"type": "uint256"
						}
					],
					"name": "decreaseAllowance",
					"outputs": [
						{
							"internalType": "bool",
							"name": "",
							"type": "bool"
						}
					],
					"stateMutability": "nonpayable",
					"type": "function"
				},
				{
					"inputs": [
						{
							"internalType": "address",
							"name": "account",
							"type": "address"
						}
					],
					"name": "excludeFromFee",
					"outputs": [],
					"stateMutability": "nonpayable",
					"type": "function"
				},
				{
					"inputs": [
						{
							"internalType": "address",
							"name": "account",
							"type": "address"
						}
					],
					"name": "excludeFromLimit",
					"outputs": [],
					"stateMutability": "nonpayable",
					"type": "function"
				},
				{
					"inputs": [
						{
							"internalType": "address",
							"name": "account",
							"type": "address"
						}
					],
					"name": "excludeFromReward",
					"outputs": [],
					"stateMutability": "nonpayable",
					"type": "function"
				},
				{
					"inputs": [
						{
							"internalType": "address",
							"name": "account",
							"type": "address"
						}
					],
					"name": "includeInFee",
					"outputs": [],
					"stateMutability": "nonpayable",
					"type": "function"
				},
				{
					"inputs": [
						{
							"internalType": "address",
							"name": "account",
							"type": "address"
						}
					],
					"name": "includeInLimit",
					"outputs": [],
					"stateMutability": "nonpayable",
					"type": "function"
				},
				{
					"inputs": [
						{
							"internalType": "address",
							"name": "account",
							"type": "address"
						}
					],
					"name": "includeInReward",
					"outputs": [],
					"stateMutability": "nonpayable",
					"type": "function"
				},
				{
					"inputs": [
						{
							"internalType": "address",
							"name": "spender",
							"type": "address"
						},
						{
							"internalType": "uint256",
							"name": "addedValue",
							"type": "uint256"
						}
					],
					"name": "increaseAllowance",
					"outputs": [
						{
							"internalType": "bool",
							"name": "",
							"type": "bool"
						}
					],
					"stateMutability": "nonpayable",
					"type": "function"
				},
				{
					"inputs": [
						{
							"internalType": "address",
							"name": "account",
							"type": "address"
						}
					],
					"name": "isExcludedFromFee",
					"outputs": [
						{
							"internalType": "bool",
							"name": "",
							"type": "bool"
						}
					],
					"stateMutability": "view",
					"type": "function"
				},
				{
					"inputs": [
						{
							"internalType": "address",
							"name": "account",
							"type": "address"
						}
					],
					"name": "isExcludedFromLimit",
					"outputs": [
						{
							"internalType": "bool",
							"name": "",
							"type": "bool"
						}
					],
					"stateMutability": "view",
					"type": "function"
				},
				{
					"inputs": [
						{
							"internalType": "address",
							"name": "account",
							"type": "address"
						}
					],
					"name": "isExcludedFromReward",
					"outputs": [
						{
							"internalType": "bool",
							"name": "",
							"type": "bool"
						}
					],
					"stateMutability": "view",
					"type": "function"
				},
				{
					"inputs": [],
					"name": "name",
					"outputs": [
						{
							"internalType": "string",
							"name": "",
							"type": "string"
						}
					],
					"stateMutability": "view",
					"type": "function"
				},
				{
					"inputs": [],
					"name": "owner",
					"outputs": [
						{
							"internalType": "address",
							"name": "",
							"type": "address"
						}
					],
					"stateMutability": "view",
					"type": "function"
				},
				{
					"inputs": [
						{
							"internalType": "uint256",
							"name": "tAmount",
							"type": "uint256"
						},
						{
							"internalType": "bool",
							"name": "deductTransferFee",
							"type": "bool"
						}
					],
					"name": "reflectionFromToken",
					"outputs": [
						{
							"internalType": "uint256",
							"name": "",
							"type": "uint256"
						}
					],
					"stateMutability": "view",
					"type": "function"
				},
				{
					"inputs": [
						{
							"internalType": "address",
							"name": "account",
							"type": "address"
						}
					],
					"name": "removeBotFromBlacklist",
					"outputs": [],
					"stateMutability": "nonpayable",
					"type": "function"
				},
				{
					"inputs": [],
					"name": "renounceOwnership",
					"outputs": [],
					"stateMutability": "nonpayable",
					"type": "function"
				},
				{
					"inputs": [],
					"name": "sellFee",
					"outputs": [
						{
							"internalType": "uint16",
							"name": "tax",
							"type": "uint16"
						},
						{
							"internalType": "uint16",
							"name": "marketing",
							"type": "uint16"
						}
					],
					"stateMutability": "view",
					"type": "function"
				},
				{
					"inputs": [
						{
							"internalType": "uint256",
							"name": "maxTxPercent",
							"type": "uint256"
						}
					],
					"name": "setMaxTxPercent",
					"outputs": [],
					"stateMutability": "nonpayable",
					"type": "function"
				},
				{
					"inputs": [],
					"name": "symbol",
					"outputs": [
						{
							"internalType": "string",
							"name": "",
							"type": "string"
						}
					],
					"stateMutability": "view",
					"type": "function"
				},
				{
					"inputs": [
						{
							"internalType": "uint256",
							"name": "rAmount",
							"type": "uint256"
						}
					],
					"name": "tokenFromReflection",
					"outputs": [
						{
							"internalType": "uint256",
							"name": "",
							"type": "uint256"
						}
					],
					"stateMutability": "view",
					"type": "function"
				},
				{
					"inputs": [],
					"name": "totalFees",
					"outputs": [
						{
							"internalType": "uint256",
							"name": "",
							"type": "uint256"
						}
					],
					"stateMutability": "view",
					"type": "function"
				},
				{
					"inputs": [],
					"name": "totalSupply",
					"outputs": [
						{
							"internalType": "uint256",
							"name": "",
							"type": "uint256"
						}
					],
					"stateMutability": "view",
					"type": "function"
				},
				{
					"inputs": [
						{
							"internalType": "address",
							"name": "recipient",
							"type": "address"
						},
						{
							"internalType": "uint256",
							"name": "amount",
							"type": "uint256"
						}
					],
					"name": "transfer",
					"outputs": [
						{
							"internalType": "bool",
							"name": "",
							"type": "bool"
						}
					],
					"stateMutability": "nonpayable",
					"type": "function"
				},
				{
					"inputs": [
						{
							"internalType": "address",
							"name": "sender",
							"type": "address"
						},
						{
							"internalType": "address",
							"name": "recipient",
							"type": "address"
						},
						{
							"internalType": "uint256",
							"name": "amount",
							"type": "uint256"
						}
					],
					"name": "transferFrom",
					"outputs": [
						{
							"internalType": "bool",
							"name": "",
							"type": "bool"
						}
					],
					"stateMutability": "nonpayable",
					"type": "function"
				},
				{
					"inputs": [
						{
							"internalType": "address",
							"name": "newOwner",
							"type": "address"
						}
					],
					"name": "transferOwnership",
					"outputs": [],
					"stateMutability": "nonpayable",
					"type": "function"
				},
				{
					"inputs": [],
					"name": "uniswapV2Pair",
					"outputs": [
						{
							"internalType": "address",
							"name": "",
							"type": "address"
						}
					],
					"stateMutability": "view",
					"type": "function"
				},
				{
					"inputs": [],
					"name": "uniswapV2Router",
					"outputs": [
						{
							"internalType": "contract IUniswapV2Router02",
							"name": "",
							"type": "address"
						}
					],
					"stateMutability": "view",
					"type": "function"
				},
				{
					"inputs": [
						{
							"internalType": "address payable",
							"name": "newAddress",
							"type": "address"
						}
					],
					"name": "updateTaxPoolWallet",
					"outputs": [],
					"stateMutability": "nonpayable",
					"type": "function"
				},
				{
					"inputs": [
						{
							"internalType": "address",
							"name": "_tokenContract",
							"type": "address"
						},
						{
							"internalType": "uint256",
							"name": "_amount",
							"type": "uint256"
						}
					],
					"name": "withdrawToken",
					"outputs": [],
					"stateMutability": "nonpayable",
					"type": "function"
				}
			],
			"devdoc": {
				"kind": "dev",
				"methods": {},
				"version": 1
			},
			"evm": {
				"assembly": "    /* \"contracts/coffe.sol\":18333:38749  contract CoffeeCrypto is Context, IERC20, Ownable {... */\n  mstore(0x40, 0xc0)\n    /* \"contracts/coffe.sol\":19015:19034  10 * 10**13 * 10*10 */\n  0x2386f26fc10000\n    /* \"contracts/coffe.sol\":18989:19034  uint256 private _tTotal = 10 * 10**13 * 10*10 */\n  0x0b\n  dup2\n  swap1\n  sstore\n    /* \"contracts/coffe.sol\":19075:19088  MAX % _tTotal */\n  tag_1\n  swap1\n  not(0x00)\n  tag_2\n  jump\t// in\ntag_1:\n    /* \"contracts/coffe.sol\":19068:19089  MAX - (MAX % _tTotal) */\n  tag_3\n  swap1\n  not(0x00)\n  tag_4\n  jump\t// in\ntag_3:\n    /* \"contracts/coffe.sol\":19041:19090  uint256 private _rTotal = (MAX - (MAX % _tTotal)) */\n  0x0c\n  sstore\n    /* \"contracts/coffe.sol\":19132:19235  address payable public _taxPool =... */\n  0x0e\n  dup1\n  sload\n  not(sub(shl(0xa0, 0x01), 0x01))\n  and\n    /* \"contracts/coffe.sol\":19191:19233  0xC97137BDC16Bb7A7548710EE0256410251cB4956 */\n  0xc97137bdc16bb7a7548710ee0256410251cb4956\n    /* \"contracts/coffe.sol\":19132:19235  address payable public _taxPool =... */\n  or\n  swap1\n  sstore\n    /* \"contracts/coffe.sol\":19244:19282  string private _name = \"Coffee Crypto\" */\n  0x40\n  dup1\n  mload\n  dup1\n  dup3\n  add\n  swap1\n  swap2\n  mstore\n  0x0d\n  dup1\n  dup3\n  mstore\n  shl(0x98, 0x436f666665652043727970746f)\n  0x20\n  swap1\n  swap3\n  add\n  swap2\n  dup3\n  mstore\n  tag_5\n  swap2\n  0x0f\n  swap2\n  tag_6\n  jump\t// in\ntag_5:\n  pop\n    /* \"contracts/coffe.sol\":19289:19320  string private _symbol = \"CFEE\" */\n  0x40\n  dup1\n  mload\n  dup1\n  dup3\n  add\n  swap1\n  swap2\n  mstore\n  0x04\n  dup1\n  dup3\n  mstore\n  shl(0xe0, 0x43464545)\n  0x20\n  swap1\n  swap3\n  add\n  swap2\n  dup3\n  mstore\n  tag_7\n  swap2\n  0x10\n  swap2\n  tag_6\n  jump\t// in\ntag_7:\n  pop\n    /* \"contracts/coffe.sol\":19327:19354  uint8 private _decimals = 8 */\n  0x11\n  dup1\n  sload\n  not(0xff)\n  and\n    /* \"contracts/coffe.sol\":19353:19354  8 */\n  0x08\n    /* \"contracts/coffe.sol\":19327:19354  uint8 private _decimals = 8 */\n  or\n  swap1\n  sstore\n    /* \"contracts/coffe.sol\":19779:19798  5 * 10**10 * 10**10 */\n  0x1b1ae4d6e2ef500000\n    /* \"contracts/coffe.sol\":19749:19798  uint256 public _maxTxAmount = 5 * 10**10 * 10**10 */\n  0x15\n  sstore\n    /* \"contracts/coffe.sol\":19861:19880  2 * 10**11 * 10**10 */\n  0x6c6b935b8bbd400000\n    /* \"contracts/coffe.sol\":19829:19880  uint256 public _maxWalletSize = 2 * 10**11 * 10**10 */\n  0x16\n  sstore\n    /* \"contracts/coffe.sol\":20021:21155  constructor() {... */\n  callvalue\n  dup1\n  iszero\n  tag_8\n  jumpi\n  0x00\n  dup1\n  revert\ntag_8:\n  pop\n    /* \"contracts/coffe.sol\":7964:7981  address msgSender */\n  0x00\n    /* \"contracts/coffe.sol\":8007:8025  _owner = msgSender */\n  dup1\n  sload\n  not(sub(shl(0xa0, 0x01), 0x01))\n  and\n    /* \"contracts/coffe.sol\":4348:4358  msg.sender */\n  caller\n    /* \"contracts/coffe.sol\":8007:8025  _owner = msgSender */\n  swap1\n  dup2\n  or\n  dup3\n  sstore\n    /* \"contracts/coffe.sol\":8041:8084  OwnershipTransferred(address(0), msgSender) */\n  mload(0x40)\n    /* \"contracts/coffe.sol\":4348:4358  msg.sender */\n  swap1\n  swap2\n  dup3\n  swap2\n    /* \"contracts/coffe.sol\":8041:8084  OwnershipTransferred(address(0), msgSender) */\n  0x8be0079c531659141344cd1fd0a4f28419497f9722a3daafe3b4186f6b6457e0\n  swap1\n    /* \"contracts/coffe.sol\":7964:7981  address msgSender */\n  dup3\n  swap1\n    /* \"contracts/coffe.sol\":8041:8084  OwnershipTransferred(address(0), msgSender) */\n  log3\n  pop\n    /* \"contracts/coffe.sol\":20070:20077  _rTotal */\n  sload(0x0c)\n    /* \"contracts/coffe.sol\":4348:4358  msg.sender */\n  caller\n    /* \"contracts/coffe.sol\":20046:20067  _rOwned[_msgSender()] */\n  0x00\n  swap1\n  dup2\n  mstore\n    /* \"contracts/coffe.sol\":20046:20053  _rOwned */\n  0x02\n    /* \"contracts/coffe.sol\":20046:20067  _rOwned[_msgSender()] */\n  0x20\n  swap1\n  dup2\n  mstore\n  0x40\n  swap2\n  dup3\n  swap1\n  keccak256\n    /* \"contracts/coffe.sol\":20046:20077  _rOwned[_msgSender()] = _rTotal */\n  swap3\n  swap1\n  swap3\n  sstore\n    /* \"contracts/coffe.sol\":20090:20096  buyFee */\n  0x12\n    /* \"contracts/coffe.sol\":20090:20104  buyFee.tax = 2 */\n  dup1\n  sload\n  not(0xffffffff)\n    /* \"contracts/coffe.sol\":20116:20136  buyFee.marketing = 2 */\n  swap1\n  dup2\n  and\n  0x020002\n  or\n  swap1\n  swap2\n  sstore\n    /* \"contracts/coffe.sol\":20149:20156  sellFee */\n  0x13\n    /* \"contracts/coffe.sol\":20149:20164  sellFee.tax = 5 */\n  dup1\n  sload\n    /* \"contracts/coffe.sol\":20175:20196  sellFee.marketing = 5 */\n  swap1\n  swap2\n  and\n  0x050005\n  or\n  swap1\n  sstore\n    /* \"contracts/coffe.sol\":20549:20575  _uniswapV2Router.factory() */\n  dup1\n  mload\n  shl(0xe0, 0xc45a0155)\n  dup2\n  mstore\n  swap1\n  mload\n    /* \"contracts/coffe.sol\":20282:20324  0xD99D1c33F9fC3444f8101754aBC46c52416550D1 */\n  0xd99d1c33f9fc3444f8101754abc46c52416550d1\n  swap3\n  dup4\n  swap3\n    /* \"contracts/coffe.sol\":20549:20573  _uniswapV2Router.factory */\n  0xc45a0155\n  swap3\n    /* \"contracts/coffe.sol\":20549:20575  _uniswapV2Router.factory() */\n  0x04\n  dup1\n  dup4\n  add\n  swap4\n    /* \"contracts/coffe.sol\":20046:20067  _rOwned[_msgSender()] */\n  swap3\n    /* \"contracts/coffe.sol\":20549:20575  _uniswapV2Router.factory() */\n  dup3\n  swap1\n  sub\n  add\n  dup2\n    /* \"contracts/coffe.sol\":20282:20324  0xD99D1c33F9fC3444f8101754aBC46c52416550D1 */\n  dup7\n    /* \"contracts/coffe.sol\":20549:20575  _uniswapV2Router.factory() */\n  gas\n  staticcall\n  iszero\n  dup1\n  iszero\n  tag_17\n  jumpi\n  returndatasize\n  0x00\n  dup1\n  returndatacopy\n  revert(0x00, returndatasize)\ntag_17:\n  pop\n  pop\n  pop\n  pop\n  mload(0x40)\n  returndatasize\n  not(0x1f)\n  0x1f\n  dup3\n  add\n  and\n  dup3\n  add\n  dup1\n  0x40\n  mstore\n  pop\n  dup2\n  add\n  swap1\n  tag_18\n  swap2\n  swap1\n  tag_19\n  jump\t// in\ntag_18:\n  sub(shl(0xa0, 0x01), 0x01)\n    /* \"contracts/coffe.sol\":20531:20601  IUniswapV2Factory(_uniswapV2Router.factory())... */\n  and\n  0xc9c65396\n    /* \"contracts/coffe.sol\":20610:20614  this */\n  address\n    /* \"contracts/coffe.sol\":20617:20633  _uniswapV2Router */\n  dup4\n  sub(shl(0xa0, 0x01), 0x01)\n    /* \"contracts/coffe.sol\":20617:20638  _uniswapV2Router.WETH */\n  and\n  0xad5c4648\n    /* \"contracts/coffe.sol\":20617:20640  _uniswapV2Router.WETH() */\n  mload(0x40)\n  dup2\n  0xffffffff\n  and\n  0xe0\n  shl\n  dup2\n  mstore\n  0x04\n  add\n  0x20\n  mload(0x40)\n  dup1\n  dup4\n  sub\n  dup2\n  dup7\n  gas\n  staticcall\n  iszero\n  dup1\n  iszero\n  tag_21\n  jumpi\n  returndatasize\n  0x00\n  dup1\n  returndatacopy\n  revert(0x00, returndatasize)\ntag_21:\n  pop\n  pop\n  pop\n  pop\n  mload(0x40)\n  returndatasize\n  not(0x1f)\n  0x1f\n  dup3\n  add\n  and\n  dup3\n  add\n  dup1\n  0x40\n  mstore\n  pop\n  dup2\n  add\n  swap1\n  tag_22\n  swap2\n  swap1\n  tag_19\n  jump\t// in\ntag_22:\n    /* \"contracts/coffe.sol\":20531:20641  IUniswapV2Factory(_uniswapV2Router.factory())... */\n  mload(0x40)\n  not(sub(shl(0xe0, 0x01), 0x01))\n  0xe0\n  dup6\n  swap1\n  shl\n  and\n  dup2\n  mstore\n  sub(shl(0xa0, 0x01), 0x01)\n    /* \"#utility.yul\":980:995   */\n  swap3\n  dup4\n  and\n    /* \"contracts/coffe.sol\":20531:20641  IUniswapV2Factory(_uniswapV2Router.factory())... */\n  0x04\n  dup3\n  add\n    /* \"#utility.yul\":962:996   */\n  mstore\n    /* \"#utility.yul\":1032:1047   */\n  swap2\n  and\n    /* \"#utility.yul\":1012:1030   */\n  0x24\n  dup3\n  add\n    /* \"#utility.yul\":1005:1048   */\n  mstore\n    /* \"#utility.yul\":897:915   */\n  0x44\n  add\n    /* \"contracts/coffe.sol\":20531:20641  IUniswapV2Factory(_uniswapV2Router.factory())... */\n  0x20\n  mload(0x40)\n  dup1\n  dup4\n  sub\n  dup2\n  0x00\n  dup8\n  gas\n  call\n  iszero\n  dup1\n  iszero\n  tag_26\n  jumpi\n  returndatasize\n  0x00\n  dup1\n  returndatacopy\n  revert(0x00, returndatasize)\ntag_26:\n  pop\n  pop\n  pop\n  pop\n  mload(0x40)\n  returndatasize\n  not(0x1f)\n  0x1f\n  dup3\n  add\n  and\n  dup3\n  add\n  dup1\n  0x40\n  mstore\n  pop\n  dup2\n  add\n  swap1\n  tag_27\n  swap2\n  swap1\n  tag_19\n  jump\t// in\ntag_27:\n  sub(shl(0xa0, 0x01), 0x01)\n    /* \"contracts/coffe.sol\":20515:20641  uniswapV2Pair = IUniswapV2Factory(_uniswapV2Router.factory())... */\n  swap1\n  dup2\n  and\n  0xa0\n  mstore\n    /* \"contracts/coffe.sol\":20705:20739  uniswapV2Router = _uniswapV2Router */\n  dup2\n  and\n  0x80\n  mstore\n    /* \"contracts/coffe.sol\":20835:20839  true */\n  0x01\n    /* \"contracts/coffe.sol\":20805:20823  _isExcludedFromFee */\n  0x05\n    /* \"contracts/coffe.sol\":20805:20832  _isExcludedFromFee[owner()] */\n  0x00\n    /* \"contracts/coffe.sol\":20824:20831  owner() */\n  tag_28\n    /* \"contracts/coffe.sol\":8144:8151  address */\n  0x00\n    /* \"contracts/coffe.sol\":8171:8177  _owner */\n  sload\n  sub(shl(0xa0, 0x01), 0x01)\n  and\n  swap1\n    /* \"contracts/coffe.sol\":8106:8185  function owner() public view returns (address) {... */\n  jump\n    /* \"contracts/coffe.sol\":20824:20831  owner() */\ntag_28:\n  sub(shl(0xa0, 0x01), 0x01)\n    /* \"contracts/coffe.sol\":20805:20832  _isExcludedFromFee[owner()] */\n  swap1\n  dup2\n  and\n  dup3\n  mstore\n  0x20\n  dup1\n  dup4\n  add\n  swap4\n  swap1\n  swap4\n  mstore\n  0x40\n  swap2\n  dup3\n  add\n  0x00\n  swap1\n  dup2\n  keccak256\n    /* \"contracts/coffe.sol\":20805:20839  _isExcludedFromFee[owner()] = true */\n  dup1\n  sload\n  swap6\n  iszero\n  iszero\n  not(0xff)\n  swap7\n  dup8\n  and\n  or\n  swap1\n  sstore\n    /* \"contracts/coffe.sol\":20877:20881  this */\n  address\n    /* \"contracts/coffe.sol\":20850:20883  _isExcludedFromFee[address(this)] */\n  dup2\n  mstore\n    /* \"contracts/coffe.sol\":20850:20868  _isExcludedFromFee */\n  0x05\n    /* \"contracts/coffe.sol\":20850:20883  _isExcludedFromFee[address(this)] */\n  dup5\n  mstore\n  dup3\n  dup2\n  keccak256\n    /* \"contracts/coffe.sol\":20850:20890  _isExcludedFromFee[address(this)] = true */\n  dup1\n  sload\n  dup7\n  and\n    /* \"contracts/coffe.sol\":20805:20839  _isExcludedFromFee[owner()] = true */\n  0x01\n    /* \"contracts/coffe.sol\":20850:20890  _isExcludedFromFee[address(this)] = true */\n  swap1\n  dup2\n  or\n  swap1\n  swap2\n  sstore\n    /* \"contracts/coffe.sol\":20920:20928  _taxPool */\n  0x0e\n  dup1\n  sload\n  dup5\n  and\n    /* \"contracts/coffe.sol\":20901:20929  _isExcludedFromFee[_taxPool] */\n  dup4\n  mstore\n  dup5\n  dup4\n  keccak256\n    /* \"contracts/coffe.sol\":20901:20936  _isExcludedFromFee[_taxPool] = true */\n  dup1\n  sload\n  dup9\n  and\n  dup4\n  or\n  swap1\n  sstore\n    /* \"contracts/coffe.sol\":20970:20978  _taxPool */\n  sload\n  swap1\n  swap3\n  and\n    /* \"contracts/coffe.sol\":20949:20979  _isExcludedFromLimit[_taxPool] */\n  dup2\n  mstore\n    /* \"contracts/coffe.sol\":20949:20969  _isExcludedFromLimit */\n  0x09\n    /* \"contracts/coffe.sol\":20949:20979  _isExcludedFromLimit[_taxPool] */\n  swap4\n  dup5\n  swap1\n  mstore\n  swap2\n  dup3\n  keccak256\n    /* \"contracts/coffe.sol\":20949:20986  _isExcludedFromLimit[_taxPool] = true */\n  dup1\n  sload\n  swap1\n  swap5\n  and\n  dup2\n  or\n  swap1\n  swap4\n  sstore\n    /* \"contracts/coffe.sol\":21018:21025  owner() */\n  tag_30\n    /* \"contracts/coffe.sol\":8144:8151  address */\n  0x00\n    /* \"contracts/coffe.sol\":8171:8177  _owner */\n  sload\n  sub(shl(0xa0, 0x01), 0x01)\n  and\n  swap1\n    /* \"contracts/coffe.sol\":8106:8185  function owner() public view returns (address) {... */\n  jump\n    /* \"contracts/coffe.sol\":21018:21025  owner() */\ntag_30:\n  sub(shl(0xa0, 0x01), 0x01)\n    /* \"contracts/coffe.sol\":20997:21026  _isExcludedFromLimit[owner()] */\n  and\n  dup2\n  mstore\n  0x20\n  dup1\n  dup3\n  add\n  swap3\n  swap1\n  swap3\n  mstore\n  0x40\n  swap1\n  dup2\n  add\n  0x00\n  swap1\n  dup2\n  keccak256\n    /* \"contracts/coffe.sol\":20997:21033  _isExcludedFromLimit[owner()] = true */\n  dup1\n  sload\n  swap5\n  iszero\n  iszero\n  not(0xff)\n  swap6\n  dup7\n  and\n  or\n  swap1\n  sstore\n    /* \"contracts/coffe.sol\":21073:21077  this */\n  address\n    /* \"contracts/coffe.sol\":21044:21079  _isExcludedFromLimit[address(this)] */\n  dup2\n  mstore\n    /* \"contracts/coffe.sol\":21044:21064  _isExcludedFromLimit */\n  0x09\n    /* \"contracts/coffe.sol\":21044:21079  _isExcludedFromLimit[address(this)] */\n  swap1\n  swap3\n  mstore\n  swap1\n  keccak256\n    /* \"contracts/coffe.sol\":21044:21086  _isExcludedFromLimit[address(this)] = true */\n  dup1\n  sload\n  swap1\n  swap2\n  and\n    /* \"contracts/coffe.sol\":20997:21033  _isExcludedFromLimit[owner()] = true */\n  0x01\n    /* \"contracts/coffe.sol\":21044:21086  _isExcludedFromLimit[address(this)] = true */\n  or\n  swap1\n  sstore\n    /* \"contracts/coffe.sol\":21125:21137  _msgSender() */\n  tag_31\n    /* \"contracts/coffe.sol\":4348:4358  msg.sender */\n  caller\n  swap1\n    /* \"contracts/coffe.sol\":4252:4367  function _msgSender() internal view virtual returns (address payable) {... */\n  jump\n    /* \"contracts/coffe.sol\":21125:21137  _msgSender() */\ntag_31:\n  sub(shl(0xa0, 0x01), 0x01)\n    /* \"contracts/coffe.sol\":21104:21147  Transfer(address(0), _msgSender(), _tTotal) */\n  and\n    /* \"contracts/coffe.sol\":21121:21122  0 */\n  0x00\n  sub(shl(0xa0, 0x01), 0x01)\n    /* \"contracts/coffe.sol\":21104:21147  Transfer(address(0), _msgSender(), _tTotal) */\n  and\n  0xddf252ad1be2c89b69c2b068fc378daa952ba7f163c4a11628f55a4df523b3ef\n    /* \"contracts/coffe.sol\":21139:21146  _tTotal */\n  sload(0x0b)\n    /* \"contracts/coffe.sol\":21104:21147  Transfer(address(0), _msgSender(), _tTotal) */\n  mload(0x40)\n  tag_32\n  swap2\n    /* \"#utility.yul\":1205:1230   */\n  dup2\n  mstore\n    /* \"#utility.yul\":1193:1195   */\n  0x20\n    /* \"#utility.yul\":1178:1196   */\n  add\n  swap1\n    /* \"#utility.yul\":1059:1236   */\n  jump\n    /* \"contracts/coffe.sol\":21104:21147  Transfer(address(0), _msgSender(), _tTotal) */\ntag_32:\n  mload(0x40)\n  dup1\n  swap2\n  sub\n  swap1\n  log3\n    /* \"contracts/coffe.sol\":20035:21155  {... */\n  pop\n    /* \"contracts/coffe.sol\":18333:38749  contract CoffeeCrypto is Context, IERC20, Ownable {... */\n  jump(tag_48)\ntag_6:\n  dup3\n  dup1\n  sload\n  tag_37\n  swap1\n  tag_38\n  jump\t// in\ntag_37:\n  swap1\n  0x00\n  mstore\n  keccak256(0x00, 0x20)\n  swap1\n  0x1f\n  add\n  0x20\n  swap1\n  div\n  dup2\n  add\n  swap3\n  dup3\n  tag_40\n  jumpi\n  0x00\n  dup6\n  sstore\n  jump(tag_43)\ntag_40:\n  dup3\n  0x1f\n  lt\n  tag_41\n  jumpi\n  dup1\n  mload\n  not(0xff)\n  and\n  dup4\n  dup1\n  add\n  or\n  dup6\n  sstore\n  jump(tag_43)\ntag_41:\n  dup3\n  dup1\n  add\n  0x01\n  add\n  dup6\n  sstore\n  dup3\n  iszero\n  tag_43\n  jumpi\n  swap2\n  dup3\n  add\ntag_42:\n  dup3\n  dup2\n  gt\n  iszero\n  tag_43\n  jumpi\n  dup3\n  mload\n  dup3\n  sstore\n  swap2\n  0x20\n  add\n  swap2\n  swap1\n  0x01\n  add\n  swap1\n  jump(tag_42)\ntag_43:\n  pop\n  tag_44\n  swap3\n  swap2\n  pop\n  tag_45\n  jump\t// in\ntag_44:\n  pop\n  swap1\n  jump\t// out\ntag_45:\ntag_46:\n  dup1\n  dup3\n  gt\n  iszero\n  tag_44\n  jumpi\n  0x00\n  dup2\n  sstore\n  0x01\n  add\n  jump(tag_46)\n    /* \"#utility.yul\":14:223   */\ntag_2:\n    /* \"#utility.yul\":46:47   */\n  0x00\n    /* \"#utility.yul\":72:73   */\n  dup3\n    /* \"#utility.yul\":62:194   */\n  tag_50\n  jumpi\n    /* \"#utility.yul\":116:126   */\n  0x4e487b71\n    /* \"#utility.yul\":111:114   */\n  0xe0\n    /* \"#utility.yul\":107:127   */\n  shl\n    /* \"#utility.yul\":104:105   */\n  0x00\n    /* \"#utility.yul\":97:128   */\n  mstore\n    /* \"#utility.yul\":151:155   */\n  0x12\n    /* \"#utility.yul\":148:149   */\n  0x04\n    /* \"#utility.yul\":141:156   */\n  mstore\n    /* \"#utility.yul\":179:183   */\n  0x24\n    /* \"#utility.yul\":176:177   */\n  0x00\n    /* \"#utility.yul\":169:184   */\n  revert\n    /* \"#utility.yul\":62:194   */\ntag_50:\n  pop\n    /* \"#utility.yul\":208:217   */\n  mod\n  swap1\n    /* \"#utility.yul\":14:223   */\n  jump\t// out\n    /* \"#utility.yul\":228:450   */\ntag_4:\n    /* \"#utility.yul\":268:272   */\n  0x00\n    /* \"#utility.yul\":296:297   */\n  dup3\n    /* \"#utility.yul\":293:294   */\n  dup3\n    /* \"#utility.yul\":290:298   */\n  lt\n    /* \"#utility.yul\":287:418   */\n  iszero\n  tag_52\n  jumpi\n    /* \"#utility.yul\":340:350   */\n  0x4e487b71\n    /* \"#utility.yul\":335:338   */\n  0xe0\n    /* \"#utility.yul\":331:351   */\n  shl\n    /* \"#utility.yul\":328:329   */\n  0x00\n    /* \"#utility.yul\":321:352   */\n  mstore\n    /* \"#utility.yul\":375:379   */\n  0x11\n    /* \"#utility.yul\":372:373   */\n  0x04\n    /* \"#utility.yul\":365:380   */\n  mstore\n    /* \"#utility.yul\":403:407   */\n  0x24\n    /* \"#utility.yul\":400:401   */\n  0x00\n    /* \"#utility.yul\":393:408   */\n  revert\n    /* \"#utility.yul\":287:418   */\ntag_52:\n  pop\n    /* \"#utility.yul\":435:444   */\n  sub\n  swap1\n    /* \"#utility.yul\":228:450   */\n  jump\t// out\n    /* \"#utility.yul\":455:745   */\ntag_19:\n    /* \"#utility.yul\":525:531   */\n  0x00\n    /* \"#utility.yul\":578:580   */\n  0x20\n    /* \"#utility.yul\":566:575   */\n  dup3\n    /* \"#utility.yul\":557:564   */\n  dup5\n    /* \"#utility.yul\":553:576   */\n  sub\n    /* \"#utility.yul\":549:581   */\n  slt\n    /* \"#utility.yul\":546:598   */\n  iszero\n  tag_54\n  jumpi\n    /* \"#utility.yul\":594:595   */\n  0x00\n    /* \"#utility.yul\":591:592   */\n  dup1\n    /* \"#utility.yul\":584:596   */\n  revert\n    /* \"#utility.yul\":546:598   */\ntag_54:\n    /* \"#utility.yul\":620:636   */\n  dup2\n  mload\n  sub(shl(0xa0, 0x01), 0x01)\n    /* \"#utility.yul\":665:696   */\n  dup2\n  and\n    /* \"#utility.yul\":655:697   */\n  dup2\n  eq\n    /* \"#utility.yul\":645:715   */\n  tag_55\n  jumpi\n    /* \"#utility.yul\":711:712   */\n  0x00\n    /* \"#utility.yul\":708:709   */\n  dup1\n    /* \"#utility.yul\":701:713   */\n  revert\n    /* \"#utility.yul\":645:715   */\ntag_55:\n    /* \"#utility.yul\":734:739   */\n  swap4\n    /* \"#utility.yul\":455:745   */\n  swap3\n  pop\n  pop\n  pop\n  jump\t// out\n    /* \"#utility.yul\":1241:1621   */\ntag_38:\n    /* \"#utility.yul\":1320:1321   */\n  0x01\n    /* \"#utility.yul\":1316:1328   */\n  dup2\n  dup2\n  shr\n  swap1\n    /* \"#utility.yul\":1363:1375   */\n  dup3\n  and\n  dup1\n    /* \"#utility.yul\":1384:1445   */\n  tag_59\n  jumpi\n    /* \"#utility.yul\":1438:1442   */\n  0x7f\n    /* \"#utility.yul\":1430:1436   */\n  dup3\n    /* \"#utility.yul\":1426:1443   */\n  and\n    /* \"#utility.yul\":1416:1443   */\n  swap2\n  pop\n    /* \"#utility.yul\":1384:1445   */\ntag_59:\n    /* \"#utility.yul\":1491:1493   */\n  0x20\n    /* \"#utility.yul\":1483:1489   */\n  dup3\n    /* \"#utility.yul\":1480:1494   */\n  lt\n    /* \"#utility.yul\":1460:1478   */\n  dup2\n    /* \"#utility.yul\":1457:1495   */\n  eq\n    /* \"#utility.yul\":1454:1615   */\n  iszero\n  tag_60\n  jumpi\n    /* \"#utility.yul\":1537:1547   */\n  0x4e487b71\n    /* \"#utility.yul\":1532:1535   */\n  0xe0\n    /* \"#utility.yul\":1528:1548   */\n  shl\n    /* \"#utility.yul\":1525:1526   */\n  0x00\n    /* \"#utility.yul\":1518:1549   */\n  mstore\n    /* \"#utility.yul\":1572:1576   */\n  0x22\n    /* \"#utility.yul\":1569:1570   */\n  0x04\n    /* \"#utility.yul\":1562:1577   */\n  mstore\n    /* \"#utility.yul\":1600:1604   */\n  0x24\n    /* \"#utility.yul\":1597:1598   */\n  0x00\n    /* \"#utility.yul\":1590:1605   */\n  revert\n    /* \"#utility.yul\":1454:1615   */\ntag_60:\n  pop\n    /* \"#utility.yul\":1241:1621   */\n  swap2\n  swap1\n  pop\n  jump\t// out\ntag_48:\n    /* \"contracts/coffe.sol\":18333:38749  contract CoffeeCrypto is Context, IERC20, Ownable {... */\n  mload(0x80)\n  mload(0xa0)\n  codecopy(0x00, dataOffset(sub_0), dataSize(sub_0))\n  0x00\n  assignImmutable(\"0x0257654a82461e8a1d15ee210f9c68af767d2a4dc70df683f0ecf9e700bd8bac\")\n  0x00\n  assignImmutable(\"0xb8ce6dfbd31a76aa635e12e2805eb83aa84592a72c0882f4689740b01f76dfdd\")\n  return(0x00, dataSize(sub_0))\nstop\n\nsub_0: assembly {\n        /* \"contracts/coffe.sol\":18333:38749  contract CoffeeCrypto is Context, IERC20, Ownable {... */\n      mstore(0x40, 0x80)\n      callvalue\n      dup1\n      iszero\n      tag_1\n      jumpi\n      0x00\n      dup1\n      revert\n    tag_1:\n      pop\n      jumpi(tag_2, lt(calldatasize, 0x04))\n      shr(0xe0, calldataload(0x00))\n      dup1\n      0x5342acb4\n      gt\n      tag_44\n      jumpi\n      dup1\n      0xa457c2d7\n      gt\n      tag_45\n      jumpi\n      dup1\n      0xd543dbeb\n      gt\n      tag_46\n      jumpi\n      dup1\n      0xd543dbeb\n      eq\n      tag_39\n      jumpi\n      dup1\n      0xd94160e0\n      eq\n      tag_40\n      jumpi\n      dup1\n      0xdd62ed3e\n      eq\n      tag_41\n      jumpi\n      dup1\n      0xea2f0b37\n      eq\n      tag_42\n      jumpi\n      dup1\n      0xf2fde38b\n      eq\n      tag_43\n      jumpi\n        /* \"contracts/coffe.sol\":38731:38739  revert() */\n      0x00\n      dup1\n      revert\n        /* \"contracts/coffe.sol\":18333:38749  contract CoffeeCrypto is Context, IERC20, Ownable {... */\n    tag_46:\n      dup1\n      0xa457c2d7\n      eq\n      tag_34\n      jumpi\n      dup1\n      0xa9059cbb\n      eq\n      tag_35\n      jumpi\n      dup1\n      0xaf2ce614\n      eq\n      tag_36\n      jumpi\n      dup1\n      0xb030b34a\n      eq\n      tag_37\n      jumpi\n      dup1\n      0xba1c4246\n      eq\n      tag_38\n      jumpi\n        /* \"contracts/coffe.sol\":38731:38739  revert() */\n      0x00\n      dup1\n      revert\n        /* \"contracts/coffe.sol\":18333:38749  contract CoffeeCrypto is Context, IERC20, Ownable {... */\n    tag_45:\n      dup1\n      0x8da5cb5b\n      gt\n      tag_47\n      jumpi\n      dup1\n      0x8da5cb5b\n      eq\n      tag_29\n      jumpi\n      dup1\n      0x8f9a55c0\n      eq\n      tag_30\n      jumpi\n      dup1\n      0x91d919a9\n      eq\n      tag_31\n      jumpi\n      dup1\n      0x95d89b41\n      eq\n      tag_32\n      jumpi\n      dup1\n      0x9e281a98\n      eq\n      tag_33\n      jumpi\n        /* \"contracts/coffe.sol\":38731:38739  revert() */\n      0x00\n      dup1\n      revert\n        /* \"contracts/coffe.sol\":18333:38749  contract CoffeeCrypto is Context, IERC20, Ownable {... */\n    tag_47:\n      dup1\n      0x5342acb4\n      eq\n      tag_24\n      jumpi\n      dup1\n      0x70a08231\n      eq\n      tag_25\n      jumpi\n      dup1\n      0x715018a6\n      eq\n      tag_26\n      jumpi\n      dup1\n      0x7d1db4a5\n      eq\n      tag_27\n      jumpi\n      dup1\n      0x88f82020\n      eq\n      tag_28\n      jumpi\n        /* \"contracts/coffe.sol\":38731:38739  revert() */\n      0x00\n      dup1\n      revert\n        /* \"contracts/coffe.sol\":18333:38749  contract CoffeeCrypto is Context, IERC20, Ownable {... */\n    tag_44:\n      dup1\n      0x313ce567\n      gt\n      tag_48\n      jumpi\n      dup1\n      0x4549b039\n      gt\n      tag_49\n      jumpi\n      dup1\n      0x4549b039\n      eq\n      tag_19\n      jumpi\n      dup1\n      0x47062402\n      eq\n      tag_20\n      jumpi\n      dup1\n      0x49bd5a5e\n      eq\n      tag_21\n      jumpi\n      dup1\n      0x4eeb94ce\n      eq\n      tag_22\n      jumpi\n      dup1\n      0x52390c02\n      eq\n      tag_23\n      jumpi\n        /* \"contracts/coffe.sol\":38731:38739  revert() */\n      0x00\n      dup1\n      revert\n        /* \"contracts/coffe.sol\":18333:38749  contract CoffeeCrypto is Context, IERC20, Ownable {... */\n    tag_49:\n      dup1\n      0x313ce567\n      eq\n      tag_14\n      jumpi\n      dup1\n      0x3685d419\n      eq\n      tag_15\n      jumpi\n      dup1\n      0x39509351\n      eq\n      tag_16\n      jumpi\n      dup1\n      0x42966c68\n      eq\n      tag_17\n      jumpi\n      dup1\n      0x437823ec\n      eq\n      tag_18\n      jumpi\n        /* \"contracts/coffe.sol\":38731:38739  revert() */\n      0x00\n      dup1\n      revert\n        /* \"contracts/coffe.sol\":18333:38749  contract CoffeeCrypto is Context, IERC20, Ownable {... */\n    tag_48:\n      dup1\n      0x18160ddd\n      gt\n      tag_50\n      jumpi\n      dup1\n      0x18160ddd\n      eq\n      tag_9\n      jumpi\n      dup1\n      0x1d7ef879\n      eq\n      tag_10\n      jumpi\n      dup1\n      0x23b872dd\n      eq\n      tag_11\n      jumpi\n      dup1\n      0x2b14ca56\n      eq\n      tag_12\n      jumpi\n      dup1\n      0x2d838119\n      eq\n      tag_13\n      jumpi\n        /* \"contracts/coffe.sol\":38731:38739  revert() */\n      0x00\n      dup1\n      revert\n        /* \"contracts/coffe.sol\":18333:38749  contract CoffeeCrypto is Context, IERC20, Ownable {... */\n    tag_50:\n      dup1\n      0x06fdde03\n      eq\n      tag_4\n      jumpi\n      dup1\n      0x095ea7b3\n      eq\n      tag_5\n      jumpi\n      dup1\n      0x0bd3a7f9\n      eq\n      tag_6\n      jumpi\n      dup1\n      0x13114a9d\n      eq\n      tag_7\n      jumpi\n      dup1\n      0x1694505e\n      eq\n      tag_8\n      jumpi\n    tag_2:\n        /* \"contracts/coffe.sol\":38731:38739  revert() */\n      0x00\n      dup1\n      revert\n        /* \"contracts/coffe.sol\":21163:21246  function name() public view returns (string memory) {... */\n    tag_4:\n      tag_53\n      tag_54\n      jump\t// in\n    tag_53:\n      mload(0x40)\n      tag_55\n      swap2\n      swap1\n      tag_56\n      jump\t// in\n    tag_55:\n      mload(0x40)\n      dup1\n      swap2\n      sub\n      swap1\n      return\n        /* \"contracts/coffe.sol\":22148:22341  function approve(address spender, uint256 amount)... */\n    tag_5:\n      tag_57\n      tag_58\n      calldatasize\n      0x04\n      tag_59\n      jump\t// in\n    tag_58:\n      tag_60\n      jump\t// in\n    tag_57:\n      mload(0x40)\n        /* \"#utility.yul\":1237:1251   */\n      swap1\n      iszero\n        /* \"#utility.yul\":1230:1252   */\n      iszero\n        /* \"#utility.yul\":1212:1253   */\n      dup2\n      mstore\n        /* \"#utility.yul\":1200:1202   */\n      0x20\n        /* \"#utility.yul\":1185:1203   */\n      add\n        /* \"contracts/coffe.sol\":22148:22341  function approve(address spender, uint256 amount)... */\n      tag_55\n        /* \"#utility.yul\":1072:1259   */\n      jump\n        /* \"contracts/coffe.sol\":26847:26962  function excludeFromLimit(address account) public onlyOwner {... */\n    tag_6:\n      tag_63\n      tag_64\n      calldatasize\n      0x04\n      tag_65\n      jump\t// in\n    tag_64:\n      tag_66\n      jump\t// in\n    tag_63:\n      stop\n        /* \"contracts/coffe.sol\":23647:23734  function totalFees() public view returns (uint256) {... */\n    tag_7:\n        /* \"contracts/coffe.sol\":23716:23726  _tFeeTotal */\n      sload(0x0d)\n        /* \"contracts/coffe.sol\":23647:23734  function totalFees() public view returns (uint256) {... */\n    tag_67:\n      mload(0x40)\n        /* \"#utility.yul\":1662:1687   */\n      swap1\n      dup2\n      mstore\n        /* \"#utility.yul\":1650:1652   */\n      0x20\n        /* \"#utility.yul\":1635:1653   */\n      add\n        /* \"contracts/coffe.sol\":23647:23734  function totalFees() public view returns (uint256) {... */\n      tag_55\n        /* \"#utility.yul\":1516:1693   */\n      jump\n        /* \"contracts/coffe.sol\":19644:19695  IUniswapV2Router02 public immutable uniswapV2Router */\n    tag_8:\n      tag_71\n      immutable(\"0xb8ce6dfbd31a76aa635e12e2805eb83aa84592a72c0882f4689740b01f76dfdd\")\n      dup2\n      jump\n    tag_71:\n      mload(0x40)\n      sub(shl(0xa0, 0x01), 0x01)\n        /* \"#utility.yul\":1889:1921   */\n      swap1\n      swap2\n      and\n        /* \"#utility.yul\":1871:1922   */\n      dup2\n      mstore\n        /* \"#utility.yul\":1859:1861   */\n      0x20\n        /* \"#utility.yul\":1844:1862   */\n      add\n        /* \"contracts/coffe.sol\":19644:19695  IUniswapV2Router02 public immutable uniswapV2Router */\n      tag_55\n        /* \"#utility.yul\":1698:1928   */\n      jump\n        /* \"contracts/coffe.sol\":21440:21535  function totalSupply() public view override returns (uint256) {... */\n    tag_9:\n        /* \"contracts/coffe.sol\":21520:21527  _tTotal */\n      sload(0x0b)\n        /* \"contracts/coffe.sol\":21440:21535  function totalSupply() public view override returns (uint256) {... */\n      jump(tag_67)\n        /* \"contracts/coffe.sol\":24850:25235  function addBotToBlacklist(address account) external onlyOwner {... */\n    tag_10:\n      tag_63\n      tag_79\n      calldatasize\n      0x04\n      tag_65\n      jump\t// in\n    tag_79:\n      tag_80\n      jump\t// in\n        /* \"contracts/coffe.sol\":22349:22795  function transferFrom(... */\n    tag_11:\n      tag_57\n      tag_82\n      calldatasize\n      0x04\n      tag_83\n      jump\t// in\n    tag_82:\n      tag_84\n      jump\t// in\n        /* \"contracts/coffe.sol\":19547:19569  SellFee public sellFee */\n    tag_12:\n      sload(0x13)\n      tag_86\n      swap1\n      0xffff\n      dup1\n      dup3\n      and\n      swap2\n      0x010000\n      swap1\n      div\n      and\n      dup3\n      jump\n    tag_86:\n      0x40\n      dup1\n      mload\n        /* \"#utility.yul\":2574:2580   */\n      0xffff\n        /* \"#utility.yul\":2607:2622   */\n      swap4\n      dup5\n      and\n        /* \"#utility.yul\":2589:2623   */\n      dup2\n      mstore\n        /* \"#utility.yul\":2659:2674   */\n      swap3\n      swap1\n      swap2\n      and\n        /* \"#utility.yul\":2654:2656   */\n      0x20\n        /* \"#utility.yul\":2639:2657   */\n      dup4\n      add\n        /* \"#utility.yul\":2632:2675   */\n      mstore\n        /* \"#utility.yul\":2537:2555   */\n      add\n        /* \"contracts/coffe.sol\":19547:19569  SellFee public sellFee */\n      tag_55\n        /* \"#utility.yul\":2394:2681   */\n      jump\n        /* \"contracts/coffe.sol\":24392:24714  function tokenFromReflection(uint256 rAmount)... */\n    tag_13:\n      tag_67\n      tag_91\n      calldatasize\n      0x04\n      tag_92\n      jump\t// in\n    tag_91:\n      tag_93\n      jump\t// in\n        /* \"contracts/coffe.sol\":21349:21432  function decimals() public view returns (uint8) {... */\n    tag_14:\n        /* \"contracts/coffe.sol\":21415:21424  _decimals */\n      sload(0x11)\n        /* \"contracts/coffe.sol\":21349:21432  function decimals() public view returns (uint8) {... */\n      mload(0x40)\n        /* \"contracts/coffe.sol\":21415:21424  _decimals */\n      0xff\n      swap1\n      swap2\n      and\n        /* \"#utility.yul\":3013:3049   */\n      dup2\n      mstore\n        /* \"#utility.yul\":3001:3003   */\n      0x20\n        /* \"#utility.yul\":2986:3004   */\n      add\n        /* \"contracts/coffe.sol\":21349:21432  function decimals() public view returns (uint8) {... */\n      tag_55\n        /* \"#utility.yul\":2871:3055   */\n      jump\n        /* \"contracts/coffe.sol\":26129:26602  function includeInReward(address account) external onlyOwner {... */\n    tag_15:\n      tag_63\n      tag_100\n      calldatasize\n      0x04\n      tag_65\n      jump\t// in\n    tag_100:\n      tag_101\n      jump\t// in\n        /* \"contracts/coffe.sol\":22803:23103  function increaseAllowance(address spender, uint256 addedValue)... */\n    tag_16:\n      tag_57\n      tag_103\n      calldatasize\n      0x04\n      tag_59\n      jump\t// in\n    tag_103:\n      tag_104\n      jump\t// in\n        /* \"contracts/coffe.sol\":38343:38568  function burn(uint256 value) public {... */\n    tag_17:\n      tag_63\n      tag_107\n      calldatasize\n      0x04\n      tag_92\n      jump\t// in\n    tag_107:\n      tag_108\n      jump\t// in\n        /* \"contracts/coffe.sol\":26610:26721  function excludeFromFee(address account) public onlyOwner {... */\n    tag_18:\n      tag_63\n      tag_110\n      calldatasize\n      0x04\n      tag_65\n      jump\t// in\n    tag_110:\n      tag_111\n      jump\t// in\n        /* \"contracts/coffe.sol\":23744:24382  function reflectionFromToken(uint256 tAmount, bool deductTransferFee)... */\n    tag_19:\n      tag_67\n      tag_113\n      calldatasize\n      0x04\n      tag_114\n      jump\t// in\n    tag_113:\n      tag_115\n      jump\t// in\n        /* \"contracts/coffe.sol\":19520:19540  BuyFee public buyFee */\n    tag_20:\n      sload(0x12)\n      tag_86\n      swap1\n      0xffff\n      dup1\n      dup3\n      and\n      swap2\n      0x010000\n      swap1\n      div\n      and\n      dup3\n      jump\n        /* \"contracts/coffe.sol\":19702:19740  address public immutable uniswapV2Pair */\n    tag_21:\n      tag_71\n      immutable(\"0x0257654a82461e8a1d15ee210f9c68af767d2a4dc70df683f0ecf9e700bd8bac\")\n      dup2\n      jump\n        /* \"contracts/coffe.sol\":19132:19235  address payable public _taxPool =... */\n    tag_22:\n      sload(0x0e)\n      tag_71\n      swap1\n      sub(shl(0xa0, 0x01), 0x01)\n      and\n      dup2\n      jump\n        /* \"contracts/coffe.sol\":25789:26121  function excludeFromReward(address account) public onlyOwner {... */\n    tag_23:\n      tag_63\n      tag_129\n      calldatasize\n      0x04\n      tag_65\n      jump\t// in\n    tag_129:\n      tag_130\n      jump\t// in\n        /* \"contracts/coffe.sol\":30548:30672  function isExcludedFromFee(address account) public view returns (bool) {... */\n    tag_24:\n      tag_57\n      tag_132\n      calldatasize\n      0x04\n      tag_65\n      jump\t// in\n    tag_132:\n      sub(shl(0xa0, 0x01), 0x01)\n        /* \"contracts/coffe.sol\":30637:30664  _isExcludedFromFee[account] */\n      and\n        /* \"contracts/coffe.sol\":30613:30617  bool */\n      0x00\n        /* \"contracts/coffe.sol\":30637:30664  _isExcludedFromFee[account] */\n      swap1\n      dup2\n      mstore\n        /* \"contracts/coffe.sol\":30637:30655  _isExcludedFromFee */\n      0x05\n        /* \"contracts/coffe.sol\":30637:30664  _isExcludedFromFee[account] */\n      0x20\n      mstore\n      0x40\n      swap1\n      keccak256\n      sload\n      0xff\n      and\n      swap1\n        /* \"contracts/coffe.sol\":30548:30672  function isExcludedFromFee(address account) public view returns (bool) {... */\n      jump\n        /* \"contracts/coffe.sol\":21543:21741  function balanceOf(address account) public view override returns (uint256) {... */\n    tag_25:\n      tag_67\n      tag_136\n      calldatasize\n      0x04\n      tag_65\n      jump\t// in\n    tag_136:\n      tag_137\n      jump\t// in\n        /* \"contracts/coffe.sol\":8332:8480  function renounceOwnership() public virtual onlyOwner {... */\n    tag_26:\n      tag_63\n      tag_140\n      jump\t// in\n        /* \"contracts/coffe.sol\":19749:19798  uint256 public _maxTxAmount = 5 * 10**10 * 10**10 */\n    tag_27:\n      tag_67\n      sload(0x15)\n      dup2\n      jump\n        /* \"contracts/coffe.sol\":23519:23639  function isExcludedFromReward(address account) public view returns (bool) {... */\n    tag_28:\n      tag_57\n      tag_145\n      calldatasize\n      0x04\n      tag_65\n      jump\t// in\n    tag_145:\n      sub(shl(0xa0, 0x01), 0x01)\n        /* \"contracts/coffe.sol\":23611:23631  _isExcluded[account] */\n      and\n        /* \"contracts/coffe.sol\":23587:23591  bool */\n      0x00\n        /* \"contracts/coffe.sol\":23611:23631  _isExcluded[account] */\n      swap1\n      dup2\n      mstore\n        /* \"contracts/coffe.sol\":23611:23622  _isExcluded */\n      0x06\n        /* \"contracts/coffe.sol\":23611:23631  _isExcluded[account] */\n      0x20\n      mstore\n      0x40\n      swap1\n      keccak256\n      sload\n      0xff\n      and\n      swap1\n        /* \"contracts/coffe.sol\":23519:23639  function isExcludedFromReward(address account) public view returns (bool) {... */\n      jump\n        /* \"contracts/coffe.sol\":8106:8185  function owner() public view returns (address) {... */\n    tag_29:\n        /* \"contracts/coffe.sol\":8144:8151  address */\n      0x00\n        /* \"contracts/coffe.sol\":8171:8177  _owner */\n      sload\n      sub(shl(0xa0, 0x01), 0x01)\n      and\n        /* \"contracts/coffe.sol\":8106:8185  function owner() public view returns (address) {... */\n      jump(tag_71)\n        /* \"contracts/coffe.sol\":19829:19880  uint256 public _maxWalletSize = 2 * 10**11 * 10**10 */\n    tag_30:\n      tag_67\n      sload(0x16)\n      dup2\n      jump\n        /* \"contracts/coffe.sol\":26970:27084  function includeInLimit(address account) public onlyOwner {... */\n    tag_31:\n      tag_63\n      tag_155\n      calldatasize\n      0x04\n      tag_65\n      jump\t// in\n    tag_155:\n      tag_156\n      jump\t// in\n        /* \"contracts/coffe.sol\":21254:21341  function symbol() public view returns (string memory) {... */\n    tag_32:\n      tag_53\n      tag_158\n      jump\t// in\n        /* \"contracts/coffe.sol\":38131:38335  function withdrawToken(address _tokenContract, uint256 _amount) onlyOwner public{... */\n    tag_33:\n      tag_63\n      tag_161\n      calldatasize\n      0x04\n      tag_59\n      jump\t// in\n    tag_161:\n      tag_162\n      jump\t// in\n        /* \"contracts/coffe.sol\":23111:23511  function decreaseAllowance(address spender, uint256 subtractedValue)... */\n    tag_34:\n      tag_57\n      tag_164\n      calldatasize\n      0x04\n      tag_59\n      jump\t// in\n    tag_164:\n      tag_165\n      jump\t// in\n        /* \"contracts/coffe.sol\":21749:21948  function transfer(address recipient, uint256 amount)... */\n    tag_35:\n      tag_57\n      tag_168\n      calldatasize\n      0x04\n      tag_59\n      jump\t// in\n    tag_168:\n      tag_169\n      jump\t// in\n        /* \"contracts/coffe.sol\":27303:27545  function _setMaxWalletSizePercent(uint256 maxWalletSize)... */\n    tag_36:\n      tag_63\n      tag_172\n      calldatasize\n      0x04\n      tag_92\n      jump\t// in\n    tag_172:\n      tag_173\n      jump\t// in\n        /* \"contracts/coffe.sol\":25243:25781  function removeBotFromBlacklist(address account) external onlyOwner {... */\n    tag_37:\n      tag_63\n      tag_175\n      calldatasize\n      0x04\n      tag_65\n      jump\t// in\n    tag_175:\n      tag_176\n      jump\t// in\n        /* \"contracts/coffe.sol\":24724:24840  function updateTaxPoolWallet(address payable newAddress) external onlyOwner {... */\n    tag_38:\n      tag_63\n      tag_178\n      calldatasize\n      0x04\n      tag_65\n      jump\t// in\n    tag_178:\n      tag_180\n      jump\t// in\n        /* \"contracts/coffe.sol\":27092:27295  function setMaxTxPercent(uint256 maxTxPercent) external onlyOwner {... */\n    tag_39:\n      tag_63\n      tag_182\n      calldatasize\n      0x04\n      tag_92\n      jump\t// in\n    tag_182:\n      tag_183\n      jump\t// in\n        /* \"contracts/coffe.sol\":30680:30808  function isExcludedFromLimit(address account) public view returns (bool) {... */\n    tag_40:\n      tag_57\n      tag_185\n      calldatasize\n      0x04\n      tag_65\n      jump\t// in\n    tag_185:\n      sub(shl(0xa0, 0x01), 0x01)\n        /* \"contracts/coffe.sol\":30771:30800  _isExcludedFromLimit[account] */\n      and\n        /* \"contracts/coffe.sol\":30747:30751  bool */\n      0x00\n        /* \"contracts/coffe.sol\":30771:30800  _isExcludedFromLimit[account] */\n      swap1\n      dup2\n      mstore\n        /* \"contracts/coffe.sol\":30771:30791  _isExcludedFromLimit */\n      0x09\n        /* \"contracts/coffe.sol\":30771:30800  _isExcludedFromLimit[account] */\n      0x20\n      mstore\n      0x40\n      swap1\n      keccak256\n      sload\n      0xff\n      and\n      swap1\n        /* \"contracts/coffe.sol\":30680:30808  function isExcludedFromLimit(address account) public view returns (bool) {... */\n      jump\n        /* \"contracts/coffe.sol\":21956:22140  function allowance(address owner, address spender)... */\n    tag_41:\n      tag_67\n      tag_189\n      calldatasize\n      0x04\n      tag_190\n      jump\t// in\n    tag_189:\n      sub(shl(0xa0, 0x01), 0x01)\n        /* \"contracts/coffe.sol\":22105:22123  _allowances[owner] */\n      swap2\n      dup3\n      and\n        /* \"contracts/coffe.sol\":22073:22080  uint256 */\n      0x00\n        /* \"contracts/coffe.sol\":22105:22123  _allowances[owner] */\n      swap1\n      dup2\n      mstore\n        /* \"contracts/coffe.sol\":22105:22116  _allowances */\n      0x04\n        /* \"contracts/coffe.sol\":22105:22123  _allowances[owner] */\n      0x20\n      swap1\n      dup2\n      mstore\n      0x40\n      dup1\n      dup4\n      keccak256\n        /* \"contracts/coffe.sol\":22105:22132  _allowances[owner][spender] */\n      swap4\n      swap1\n      swap5\n      and\n      dup3\n      mstore\n      swap2\n      swap1\n      swap2\n      mstore\n      keccak256\n      sload\n      swap1\n        /* \"contracts/coffe.sol\":21956:22140  function allowance(address owner, address spender)... */\n      jump\n        /* \"contracts/coffe.sol\":26729:26839  function includeInFee(address account) public onlyOwner {... */\n    tag_42:\n      tag_63\n      tag_194\n      calldatasize\n      0x04\n      tag_65\n      jump\t// in\n    tag_194:\n      tag_195\n      jump\t// in\n        /* \"contracts/coffe.sol\":8494:8775  function transferOwnership(address newOwner) public virtual onlyOwner {... */\n    tag_43:\n      tag_63\n      tag_197\n      calldatasize\n      0x04\n      tag_65\n      jump\t// in\n    tag_197:\n      tag_198\n      jump\t// in\n        /* \"contracts/coffe.sol\":21163:21246  function name() public view returns (string memory) {... */\n    tag_54:\n        /* \"contracts/coffe.sol\":21200:21213  string memory */\n      0x60\n        /* \"contracts/coffe.sol\":21233:21238  _name */\n      0x0f\n        /* \"contracts/coffe.sol\":21226:21238  return _name */\n      dup1\n      sload\n      tag_200\n      swap1\n      tag_201\n      jump\t// in\n    tag_200:\n      dup1\n      0x1f\n      add\n      0x20\n      dup1\n      swap2\n      div\n      mul\n      0x20\n      add\n      mload(0x40)\n      swap1\n      dup2\n      add\n      0x40\n      mstore\n      dup1\n      swap3\n      swap2\n      swap1\n      dup2\n      dup2\n      mstore\n      0x20\n      add\n      dup3\n      dup1\n      sload\n      tag_202\n      swap1\n      tag_201\n      jump\t// in\n    tag_202:\n      dup1\n      iszero\n      tag_203\n      jumpi\n      dup1\n      0x1f\n      lt\n      tag_204\n      jumpi\n      0x0100\n      dup1\n      dup4\n      sload\n      div\n      mul\n      dup4\n      mstore\n      swap2\n      0x20\n      add\n      swap2\n      jump(tag_203)\n    tag_204:\n      dup3\n      add\n      swap2\n      swap1\n      0x00\n      mstore\n      keccak256(0x00, 0x20)\n      swap1\n    tag_205:\n      dup2\n      sload\n      dup2\n      mstore\n      swap1\n      0x01\n      add\n      swap1\n      0x20\n      add\n      dup1\n      dup4\n      gt\n      tag_205\n      jumpi\n      dup3\n      swap1\n      sub\n      0x1f\n      and\n      dup3\n      add\n      swap2\n    tag_203:\n      pop\n      pop\n      pop\n      pop\n      pop\n      swap1\n      pop\n        /* \"contracts/coffe.sol\":21163:21246  function name() public view returns (string memory) {... */\n      swap1\n      jump\t// out\n        /* \"contracts/coffe.sol\":22148:22341  function approve(address spender, uint256 amount)... */\n    tag_60:\n        /* \"contracts/coffe.sol\":22250:22254  bool */\n      0x00\n        /* \"contracts/coffe.sol\":22272:22311  _approve(_msgSender(), spender, amount) */\n      tag_207\n        /* \"contracts/coffe.sol\":4348:4358  msg.sender */\n      caller\n        /* \"contracts/coffe.sol\":22295:22302  spender */\n      dup5\n        /* \"contracts/coffe.sol\":22304:22310  amount */\n      dup5\n        /* \"contracts/coffe.sol\":22272:22280  _approve */\n      tag_210\n        /* \"contracts/coffe.sol\":22272:22311  _approve(_msgSender(), spender, amount) */\n      jump\t// in\n    tag_207:\n      pop\n        /* \"contracts/coffe.sol\":22329:22333  true */\n      0x01\n        /* \"contracts/coffe.sol\":22148:22341  function approve(address spender, uint256 amount)... */\n    tag_206:\n      swap3\n      swap2\n      pop\n      pop\n      jump\t// out\n        /* \"contracts/coffe.sol\":26847:26962  function excludeFromLimit(address account) public onlyOwner {... */\n    tag_66:\n        /* \"contracts/coffe.sol\":8239:8245  _owner */\n      and(sub(shl(0xa0, 0x01), 0x01), sload(0x00))\n        /* \"contracts/coffe.sol\":4348:4358  msg.sender */\n      caller\n        /* \"contracts/coffe.sol\":8239:8261  _owner == _msgSender() */\n      eq\n        /* \"contracts/coffe.sol\":8231:8298  require(_owner == _msgSender(), \"Ownable: caller is not the owner\") */\n      tag_213\n      jumpi\n      mload(0x40)\n      shl(0xe5, 0x461bcd)\n      dup2\n      mstore\n      0x04\n      add\n      tag_214\n      swap1\n      tag_215\n      jump\t// in\n    tag_214:\n      mload(0x40)\n      dup1\n      swap2\n      sub\n      swap1\n      revert\n    tag_213:\n      sub(shl(0xa0, 0x01), 0x01)\n        /* \"contracts/coffe.sol\":26918:26947  _isExcludedFromLimit[account] */\n      and\n      0x00\n      swap1\n      dup2\n      mstore\n        /* \"contracts/coffe.sol\":26918:26938  _isExcludedFromLimit */\n      0x09\n        /* \"contracts/coffe.sol\":26918:26947  _isExcludedFromLimit[account] */\n      0x20\n      mstore\n      0x40\n      swap1\n      keccak256\n        /* \"contracts/coffe.sol\":26918:26954  _isExcludedFromLimit[account] = true */\n      dup1\n      sload\n      not(0xff)\n      and\n        /* \"contracts/coffe.sol\":26950:26954  true */\n      0x01\n        /* \"contracts/coffe.sol\":26918:26954  _isExcludedFromLimit[account] = true */\n      or\n      swap1\n      sstore\n        /* \"contracts/coffe.sol\":26847:26962  function excludeFromLimit(address account) public onlyOwner {... */\n      jump\t// out\n        /* \"contracts/coffe.sol\":24850:25235  function addBotToBlacklist(address account) external onlyOwner {... */\n    tag_80:\n        /* \"contracts/coffe.sol\":8239:8245  _owner */\n      and(sub(shl(0xa0, 0x01), 0x01), sload(0x00))\n        /* \"contracts/coffe.sol\":4348:4358  msg.sender */\n      caller\n        /* \"contracts/coffe.sol\":8239:8261  _owner == _msgSender() */\n      eq\n        /* \"contracts/coffe.sol\":8231:8298  require(_owner == _msgSender(), \"Ownable: caller is not the owner\") */\n      tag_221\n      jumpi\n      mload(0x40)\n      shl(0xe5, 0x461bcd)\n      dup2\n      mstore\n      0x04\n      add\n      tag_214\n      swap1\n      tag_215\n      jump\t// in\n    tag_221:\n        /* \"contracts/coffe.sol\":24957:24999  0xD99D1c33F9fC3444f8101754aBC46c52416550D1 */\n      0xd99d1c33f9fc3444f8101754abc46c52416550d1\n      sub(shl(0xa0, 0x01), 0x01)\n        /* \"contracts/coffe.sol\":24946:24999  account != 0xD99D1c33F9fC3444f8101754aBC46c52416550D1 */\n      dup3\n      and\n      eq\n      iszero\n        /* \"contracts/coffe.sol\":24924:25061  require(... */\n      tag_224\n      jumpi\n      mload(0x40)\n      shl(0xe5, 0x461bcd)\n      dup2\n      mstore\n        /* \"#utility.yul\":5530:5532   */\n      0x20\n        /* \"contracts/coffe.sol\":24924:25061  require(... */\n      0x04\n      dup3\n      add\n        /* \"#utility.yul\":5512:5533   */\n      mstore\n        /* \"#utility.yul\":5569:5571   */\n      0x22\n        /* \"#utility.yul\":5549:5567   */\n      0x24\n      dup3\n      add\n        /* \"#utility.yul\":5542:5572   */\n      mstore\n        /* \"#utility.yul\":5608:5642   */\n      0x57652063616e6e6f7420626c61636b6c69737420556e695377617020726f7574\n        /* \"#utility.yul\":5588:5606   */\n      0x44\n      dup3\n      add\n        /* \"#utility.yul\":5581:5643   */\n      mstore\n      shl(0xf1, 0x32b9)\n        /* \"#utility.yul\":5659:5677   */\n      0x64\n      dup3\n      add\n        /* \"#utility.yul\":5652:5684   */\n      mstore\n        /* \"#utility.yul\":5701:5720   */\n      0x84\n      add\n        /* \"contracts/coffe.sol\":24924:25061  require(... */\n      tag_214\n        /* \"#utility.yul\":5328:5726   */\n      jump\n        /* \"contracts/coffe.sol\":24924:25061  require(... */\n    tag_224:\n      sub(shl(0xa0, 0x01), 0x01)\n        /* \"contracts/coffe.sol\":25081:25107  _isBlackListedBot[account] */\n      dup2\n      and\n      0x00\n      swap1\n      dup2\n      mstore\n        /* \"contracts/coffe.sol\":25081:25098  _isBlackListedBot */\n      0x08\n        /* \"contracts/coffe.sol\":25081:25107  _isBlackListedBot[account] */\n      0x20\n      mstore\n      0x40\n      swap1\n      keccak256\n      sload\n      0xff\n      and\n        /* \"contracts/coffe.sol\":25080:25107  !_isBlackListedBot[account] */\n      iszero\n        /* \"contracts/coffe.sol\":25072:25142  require(!_isBlackListedBot[account], \"Account is already blacklisted\") */\n      tag_227\n      jumpi\n      mload(0x40)\n      shl(0xe5, 0x461bcd)\n      dup2\n      mstore\n        /* \"#utility.yul\":5933:5935   */\n      0x20\n        /* \"contracts/coffe.sol\":25072:25142  require(!_isBlackListedBot[account], \"Account is already blacklisted\") */\n      0x04\n      dup3\n      add\n        /* \"#utility.yul\":5915:5936   */\n      mstore\n        /* \"#utility.yul\":5972:5974   */\n      0x1e\n        /* \"#utility.yul\":5952:5970   */\n      0x24\n      dup3\n      add\n        /* \"#utility.yul\":5945:5975   */\n      mstore\n        /* \"#utility.yul\":6011:6043   */\n      0x4163636f756e7420697320616c726561647920626c61636b6c69737465640000\n        /* \"#utility.yul\":5991:6009   */\n      0x44\n      dup3\n      add\n        /* \"#utility.yul\":5984:6044   */\n      mstore\n        /* \"#utility.yul\":6061:6079   */\n      0x64\n      add\n        /* \"contracts/coffe.sol\":25072:25142  require(!_isBlackListedBot[account], \"Account is already blacklisted\") */\n      tag_214\n        /* \"#utility.yul\":5731:6085   */\n      jump\n        /* \"contracts/coffe.sol\":25072:25142  require(!_isBlackListedBot[account], \"Account is already blacklisted\") */\n    tag_227:\n      sub(shl(0xa0, 0x01), 0x01)\n        /* \"contracts/coffe.sol\":25153:25179  _isBlackListedBot[account] */\n      and\n      0x00\n      dup2\n      dup2\n      mstore\n        /* \"contracts/coffe.sol\":25153:25170  _isBlackListedBot */\n      0x08\n        /* \"contracts/coffe.sol\":25153:25179  _isBlackListedBot[account] */\n      0x20\n      mstore\n      0x40\n      dup2\n      keccak256\n        /* \"contracts/coffe.sol\":25153:25186  _isBlackListedBot[account] = true */\n      dup1\n      sload\n      not(0xff)\n      and\n        /* \"contracts/coffe.sol\":25182:25186  true */\n      0x01\n        /* \"contracts/coffe.sol\":25153:25186  _isBlackListedBot[account] = true */\n      swap1\n      dup2\n      or\n      swap1\n      swap2\n      sstore\n        /* \"contracts/coffe.sol\":25197:25213  _blackListedBots */\n      0x0a\n        /* \"contracts/coffe.sol\":25197:25227  _blackListedBots.push(account) */\n      dup1\n      sload\n      swap2\n      dup3\n      add\n      dup2\n      sstore\n      swap1\n      swap2\n      mstore\n      0xc65a7bb8d6351c1cf70c95a316cc6a92839c986682d98bc35f958f4883f9d2a8\n      add\n      dup1\n      sload\n      not(sub(shl(0xa0, 0x01), 0x01))\n      and\n      swap1\n      swap2\n      or\n      swap1\n      sstore\n        /* \"contracts/coffe.sol\":24850:25235  function addBotToBlacklist(address account) external onlyOwner {... */\n      jump\t// out\n        /* \"contracts/coffe.sol\":22349:22795  function transferFrom(... */\n    tag_84:\n        /* \"contracts/coffe.sol\":22481:22485  bool */\n      0x00\n        /* \"contracts/coffe.sol\":22498:22534  _transfer(sender, recipient, amount) */\n      tag_232\n        /* \"contracts/coffe.sol\":22508:22514  sender */\n      dup5\n        /* \"contracts/coffe.sol\":22516:22525  recipient */\n      dup5\n        /* \"contracts/coffe.sol\":22527:22533  amount */\n      dup5\n        /* \"contracts/coffe.sol\":22498:22507  _transfer */\n      tag_233\n        /* \"contracts/coffe.sol\":22498:22534  _transfer(sender, recipient, amount) */\n      jump\t// in\n    tag_232:\n        /* \"contracts/coffe.sol\":22545:22765  _approve(... */\n      tag_234\n        /* \"contracts/coffe.sol\":22568:22574  sender */\n      dup5\n        /* \"contracts/coffe.sol\":4348:4358  msg.sender */\n      caller\n        /* \"contracts/coffe.sol\":22616:22754  _allowances[sender][_msgSender()].sub(... */\n      tag_236\n        /* \"contracts/coffe.sol\":22672:22678  amount */\n      dup6\n        /* \"contracts/coffe.sol\":22616:22754  _allowances[sender][_msgSender()].sub(... */\n      mload(0x40)\n      dup1\n      0x60\n      add\n      0x40\n      mstore\n      dup1\n      0x28\n      dup2\n      mstore\n      0x20\n      add\n      data_974d1b4421da69cc60b481194f0dad36a5bb4e23da810da7a7fb30cdba178330\n      0x28\n      swap2\n      codecopy\n      sub(shl(0xa0, 0x01), 0x01)\n        /* \"contracts/coffe.sol\":22616:22635  _allowances[sender] */\n      dup11\n      and\n      0x00\n      swap1\n      dup2\n      mstore\n        /* \"contracts/coffe.sol\":22616:22627  _allowances */\n      0x04\n        /* \"contracts/coffe.sol\":22616:22635  _allowances[sender] */\n      0x20\n      swap1\n      dup2\n      mstore\n      0x40\n      dup1\n      dup4\n      keccak256\n        /* \"contracts/coffe.sol\":4348:4358  msg.sender */\n      caller\n        /* \"contracts/coffe.sol\":22616:22649  _allowances[sender][_msgSender()] */\n      dup5\n      mstore\n      swap1\n      swap2\n      mstore\n      swap1\n      keccak256\n      sload\n      swap2\n      swap1\n        /* \"contracts/coffe.sol\":22616:22653  _allowances[sender][_msgSender()].sub */\n      tag_238\n        /* \"contracts/coffe.sol\":22616:22754  _allowances[sender][_msgSender()].sub(... */\n      jump\t// in\n    tag_236:\n        /* \"contracts/coffe.sol\":22545:22553  _approve */\n      tag_210\n        /* \"contracts/coffe.sol\":22545:22765  _approve(... */\n      jump\t// in\n    tag_234:\n      pop\n        /* \"contracts/coffe.sol\":22783:22787  true */\n      0x01\n        /* \"contracts/coffe.sol\":22349:22795  function transferFrom(... */\n      swap4\n      swap3\n      pop\n      pop\n      pop\n      jump\t// out\n        /* \"contracts/coffe.sol\":24392:24714  function tokenFromReflection(uint256 rAmount)... */\n    tag_93:\n        /* \"contracts/coffe.sol\":24486:24493  uint256 */\n      0x00\n        /* \"contracts/coffe.sol\":24544:24551  _rTotal */\n      sload(0x0c)\n        /* \"contracts/coffe.sol\":24533:24540  rAmount */\n      dup3\n        /* \"contracts/coffe.sol\":24533:24551  rAmount <= _rTotal */\n      gt\n      iszero\n        /* \"contracts/coffe.sol\":24511:24621  require(... */\n      tag_240\n      jumpi\n      mload(0x40)\n      shl(0xe5, 0x461bcd)\n      dup2\n      mstore\n        /* \"#utility.yul\":6292:6294   */\n      0x20\n        /* \"contracts/coffe.sol\":24511:24621  require(... */\n      0x04\n      dup3\n      add\n        /* \"#utility.yul\":6274:6295   */\n      mstore\n        /* \"#utility.yul\":6331:6333   */\n      0x2a\n        /* \"#utility.yul\":6311:6329   */\n      0x24\n      dup3\n      add\n        /* \"#utility.yul\":6304:6334   */\n      mstore\n        /* \"#utility.yul\":6370:6404   */\n      0x416d6f756e74206d757374206265206c657373207468616e20746f74616c2072\n        /* \"#utility.yul\":6350:6368   */\n      0x44\n      dup3\n      add\n        /* \"#utility.yul\":6343:6405   */\n      mstore\n      shl(0xb0, 0x65666c656374696f6e73)\n        /* \"#utility.yul\":6421:6439   */\n      0x64\n      dup3\n      add\n        /* \"#utility.yul\":6414:6454   */\n      mstore\n        /* \"#utility.yul\":6471:6490   */\n      0x84\n      add\n        /* \"contracts/coffe.sol\":24511:24621  require(... */\n      tag_214\n        /* \"#utility.yul\":6090:6496   */\n      jump\n        /* \"contracts/coffe.sol\":24511:24621  require(... */\n    tag_240:\n        /* \"contracts/coffe.sol\":24632:24651  uint256 currentRate */\n      0x00\n        /* \"contracts/coffe.sol\":24654:24664  _getRate() */\n      tag_243\n        /* \"contracts/coffe.sol\":24654:24662  _getRate */\n      tag_244\n        /* \"contracts/coffe.sol\":24654:24664  _getRate() */\n      jump\t// in\n    tag_243:\n        /* \"contracts/coffe.sol\":24632:24664  uint256 currentRate = _getRate() */\n      swap1\n      pop\n        /* \"contracts/coffe.sol\":24682:24706  rAmount.div(currentRate) */\n      tag_245\n        /* \"contracts/coffe.sol\":24682:24689  rAmount */\n      dup4\n        /* \"contracts/coffe.sol\":24632:24664  uint256 currentRate = _getRate() */\n      dup3\n        /* \"contracts/coffe.sol\":24682:24693  rAmount.div */\n      tag_246\n        /* \"contracts/coffe.sol\":24682:24706  rAmount.div(currentRate) */\n      jump\t// in\n    tag_245:\n        /* \"contracts/coffe.sol\":24675:24706  return rAmount.div(currentRate) */\n      swap4\n        /* \"contracts/coffe.sol\":24392:24714  function tokenFromReflection(uint256 rAmount)... */\n      swap3\n      pop\n      pop\n      pop\n      jump\t// out\n        /* \"contracts/coffe.sol\":26129:26602  function includeInReward(address account) external onlyOwner {... */\n    tag_101:\n        /* \"contracts/coffe.sol\":8239:8245  _owner */\n      and(sub(shl(0xa0, 0x01), 0x01), sload(0x00))\n        /* \"contracts/coffe.sol\":4348:4358  msg.sender */\n      caller\n        /* \"contracts/coffe.sol\":8239:8261  _owner == _msgSender() */\n      eq\n        /* \"contracts/coffe.sol\":8231:8298  require(_owner == _msgSender(), \"Ownable: caller is not the owner\") */\n      tag_250\n      jumpi\n      mload(0x40)\n      shl(0xe5, 0x461bcd)\n      dup2\n      mstore\n      0x04\n      add\n      tag_214\n      swap1\n      tag_215\n      jump\t// in\n    tag_250:\n      sub(shl(0xa0, 0x01), 0x01)\n        /* \"contracts/coffe.sol\":26209:26229  _isExcluded[account] */\n      dup2\n      and\n      0x00\n      swap1\n      dup2\n      mstore\n        /* \"contracts/coffe.sol\":26209:26220  _isExcluded */\n      0x06\n        /* \"contracts/coffe.sol\":26209:26229  _isExcluded[account] */\n      0x20\n      mstore\n      0x40\n      swap1\n      keccak256\n      sload\n      0xff\n      and\n        /* \"contracts/coffe.sol\":26201:26257  require(_isExcluded[account], \"Account is not excluded\") */\n      tag_253\n      jumpi\n      mload(0x40)\n      shl(0xe5, 0x461bcd)\n      dup2\n      mstore\n        /* \"#utility.yul\":6703:6705   */\n      0x20\n        /* \"contracts/coffe.sol\":26201:26257  require(_isExcluded[account], \"Account is not excluded\") */\n      0x04\n      dup3\n      add\n        /* \"#utility.yul\":6685:6706   */\n      mstore\n        /* \"#utility.yul\":6742:6744   */\n      0x17\n        /* \"#utility.yul\":6722:6740   */\n      0x24\n      dup3\n      add\n        /* \"#utility.yul\":6715:6745   */\n      mstore\n        /* \"#utility.yul\":6781:6806   */\n      0x4163636f756e74206973206e6f74206578636c75646564000000000000000000\n        /* \"#utility.yul\":6761:6779   */\n      0x44\n      dup3\n      add\n        /* \"#utility.yul\":6754:6807   */\n      mstore\n        /* \"#utility.yul\":6824:6842   */\n      0x64\n      add\n        /* \"contracts/coffe.sol\":26201:26257  require(_isExcluded[account], \"Account is not excluded\") */\n      tag_214\n        /* \"#utility.yul\":6501:6848   */\n      jump\n        /* \"contracts/coffe.sol\":26201:26257  require(_isExcluded[account], \"Account is not excluded\") */\n    tag_253:\n        /* \"contracts/coffe.sol\":26273:26282  uint256 i */\n      0x00\n        /* \"contracts/coffe.sol\":26268:26595  for (uint256 i = 0; i < _excluded.length; i++) {... */\n    tag_256:\n        /* \"contracts/coffe.sol\":26292:26301  _excluded */\n      0x07\n        /* \"contracts/coffe.sol\":26292:26308  _excluded.length */\n      sload\n        /* \"contracts/coffe.sol\":26288:26308  i < _excluded.length */\n      dup2\n      lt\n        /* \"contracts/coffe.sol\":26268:26595  for (uint256 i = 0; i < _excluded.length; i++) {... */\n      iszero\n      tag_257\n      jumpi\n        /* \"contracts/coffe.sol\":26350:26357  account */\n      dup2\n      sub(shl(0xa0, 0x01), 0x01)\n        /* \"contracts/coffe.sol\":26334:26357  _excluded[i] == account */\n      and\n        /* \"contracts/coffe.sol\":26334:26343  _excluded */\n      0x07\n        /* \"contracts/coffe.sol\":26344:26345  i */\n      dup3\n        /* \"contracts/coffe.sol\":26334:26346  _excluded[i] */\n      dup2\n      sload\n      dup2\n      lt\n      tag_260\n      jumpi\n      tag_260\n      tag_261\n      jump\t// in\n    tag_260:\n      0x00\n      swap2\n      dup3\n      mstore\n      0x20\n      swap1\n      swap2\n      keccak256\n      add\n      sload\n      sub(shl(0xa0, 0x01), 0x01)\n      and\n        /* \"contracts/coffe.sol\":26334:26357  _excluded[i] == account */\n      eq\n        /* \"contracts/coffe.sol\":26330:26584  if (_excluded[i] == account) {... */\n      iszero\n      tag_263\n      jumpi\n        /* \"contracts/coffe.sol\":26393:26402  _excluded */\n      0x07\n        /* \"contracts/coffe.sol\":26403:26419  _excluded.length */\n      dup1\n      sload\n        /* \"contracts/coffe.sol\":26403:26423  _excluded.length - 1 */\n      tag_264\n      swap1\n        /* \"contracts/coffe.sol\":26422:26423  1 */\n      0x01\n      swap1\n        /* \"contracts/coffe.sol\":26403:26423  _excluded.length - 1 */\n      tag_265\n      jump\t// in\n    tag_264:\n        /* \"contracts/coffe.sol\":26393:26424  _excluded[_excluded.length - 1] */\n      dup2\n      sload\n      dup2\n      lt\n      tag_267\n      jumpi\n      tag_267\n      tag_261\n      jump\t// in\n    tag_267:\n      0x00\n      swap2\n      dup3\n      mstore\n      0x20\n      swap1\n      swap2\n      keccak256\n      add\n      sload\n        /* \"contracts/coffe.sol\":26378:26387  _excluded */\n      0x07\n        /* \"contracts/coffe.sol\":26378:26390  _excluded[i] */\n      dup1\n      sload\n      sub(shl(0xa0, 0x01), 0x01)\n        /* \"contracts/coffe.sol\":26393:26424  _excluded[_excluded.length - 1] */\n      swap1\n      swap3\n      and\n      swap2\n        /* \"contracts/coffe.sol\":26388:26389  i */\n      dup4\n      swap1\n        /* \"contracts/coffe.sol\":26378:26390  _excluded[i] */\n      dup2\n      lt\n      tag_270\n      jumpi\n      tag_270\n      tag_261\n      jump\t// in\n    tag_270:\n      0x00\n      swap2\n      dup3\n      mstore\n      0x20\n      dup1\n      dup4\n      keccak256\n      swap2\n      swap1\n      swap2\n      add\n        /* \"contracts/coffe.sol\":26378:26424  _excluded[i] = _excluded[_excluded.length - 1] */\n      dup1\n      sload\n      not(sub(shl(0xa0, 0x01), 0x01))\n      and\n      sub(shl(0xa0, 0x01), 0x01)\n      swap5\n      dup6\n      and\n      or\n      swap1\n      sstore\n        /* \"contracts/coffe.sol\":26443:26459  _tOwned[account] */\n      swap2\n      dup5\n      and\n      dup2\n      mstore\n        /* \"contracts/coffe.sol\":26443:26450  _tOwned */\n      0x03\n        /* \"contracts/coffe.sol\":26443:26459  _tOwned[account] */\n      dup3\n      mstore\n      0x40\n      dup1\n      dup3\n      keccak256\n        /* \"contracts/coffe.sol\":26443:26463  _tOwned[account] = 0 */\n      dup3\n      swap1\n      sstore\n        /* \"contracts/coffe.sol\":26482:26493  _isExcluded */\n      0x06\n        /* \"contracts/coffe.sol\":26482:26502  _isExcluded[account] */\n      swap1\n      swap3\n      mstore\n      keccak256\n        /* \"contracts/coffe.sol\":26482:26510  _isExcluded[account] = false */\n      dup1\n      sload\n      not(0xff)\n      and\n      swap1\n      sstore\n        /* \"contracts/coffe.sol\":26529:26538  _excluded */\n      0x07\n        /* \"contracts/coffe.sol\":26529:26544  _excluded.pop() */\n      dup1\n      sload\n      dup1\n      tag_273\n      jumpi\n      tag_273\n      tag_274\n      jump\t// in\n    tag_273:\n      0x00\n      dup3\n      dup2\n      mstore\n      0x20\n      swap1\n      keccak256\n      dup2\n      add\n      not(0x00)\n      swap1\n      dup2\n      add\n      dup1\n      sload\n      not(sub(shl(0xa0, 0x01), 0x01))\n      and\n      swap1\n      sstore\n      add\n      swap1\n      sstore\n        /* \"contracts/coffe.sol\":26268:26595  for (uint256 i = 0; i < _excluded.length; i++) {... */\n      pop\n        /* \"contracts/coffe.sol\":26129:26602  function includeInReward(address account) external onlyOwner {... */\n      pop\n      jump\t// out\n        /* \"contracts/coffe.sol\":26330:26584  if (_excluded[i] == account) {... */\n    tag_263:\n        /* \"contracts/coffe.sol\":26310:26313  i++ */\n      dup1\n      tag_276\n      dup2\n      tag_277\n      jump\t// in\n    tag_276:\n      swap2\n      pop\n      pop\n        /* \"contracts/coffe.sol\":26268:26595  for (uint256 i = 0; i < _excluded.length; i++) {... */\n      jump(tag_256)\n    tag_257:\n      pop\n        /* \"contracts/coffe.sol\":26129:26602  function includeInReward(address account) external onlyOwner {... */\n      pop\n      jump\t// out\n        /* \"contracts/coffe.sol\":22803:23103  function increaseAllowance(address spender, uint256 addedValue)... */\n    tag_104:\n        /* \"contracts/coffe.sol\":4348:4358  msg.sender */\n      caller\n        /* \"contracts/coffe.sol\":22918:22922  bool */\n      0x00\n        /* \"contracts/coffe.sol\":23012:23037  _allowances[_msgSender()] */\n      dup2\n      dup2\n      mstore\n        /* \"contracts/coffe.sol\":23012:23023  _allowances */\n      0x04\n        /* \"contracts/coffe.sol\":23012:23037  _allowances[_msgSender()] */\n      0x20\n      swap1\n      dup2\n      mstore\n      0x40\n      dup1\n      dup4\n      keccak256\n      sub(shl(0xa0, 0x01), 0x01)\n        /* \"contracts/coffe.sol\":23012:23046  _allowances[_msgSender()][spender] */\n      dup8\n      and\n      dup5\n      mstore\n      swap1\n      swap2\n      mstore\n      dup2\n      keccak256\n      sload\n        /* \"contracts/coffe.sol\":22918:22922  bool */\n      swap1\n      swap2\n        /* \"contracts/coffe.sol\":22940:23073  _approve(... */\n      tag_207\n      swap2\n        /* \"contracts/coffe.sol\":22990:22997  spender */\n      dup6\n      swap1\n        /* \"contracts/coffe.sol\":23012:23062  _allowances[_msgSender()][spender].add(addedValue) */\n      tag_236\n      swap1\n        /* \"contracts/coffe.sol\":23051:23061  addedValue */\n      dup7\n        /* \"contracts/coffe.sol\":23012:23050  _allowances[_msgSender()][spender].add */\n      tag_283\n        /* \"contracts/coffe.sol\":23012:23062  _allowances[_msgSender()][spender].add(addedValue) */\n      jump\t// in\n        /* \"contracts/coffe.sol\":38343:38568  function burn(uint256 value) public {... */\n    tag_108:\n        /* \"contracts/coffe.sol\":38423:38428  value */\n      dup1\n        /* \"contracts/coffe.sol\":38398:38419  balanceOf(msg.sender) */\n      tag_285\n        /* \"contracts/coffe.sol\":38408:38418  msg.sender */\n      caller\n        /* \"contracts/coffe.sol\":38398:38407  balanceOf */\n      tag_137\n        /* \"contracts/coffe.sol\":38398:38419  balanceOf(msg.sender) */\n      jump\t// in\n    tag_285:\n        /* \"contracts/coffe.sol\":38398:38428  balanceOf(msg.sender) >= value */\n      lt\n      iszero\n        /* \"contracts/coffe.sol\":38390:38451  require(balanceOf(msg.sender) >= value, \"Not enough balance\") */\n      tag_286\n      jumpi\n      mload(0x40)\n      shl(0xe5, 0x461bcd)\n      dup2\n      mstore\n        /* \"#utility.yul\":7721:7723   */\n      0x20\n        /* \"contracts/coffe.sol\":38390:38451  require(balanceOf(msg.sender) >= value, \"Not enough balance\") */\n      0x04\n      dup3\n      add\n        /* \"#utility.yul\":7703:7724   */\n      mstore\n        /* \"#utility.yul\":7760:7762   */\n      0x12\n        /* \"#utility.yul\":7740:7758   */\n      0x24\n      dup3\n      add\n        /* \"#utility.yul\":7733:7763   */\n      mstore\n      shl(0x70, 0x4e6f7420656e6f7567682062616c616e6365)\n        /* \"#utility.yul\":7779:7797   */\n      0x44\n      dup3\n      add\n        /* \"#utility.yul\":7772:7820   */\n      mstore\n        /* \"#utility.yul\":7837:7855   */\n      0x64\n      add\n        /* \"contracts/coffe.sol\":38390:38451  require(balanceOf(msg.sender) >= value, \"Not enough balance\") */\n      tag_214\n        /* \"#utility.yul\":7519:7861   */\n      jump\n        /* \"contracts/coffe.sol\":38390:38451  require(balanceOf(msg.sender) >= value, \"Not enough balance\") */\n    tag_286:\n        /* \"contracts/coffe.sol\":38462:38494  balanceOf(msg.sender).sub(value) */\n      tag_289\n        /* \"contracts/coffe.sol\":38488:38493  value */\n      dup2\n        /* \"contracts/coffe.sol\":38462:38483  balanceOf(msg.sender) */\n      tag_290\n        /* \"contracts/coffe.sol\":38472:38482  msg.sender */\n      caller\n        /* \"contracts/coffe.sol\":38462:38471  balanceOf */\n      tag_137\n        /* \"contracts/coffe.sol\":38462:38483  balanceOf(msg.sender) */\n      jump\t// in\n    tag_290:\n        /* \"contracts/coffe.sol\":38462:38487  balanceOf(msg.sender).sub */\n      swap1\n      tag_291\n        /* \"contracts/coffe.sol\":38462:38494  balanceOf(msg.sender).sub(value) */\n      jump\t// in\n    tag_289:\n      pop\n        /* \"contracts/coffe.sol\":38516:38521  value */\n      dup1\n        /* \"contracts/coffe.sol\":38505:38512  _tTotal */\n      0x0b\n      0x00\n        /* \"contracts/coffe.sol\":38505:38521  _tTotal -= value */\n      dup3\n      dup3\n      sload\n      tag_292\n      swap2\n      swap1\n      tag_265\n      jump\t// in\n    tag_292:\n      swap1\n      swap2\n      sstore\n      pop\n      pop\n        /* \"contracts/coffe.sol\":38537:38560  Burn(msg.sender, value) */\n      mload(0x40)\n        /* \"#utility.yul\":1662:1687   */\n      dup2\n      dup2\n      mstore\n        /* \"contracts/coffe.sol\":38542:38552  msg.sender */\n      caller\n      swap1\n        /* \"contracts/coffe.sol\":38537:38560  Burn(msg.sender, value) */\n      0xcc16f5dbb4873280815c1ee09dbd06736cffcc184412cf7a71a0fdb75d397ca5\n      swap1\n        /* \"#utility.yul\":1650:1652   */\n      0x20\n        /* \"#utility.yul\":1635:1653   */\n      add\n        /* \"contracts/coffe.sol\":38537:38560  Burn(msg.sender, value) */\n      mload(0x40)\n      dup1\n      swap2\n      sub\n      swap1\n      log2\n        /* \"contracts/coffe.sol\":38343:38568  function burn(uint256 value) public {... */\n      pop\n      jump\t// out\n        /* \"contracts/coffe.sol\":26610:26721  function excludeFromFee(address account) public onlyOwner {... */\n    tag_111:\n        /* \"contracts/coffe.sol\":8239:8245  _owner */\n      and(sub(shl(0xa0, 0x01), 0x01), sload(0x00))\n        /* \"contracts/coffe.sol\":4348:4358  msg.sender */\n      caller\n        /* \"contracts/coffe.sol\":8239:8261  _owner == _msgSender() */\n      eq\n        /* \"contracts/coffe.sol\":8231:8298  require(_owner == _msgSender(), \"Ownable: caller is not the owner\") */\n      tag_296\n      jumpi\n      mload(0x40)\n      shl(0xe5, 0x461bcd)\n      dup2\n      mstore\n      0x04\n      add\n      tag_214\n      swap1\n      tag_215\n      jump\t// in\n    tag_296:\n      sub(shl(0xa0, 0x01), 0x01)\n        /* \"contracts/coffe.sol\":26679:26706  _isExcludedFromFee[account] */\n      and\n      0x00\n      swap1\n      dup2\n      mstore\n        /* \"contracts/coffe.sol\":26679:26697  _isExcludedFromFee */\n      0x05\n        /* \"contracts/coffe.sol\":26679:26706  _isExcludedFromFee[account] */\n      0x20\n      mstore\n      0x40\n      swap1\n      keccak256\n        /* \"contracts/coffe.sol\":26679:26713  _isExcludedFromFee[account] = true */\n      dup1\n      sload\n      not(0xff)\n      and\n        /* \"contracts/coffe.sol\":26709:26713  true */\n      0x01\n        /* \"contracts/coffe.sol\":26679:26713  _isExcludedFromFee[account] = true */\n      or\n      swap1\n      sstore\n        /* \"contracts/coffe.sol\":26610:26721  function excludeFromFee(address account) public onlyOwner {... */\n      jump\t// out\n        /* \"contracts/coffe.sol\":23744:24382  function reflectionFromToken(uint256 tAmount, bool deductTransferFee)... */\n    tag_115:\n        /* \"contracts/coffe.sol\":23862:23869  uint256 */\n      0x00\n        /* \"contracts/coffe.sol\":23906:23913  _tTotal */\n      sload(0x0b)\n        /* \"contracts/coffe.sol\":23895:23902  tAmount */\n      dup4\n        /* \"contracts/coffe.sol\":23895:23913  tAmount <= _tTotal */\n      gt\n      iszero\n        /* \"contracts/coffe.sol\":23887:23949  require(tAmount <= _tTotal, \"Amount must be less than supply\") */\n      tag_300\n      jumpi\n      mload(0x40)\n      shl(0xe5, 0x461bcd)\n      dup2\n      mstore\n        /* \"#utility.yul\":8068:8070   */\n      0x20\n        /* \"contracts/coffe.sol\":23887:23949  require(tAmount <= _tTotal, \"Amount must be less than supply\") */\n      0x04\n      dup3\n      add\n        /* \"#utility.yul\":8050:8071   */\n      mstore\n        /* \"#utility.yul\":8107:8109   */\n      0x1f\n        /* \"#utility.yul\":8087:8105   */\n      0x24\n      dup3\n      add\n        /* \"#utility.yul\":8080:8110   */\n      mstore\n        /* \"#utility.yul\":8146:8179   */\n      0x416d6f756e74206d757374206265206c657373207468616e20737570706c7900\n        /* \"#utility.yul\":8126:8144   */\n      0x44\n      dup3\n      add\n        /* \"#utility.yul\":8119:8180   */\n      mstore\n        /* \"#utility.yul\":8197:8215   */\n      0x64\n      add\n        /* \"contracts/coffe.sol\":23887:23949  require(tAmount <= _tTotal, \"Amount must be less than supply\") */\n      tag_214\n        /* \"#utility.yul\":7866:8221   */\n      jump\n        /* \"contracts/coffe.sol\":23887:23949  require(tAmount <= _tTotal, \"Amount must be less than supply\") */\n    tag_300:\n        /* \"contracts/coffe.sol\":23992:24004  uint256 tFee */\n      0x00\n        /* \"contracts/coffe.sol\":24019:24037  uint256 tMarketing */\n      dup1\n        /* \"contracts/coffe.sol\":24051:24071  _getTValues(tAmount) */\n      tag_303\n        /* \"contracts/coffe.sol\":24063:24070  tAmount */\n      dup6\n        /* \"contracts/coffe.sol\":24051:24062  _getTValues */\n      tag_304\n        /* \"contracts/coffe.sol\":24051:24071  _getTValues(tAmount) */\n      jump\t// in\n    tag_303:\n        /* \"contracts/coffe.sol\":23962:24071  (... */\n      swap3\n      pop\n      swap3\n      pop\n      pop\n        /* \"contracts/coffe.sol\":24083:24098  uint256 rAmount */\n      0x00\n        /* \"contracts/coffe.sol\":24100:24123  uint256 rTransferAmount */\n      dup1\n        /* \"contracts/coffe.sol\":24129:24242  _getRValues(... */\n      tag_305\n        /* \"contracts/coffe.sol\":24155:24162  tAmount */\n      dup8\n        /* \"contracts/coffe.sol\":24177:24181  tFee */\n      dup6\n        /* \"contracts/coffe.sol\":24196:24206  tMarketing */\n      dup6\n        /* \"contracts/coffe.sol\":24221:24231  _getRate() */\n      tag_306\n        /* \"contracts/coffe.sol\":24221:24229  _getRate */\n      tag_244\n        /* \"contracts/coffe.sol\":24221:24231  _getRate() */\n      jump\t// in\n    tag_306:\n        /* \"contracts/coffe.sol\":24129:24140  _getRValues */\n      tag_307\n        /* \"contracts/coffe.sol\":24129:24242  _getRValues(... */\n      jump\t// in\n    tag_305:\n        /* \"contracts/coffe.sol\":24082:24242  (uint256 rAmount, uint256 rTransferAmount, ) = _getRValues(... */\n      pop\n      swap2\n      pop\n      swap2\n      pop\n        /* \"contracts/coffe.sol\":24260:24277  deductTransferFee */\n      dup6\n        /* \"contracts/coffe.sol\":24255:24375  if (!deductTransferFee) {... */\n      tag_308\n      jumpi\n      pop\n        /* \"contracts/coffe.sol\":24301:24308  rAmount */\n      swap3\n      pop\n        /* \"contracts/coffe.sol\":24294:24308  return rAmount */\n      tag_206\n      swap2\n      pop\n      pop\n      jump\n        /* \"contracts/coffe.sol\":24255:24375  if (!deductTransferFee) {... */\n    tag_308:\n        /* \"contracts/coffe.sol\":24348:24363  rTransferAmount */\n      swap4\n      pop\n        /* \"contracts/coffe.sol\":24341:24363  return rTransferAmount */\n      tag_206\n      swap3\n      pop\n      pop\n      pop\n      jump\n        /* \"contracts/coffe.sol\":25789:26121  function excludeFromReward(address account) public onlyOwner {... */\n    tag_130:\n        /* \"contracts/coffe.sol\":8239:8245  _owner */\n      and(sub(shl(0xa0, 0x01), 0x01), sload(0x00))\n        /* \"contracts/coffe.sol\":4348:4358  msg.sender */\n      caller\n        /* \"contracts/coffe.sol\":8239:8261  _owner == _msgSender() */\n      eq\n        /* \"contracts/coffe.sol\":8231:8298  require(_owner == _msgSender(), \"Ownable: caller is not the owner\") */\n      tag_312\n      jumpi\n      mload(0x40)\n      shl(0xe5, 0x461bcd)\n      dup2\n      mstore\n      0x04\n      add\n      tag_214\n      swap1\n      tag_215\n      jump\t// in\n    tag_312:\n      sub(shl(0xa0, 0x01), 0x01)\n        /* \"contracts/coffe.sol\":25870:25890  _isExcluded[account] */\n      dup2\n      and\n      0x00\n      swap1\n      dup2\n      mstore\n        /* \"contracts/coffe.sol\":25870:25881  _isExcluded */\n      0x06\n        /* \"contracts/coffe.sol\":25870:25890  _isExcluded[account] */\n      0x20\n      mstore\n      0x40\n      swap1\n      keccak256\n      sload\n      0xff\n      and\n        /* \"contracts/coffe.sol\":25869:25890  !_isExcluded[account] */\n      iszero\n        /* \"contracts/coffe.sol\":25861:25922  require(!_isExcluded[account], \"Account is already excluded\") */\n      tag_315\n      jumpi\n      mload(0x40)\n      shl(0xe5, 0x461bcd)\n      dup2\n      mstore\n        /* \"#utility.yul\":8428:8430   */\n      0x20\n        /* \"contracts/coffe.sol\":25861:25922  require(!_isExcluded[account], \"Account is already excluded\") */\n      0x04\n      dup3\n      add\n        /* \"#utility.yul\":8410:8431   */\n      mstore\n        /* \"#utility.yul\":8467:8469   */\n      0x1b\n        /* \"#utility.yul\":8447:8465   */\n      0x24\n      dup3\n      add\n        /* \"#utility.yul\":8440:8470   */\n      mstore\n        /* \"#utility.yul\":8506:8535   */\n      0x4163636f756e7420697320616c7265616479206578636c756465640000000000\n        /* \"#utility.yul\":8486:8504   */\n      0x44\n      dup3\n      add\n        /* \"#utility.yul\":8479:8536   */\n      mstore\n        /* \"#utility.yul\":8553:8571   */\n      0x64\n      add\n        /* \"contracts/coffe.sol\":25861:25922  require(!_isExcluded[account], \"Account is already excluded\") */\n      tag_214\n        /* \"#utility.yul\":8226:8577   */\n      jump\n        /* \"contracts/coffe.sol\":25861:25922  require(!_isExcluded[account], \"Account is already excluded\") */\n    tag_315:\n      sub(shl(0xa0, 0x01), 0x01)\n        /* \"contracts/coffe.sol\":25937:25953  _rOwned[account] */\n      dup2\n      and\n        /* \"contracts/coffe.sol\":25956:25957  0 */\n      0x00\n        /* \"contracts/coffe.sol\":25937:25953  _rOwned[account] */\n      swap1\n      dup2\n      mstore\n        /* \"contracts/coffe.sol\":25937:25944  _rOwned */\n      0x02\n        /* \"contracts/coffe.sol\":25937:25953  _rOwned[account] */\n      0x20\n      mstore\n      0x40\n      swap1\n      keccak256\n      sload\n        /* \"contracts/coffe.sol\":25937:25957  _rOwned[account] > 0 */\n      iszero\n        /* \"contracts/coffe.sol\":25933:26042  if (_rOwned[account] > 0) {... */\n      tag_318\n      jumpi\n      sub(shl(0xa0, 0x01), 0x01)\n        /* \"contracts/coffe.sol\":26013:26029  _rOwned[account] */\n      dup2\n      and\n      0x00\n      swap1\n      dup2\n      mstore\n        /* \"contracts/coffe.sol\":26013:26020  _rOwned */\n      0x02\n        /* \"contracts/coffe.sol\":26013:26029  _rOwned[account] */\n      0x20\n      mstore\n      0x40\n      swap1\n      keccak256\n      sload\n        /* \"contracts/coffe.sol\":25993:26030  tokenFromReflection(_rOwned[account]) */\n      tag_319\n      swap1\n        /* \"contracts/coffe.sol\":25993:26012  tokenFromReflection */\n      tag_93\n        /* \"contracts/coffe.sol\":25993:26030  tokenFromReflection(_rOwned[account]) */\n      jump\t// in\n    tag_319:\n      sub(shl(0xa0, 0x01), 0x01)\n        /* \"contracts/coffe.sol\":25974:25990  _tOwned[account] */\n      dup3\n      and\n      0x00\n      swap1\n      dup2\n      mstore\n        /* \"contracts/coffe.sol\":25974:25981  _tOwned */\n      0x03\n        /* \"contracts/coffe.sol\":25974:25990  _tOwned[account] */\n      0x20\n      mstore\n      0x40\n      swap1\n      keccak256\n        /* \"contracts/coffe.sol\":25974:26030  _tOwned[account] = tokenFromReflection(_rOwned[account]) */\n      sstore\n        /* \"contracts/coffe.sol\":25933:26042  if (_rOwned[account] > 0) {... */\n    tag_318:\n      sub(shl(0xa0, 0x01), 0x01)\n        /* \"contracts/coffe.sol\":26052:26072  _isExcluded[account] */\n      and\n      0x00\n      dup2\n      dup2\n      mstore\n        /* \"contracts/coffe.sol\":26052:26063  _isExcluded */\n      0x06\n        /* \"contracts/coffe.sol\":26052:26072  _isExcluded[account] */\n      0x20\n      mstore\n      0x40\n      dup2\n      keccak256\n        /* \"contracts/coffe.sol\":26052:26079  _isExcluded[account] = true */\n      dup1\n      sload\n      not(0xff)\n      and\n        /* \"contracts/coffe.sol\":26075:26079  true */\n      0x01\n        /* \"contracts/coffe.sol\":26052:26079  _isExcluded[account] = true */\n      swap1\n      dup2\n      or\n      swap1\n      swap2\n      sstore\n        /* \"contracts/coffe.sol\":26090:26099  _excluded */\n      0x07\n        /* \"contracts/coffe.sol\":26090:26113  _excluded.push(account) */\n      dup1\n      sload\n      swap2\n      dup3\n      add\n      dup2\n      sstore\n      swap1\n      swap2\n      mstore\n      0xa66cc928b5edb82af9bd49922954155ab7b0942694bea4ce44661d9a8736c688\n      add\n      dup1\n      sload\n      not(sub(shl(0xa0, 0x01), 0x01))\n      and\n      swap1\n      swap2\n      or\n      swap1\n      sstore\n        /* \"contracts/coffe.sol\":25789:26121  function excludeFromReward(address account) public onlyOwner {... */\n      jump\t// out\n        /* \"contracts/coffe.sol\":21543:21741  function balanceOf(address account) public view override returns (uint256) {... */\n    tag_137:\n      sub(shl(0xa0, 0x01), 0x01)\n        /* \"contracts/coffe.sol\":21633:21653  _isExcluded[account] */\n      dup2\n      and\n        /* \"contracts/coffe.sol\":21609:21616  uint256 */\n      0x00\n        /* \"contracts/coffe.sol\":21633:21653  _isExcluded[account] */\n      swap1\n      dup2\n      mstore\n        /* \"contracts/coffe.sol\":21633:21644  _isExcluded */\n      0x06\n        /* \"contracts/coffe.sol\":21633:21653  _isExcluded[account] */\n      0x20\n      mstore\n      0x40\n      dup2\n      keccak256\n      sload\n      0xff\n      and\n        /* \"contracts/coffe.sol\":21629:21678  if (_isExcluded[account]) return _tOwned[account] */\n      iszero\n      tag_323\n      jumpi\n      pop\n      sub(shl(0xa0, 0x01), 0x01)\n        /* \"contracts/coffe.sol\":21662:21678  _tOwned[account] */\n      and\n      0x00\n      swap1\n      dup2\n      mstore\n        /* \"contracts/coffe.sol\":21662:21669  _tOwned */\n      0x03\n        /* \"contracts/coffe.sol\":21662:21678  _tOwned[account] */\n      0x20\n      mstore\n      0x40\n      swap1\n      keccak256\n      sload\n      swap1\n        /* \"contracts/coffe.sol\":21543:21741  function balanceOf(address account) public view override returns (uint256) {... */\n      jump\t// out\n        /* \"contracts/coffe.sol\":21629:21678  if (_isExcluded[account]) return _tOwned[account] */\n    tag_323:\n      sub(shl(0xa0, 0x01), 0x01)\n        /* \"contracts/coffe.sol\":21716:21732  _rOwned[account] */\n      dup3\n      and\n      0x00\n      swap1\n      dup2\n      mstore\n        /* \"contracts/coffe.sol\":21716:21723  _rOwned */\n      0x02\n        /* \"contracts/coffe.sol\":21716:21732  _rOwned[account] */\n      0x20\n      mstore\n      0x40\n      swap1\n      keccak256\n      sload\n        /* \"contracts/coffe.sol\":21696:21733  tokenFromReflection(_rOwned[account]) */\n      tag_206\n      swap1\n        /* \"contracts/coffe.sol\":21696:21715  tokenFromReflection */\n      tag_93\n        /* \"contracts/coffe.sol\":21696:21733  tokenFromReflection(_rOwned[account]) */\n      jump\t// in\n        /* \"contracts/coffe.sol\":8332:8480  function renounceOwnership() public virtual onlyOwner {... */\n    tag_140:\n        /* \"contracts/coffe.sol\":8239:8245  _owner */\n      and(sub(shl(0xa0, 0x01), 0x01), sload(0x00))\n        /* \"contracts/coffe.sol\":4348:4358  msg.sender */\n      caller\n        /* \"contracts/coffe.sol\":8239:8261  _owner == _msgSender() */\n      eq\n        /* \"contracts/coffe.sol\":8231:8298  require(_owner == _msgSender(), \"Ownable: caller is not the owner\") */\n      tag_327\n      jumpi\n      mload(0x40)\n      shl(0xe5, 0x461bcd)\n      dup2\n      mstore\n      0x04\n      add\n      tag_214\n      swap1\n      tag_215\n      jump\t// in\n    tag_327:\n        /* \"contracts/coffe.sol\":8439:8440  0 */\n      0x00\n        /* \"contracts/coffe.sol\":8423:8429  _owner */\n      dup1\n      sload\n        /* \"contracts/coffe.sol\":8402:8442  OwnershipTransferred(_owner, address(0)) */\n      mload(0x40)\n      sub(shl(0xa0, 0x01), 0x01)\n        /* \"contracts/coffe.sol\":8423:8429  _owner */\n      swap1\n      swap2\n      and\n      swap1\n        /* \"contracts/coffe.sol\":8402:8442  OwnershipTransferred(_owner, address(0)) */\n      0x8be0079c531659141344cd1fd0a4f28419497f9722a3daafe3b4186f6b6457e0\n      swap1\n        /* \"contracts/coffe.sol\":8439:8440  0 */\n      dup4\n      swap1\n        /* \"contracts/coffe.sol\":8402:8442  OwnershipTransferred(_owner, address(0)) */\n      log3\n        /* \"contracts/coffe.sol\":8470:8471  0 */\n      0x00\n        /* \"contracts/coffe.sol\":8453:8472  _owner = address(0) */\n      dup1\n      sload\n      not(sub(shl(0xa0, 0x01), 0x01))\n      and\n      swap1\n      sstore\n        /* \"contracts/coffe.sol\":8332:8480  function renounceOwnership() public virtual onlyOwner {... */\n      jump\t// out\n        /* \"contracts/coffe.sol\":26970:27084  function includeInLimit(address account) public onlyOwner {... */\n    tag_156:\n        /* \"contracts/coffe.sol\":8239:8245  _owner */\n      and(sub(shl(0xa0, 0x01), 0x01), sload(0x00))\n        /* \"contracts/coffe.sol\":4348:4358  msg.sender */\n      caller\n        /* \"contracts/coffe.sol\":8239:8261  _owner == _msgSender() */\n      eq\n        /* \"contracts/coffe.sol\":8231:8298  require(_owner == _msgSender(), \"Ownable: caller is not the owner\") */\n      tag_334\n      jumpi\n      mload(0x40)\n      shl(0xe5, 0x461bcd)\n      dup2\n      mstore\n      0x04\n      add\n      tag_214\n      swap1\n      tag_215\n      jump\t// in\n    tag_334:\n      sub(shl(0xa0, 0x01), 0x01)\n        /* \"contracts/coffe.sol\":27039:27068  _isExcludedFromLimit[account] */\n      and\n        /* \"contracts/coffe.sol\":27071:27076  false */\n      0x00\n        /* \"contracts/coffe.sol\":27039:27068  _isExcludedFromLimit[account] */\n      swap1\n      dup2\n      mstore\n        /* \"contracts/coffe.sol\":27039:27059  _isExcludedFromLimit */\n      0x09\n        /* \"contracts/coffe.sol\":27039:27068  _isExcludedFromLimit[account] */\n      0x20\n      mstore\n      0x40\n      swap1\n      keccak256\n        /* \"contracts/coffe.sol\":27039:27076  _isExcludedFromLimit[account] = false */\n      dup1\n      sload\n      not(0xff)\n      and\n      swap1\n      sstore\n        /* \"contracts/coffe.sol\":26970:27084  function includeInLimit(address account) public onlyOwner {... */\n      jump\t// out\n        /* \"contracts/coffe.sol\":21254:21341  function symbol() public view returns (string memory) {... */\n    tag_158:\n        /* \"contracts/coffe.sol\":21293:21306  string memory */\n      0x60\n        /* \"contracts/coffe.sol\":21326:21333  _symbol */\n      0x10\n        /* \"contracts/coffe.sol\":21319:21333  return _symbol */\n      dup1\n      sload\n      tag_200\n      swap1\n      tag_201\n      jump\t// in\n        /* \"contracts/coffe.sol\":38131:38335  function withdrawToken(address _tokenContract, uint256 _amount) onlyOwner public{... */\n    tag_162:\n        /* \"contracts/coffe.sol\":8239:8245  _owner */\n      and(sub(shl(0xa0, 0x01), 0x01), sload(0x00))\n        /* \"contracts/coffe.sol\":4348:4358  msg.sender */\n      caller\n        /* \"contracts/coffe.sol\":8239:8261  _owner == _msgSender() */\n      eq\n        /* \"contracts/coffe.sol\":8231:8298  require(_owner == _msgSender(), \"Ownable: caller is not the owner\") */\n      tag_345\n      jumpi\n      mload(0x40)\n      shl(0xe5, 0x461bcd)\n      dup2\n      mstore\n      0x04\n      add\n      tag_214\n      swap1\n      tag_215\n      jump\t// in\n    tag_345:\n        /* \"contracts/coffe.sol\":38284:38327  tokenContract.transfer(msg.sender, _amount) */\n      mload(0x40)\n      shl(0xe0, 0xa9059cbb)\n      dup2\n      mstore\n        /* \"contracts/coffe.sol\":38307:38317  msg.sender */\n      caller\n        /* \"contracts/coffe.sol\":38284:38327  tokenContract.transfer(msg.sender, _amount) */\n      0x04\n      dup3\n      add\n        /* \"#utility.yul\":8756:8807   */\n      mstore\n        /* \"#utility.yul\":8823:8841   */\n      0x24\n      dup2\n      add\n        /* \"#utility.yul\":8816:8850   */\n      dup3\n      swap1\n      mstore\n        /* \"contracts/coffe.sol\":38258:38272  _tokenContract */\n      dup3\n      swap1\n      sub(shl(0xa0, 0x01), 0x01)\n        /* \"contracts/coffe.sol\":38284:38306  tokenContract.transfer */\n      dup3\n      and\n      swap1\n      0xa9059cbb\n      swap1\n        /* \"#utility.yul\":8729:8747   */\n      0x44\n      add\n        /* \"contracts/coffe.sol\":38284:38327  tokenContract.transfer(msg.sender, _amount) */\n      0x20\n      mload(0x40)\n      dup1\n      dup4\n      sub\n      dup2\n      0x00\n      dup8\n      gas\n      call\n      iszero\n      dup1\n      iszero\n      tag_351\n      jumpi\n      returndatasize\n      0x00\n      dup1\n      returndatacopy\n      revert(0x00, returndatasize)\n    tag_351:\n      pop\n      pop\n      pop\n      pop\n      mload(0x40)\n      returndatasize\n      not(0x1f)\n      0x1f\n      dup3\n      add\n      and\n      dup3\n      add\n      dup1\n      0x40\n      mstore\n      pop\n      dup2\n      add\n      swap1\n      tag_352\n      swap2\n      swap1\n      tag_353\n      jump\t// in\n    tag_352:\n      pop\n        /* \"contracts/coffe.sol\":38211:38335  {... */\n      pop\n        /* \"contracts/coffe.sol\":38131:38335  function withdrawToken(address _tokenContract, uint256 _amount) onlyOwner public{... */\n      pop\n      pop\n      jump\t// out\n        /* \"contracts/coffe.sol\":23111:23511  function decreaseAllowance(address spender, uint256 subtractedValue)... */\n    tag_165:\n        /* \"contracts/coffe.sol\":23231:23235  bool */\n      0x00\n        /* \"contracts/coffe.sol\":23253:23481  _approve(... */\n      tag_207\n        /* \"contracts/coffe.sol\":4348:4358  msg.sender */\n      caller\n        /* \"contracts/coffe.sol\":23303:23310  spender */\n      dup5\n        /* \"contracts/coffe.sol\":23325:23470  _allowances[_msgSender()][spender].sub(... */\n      tag_236\n        /* \"contracts/coffe.sol\":23382:23397  subtractedValue */\n      dup6\n        /* \"contracts/coffe.sol\":23325:23470  _allowances[_msgSender()][spender].sub(... */\n      mload(0x40)\n      dup1\n      0x60\n      add\n      0x40\n      mstore\n      dup1\n      0x25\n      dup2\n      mstore\n      0x20\n      add\n      data_f8b476f7d28209d77d4a4ac1fe36b9f8259aa1bb6bddfa6e89de7e51615cf8a8\n      0x25\n      swap2\n      codecopy\n        /* \"contracts/coffe.sol\":4348:4358  msg.sender */\n      caller\n        /* \"contracts/coffe.sol\":23325:23350  _allowances[_msgSender()] */\n      0x00\n      swap1\n      dup2\n      mstore\n        /* \"contracts/coffe.sol\":23325:23336  _allowances */\n      0x04\n        /* \"contracts/coffe.sol\":23325:23350  _allowances[_msgSender()] */\n      0x20\n      swap1\n      dup2\n      mstore\n      0x40\n      dup1\n      dup4\n      keccak256\n      sub(shl(0xa0, 0x01), 0x01)\n        /* \"contracts/coffe.sol\":23325:23359  _allowances[_msgSender()][spender] */\n      dup14\n      and\n      dup5\n      mstore\n      swap1\n      swap2\n      mstore\n      swap1\n      keccak256\n      sload\n      swap2\n      swap1\n        /* \"contracts/coffe.sol\":23325:23363  _allowances[_msgSender()][spender].sub */\n      tag_238\n        /* \"contracts/coffe.sol\":23325:23470  _allowances[_msgSender()][spender].sub(... */\n      jump\t// in\n        /* \"contracts/coffe.sol\":21749:21948  function transfer(address recipient, uint256 amount)... */\n    tag_169:\n        /* \"contracts/coffe.sol\":21854:21858  bool */\n      0x00\n        /* \"contracts/coffe.sol\":21876:21918  _transfer(_msgSender(), recipient, amount) */\n      tag_207\n        /* \"contracts/coffe.sol\":4348:4358  msg.sender */\n      caller\n        /* \"contracts/coffe.sol\":21900:21909  recipient */\n      dup5\n        /* \"contracts/coffe.sol\":21911:21917  amount */\n      dup5\n        /* \"contracts/coffe.sol\":21876:21885  _transfer */\n      tag_233\n        /* \"contracts/coffe.sol\":21876:21918  _transfer(_msgSender(), recipient, amount) */\n      jump\t// in\n        /* \"contracts/coffe.sol\":27303:27545  function _setMaxWalletSizePercent(uint256 maxWalletSize)... */\n    tag_173:\n        /* \"contracts/coffe.sol\":8239:8245  _owner */\n      and(sub(shl(0xa0, 0x01), 0x01), sload(0x00))\n        /* \"contracts/coffe.sol\":4348:4358  msg.sender */\n      caller\n        /* \"contracts/coffe.sol\":8239:8261  _owner == _msgSender() */\n      eq\n        /* \"contracts/coffe.sol\":8231:8298  require(_owner == _msgSender(), \"Ownable: caller is not the owner\") */\n      tag_364\n      jumpi\n      mload(0x40)\n      shl(0xe5, 0x461bcd)\n      dup2\n      mstore\n      0x04\n      add\n      tag_214\n      swap1\n      tag_215\n      jump\t// in\n    tag_364:\n        /* \"contracts/coffe.sol\":27432:27436  1000 */\n      0x03e8\n        /* \"contracts/coffe.sol\":27415:27428  maxWalletSize */\n      dup2\n        /* \"contracts/coffe.sol\":27415:27436  maxWalletSize <= 1000 */\n      gt\n      iszero\n        /* \"contracts/coffe.sol\":27407:27470  require(maxWalletSize <= 1000, \"maxWalletSize exceeds divider\") */\n      tag_367\n      jumpi\n      mload(0x40)\n      shl(0xe5, 0x461bcd)\n      dup2\n      mstore\n        /* \"#utility.yul\":9313:9315   */\n      0x20\n        /* \"contracts/coffe.sol\":27407:27470  require(maxWalletSize <= 1000, \"maxWalletSize exceeds divider\") */\n      0x04\n      dup3\n      add\n        /* \"#utility.yul\":9295:9316   */\n      mstore\n        /* \"#utility.yul\":9352:9354   */\n      0x1d\n        /* \"#utility.yul\":9332:9350   */\n      0x24\n      dup3\n      add\n        /* \"#utility.yul\":9325:9355   */\n      mstore\n        /* \"#utility.yul\":9391:9422   */\n      0x6d617857616c6c657453697a6520657863656564732064697669646572000000\n        /* \"#utility.yul\":9371:9389   */\n      0x44\n      dup3\n      add\n        /* \"#utility.yul\":9364:9423   */\n      mstore\n        /* \"#utility.yul\":9440:9458   */\n      0x64\n      add\n        /* \"contracts/coffe.sol\":27407:27470  require(maxWalletSize <= 1000, \"maxWalletSize exceeds divider\") */\n      tag_214\n        /* \"#utility.yul\":9111:9464   */\n      jump\n        /* \"contracts/coffe.sol\":27407:27470  require(maxWalletSize <= 1000, \"maxWalletSize exceeds divider\") */\n    tag_367:\n        /* \"contracts/coffe.sol\":27500:27537  _tTotal.mul(maxWalletSize).div(10**3) */\n      tag_370\n        /* \"contracts/coffe.sol\":27531:27536  10**3 */\n      0x03e8\n        /* \"contracts/coffe.sol\":27500:27526  _tTotal.mul(maxWalletSize) */\n      tag_371\n        /* \"contracts/coffe.sol\":27512:27525  maxWalletSize */\n      dup4\n        /* \"contracts/coffe.sol\":27500:27507  _tTotal */\n      sload(0x0b)\n        /* \"contracts/coffe.sol\":27500:27511  _tTotal.mul */\n      tag_372\n      swap1\n        /* \"contracts/coffe.sol\":27500:27526  _tTotal.mul(maxWalletSize) */\n      swap2\n      swap1\n      0xffffffff\n      and\n      jump\t// in\n    tag_371:\n        /* \"contracts/coffe.sol\":27500:27530  _tTotal.mul(maxWalletSize).div */\n      swap1\n      tag_246\n        /* \"contracts/coffe.sol\":27500:27537  _tTotal.mul(maxWalletSize).div(10**3) */\n      jump\t// in\n    tag_370:\n        /* \"contracts/coffe.sol\":27483:27497  _maxWalletSize */\n      0x16\n        /* \"contracts/coffe.sol\":27483:27537  _maxWalletSize = _tTotal.mul(maxWalletSize).div(10**3) */\n      sstore\n      pop\n        /* \"contracts/coffe.sol\":27303:27545  function _setMaxWalletSizePercent(uint256 maxWalletSize)... */\n      jump\t// out\n        /* \"contracts/coffe.sol\":25243:25781  function removeBotFromBlacklist(address account) external onlyOwner {... */\n    tag_176:\n        /* \"contracts/coffe.sol\":8239:8245  _owner */\n      and(sub(shl(0xa0, 0x01), 0x01), sload(0x00))\n        /* \"contracts/coffe.sol\":4348:4358  msg.sender */\n      caller\n        /* \"contracts/coffe.sol\":8239:8261  _owner == _msgSender() */\n      eq\n        /* \"contracts/coffe.sol\":8231:8298  require(_owner == _msgSender(), \"Ownable: caller is not the owner\") */\n      tag_375\n      jumpi\n      mload(0x40)\n      shl(0xe5, 0x461bcd)\n      dup2\n      mstore\n      0x04\n      add\n      tag_214\n      swap1\n      tag_215\n      jump\t// in\n    tag_375:\n      sub(shl(0xa0, 0x01), 0x01)\n        /* \"contracts/coffe.sol\":25330:25356  _isBlackListedBot[account] */\n      dup2\n      and\n      0x00\n      swap1\n      dup2\n      mstore\n        /* \"contracts/coffe.sol\":25330:25347  _isBlackListedBot */\n      0x08\n        /* \"contracts/coffe.sol\":25330:25356  _isBlackListedBot[account] */\n      0x20\n      mstore\n      0x40\n      swap1\n      keccak256\n      sload\n      0xff\n      and\n        /* \"contracts/coffe.sol\":25322:25387  require(_isBlackListedBot[account], \"Account is not blacklisted\") */\n      tag_378\n      jumpi\n      mload(0x40)\n      shl(0xe5, 0x461bcd)\n      dup2\n      mstore\n        /* \"#utility.yul\":9671:9673   */\n      0x20\n        /* \"contracts/coffe.sol\":25322:25387  require(_isBlackListedBot[account], \"Account is not blacklisted\") */\n      0x04\n      dup3\n      add\n        /* \"#utility.yul\":9653:9674   */\n      mstore\n        /* \"#utility.yul\":9710:9712   */\n      0x1a\n        /* \"#utility.yul\":9690:9708   */\n      0x24\n      dup3\n      add\n        /* \"#utility.yul\":9683:9713   */\n      mstore\n        /* \"#utility.yul\":9749:9777   */\n      0x4163636f756e74206973206e6f7420626c61636b6c6973746564000000000000\n        /* \"#utility.yul\":9729:9747   */\n      0x44\n      dup3\n      add\n        /* \"#utility.yul\":9722:9778   */\n      mstore\n        /* \"#utility.yul\":9795:9813   */\n      0x64\n      add\n        /* \"contracts/coffe.sol\":25322:25387  require(_isBlackListedBot[account], \"Account is not blacklisted\") */\n      tag_214\n        /* \"#utility.yul\":9469:9819   */\n      jump\n        /* \"contracts/coffe.sol\":25322:25387  require(_isBlackListedBot[account], \"Account is not blacklisted\") */\n    tag_378:\n        /* \"contracts/coffe.sol\":25403:25412  uint256 i */\n      0x00\n        /* \"contracts/coffe.sol\":25398:25774  for (uint256 i = 0; i < _blackListedBots.length; i++) {... */\n    tag_381:\n        /* \"contracts/coffe.sol\":25422:25438  _blackListedBots */\n      0x0a\n        /* \"contracts/coffe.sol\":25422:25445  _blackListedBots.length */\n      sload\n        /* \"contracts/coffe.sol\":25418:25445  i < _blackListedBots.length */\n      dup2\n      lt\n        /* \"contracts/coffe.sol\":25398:25774  for (uint256 i = 0; i < _blackListedBots.length; i++) {... */\n      iszero\n      tag_257\n      jumpi\n        /* \"contracts/coffe.sol\":25494:25501  account */\n      dup2\n      sub(shl(0xa0, 0x01), 0x01)\n        /* \"contracts/coffe.sol\":25471:25501  _blackListedBots[i] == account */\n      and\n        /* \"contracts/coffe.sol\":25471:25487  _blackListedBots */\n      0x0a\n        /* \"contracts/coffe.sol\":25488:25489  i */\n      dup3\n        /* \"contracts/coffe.sol\":25471:25490  _blackListedBots[i] */\n      dup2\n      sload\n      dup2\n      lt\n      tag_385\n      jumpi\n      tag_385\n      tag_261\n      jump\t// in\n    tag_385:\n      0x00\n      swap2\n      dup3\n      mstore\n      0x20\n      swap1\n      swap2\n      keccak256\n      add\n      sload\n      sub(shl(0xa0, 0x01), 0x01)\n      and\n        /* \"contracts/coffe.sol\":25471:25501  _blackListedBots[i] == account */\n      eq\n        /* \"contracts/coffe.sol\":25467:25763  if (_blackListedBots[i] == account) {... */\n      iszero\n      tag_387\n      jumpi\n        /* \"contracts/coffe.sol\":25544:25560  _blackListedBots */\n      0x0a\n        /* \"contracts/coffe.sol\":25583:25606  _blackListedBots.length */\n      dup1\n      sload\n        /* \"contracts/coffe.sol\":25583:25610  _blackListedBots.length - 1 */\n      tag_388\n      swap1\n        /* \"contracts/coffe.sol\":25609:25610  1 */\n      0x01\n      swap1\n        /* \"contracts/coffe.sol\":25583:25610  _blackListedBots.length - 1 */\n      tag_265\n      jump\t// in\n    tag_388:\n        /* \"contracts/coffe.sol\":25544:25629  _blackListedBots[... */\n      dup2\n      sload\n      dup2\n      lt\n      tag_390\n      jumpi\n      tag_390\n      tag_261\n      jump\t// in\n    tag_390:\n      0x00\n      swap2\n      dup3\n      mstore\n      0x20\n      swap1\n      swap2\n      keccak256\n      add\n      sload\n        /* \"contracts/coffe.sol\":25522:25538  _blackListedBots */\n      0x0a\n        /* \"contracts/coffe.sol\":25522:25541  _blackListedBots[i] */\n      dup1\n      sload\n      sub(shl(0xa0, 0x01), 0x01)\n        /* \"contracts/coffe.sol\":25544:25629  _blackListedBots[... */\n      swap1\n      swap3\n      and\n      swap2\n        /* \"contracts/coffe.sol\":25539:25540  i */\n      dup4\n      swap1\n        /* \"contracts/coffe.sol\":25522:25541  _blackListedBots[i] */\n      dup2\n      lt\n      tag_393\n      jumpi\n      tag_393\n      tag_261\n      jump\t// in\n    tag_393:\n      0x00\n      swap2\n      dup3\n      mstore\n      0x20\n      dup1\n      dup4\n      keccak256\n      swap2\n      swap1\n      swap2\n      add\n        /* \"contracts/coffe.sol\":25522:25629  _blackListedBots[i] = _blackListedBots[... */\n      dup1\n      sload\n      not(sub(shl(0xa0, 0x01), 0x01))\n      and\n      sub(shl(0xa0, 0x01), 0x01)\n      swap5\n      dup6\n      and\n      or\n      swap1\n      sstore\n        /* \"contracts/coffe.sol\":25648:25674  _isBlackListedBot[account] */\n      swap2\n      dup5\n      and\n      dup2\n      mstore\n        /* \"contracts/coffe.sol\":25648:25665  _isBlackListedBot */\n      0x08\n        /* \"contracts/coffe.sol\":25648:25674  _isBlackListedBot[account] */\n      swap1\n      swap2\n      mstore\n      0x40\n      swap1\n      keccak256\n        /* \"contracts/coffe.sol\":25648:25682  _isBlackListedBot[account] = false */\n      dup1\n      sload\n      not(0xff)\n      and\n      swap1\n      sstore\n        /* \"contracts/coffe.sol\":25701:25717  _blackListedBots */\n      0x0a\n        /* \"contracts/coffe.sol\":25701:25723  _blackListedBots.pop() */\n      dup1\n      sload\n      dup1\n      tag_273\n      jumpi\n      tag_273\n      tag_274\n      jump\t// in\n        /* \"contracts/coffe.sol\":25467:25763  if (_blackListedBots[i] == account) {... */\n    tag_387:\n        /* \"contracts/coffe.sol\":25447:25450  i++ */\n      dup1\n      tag_398\n      dup2\n      tag_277\n      jump\t// in\n    tag_398:\n      swap2\n      pop\n      pop\n        /* \"contracts/coffe.sol\":25398:25774  for (uint256 i = 0; i < _blackListedBots.length; i++) {... */\n      jump(tag_381)\n        /* \"contracts/coffe.sol\":24724:24840  function updateTaxPoolWallet(address payable newAddress) external onlyOwner {... */\n    tag_180:\n        /* \"contracts/coffe.sol\":8239:8245  _owner */\n      and(sub(shl(0xa0, 0x01), 0x01), sload(0x00))\n        /* \"contracts/coffe.sol\":4348:4358  msg.sender */\n      caller\n        /* \"contracts/coffe.sol\":8239:8261  _owner == _msgSender() */\n      eq\n        /* \"contracts/coffe.sol\":8231:8298  require(_owner == _msgSender(), \"Ownable: caller is not the owner\") */\n      tag_401\n      jumpi\n      mload(0x40)\n      shl(0xe5, 0x461bcd)\n      dup2\n      mstore\n      0x04\n      add\n      tag_214\n      swap1\n      tag_215\n      jump\t// in\n    tag_401:\n        /* \"contracts/coffe.sol\":24811:24819  _taxPool */\n      0x0e\n        /* \"contracts/coffe.sol\":24811:24832  _taxPool = newAddress */\n      dup1\n      sload\n      not(sub(shl(0xa0, 0x01), 0x01))\n      and\n      sub(shl(0xa0, 0x01), 0x01)\n      swap3\n      swap1\n      swap3\n      and\n      swap2\n      swap1\n      swap2\n      or\n      swap1\n      sstore\n        /* \"contracts/coffe.sol\":24724:24840  function updateTaxPoolWallet(address payable newAddress) external onlyOwner {... */\n      jump\t// out\n        /* \"contracts/coffe.sol\":27092:27295  function setMaxTxPercent(uint256 maxTxPercent) external onlyOwner {... */\n    tag_183:\n        /* \"contracts/coffe.sol\":8239:8245  _owner */\n      and(sub(shl(0xa0, 0x01), 0x01), sload(0x00))\n        /* \"contracts/coffe.sol\":4348:4358  msg.sender */\n      caller\n        /* \"contracts/coffe.sol\":8239:8261  _owner == _msgSender() */\n      eq\n        /* \"contracts/coffe.sol\":8231:8298  require(_owner == _msgSender(), \"Ownable: caller is not the owner\") */\n      tag_406\n      jumpi\n      mload(0x40)\n      shl(0xe5, 0x461bcd)\n      dup2\n      mstore\n      0x04\n      add\n      tag_214\n      swap1\n      tag_215\n      jump\t// in\n    tag_406:\n        /* \"contracts/coffe.sol\":27187:27191  1000 */\n      0x03e8\n        /* \"contracts/coffe.sol\":27171:27183  maxTxPercent */\n      dup2\n        /* \"contracts/coffe.sol\":27171:27191  maxTxPercent <= 1000 */\n      gt\n      iszero\n        /* \"contracts/coffe.sol\":27163:27224  require(maxTxPercent <= 1000, \"maxTxPercent exceeds divider\") */\n      tag_409\n      jumpi\n      mload(0x40)\n      shl(0xe5, 0x461bcd)\n      dup2\n      mstore\n        /* \"#utility.yul\":10026:10028   */\n      0x20\n        /* \"contracts/coffe.sol\":27163:27224  require(maxTxPercent <= 1000, \"maxTxPercent exceeds divider\") */\n      0x04\n      dup3\n      add\n        /* \"#utility.yul\":10008:10029   */\n      mstore\n        /* \"#utility.yul\":10065:10067   */\n      0x1c\n        /* \"#utility.yul\":10045:10063   */\n      0x24\n      dup3\n      add\n        /* \"#utility.yul\":10038:10068   */\n      mstore\n        /* \"#utility.yul\":10104:10134   */\n      0x6d6178547850657263656e742065786365656473206469766964657200000000\n        /* \"#utility.yul\":10084:10102   */\n      0x44\n      dup3\n      add\n        /* \"#utility.yul\":10077:10135   */\n      mstore\n        /* \"#utility.yul\":10152:10170   */\n      0x64\n      add\n        /* \"contracts/coffe.sol\":27163:27224  require(maxTxPercent <= 1000, \"maxTxPercent exceeds divider\") */\n      tag_214\n        /* \"#utility.yul\":9824:10176   */\n      jump\n        /* \"contracts/coffe.sol\":27163:27224  require(maxTxPercent <= 1000, \"maxTxPercent exceeds divider\") */\n    tag_409:\n        /* \"contracts/coffe.sol\":27251:27287  _tTotal.mul(maxTxPercent).div(10**3) */\n      tag_412\n        /* \"contracts/coffe.sol\":27281:27286  10**3 */\n      0x03e8\n        /* \"contracts/coffe.sol\":27251:27276  _tTotal.mul(maxTxPercent) */\n      tag_371\n        /* \"contracts/coffe.sol\":27263:27275  maxTxPercent */\n      dup4\n        /* \"contracts/coffe.sol\":27251:27258  _tTotal */\n      sload(0x0b)\n        /* \"contracts/coffe.sol\":27251:27262  _tTotal.mul */\n      tag_372\n      swap1\n        /* \"contracts/coffe.sol\":27251:27276  _tTotal.mul(maxTxPercent) */\n      swap2\n      swap1\n      0xffffffff\n      and\n      jump\t// in\n        /* \"contracts/coffe.sol\":27251:27287  _tTotal.mul(maxTxPercent).div(10**3) */\n    tag_412:\n        /* \"contracts/coffe.sol\":27236:27248  _maxTxAmount */\n      0x15\n        /* \"contracts/coffe.sol\":27236:27287  _maxTxAmount = _tTotal.mul(maxTxPercent).div(10**3) */\n      sstore\n      pop\n        /* \"contracts/coffe.sol\":27092:27295  function setMaxTxPercent(uint256 maxTxPercent) external onlyOwner {... */\n      jump\t// out\n        /* \"contracts/coffe.sol\":26729:26839  function includeInFee(address account) public onlyOwner {... */\n    tag_195:\n        /* \"contracts/coffe.sol\":8239:8245  _owner */\n      and(sub(shl(0xa0, 0x01), 0x01), sload(0x00))\n        /* \"contracts/coffe.sol\":4348:4358  msg.sender */\n      caller\n        /* \"contracts/coffe.sol\":8239:8261  _owner == _msgSender() */\n      eq\n        /* \"contracts/coffe.sol\":8231:8298  require(_owner == _msgSender(), \"Ownable: caller is not the owner\") */\n      tag_418\n      jumpi\n      mload(0x40)\n      shl(0xe5, 0x461bcd)\n      dup2\n      mstore\n      0x04\n      add\n      tag_214\n      swap1\n      tag_215\n      jump\t// in\n    tag_418:\n      sub(shl(0xa0, 0x01), 0x01)\n        /* \"contracts/coffe.sol\":26796:26823  _isExcludedFromFee[account] */\n      and\n        /* \"contracts/coffe.sol\":26826:26831  false */\n      0x00\n        /* \"contracts/coffe.sol\":26796:26823  _isExcludedFromFee[account] */\n      swap1\n      dup2\n      mstore\n        /* \"contracts/coffe.sol\":26796:26814  _isExcludedFromFee */\n      0x05\n        /* \"contracts/coffe.sol\":26796:26823  _isExcludedFromFee[account] */\n      0x20\n      mstore\n      0x40\n      swap1\n      keccak256\n        /* \"contracts/coffe.sol\":26796:26831  _isExcludedFromFee[account] = false */\n      dup1\n      sload\n      not(0xff)\n      and\n      swap1\n      sstore\n        /* \"contracts/coffe.sol\":26729:26839  function includeInFee(address account) public onlyOwner {... */\n      jump\t// out\n        /* \"contracts/coffe.sol\":8494:8775  function transferOwnership(address newOwner) public virtual onlyOwner {... */\n    tag_198:\n        /* \"contracts/coffe.sol\":8239:8245  _owner */\n      and(sub(shl(0xa0, 0x01), 0x01), sload(0x00))\n        /* \"contracts/coffe.sol\":4348:4358  msg.sender */\n      caller\n        /* \"contracts/coffe.sol\":8239:8261  _owner == _msgSender() */\n      eq\n        /* \"contracts/coffe.sol\":8231:8298  require(_owner == _msgSender(), \"Ownable: caller is not the owner\") */\n      tag_423\n      jumpi\n      mload(0x40)\n      shl(0xe5, 0x461bcd)\n      dup2\n      mstore\n      0x04\n      add\n      tag_214\n      swap1\n      tag_215\n      jump\t// in\n    tag_423:\n      sub(shl(0xa0, 0x01), 0x01)\n        /* \"contracts/coffe.sol\":8597:8619  newOwner != address(0) */\n      dup2\n      and\n        /* \"contracts/coffe.sol\":8575:8685  require(... */\n      tag_426\n      jumpi\n      mload(0x40)\n      shl(0xe5, 0x461bcd)\n      dup2\n      mstore\n        /* \"#utility.yul\":10383:10385   */\n      0x20\n        /* \"contracts/coffe.sol\":8575:8685  require(... */\n      0x04\n      dup3\n      add\n        /* \"#utility.yul\":10365:10386   */\n      mstore\n        /* \"#utility.yul\":10422:10424   */\n      0x26\n        /* \"#utility.yul\":10402:10420   */\n      0x24\n      dup3\n      add\n        /* \"#utility.yul\":10395:10425   */\n      mstore\n        /* \"#utility.yul\":10461:10495   */\n      0x4f776e61626c653a206e6577206f776e657220697320746865207a65726f2061\n        /* \"#utility.yul\":10441:10459   */\n      0x44\n      dup3\n      add\n        /* \"#utility.yul\":10434:10496   */\n      mstore\n      shl(0xd0, 0x646472657373)\n        /* \"#utility.yul\":10512:10530   */\n      0x64\n      dup3\n      add\n        /* \"#utility.yul\":10505:10541   */\n      mstore\n        /* \"#utility.yul\":10558:10577   */\n      0x84\n      add\n        /* \"contracts/coffe.sol\":8575:8685  require(... */\n      tag_214\n        /* \"#utility.yul\":10181:10583   */\n      jump\n        /* \"contracts/coffe.sol\":8575:8685  require(... */\n    tag_426:\n        /* \"contracts/coffe.sol\":8722:8728  _owner */\n      0x00\n      dup1\n      sload\n        /* \"contracts/coffe.sol\":8701:8739  OwnershipTransferred(_owner, newOwner) */\n      mload(0x40)\n      sub(shl(0xa0, 0x01), 0x01)\n      dup1\n      dup6\n      and\n      swap4\n        /* \"contracts/coffe.sol\":8722:8728  _owner */\n      swap3\n      and\n      swap2\n        /* \"contracts/coffe.sol\":8701:8739  OwnershipTransferred(_owner, newOwner) */\n      0x8be0079c531659141344cd1fd0a4f28419497f9722a3daafe3b4186f6b6457e0\n      swap2\n      log3\n        /* \"contracts/coffe.sol\":8750:8756  _owner */\n      0x00\n        /* \"contracts/coffe.sol\":8750:8767  _owner = newOwner */\n      dup1\n      sload\n      not(sub(shl(0xa0, 0x01), 0x01))\n      and\n      sub(shl(0xa0, 0x01), 0x01)\n      swap3\n      swap1\n      swap3\n      and\n      swap2\n      swap1\n      swap2\n      or\n      swap1\n      sstore\n        /* \"contracts/coffe.sol\":8494:8775  function transferOwnership(address newOwner) public virtual onlyOwner {... */\n      jump\t// out\n        /* \"contracts/coffe.sol\":30816:31187  function _approve(... */\n    tag_210:\n      sub(shl(0xa0, 0x01), 0x01)\n        /* \"contracts/coffe.sol\":30943:30962  owner != address(0) */\n      dup4\n      and\n        /* \"contracts/coffe.sol\":30935:31003  require(owner != address(0), \"ERC20: approve from the zero address\") */\n      tag_431\n      jumpi\n      mload(0x40)\n      shl(0xe5, 0x461bcd)\n      dup2\n      mstore\n        /* \"#utility.yul\":10790:10792   */\n      0x20\n        /* \"contracts/coffe.sol\":30935:31003  require(owner != address(0), \"ERC20: approve from the zero address\") */\n      0x04\n      dup3\n      add\n        /* \"#utility.yul\":10772:10793   */\n      mstore\n        /* \"#utility.yul\":10829:10831   */\n      0x24\n        /* \"#utility.yul\":10809:10827   */\n      dup1\n      dup3\n      add\n        /* \"#utility.yul\":10802:10832   */\n      mstore\n        /* \"#utility.yul\":10868:10902   */\n      0x45524332303a20617070726f76652066726f6d20746865207a65726f20616464\n        /* \"#utility.yul\":10848:10866   */\n      0x44\n      dup3\n      add\n        /* \"#utility.yul\":10841:10903   */\n      mstore\n      shl(0xe0, 0x72657373)\n        /* \"#utility.yul\":10919:10937   */\n      0x64\n      dup3\n      add\n        /* \"#utility.yul\":10912:10946   */\n      mstore\n        /* \"#utility.yul\":10963:10982   */\n      0x84\n      add\n        /* \"contracts/coffe.sol\":30935:31003  require(owner != address(0), \"ERC20: approve from the zero address\") */\n      tag_214\n        /* \"#utility.yul\":10588:10988   */\n      jump\n        /* \"contracts/coffe.sol\":30935:31003  require(owner != address(0), \"ERC20: approve from the zero address\") */\n    tag_431:\n      sub(shl(0xa0, 0x01), 0x01)\n        /* \"contracts/coffe.sol\":31022:31043  spender != address(0) */\n      dup3\n      and\n        /* \"contracts/coffe.sol\":31014:31082  require(spender != address(0), \"ERC20: approve to the zero address\") */\n      tag_434\n      jumpi\n      mload(0x40)\n      shl(0xe5, 0x461bcd)\n      dup2\n      mstore\n        /* \"#utility.yul\":11195:11197   */\n      0x20\n        /* \"contracts/coffe.sol\":31014:31082  require(spender != address(0), \"ERC20: approve to the zero address\") */\n      0x04\n      dup3\n      add\n        /* \"#utility.yul\":11177:11198   */\n      mstore\n        /* \"#utility.yul\":11234:11236   */\n      0x22\n        /* \"#utility.yul\":11214:11232   */\n      0x24\n      dup3\n      add\n        /* \"#utility.yul\":11207:11237   */\n      mstore\n        /* \"#utility.yul\":11273:11307   */\n      0x45524332303a20617070726f766520746f20746865207a65726f206164647265\n        /* \"#utility.yul\":11253:11271   */\n      0x44\n      dup3\n      add\n        /* \"#utility.yul\":11246:11308   */\n      mstore\n      shl(0xf0, 0x7373)\n        /* \"#utility.yul\":11324:11342   */\n      0x64\n      dup3\n      add\n        /* \"#utility.yul\":11317:11349   */\n      mstore\n        /* \"#utility.yul\":11366:11385   */\n      0x84\n      add\n        /* \"contracts/coffe.sol\":31014:31082  require(spender != address(0), \"ERC20: approve to the zero address\") */\n      tag_214\n        /* \"#utility.yul\":10993:11391   */\n      jump\n        /* \"contracts/coffe.sol\":31014:31082  require(spender != address(0), \"ERC20: approve to the zero address\") */\n    tag_434:\n      sub(shl(0xa0, 0x01), 0x01)\n        /* \"contracts/coffe.sol\":31095:31113  _allowances[owner] */\n      dup4\n      dup2\n      and\n      0x00\n      dup2\n      dup2\n      mstore\n        /* \"contracts/coffe.sol\":31095:31106  _allowances */\n      0x04\n        /* \"contracts/coffe.sol\":31095:31113  _allowances[owner] */\n      0x20\n      swap1\n      dup2\n      mstore\n      0x40\n      dup1\n      dup4\n      keccak256\n        /* \"contracts/coffe.sol\":31095:31122  _allowances[owner][spender] */\n      swap5\n      dup8\n      and\n      dup1\n      dup5\n      mstore\n      swap5\n      dup3\n      mstore\n      swap2\n      dup3\n      swap1\n      keccak256\n        /* \"contracts/coffe.sol\":31095:31131  _allowances[owner][spender] = amount */\n      dup6\n      swap1\n      sstore\n        /* \"contracts/coffe.sol\":31147:31179  Approval(owner, spender, amount) */\n      swap1\n      mload\n        /* \"#utility.yul\":1662:1687   */\n      dup5\n      dup2\n      mstore\n        /* \"contracts/coffe.sol\":31147:31179  Approval(owner, spender, amount) */\n      0x8c5be1e5ebec7d5bd14f71427d1e84f3dd0314c0f7b2291e5b200ac8c7c3b925\n      swap2\n        /* \"#utility.yul\":1635:1653   */\n      add\n        /* \"contracts/coffe.sol\":31147:31179  Approval(owner, spender, amount) */\n      mload(0x40)\n      dup1\n      swap2\n      sub\n      swap1\n      log3\n        /* \"contracts/coffe.sol\":30816:31187  function _approve(... */\n      pop\n      pop\n      pop\n      jump\t// out\n        /* \"contracts/coffe.sol\":31195:32649  function _transfer(... */\n    tag_233:\n      sub(shl(0xa0, 0x01), 0x01)\n        /* \"contracts/coffe.sol\":31317:31335  from != address(0) */\n      dup4\n      and\n        /* \"contracts/coffe.sol\":31309:31377  require(from != address(0), \"ERC20: transfer from the zero address\") */\n      tag_439\n      jumpi\n      mload(0x40)\n      shl(0xe5, 0x461bcd)\n      dup2\n      mstore\n        /* \"#utility.yul\":11598:11600   */\n      0x20\n        /* \"contracts/coffe.sol\":31309:31377  require(from != address(0), \"ERC20: transfer from the zero address\") */\n      0x04\n      dup3\n      add\n        /* \"#utility.yul\":11580:11601   */\n      mstore\n        /* \"#utility.yul\":11637:11639   */\n      0x25\n        /* \"#utility.yul\":11617:11635   */\n      0x24\n      dup3\n      add\n        /* \"#utility.yul\":11610:11640   */\n      mstore\n        /* \"#utility.yul\":11676:11710   */\n      0x45524332303a207472616e736665722066726f6d20746865207a65726f206164\n        /* \"#utility.yul\":11656:11674   */\n      0x44\n      dup3\n      add\n        /* \"#utility.yul\":11649:11711   */\n      mstore\n      shl(0xd8, 0x6472657373)\n        /* \"#utility.yul\":11727:11745   */\n      0x64\n      dup3\n      add\n        /* \"#utility.yul\":11720:11755   */\n      mstore\n        /* \"#utility.yul\":11772:11791   */\n      0x84\n      add\n        /* \"contracts/coffe.sol\":31309:31377  require(from != address(0), \"ERC20: transfer from the zero address\") */\n      tag_214\n        /* \"#utility.yul\":11396:11797   */\n      jump\n        /* \"contracts/coffe.sol\":31309:31377  require(from != address(0), \"ERC20: transfer from the zero address\") */\n    tag_439:\n      sub(shl(0xa0, 0x01), 0x01)\n        /* \"contracts/coffe.sol\":31396:31412  to != address(0) */\n      dup3\n      and\n        /* \"contracts/coffe.sol\":31388:31452  require(to != address(0), \"ERC20: transfer to the zero address\") */\n      tag_442\n      jumpi\n      mload(0x40)\n      shl(0xe5, 0x461bcd)\n      dup2\n      mstore\n        /* \"#utility.yul\":12004:12006   */\n      0x20\n        /* \"contracts/coffe.sol\":31388:31452  require(to != address(0), \"ERC20: transfer to the zero address\") */\n      0x04\n      dup3\n      add\n        /* \"#utility.yul\":11986:12007   */\n      mstore\n        /* \"#utility.yul\":12043:12045   */\n      0x23\n        /* \"#utility.yul\":12023:12041   */\n      0x24\n      dup3\n      add\n        /* \"#utility.yul\":12016:12046   */\n      mstore\n        /* \"#utility.yul\":12082:12116   */\n      0x45524332303a207472616e7366657220746f20746865207a65726f2061646472\n        /* \"#utility.yul\":12062:12080   */\n      0x44\n      dup3\n      add\n        /* \"#utility.yul\":12055:12117   */\n      mstore\n      shl(0xe8, 0x657373)\n        /* \"#utility.yul\":12133:12151   */\n      0x64\n      dup3\n      add\n        /* \"#utility.yul\":12126:12159   */\n      mstore\n        /* \"#utility.yul\":12176:12195   */\n      0x84\n      add\n        /* \"contracts/coffe.sol\":31388:31452  require(to != address(0), \"ERC20: transfer to the zero address\") */\n      tag_214\n        /* \"#utility.yul\":11802:12201   */\n      jump\n        /* \"contracts/coffe.sol\":31388:31452  require(to != address(0), \"ERC20: transfer to the zero address\") */\n    tag_442:\n        /* \"contracts/coffe.sol\":31480:31481  0 */\n      0x00\n        /* \"contracts/coffe.sol\":31471:31477  amount */\n      dup2\n        /* \"contracts/coffe.sol\":31471:31481  amount > 0 */\n      gt\n        /* \"contracts/coffe.sol\":31463:31527  require(amount > 0, \"Transfer amount must be greater than zero\") */\n      tag_445\n      jumpi\n      mload(0x40)\n      shl(0xe5, 0x461bcd)\n      dup2\n      mstore\n        /* \"#utility.yul\":12408:12410   */\n      0x20\n        /* \"contracts/coffe.sol\":31463:31527  require(amount > 0, \"Transfer amount must be greater than zero\") */\n      0x04\n      dup3\n      add\n        /* \"#utility.yul\":12390:12411   */\n      mstore\n        /* \"#utility.yul\":12447:12449   */\n      0x29\n        /* \"#utility.yul\":12427:12445   */\n      0x24\n      dup3\n      add\n        /* \"#utility.yul\":12420:12450   */\n      mstore\n        /* \"#utility.yul\":12486:12520   */\n      0x5472616e7366657220616d6f756e74206d757374206265206772656174657220\n        /* \"#utility.yul\":12466:12484   */\n      0x44\n      dup3\n      add\n        /* \"#utility.yul\":12459:12521   */\n      mstore\n      shl(0xb8, 0x7468616e207a65726f)\n        /* \"#utility.yul\":12537:12555   */\n      0x64\n      dup3\n      add\n        /* \"#utility.yul\":12530:12569   */\n      mstore\n        /* \"#utility.yul\":12586:12605   */\n      0x84\n      add\n        /* \"contracts/coffe.sol\":31463:31527  require(amount > 0, \"Transfer amount must be greater than zero\") */\n      tag_214\n        /* \"#utility.yul\":12206:12611   */\n      jump\n        /* \"contracts/coffe.sol\":31463:31527  require(amount > 0, \"Transfer amount must be greater than zero\") */\n    tag_445:\n      sub(shl(0xa0, 0x01), 0x01)\n        /* \"contracts/coffe.sol\":31547:31570  _isBlackListedBot[from] */\n      dup4\n      and\n      0x00\n      swap1\n      dup2\n      mstore\n        /* \"contracts/coffe.sol\":31547:31564  _isBlackListedBot */\n      0x08\n        /* \"contracts/coffe.sol\":31547:31570  _isBlackListedBot[from] */\n      0x20\n      mstore\n      0x40\n      swap1\n      keccak256\n      sload\n      0xff\n      and\n        /* \"contracts/coffe.sol\":31546:31570  !_isBlackListedBot[from] */\n      iszero\n        /* \"contracts/coffe.sol\":31538:31594  require(!_isBlackListedBot[from], \"You are blacklisted\") */\n      tag_448\n      jumpi\n      mload(0x40)\n      shl(0xe5, 0x461bcd)\n      dup2\n      mstore\n        /* \"#utility.yul\":12818:12820   */\n      0x20\n        /* \"contracts/coffe.sol\":31538:31594  require(!_isBlackListedBot[from], \"You are blacklisted\") */\n      0x04\n      dup3\n      add\n        /* \"#utility.yul\":12800:12821   */\n      mstore\n        /* \"#utility.yul\":12857:12859   */\n      0x13\n        /* \"#utility.yul\":12837:12855   */\n      0x24\n      dup3\n      add\n        /* \"#utility.yul\":12830:12860   */\n      mstore\n      shl(0x6a, 0x165bdd48185c9948189b1858dadb1a5cdd1959)\n        /* \"#utility.yul\":12876:12894   */\n      0x44\n      dup3\n      add\n        /* \"#utility.yul\":12869:12918   */\n      mstore\n        /* \"#utility.yul\":12935:12953   */\n      0x64\n      add\n        /* \"contracts/coffe.sol\":31538:31594  require(!_isBlackListedBot[from], \"You are blacklisted\") */\n      tag_214\n        /* \"#utility.yul\":12616:12959   */\n      jump\n        /* \"contracts/coffe.sol\":31538:31594  require(!_isBlackListedBot[from], \"You are blacklisted\") */\n    tag_448:\n        /* \"contracts/coffe.sol\":31632:31642  msg.sender */\n      caller\n        /* \"contracts/coffe.sol\":31614:31643  _isBlackListedBot[msg.sender] */\n      0x00\n      swap1\n      dup2\n      mstore\n        /* \"contracts/coffe.sol\":31614:31631  _isBlackListedBot */\n      0x08\n        /* \"contracts/coffe.sol\":31614:31643  _isBlackListedBot[msg.sender] */\n      0x20\n      mstore\n      0x40\n      swap1\n      keccak256\n      sload\n      0xff\n      and\n        /* \"contracts/coffe.sol\":31613:31643  !_isBlackListedBot[msg.sender] */\n      iszero\n        /* \"contracts/coffe.sol\":31605:31659  require(!_isBlackListedBot[msg.sender], \"blacklisted\") */\n      tag_451\n      jumpi\n      mload(0x40)\n      shl(0xe5, 0x461bcd)\n      dup2\n      mstore\n        /* \"#utility.yul\":13166:13168   */\n      0x20\n        /* \"contracts/coffe.sol\":31605:31659  require(!_isBlackListedBot[msg.sender], \"blacklisted\") */\n      0x04\n      dup3\n      add\n        /* \"#utility.yul\":13148:13169   */\n      mstore\n        /* \"#utility.yul\":13205:13207   */\n      0x0b\n        /* \"#utility.yul\":13185:13203   */\n      0x24\n      dup3\n      add\n        /* \"#utility.yul\":13178:13208   */\n      mstore\n      shl(0xaa, 0x189b1858dadb1a5cdd1959)\n        /* \"#utility.yul\":13224:13242   */\n      0x44\n      dup3\n      add\n        /* \"#utility.yul\":13217:13258   */\n      mstore\n        /* \"#utility.yul\":13275:13293   */\n      0x64\n      add\n        /* \"contracts/coffe.sol\":31605:31659  require(!_isBlackListedBot[msg.sender], \"blacklisted\") */\n      tag_214\n        /* \"#utility.yul\":12964:13299   */\n      jump\n        /* \"contracts/coffe.sol\":31605:31659  require(!_isBlackListedBot[msg.sender], \"blacklisted\") */\n    tag_451:\n        /* \"contracts/coffe.sol\":31697:31706  tx.origin */\n      origin\n        /* \"contracts/coffe.sol\":31679:31707  _isBlackListedBot[tx.origin] */\n      0x00\n      swap1\n      dup2\n      mstore\n        /* \"contracts/coffe.sol\":31679:31696  _isBlackListedBot */\n      0x08\n        /* \"contracts/coffe.sol\":31679:31707  _isBlackListedBot[tx.origin] */\n      0x20\n      mstore\n      0x40\n      swap1\n      keccak256\n      sload\n      0xff\n      and\n        /* \"contracts/coffe.sol\":31678:31707  !_isBlackListedBot[tx.origin] */\n      iszero\n        /* \"contracts/coffe.sol\":31670:31723  require(!_isBlackListedBot[tx.origin], \"blacklisted\") */\n      tag_454\n      jumpi\n      mload(0x40)\n      shl(0xe5, 0x461bcd)\n      dup2\n      mstore\n        /* \"#utility.yul\":13166:13168   */\n      0x20\n        /* \"contracts/coffe.sol\":31670:31723  require(!_isBlackListedBot[tx.origin], \"blacklisted\") */\n      0x04\n      dup3\n      add\n        /* \"#utility.yul\":13148:13169   */\n      mstore\n        /* \"#utility.yul\":13205:13207   */\n      0x0b\n        /* \"#utility.yul\":13185:13203   */\n      0x24\n      dup3\n      add\n        /* \"#utility.yul\":13178:13208   */\n      mstore\n      shl(0xaa, 0x189b1858dadb1a5cdd1959)\n        /* \"#utility.yul\":13224:13242   */\n      0x44\n      dup3\n      add\n        /* \"#utility.yul\":13217:13258   */\n      mstore\n        /* \"#utility.yul\":13275:13293   */\n      0x64\n      add\n        /* \"contracts/coffe.sol\":31670:31723  require(!_isBlackListedBot[tx.origin], \"blacklisted\") */\n      tag_214\n        /* \"#utility.yul\":12964:13299   */\n      jump\n        /* \"contracts/coffe.sol\":31670:31723  require(!_isBlackListedBot[tx.origin], \"blacklisted\") */\n    tag_454:\n      sub(shl(0xa0, 0x01), 0x01)\n        /* \"contracts/coffe.sol\":31917:31941  _isExcludedFromFee[from] */\n      dup4\n      and\n        /* \"contracts/coffe.sol\":31797:31809  bool takeFee */\n      0x00\n        /* \"contracts/coffe.sol\":31917:31941  _isExcludedFromFee[from] */\n      swap1\n      dup2\n      mstore\n        /* \"contracts/coffe.sol\":31917:31935  _isExcludedFromFee */\n      0x05\n        /* \"contracts/coffe.sol\":31917:31941  _isExcludedFromFee[from] */\n      0x20\n      mstore\n      0x40\n      swap1\n      keccak256\n      sload\n        /* \"contracts/coffe.sol\":31812:31816  true */\n      0x01\n      swap1\n        /* \"contracts/coffe.sol\":31917:31941  _isExcludedFromFee[from] */\n      0xff\n      and\n      dup1\n        /* \"contracts/coffe.sol\":31917:31967  _isExcludedFromFee[from] || _isExcludedFromFee[to] */\n      tag_456\n      jumpi\n      pop\n      sub(shl(0xa0, 0x01), 0x01)\n        /* \"contracts/coffe.sol\":31945:31967  _isExcludedFromFee[to] */\n      dup4\n      and\n      0x00\n      swap1\n      dup2\n      mstore\n        /* \"contracts/coffe.sol\":31945:31963  _isExcludedFromFee */\n      0x05\n        /* \"contracts/coffe.sol\":31945:31967  _isExcludedFromFee[to] */\n      0x20\n      mstore\n      0x40\n      swap1\n      keccak256\n      sload\n      0xff\n      and\n        /* \"contracts/coffe.sol\":31917:31967  _isExcludedFromFee[from] || _isExcludedFromFee[to] */\n    tag_456:\n        /* \"contracts/coffe.sol\":31913:32011  if (_isExcludedFromFee[from] || _isExcludedFromFee[to]) {... */\n      iszero\n      tag_457\n      jumpi\n      pop\n        /* \"contracts/coffe.sol\":31994:31999  false */\n      0x00\n        /* \"contracts/coffe.sol\":31913:32011  if (_isExcludedFromFee[from] || _isExcludedFromFee[to]) {... */\n    tag_457:\n        /* \"contracts/coffe.sol\":32025:32032  takeFee */\n      dup1\n        /* \"contracts/coffe.sol\":32021:32539  if (takeFee) {... */\n      iszero\n      tag_468\n      jumpi\n      sub(shl(0xa0, 0x01), 0x01)\n        /* \"contracts/coffe.sol\":32054:32080  _isExcludedFromLimit[from] */\n      dup5\n      and\n      0x00\n      swap1\n      dup2\n      mstore\n        /* \"contracts/coffe.sol\":32054:32074  _isExcludedFromLimit */\n      0x09\n        /* \"contracts/coffe.sol\":32054:32080  _isExcludedFromLimit[from] */\n      0x20\n      mstore\n      0x40\n      swap1\n      keccak256\n      sload\n      0xff\n      and\n        /* \"contracts/coffe.sol\":32053:32080  !_isExcludedFromLimit[from] */\n      iszero\n        /* \"contracts/coffe.sol\":32053:32109  !_isExcludedFromLimit[from] && !_isExcludedFromLimit[to] */\n      dup1\n      iszero\n      tag_459\n      jumpi\n      pop\n      sub(shl(0xa0, 0x01), 0x01)\n        /* \"contracts/coffe.sol\":32085:32109  _isExcludedFromLimit[to] */\n      dup4\n      and\n      0x00\n      swap1\n      dup2\n      mstore\n        /* \"contracts/coffe.sol\":32085:32105  _isExcludedFromLimit */\n      0x09\n        /* \"contracts/coffe.sol\":32085:32109  _isExcludedFromLimit[to] */\n      0x20\n      mstore\n      0x40\n      swap1\n      keccak256\n      sload\n      0xff\n      and\n        /* \"contracts/coffe.sol\":32084:32109  !_isExcludedFromLimit[to] */\n      iszero\n        /* \"contracts/coffe.sol\":32053:32109  !_isExcludedFromLimit[from] && !_isExcludedFromLimit[to] */\n    tag_459:\n        /* \"contracts/coffe.sol\":32049:32528  if (!_isExcludedFromLimit[from] && !_isExcludedFromLimit[to]) {... */\n      iszero\n      tag_468\n      jumpi\n        /* \"contracts/coffe.sol\":32170:32182  _maxTxAmount */\n      sload(0x15)\n        /* \"contracts/coffe.sol\":32160:32166  amount */\n      dup3\n        /* \"contracts/coffe.sol\":32160:32182  amount <= _maxTxAmount */\n      gt\n      iszero\n        /* \"contracts/coffe.sol\":32130:32266  require(... */\n      tag_461\n      jumpi\n      mload(0x40)\n      shl(0xe5, 0x461bcd)\n      dup2\n      mstore\n        /* \"#utility.yul\":13506:13508   */\n      0x20\n        /* \"contracts/coffe.sol\":32130:32266  require(... */\n      0x04\n      dup3\n      add\n        /* \"#utility.yul\":13488:13509   */\n      mstore\n        /* \"#utility.yul\":13545:13547   */\n      0x28\n        /* \"#utility.yul\":13525:13543   */\n      0x24\n      dup3\n      add\n        /* \"#utility.yul\":13518:13548   */\n      mstore\n        /* \"#utility.yul\":13584:13618   */\n      0x5472616e7366657220616d6f756e74206578636565647320746865206d617854\n        /* \"#utility.yul\":13564:13582   */\n      0x44\n      dup3\n      add\n        /* \"#utility.yul\":13557:13619   */\n      mstore\n      shl(0xc1, 0x3c20b6b7bab73a17)\n        /* \"#utility.yul\":13635:13653   */\n      0x64\n      dup3\n      add\n        /* \"#utility.yul\":13628:13666   */\n      mstore\n        /* \"#utility.yul\":13683:13702   */\n      0x84\n      add\n        /* \"contracts/coffe.sol\":32130:32266  require(... */\n      tag_214\n        /* \"#utility.yul\":13304:13708   */\n      jump\n        /* \"contracts/coffe.sol\":32130:32266  require(... */\n    tag_461:\n        /* \"contracts/coffe.sol\":32295:32308  uniswapV2Pair */\n      immutable(\"0x0257654a82461e8a1d15ee210f9c68af767d2a4dc70df683f0ecf9e700bd8bac\")\n      sub(shl(0xa0, 0x01), 0x01)\n        /* \"contracts/coffe.sol\":32289:32308  to != uniswapV2Pair */\n      and\n        /* \"contracts/coffe.sol\":32289:32291  to */\n      dup4\n      sub(shl(0xa0, 0x01), 0x01)\n        /* \"contracts/coffe.sol\":32289:32308  to != uniswapV2Pair */\n      and\n      eq\n        /* \"contracts/coffe.sol\":32285:32513  if (to != uniswapV2Pair) {... */\n      tag_468\n      jumpi\n        /* \"contracts/coffe.sol\":32393:32407  _maxWalletSize */\n      sload(0x16)\n        /* \"contracts/coffe.sol\":32376:32389  balanceOf(to) */\n      tag_465\n        /* \"contracts/coffe.sol\":32386:32388  to */\n      dup5\n        /* \"contracts/coffe.sol\":32376:32385  balanceOf */\n      tag_137\n        /* \"contracts/coffe.sol\":32376:32389  balanceOf(to) */\n      jump\t// in\n    tag_465:\n        /* \"contracts/coffe.sol\":32367:32389  amount + balanceOf(to) */\n      tag_466\n      swap1\n        /* \"contracts/coffe.sol\":32367:32373  amount */\n      dup5\n        /* \"contracts/coffe.sol\":32367:32389  amount + balanceOf(to) */\n      tag_467\n      jump\t// in\n    tag_466:\n        /* \"contracts/coffe.sol\":32367:32407  amount + balanceOf(to) <= _maxWalletSize */\n      gt\n      iszero\n        /* \"contracts/coffe.sol\":32333:32493  require(... */\n      tag_468\n      jumpi\n      mload(0x40)\n      shl(0xe5, 0x461bcd)\n      dup2\n      mstore\n        /* \"#utility.yul\":14048:14050   */\n      0x20\n        /* \"contracts/coffe.sol\":32333:32493  require(... */\n      0x04\n      dup3\n      add\n        /* \"#utility.yul\":14030:14051   */\n      mstore\n        /* \"#utility.yul\":14087:14089   */\n      0x22\n        /* \"#utility.yul\":14067:14085   */\n      0x24\n      dup3\n      add\n        /* \"#utility.yul\":14060:14090   */\n      mstore\n        /* \"#utility.yul\":14126:14160   */\n      0x526563697069656e742065786365656473206d61782077616c6c65742073697a\n        /* \"#utility.yul\":14106:14124   */\n      0x44\n      dup3\n      add\n        /* \"#utility.yul\":14099:14161   */\n      mstore\n      shl(0xf1, 0x3297)\n        /* \"#utility.yul\":14177:14195   */\n      0x64\n      dup3\n      add\n        /* \"#utility.yul\":14170:14202   */\n      mstore\n        /* \"#utility.yul\":14219:14238   */\n      0x84\n      add\n        /* \"contracts/coffe.sol\":32333:32493  require(... */\n      tag_214\n        /* \"#utility.yul\":13846:14244   */\n      jump\n        /* \"contracts/coffe.sol\":32333:32493  require(... */\n    tag_468:\n        /* \"contracts/coffe.sol\":32600:32641  _tokenTransfer(from, to, amount, takeFee) */\n      tag_352\n        /* \"contracts/coffe.sol\":32615:32619  from */\n      dup5\n        /* \"contracts/coffe.sol\":32621:32623  to */\n      dup5\n        /* \"contracts/coffe.sol\":32625:32631  amount */\n      dup5\n        /* \"contracts/coffe.sol\":32633:32640  takeFee */\n      dup5\n        /* \"contracts/coffe.sol\":32600:32614  _tokenTransfer */\n      tag_472\n        /* \"contracts/coffe.sol\":32600:32641  _tokenTransfer(from, to, amount, takeFee) */\n      jump\t// in\n        /* \"contracts/coffe.sol\":2966:3192  function sub(... */\n    tag_238:\n        /* \"contracts/coffe.sol\":3086:3093  uint256 */\n      0x00\n        /* \"contracts/coffe.sol\":3122:3134  errorMessage */\n      dup2\n        /* \"contracts/coffe.sol\":3114:3120  b <= a */\n      dup5\n      dup5\n      gt\n      iszero\n        /* \"contracts/coffe.sol\":3106:3135  require(b <= a, errorMessage) */\n      tag_474\n      jumpi\n      mload(0x40)\n      shl(0xe5, 0x461bcd)\n      dup2\n      mstore\n      0x04\n      add\n      tag_214\n      swap2\n      swap1\n      tag_56\n      jump\t// in\n    tag_474:\n      pop\n        /* \"contracts/coffe.sol\":3146:3155  uint256 c */\n      0x00\n        /* \"contracts/coffe.sol\":3158:3163  a - b */\n      tag_476\n        /* \"contracts/coffe.sol\":3162:3163  b */\n      dup5\n        /* \"contracts/coffe.sol\":3158:3159  a */\n      dup7\n        /* \"contracts/coffe.sol\":3158:3163  a - b */\n      tag_265\n      jump\t// in\n    tag_476:\n        /* \"contracts/coffe.sol\":3146:3163  uint256 c = a - b */\n      swap6\n        /* \"contracts/coffe.sol\":2966:3192  function sub(... */\n      swap5\n      pop\n      pop\n      pop\n      pop\n      pop\n      jump\t// out\n        /* \"contracts/coffe.sol\":28764:28928  function _getRate() private view returns (uint256) {... */\n    tag_244:\n        /* \"contracts/coffe.sol\":28806:28813  uint256 */\n      0x00\n        /* \"contracts/coffe.sol\":28827:28842  uint256 rSupply */\n      dup1\n        /* \"contracts/coffe.sol\":28844:28859  uint256 tSupply */\n      0x00\n        /* \"contracts/coffe.sol\":28863:28882  _getCurrentSupply() */\n      tag_478\n        /* \"contracts/coffe.sol\":28863:28880  _getCurrentSupply */\n      tag_479\n        /* \"contracts/coffe.sol\":28863:28882  _getCurrentSupply() */\n      jump\t// in\n    tag_478:\n        /* \"contracts/coffe.sol\":28826:28882  (uint256 rSupply, uint256 tSupply) = _getCurrentSupply() */\n      swap1\n      swap3\n      pop\n      swap1\n      pop\n        /* \"contracts/coffe.sol\":28900:28920  rSupply.div(tSupply) */\n      tag_480\n        /* \"contracts/coffe.sol\":28826:28882  (uint256 rSupply, uint256 tSupply) = _getCurrentSupply() */\n      dup3\n      dup3\n        /* \"contracts/coffe.sol\":28900:28911  rSupply.div */\n      tag_246\n        /* \"contracts/coffe.sol\":28900:28920  rSupply.div(tSupply) */\n      jump\t// in\n    tag_480:\n        /* \"contracts/coffe.sol\":28893:28920  return rSupply.div(tSupply) */\n      swap3\n      pop\n      pop\n      pop\n        /* \"contracts/coffe.sol\":28764:28928  function _getRate() private view returns (uint256) {... */\n      swap1\n      jump\t// out\n        /* \"contracts/coffe.sol\":3480:3612  function div(uint256 a, uint256 b) internal pure returns (uint256) {... */\n    tag_246:\n        /* \"contracts/coffe.sol\":3538:3545  uint256 */\n      0x00\n        /* \"contracts/coffe.sol\":3565:3604  div(a, b, \"SafeMath: division by zero\") */\n      tag_245\n        /* \"contracts/coffe.sol\":3569:3570  a */\n      dup4\n        /* \"contracts/coffe.sol\":3572:3573  b */\n      dup4\n        /* \"contracts/coffe.sol\":3565:3604  div(a, b, \"SafeMath: division by zero\") */\n      mload(0x40)\n      dup1\n      0x40\n      add\n      0x40\n      mstore\n      dup1\n      0x1a\n      dup2\n      mstore\n      0x20\n      add\n      0x536166654d6174683a206469766973696f6e206279207a65726f000000000000\n      dup2\n      mstore\n      pop\n        /* \"contracts/coffe.sol\":3565:3568  div */\n      tag_483\n        /* \"contracts/coffe.sol\":3565:3604  div(a, b, \"SafeMath: division by zero\") */\n      jump\t// in\n        /* \"contracts/coffe.sol\":2622:2803  function add(uint256 a, uint256 b) internal pure returns (uint256) {... */\n    tag_283:\n        /* \"contracts/coffe.sol\":2680:2687  uint256 */\n      0x00\n      dup1\n        /* \"contracts/coffe.sol\":2712:2717  a + b */\n      tag_485\n        /* \"contracts/coffe.sol\":2716:2717  b */\n      dup4\n        /* \"contracts/coffe.sol\":2712:2713  a */\n      dup6\n        /* \"contracts/coffe.sol\":2712:2717  a + b */\n      tag_467\n      jump\t// in\n    tag_485:\n        /* \"contracts/coffe.sol\":2700:2717  uint256 c = a + b */\n      swap1\n      pop\n        /* \"contracts/coffe.sol\":2741:2742  a */\n      dup4\n        /* \"contracts/coffe.sol\":2736:2737  c */\n      dup2\n        /* \"contracts/coffe.sol\":2736:2742  c >= a */\n      lt\n      iszero\n        /* \"contracts/coffe.sol\":2728:2774  require(c >= a, \"SafeMath: addition overflow\") */\n      tag_245\n      jumpi\n      mload(0x40)\n      shl(0xe5, 0x461bcd)\n      dup2\n      mstore\n        /* \"#utility.yul\":14451:14453   */\n      0x20\n        /* \"contracts/coffe.sol\":2728:2774  require(c >= a, \"SafeMath: addition overflow\") */\n      0x04\n      dup3\n      add\n        /* \"#utility.yul\":14433:14454   */\n      mstore\n        /* \"#utility.yul\":14490:14492   */\n      0x1b\n        /* \"#utility.yul\":14470:14488   */\n      0x24\n      dup3\n      add\n        /* \"#utility.yul\":14463:14493   */\n      mstore\n        /* \"#utility.yul\":14529:14558   */\n      0x536166654d6174683a206164646974696f6e206f766572666c6f770000000000\n        /* \"#utility.yul\":14509:14527   */\n      0x44\n      dup3\n      add\n        /* \"#utility.yul\":14502:14559   */\n      mstore\n        /* \"#utility.yul\":14576:14594   */\n      0x64\n      add\n        /* \"contracts/coffe.sol\":2728:2774  require(c >= a, \"SafeMath: addition overflow\") */\n      tag_214\n        /* \"#utility.yul\":14249:14600   */\n      jump\n        /* \"contracts/coffe.sol\":2816:2952  function sub(uint256 a, uint256 b) internal pure returns (uint256) {... */\n    tag_291:\n        /* \"contracts/coffe.sol\":2874:2881  uint256 */\n      0x00\n        /* \"contracts/coffe.sol\":2901:2944  sub(a, b, \"SafeMath: subtraction overflow\") */\n      tag_245\n        /* \"contracts/coffe.sol\":2905:2906  a */\n      dup4\n        /* \"contracts/coffe.sol\":2908:2909  b */\n      dup4\n        /* \"contracts/coffe.sol\":2901:2944  sub(a, b, \"SafeMath: subtraction overflow\") */\n      mload(0x40)\n      dup1\n      0x40\n      add\n      0x40\n      mstore\n      dup1\n      0x1e\n      dup2\n      mstore\n      0x20\n      add\n      0x536166654d6174683a207375627472616374696f6e206f766572666c6f770000\n      dup2\n      mstore\n      pop\n        /* \"contracts/coffe.sol\":2901:2904  sub */\n      tag_238\n        /* \"contracts/coffe.sol\":2901:2944  sub(a, b, \"SafeMath: subtraction overflow\") */\n      jump\t// in\n        /* \"contracts/coffe.sol\":27708:28166  function _getTValues(uint256 tAmount)... */\n    tag_304:\n        /* \"contracts/coffe.sol\":27809:27816  uint256 */\n      0x00\n        /* \"contracts/coffe.sol\":27831:27838  uint256 */\n      dup1\n        /* \"contracts/coffe.sol\":27853:27860  uint256 */\n      0x00\n        /* \"contracts/coffe.sol\":27888:27900  uint256 tFee */\n      dup1\n        /* \"contracts/coffe.sol\":27903:27927  calculateTaxFee(tAmount) */\n      tag_492\n        /* \"contracts/coffe.sol\":27919:27926  tAmount */\n      dup6\n        /* \"contracts/coffe.sol\":27903:27918  calculateTaxFee */\n      tag_493\n        /* \"contracts/coffe.sol\":27903:27927  calculateTaxFee(tAmount) */\n      jump\t// in\n    tag_492:\n        /* \"contracts/coffe.sol\":27888:27927  uint256 tFee = calculateTaxFee(tAmount) */\n      swap1\n      pop\n        /* \"contracts/coffe.sol\":27938:27956  uint256 tMarketing */\n      0x00\n        /* \"contracts/coffe.sol\":27959:27989  calculateMarketingFee(tAmount) */\n      tag_494\n        /* \"contracts/coffe.sol\":27981:27988  tAmount */\n      dup7\n        /* \"contracts/coffe.sol\":27959:27980  calculateMarketingFee */\n      tag_495\n        /* \"contracts/coffe.sol\":27959:27989  calculateMarketingFee(tAmount) */\n      jump\t// in\n    tag_494:\n        /* \"contracts/coffe.sol\":27938:27989  uint256 tMarketing = calculateMarketingFee(tAmount) */\n      swap1\n      pop\n        /* \"contracts/coffe.sol\":28000:28023  uint256 tTransferAmount */\n      0x00\n        /* \"contracts/coffe.sol\":28026:28043  tAmount.sub(tFee) */\n      tag_496\n        /* \"contracts/coffe.sol\":28026:28033  tAmount */\n      dup8\n        /* \"contracts/coffe.sol\":28038:28042  tFee */\n      dup5\n        /* \"contracts/coffe.sol\":28026:28037  tAmount.sub */\n      tag_291\n        /* \"contracts/coffe.sol\":28026:28043  tAmount.sub(tFee) */\n      jump\t// in\n    tag_496:\n        /* \"contracts/coffe.sol\":28000:28043  uint256 tTransferAmount = tAmount.sub(tFee) */\n      swap1\n      pop\n        /* \"contracts/coffe.sol\":28072:28103  tTransferAmount.sub(tMarketing) */\n      tag_497\n        /* \"contracts/coffe.sol\":28000:28043  uint256 tTransferAmount = tAmount.sub(tFee) */\n      dup2\n        /* \"contracts/coffe.sol\":28092:28102  tMarketing */\n      dup4\n        /* \"contracts/coffe.sol\":28072:28091  tTransferAmount.sub */\n      tag_291\n        /* \"contracts/coffe.sol\":28072:28103  tTransferAmount.sub(tMarketing) */\n      jump\t// in\n    tag_497:\n        /* \"contracts/coffe.sol\":28054:28103  tTransferAmount = tTransferAmount.sub(tMarketing) */\n      swap8\n        /* \"contracts/coffe.sol\":28141:28145  tFee */\n      swap3\n      swap7\n      pop\n        /* \"contracts/coffe.sol\":28147:28157  tMarketing */\n      swap1\n      swap5\n      pop\n        /* \"contracts/coffe.sol\":27708:28166  function _getTValues(uint256 tAmount)... */\n      swap1\n      swap3\n      pop\n      pop\n      pop\n      jump\t// out\n        /* \"contracts/coffe.sol\":28174:28756  function _getRValues(... */\n    tag_307:\n        /* \"contracts/coffe.sol\":28373:28380  uint256 */\n      0x00\n      dup1\n      dup1\n      dup1\n        /* \"contracts/coffe.sol\":28470:28494  tAmount.mul(currentRate) */\n      tag_499\n        /* \"contracts/coffe.sol\":28470:28477  tAmount */\n      dup9\n        /* \"contracts/coffe.sol\":28482:28493  currentRate */\n      dup7\n        /* \"contracts/coffe.sol\":28470:28481  tAmount.mul */\n      tag_372\n        /* \"contracts/coffe.sol\":28470:28494  tAmount.mul(currentRate) */\n      jump\t// in\n    tag_499:\n        /* \"contracts/coffe.sol\":28452:28494  uint256 rAmount = tAmount.mul(currentRate) */\n      swap1\n      pop\n        /* \"contracts/coffe.sol\":28505:28517  uint256 rFee */\n      0x00\n        /* \"contracts/coffe.sol\":28520:28541  tFee.mul(currentRate) */\n      tag_500\n        /* \"contracts/coffe.sol\":28520:28524  tFee */\n      dup9\n        /* \"contracts/coffe.sol\":28529:28540  currentRate */\n      dup8\n        /* \"contracts/coffe.sol\":28520:28528  tFee.mul */\n      tag_372\n        /* \"contracts/coffe.sol\":28520:28541  tFee.mul(currentRate) */\n      jump\t// in\n    tag_500:\n        /* \"contracts/coffe.sol\":28505:28541  uint256 rFee = tFee.mul(currentRate) */\n      swap1\n      pop\n        /* \"contracts/coffe.sol\":28552:28570  uint256 rMarketing */\n      0x00\n        /* \"contracts/coffe.sol\":28573:28600  tMarketing.mul(currentRate) */\n      tag_501\n        /* \"contracts/coffe.sol\":28573:28583  tMarketing */\n      dup9\n        /* \"contracts/coffe.sol\":28588:28599  currentRate */\n      dup9\n        /* \"contracts/coffe.sol\":28573:28587  tMarketing.mul */\n      tag_372\n        /* \"contracts/coffe.sol\":28573:28600  tMarketing.mul(currentRate) */\n      jump\t// in\n    tag_501:\n        /* \"contracts/coffe.sol\":28552:28600  uint256 rMarketing = tMarketing.mul(currentRate) */\n      swap1\n      pop\n        /* \"contracts/coffe.sol\":28611:28634  uint256 rTransferAmount */\n      0x00\n        /* \"contracts/coffe.sol\":28637:28698  rAmount... */\n      tag_502\n        /* \"contracts/coffe.sol\":28552:28600  uint256 rMarketing = tMarketing.mul(currentRate) */\n      dup3\n        /* \"contracts/coffe.sol\":28637:28668  rAmount... */\n      tag_290\n        /* \"contracts/coffe.sol\":28637:28644  rAmount */\n      dup7\n        /* \"contracts/coffe.sol\":28663:28667  rFee */\n      dup7\n        /* \"contracts/coffe.sol\":28637:28662  rAmount... */\n      tag_291\n        /* \"contracts/coffe.sol\":28637:28668  rAmount... */\n      jump\t// in\n        /* \"contracts/coffe.sol\":28637:28698  rAmount... */\n    tag_502:\n        /* \"contracts/coffe.sol\":28717:28724  rAmount */\n      swap4\n      swap12\n      swap4\n      swap11\n      pop\n        /* \"contracts/coffe.sol\":28743:28747  rFee */\n      swap2\n      swap9\n      pop\n        /* \"contracts/coffe.sol\":28174:28756  function _getRValues(... */\n      swap2\n      swap7\n      pop\n      pop\n      pop\n      pop\n      pop\n      pop\n      pop\n      jump\t// out\n        /* \"contracts/coffe.sol\":3206:3466  function mul(uint256 a, uint256 b) internal pure returns (uint256) {... */\n    tag_372:\n        /* \"contracts/coffe.sol\":3264:3271  uint256 */\n      0x00\n        /* \"contracts/coffe.sol\":3298:3304  a == 0 */\n      dup3\n        /* \"contracts/coffe.sol\":3294:3341  if (a == 0) {... */\n      tag_505\n      jumpi\n      pop\n        /* \"contracts/coffe.sol\":3328:3329  0 */\n      0x00\n        /* \"contracts/coffe.sol\":3321:3329  return 0 */\n      jump(tag_206)\n        /* \"contracts/coffe.sol\":3294:3341  if (a == 0) {... */\n    tag_505:\n        /* \"contracts/coffe.sol\":3353:3362  uint256 c */\n      0x00\n        /* \"contracts/coffe.sol\":3365:3370  a * b */\n      tag_506\n        /* \"contracts/coffe.sol\":3369:3370  b */\n      dup4\n        /* \"contracts/coffe.sol\":3365:3366  a */\n      dup6\n        /* \"contracts/coffe.sol\":3365:3370  a * b */\n      tag_507\n      jump\t// in\n    tag_506:\n        /* \"contracts/coffe.sol\":3353:3370  uint256 c = a * b */\n      swap1\n      pop\n        /* \"contracts/coffe.sol\":3398:3399  b */\n      dup3\n        /* \"contracts/coffe.sol\":3389:3394  c / a */\n      tag_508\n        /* \"contracts/coffe.sol\":3393:3394  a */\n      dup6\n        /* \"contracts/coffe.sol\":3353:3370  uint256 c = a * b */\n      dup4\n        /* \"contracts/coffe.sol\":3389:3394  c / a */\n      tag_509\n      jump\t// in\n    tag_508:\n        /* \"contracts/coffe.sol\":3389:3399  c / a == b */\n      eq\n        /* \"contracts/coffe.sol\":3381:3437  require(c / a == b, \"SafeMath: multiplication overflow\") */\n      tag_245\n      jumpi\n      mload(0x40)\n      shl(0xe5, 0x461bcd)\n      dup2\n      mstore\n        /* \"#utility.yul\":15202:15204   */\n      0x20\n        /* \"contracts/coffe.sol\":3381:3437  require(c / a == b, \"SafeMath: multiplication overflow\") */\n      0x04\n      dup3\n      add\n        /* \"#utility.yul\":15184:15205   */\n      mstore\n        /* \"#utility.yul\":15241:15243   */\n      0x21\n        /* \"#utility.yul\":15221:15239   */\n      0x24\n      dup3\n      add\n        /* \"#utility.yul\":15214:15244   */\n      mstore\n        /* \"#utility.yul\":15280:15314   */\n      0x536166654d6174683a206d756c7469706c69636174696f6e206f766572666c6f\n        /* \"#utility.yul\":15260:15278   */\n      0x44\n      dup3\n      add\n        /* \"#utility.yul\":15253:15315   */\n      mstore\n      shl(0xf8, 0x77)\n        /* \"#utility.yul\":15331:15349   */\n      0x64\n      dup3\n      add\n        /* \"#utility.yul\":15324:15355   */\n      mstore\n        /* \"#utility.yul\":15372:15391   */\n      0x84\n      add\n        /* \"contracts/coffe.sol\":3381:3437  require(c / a == b, \"SafeMath: multiplication overflow\") */\n      tag_214\n        /* \"#utility.yul\":15000:15397   */\n      jump\n        /* \"contracts/coffe.sol\":33856:34878  function _tokenTransfer(... */\n    tag_472:\n        /* \"contracts/coffe.sol\":34011:34018  takeFee */\n      dup1\n        /* \"contracts/coffe.sol\":34007:34237  if (takeFee) {... */\n      iszero\n      tag_521\n      jumpi\n        /* \"contracts/coffe.sol\":34035:34049  removeAllFee() */\n      tag_515\n        /* \"contracts/coffe.sol\":30258:30265  _taxFee */\n      0x14\n        /* \"contracts/coffe.sol\":30258:30269  _taxFee = 0 */\n      dup1\n      sload\n      not(0xffffffff)\n        /* \"contracts/coffe.sol\":30280:30297  _marketingFee = 0 */\n      and\n      swap1\n      sstore\n        /* \"contracts/coffe.sol\":30215:30305  function removeAllFee() private {... */\n      jump\n        /* \"contracts/coffe.sol\":34035:34049  removeAllFee() */\n    tag_515:\n        /* \"contracts/coffe.sol\":34078:34091  uniswapV2Pair */\n      immutable(\"0x0257654a82461e8a1d15ee210f9c68af767d2a4dc70df683f0ecf9e700bd8bac\")\n      sub(shl(0xa0, 0x01), 0x01)\n        /* \"contracts/coffe.sol\":34068:34091  sender == uniswapV2Pair */\n      and\n        /* \"contracts/coffe.sol\":34068:34074  sender */\n      dup5\n      sub(shl(0xa0, 0x01), 0x01)\n        /* \"contracts/coffe.sol\":34068:34091  sender == uniswapV2Pair */\n      and\n      eq\n        /* \"contracts/coffe.sol\":34064:34136  if (sender == uniswapV2Pair) {... */\n      iszero\n      tag_518\n      jumpi\n        /* \"contracts/coffe.sol\":34112:34120  setBuy() */\n      tag_518\n        /* \"contracts/coffe.sol\":30360:30366  buyFee */\n      0x12\n        /* \"contracts/coffe.sol\":30360:30370  buyFee.tax */\n      sload\n        /* \"contracts/coffe.sol\":30350:30357  _taxFee */\n      0x14\n        /* \"contracts/coffe.sol\":30350:30370  _taxFee = buyFee.tax */\n      dup1\n      sload\n        /* \"contracts/coffe.sol\":30397:30413  buyFee.marketing */\n      0x010000\n      dup1\n      dup5\n      div\n        /* \"contracts/coffe.sol\":30360:30370  buyFee.tax */\n      0xffff\n        /* \"contracts/coffe.sol\":30397:30413  buyFee.marketing */\n      swap1\n      dup2\n      and\n        /* \"contracts/coffe.sol\":30381:30413  _marketingFee = buyFee.marketing */\n      swap1\n      swap2\n      mul\n      not(0xffffffff)\n      swap1\n      swap3\n      and\n        /* \"contracts/coffe.sol\":30360:30370  buyFee.tax */\n      swap4\n      and\n        /* \"contracts/coffe.sol\":30381:30413  _marketingFee = buyFee.marketing */\n      swap3\n      swap1\n      swap3\n      or\n      swap2\n      swap1\n      swap2\n      or\n      swap1\n      sstore\n        /* \"contracts/coffe.sol\":30313:30421  function setBuy() private {... */\n      jump\n        /* \"contracts/coffe.sol\":34112:34120  setBuy() */\n    tag_518:\n        /* \"contracts/coffe.sol\":34167:34180  uniswapV2Pair */\n      immutable(\"0x0257654a82461e8a1d15ee210f9c68af767d2a4dc70df683f0ecf9e700bd8bac\")\n      sub(shl(0xa0, 0x01), 0x01)\n        /* \"contracts/coffe.sol\":34154:34180  recipient == uniswapV2Pair */\n      and\n        /* \"contracts/coffe.sol\":34154:34163  recipient */\n      dup4\n      sub(shl(0xa0, 0x01), 0x01)\n        /* \"contracts/coffe.sol\":34154:34180  recipient == uniswapV2Pair */\n      and\n      eq\n        /* \"contracts/coffe.sol\":34150:34226  if (recipient == uniswapV2Pair) {... */\n      iszero\n      tag_521\n      jumpi\n        /* \"contracts/coffe.sol\":34201:34210  setSell() */\n      tag_521\n        /* \"contracts/coffe.sol\":30477:30484  sellFee */\n      0x13\n        /* \"contracts/coffe.sol\":30477:30488  sellFee.tax */\n      sload\n        /* \"contracts/coffe.sol\":30467:30474  _taxFee */\n      0x14\n        /* \"contracts/coffe.sol\":30467:30488  _taxFee = sellFee.tax */\n      dup1\n      sload\n        /* \"contracts/coffe.sol\":30515:30532  sellFee.marketing */\n      0x010000\n      dup1\n      dup5\n      div\n        /* \"contracts/coffe.sol\":30477:30488  sellFee.tax */\n      0xffff\n        /* \"contracts/coffe.sol\":30515:30532  sellFee.marketing */\n      swap1\n      dup2\n      and\n        /* \"contracts/coffe.sol\":30499:30532  _marketingFee = sellFee.marketing */\n      swap1\n      swap2\n      mul\n      not(0xffffffff)\n      swap1\n      swap3\n      and\n        /* \"contracts/coffe.sol\":30477:30488  sellFee.tax */\n      swap4\n      and\n        /* \"contracts/coffe.sol\":30499:30532  _marketingFee = sellFee.marketing */\n      swap3\n      swap1\n      swap3\n      or\n      swap2\n      swap1\n      swap2\n      or\n      swap1\n      sstore\n        /* \"contracts/coffe.sol\":30429:30540  function setSell() private {... */\n      jump\n        /* \"contracts/coffe.sol\":34201:34210  setSell() */\n    tag_521:\n      sub(shl(0xa0, 0x01), 0x01)\n        /* \"contracts/coffe.sol\":34253:34272  _isExcluded[sender] */\n      dup5\n      and\n      0x00\n      swap1\n      dup2\n      mstore\n        /* \"contracts/coffe.sol\":34253:34264  _isExcluded */\n      0x06\n        /* \"contracts/coffe.sol\":34253:34272  _isExcluded[sender] */\n      0x20\n      mstore\n      0x40\n      swap1\n      keccak256\n      sload\n      0xff\n      and\n        /* \"contracts/coffe.sol\":34253:34299  _isExcluded[sender] && !_isExcluded[recipient] */\n      dup1\n      iszero\n      tag_523\n      jumpi\n      pop\n      sub(shl(0xa0, 0x01), 0x01)\n        /* \"contracts/coffe.sol\":34277:34299  _isExcluded[recipient] */\n      dup4\n      and\n      0x00\n      swap1\n      dup2\n      mstore\n        /* \"contracts/coffe.sol\":34277:34288  _isExcluded */\n      0x06\n        /* \"contracts/coffe.sol\":34277:34299  _isExcluded[recipient] */\n      0x20\n      mstore\n      0x40\n      swap1\n      keccak256\n      sload\n      0xff\n      and\n        /* \"contracts/coffe.sol\":34276:34299  !_isExcluded[recipient] */\n      iszero\n        /* \"contracts/coffe.sol\":34253:34299  _isExcluded[sender] && !_isExcluded[recipient] */\n    tag_523:\n        /* \"contracts/coffe.sol\":34249:34846  if (_isExcluded[sender] && !_isExcluded[recipient]) {... */\n      iszero\n      tag_524\n      jumpi\n        /* \"contracts/coffe.sol\":34316:34364  _transferFromExcluded(sender, recipient, amount) */\n      tag_525\n        /* \"contracts/coffe.sol\":34338:34344  sender */\n      dup5\n        /* \"contracts/coffe.sol\":34346:34355  recipient */\n      dup5\n        /* \"contracts/coffe.sol\":34357:34363  amount */\n      dup5\n        /* \"contracts/coffe.sol\":34316:34337  _transferFromExcluded */\n      tag_526\n        /* \"contracts/coffe.sol\":34316:34364  _transferFromExcluded(sender, recipient, amount) */\n      jump\t// in\n    tag_525:\n        /* \"contracts/coffe.sol\":34249:34846  if (_isExcluded[sender] && !_isExcluded[recipient]) {... */\n      jump(tag_543)\n    tag_524:\n      sub(shl(0xa0, 0x01), 0x01)\n        /* \"contracts/coffe.sol\":34387:34406  _isExcluded[sender] */\n      dup5\n      and\n      0x00\n      swap1\n      dup2\n      mstore\n        /* \"contracts/coffe.sol\":34387:34398  _isExcluded */\n      0x06\n        /* \"contracts/coffe.sol\":34387:34406  _isExcluded[sender] */\n      0x20\n      mstore\n      0x40\n      swap1\n      keccak256\n      sload\n      0xff\n      and\n        /* \"contracts/coffe.sol\":34386:34406  !_isExcluded[sender] */\n      iszero\n        /* \"contracts/coffe.sol\":34386:34432  !_isExcluded[sender] && _isExcluded[recipient] */\n      dup1\n      iszero\n      tag_528\n      jumpi\n      pop\n      sub(shl(0xa0, 0x01), 0x01)\n        /* \"contracts/coffe.sol\":34410:34432  _isExcluded[recipient] */\n      dup4\n      and\n      0x00\n      swap1\n      dup2\n      mstore\n        /* \"contracts/coffe.sol\":34410:34421  _isExcluded */\n      0x06\n        /* \"contracts/coffe.sol\":34410:34432  _isExcluded[recipient] */\n      0x20\n      mstore\n      0x40\n      swap1\n      keccak256\n      sload\n      0xff\n      and\n        /* \"contracts/coffe.sol\":34386:34432  !_isExcluded[sender] && _isExcluded[recipient] */\n    tag_528:\n        /* \"contracts/coffe.sol\":34382:34846  if (!_isExcluded[sender] && _isExcluded[recipient]) {... */\n      iszero\n      tag_529\n      jumpi\n        /* \"contracts/coffe.sol\":34449:34495  _transferToExcluded(sender, recipient, amount) */\n      tag_525\n        /* \"contracts/coffe.sol\":34469:34475  sender */\n      dup5\n        /* \"contracts/coffe.sol\":34477:34486  recipient */\n      dup5\n        /* \"contracts/coffe.sol\":34488:34494  amount */\n      dup5\n        /* \"contracts/coffe.sol\":34449:34468  _transferToExcluded */\n      tag_531\n        /* \"contracts/coffe.sol\":34449:34495  _transferToExcluded(sender, recipient, amount) */\n      jump\t// in\n        /* \"contracts/coffe.sol\":34382:34846  if (!_isExcluded[sender] && _isExcluded[recipient]) {... */\n    tag_529:\n      sub(shl(0xa0, 0x01), 0x01)\n        /* \"contracts/coffe.sol\":34518:34537  _isExcluded[sender] */\n      dup5\n      and\n      0x00\n      swap1\n      dup2\n      mstore\n        /* \"contracts/coffe.sol\":34518:34529  _isExcluded */\n      0x06\n        /* \"contracts/coffe.sol\":34518:34537  _isExcluded[sender] */\n      0x20\n      mstore\n      0x40\n      swap1\n      keccak256\n      sload\n      0xff\n      and\n        /* \"contracts/coffe.sol\":34517:34537  !_isExcluded[sender] */\n      iszero\n        /* \"contracts/coffe.sol\":34517:34564  !_isExcluded[sender] && !_isExcluded[recipient] */\n      dup1\n      iszero\n      tag_533\n      jumpi\n      pop\n      sub(shl(0xa0, 0x01), 0x01)\n        /* \"contracts/coffe.sol\":34542:34564  _isExcluded[recipient] */\n      dup4\n      and\n      0x00\n      swap1\n      dup2\n      mstore\n        /* \"contracts/coffe.sol\":34542:34553  _isExcluded */\n      0x06\n        /* \"contracts/coffe.sol\":34542:34564  _isExcluded[recipient] */\n      0x20\n      mstore\n      0x40\n      swap1\n      keccak256\n      sload\n      0xff\n      and\n        /* \"contracts/coffe.sol\":34541:34564  !_isExcluded[recipient] */\n      iszero\n        /* \"contracts/coffe.sol\":34517:34564  !_isExcluded[sender] && !_isExcluded[recipient] */\n    tag_533:\n        /* \"contracts/coffe.sol\":34513:34846  if (!_isExcluded[sender] && !_isExcluded[recipient]) {... */\n      iszero\n      tag_534\n      jumpi\n        /* \"contracts/coffe.sol\":34581:34625  _transferStandard(sender, recipient, amount) */\n      tag_525\n        /* \"contracts/coffe.sol\":34599:34605  sender */\n      dup5\n        /* \"contracts/coffe.sol\":34607:34616  recipient */\n      dup5\n        /* \"contracts/coffe.sol\":34618:34624  amount */\n      dup5\n        /* \"contracts/coffe.sol\":34581:34598  _transferStandard */\n      tag_536\n        /* \"contracts/coffe.sol\":34581:34625  _transferStandard(sender, recipient, amount) */\n      jump\t// in\n        /* \"contracts/coffe.sol\":34513:34846  if (!_isExcluded[sender] && !_isExcluded[recipient]) {... */\n    tag_534:\n      sub(shl(0xa0, 0x01), 0x01)\n        /* \"contracts/coffe.sol\":34647:34666  _isExcluded[sender] */\n      dup5\n      and\n      0x00\n      swap1\n      dup2\n      mstore\n        /* \"contracts/coffe.sol\":34647:34658  _isExcluded */\n      0x06\n        /* \"contracts/coffe.sol\":34647:34666  _isExcluded[sender] */\n      0x20\n      mstore\n      0x40\n      swap1\n      keccak256\n      sload\n      0xff\n      and\n        /* \"contracts/coffe.sol\":34647:34692  _isExcluded[sender] && _isExcluded[recipient] */\n      dup1\n      iszero\n      tag_538\n      jumpi\n      pop\n      sub(shl(0xa0, 0x01), 0x01)\n        /* \"contracts/coffe.sol\":34670:34692  _isExcluded[recipient] */\n      dup4\n      and\n      0x00\n      swap1\n      dup2\n      mstore\n        /* \"contracts/coffe.sol\":34670:34681  _isExcluded */\n      0x06\n        /* \"contracts/coffe.sol\":34670:34692  _isExcluded[recipient] */\n      0x20\n      mstore\n      0x40\n      swap1\n      keccak256\n      sload\n      0xff\n      and\n        /* \"contracts/coffe.sol\":34647:34692  _isExcluded[sender] && _isExcluded[recipient] */\n    tag_538:\n        /* \"contracts/coffe.sol\":34643:34846  if (_isExcluded[sender] && _isExcluded[recipient]) {... */\n      iszero\n      tag_539\n      jumpi\n        /* \"contracts/coffe.sol\":34709:34757  _transferBothExcluded(sender, recipient, amount) */\n      tag_525\n        /* \"contracts/coffe.sol\":34731:34737  sender */\n      dup5\n        /* \"contracts/coffe.sol\":34739:34748  recipient */\n      dup5\n        /* \"contracts/coffe.sol\":34750:34756  amount */\n      dup5\n        /* \"contracts/coffe.sol\":34709:34730  _transferBothExcluded */\n      tag_541\n        /* \"contracts/coffe.sol\":34709:34757  _transferBothExcluded(sender, recipient, amount) */\n      jump\t// in\n        /* \"contracts/coffe.sol\":34643:34846  if (_isExcluded[sender] && _isExcluded[recipient]) {... */\n    tag_539:\n        /* \"contracts/coffe.sol\":34790:34834  _transferStandard(sender, recipient, amount) */\n      tag_543\n        /* \"contracts/coffe.sol\":34808:34814  sender */\n      dup5\n        /* \"contracts/coffe.sol\":34816:34825  recipient */\n      dup5\n        /* \"contracts/coffe.sol\":34827:34833  amount */\n      dup5\n        /* \"contracts/coffe.sol\":34790:34807  _transferStandard */\n      tag_536\n        /* \"contracts/coffe.sol\":34790:34834  _transferStandard(sender, recipient, amount) */\n      jump\t// in\n    tag_543:\n        /* \"contracts/coffe.sol\":34856:34870  removeAllFee() */\n      tag_352\n        /* \"contracts/coffe.sol\":30258:30265  _taxFee */\n      0x14\n        /* \"contracts/coffe.sol\":30258:30269  _taxFee = 0 */\n      dup1\n      sload\n      not(0xffffffff)\n        /* \"contracts/coffe.sol\":30280:30297  _marketingFee = 0 */\n      and\n      swap1\n      sstore\n        /* \"contracts/coffe.sol\":30215:30305  function removeAllFee() private {... */\n      jump\n        /* \"contracts/coffe.sol\":28936:29541  function _getCurrentSupply() private view returns (uint256, uint256) {... */\n    tag_479:\n        /* \"contracts/coffe.sol\":29034:29041  _rTotal */\n      sload(0x0c)\n        /* \"contracts/coffe.sol\":29070:29077  _tTotal */\n      sload(0x0b)\n        /* \"contracts/coffe.sol\":28987:28994  uint256 */\n      0x00\n      swap2\n      dup3\n      swap2\n      dup3\n        /* \"contracts/coffe.sol\":29088:29426  for (uint256 i = 0; i < _excluded.length; i++) {... */\n    tag_546:\n        /* \"contracts/coffe.sol\":29112:29121  _excluded */\n      0x07\n        /* \"contracts/coffe.sol\":29112:29128  _excluded.length */\n      sload\n        /* \"contracts/coffe.sol\":29108:29128  i < _excluded.length */\n      dup2\n      lt\n        /* \"contracts/coffe.sol\":29088:29426  for (uint256 i = 0; i < _excluded.length; i++) {... */\n      iszero\n      tag_547\n      jumpi\n        /* \"contracts/coffe.sol\":29196:29203  rSupply */\n      dup3\n        /* \"contracts/coffe.sol\":29172:29179  _rOwned */\n      0x02\n        /* \"contracts/coffe.sol\":29172:29193  _rOwned[_excluded[i]] */\n      0x00\n        /* \"contracts/coffe.sol\":29180:29189  _excluded */\n      0x07\n        /* \"contracts/coffe.sol\":29190:29191  i */\n      dup5\n        /* \"contracts/coffe.sol\":29180:29192  _excluded[i] */\n      dup2\n      sload\n      dup2\n      lt\n      tag_550\n      jumpi\n      tag_550\n      tag_261\n      jump\t// in\n    tag_550:\n      0x00\n      swap2\n      dup3\n      mstore\n      0x20\n      dup1\n      dup4\n      keccak256\n      swap1\n      swap2\n      add\n      sload\n      sub(shl(0xa0, 0x01), 0x01)\n      and\n        /* \"contracts/coffe.sol\":29172:29193  _rOwned[_excluded[i]] */\n      dup4\n      mstore\n      dup3\n      add\n      swap3\n      swap1\n      swap3\n      mstore\n      0x40\n      add\n      swap1\n      keccak256\n      sload\n        /* \"contracts/coffe.sol\":29172:29203  _rOwned[_excluded[i]] > rSupply */\n      gt\n      dup1\n        /* \"contracts/coffe.sol\":29172:29255  _rOwned[_excluded[i]] > rSupply ||... */\n      tag_552\n      jumpi\n      pop\n        /* \"contracts/coffe.sol\":29248:29255  tSupply */\n      dup2\n        /* \"contracts/coffe.sol\":29224:29231  _tOwned */\n      0x03\n        /* \"contracts/coffe.sol\":29224:29245  _tOwned[_excluded[i]] */\n      0x00\n        /* \"contracts/coffe.sol\":29232:29241  _excluded */\n      0x07\n        /* \"contracts/coffe.sol\":29242:29243  i */\n      dup5\n        /* \"contracts/coffe.sol\":29232:29244  _excluded[i] */\n      dup2\n      sload\n      dup2\n      lt\n      tag_554\n      jumpi\n      tag_554\n      tag_261\n      jump\t// in\n    tag_554:\n      0x00\n      swap2\n      dup3\n      mstore\n      0x20\n      dup1\n      dup4\n      keccak256\n      swap1\n      swap2\n      add\n      sload\n      sub(shl(0xa0, 0x01), 0x01)\n      and\n        /* \"contracts/coffe.sol\":29224:29245  _tOwned[_excluded[i]] */\n      dup4\n      mstore\n      dup3\n      add\n      swap3\n      swap1\n      swap3\n      mstore\n      0x40\n      add\n      swap1\n      keccak256\n      sload\n        /* \"contracts/coffe.sol\":29224:29255  _tOwned[_excluded[i]] > tSupply */\n      gt\n        /* \"contracts/coffe.sol\":29172:29255  _rOwned[_excluded[i]] > rSupply ||... */\n    tag_552:\n        /* \"contracts/coffe.sol\":29150:29296  if (... */\n      iszero\n      tag_556\n      jumpi\n        /* \"contracts/coffe.sol\":29279:29286  _rTotal */\n      sload(0x0c)\n        /* \"contracts/coffe.sol\":29288:29295  _tTotal */\n      sload(0x0b)\n        /* \"contracts/coffe.sol\":29271:29296  return (_rTotal, _tTotal) */\n      swap5\n      pop\n      swap5\n      pop\n      pop\n      pop\n      pop\n        /* \"contracts/coffe.sol\":28936:29541  function _getCurrentSupply() private view returns (uint256, uint256) {... */\n      swap1\n      swap2\n      jump\t// out\n        /* \"contracts/coffe.sol\":29150:29296  if (... */\n    tag_556:\n        /* \"contracts/coffe.sol\":29321:29355  rSupply.sub(_rOwned[_excluded[i]]) */\n      tag_557\n        /* \"contracts/coffe.sol\":29333:29340  _rOwned */\n      0x02\n        /* \"contracts/coffe.sol\":29333:29354  _rOwned[_excluded[i]] */\n      0x00\n        /* \"contracts/coffe.sol\":29341:29350  _excluded */\n      0x07\n        /* \"contracts/coffe.sol\":29351:29352  i */\n      dup5\n        /* \"contracts/coffe.sol\":29341:29353  _excluded[i] */\n      dup2\n      sload\n      dup2\n      lt\n      tag_559\n      jumpi\n      tag_559\n      tag_261\n      jump\t// in\n    tag_559:\n      0x00\n      swap2\n      dup3\n      mstore\n      0x20\n      dup1\n      dup4\n      keccak256\n      swap1\n      swap2\n      add\n      sload\n      sub(shl(0xa0, 0x01), 0x01)\n      and\n        /* \"contracts/coffe.sol\":29333:29354  _rOwned[_excluded[i]] */\n      dup4\n      mstore\n      dup3\n      add\n      swap3\n      swap1\n      swap3\n      mstore\n      0x40\n      add\n      swap1\n      keccak256\n      sload\n        /* \"contracts/coffe.sol\":29321:29328  rSupply */\n      dup5\n      swap1\n        /* \"contracts/coffe.sol\":29321:29332  rSupply.sub */\n      tag_291\n        /* \"contracts/coffe.sol\":29321:29355  rSupply.sub(_rOwned[_excluded[i]]) */\n      jump\t// in\n    tag_557:\n        /* \"contracts/coffe.sol\":29311:29355  rSupply = rSupply.sub(_rOwned[_excluded[i]]) */\n      swap3\n      pop\n        /* \"contracts/coffe.sol\":29380:29414  tSupply.sub(_tOwned[_excluded[i]]) */\n      tag_561\n        /* \"contracts/coffe.sol\":29392:29399  _tOwned */\n      0x03\n        /* \"contracts/coffe.sol\":29392:29413  _tOwned[_excluded[i]] */\n      0x00\n        /* \"contracts/coffe.sol\":29400:29409  _excluded */\n      0x07\n        /* \"contracts/coffe.sol\":29410:29411  i */\n      dup5\n        /* \"contracts/coffe.sol\":29400:29412  _excluded[i] */\n      dup2\n      sload\n      dup2\n      lt\n      tag_563\n      jumpi\n      tag_563\n      tag_261\n      jump\t// in\n    tag_563:\n      0x00\n      swap2\n      dup3\n      mstore\n      0x20\n      dup1\n      dup4\n      keccak256\n      swap1\n      swap2\n      add\n      sload\n      sub(shl(0xa0, 0x01), 0x01)\n      and\n        /* \"contracts/coffe.sol\":29392:29413  _tOwned[_excluded[i]] */\n      dup4\n      mstore\n      dup3\n      add\n      swap3\n      swap1\n      swap3\n      mstore\n      0x40\n      add\n      swap1\n      keccak256\n      sload\n        /* \"contracts/coffe.sol\":29380:29387  tSupply */\n      dup4\n      swap1\n        /* \"contracts/coffe.sol\":29380:29391  tSupply.sub */\n      tag_291\n        /* \"contracts/coffe.sol\":29380:29414  tSupply.sub(_tOwned[_excluded[i]]) */\n      jump\t// in\n    tag_561:\n        /* \"contracts/coffe.sol\":29370:29414  tSupply = tSupply.sub(_tOwned[_excluded[i]]) */\n      swap2\n      pop\n        /* \"contracts/coffe.sol\":29130:29133  i++ */\n      dup1\n      tag_565\n      dup2\n      tag_277\n      jump\t// in\n    tag_565:\n      swap2\n      pop\n      pop\n        /* \"contracts/coffe.sol\":29088:29426  for (uint256 i = 0; i < _excluded.length; i++) {... */\n      jump(tag_546)\n    tag_547:\n      pop\n        /* \"contracts/coffe.sol\":29462:29469  _tTotal */\n      sload(0x0b)\n        /* \"contracts/coffe.sol\":29450:29457  _rTotal */\n      sload(0x0c)\n        /* \"contracts/coffe.sol\":29450:29470  _rTotal.div(_tTotal) */\n      tag_566\n      swap2\n        /* \"contracts/coffe.sol\":29450:29461  _rTotal.div */\n      tag_246\n        /* \"contracts/coffe.sol\":29450:29470  _rTotal.div(_tTotal) */\n      jump\t// in\n    tag_566:\n        /* \"contracts/coffe.sol\":29440:29447  rSupply */\n      dup3\n        /* \"contracts/coffe.sol\":29440:29470  rSupply < _rTotal.div(_tTotal) */\n      lt\n        /* \"contracts/coffe.sol\":29436:29497  if (rSupply < _rTotal.div(_tTotal)) return (_rTotal, _tTotal) */\n      iszero\n      tag_567\n      jumpi\n        /* \"contracts/coffe.sol\":29480:29487  _rTotal */\n      sload(0x0c)\n        /* \"contracts/coffe.sol\":29489:29496  _tTotal */\n      sload(0x0b)\n        /* \"contracts/coffe.sol\":29472:29497  return (_rTotal, _tTotal) */\n      swap4\n      pop\n      swap4\n      pop\n      pop\n      pop\n        /* \"contracts/coffe.sol\":28936:29541  function _getCurrentSupply() private view returns (uint256, uint256) {... */\n      swap1\n      swap2\n      jump\t// out\n        /* \"contracts/coffe.sol\":29436:29497  if (rSupply < _rTotal.div(_tTotal)) return (_rTotal, _tTotal) */\n    tag_567:\n        /* \"contracts/coffe.sol\":29516:29523  rSupply */\n      swap1\n      swap4\n        /* \"contracts/coffe.sol\":29525:29532  tSupply */\n      swap1\n      swap3\n      pop\n        /* \"contracts/coffe.sol\":28936:29541  function _getCurrentSupply() private view returns (uint256, uint256) {... */\n      swap1\n      pop\n      jump\t// out\n        /* \"contracts/coffe.sol\":3620:3855  function div(... */\n    tag_483:\n        /* \"contracts/coffe.sol\":3740:3747  uint256 */\n      0x00\n        /* \"contracts/coffe.sol\":3775:3787  errorMessage */\n      dup2\n        /* \"contracts/coffe.sol\":3768:3773  b > 0 */\n      dup4\n        /* \"contracts/coffe.sol\":3760:3788  require(b > 0, errorMessage) */\n      tag_569\n      jumpi\n      mload(0x40)\n      shl(0xe5, 0x461bcd)\n      dup2\n      mstore\n      0x04\n      add\n      tag_214\n      swap2\n      swap1\n      tag_56\n      jump\t// in\n    tag_569:\n      pop\n        /* \"contracts/coffe.sol\":3799:3808  uint256 c */\n      0x00\n        /* \"contracts/coffe.sol\":3811:3816  a / b */\n      tag_476\n        /* \"contracts/coffe.sol\":3815:3816  b */\n      dup5\n        /* \"contracts/coffe.sol\":3811:3812  a */\n      dup7\n        /* \"contracts/coffe.sol\":3811:3816  a / b */\n      tag_509\n      jump\t// in\n        /* \"contracts/coffe.sol\":29893:30023  function calculateTaxFee(uint256 _amount) private view returns (uint256) {... */\n    tag_493:\n        /* \"contracts/coffe.sol\":29996:30003  _taxFee */\n      sload(0x14)\n        /* \"contracts/coffe.sol\":29957:29964  uint256 */\n      0x00\n      swap1\n        /* \"contracts/coffe.sol\":29984:30015  _amount.mul(_taxFee).div(10**2) */\n      tag_206\n      swap1\n        /* \"contracts/coffe.sol\":30009:30014  10**2 */\n      0x64\n      swap1\n        /* \"contracts/coffe.sol\":29984:30004  _amount.mul(_taxFee) */\n      tag_371\n      swap1\n        /* \"contracts/coffe.sol\":29984:29991  _amount */\n      dup6\n      swap1\n        /* \"contracts/coffe.sol\":29996:30003  _taxFee */\n      0xffff\n      and\n        /* \"contracts/coffe.sol\":29984:29995  _amount.mul */\n      tag_372\n        /* \"contracts/coffe.sol\":29984:30004  _amount.mul(_taxFee) */\n      jump\t// in\n        /* \"contracts/coffe.sol\":30033:30207  function calculateMarketingFee(uint256 _amount)... */\n    tag_495:\n        /* \"contracts/coffe.sol\":30174:30187  _marketingFee */\n      sload(0x14)\n        /* \"contracts/coffe.sol\":30130:30137  uint256 */\n      0x00\n      swap1\n        /* \"contracts/coffe.sol\":30162:30199  _amount.mul(_marketingFee).div(10**2) */\n      tag_206\n      swap1\n        /* \"contracts/coffe.sol\":30193:30198  10**2 */\n      0x64\n      swap1\n        /* \"contracts/coffe.sol\":30162:30188  _amount.mul(_marketingFee) */\n      tag_371\n      swap1\n        /* \"contracts/coffe.sol\":30162:30169  _amount */\n      dup6\n      swap1\n        /* \"contracts/coffe.sol\":30174:30187  _marketingFee */\n      0x010000\n      swap1\n      div\n      0xffff\n      and\n        /* \"contracts/coffe.sol\":30162:30173  _amount.mul */\n      tag_372\n        /* \"contracts/coffe.sol\":30162:30188  _amount.mul(_marketingFee) */\n      jump\t// in\n        /* \"contracts/coffe.sol\":36409:37186  function _transferFromExcluded(... */\n    tag_526:\n        /* \"contracts/coffe.sol\":36560:36583  uint256 tTransferAmount */\n      0x00\n        /* \"contracts/coffe.sol\":36598:36610  uint256 tFee */\n      dup1\n        /* \"contracts/coffe.sol\":36625:36643  uint256 tMarketing */\n      0x00\n        /* \"contracts/coffe.sol\":36657:36677  _getTValues(tAmount) */\n      tag_582\n        /* \"contracts/coffe.sol\":36669:36676  tAmount */\n      dup5\n        /* \"contracts/coffe.sol\":36657:36668  _getTValues */\n      tag_304\n        /* \"contracts/coffe.sol\":36657:36677  _getTValues(tAmount) */\n      jump\t// in\n    tag_582:\n        /* \"contracts/coffe.sol\":36545:36677  (... */\n      swap3\n      pop\n      swap3\n      pop\n      swap3\n      pop\n        /* \"contracts/coffe.sol\":36689:36704  uint256 rAmount */\n      0x00\n        /* \"contracts/coffe.sol\":36706:36729  uint256 rTransferAmount */\n      dup1\n        /* \"contracts/coffe.sol\":36731:36743  uint256 rFee */\n      0x00\n        /* \"contracts/coffe.sol\":36747:36860  _getRValues(... */\n      tag_583\n        /* \"contracts/coffe.sol\":36773:36780  tAmount */\n      dup8\n        /* \"contracts/coffe.sol\":36795:36799  tFee */\n      dup7\n        /* \"contracts/coffe.sol\":36814:36824  tMarketing */\n      dup7\n        /* \"contracts/coffe.sol\":36839:36849  _getRate() */\n      tag_306\n        /* \"contracts/coffe.sol\":36839:36847  _getRate */\n      tag_244\n        /* \"contracts/coffe.sol\":36839:36849  _getRate() */\n      jump\t// in\n        /* \"contracts/coffe.sol\":36747:36860  _getRValues(... */\n    tag_583:\n      sub(shl(0xa0, 0x01), 0x01)\n        /* \"contracts/coffe.sol\":36891:36906  _tOwned[sender] */\n      dup13\n      and\n      0x00\n      swap1\n      dup2\n      mstore\n        /* \"contracts/coffe.sol\":36891:36898  _tOwned */\n      0x03\n        /* \"contracts/coffe.sol\":36891:36906  _tOwned[sender] */\n      0x20\n      mstore\n      0x40\n      swap1\n      keccak256\n      sload\n        /* \"contracts/coffe.sol\":36688:36860  (uint256 rAmount, uint256 rTransferAmount, uint256 rFee) = _getRValues(... */\n      swap3\n      swap6\n      pop\n      swap1\n      swap4\n      pop\n      swap2\n      pop\n        /* \"contracts/coffe.sol\":36891:36919  _tOwned[sender].sub(tAmount) */\n      tag_585\n      swap1\n        /* \"contracts/coffe.sol\":36911:36918  tAmount */\n      dup9\n        /* \"contracts/coffe.sol\":36891:36910  _tOwned[sender].sub */\n      tag_291\n        /* \"contracts/coffe.sol\":36891:36919  _tOwned[sender].sub(tAmount) */\n      jump\t// in\n    tag_585:\n      sub(shl(0xa0, 0x01), 0x01)\n        /* \"contracts/coffe.sol\":36873:36888  _tOwned[sender] */\n      dup11\n      and\n      0x00\n      swap1\n      dup2\n      mstore\n        /* \"contracts/coffe.sol\":36873:36880  _tOwned */\n      0x03\n        /* \"contracts/coffe.sol\":36873:36888  _tOwned[sender] */\n      0x20\n      swap1\n      dup2\n      mstore\n      0x40\n      dup1\n      dup4\n      keccak256\n        /* \"contracts/coffe.sol\":36873:36919  _tOwned[sender] = _tOwned[sender].sub(tAmount) */\n      swap4\n      swap1\n      swap4\n      sstore\n        /* \"contracts/coffe.sol\":36948:36955  _rOwned */\n      0x02\n        /* \"contracts/coffe.sol\":36948:36963  _rOwned[sender] */\n      swap1\n      mstore\n      keccak256\n      sload\n        /* \"contracts/coffe.sol\":36948:36976  _rOwned[sender].sub(rAmount) */\n      tag_586\n      swap1\n        /* \"contracts/coffe.sol\":36968:36975  rAmount */\n      dup5\n        /* \"contracts/coffe.sol\":36948:36967  _rOwned[sender].sub */\n      tag_291\n        /* \"contracts/coffe.sol\":36948:36976  _rOwned[sender].sub(rAmount) */\n      jump\t// in\n    tag_586:\n      sub(shl(0xa0, 0x01), 0x01)\n        /* \"contracts/coffe.sol\":36930:36945  _rOwned[sender] */\n      dup1\n      dup12\n      and\n      0x00\n      swap1\n      dup2\n      mstore\n        /* \"contracts/coffe.sol\":36930:36937  _rOwned */\n      0x02\n        /* \"contracts/coffe.sol\":36930:36945  _rOwned[sender] */\n      0x20\n      mstore\n      0x40\n      dup1\n      dup3\n      keccak256\n        /* \"contracts/coffe.sol\":36930:36976  _rOwned[sender] = _rOwned[sender].sub(rAmount) */\n      swap4\n      swap1\n      swap4\n      sstore\n        /* \"contracts/coffe.sol\":37008:37026  _rOwned[recipient] */\n      swap1\n      dup11\n      and\n      dup2\n      mstore\n      keccak256\n      sload\n        /* \"contracts/coffe.sol\":37008:37047  _rOwned[recipient].add(rTransferAmount) */\n      tag_587\n      swap1\n        /* \"contracts/coffe.sol\":37031:37046  rTransferAmount */\n      dup4\n        /* \"contracts/coffe.sol\":37008:37030  _rOwned[recipient].add */\n      tag_283\n        /* \"contracts/coffe.sol\":37008:37047  _rOwned[recipient].add(rTransferAmount) */\n      jump\t// in\n    tag_587:\n      sub(shl(0xa0, 0x01), 0x01)\n        /* \"contracts/coffe.sol\":36987:37005  _rOwned[recipient] */\n      dup10\n      and\n      0x00\n      swap1\n      dup2\n      mstore\n        /* \"contracts/coffe.sol\":36987:36994  _rOwned */\n      0x02\n        /* \"contracts/coffe.sol\":36987:37005  _rOwned[recipient] */\n      0x20\n      mstore\n      0x40\n      swap1\n      keccak256\n        /* \"contracts/coffe.sol\":36987:37047  _rOwned[recipient] = _rOwned[recipient].add(rTransferAmount) */\n      sstore\n        /* \"contracts/coffe.sol\":37058:37084  _takeMarketing(tMarketing) */\n      tag_588\n        /* \"contracts/coffe.sol\":37073:37083  tMarketing */\n      dup5\n        /* \"contracts/coffe.sol\":37058:37072  _takeMarketing */\n      tag_589\n        /* \"contracts/coffe.sol\":37058:37084  _takeMarketing(tMarketing) */\n      jump\t// in\n    tag_588:\n        /* \"contracts/coffe.sol\":37095:37118  _reflectFee(rFee, tFee) */\n      tag_590\n        /* \"contracts/coffe.sol\":37107:37111  rFee */\n      dup2\n        /* \"contracts/coffe.sol\":37113:37117  tFee */\n      dup7\n        /* \"contracts/coffe.sol\":37095:37106  _reflectFee */\n      tag_591\n        /* \"contracts/coffe.sol\":37095:37118  _reflectFee(rFee, tFee) */\n      jump\t// in\n    tag_590:\n        /* \"contracts/coffe.sol\":37151:37160  recipient */\n      dup8\n      sub(shl(0xa0, 0x01), 0x01)\n        /* \"contracts/coffe.sol\":37134:37178  Transfer(sender, recipient, tTransferAmount) */\n      and\n        /* \"contracts/coffe.sol\":37143:37149  sender */\n      dup10\n      sub(shl(0xa0, 0x01), 0x01)\n        /* \"contracts/coffe.sol\":37134:37178  Transfer(sender, recipient, tTransferAmount) */\n      and\n      0xddf252ad1be2c89b69c2b068fc378daa952ba7f163c4a11628f55a4df523b3ef\n        /* \"contracts/coffe.sol\":37162:37177  tTransferAmount */\n      dup9\n        /* \"contracts/coffe.sol\":37134:37178  Transfer(sender, recipient, tTransferAmount) */\n      mload(0x40)\n      tag_592\n      swap2\n        /* \"#utility.yul\":1662:1687   */\n      dup2\n      mstore\n        /* \"#utility.yul\":1650:1652   */\n      0x20\n        /* \"#utility.yul\":1635:1653   */\n      add\n      swap1\n        /* \"#utility.yul\":1516:1693   */\n      jump\n        /* \"contracts/coffe.sol\":37134:37178  Transfer(sender, recipient, tTransferAmount) */\n    tag_592:\n      mload(0x40)\n      dup1\n      swap2\n      sub\n      swap1\n      log3\n        /* \"contracts/coffe.sol\":36534:37186  {... */\n      pop\n      pop\n      pop\n      pop\n      pop\n      pop\n        /* \"contracts/coffe.sol\":36409:37186  function _transferFromExcluded(... */\n      pop\n      pop\n      pop\n      jump\t// out\n        /* \"contracts/coffe.sol\":35612:36401  function _transferToExcluded(... */\n    tag_531:\n        /* \"contracts/coffe.sol\":35761:35784  uint256 tTransferAmount */\n      0x00\n        /* \"contracts/coffe.sol\":35799:35811  uint256 tFee */\n      dup1\n        /* \"contracts/coffe.sol\":35826:35844  uint256 tMarketing */\n      0x00\n        /* \"contracts/coffe.sol\":35858:35878  _getTValues(tAmount) */\n      tag_594\n        /* \"contracts/coffe.sol\":35870:35877  tAmount */\n      dup5\n        /* \"contracts/coffe.sol\":35858:35869  _getTValues */\n      tag_304\n        /* \"contracts/coffe.sol\":35858:35878  _getTValues(tAmount) */\n      jump\t// in\n    tag_594:\n        /* \"contracts/coffe.sol\":35746:35878  (... */\n      swap3\n      pop\n      swap3\n      pop\n      swap3\n      pop\n        /* \"contracts/coffe.sol\":35890:35905  uint256 rAmount */\n      0x00\n        /* \"contracts/coffe.sol\":35907:35930  uint256 rTransferAmount */\n      dup1\n        /* \"contracts/coffe.sol\":35932:35944  uint256 rFee */\n      0x00\n        /* \"contracts/coffe.sol\":35948:36061  _getRValues(... */\n      tag_595\n        /* \"contracts/coffe.sol\":35974:35981  tAmount */\n      dup8\n        /* \"contracts/coffe.sol\":35996:36000  tFee */\n      dup7\n        /* \"contracts/coffe.sol\":36015:36025  tMarketing */\n      dup7\n        /* \"contracts/coffe.sol\":36040:36050  _getRate() */\n      tag_306\n        /* \"contracts/coffe.sol\":36040:36048  _getRate */\n      tag_244\n        /* \"contracts/coffe.sol\":36040:36050  _getRate() */\n      jump\t// in\n        /* \"contracts/coffe.sol\":35948:36061  _getRValues(... */\n    tag_595:\n      sub(shl(0xa0, 0x01), 0x01)\n        /* \"contracts/coffe.sol\":36092:36107  _rOwned[sender] */\n      dup13\n      and\n      0x00\n      swap1\n      dup2\n      mstore\n        /* \"contracts/coffe.sol\":36092:36099  _rOwned */\n      0x02\n        /* \"contracts/coffe.sol\":36092:36107  _rOwned[sender] */\n      0x20\n      mstore\n      0x40\n      swap1\n      keccak256\n      sload\n        /* \"contracts/coffe.sol\":35889:36061  (uint256 rAmount, uint256 rTransferAmount, uint256 rFee) = _getRValues(... */\n      swap3\n      swap6\n      pop\n      swap1\n      swap4\n      pop\n      swap2\n      pop\n        /* \"contracts/coffe.sol\":36092:36120  _rOwned[sender].sub(rAmount) */\n      tag_597\n      swap1\n        /* \"contracts/coffe.sol\":35889:36061  (uint256 rAmount, uint256 rTransferAmount, uint256 rFee) = _getRValues(... */\n      dup5\n        /* \"contracts/coffe.sol\":36092:36111  _rOwned[sender].sub */\n      tag_291\n        /* \"contracts/coffe.sol\":36092:36120  _rOwned[sender].sub(rAmount) */\n      jump\t// in\n    tag_597:\n      sub(shl(0xa0, 0x01), 0x01)\n        /* \"contracts/coffe.sol\":36074:36089  _rOwned[sender] */\n      dup1\n      dup12\n      and\n      0x00\n      swap1\n      dup2\n      mstore\n        /* \"contracts/coffe.sol\":36074:36081  _rOwned */\n      0x02\n        /* \"contracts/coffe.sol\":36074:36089  _rOwned[sender] */\n      0x20\n      swap1\n      dup2\n      mstore\n      0x40\n      dup1\n      dup4\n      keccak256\n        /* \"contracts/coffe.sol\":36074:36120  _rOwned[sender] = _rOwned[sender].sub(rAmount) */\n      swap5\n      swap1\n      swap5\n      sstore\n        /* \"contracts/coffe.sol\":36152:36170  _tOwned[recipient] */\n      swap2\n      dup12\n      and\n      dup2\n      mstore\n        /* \"contracts/coffe.sol\":36152:36159  _tOwned */\n      0x03\n        /* \"contracts/coffe.sol\":36152:36170  _tOwned[recipient] */\n      swap1\n      swap2\n      mstore\n      keccak256\n      sload\n        /* \"contracts/coffe.sol\":36152:36191  _tOwned[recipient].add(tTransferAmount) */\n      tag_598\n      swap1\n        /* \"contracts/coffe.sol\":36175:36190  tTransferAmount */\n      dup8\n        /* \"contracts/coffe.sol\":36152:36174  _tOwned[recipient].add */\n      tag_283\n        /* \"contracts/coffe.sol\":36152:36191  _tOwned[recipient].add(tTransferAmount) */\n      jump\t// in\n    tag_598:\n      sub(shl(0xa0, 0x01), 0x01)\n        /* \"contracts/coffe.sol\":36131:36149  _tOwned[recipient] */\n      dup10\n      and\n      0x00\n      swap1\n      dup2\n      mstore\n        /* \"contracts/coffe.sol\":36131:36138  _tOwned */\n      0x03\n        /* \"contracts/coffe.sol\":36131:36149  _tOwned[recipient] */\n      0x20\n      swap1\n      dup2\n      mstore\n      0x40\n      dup1\n      dup4\n      keccak256\n        /* \"contracts/coffe.sol\":36131:36191  _tOwned[recipient] = _tOwned[recipient].add(tTransferAmount) */\n      swap4\n      swap1\n      swap4\n      sstore\n        /* \"contracts/coffe.sol\":36223:36230  _rOwned */\n      0x02\n        /* \"contracts/coffe.sol\":36223:36241  _rOwned[recipient] */\n      swap1\n      mstore\n      keccak256\n      sload\n        /* \"contracts/coffe.sol\":36223:36262  _rOwned[recipient].add(rTransferAmount) */\n      tag_587\n      swap1\n        /* \"contracts/coffe.sol\":36246:36261  rTransferAmount */\n      dup4\n        /* \"contracts/coffe.sol\":36223:36245  _rOwned[recipient].add */\n      tag_283\n        /* \"contracts/coffe.sol\":36223:36262  _rOwned[recipient].add(rTransferAmount) */\n      jump\t// in\n        /* \"contracts/coffe.sol\":34886:35602  function _transferStandard(... */\n    tag_536:\n        /* \"contracts/coffe.sol\":35033:35056  uint256 tTransferAmount */\n      0x00\n        /* \"contracts/coffe.sol\":35071:35083  uint256 tFee */\n      dup1\n        /* \"contracts/coffe.sol\":35098:35116  uint256 tMarketing */\n      0x00\n        /* \"contracts/coffe.sol\":35130:35150  _getTValues(tAmount) */\n      tag_604\n        /* \"contracts/coffe.sol\":35142:35149  tAmount */\n      dup5\n        /* \"contracts/coffe.sol\":35130:35141  _getTValues */\n      tag_304\n        /* \"contracts/coffe.sol\":35130:35150  _getTValues(tAmount) */\n      jump\t// in\n    tag_604:\n        /* \"contracts/coffe.sol\":35018:35150  (... */\n      swap3\n      pop\n      swap3\n      pop\n      swap3\n      pop\n        /* \"contracts/coffe.sol\":35162:35177  uint256 rAmount */\n      0x00\n        /* \"contracts/coffe.sol\":35179:35202  uint256 rTransferAmount */\n      dup1\n        /* \"contracts/coffe.sol\":35204:35216  uint256 rFee */\n      0x00\n        /* \"contracts/coffe.sol\":35220:35333  _getRValues(... */\n      tag_605\n        /* \"contracts/coffe.sol\":35246:35253  tAmount */\n      dup8\n        /* \"contracts/coffe.sol\":35268:35272  tFee */\n      dup7\n        /* \"contracts/coffe.sol\":35287:35297  tMarketing */\n      dup7\n        /* \"contracts/coffe.sol\":35312:35322  _getRate() */\n      tag_306\n        /* \"contracts/coffe.sol\":35312:35320  _getRate */\n      tag_244\n        /* \"contracts/coffe.sol\":35312:35322  _getRate() */\n      jump\t// in\n        /* \"contracts/coffe.sol\":35220:35333  _getRValues(... */\n    tag_605:\n      sub(shl(0xa0, 0x01), 0x01)\n        /* \"contracts/coffe.sol\":35364:35379  _rOwned[sender] */\n      dup13\n      and\n      0x00\n      swap1\n      dup2\n      mstore\n        /* \"contracts/coffe.sol\":35364:35371  _rOwned */\n      0x02\n        /* \"contracts/coffe.sol\":35364:35379  _rOwned[sender] */\n      0x20\n      mstore\n      0x40\n      swap1\n      keccak256\n      sload\n        /* \"contracts/coffe.sol\":35161:35333  (uint256 rAmount, uint256 rTransferAmount, uint256 rFee) = _getRValues(... */\n      swap3\n      swap6\n      pop\n      swap1\n      swap4\n      pop\n      swap2\n      pop\n        /* \"contracts/coffe.sol\":35364:35392  _rOwned[sender].sub(rAmount) */\n      tag_586\n      swap1\n        /* \"contracts/coffe.sol\":35161:35333  (uint256 rAmount, uint256 rTransferAmount, uint256 rFee) = _getRValues(... */\n      dup5\n        /* \"contracts/coffe.sol\":35364:35383  _rOwned[sender].sub */\n      tag_291\n        /* \"contracts/coffe.sol\":35364:35392  _rOwned[sender].sub(rAmount) */\n      jump\t// in\n        /* \"contracts/coffe.sol\":37194:38042  function _transferBothExcluded(... */\n    tag_541:\n        /* \"contracts/coffe.sol\":37345:37368  uint256 tTransferAmount */\n      0x00\n        /* \"contracts/coffe.sol\":37383:37395  uint256 tFee */\n      dup1\n        /* \"contracts/coffe.sol\":37410:37428  uint256 tMarketing */\n      0x00\n        /* \"contracts/coffe.sol\":37442:37462  _getTValues(tAmount) */\n      tag_613\n        /* \"contracts/coffe.sol\":37454:37461  tAmount */\n      dup5\n        /* \"contracts/coffe.sol\":37442:37453  _getTValues */\n      tag_304\n        /* \"contracts/coffe.sol\":37442:37462  _getTValues(tAmount) */\n      jump\t// in\n    tag_613:\n        /* \"contracts/coffe.sol\":37330:37462  (... */\n      swap3\n      pop\n      swap3\n      pop\n      swap3\n      pop\n        /* \"contracts/coffe.sol\":37474:37489  uint256 rAmount */\n      0x00\n        /* \"contracts/coffe.sol\":37491:37514  uint256 rTransferAmount */\n      dup1\n        /* \"contracts/coffe.sol\":37516:37528  uint256 rFee */\n      0x00\n        /* \"contracts/coffe.sol\":37532:37645  _getRValues(... */\n      tag_614\n        /* \"contracts/coffe.sol\":37558:37565  tAmount */\n      dup8\n        /* \"contracts/coffe.sol\":37580:37584  tFee */\n      dup7\n        /* \"contracts/coffe.sol\":37599:37609  tMarketing */\n      dup7\n        /* \"contracts/coffe.sol\":37624:37634  _getRate() */\n      tag_306\n        /* \"contracts/coffe.sol\":37624:37632  _getRate */\n      tag_244\n        /* \"contracts/coffe.sol\":37624:37634  _getRate() */\n      jump\t// in\n        /* \"contracts/coffe.sol\":37532:37645  _getRValues(... */\n    tag_614:\n      sub(shl(0xa0, 0x01), 0x01)\n        /* \"contracts/coffe.sol\":37676:37691  _tOwned[sender] */\n      dup13\n      and\n      0x00\n      swap1\n      dup2\n      mstore\n        /* \"contracts/coffe.sol\":37676:37683  _tOwned */\n      0x03\n        /* \"contracts/coffe.sol\":37676:37691  _tOwned[sender] */\n      0x20\n      mstore\n      0x40\n      swap1\n      keccak256\n      sload\n        /* \"contracts/coffe.sol\":37473:37645  (uint256 rAmount, uint256 rTransferAmount, uint256 rFee) = _getRValues(... */\n      swap3\n      swap6\n      pop\n      swap1\n      swap4\n      pop\n      swap2\n      pop\n        /* \"contracts/coffe.sol\":37676:37704  _tOwned[sender].sub(tAmount) */\n      tag_616\n      swap1\n        /* \"contracts/coffe.sol\":37696:37703  tAmount */\n      dup9\n        /* \"contracts/coffe.sol\":37676:37695  _tOwned[sender].sub */\n      tag_291\n        /* \"contracts/coffe.sol\":37676:37704  _tOwned[sender].sub(tAmount) */\n      jump\t// in\n    tag_616:\n      sub(shl(0xa0, 0x01), 0x01)\n        /* \"contracts/coffe.sol\":37658:37673  _tOwned[sender] */\n      dup11\n      and\n      0x00\n      swap1\n      dup2\n      mstore\n        /* \"contracts/coffe.sol\":37658:37665  _tOwned */\n      0x03\n        /* \"contracts/coffe.sol\":37658:37673  _tOwned[sender] */\n      0x20\n      swap1\n      dup2\n      mstore\n      0x40\n      dup1\n      dup4\n      keccak256\n        /* \"contracts/coffe.sol\":37658:37704  _tOwned[sender] = _tOwned[sender].sub(tAmount) */\n      swap4\n      swap1\n      swap4\n      sstore\n        /* \"contracts/coffe.sol\":37733:37740  _rOwned */\n      0x02\n        /* \"contracts/coffe.sol\":37733:37748  _rOwned[sender] */\n      swap1\n      mstore\n      keccak256\n      sload\n        /* \"contracts/coffe.sol\":37733:37761  _rOwned[sender].sub(rAmount) */\n      tag_597\n      swap1\n        /* \"contracts/coffe.sol\":37753:37760  rAmount */\n      dup5\n        /* \"contracts/coffe.sol\":37733:37752  _rOwned[sender].sub */\n      tag_291\n        /* \"contracts/coffe.sol\":37733:37761  _rOwned[sender].sub(rAmount) */\n      jump\t// in\n        /* \"contracts/coffe.sol\":29551:29881  function _takeMarketing(uint256 tMarketing) private {... */\n    tag_589:\n        /* \"contracts/coffe.sol\":29614:29633  uint256 currentRate */\n      0x00\n        /* \"contracts/coffe.sol\":29636:29646  _getRate() */\n      tag_624\n        /* \"contracts/coffe.sol\":29636:29644  _getRate */\n      tag_244\n        /* \"contracts/coffe.sol\":29636:29646  _getRate() */\n      jump\t// in\n    tag_624:\n        /* \"contracts/coffe.sol\":29614:29646  uint256 currentRate = _getRate() */\n      swap1\n      pop\n        /* \"contracts/coffe.sol\":29657:29675  uint256 rMarketing */\n      0x00\n        /* \"contracts/coffe.sol\":29678:29705  tMarketing.mul(currentRate) */\n      tag_625\n        /* \"contracts/coffe.sol\":29678:29688  tMarketing */\n      dup4\n        /* \"contracts/coffe.sol\":29614:29646  uint256 currentRate = _getRate() */\n      dup4\n        /* \"contracts/coffe.sol\":29678:29692  tMarketing.mul */\n      tag_372\n        /* \"contracts/coffe.sol\":29678:29705  tMarketing.mul(currentRate) */\n      jump\t// in\n    tag_625:\n        /* \"contracts/coffe.sol\":29744:29752  _taxPool */\n      and(sub(shl(0xa0, 0x01), 0x01), sload(0x0e))\n        /* \"contracts/coffe.sol\":29736:29753  _rOwned[_taxPool] */\n      0x00\n      swap1\n      dup2\n      mstore\n        /* \"contracts/coffe.sol\":29736:29743  _rOwned */\n      0x02\n        /* \"contracts/coffe.sol\":29736:29753  _rOwned[_taxPool] */\n      0x20\n      mstore\n      0x40\n      swap1\n      keccak256\n      sload\n        /* \"contracts/coffe.sol\":29657:29705  uint256 rMarketing = tMarketing.mul(currentRate) */\n      swap1\n      swap2\n      pop\n        /* \"contracts/coffe.sol\":29736:29769  _rOwned[_taxPool].add(rMarketing) */\n      tag_626\n      swap1\n        /* \"contracts/coffe.sol\":29657:29705  uint256 rMarketing = tMarketing.mul(currentRate) */\n      dup3\n        /* \"contracts/coffe.sol\":29736:29757  _rOwned[_taxPool].add */\n      tag_283\n        /* \"contracts/coffe.sol\":29736:29769  _rOwned[_taxPool].add(rMarketing) */\n      jump\t// in\n    tag_626:\n        /* \"contracts/coffe.sol\":29724:29732  _taxPool */\n      0x0e\n      dup1\n      sload\n      sub(shl(0xa0, 0x01), 0x01)\n      swap1\n      dup2\n      and\n        /* \"contracts/coffe.sol\":29716:29733  _rOwned[_taxPool] */\n      0x00\n      swap1\n      dup2\n      mstore\n        /* \"contracts/coffe.sol\":29716:29723  _rOwned */\n      0x02\n        /* \"contracts/coffe.sol\":29716:29733  _rOwned[_taxPool] */\n      0x20\n      swap1\n      dup2\n      mstore\n      0x40\n      dup1\n      dup4\n      keccak256\n        /* \"contracts/coffe.sol\":29716:29769  _rOwned[_taxPool] = _rOwned[_taxPool].add(rMarketing) */\n      swap6\n      swap1\n      swap6\n      sstore\n        /* \"contracts/coffe.sol\":29796:29804  _taxPool */\n      swap3\n      sload\n      swap1\n      swap2\n      and\n        /* \"contracts/coffe.sol\":29784:29805  _isExcluded[_taxPool] */\n      dup2\n      mstore\n        /* \"contracts/coffe.sol\":29784:29795  _isExcluded */\n      0x06\n        /* \"contracts/coffe.sol\":29784:29805  _isExcluded[_taxPool] */\n      swap1\n      swap2\n      mstore\n      keccak256\n      sload\n      0xff\n      and\n        /* \"contracts/coffe.sol\":29780:29873  if (_isExcluded[_taxPool])... */\n      iszero\n      tag_627\n      jumpi\n        /* \"contracts/coffe.sol\":29848:29856  _taxPool */\n      and(sub(shl(0xa0, 0x01), 0x01), sload(0x0e))\n        /* \"contracts/coffe.sol\":29840:29857  _tOwned[_taxPool] */\n      0x00\n      swap1\n      dup2\n      mstore\n        /* \"contracts/coffe.sol\":29840:29847  _tOwned */\n      0x03\n        /* \"contracts/coffe.sol\":29840:29857  _tOwned[_taxPool] */\n      0x20\n      mstore\n      0x40\n      swap1\n      keccak256\n      sload\n        /* \"contracts/coffe.sol\":29840:29873  _tOwned[_taxPool].add(tMarketing) */\n      tag_628\n      swap1\n        /* \"contracts/coffe.sol\":29862:29872  tMarketing */\n      dup5\n        /* \"contracts/coffe.sol\":29840:29861  _tOwned[_taxPool].add */\n      tag_283\n        /* \"contracts/coffe.sol\":29840:29873  _tOwned[_taxPool].add(tMarketing) */\n      jump\t// in\n    tag_628:\n        /* \"contracts/coffe.sol\":29828:29836  _taxPool */\n      and(sub(shl(0xa0, 0x01), 0x01), sload(0x0e))\n        /* \"contracts/coffe.sol\":29820:29837  _tOwned[_taxPool] */\n      0x00\n      swap1\n      dup2\n      mstore\n        /* \"contracts/coffe.sol\":29820:29827  _tOwned */\n      0x03\n        /* \"contracts/coffe.sol\":29820:29837  _tOwned[_taxPool] */\n      0x20\n      mstore\n      0x40\n      swap1\n      keccak256\n        /* \"contracts/coffe.sol\":29820:29873  _tOwned[_taxPool] = _tOwned[_taxPool].add(tMarketing) */\n      sstore\n        /* \"contracts/coffe.sol\":29780:29873  if (_isExcluded[_taxPool])... */\n    tag_627:\n        /* \"contracts/coffe.sol\":29603:29881  {... */\n      pop\n      pop\n        /* \"contracts/coffe.sol\":29551:29881  function _takeMarketing(uint256 tMarketing) private {... */\n      pop\n      jump\t// out\n        /* \"contracts/coffe.sol\":27553:27700  function _reflectFee(uint256 rFee, uint256 tFee) private {... */\n    tag_591:\n        /* \"contracts/coffe.sol\":27631:27638  _rTotal */\n      sload(0x0c)\n        /* \"contracts/coffe.sol\":27631:27648  _rTotal.sub(rFee) */\n      tag_630\n      swap1\n        /* \"contracts/coffe.sol\":27643:27647  rFee */\n      dup4\n        /* \"contracts/coffe.sol\":27631:27642  _rTotal.sub */\n      tag_291\n        /* \"contracts/coffe.sol\":27631:27648  _rTotal.sub(rFee) */\n      jump\t// in\n    tag_630:\n        /* \"contracts/coffe.sol\":27621:27628  _rTotal */\n      0x0c\n        /* \"contracts/coffe.sol\":27621:27648  _rTotal = _rTotal.sub(rFee) */\n      sstore\n        /* \"contracts/coffe.sol\":27672:27682  _tFeeTotal */\n      sload(0x0d)\n        /* \"contracts/coffe.sol\":27672:27692  _tFeeTotal.add(tFee) */\n      tag_631\n      swap1\n        /* \"contracts/coffe.sol\":27687:27691  tFee */\n      dup3\n        /* \"contracts/coffe.sol\":27672:27686  _tFeeTotal.add */\n      tag_283\n        /* \"contracts/coffe.sol\":27672:27692  _tFeeTotal.add(tFee) */\n      jump\t// in\n    tag_631:\n        /* \"contracts/coffe.sol\":27659:27669  _tFeeTotal */\n      0x0d\n        /* \"contracts/coffe.sol\":27659:27692  _tFeeTotal = _tFeeTotal.add(tFee) */\n      sstore\n      pop\n      pop\n        /* \"contracts/coffe.sol\":27553:27700  function _reflectFee(uint256 rFee, uint256 tFee) private {... */\n      jump\t// out\n        /* \"#utility.yul\":14:611   */\n    tag_56:\n        /* \"#utility.yul\":126:130   */\n      0x00\n        /* \"#utility.yul\":155:157   */\n      0x20\n        /* \"#utility.yul\":184:186   */\n      dup1\n        /* \"#utility.yul\":173:182   */\n      dup4\n        /* \"#utility.yul\":166:187   */\n      mstore\n        /* \"#utility.yul\":216:222   */\n      dup4\n        /* \"#utility.yul\":210:223   */\n      mload\n        /* \"#utility.yul\":259:265   */\n      dup1\n        /* \"#utility.yul\":254:256   */\n      dup3\n        /* \"#utility.yul\":243:252   */\n      dup6\n        /* \"#utility.yul\":239:257   */\n      add\n        /* \"#utility.yul\":232:266   */\n      mstore\n        /* \"#utility.yul\":284:285   */\n      0x00\n        /* \"#utility.yul\":294:434   */\n    tag_637:\n        /* \"#utility.yul\":308:314   */\n      dup2\n        /* \"#utility.yul\":305:306   */\n      dup2\n        /* \"#utility.yul\":302:315   */\n      lt\n        /* \"#utility.yul\":294:434   */\n      iszero\n      tag_639\n      jumpi\n        /* \"#utility.yul\":403:417   */\n      dup6\n      dup2\n      add\n        /* \"#utility.yul\":399:422   */\n      dup4\n      add\n        /* \"#utility.yul\":393:423   */\n      mload\n        /* \"#utility.yul\":369:386   */\n      dup6\n      dup3\n      add\n        /* \"#utility.yul\":388:390   */\n      0x40\n        /* \"#utility.yul\":365:391   */\n      add\n        /* \"#utility.yul\":358:424   */\n      mstore\n        /* \"#utility.yul\":323:333   */\n      dup3\n      add\n        /* \"#utility.yul\":294:434   */\n      jump(tag_637)\n    tag_639:\n        /* \"#utility.yul\":452:458   */\n      dup2\n        /* \"#utility.yul\":449:450   */\n      dup2\n        /* \"#utility.yul\":446:459   */\n      gt\n        /* \"#utility.yul\":443:534   */\n      iszero\n      tag_640\n      jumpi\n        /* \"#utility.yul\":522:523   */\n      0x00\n        /* \"#utility.yul\":517:519   */\n      0x40\n        /* \"#utility.yul\":508:514   */\n      dup4\n        /* \"#utility.yul\":497:506   */\n      dup8\n        /* \"#utility.yul\":493:515   */\n      add\n        /* \"#utility.yul\":489:520   */\n      add\n        /* \"#utility.yul\":482:524   */\n      mstore\n        /* \"#utility.yul\":443:534   */\n    tag_640:\n      pop\n        /* \"#utility.yul\":595:597   */\n      0x1f\n        /* \"#utility.yul\":574:589   */\n      add\n      not(0x1f)\n        /* \"#utility.yul\":570:599   */\n      and\n        /* \"#utility.yul\":555:600   */\n      swap3\n      swap1\n      swap3\n      add\n        /* \"#utility.yul\":602:604   */\n      0x40\n        /* \"#utility.yul\":551:605   */\n      add\n      swap4\n        /* \"#utility.yul\":14:611   */\n      swap3\n      pop\n      pop\n      pop\n      jump\t// out\n        /* \"#utility.yul\":616:747   */\n    tag_632:\n      sub(shl(0xa0, 0x01), 0x01)\n        /* \"#utility.yul\":691:722   */\n      dup2\n      and\n        /* \"#utility.yul\":681:723   */\n      dup2\n      eq\n        /* \"#utility.yul\":671:741   */\n      tag_642\n      jumpi\n        /* \"#utility.yul\":737:738   */\n      0x00\n        /* \"#utility.yul\":734:735   */\n      dup1\n        /* \"#utility.yul\":727:739   */\n      revert\n        /* \"#utility.yul\":671:741   */\n    tag_642:\n        /* \"#utility.yul\":616:747   */\n      pop\n      jump\t// out\n        /* \"#utility.yul\":752:1067   */\n    tag_59:\n        /* \"#utility.yul\":820:826   */\n      0x00\n        /* \"#utility.yul\":828:834   */\n      dup1\n        /* \"#utility.yul\":881:883   */\n      0x40\n        /* \"#utility.yul\":869:878   */\n      dup4\n        /* \"#utility.yul\":860:867   */\n      dup6\n        /* \"#utility.yul\":856:879   */\n      sub\n        /* \"#utility.yul\":852:884   */\n      slt\n        /* \"#utility.yul\":849:901   */\n      iszero\n      tag_644\n      jumpi\n        /* \"#utility.yul\":897:898   */\n      0x00\n        /* \"#utility.yul\":894:895   */\n      dup1\n        /* \"#utility.yul\":887:899   */\n      revert\n        /* \"#utility.yul\":849:901   */\n    tag_644:\n        /* \"#utility.yul\":936:945   */\n      dup3\n        /* \"#utility.yul\":923:946   */\n      calldataload\n        /* \"#utility.yul\":955:986   */\n      tag_645\n        /* \"#utility.yul\":980:985   */\n      dup2\n        /* \"#utility.yul\":955:986   */\n      tag_632\n      jump\t// in\n    tag_645:\n        /* \"#utility.yul\":1005:1010   */\n      swap5\n        /* \"#utility.yul\":1057:1059   */\n      0x20\n        /* \"#utility.yul\":1042:1060   */\n      swap4\n      swap1\n      swap4\n      add\n        /* \"#utility.yul\":1029:1061   */\n      calldataload\n      swap4\n      pop\n      pop\n      pop\n        /* \"#utility.yul\":752:1067   */\n      jump\t// out\n        /* \"#utility.yul\":1264:1511   */\n    tag_65:\n        /* \"#utility.yul\":1323:1329   */\n      0x00\n        /* \"#utility.yul\":1376:1378   */\n      0x20\n        /* \"#utility.yul\":1364:1373   */\n      dup3\n        /* \"#utility.yul\":1355:1362   */\n      dup5\n        /* \"#utility.yul\":1351:1374   */\n      sub\n        /* \"#utility.yul\":1347:1379   */\n      slt\n        /* \"#utility.yul\":1344:1396   */\n      iszero\n      tag_648\n      jumpi\n        /* \"#utility.yul\":1392:1393   */\n      0x00\n        /* \"#utility.yul\":1389:1390   */\n      dup1\n        /* \"#utility.yul\":1382:1394   */\n      revert\n        /* \"#utility.yul\":1344:1396   */\n    tag_648:\n        /* \"#utility.yul\":1431:1440   */\n      dup2\n        /* \"#utility.yul\":1418:1441   */\n      calldataload\n        /* \"#utility.yul\":1450:1481   */\n      tag_245\n        /* \"#utility.yul\":1475:1480   */\n      dup2\n        /* \"#utility.yul\":1450:1481   */\n      tag_632\n      jump\t// in\n        /* \"#utility.yul\":1933:2389   */\n    tag_83:\n        /* \"#utility.yul\":2010:2016   */\n      0x00\n        /* \"#utility.yul\":2018:2024   */\n      dup1\n        /* \"#utility.yul\":2026:2032   */\n      0x00\n        /* \"#utility.yul\":2079:2081   */\n      0x60\n        /* \"#utility.yul\":2067:2076   */\n      dup5\n        /* \"#utility.yul\":2058:2065   */\n      dup7\n        /* \"#utility.yul\":2054:2077   */\n      sub\n        /* \"#utility.yul\":2050:2082   */\n      slt\n        /* \"#utility.yul\":2047:2099   */\n      iszero\n      tag_653\n      jumpi\n        /* \"#utility.yul\":2095:2096   */\n      0x00\n        /* \"#utility.yul\":2092:2093   */\n      dup1\n        /* \"#utility.yul\":2085:2097   */\n      revert\n        /* \"#utility.yul\":2047:2099   */\n    tag_653:\n        /* \"#utility.yul\":2134:2143   */\n      dup4\n        /* \"#utility.yul\":2121:2144   */\n      calldataload\n        /* \"#utility.yul\":2153:2184   */\n      tag_654\n        /* \"#utility.yul\":2178:2183   */\n      dup2\n        /* \"#utility.yul\":2153:2184   */\n      tag_632\n      jump\t// in\n    tag_654:\n        /* \"#utility.yul\":2203:2208   */\n      swap3\n      pop\n        /* \"#utility.yul\":2260:2262   */\n      0x20\n        /* \"#utility.yul\":2245:2263   */\n      dup5\n      add\n        /* \"#utility.yul\":2232:2264   */\n      calldataload\n        /* \"#utility.yul\":2273:2306   */\n      tag_655\n        /* \"#utility.yul\":2232:2264   */\n      dup2\n        /* \"#utility.yul\":2273:2306   */\n      tag_632\n      jump\t// in\n    tag_655:\n        /* \"#utility.yul\":1933:2389   */\n      swap3\n      swap6\n        /* \"#utility.yul\":2325:2332   */\n      swap3\n      swap5\n      pop\n      pop\n      pop\n        /* \"#utility.yul\":2379:2381   */\n      0x40\n        /* \"#utility.yul\":2364:2382   */\n      swap2\n      swap1\n      swap2\n      add\n        /* \"#utility.yul\":2351:2383   */\n      calldataload\n      swap1\n        /* \"#utility.yul\":1933:2389   */\n      jump\t// out\n        /* \"#utility.yul\":2686:2866   */\n    tag_92:\n        /* \"#utility.yul\":2745:2751   */\n      0x00\n        /* \"#utility.yul\":2798:2800   */\n      0x20\n        /* \"#utility.yul\":2786:2795   */\n      dup3\n        /* \"#utility.yul\":2777:2784   */\n      dup5\n        /* \"#utility.yul\":2773:2796   */\n      sub\n        /* \"#utility.yul\":2769:2801   */\n      slt\n        /* \"#utility.yul\":2766:2818   */\n      iszero\n      tag_658\n      jumpi\n        /* \"#utility.yul\":2814:2815   */\n      0x00\n        /* \"#utility.yul\":2811:2812   */\n      dup1\n        /* \"#utility.yul\":2804:2816   */\n      revert\n        /* \"#utility.yul\":2766:2818   */\n    tag_658:\n      pop\n        /* \"#utility.yul\":2837:2860   */\n      calldataload\n      swap2\n        /* \"#utility.yul\":2686:2866   */\n      swap1\n      pop\n      jump\t// out\n        /* \"#utility.yul\":3060:3178   */\n    tag_633:\n        /* \"#utility.yul\":3146:3151   */\n      dup1\n        /* \"#utility.yul\":3139:3152   */\n      iszero\n        /* \"#utility.yul\":3132:3153   */\n      iszero\n        /* \"#utility.yul\":3125:3130   */\n      dup2\n        /* \"#utility.yul\":3122:3154   */\n      eq\n        /* \"#utility.yul\":3112:3172   */\n      tag_642\n      jumpi\n        /* \"#utility.yul\":3168:3169   */\n      0x00\n        /* \"#utility.yul\":3165:3166   */\n      dup1\n        /* \"#utility.yul\":3158:3170   */\n      revert\n        /* \"#utility.yul\":3183:3492   */\n    tag_114:\n        /* \"#utility.yul\":3248:3254   */\n      0x00\n        /* \"#utility.yul\":3256:3262   */\n      dup1\n        /* \"#utility.yul\":3309:3311   */\n      0x40\n        /* \"#utility.yul\":3297:3306   */\n      dup4\n        /* \"#utility.yul\":3288:3295   */\n      dup6\n        /* \"#utility.yul\":3284:3307   */\n      sub\n        /* \"#utility.yul\":3280:3312   */\n      slt\n        /* \"#utility.yul\":3277:3329   */\n      iszero\n      tag_663\n      jumpi\n        /* \"#utility.yul\":3325:3326   */\n      0x00\n        /* \"#utility.yul\":3322:3323   */\n      dup1\n        /* \"#utility.yul\":3315:3327   */\n      revert\n        /* \"#utility.yul\":3277:3329   */\n    tag_663:\n        /* \"#utility.yul\":3361:3370   */\n      dup3\n        /* \"#utility.yul\":3348:3371   */\n      calldataload\n        /* \"#utility.yul\":3338:3371   */\n      swap2\n      pop\n        /* \"#utility.yul\":3421:3423   */\n      0x20\n        /* \"#utility.yul\":3410:3419   */\n      dup4\n        /* \"#utility.yul\":3406:3424   */\n      add\n        /* \"#utility.yul\":3393:3425   */\n      calldataload\n        /* \"#utility.yul\":3434:3462   */\n      tag_664\n        /* \"#utility.yul\":3456:3461   */\n      dup2\n        /* \"#utility.yul\":3434:3462   */\n      tag_633\n      jump\t// in\n    tag_664:\n        /* \"#utility.yul\":3481:3486   */\n      dup1\n        /* \"#utility.yul\":3471:3486   */\n      swap2\n      pop\n      pop\n        /* \"#utility.yul\":3183:3492   */\n      swap3\n      pop\n      swap3\n      swap1\n      pop\n      jump\t// out\n        /* \"#utility.yul\":4189:4577   */\n    tag_190:\n        /* \"#utility.yul\":4257:4263   */\n      0x00\n        /* \"#utility.yul\":4265:4271   */\n      dup1\n        /* \"#utility.yul\":4318:4320   */\n      0x40\n        /* \"#utility.yul\":4306:4315   */\n      dup4\n        /* \"#utility.yul\":4297:4304   */\n      dup6\n        /* \"#utility.yul\":4293:4316   */\n      sub\n        /* \"#utility.yul\":4289:4321   */\n      slt\n        /* \"#utility.yul\":4286:4338   */\n      iszero\n      tag_671\n      jumpi\n        /* \"#utility.yul\":4334:4335   */\n      0x00\n        /* \"#utility.yul\":4331:4332   */\n      dup1\n        /* \"#utility.yul\":4324:4336   */\n      revert\n        /* \"#utility.yul\":4286:4338   */\n    tag_671:\n        /* \"#utility.yul\":4373:4382   */\n      dup3\n        /* \"#utility.yul\":4360:4383   */\n      calldataload\n        /* \"#utility.yul\":4392:4423   */\n      tag_672\n        /* \"#utility.yul\":4417:4422   */\n      dup2\n        /* \"#utility.yul\":4392:4423   */\n      tag_632\n      jump\t// in\n    tag_672:\n        /* \"#utility.yul\":4442:4447   */\n      swap2\n      pop\n        /* \"#utility.yul\":4499:4501   */\n      0x20\n        /* \"#utility.yul\":4484:4502   */\n      dup4\n      add\n        /* \"#utility.yul\":4471:4503   */\n      calldataload\n        /* \"#utility.yul\":4512:4545   */\n      tag_664\n        /* \"#utility.yul\":4471:4503   */\n      dup2\n        /* \"#utility.yul\":4512:4545   */\n      tag_632\n      jump\t// in\n        /* \"#utility.yul\":4582:4962   */\n    tag_201:\n        /* \"#utility.yul\":4661:4662   */\n      0x01\n        /* \"#utility.yul\":4657:4669   */\n      dup2\n      dup2\n      shr\n      swap1\n        /* \"#utility.yul\":4704:4716   */\n      dup3\n      and\n      dup1\n        /* \"#utility.yul\":4725:4786   */\n      tag_675\n      jumpi\n        /* \"#utility.yul\":4779:4783   */\n      0x7f\n        /* \"#utility.yul\":4771:4777   */\n      dup3\n        /* \"#utility.yul\":4767:4784   */\n      and\n        /* \"#utility.yul\":4757:4784   */\n      swap2\n      pop\n        /* \"#utility.yul\":4725:4786   */\n    tag_675:\n        /* \"#utility.yul\":4832:4834   */\n      0x20\n        /* \"#utility.yul\":4824:4830   */\n      dup3\n        /* \"#utility.yul\":4821:4835   */\n      lt\n        /* \"#utility.yul\":4801:4819   */\n      dup2\n        /* \"#utility.yul\":4798:4836   */\n      eq\n        /* \"#utility.yul\":4795:4956   */\n      iszero\n      tag_676\n      jumpi\n        /* \"#utility.yul\":4878:4888   */\n      0x4e487b71\n        /* \"#utility.yul\":4873:4876   */\n      0xe0\n        /* \"#utility.yul\":4869:4889   */\n      shl\n        /* \"#utility.yul\":4866:4867   */\n      0x00\n        /* \"#utility.yul\":4859:4890   */\n      mstore\n        /* \"#utility.yul\":4913:4917   */\n      0x22\n        /* \"#utility.yul\":4910:4911   */\n      0x04\n        /* \"#utility.yul\":4903:4918   */\n      mstore\n        /* \"#utility.yul\":4941:4945   */\n      0x24\n        /* \"#utility.yul\":4938:4939   */\n      0x00\n        /* \"#utility.yul\":4931:4946   */\n      revert\n        /* \"#utility.yul\":4795:4956   */\n    tag_676:\n      pop\n        /* \"#utility.yul\":4582:4962   */\n      swap2\n      swap1\n      pop\n      jump\t// out\n        /* \"#utility.yul\":4967:5323   */\n    tag_215:\n        /* \"#utility.yul\":5169:5171   */\n      0x20\n        /* \"#utility.yul\":5151:5172   */\n      dup1\n      dup3\n      mstore\n        /* \"#utility.yul\":5188:5206   */\n      dup2\n      dup2\n      add\n        /* \"#utility.yul\":5181:5211   */\n      mstore\n        /* \"#utility.yul\":5247:5281   */\n      0x4f776e61626c653a2063616c6c6572206973206e6f7420746865206f776e6572\n        /* \"#utility.yul\":5242:5244   */\n      0x40\n        /* \"#utility.yul\":5227:5245   */\n      dup3\n      add\n        /* \"#utility.yul\":5220:5282   */\n      mstore\n        /* \"#utility.yul\":5314:5316   */\n      0x60\n        /* \"#utility.yul\":5299:5317   */\n      add\n      swap1\n        /* \"#utility.yul\":4967:5323   */\n      jump\t// out\n        /* \"#utility.yul\":6853:6980   */\n    tag_261:\n        /* \"#utility.yul\":6914:6924   */\n      0x4e487b71\n        /* \"#utility.yul\":6909:6912   */\n      0xe0\n        /* \"#utility.yul\":6905:6925   */\n      shl\n        /* \"#utility.yul\":6902:6903   */\n      0x00\n        /* \"#utility.yul\":6895:6926   */\n      mstore\n        /* \"#utility.yul\":6945:6949   */\n      0x32\n        /* \"#utility.yul\":6942:6943   */\n      0x04\n        /* \"#utility.yul\":6935:6950   */\n      mstore\n        /* \"#utility.yul\":6969:6973   */\n      0x24\n        /* \"#utility.yul\":6966:6967   */\n      0x00\n        /* \"#utility.yul\":6959:6974   */\n      revert\n        /* \"#utility.yul\":6985:7112   */\n    tag_634:\n        /* \"#utility.yul\":7046:7056   */\n      0x4e487b71\n        /* \"#utility.yul\":7041:7044   */\n      0xe0\n        /* \"#utility.yul\":7037:7057   */\n      shl\n        /* \"#utility.yul\":7034:7035   */\n      0x00\n        /* \"#utility.yul\":7027:7058   */\n      mstore\n        /* \"#utility.yul\":7077:7081   */\n      0x11\n        /* \"#utility.yul\":7074:7075   */\n      0x04\n        /* \"#utility.yul\":7067:7082   */\n      mstore\n        /* \"#utility.yul\":7101:7105   */\n      0x24\n        /* \"#utility.yul\":7098:7099   */\n      0x00\n        /* \"#utility.yul\":7091:7106   */\n      revert\n        /* \"#utility.yul\":7117:7242   */\n    tag_265:\n        /* \"#utility.yul\":7157:7161   */\n      0x00\n        /* \"#utility.yul\":7185:7186   */\n      dup3\n        /* \"#utility.yul\":7182:7183   */\n      dup3\n        /* \"#utility.yul\":7179:7187   */\n      lt\n        /* \"#utility.yul\":7176:7210   */\n      iszero\n      tag_686\n      jumpi\n        /* \"#utility.yul\":7190:7208   */\n      tag_686\n      tag_634\n      jump\t// in\n    tag_686:\n      pop\n        /* \"#utility.yul\":7227:7236   */\n      sub\n      swap1\n        /* \"#utility.yul\":7117:7242   */\n      jump\t// out\n        /* \"#utility.yul\":7247:7374   */\n    tag_274:\n        /* \"#utility.yul\":7308:7318   */\n      0x4e487b71\n        /* \"#utility.yul\":7303:7306   */\n      0xe0\n        /* \"#utility.yul\":7299:7319   */\n      shl\n        /* \"#utility.yul\":7296:7297   */\n      0x00\n        /* \"#utility.yul\":7289:7320   */\n      mstore\n        /* \"#utility.yul\":7339:7343   */\n      0x31\n        /* \"#utility.yul\":7336:7337   */\n      0x04\n        /* \"#utility.yul\":7329:7344   */\n      mstore\n        /* \"#utility.yul\":7363:7367   */\n      0x24\n        /* \"#utility.yul\":7360:7361   */\n      0x00\n        /* \"#utility.yul\":7353:7368   */\n      revert\n        /* \"#utility.yul\":7379:7514   */\n    tag_277:\n        /* \"#utility.yul\":7418:7421   */\n      0x00\n      not(0x00)\n        /* \"#utility.yul\":7439:7456   */\n      dup3\n      eq\n        /* \"#utility.yul\":7436:7479   */\n      iszero\n      tag_690\n      jumpi\n        /* \"#utility.yul\":7459:7477   */\n      tag_690\n      tag_634\n      jump\t// in\n    tag_690:\n      pop\n        /* \"#utility.yul\":7506:7507   */\n      0x01\n        /* \"#utility.yul\":7495:7508   */\n      add\n      swap1\n        /* \"#utility.yul\":7379:7514   */\n      jump\t// out\n        /* \"#utility.yul\":8861:9106   */\n    tag_353:\n        /* \"#utility.yul\":8928:8934   */\n      0x00\n        /* \"#utility.yul\":8981:8983   */\n      0x20\n        /* \"#utility.yul\":8969:8978   */\n      dup3\n        /* \"#utility.yul\":8960:8967   */\n      dup5\n        /* \"#utility.yul\":8956:8979   */\n      sub\n        /* \"#utility.yul\":8952:8984   */\n      slt\n        /* \"#utility.yul\":8949:9001   */\n      iszero\n      tag_696\n      jumpi\n        /* \"#utility.yul\":8997:8998   */\n      0x00\n        /* \"#utility.yul\":8994:8995   */\n      dup1\n        /* \"#utility.yul\":8987:8999   */\n      revert\n        /* \"#utility.yul\":8949:9001   */\n    tag_696:\n        /* \"#utility.yul\":9029:9038   */\n      dup2\n        /* \"#utility.yul\":9023:9039   */\n      mload\n        /* \"#utility.yul\":9048:9076   */\n      tag_245\n        /* \"#utility.yul\":9070:9075   */\n      dup2\n        /* \"#utility.yul\":9048:9076   */\n      tag_633\n      jump\t// in\n        /* \"#utility.yul\":13713:13841   */\n    tag_467:\n        /* \"#utility.yul\":13753:13756   */\n      0x00\n        /* \"#utility.yul\":13784:13785   */\n      dup3\n        /* \"#utility.yul\":13780:13786   */\n      not\n        /* \"#utility.yul\":13777:13778   */\n      dup3\n        /* \"#utility.yul\":13774:13787   */\n      gt\n        /* \"#utility.yul\":13771:13810   */\n      iszero\n      tag_712\n      jumpi\n        /* \"#utility.yul\":13790:13808   */\n      tag_712\n      tag_634\n      jump\t// in\n    tag_712:\n      pop\n        /* \"#utility.yul\":13826:13835   */\n      add\n      swap1\n        /* \"#utility.yul\":13713:13841   */\n      jump\t// out\n        /* \"#utility.yul\":14605:14773   */\n    tag_507:\n        /* \"#utility.yul\":14645:14652   */\n      0x00\n        /* \"#utility.yul\":14711:14712   */\n      dup2\n        /* \"#utility.yul\":14707:14708   */\n      0x00\n        /* \"#utility.yul\":14703:14709   */\n      not\n        /* \"#utility.yul\":14699:14713   */\n      div\n        /* \"#utility.yul\":14696:14697   */\n      dup4\n        /* \"#utility.yul\":14693:14714   */\n      gt\n        /* \"#utility.yul\":14688:14689   */\n      dup3\n        /* \"#utility.yul\":14681:14690   */\n      iszero\n        /* \"#utility.yul\":14674:14691   */\n      iszero\n        /* \"#utility.yul\":14670:14715   */\n      and\n        /* \"#utility.yul\":14667:14738   */\n      iszero\n      tag_717\n      jumpi\n        /* \"#utility.yul\":14718:14736   */\n      tag_717\n      tag_634\n      jump\t// in\n    tag_717:\n      pop\n        /* \"#utility.yul\":14758:14767   */\n      mul\n      swap1\n        /* \"#utility.yul\":14605:14773   */\n      jump\t// out\n        /* \"#utility.yul\":14778:14995   */\n    tag_509:\n        /* \"#utility.yul\":14818:14819   */\n      0x00\n        /* \"#utility.yul\":14844:14845   */\n      dup3\n        /* \"#utility.yul\":14834:14966   */\n      tag_719\n      jumpi\n        /* \"#utility.yul\":14888:14898   */\n      0x4e487b71\n        /* \"#utility.yul\":14883:14886   */\n      0xe0\n        /* \"#utility.yul\":14879:14899   */\n      shl\n        /* \"#utility.yul\":14876:14877   */\n      0x00\n        /* \"#utility.yul\":14869:14900   */\n      mstore\n        /* \"#utility.yul\":14923:14927   */\n      0x12\n        /* \"#utility.yul\":14920:14921   */\n      0x04\n        /* \"#utility.yul\":14913:14928   */\n      mstore\n        /* \"#utility.yul\":14951:14955   */\n      0x24\n        /* \"#utility.yul\":14948:14949   */\n      0x00\n        /* \"#utility.yul\":14941:14956   */\n      revert\n        /* \"#utility.yul\":14834:14966   */\n    tag_719:\n      pop\n        /* \"#utility.yul\":14980:14989   */\n      div\n      swap1\n        /* \"#utility.yul\":14778:14995   */\n      jump\t// out\n    stop\n    data_974d1b4421da69cc60b481194f0dad36a5bb4e23da810da7a7fb30cdba178330 45524332303a207472616e7366657220616d6f756e74206578636565647320616c6c6f77616e6365\n    data_f8b476f7d28209d77d4a4ac1fe36b9f8259aa1bb6bddfa6e89de7e51615cf8a8 45524332303a2064656372656173656420616c6c6f77616e63652062656c6f77207a65726f\n\n    auxdata: 0xa2646970667358221220aa170fd1932ee23297792089715b04acf719b51f0b4d71187b457180b3497c2e64736f6c634300080a0033\n}\n",
				"bytecode": {
					"linkReferences": {},
					"object": "60c0604052662386f26fc10000600b8190556200001f90600019620004bd565b6200002d90600019620004e0565b600c55600e80546001600160a01b03191673c97137bdc16bb7a7548710ee0256410251cb495617905560408051808201909152600d8082526c436f666665652043727970746f60981b60209092019182526200008c91600f9162000417565b50604080518082019091526004808252634346454560e01b6020909201918252620000ba9160109162000417565b506011805460ff19166008179055681b1ae4d6e2ef500000601555686c6b935b8bbd400000601655348015620000ef57600080fd5b50600080546001600160a01b031916339081178255604051909182917f8be0079c531659141344cd1fd0a4f28419497f9722a3daafe3b4186f6b6457e0908290a350600c5433600090815260026020908152604091829020929092556012805463ffffffff1990811662020002179091556013805490911662050005179055805163c45a015560e01b8152905173d99d1c33f9fc3444f8101754abc46c52416550d192839263c45a015592600480830193928290030181865afa158015620001bb573d6000803e3d6000fd5b505050506040513d601f19601f82011682018060405250810190620001e1919062000506565b6001600160a01b031663c9c6539630836001600160a01b031663ad5c46486040518163ffffffff1660e01b8152600401602060405180830381865afa1580156200022f573d6000803e3d6000fd5b505050506040513d601f19601f8201168201806040525081019062000255919062000506565b6040516001600160e01b031960e085901b1681526001600160a01b039283166004820152911660248201526044016020604051808303816000875af1158015620002a3573d6000803e3d6000fd5b505050506040513d601f19601f82011682018060405250810190620002c9919062000506565b6001600160a01b0390811660a0528116608052600160056000620002f56000546001600160a01b031690565b6001600160a01b03908116825260208083019390935260409182016000908120805495151560ff1996871617905530815260058452828120805486166001908117909155600e805484168352848320805488168317905554909216815260099384905291822080549094168117909355620003786000546001600160a01b031690565b6001600160a01b0316815260208082019290925260409081016000908120805494151560ff199586161790553081526009909252902080549091166001179055620003c03390565b6001600160a01b031660006001600160a01b03167fddf252ad1be2c89b69c2b068fc378daa952ba7f163c4a11628f55a4df523b3ef600b546040516200040891815260200190565b60405180910390a35062000575565b828054620004259062000538565b90600052602060002090601f01602090048101928262000449576000855562000494565b82601f106200046457805160ff191683800117855562000494565b8280016001018555821562000494579182015b828111156200049457825182559160200191906001019062000477565b50620004a2929150620004a6565b5090565b5b80821115620004a25760008155600101620004a7565b600082620004db57634e487b7160e01b600052601260045260246000fd5b500690565b6000828210156200050157634e487b7160e01b600052601160045260246000fd5b500390565b6000602082840312156200051957600080fd5b81516001600160a01b03811681146200053157600080fd5b9392505050565b600181811c908216806200054d57607f821691505b602082108114156200056f57634e487b7160e01b600052602260045260246000fd5b50919050565b60805160a051612730620005b0600039600081816103f9015281816118ee01528181611c0d0152611c78015260006102ba01526127306000f3fe608060405234801561001057600080fd5b50600436106102485760003560e01c80635342acb41161013b578063a457c2d7116100b8578063d543dbeb1161007c578063d543dbeb14610564578063d94160e014610577578063dd62ed3e146105a3578063ea2f0b37146105dc578063f2fde38b146105ef57600080fd5b8063a457c2d714610505578063a9059cbb14610518578063af2ce6141461052b578063b030b34a1461053e578063ba1c42461461055157600080fd5b80638da5cb5b116100ff5780638da5cb5b146104bd5780638f9a55c0146104ce57806391d919a9146104d757806395d89b41146104ea5780639e281a98146104f257600080fd5b80635342acb41461044157806370a082311461046d578063715018a6146104805780637d1db4a51461048857806388f820201461049157600080fd5b8063313ce567116101c95780634549b0391161018d5780634549b039146103c957806347062402146103dc57806349bd5a5e146103f45780634eeb94ce1461041b57806352390c021461042e57600080fd5b8063313ce567146103685780633685d4191461037d578063395093511461039057806342966c68146103a3578063437823ec146103b657600080fd5b806318160ddd1161021057806318160ddd146102f45780631d7ef879146102fc57806323b872dd1461030f5780632b14ca56146103225780632d8381191461035557600080fd5b806306fdde031461024d578063095ea7b31461026b5780630bd3a7f91461028e57806313114a9d146102a35780631694505e146102b5575b600080fd5b610255610602565b60405161026291906123d7565b60405180910390f35b61027e610279366004612444565b610694565b6040519015158152602001610262565b6102a161029c366004612470565b6106ab565b005b600d545b604051908152602001610262565b6102dc7f000000000000000000000000000000000000000000000000000000000000000081565b6040516001600160a01b039091168152602001610262565b600b546102a7565b6102a161030a366004612470565b610702565b61027e61031d36600461248d565b610873565b60135461033a9061ffff808216916201000090041682565b6040805161ffff938416815292909116602083015201610262565b6102a76103633660046124ce565b6108dc565b60115460405160ff9091168152602001610262565b6102a161038b366004612470565b610960565b61027e61039e366004612444565b610b17565b6102a16103b13660046124ce565b610b4d565b6102a16103c4366004612470565b610bfd565b6102a76103d73660046124f5565b610c4b565b60125461033a9061ffff808216916201000090041682565b6102dc7f000000000000000000000000000000000000000000000000000000000000000081565b600e546102dc906001600160a01b031681565b6102a161043c366004612470565b610ce6565b61027e61044f366004612470565b6001600160a01b031660009081526005602052604090205460ff1690565b6102a761047b366004612470565b610e39565b6102a1610e98565b6102a760155481565b61027e61049f366004612470565b6001600160a01b031660009081526006602052604090205460ff1690565b6000546001600160a01b03166102dc565b6102a760165481565b6102a16104e5366004612470565b610f0c565b610255610f57565b6102a1610500366004612444565b610f66565b61027e610513366004612444565b611009565b61027e610526366004612444565b611058565b6102a16105393660046124ce565b611065565b6102a161054c366004612470565b611108565b6102a161055f366004612470565b61128c565b6102a16105723660046124ce565b6112d8565b61027e610585366004612470565b6001600160a01b031660009081526009602052604090205460ff1690565b6102a76105b1366004612525565b6001600160a01b03918216600090815260046020908152604080832093909416825291909152205490565b6102a16105ea366004612470565b611375565b6102a16105fd366004612470565b6113c0565b6060600f805461061190612553565b80601f016020809104026020016040519081016040528092919081815260200182805461063d90612553565b801561068a5780601f1061065f5761010080835404028352916020019161068a565b820191906000526020600020905b81548152906001019060200180831161066d57829003601f168201915b5050505050905090565b60006106a13384846114aa565b5060015b92915050565b6000546001600160a01b031633146106de5760405162461bcd60e51b81526004016106d59061258e565b60405180910390fd5b6001600160a01b03166000908152600960205260409020805460ff19166001179055565b6000546001600160a01b0316331461072c5760405162461bcd60e51b81526004016106d59061258e565b73d99d1c33f9fc3444f8101754abc46c52416550d16001600160a01b03821614156107a45760405162461bcd60e51b815260206004820152602260248201527f57652063616e6e6f7420626c61636b6c69737420556e695377617020726f757460448201526132b960f11b60648201526084016106d5565b6001600160a01b03811660009081526008602052604090205460ff161561080d5760405162461bcd60e51b815260206004820152601e60248201527f4163636f756e7420697320616c726561647920626c61636b6c6973746564000060448201526064016106d5565b6001600160a01b03166000818152600860205260408120805460ff19166001908117909155600a805491820181559091527fc65a7bb8d6351c1cf70c95a316cc6a92839c986682d98bc35f958f4883f9d2a80180546001600160a01b0319169091179055565b60006108808484846115ce565b6108d284336108cd856040518060600160405280602881526020016126ae602891396001600160a01b038a16600090815260046020908152604080832033845290915290205491906119a0565b6114aa565b5060019392505050565b6000600c548211156109435760405162461bcd60e51b815260206004820152602a60248201527f416d6f756e74206d757374206265206c657373207468616e20746f74616c207260448201526965666c656374696f6e7360b01b60648201526084016106d5565b600061094d6119da565b905061095983826119fd565b9392505050565b6000546001600160a01b0316331461098a5760405162461bcd60e51b81526004016106d59061258e565b6001600160a01b03811660009081526006602052604090205460ff166109f25760405162461bcd60e51b815260206004820152601760248201527f4163636f756e74206973206e6f74206578636c7564656400000000000000000060448201526064016106d5565b60005b600754811015610b1357816001600160a01b031660078281548110610a1c57610a1c6125c3565b6000918252602090912001546001600160a01b03161415610b015760078054610a47906001906125ef565b81548110610a5757610a576125c3565b600091825260209091200154600780546001600160a01b039092169183908110610a8357610a836125c3565b600091825260208083209190910180546001600160a01b0319166001600160a01b039485161790559184168152600382526040808220829055600690925220805460ff191690556007805480610adb57610adb612606565b600082815260209020810160001990810180546001600160a01b03191690550190555050565b80610b0b8161261c565b9150506109f5565b5050565b3360008181526004602090815260408083206001600160a01b038716845290915281205490916106a19185906108cd9086611a3f565b80610b5733610e39565b1015610b9a5760405162461bcd60e51b81526020600482015260126024820152714e6f7420656e6f7567682062616c616e636560701b60448201526064016106d5565b610bad81610ba733610e39565b90611a9e565b5080600b6000828254610bc091906125ef565b909155505060405181815233907fcc16f5dbb4873280815c1ee09dbd06736cffcc184412cf7a71a0fdb75d397ca59060200160405180910390a250565b6000546001600160a01b03163314610c275760405162461bcd60e51b81526004016106d59061258e565b6001600160a01b03166000908152600560205260409020805460ff19166001179055565b6000600b54831115610c9f5760405162461bcd60e51b815260206004820152601f60248201527f416d6f756e74206d757374206265206c657373207468616e20737570706c790060448201526064016106d5565b600080610cab85611ae0565b9250925050600080610cc6878585610cc16119da565b611b24565b509150915085610cdb575092506106a5915050565b93506106a592505050565b6000546001600160a01b03163314610d105760405162461bcd60e51b81526004016106d59061258e565b6001600160a01b03811660009081526006602052604090205460ff1615610d795760405162461bcd60e51b815260206004820152601b60248201527f4163636f756e7420697320616c7265616479206578636c75646564000000000060448201526064016106d5565b6001600160a01b03811660009081526002602052604090205415610dd3576001600160a01b038116600090815260026020526040902054610db9906108dc565b6001600160a01b0382166000908152600360205260409020555b6001600160a01b03166000818152600660205260408120805460ff191660019081179091556007805491820181559091527fa66cc928b5edb82af9bd49922954155ab7b0942694bea4ce44661d9a8736c6880180546001600160a01b0319169091179055565b6001600160a01b03811660009081526006602052604081205460ff1615610e7657506001600160a01b031660009081526003602052604090205490565b6001600160a01b0382166000908152600260205260409020546106a5906108dc565b6000546001600160a01b03163314610ec25760405162461bcd60e51b81526004016106d59061258e565b600080546040516001600160a01b03909116907f8be0079c531659141344cd1fd0a4f28419497f9722a3daafe3b4186f6b6457e0908390a3600080546001600160a01b0319169055565b6000546001600160a01b03163314610f365760405162461bcd60e51b81526004016106d59061258e565b6001600160a01b03166000908152600960205260409020805460ff19169055565b60606010805461061190612553565b6000546001600160a01b03163314610f905760405162461bcd60e51b81526004016106d59061258e565b60405163a9059cbb60e01b81523360048201526024810182905282906001600160a01b0382169063a9059cbb906044016020604051808303816000875af1158015610fdf573d6000803e3d6000fd5b505050506040513d601f19601f820116820180604052508101906110039190612637565b50505050565b60006106a133846108cd856040518060600160405280602581526020016126d6602591393360009081526004602090815260408083206001600160a01b038d16845290915290205491906119a0565b60006106a13384846115ce565b6000546001600160a01b0316331461108f5760405162461bcd60e51b81526004016106d59061258e565b6103e88111156110e15760405162461bcd60e51b815260206004820152601d60248201527f6d617857616c6c657453697a652065786365656473206469766964657200000060448201526064016106d5565b6111026103e86110fc83600b54611b7490919063ffffffff16565b906119fd565b60165550565b6000546001600160a01b031633146111325760405162461bcd60e51b81526004016106d59061258e565b6001600160a01b03811660009081526008602052604090205460ff1661119a5760405162461bcd60e51b815260206004820152601a60248201527f4163636f756e74206973206e6f7420626c61636b6c697374656400000000000060448201526064016106d5565b60005b600a54811015610b1357816001600160a01b0316600a82815481106111c4576111c46125c3565b6000918252602090912001546001600160a01b0316141561127a57600a80546111ef906001906125ef565b815481106111ff576111ff6125c3565b600091825260209091200154600a80546001600160a01b03909216918390811061122b5761122b6125c3565b600091825260208083209190910180546001600160a01b0319166001600160a01b039485161790559184168152600890915260409020805460ff19169055600a805480610adb57610adb612606565b806112848161261c565b91505061119d565b6000546001600160a01b031633146112b65760405162461bcd60e51b81526004016106d59061258e565b600e80546001600160a01b0319166001600160a01b0392909216919091179055565b6000546001600160a01b031633146113025760405162461bcd60e51b81526004016106d59061258e565b6103e88111156113545760405162461bcd60e51b815260206004820152601c60248201527f6d6178547850657263656e74206578636565647320646976696465720000000060448201526064016106d5565b61136f6103e86110fc83600b54611b7490919063ffffffff16565b60155550565b6000546001600160a01b0316331461139f5760405162461bcd60e51b81526004016106d59061258e565b6001600160a01b03166000908152600560205260409020805460ff19169055565b6000546001600160a01b031633146113ea5760405162461bcd60e51b81526004016106d59061258e565b6001600160a01b03811661144f5760405162461bcd60e51b815260206004820152602660248201527f4f776e61626c653a206e6577206f776e657220697320746865207a65726f206160448201526564647265737360d01b60648201526084016106d5565b600080546040516001600160a01b03808516939216917f8be0079c531659141344cd1fd0a4f28419497f9722a3daafe3b4186f6b6457e091a3600080546001600160a01b0319166001600160a01b0392909216919091179055565b6001600160a01b03831661150c5760405162461bcd60e51b8152602060048201526024808201527f45524332303a20617070726f76652066726f6d20746865207a65726f206164646044820152637265737360e01b60648201526084016106d5565b6001600160a01b03821661156d5760405162461bcd60e51b815260206004820152602260248201527f45524332303a20617070726f766520746f20746865207a65726f206164647265604482015261737360f01b60648201526084016106d5565b6001600160a01b0383811660008181526004602090815260408083209487168084529482529182902085905590518481527f8c5be1e5ebec7d5bd14f71427d1e84f3dd0314c0f7b2291e5b200ac8c7c3b925910160405180910390a3505050565b6001600160a01b0383166116325760405162461bcd60e51b815260206004820152602560248201527f45524332303a207472616e736665722066726f6d20746865207a65726f206164604482015264647265737360d81b60648201526084016106d5565b6001600160a01b0382166116945760405162461bcd60e51b815260206004820152602360248201527f45524332303a207472616e7366657220746f20746865207a65726f206164647260448201526265737360e81b60648201526084016106d5565b600081116116f65760405162461bcd60e51b815260206004820152602960248201527f5472616e7366657220616d6f756e74206d7573742062652067726561746572206044820152687468616e207a65726f60b81b60648201526084016106d5565b6001600160a01b03831660009081526008602052604090205460ff16156117555760405162461bcd60e51b8152602060048201526013602482015272165bdd48185c9948189b1858dadb1a5cdd1959606a1b60448201526064016106d5565b3360009081526008602052604090205460ff16156117a35760405162461bcd60e51b815260206004820152600b60248201526a189b1858dadb1a5cdd195960aa1b60448201526064016106d5565b3260009081526008602052604090205460ff16156117f15760405162461bcd60e51b815260206004820152600b60248201526a189b1858dadb1a5cdd195960aa1b60448201526064016106d5565b6001600160a01b03831660009081526005602052604090205460019060ff168061183357506001600160a01b03831660009081526005602052604090205460ff165b1561183c575060005b8015611994576001600160a01b03841660009081526009602052604090205460ff1615801561188457506001600160a01b03831660009081526009602052604090205460ff16155b15611994576015548211156118ec5760405162461bcd60e51b815260206004820152602860248201527f5472616e7366657220616d6f756e74206578636565647320746865206d6178546044820152673c20b6b7bab73a1760c11b60648201526084016106d5565b7f00000000000000000000000000000000000000000000000000000000000000006001600160a01b0316836001600160a01b0316146119945760165461193184610e39565b61193b9084612654565b11156119945760405162461bcd60e51b815260206004820152602260248201527f526563697069656e742065786365656473206d61782077616c6c65742073697a604482015261329760f11b60648201526084016106d5565b61100384848484611bf3565b600081848411156119c45760405162461bcd60e51b81526004016106d591906123d7565b5060006119d184866125ef565b95945050505050565b60008060006119e7611e47565b90925090506119f682826119fd565b9250505090565b600061095983836040518060400160405280601a81526020017f536166654d6174683a206469766973696f6e206279207a65726f000000000000815250611fc9565b600080611a4c8385612654565b9050838110156109595760405162461bcd60e51b815260206004820152601b60248201527f536166654d6174683a206164646974696f6e206f766572666c6f77000000000060448201526064016106d5565b600061095983836040518060400160405280601e81526020017f536166654d6174683a207375627472616374696f6e206f766572666c6f7700008152506119a0565b600080600080611aef85611ff7565b90506000611afc86612013565b90506000611b0a8784611a9e565b9050611b168183611a9e565b979296509094509092505050565b6000808080611b338886611b74565b90506000611b418887611b74565b90506000611b4f8888611b74565b90506000611b6182610ba78686611a9e565b939b939a50919850919650505050505050565b600082611b83575060006106a5565b6000611b8f838561266c565b905082611b9c858361268b565b146109595760405162461bcd60e51b815260206004820152602160248201527f536166654d6174683a206d756c7469706c69636174696f6e206f766572666c6f6044820152607760f81b60648201526084016106d5565b8015611ce157611c0b6014805463ffffffff19169055565b7f00000000000000000000000000000000000000000000000000000000000000006001600160a01b0316846001600160a01b03161415611c7657611c76601254601480546201000080840461ffff90811690910263ffffffff19909216931692909217919091179055565b7f00000000000000000000000000000000000000000000000000000000000000006001600160a01b0316836001600160a01b03161415611ce157611ce1601354601480546201000080840461ffff90811690910263ffffffff19909216931692909217919091179055565b6001600160a01b03841660009081526006602052604090205460ff168015611d2257506001600160a01b03831660009081526006602052604090205460ff16155b15611d3757611d32848484612035565b611e35565b6001600160a01b03841660009081526006602052604090205460ff16158015611d7857506001600160a01b03831660009081526006602052604090205460ff165b15611d8857611d32848484612169565b6001600160a01b03841660009081526006602052604090205460ff16158015611dca57506001600160a01b03831660009081526006602052604090205460ff16155b15611dda57611d32848484612220565b6001600160a01b03841660009081526006602052604090205460ff168015611e1a57506001600160a01b03831660009081526006602052604090205460ff165b15611e2a57611d32848484612272565b611e35848484612220565b6110036014805463ffffffff19169055565b600c54600b546000918291825b600754811015611f9957826002600060078481548110611e7657611e766125c3565b60009182526020808320909101546001600160a01b031683528201929092526040019020541180611ee15750816003600060078481548110611eba57611eba6125c3565b60009182526020808320909101546001600160a01b03168352820192909252604001902054115b15611ef757600c54600b54945094505050509091565b611f3d6002600060078481548110611f1157611f116125c3565b60009182526020808320909101546001600160a01b031683528201929092526040019020548490611a9e565b9250611f856003600060078481548110611f5957611f596125c3565b60009182526020808320909101546001600160a01b031683528201929092526040019020548390611a9e565b915080611f918161261c565b915050611e54565b50600b54600c54611fa9916119fd565b821015611fc057600c54600b549350935050509091565b90939092509050565b60008183611fea5760405162461bcd60e51b81526004016106d591906123d7565b5060006119d1848661268b565b6014546000906106a5906064906110fc90859061ffff16611b74565b6014546000906106a5906064906110fc90859062010000900461ffff16611b74565b600080600061204384611ae0565b925092509250600080600061205c878686610cc16119da565b6001600160a01b038c1660009081526003602052604090205492955090935091506120879088611a9e565b6001600160a01b038a166000908152600360209081526040808320939093556002905220546120b69084611a9e565b6001600160a01b03808b1660009081526002602052604080822093909355908a16815220546120e59083611a3f565b6001600160a01b038916600090815260026020526040902055612107846122f3565b61211181866123b3565b876001600160a01b0316896001600160a01b03167fddf252ad1be2c89b69c2b068fc378daa952ba7f163c4a11628f55a4df523b3ef8860405161215691815260200190565b60405180910390a3505050505050505050565b600080600061217784611ae0565b9250925092506000806000612190878686610cc16119da565b6001600160a01b038c1660009081526002602052604090205492955090935091506121bb9084611a9e565b6001600160a01b03808b16600090815260026020908152604080832094909455918b168152600390915220546121f19087611a3f565b6001600160a01b0389166000908152600360209081526040808320939093556002905220546120e59083611a3f565b600080600061222e84611ae0565b9250925092506000806000612247878686610cc16119da565b6001600160a01b038c1660009081526002602052604090205492955090935091506120b69084611a9e565b600080600061228084611ae0565b9250925092506000806000612299878686610cc16119da565b6001600160a01b038c1660009081526003602052604090205492955090935091506122c49088611a9e565b6001600160a01b038a166000908152600360209081526040808320939093556002905220546121bb9084611a9e565b60006122fd6119da565b9050600061230b8383611b74565b600e546001600160a01b03166000908152600260205260409020549091506123339082611a3f565b600e80546001600160a01b03908116600090815260026020908152604080832095909555925490911681526006909152205460ff16156123ae57600e546001600160a01b03166000908152600360205260409020546123929084611a3f565b600e546001600160a01b03166000908152600360205260409020555b505050565b600c546123c09083611a9e565b600c55600d546123d09082611a3f565b600d555050565b600060208083528351808285015260005b81811015612404578581018301518582016040015282016123e8565b81811115612416576000604083870101525b50601f01601f1916929092016040019392505050565b6001600160a01b038116811461244157600080fd5b50565b6000806040838503121561245757600080fd5b82356124628161242c565b946020939093013593505050565b60006020828403121561248257600080fd5b81356109598161242c565b6000806000606084860312156124a257600080fd5b83356124ad8161242c565b925060208401356124bd8161242c565b929592945050506040919091013590565b6000602082840312156124e057600080fd5b5035919050565b801515811461244157600080fd5b6000806040838503121561250857600080fd5b82359150602083013561251a816124e7565b809150509250929050565b6000806040838503121561253857600080fd5b82356125438161242c565b9150602083013561251a8161242c565b600181811c9082168061256757607f821691505b6020821081141561258857634e487b7160e01b600052602260045260246000fd5b50919050565b6020808252818101527f4f776e61626c653a2063616c6c6572206973206e6f7420746865206f776e6572604082015260600190565b634e487b7160e01b600052603260045260246000fd5b634e487b7160e01b600052601160045260246000fd5b600082821015612601576126016125d9565b500390565b634e487b7160e01b600052603160045260246000fd5b6000600019821415612630576126306125d9565b5060010190565b60006020828403121561264957600080fd5b8151610959816124e7565b60008219821115612667576126676125d9565b500190565b6000816000190483118215151615612686576126866125d9565b500290565b6000826126a857634e487b7160e01b600052601260045260246000fd5b50049056fe45524332303a207472616e7366657220616d6f756e74206578636565647320616c6c6f77616e636545524332303a2064656372656173656420616c6c6f77616e63652062656c6f77207a65726fa2646970667358221220aa170fd1932ee23297792089715b04acf719b51f0b4d71187b457180b3497c2e64736f6c634300080a0033",
					"opcodes": "PUSH1 0xC0 PUSH1 0x40 MSTORE PUSH7 0x2386F26FC10000 PUSH1 0xB DUP2 SWAP1 SSTORE PUSH3 0x1F SWAP1 PUSH1 0x0 NOT PUSH3 0x4BD JUMP JUMPDEST PUSH3 0x2D SWAP1 PUSH1 0x0 NOT PUSH3 0x4E0 JUMP JUMPDEST PUSH1 0xC SSTORE PUSH1 0xE DUP1 SLOAD PUSH1 0x1 PUSH1 0x1 PUSH1 0xA0 SHL SUB NOT AND PUSH20 0xC97137BDC16BB7A7548710EE0256410251CB4956 OR SWAP1 SSTORE PUSH1 0x40 DUP1 MLOAD DUP1 DUP3 ADD SWAP1 SWAP2 MSTORE PUSH1 0xD DUP1 DUP3 MSTORE PUSH13 0x436F666665652043727970746F PUSH1 0x98 SHL PUSH1 0x20 SWAP1 SWAP3 ADD SWAP2 DUP3 MSTORE PUSH3 0x8C SWAP2 PUSH1 0xF SWAP2 PUSH3 0x417 JUMP JUMPDEST POP PUSH1 0x40 DUP1 MLOAD DUP1 DUP3 ADD SWAP1 SWAP2 MSTORE PUSH1 0x4 DUP1 DUP3 MSTORE PUSH4 0x43464545 PUSH1 0xE0 SHL PUSH1 0x20 SWAP1 SWAP3 ADD SWAP2 DUP3 MSTORE PUSH3 0xBA SWAP2 PUSH1 0x10 SWAP2 PUSH3 0x417 JUMP JUMPDEST POP PUSH1 0x11 DUP1 SLOAD PUSH1 0xFF NOT AND PUSH1 0x8 OR SWAP1 SSTORE PUSH9 0x1B1AE4D6E2EF500000 PUSH1 0x15 SSTORE PUSH9 0x6C6B935B8BBD400000 PUSH1 0x16 SSTORE CALLVALUE DUP1 ISZERO PUSH3 0xEF JUMPI PUSH1 0x0 DUP1 REVERT JUMPDEST POP PUSH1 0x0 DUP1 SLOAD PUSH1 0x1 PUSH1 0x1 PUSH1 0xA0 SHL SUB NOT AND CALLER SWAP1 DUP2 OR DUP3 SSTORE PUSH1 0x40 MLOAD SWAP1 SWAP2 DUP3 SWAP2 PUSH32 0x8BE0079C531659141344CD1FD0A4F28419497F9722A3DAAFE3B4186F6B6457E0 SWAP1 DUP3 SWAP1 LOG3 POP PUSH1 0xC SLOAD CALLER PUSH1 0x0 SWAP1 DUP2 MSTORE PUSH1 0x2 PUSH1 0x20 SWAP1 DUP2 MSTORE PUSH1 0x40 SWAP2 DUP3 SWAP1 KECCAK256 SWAP3 SWAP1 SWAP3 SSTORE PUSH1 0x12 DUP1 SLOAD PUSH4 0xFFFFFFFF NOT SWAP1 DUP2 AND PUSH3 0x20002 OR SWAP1 SWAP2 SSTORE PUSH1 0x13 DUP1 SLOAD SWAP1 SWAP2 AND PUSH3 0x50005 OR SWAP1 SSTORE DUP1 MLOAD PUSH4 0xC45A0155 PUSH1 0xE0 SHL DUP2 MSTORE SWAP1 MLOAD PUSH20 0xD99D1C33F9FC3444F8101754ABC46C52416550D1 SWAP3 DUP4 SWAP3 PUSH4 0xC45A0155 SWAP3 PUSH1 0x4 DUP1 DUP4 ADD SWAP4 SWAP3 DUP3 SWAP1 SUB ADD DUP2 DUP7 GAS STATICCALL ISZERO DUP1 ISZERO PUSH3 0x1BB JUMPI RETURNDATASIZE PUSH1 0x0 DUP1 RETURNDATACOPY RETURNDATASIZE PUSH1 0x0 REVERT JUMPDEST POP POP POP POP PUSH1 0x40 MLOAD RETURNDATASIZE PUSH1 0x1F NOT PUSH1 0x1F DUP3 ADD AND DUP3 ADD DUP1 PUSH1 0x40 MSTORE POP DUP2 ADD SWAP1 PUSH3 0x1E1 SWAP2 SWAP1 PUSH3 0x506 JUMP JUMPDEST PUSH1 0x1 PUSH1 0x1 PUSH1 0xA0 SHL SUB AND PUSH4 0xC9C65396 ADDRESS DUP4 PUSH1 0x1 PUSH1 0x1 PUSH1 0xA0 SHL SUB AND PUSH4 0xAD5C4648 PUSH1 0x40 MLOAD DUP2 PUSH4 0xFFFFFFFF AND PUSH1 0xE0 SHL DUP2 MSTORE PUSH1 0x4 ADD PUSH1 0x20 PUSH1 0x40 MLOAD DUP1 DUP4 SUB DUP2 DUP7 GAS STATICCALL ISZERO DUP1 ISZERO PUSH3 0x22F JUMPI RETURNDATASIZE PUSH1 0x0 DUP1 RETURNDATACOPY RETURNDATASIZE PUSH1 0x0 REVERT JUMPDEST POP POP POP POP PUSH1 0x40 MLOAD RETURNDATASIZE PUSH1 0x1F NOT PUSH1 0x1F DUP3 ADD AND DUP3 ADD DUP1 PUSH1 0x40 MSTORE POP DUP2 ADD SWAP1 PUSH3 0x255 SWAP2 SWAP1 PUSH3 0x506 JUMP JUMPDEST PUSH1 0x40 MLOAD PUSH1 0x1 PUSH1 0x1 PUSH1 0xE0 SHL SUB NOT PUSH1 0xE0 DUP6 SWAP1 SHL AND DUP2 MSTORE PUSH1 0x1 PUSH1 0x1 PUSH1 0xA0 SHL SUB SWAP3 DUP4 AND PUSH1 0x4 DUP3 ADD MSTORE SWAP2 AND PUSH1 0x24 DUP3 ADD MSTORE PUSH1 0x44 ADD PUSH1 0x20 PUSH1 0x40 MLOAD DUP1 DUP4 SUB DUP2 PUSH1 0x0 DUP8 GAS CALL ISZERO DUP1 ISZERO PUSH3 0x2A3 JUMPI RETURNDATASIZE PUSH1 0x0 DUP1 RETURNDATACOPY RETURNDATASIZE PUSH1 0x0 REVERT JUMPDEST POP POP POP POP PUSH1 0x40 MLOAD RETURNDATASIZE PUSH1 0x1F NOT PUSH1 0x1F DUP3 ADD AND DUP3 ADD DUP1 PUSH1 0x40 MSTORE POP DUP2 ADD SWAP1 PUSH3 0x2C9 SWAP2 SWAP1 PUSH3 0x506 JUMP JUMPDEST PUSH1 0x1 PUSH1 0x1 PUSH1 0xA0 SHL SUB SWAP1 DUP2 AND PUSH1 0xA0 MSTORE DUP2 AND PUSH1 0x80 MSTORE PUSH1 0x1 PUSH1 0x5 PUSH1 0x0 PUSH3 0x2F5 PUSH1 0x0 SLOAD PUSH1 0x1 PUSH1 0x1 PUSH1 0xA0 SHL SUB AND SWAP1 JUMP JUMPDEST PUSH1 0x1 PUSH1 0x1 PUSH1 0xA0 SHL SUB SWAP1 DUP2 AND DUP3 MSTORE PUSH1 0x20 DUP1 DUP4 ADD SWAP4 SWAP1 SWAP4 MSTORE PUSH1 0x40 SWAP2 DUP3 ADD PUSH1 0x0 SWAP1 DUP2 KECCAK256 DUP1 SLOAD SWAP6 ISZERO ISZERO PUSH1 0xFF NOT SWAP7 DUP8 AND OR SWAP1 SSTORE ADDRESS DUP2 MSTORE PUSH1 0x5 DUP5 MSTORE DUP3 DUP2 KECCAK256 DUP1 SLOAD DUP7 AND PUSH1 0x1 SWAP1 DUP2 OR SWAP1 SWAP2 SSTORE PUSH1 0xE DUP1 SLOAD DUP5 AND DUP4 MSTORE DUP5 DUP4 KECCAK256 DUP1 SLOAD DUP9 AND DUP4 OR SWAP1 SSTORE SLOAD SWAP1 SWAP3 AND DUP2 MSTORE PUSH1 0x9 SWAP4 DUP5 SWAP1 MSTORE SWAP2 DUP3 KECCAK256 DUP1 SLOAD SWAP1 SWAP5 AND DUP2 OR SWAP1 SWAP4 SSTORE PUSH3 0x378 PUSH1 0x0 SLOAD PUSH1 0x1 PUSH1 0x1 PUSH1 0xA0 SHL SUB AND SWAP1 JUMP JUMPDEST PUSH1 0x1 PUSH1 0x1 PUSH1 0xA0 SHL SUB AND DUP2 MSTORE PUSH1 0x20 DUP1 DUP3 ADD SWAP3 SWAP1 SWAP3 MSTORE PUSH1 0x40 SWAP1 DUP2 ADD PUSH1 0x0 SWAP1 DUP2 KECCAK256 DUP1 SLOAD SWAP5 ISZERO ISZERO PUSH1 0xFF NOT SWAP6 DUP7 AND OR SWAP1 SSTORE ADDRESS DUP2 MSTORE PUSH1 0x9 SWAP1 SWAP3 MSTORE SWAP1 KECCAK256 DUP1 SLOAD SWAP1 SWAP2 AND PUSH1 0x1 OR SWAP1 SSTORE PUSH3 0x3C0 CALLER SWAP1 JUMP JUMPDEST PUSH1 0x1 PUSH1 0x1 PUSH1 0xA0 SHL SUB AND PUSH1 0x0 PUSH1 0x1 PUSH1 0x1 PUSH1 0xA0 SHL SUB AND PUSH32 0xDDF252AD1BE2C89B69C2B068FC378DAA952BA7F163C4A11628F55A4DF523B3EF PUSH1 0xB SLOAD PUSH1 0x40 MLOAD PUSH3 0x408 SWAP2 DUP2 MSTORE PUSH1 0x20 ADD SWAP1 JUMP JUMPDEST PUSH1 0x40 MLOAD DUP1 SWAP2 SUB SWAP1 LOG3 POP PUSH3 0x575 JUMP JUMPDEST DUP3 DUP1 SLOAD PUSH3 0x425 SWAP1 PUSH3 0x538 JUMP JUMPDEST SWAP1 PUSH1 0x0 MSTORE PUSH1 0x20 PUSH1 0x0 KECCAK256 SWAP1 PUSH1 0x1F ADD PUSH1 0x20 SWAP1 DIV DUP2 ADD SWAP3 DUP3 PUSH3 0x449 JUMPI PUSH1 0x0 DUP6 SSTORE PUSH3 0x494 JUMP JUMPDEST DUP3 PUSH1 0x1F LT PUSH3 0x464 JUMPI DUP1 MLOAD PUSH1 0xFF NOT AND DUP4 DUP1 ADD OR DUP6 SSTORE PUSH3 0x494 JUMP JUMPDEST DUP3 DUP1 ADD PUSH1 0x1 ADD DUP6 SSTORE DUP3 ISZERO PUSH3 0x494 JUMPI SWAP2 DUP3 ADD JUMPDEST DUP3 DUP2 GT ISZERO PUSH3 0x494 JUMPI DUP3 MLOAD DUP3 SSTORE SWAP2 PUSH1 0x20 ADD SWAP2 SWAP1 PUSH1 0x1 ADD SWAP1 PUSH3 0x477 JUMP JUMPDEST POP PUSH3 0x4A2 SWAP3 SWAP2 POP PUSH3 0x4A6 JUMP JUMPDEST POP SWAP1 JUMP JUMPDEST JUMPDEST DUP1 DUP3 GT ISZERO PUSH3 0x4A2 JUMPI PUSH1 0x0 DUP2 SSTORE PUSH1 0x1 ADD PUSH3 0x4A7 JUMP JUMPDEST PUSH1 0x0 DUP3 PUSH3 0x4DB JUMPI PUSH4 0x4E487B71 PUSH1 0xE0 SHL PUSH1 0x0 MSTORE PUSH1 0x12 PUSH1 0x4 MSTORE PUSH1 0x24 PUSH1 0x0 REVERT JUMPDEST POP MOD SWAP1 JUMP JUMPDEST PUSH1 0x0 DUP3 DUP3 LT ISZERO PUSH3 0x501 JUMPI PUSH4 0x4E487B71 PUSH1 0xE0 SHL PUSH1 0x0 MSTORE PUSH1 0x11 PUSH1 0x4 MSTORE PUSH1 0x24 PUSH1 0x0 REVERT JUMPDEST POP SUB SWAP1 JUMP JUMPDEST PUSH1 0x0 PUSH1 0x20 DUP3 DUP5 SUB SLT ISZERO PUSH3 0x519 JUMPI PUSH1 0x0 DUP1 REVERT JUMPDEST DUP2 MLOAD PUSH1 0x1 PUSH1 0x1 PUSH1 0xA0 SHL SUB DUP2 AND DUP2 EQ PUSH3 0x531 JUMPI PUSH1 0x0 DUP1 REVERT JUMPDEST SWAP4 SWAP3 POP POP POP JUMP JUMPDEST PUSH1 0x1 DUP2 DUP2 SHR SWAP1 DUP3 AND DUP1 PUSH3 0x54D JUMPI PUSH1 0x7F DUP3 AND SWAP2 POP JUMPDEST PUSH1 0x20 DUP3 LT DUP2 EQ ISZERO PUSH3 0x56F JUMPI PUSH4 0x4E487B71 PUSH1 0xE0 SHL PUSH1 0x0 MSTORE PUSH1 0x22 PUSH1 0x4 MSTORE PUSH1 0x24 PUSH1 0x0 REVERT JUMPDEST POP SWAP2 SWAP1 POP JUMP JUMPDEST PUSH1 0x80 MLOAD PUSH1 0xA0 MLOAD PUSH2 0x2730 PUSH3 0x5B0 PUSH1 0x0 CODECOPY PUSH1 0x0 DUP2 DUP2 PUSH2 0x3F9 ADD MSTORE DUP2 DUP2 PUSH2 0x18EE ADD MSTORE DUP2 DUP2 PUSH2 0x1C0D ADD MSTORE PUSH2 0x1C78 ADD MSTORE PUSH1 0x0 PUSH2 0x2BA ADD MSTORE PUSH2 0x2730 PUSH1 0x0 RETURN INVALID PUSH1 0x80 PUSH1 0x40 MSTORE CALLVALUE DUP1 ISZERO PUSH2 0x10 JUMPI PUSH1 0x0 DUP1 REVERT JUMPDEST POP PUSH1 0x4 CALLDATASIZE LT PUSH2 0x248 JUMPI PUSH1 0x0 CALLDATALOAD PUSH1 0xE0 SHR DUP1 PUSH4 0x5342ACB4 GT PUSH2 0x13B JUMPI DUP1 PUSH4 0xA457C2D7 GT PUSH2 0xB8 JUMPI DUP1 PUSH4 0xD543DBEB GT PUSH2 0x7C JUMPI DUP1 PUSH4 0xD543DBEB EQ PUSH2 0x564 JUMPI DUP1 PUSH4 0xD94160E0 EQ PUSH2 0x577 JUMPI DUP1 PUSH4 0xDD62ED3E EQ PUSH2 0x5A3 JUMPI DUP1 PUSH4 0xEA2F0B37 EQ PUSH2 0x5DC JUMPI DUP1 PUSH4 0xF2FDE38B EQ PUSH2 0x5EF JUMPI PUSH1 0x0 DUP1 REVERT JUMPDEST DUP1 PUSH4 0xA457C2D7 EQ PUSH2 0x505 JUMPI DUP1 PUSH4 0xA9059CBB EQ PUSH2 0x518 JUMPI DUP1 PUSH4 0xAF2CE614 EQ PUSH2 0x52B JUMPI DUP1 PUSH4 0xB030B34A EQ PUSH2 0x53E JUMPI DUP1 PUSH4 0xBA1C4246 EQ PUSH2 0x551 JUMPI PUSH1 0x0 DUP1 REVERT JUMPDEST DUP1 PUSH4 0x8DA5CB5B GT PUSH2 0xFF JUMPI DUP1 PUSH4 0x8DA5CB5B EQ PUSH2 0x4BD JUMPI DUP1 PUSH4 0x8F9A55C0 EQ PUSH2 0x4CE JUMPI DUP1 PUSH4 0x91D919A9 EQ PUSH2 0x4D7 JUMPI DUP1 PUSH4 0x95D89B41 EQ PUSH2 0x4EA JUMPI DUP1 PUSH4 0x9E281A98 EQ PUSH2 0x4F2 JUMPI PUSH1 0x0 DUP1 REVERT JUMPDEST DUP1 PUSH4 0x5342ACB4 EQ PUSH2 0x441 JUMPI DUP1 PUSH4 0x70A08231 EQ PUSH2 0x46D JUMPI DUP1 PUSH4 0x715018A6 EQ PUSH2 0x480 JUMPI DUP1 PUSH4 0x7D1DB4A5 EQ PUSH2 0x488 JUMPI DUP1 PUSH4 0x88F82020 EQ PUSH2 0x491 JUMPI PUSH1 0x0 DUP1 REVERT JUMPDEST DUP1 PUSH4 0x313CE567 GT PUSH2 0x1C9 JUMPI DUP1 PUSH4 0x4549B039 GT PUSH2 0x18D JUMPI DUP1 PUSH4 0x4549B039 EQ PUSH2 0x3C9 JUMPI DUP1 PUSH4 0x47062402 EQ PUSH2 0x3DC JUMPI DUP1 PUSH4 0x49BD5A5E EQ PUSH2 0x3F4 JUMPI DUP1 PUSH4 0x4EEB94CE EQ PUSH2 0x41B JUMPI DUP1 PUSH4 0x52390C02 EQ PUSH2 0x42E JUMPI PUSH1 0x0 DUP1 REVERT JUMPDEST DUP1 PUSH4 0x313CE567 EQ PUSH2 0x368 JUMPI DUP1 PUSH4 0x3685D419 EQ PUSH2 0x37D JUMPI DUP1 PUSH4 0x39509351 EQ PUSH2 0x390 JUMPI DUP1 PUSH4 0x42966C68 EQ PUSH2 0x3A3 JUMPI DUP1 PUSH4 0x437823EC EQ PUSH2 0x3B6 JUMPI PUSH1 0x0 DUP1 REVERT JUMPDEST DUP1 PUSH4 0x18160DDD GT PUSH2 0x210 JUMPI DUP1 PUSH4 0x18160DDD EQ PUSH2 0x2F4 JUMPI DUP1 PUSH4 0x1D7EF879 EQ PUSH2 0x2FC JUMPI DUP1 PUSH4 0x23B872DD EQ PUSH2 0x30F JUMPI DUP1 PUSH4 0x2B14CA56 EQ PUSH2 0x322 JUMPI DUP1 PUSH4 0x2D838119 EQ PUSH2 0x355 JUMPI PUSH1 0x0 DUP1 REVERT JUMPDEST DUP1 PUSH4 0x6FDDE03 EQ PUSH2 0x24D JUMPI DUP1 PUSH4 0x95EA7B3 EQ PUSH2 0x26B JUMPI DUP1 PUSH4 0xBD3A7F9 EQ PUSH2 0x28E JUMPI DUP1 PUSH4 0x13114A9D EQ PUSH2 0x2A3 JUMPI DUP1 PUSH4 0x1694505E EQ PUSH2 0x2B5 JUMPI JUMPDEST PUSH1 0x0 DUP1 REVERT JUMPDEST PUSH2 0x255 PUSH2 0x602 JUMP JUMPDEST PUSH1 0x40 MLOAD PUSH2 0x262 SWAP2 SWAP1 PUSH2 0x23D7 JUMP JUMPDEST PUSH1 0x40 MLOAD DUP1 SWAP2 SUB SWAP1 RETURN JUMPDEST PUSH2 0x27E PUSH2 0x279 CALLDATASIZE PUSH1 0x4 PUSH2 0x2444 JUMP JUMPDEST PUSH2 0x694 JUMP JUMPDEST PUSH1 0x40 MLOAD SWAP1 ISZERO ISZERO DUP2 MSTORE PUSH1 0x20 ADD PUSH2 0x262 JUMP JUMPDEST PUSH2 0x2A1 PUSH2 0x29C CALLDATASIZE PUSH1 0x4 PUSH2 0x2470 JUMP JUMPDEST PUSH2 0x6AB JUMP JUMPDEST STOP JUMPDEST PUSH1 0xD SLOAD JUMPDEST PUSH1 0x40 MLOAD SWAP1 DUP2 MSTORE PUSH1 0x20 ADD PUSH2 0x262 JUMP JUMPDEST PUSH2 0x2DC PUSH32 0x0 DUP2 JUMP JUMPDEST PUSH1 0x40 MLOAD PUSH1 0x1 PUSH1 0x1 PUSH1 0xA0 SHL SUB SWAP1 SWAP2 AND DUP2 MSTORE PUSH1 0x20 ADD PUSH2 0x262 JUMP JUMPDEST PUSH1 0xB SLOAD PUSH2 0x2A7 JUMP JUMPDEST PUSH2 0x2A1 PUSH2 0x30A CALLDATASIZE PUSH1 0x4 PUSH2 0x2470 JUMP JUMPDEST PUSH2 0x702 JUMP JUMPDEST PUSH2 0x27E PUSH2 0x31D CALLDATASIZE PUSH1 0x4 PUSH2 0x248D JUMP JUMPDEST PUSH2 0x873 JUMP JUMPDEST PUSH1 0x13 SLOAD PUSH2 0x33A SWAP1 PUSH2 0xFFFF DUP1 DUP3 AND SWAP2 PUSH3 0x10000 SWAP1 DIV AND DUP3 JUMP JUMPDEST PUSH1 0x40 DUP1 MLOAD PUSH2 0xFFFF SWAP4 DUP5 AND DUP2 MSTORE SWAP3 SWAP1 SWAP2 AND PUSH1 0x20 DUP4 ADD MSTORE ADD PUSH2 0x262 JUMP JUMPDEST PUSH2 0x2A7 PUSH2 0x363 CALLDATASIZE PUSH1 0x4 PUSH2 0x24CE JUMP JUMPDEST PUSH2 0x8DC JUMP JUMPDEST PUSH1 0x11 SLOAD PUSH1 0x40 MLOAD PUSH1 0xFF SWAP1 SWAP2 AND DUP2 MSTORE PUSH1 0x20 ADD PUSH2 0x262 JUMP JUMPDEST PUSH2 0x2A1 PUSH2 0x38B CALLDATASIZE PUSH1 0x4 PUSH2 0x2470 JUMP JUMPDEST PUSH2 0x960 JUMP JUMPDEST PUSH2 0x27E PUSH2 0x39E CALLDATASIZE PUSH1 0x4 PUSH2 0x2444 JUMP JUMPDEST PUSH2 0xB17 JUMP JUMPDEST PUSH2 0x2A1 PUSH2 0x3B1 CALLDATASIZE PUSH1 0x4 PUSH2 0x24CE JUMP JUMPDEST PUSH2 0xB4D JUMP JUMPDEST PUSH2 0x2A1 PUSH2 0x3C4 CALLDATASIZE PUSH1 0x4 PUSH2 0x2470 JUMP JUMPDEST PUSH2 0xBFD JUMP JUMPDEST PUSH2 0x2A7 PUSH2 0x3D7 CALLDATASIZE PUSH1 0x4 PUSH2 0x24F5 JUMP JUMPDEST PUSH2 0xC4B JUMP JUMPDEST PUSH1 0x12 SLOAD PUSH2 0x33A SWAP1 PUSH2 0xFFFF DUP1 DUP3 AND SWAP2 PUSH3 0x10000 SWAP1 DIV AND DUP3 JUMP JUMPDEST PUSH2 0x2DC PUSH32 0x0 DUP2 JUMP JUMPDEST PUSH1 0xE SLOAD PUSH2 0x2DC SWAP1 PUSH1 0x1 PUSH1 0x1 PUSH1 0xA0 SHL SUB AND DUP2 JUMP JUMPDEST PUSH2 0x2A1 PUSH2 0x43C CALLDATASIZE PUSH1 0x4 PUSH2 0x2470 JUMP JUMPDEST PUSH2 0xCE6 JUMP JUMPDEST PUSH2 0x27E PUSH2 0x44F CALLDATASIZE PUSH1 0x4 PUSH2 0x2470 JUMP JUMPDEST PUSH1 0x1 PUSH1 0x1 PUSH1 0xA0 SHL SUB AND PUSH1 0x0 SWAP1 DUP2 MSTORE PUSH1 0x5 PUSH1 0x20 MSTORE PUSH1 0x40 SWAP1 KECCAK256 SLOAD PUSH1 0xFF AND SWAP1 JUMP JUMPDEST PUSH2 0x2A7 PUSH2 0x47B CALLDATASIZE PUSH1 0x4 PUSH2 0x2470 JUMP JUMPDEST PUSH2 0xE39 JUMP JUMPDEST PUSH2 0x2A1 PUSH2 0xE98 JUMP JUMPDEST PUSH2 0x2A7 PUSH1 0x15 SLOAD DUP2 JUMP JUMPDEST PUSH2 0x27E PUSH2 0x49F CALLDATASIZE PUSH1 0x4 PUSH2 0x2470 JUMP JUMPDEST PUSH1 0x1 PUSH1 0x1 PUSH1 0xA0 SHL SUB AND PUSH1 0x0 SWAP1 DUP2 MSTORE PUSH1 0x6 PUSH1 0x20 MSTORE PUSH1 0x40 SWAP1 KECCAK256 SLOAD PUSH1 0xFF AND SWAP1 JUMP JUMPDEST PUSH1 0x0 SLOAD PUSH1 0x1 PUSH1 0x1 PUSH1 0xA0 SHL SUB AND PUSH2 0x2DC JUMP JUMPDEST PUSH2 0x2A7 PUSH1 0x16 SLOAD DUP2 JUMP JUMPDEST PUSH2 0x2A1 PUSH2 0x4E5 CALLDATASIZE PUSH1 0x4 PUSH2 0x2470 JUMP JUMPDEST PUSH2 0xF0C JUMP JUMPDEST PUSH2 0x255 PUSH2 0xF57 JUMP JUMPDEST PUSH2 0x2A1 PUSH2 0x500 CALLDATASIZE PUSH1 0x4 PUSH2 0x2444 JUMP JUMPDEST PUSH2 0xF66 JUMP JUMPDEST PUSH2 0x27E PUSH2 0x513 CALLDATASIZE PUSH1 0x4 PUSH2 0x2444 JUMP JUMPDEST PUSH2 0x1009 JUMP JUMPDEST PUSH2 0x27E PUSH2 0x526 CALLDATASIZE PUSH1 0x4 PUSH2 0x2444 JUMP JUMPDEST PUSH2 0x1058 JUMP JUMPDEST PUSH2 0x2A1 PUSH2 0x539 CALLDATASIZE PUSH1 0x4 PUSH2 0x24CE JUMP JUMPDEST PUSH2 0x1065 JUMP JUMPDEST PUSH2 0x2A1 PUSH2 0x54C CALLDATASIZE PUSH1 0x4 PUSH2 0x2470 JUMP JUMPDEST PUSH2 0x1108 JUMP JUMPDEST PUSH2 0x2A1 PUSH2 0x55F CALLDATASIZE PUSH1 0x4 PUSH2 0x2470 JUMP JUMPDEST PUSH2 0x128C JUMP JUMPDEST PUSH2 0x2A1 PUSH2 0x572 CALLDATASIZE PUSH1 0x4 PUSH2 0x24CE JUMP JUMPDEST PUSH2 0x12D8 JUMP JUMPDEST PUSH2 0x27E PUSH2 0x585 CALLDATASIZE PUSH1 0x4 PUSH2 0x2470 JUMP JUMPDEST PUSH1 0x1 PUSH1 0x1 PUSH1 0xA0 SHL SUB AND PUSH1 0x0 SWAP1 DUP2 MSTORE PUSH1 0x9 PUSH1 0x20 MSTORE PUSH1 0x40 SWAP1 KECCAK256 SLOAD PUSH1 0xFF AND SWAP1 JUMP JUMPDEST PUSH2 0x2A7 PUSH2 0x5B1 CALLDATASIZE PUSH1 0x4 PUSH2 0x2525 JUMP JUMPDEST PUSH1 0x1 PUSH1 0x1 PUSH1 0xA0 SHL SUB SWAP2 DUP3 AND PUSH1 0x0 SWAP1 DUP2 MSTORE PUSH1 0x4 PUSH1 0x20 SWAP1 DUP2 MSTORE PUSH1 0x40 DUP1 DUP4 KECCAK256 SWAP4 SWAP1 SWAP5 AND DUP3 MSTORE SWAP2 SWAP1 SWAP2 MSTORE KECCAK256 SLOAD SWAP1 JUMP JUMPDEST PUSH2 0x2A1 PUSH2 0x5EA CALLDATASIZE PUSH1 0x4 PUSH2 0x2470 JUMP JUMPDEST PUSH2 0x1375 JUMP JUMPDEST PUSH2 0x2A1 PUSH2 0x5FD CALLDATASIZE PUSH1 0x4 PUSH2 0x2470 JUMP JUMPDEST PUSH2 0x13C0 JUMP JUMPDEST PUSH1 0x60 PUSH1 0xF DUP1 SLOAD PUSH2 0x611 SWAP1 PUSH2 0x2553 JUMP JUMPDEST DUP1 PUSH1 0x1F ADD PUSH1 0x20 DUP1 SWAP2 DIV MUL PUSH1 0x20 ADD PUSH1 0x40 MLOAD SWAP1 DUP2 ADD PUSH1 0x40 MSTORE DUP1 SWAP3 SWAP2 SWAP1 DUP2 DUP2 MSTORE PUSH1 0x20 ADD DUP3 DUP1 SLOAD PUSH2 0x63D SWAP1 PUSH2 0x2553 JUMP JUMPDEST DUP1 ISZERO PUSH2 0x68A JUMPI DUP1 PUSH1 0x1F LT PUSH2 0x65F JUMPI PUSH2 0x100 DUP1 DUP4 SLOAD DIV MUL DUP4 MSTORE SWAP2 PUSH1 0x20 ADD SWAP2 PUSH2 0x68A JUMP JUMPDEST DUP3 ADD SWAP2 SWAP1 PUSH1 0x0 MSTORE PUSH1 0x20 PUSH1 0x0 KECCAK256 SWAP1 JUMPDEST DUP2 SLOAD DUP2 MSTORE SWAP1 PUSH1 0x1 ADD SWAP1 PUSH1 0x20 ADD DUP1 DUP4 GT PUSH2 0x66D JUMPI DUP3 SWAP1 SUB PUSH1 0x1F AND DUP3 ADD SWAP2 JUMPDEST POP POP POP POP POP SWAP1 POP SWAP1 JUMP JUMPDEST PUSH1 0x0 PUSH2 0x6A1 CALLER DUP5 DUP5 PUSH2 0x14AA JUMP JUMPDEST POP PUSH1 0x1 JUMPDEST SWAP3 SWAP2 POP POP JUMP JUMPDEST PUSH1 0x0 SLOAD PUSH1 0x1 PUSH1 0x1 PUSH1 0xA0 SHL SUB AND CALLER EQ PUSH2 0x6DE JUMPI PUSH1 0x40 MLOAD PUSH3 0x461BCD PUSH1 0xE5 SHL DUP2 MSTORE PUSH1 0x4 ADD PUSH2 0x6D5 SWAP1 PUSH2 0x258E JUMP JUMPDEST PUSH1 0x40 MLOAD DUP1 SWAP2 SUB SWAP1 REVERT JUMPDEST PUSH1 0x1 PUSH1 0x1 PUSH1 0xA0 SHL SUB AND PUSH1 0x0 SWAP1 DUP2 MSTORE PUSH1 0x9 PUSH1 0x20 MSTORE PUSH1 0x40 SWAP1 KECCAK256 DUP1 SLOAD PUSH1 0xFF NOT AND PUSH1 0x1 OR SWAP1 SSTORE JUMP JUMPDEST PUSH1 0x0 SLOAD PUSH1 0x1 PUSH1 0x1 PUSH1 0xA0 SHL SUB AND CALLER EQ PUSH2 0x72C JUMPI PUSH1 0x40 MLOAD PUSH3 0x461BCD PUSH1 0xE5 SHL DUP2 MSTORE PUSH1 0x4 ADD PUSH2 0x6D5 SWAP1 PUSH2 0x258E JUMP JUMPDEST PUSH20 0xD99D1C33F9FC3444F8101754ABC46C52416550D1 PUSH1 0x1 PUSH1 0x1 PUSH1 0xA0 SHL SUB DUP3 AND EQ ISZERO PUSH2 0x7A4 JUMPI PUSH1 0x40 MLOAD PUSH3 0x461BCD PUSH1 0xE5 SHL DUP2 MSTORE PUSH1 0x20 PUSH1 0x4 DUP3 ADD MSTORE PUSH1 0x22 PUSH1 0x24 DUP3 ADD MSTORE PUSH32 0x57652063616E6E6F7420626C61636B6C69737420556E695377617020726F7574 PUSH1 0x44 DUP3 ADD MSTORE PUSH2 0x32B9 PUSH1 0xF1 SHL PUSH1 0x64 DUP3 ADD MSTORE PUSH1 0x84 ADD PUSH2 0x6D5 JUMP JUMPDEST PUSH1 0x1 PUSH1 0x1 PUSH1 0xA0 SHL SUB DUP2 AND PUSH1 0x0 SWAP1 DUP2 MSTORE PUSH1 0x8 PUSH1 0x20 MSTORE PUSH1 0x40 SWAP1 KECCAK256 SLOAD PUSH1 0xFF AND ISZERO PUSH2 0x80D JUMPI PUSH1 0x40 MLOAD PUSH3 0x461BCD PUSH1 0xE5 SHL DUP2 MSTORE PUSH1 0x20 PUSH1 0x4 DUP3 ADD MSTORE PUSH1 0x1E PUSH1 0x24 DUP3 ADD MSTORE PUSH32 0x4163636F756E7420697320616C726561647920626C61636B6C69737465640000 PUSH1 0x44 DUP3 ADD MSTORE PUSH1 0x64 ADD PUSH2 0x6D5 JUMP JUMPDEST PUSH1 0x1 PUSH1 0x1 PUSH1 0xA0 SHL SUB AND PUSH1 0x0 DUP2 DUP2 MSTORE PUSH1 0x8 PUSH1 0x20 MSTORE PUSH1 0x40 DUP2 KECCAK256 DUP1 SLOAD PUSH1 0xFF NOT AND PUSH1 0x1 SWAP1 DUP2 OR SWAP1 SWAP2 SSTORE PUSH1 0xA DUP1 SLOAD SWAP2 DUP3 ADD DUP2 SSTORE SWAP1 SWAP2 MSTORE PUSH32 0xC65A7BB8D6351C1CF70C95A316CC6A92839C986682D98BC35F958F4883F9D2A8 ADD DUP1 SLOAD PUSH1 0x1 PUSH1 0x1 PUSH1 0xA0 SHL SUB NOT AND SWAP1 SWAP2 OR SWAP1 SSTORE JUMP JUMPDEST PUSH1 0x0 PUSH2 0x880 DUP5 DUP5 DUP5 PUSH2 0x15CE JUMP JUMPDEST PUSH2 0x8D2 DUP5 CALLER PUSH2 0x8CD DUP6 PUSH1 0x40 MLOAD DUP1 PUSH1 0x60 ADD PUSH1 0x40 MSTORE DUP1 PUSH1 0x28 DUP2 MSTORE PUSH1 0x20 ADD PUSH2 0x26AE PUSH1 0x28 SWAP2 CODECOPY PUSH1 0x1 PUSH1 0x1 PUSH1 0xA0 SHL SUB DUP11 AND PUSH1 0x0 SWAP1 DUP2 MSTORE PUSH1 0x4 PUSH1 0x20 SWAP1 DUP2 MSTORE PUSH1 0x40 DUP1 DUP4 KECCAK256 CALLER DUP5 MSTORE SWAP1 SWAP2 MSTORE SWAP1 KECCAK256 SLOAD SWAP2 SWAP1 PUSH2 0x19A0 JUMP JUMPDEST PUSH2 0x14AA JUMP JUMPDEST POP PUSH1 0x1 SWAP4 SWAP3 POP POP POP JUMP JUMPDEST PUSH1 0x0 PUSH1 0xC SLOAD DUP3 GT ISZERO PUSH2 0x943 JUMPI PUSH1 0x40 MLOAD PUSH3 0x461BCD PUSH1 0xE5 SHL DUP2 MSTORE PUSH1 0x20 PUSH1 0x4 DUP3 ADD MSTORE PUSH1 0x2A PUSH1 0x24 DUP3 ADD MSTORE PUSH32 0x416D6F756E74206D757374206265206C657373207468616E20746F74616C2072 PUSH1 0x44 DUP3 ADD MSTORE PUSH10 0x65666C656374696F6E73 PUSH1 0xB0 SHL PUSH1 0x64 DUP3 ADD MSTORE PUSH1 0x84 ADD PUSH2 0x6D5 JUMP JUMPDEST PUSH1 0x0 PUSH2 0x94D PUSH2 0x19DA JUMP JUMPDEST SWAP1 POP PUSH2 0x959 DUP4 DUP3 PUSH2 0x19FD JUMP JUMPDEST SWAP4 SWAP3 POP POP POP JUMP JUMPDEST PUSH1 0x0 SLOAD PUSH1 0x1 PUSH1 0x1 PUSH1 0xA0 SHL SUB AND CALLER EQ PUSH2 0x98A JUMPI PUSH1 0x40 MLOAD PUSH3 0x461BCD PUSH1 0xE5 SHL DUP2 MSTORE PUSH1 0x4 ADD PUSH2 0x6D5 SWAP1 PUSH2 0x258E JUMP JUMPDEST PUSH1 0x1 PUSH1 0x1 PUSH1 0xA0 SHL SUB DUP2 AND PUSH1 0x0 SWAP1 DUP2 MSTORE PUSH1 0x6 PUSH1 0x20 MSTORE PUSH1 0x40 SWAP1 KECCAK256 SLOAD PUSH1 0xFF AND PUSH2 0x9F2 JUMPI PUSH1 0x40 MLOAD PUSH3 0x461BCD PUSH1 0xE5 SHL DUP2 MSTORE PUSH1 0x20 PUSH1 0x4 DUP3 ADD MSTORE PUSH1 0x17 PUSH1 0x24 DUP3 ADD MSTORE PUSH32 0x4163636F756E74206973206E6F74206578636C75646564000000000000000000 PUSH1 0x44 DUP3 ADD MSTORE PUSH1 0x64 ADD PUSH2 0x6D5 JUMP JUMPDEST PUSH1 0x0 JUMPDEST PUSH1 0x7 SLOAD DUP2 LT ISZERO PUSH2 0xB13 JUMPI DUP2 PUSH1 0x1 PUSH1 0x1 PUSH1 0xA0 SHL SUB AND PUSH1 0x7 DUP3 DUP2 SLOAD DUP2 LT PUSH2 0xA1C JUMPI PUSH2 0xA1C PUSH2 0x25C3 JUMP JUMPDEST PUSH1 0x0 SWAP2 DUP3 MSTORE PUSH1 0x20 SWAP1 SWAP2 KECCAK256 ADD SLOAD PUSH1 0x1 PUSH1 0x1 PUSH1 0xA0 SHL SUB AND EQ ISZERO PUSH2 0xB01 JUMPI PUSH1 0x7 DUP1 SLOAD PUSH2 0xA47 SWAP1 PUSH1 0x1 SWAP1 PUSH2 0x25EF JUMP JUMPDEST DUP2 SLOAD DUP2 LT PUSH2 0xA57 JUMPI PUSH2 0xA57 PUSH2 0x25C3 JUMP JUMPDEST PUSH1 0x0 SWAP2 DUP3 MSTORE PUSH1 0x20 SWAP1 SWAP2 KECCAK256 ADD SLOAD PUSH1 0x7 DUP1 SLOAD PUSH1 0x1 PUSH1 0x1 PUSH1 0xA0 SHL SUB SWAP1 SWAP3 AND SWAP2 DUP4 SWAP1 DUP2 LT PUSH2 0xA83 JUMPI PUSH2 0xA83 PUSH2 0x25C3 JUMP JUMPDEST PUSH1 0x0 SWAP2 DUP3 MSTORE PUSH1 0x20 DUP1 DUP4 KECCAK256 SWAP2 SWAP1 SWAP2 ADD DUP1 SLOAD PUSH1 0x1 PUSH1 0x1 PUSH1 0xA0 SHL SUB NOT AND PUSH1 0x1 PUSH1 0x1 PUSH1 0xA0 SHL SUB SWAP5 DUP6 AND OR SWAP1 SSTORE SWAP2 DUP5 AND DUP2 MSTORE PUSH1 0x3 DUP3 MSTORE PUSH1 0x40 DUP1 DUP3 KECCAK256 DUP3 SWAP1 SSTORE PUSH1 0x6 SWAP1 SWAP3 MSTORE KECCAK256 DUP1 SLOAD PUSH1 0xFF NOT AND SWAP1 SSTORE PUSH1 0x7 DUP1 SLOAD DUP1 PUSH2 0xADB JUMPI PUSH2 0xADB PUSH2 0x2606 JUMP JUMPDEST PUSH1 0x0 DUP3 DUP2 MSTORE PUSH1 0x20 SWAP1 KECCAK256 DUP2 ADD PUSH1 0x0 NOT SWAP1 DUP2 ADD DUP1 SLOAD PUSH1 0x1 PUSH1 0x1 PUSH1 0xA0 SHL SUB NOT AND SWAP1 SSTORE ADD SWAP1 SSTORE POP POP JUMP JUMPDEST DUP1 PUSH2 0xB0B DUP2 PUSH2 0x261C JUMP JUMPDEST SWAP2 POP POP PUSH2 0x9F5 JUMP JUMPDEST POP POP JUMP JUMPDEST CALLER PUSH1 0x0 DUP2 DUP2 MSTORE PUSH1 0x4 PUSH1 0x20 SWAP1 DUP2 MSTORE PUSH1 0x40 DUP1 DUP4 KECCAK256 PUSH1 0x1 PUSH1 0x1 PUSH1 0xA0 SHL SUB DUP8 AND DUP5 MSTORE SWAP1 SWAP2 MSTORE DUP2 KECCAK256 SLOAD SWAP1 SWAP2 PUSH2 0x6A1 SWAP2 DUP6 SWAP1 PUSH2 0x8CD SWAP1 DUP7 PUSH2 0x1A3F JUMP JUMPDEST DUP1 PUSH2 0xB57 CALLER PUSH2 0xE39 JUMP JUMPDEST LT ISZERO PUSH2 0xB9A JUMPI PUSH1 0x40 MLOAD PUSH3 0x461BCD PUSH1 0xE5 SHL DUP2 MSTORE PUSH1 0x20 PUSH1 0x4 DUP3 ADD MSTORE PUSH1 0x12 PUSH1 0x24 DUP3 ADD MSTORE PUSH18 0x4E6F7420656E6F7567682062616C616E6365 PUSH1 0x70 SHL PUSH1 0x44 DUP3 ADD MSTORE PUSH1 0x64 ADD PUSH2 0x6D5 JUMP JUMPDEST PUSH2 0xBAD DUP2 PUSH2 0xBA7 CALLER PUSH2 0xE39 JUMP JUMPDEST SWAP1 PUSH2 0x1A9E JUMP JUMPDEST POP DUP1 PUSH1 0xB PUSH1 0x0 DUP3 DUP3 SLOAD PUSH2 0xBC0 SWAP2 SWAP1 PUSH2 0x25EF JUMP JUMPDEST SWAP1 SWAP2 SSTORE POP POP PUSH1 0x40 MLOAD DUP2 DUP2 MSTORE CALLER SWAP1 PUSH32 0xCC16F5DBB4873280815C1EE09DBD06736CFFCC184412CF7A71A0FDB75D397CA5 SWAP1 PUSH1 0x20 ADD PUSH1 0x40 MLOAD DUP1 SWAP2 SUB SWAP1 LOG2 POP JUMP JUMPDEST PUSH1 0x0 SLOAD PUSH1 0x1 PUSH1 0x1 PUSH1 0xA0 SHL SUB AND CALLER EQ PUSH2 0xC27 JUMPI PUSH1 0x40 MLOAD PUSH3 0x461BCD PUSH1 0xE5 SHL DUP2 MSTORE PUSH1 0x4 ADD PUSH2 0x6D5 SWAP1 PUSH2 0x258E JUMP JUMPDEST PUSH1 0x1 PUSH1 0x1 PUSH1 0xA0 SHL SUB AND PUSH1 0x0 SWAP1 DUP2 MSTORE PUSH1 0x5 PUSH1 0x20 MSTORE PUSH1 0x40 SWAP1 KECCAK256 DUP1 SLOAD PUSH1 0xFF NOT AND PUSH1 0x1 OR SWAP1 SSTORE JUMP JUMPDEST PUSH1 0x0 PUSH1 0xB SLOAD DUP4 GT ISZERO PUSH2 0xC9F JUMPI PUSH1 0x40 MLOAD PUSH3 0x461BCD PUSH1 0xE5 SHL DUP2 MSTORE PUSH1 0x20 PUSH1 0x4 DUP3 ADD MSTORE PUSH1 0x1F PUSH1 0x24 DUP3 ADD MSTORE PUSH32 0x416D6F756E74206D757374206265206C657373207468616E20737570706C7900 PUSH1 0x44 DUP3 ADD MSTORE PUSH1 0x64 ADD PUSH2 0x6D5 JUMP JUMPDEST PUSH1 0x0 DUP1 PUSH2 0xCAB DUP6 PUSH2 0x1AE0 JUMP JUMPDEST SWAP3 POP SWAP3 POP POP PUSH1 0x0 DUP1 PUSH2 0xCC6 DUP8 DUP6 DUP6 PUSH2 0xCC1 PUSH2 0x19DA JUMP JUMPDEST PUSH2 0x1B24 JUMP JUMPDEST POP SWAP2 POP SWAP2 POP DUP6 PUSH2 0xCDB JUMPI POP SWAP3 POP PUSH2 0x6A5 SWAP2 POP POP JUMP JUMPDEST SWAP4 POP PUSH2 0x6A5 SWAP3 POP POP POP JUMP JUMPDEST PUSH1 0x0 SLOAD PUSH1 0x1 PUSH1 0x1 PUSH1 0xA0 SHL SUB AND CALLER EQ PUSH2 0xD10 JUMPI PUSH1 0x40 MLOAD PUSH3 0x461BCD PUSH1 0xE5 SHL DUP2 MSTORE PUSH1 0x4 ADD PUSH2 0x6D5 SWAP1 PUSH2 0x258E JUMP JUMPDEST PUSH1 0x1 PUSH1 0x1 PUSH1 0xA0 SHL SUB DUP2 AND PUSH1 0x0 SWAP1 DUP2 MSTORE PUSH1 0x6 PUSH1 0x20 MSTORE PUSH1 0x40 SWAP1 KECCAK256 SLOAD PUSH1 0xFF AND ISZERO PUSH2 0xD79 JUMPI PUSH1 0x40 MLOAD PUSH3 0x461BCD PUSH1 0xE5 SHL DUP2 MSTORE PUSH1 0x20 PUSH1 0x4 DUP3 ADD MSTORE PUSH1 0x1B PUSH1 0x24 DUP3 ADD MSTORE PUSH32 0x4163636F756E7420697320616C7265616479206578636C756465640000000000 PUSH1 0x44 DUP3 ADD MSTORE PUSH1 0x64 ADD PUSH2 0x6D5 JUMP JUMPDEST PUSH1 0x1 PUSH1 0x1 PUSH1 0xA0 SHL SUB DUP2 AND PUSH1 0x0 SWAP1 DUP2 MSTORE PUSH1 0x2 PUSH1 0x20 MSTORE PUSH1 0x40 SWAP1 KECCAK256 SLOAD ISZERO PUSH2 0xDD3 JUMPI PUSH1 0x1 PUSH1 0x1 PUSH1 0xA0 SHL SUB DUP2 AND PUSH1 0x0 SWAP1 DUP2 MSTORE PUSH1 0x2 PUSH1 0x20 MSTORE PUSH1 0x40 SWAP1 KECCAK256 SLOAD PUSH2 0xDB9 SWAP1 PUSH2 0x8DC JUMP JUMPDEST PUSH1 0x1 PUSH1 0x1 PUSH1 0xA0 SHL SUB DUP3 AND PUSH1 0x0 SWAP1 DUP2 MSTORE PUSH1 0x3 PUSH1 0x20 MSTORE PUSH1 0x40 SWAP1 KECCAK256 SSTORE JUMPDEST PUSH1 0x1 PUSH1 0x1 PUSH1 0xA0 SHL SUB AND PUSH1 0x0 DUP2 DUP2 MSTORE PUSH1 0x6 PUSH1 0x20 MSTORE PUSH1 0x40 DUP2 KECCAK256 DUP1 SLOAD PUSH1 0xFF NOT AND PUSH1 0x1 SWAP1 DUP2 OR SWAP1 SWAP2 SSTORE PUSH1 0x7 DUP1 SLOAD SWAP2 DUP3 ADD DUP2 SSTORE SWAP1 SWAP2 MSTORE PUSH32 0xA66CC928B5EDB82AF9BD49922954155AB7B0942694BEA4CE44661D9A8736C688 ADD DUP1 SLOAD PUSH1 0x1 PUSH1 0x1 PUSH1 0xA0 SHL SUB NOT AND SWAP1 SWAP2 OR SWAP1 SSTORE JUMP JUMPDEST PUSH1 0x1 PUSH1 0x1 PUSH1 0xA0 SHL SUB DUP2 AND PUSH1 0x0 SWAP1 DUP2 MSTORE PUSH1 0x6 PUSH1 0x20 MSTORE PUSH1 0x40 DUP2 KECCAK256 SLOAD PUSH1 0xFF AND ISZERO PUSH2 0xE76 JUMPI POP PUSH1 0x1 PUSH1 0x1 PUSH1 0xA0 SHL SUB AND PUSH1 0x0 SWAP1 DUP2 MSTORE PUSH1 0x3 PUSH1 0x20 MSTORE PUSH1 0x40 SWAP1 KECCAK256 SLOAD SWAP1 JUMP JUMPDEST PUSH1 0x1 PUSH1 0x1 PUSH1 0xA0 SHL SUB DUP3 AND PUSH1 0x0 SWAP1 DUP2 MSTORE PUSH1 0x2 PUSH1 0x20 MSTORE PUSH1 0x40 SWAP1 KECCAK256 SLOAD PUSH2 0x6A5 SWAP1 PUSH2 0x8DC JUMP JUMPDEST PUSH1 0x0 SLOAD PUSH1 0x1 PUSH1 0x1 PUSH1 0xA0 SHL SUB AND CALLER EQ PUSH2 0xEC2 JUMPI PUSH1 0x40 MLOAD PUSH3 0x461BCD PUSH1 0xE5 SHL DUP2 MSTORE PUSH1 0x4 ADD PUSH2 0x6D5 SWAP1 PUSH2 0x258E JUMP JUMPDEST PUSH1 0x0 DUP1 SLOAD PUSH1 0x40 MLOAD PUSH1 0x1 PUSH1 0x1 PUSH1 0xA0 SHL SUB SWAP1 SWAP2 AND SWAP1 PUSH32 0x8BE0079C531659141344CD1FD0A4F28419497F9722A3DAAFE3B4186F6B6457E0 SWAP1 DUP4 SWAP1 LOG3 PUSH1 0x0 DUP1 SLOAD PUSH1 0x1 PUSH1 0x1 PUSH1 0xA0 SHL SUB NOT AND SWAP1 SSTORE JUMP JUMPDEST PUSH1 0x0 SLOAD PUSH1 0x1 PUSH1 0x1 PUSH1 0xA0 SHL SUB AND CALLER EQ PUSH2 0xF36 JUMPI PUSH1 0x40 MLOAD PUSH3 0x461BCD PUSH1 0xE5 SHL DUP2 MSTORE PUSH1 0x4 ADD PUSH2 0x6D5 SWAP1 PUSH2 0x258E JUMP JUMPDEST PUSH1 0x1 PUSH1 0x1 PUSH1 0xA0 SHL SUB AND PUSH1 0x0 SWAP1 DUP2 MSTORE PUSH1 0x9 PUSH1 0x20 MSTORE PUSH1 0x40 SWAP1 KECCAK256 DUP1 SLOAD PUSH1 0xFF NOT AND SWAP1 SSTORE JUMP JUMPDEST PUSH1 0x60 PUSH1 0x10 DUP1 SLOAD PUSH2 0x611 SWAP1 PUSH2 0x2553 JUMP JUMPDEST PUSH1 0x0 SLOAD PUSH1 0x1 PUSH1 0x1 PUSH1 0xA0 SHL SUB AND CALLER EQ PUSH2 0xF90 JUMPI PUSH1 0x40 MLOAD PUSH3 0x461BCD PUSH1 0xE5 SHL DUP2 MSTORE PUSH1 0x4 ADD PUSH2 0x6D5 SWAP1 PUSH2 0x258E JUMP JUMPDEST PUSH1 0x40 MLOAD PUSH4 0xA9059CBB PUSH1 0xE0 SHL DUP2 MSTORE CALLER PUSH1 0x4 DUP3 ADD MSTORE PUSH1 0x24 DUP2 ADD DUP3 SWAP1 MSTORE DUP3 SWAP1 PUSH1 0x1 PUSH1 0x1 PUSH1 0xA0 SHL SUB DUP3 AND SWAP1 PUSH4 0xA9059CBB SWAP1 PUSH1 0x44 ADD PUSH1 0x20 PUSH1 0x40 MLOAD DUP1 DUP4 SUB DUP2 PUSH1 0x0 DUP8 GAS CALL ISZERO DUP1 ISZERO PUSH2 0xFDF JUMPI RETURNDATASIZE PUSH1 0x0 DUP1 RETURNDATACOPY RETURNDATASIZE PUSH1 0x0 REVERT JUMPDEST POP POP POP POP PUSH1 0x40 MLOAD RETURNDATASIZE PUSH1 0x1F NOT PUSH1 0x1F DUP3 ADD AND DUP3 ADD DUP1 PUSH1 0x40 MSTORE POP DUP2 ADD SWAP1 PUSH2 0x1003 SWAP2 SWAP1 PUSH2 0x2637 JUMP JUMPDEST POP POP POP POP JUMP JUMPDEST PUSH1 0x0 PUSH2 0x6A1 CALLER DUP5 PUSH2 0x8CD DUP6 PUSH1 0x40 MLOAD DUP1 PUSH1 0x60 ADD PUSH1 0x40 MSTORE DUP1 PUSH1 0x25 DUP2 MSTORE PUSH1 0x20 ADD PUSH2 0x26D6 PUSH1 0x25 SWAP2 CODECOPY CALLER PUSH1 0x0 SWAP1 DUP2 MSTORE PUSH1 0x4 PUSH1 0x20 SWAP1 DUP2 MSTORE PUSH1 0x40 DUP1 DUP4 KECCAK256 PUSH1 0x1 PUSH1 0x1 PUSH1 0xA0 SHL SUB DUP14 AND DUP5 MSTORE SWAP1 SWAP2 MSTORE SWAP1 KECCAK256 SLOAD SWAP2 SWAP1 PUSH2 0x19A0 JUMP JUMPDEST PUSH1 0x0 PUSH2 0x6A1 CALLER DUP5 DUP5 PUSH2 0x15CE JUMP JUMPDEST PUSH1 0x0 SLOAD PUSH1 0x1 PUSH1 0x1 PUSH1 0xA0 SHL SUB AND CALLER EQ PUSH2 0x108F JUMPI PUSH1 0x40 MLOAD PUSH3 0x461BCD PUSH1 0xE5 SHL DUP2 MSTORE PUSH1 0x4 ADD PUSH2 0x6D5 SWAP1 PUSH2 0x258E JUMP JUMPDEST PUSH2 0x3E8 DUP2 GT ISZERO PUSH2 0x10E1 JUMPI PUSH1 0x40 MLOAD PUSH3 0x461BCD PUSH1 0xE5 SHL DUP2 MSTORE PUSH1 0x20 PUSH1 0x4 DUP3 ADD MSTORE PUSH1 0x1D PUSH1 0x24 DUP3 ADD MSTORE PUSH32 0x6D617857616C6C657453697A6520657863656564732064697669646572000000 PUSH1 0x44 DUP3 ADD MSTORE PUSH1 0x64 ADD PUSH2 0x6D5 JUMP JUMPDEST PUSH2 0x1102 PUSH2 0x3E8 PUSH2 0x10FC DUP4 PUSH1 0xB SLOAD PUSH2 0x1B74 SWAP1 SWAP2 SWAP1 PUSH4 0xFFFFFFFF AND JUMP JUMPDEST SWAP1 PUSH2 0x19FD JUMP JUMPDEST PUSH1 0x16 SSTORE POP JUMP JUMPDEST PUSH1 0x0 SLOAD PUSH1 0x1 PUSH1 0x1 PUSH1 0xA0 SHL SUB AND CALLER EQ PUSH2 0x1132 JUMPI PUSH1 0x40 MLOAD PUSH3 0x461BCD PUSH1 0xE5 SHL DUP2 MSTORE PUSH1 0x4 ADD PUSH2 0x6D5 SWAP1 PUSH2 0x258E JUMP JUMPDEST PUSH1 0x1 PUSH1 0x1 PUSH1 0xA0 SHL SUB DUP2 AND PUSH1 0x0 SWAP1 DUP2 MSTORE PUSH1 0x8 PUSH1 0x20 MSTORE PUSH1 0x40 SWAP1 KECCAK256 SLOAD PUSH1 0xFF AND PUSH2 0x119A JUMPI PUSH1 0x40 MLOAD PUSH3 0x461BCD PUSH1 0xE5 SHL DUP2 MSTORE PUSH1 0x20 PUSH1 0x4 DUP3 ADD MSTORE PUSH1 0x1A PUSH1 0x24 DUP3 ADD MSTORE PUSH32 0x4163636F756E74206973206E6F7420626C61636B6C6973746564000000000000 PUSH1 0x44 DUP3 ADD MSTORE PUSH1 0x64 ADD PUSH2 0x6D5 JUMP JUMPDEST PUSH1 0x0 JUMPDEST PUSH1 0xA SLOAD DUP2 LT ISZERO PUSH2 0xB13 JUMPI DUP2 PUSH1 0x1 PUSH1 0x1 PUSH1 0xA0 SHL SUB AND PUSH1 0xA DUP3 DUP2 SLOAD DUP2 LT PUSH2 0x11C4 JUMPI PUSH2 0x11C4 PUSH2 0x25C3 JUMP JUMPDEST PUSH1 0x0 SWAP2 DUP3 MSTORE PUSH1 0x20 SWAP1 SWAP2 KECCAK256 ADD SLOAD PUSH1 0x1 PUSH1 0x1 PUSH1 0xA0 SHL SUB AND EQ ISZERO PUSH2 0x127A JUMPI PUSH1 0xA DUP1 SLOAD PUSH2 0x11EF SWAP1 PUSH1 0x1 SWAP1 PUSH2 0x25EF JUMP JUMPDEST DUP2 SLOAD DUP2 LT PUSH2 0x11FF JUMPI PUSH2 0x11FF PUSH2 0x25C3 JUMP JUMPDEST PUSH1 0x0 SWAP2 DUP3 MSTORE PUSH1 0x20 SWAP1 SWAP2 KECCAK256 ADD SLOAD PUSH1 0xA DUP1 SLOAD PUSH1 0x1 PUSH1 0x1 PUSH1 0xA0 SHL SUB SWAP1 SWAP3 AND SWAP2 DUP4 SWAP1 DUP2 LT PUSH2 0x122B JUMPI PUSH2 0x122B PUSH2 0x25C3 JUMP JUMPDEST PUSH1 0x0 SWAP2 DUP3 MSTORE PUSH1 0x20 DUP1 DUP4 KECCAK256 SWAP2 SWAP1 SWAP2 ADD DUP1 SLOAD PUSH1 0x1 PUSH1 0x1 PUSH1 0xA0 SHL SUB NOT AND PUSH1 0x1 PUSH1 0x1 PUSH1 0xA0 SHL SUB SWAP5 DUP6 AND OR SWAP1 SSTORE SWAP2 DUP5 AND DUP2 MSTORE PUSH1 0x8 SWAP1 SWAP2 MSTORE PUSH1 0x40 SWAP1 KECCAK256 DUP1 SLOAD PUSH1 0xFF NOT AND SWAP1 SSTORE PUSH1 0xA DUP1 SLOAD DUP1 PUSH2 0xADB JUMPI PUSH2 0xADB PUSH2 0x2606 JUMP JUMPDEST DUP1 PUSH2 0x1284 DUP2 PUSH2 0x261C JUMP JUMPDEST SWAP2 POP POP PUSH2 0x119D JUMP JUMPDEST PUSH1 0x0 SLOAD PUSH1 0x1 PUSH1 0x1 PUSH1 0xA0 SHL SUB AND CALLER EQ PUSH2 0x12B6 JUMPI PUSH1 0x40 MLOAD PUSH3 0x461BCD PUSH1 0xE5 SHL DUP2 MSTORE PUSH1 0x4 ADD PUSH2 0x6D5 SWAP1 PUSH2 0x258E JUMP JUMPDEST PUSH1 0xE DUP1 SLOAD PUSH1 0x1 PUSH1 0x1 PUSH1 0xA0 SHL SUB NOT AND PUSH1 0x1 PUSH1 0x1 PUSH1 0xA0 SHL SUB SWAP3 SWAP1 SWAP3 AND SWAP2 SWAP1 SWAP2 OR SWAP1 SSTORE JUMP JUMPDEST PUSH1 0x0 SLOAD PUSH1 0x1 PUSH1 0x1 PUSH1 0xA0 SHL SUB AND CALLER EQ PUSH2 0x1302 JUMPI PUSH1 0x40 MLOAD PUSH3 0x461BCD PUSH1 0xE5 SHL DUP2 MSTORE PUSH1 0x4 ADD PUSH2 0x6D5 SWAP1 PUSH2 0x258E JUMP JUMPDEST PUSH2 0x3E8 DUP2 GT ISZERO PUSH2 0x1354 JUMPI PUSH1 0x40 MLOAD PUSH3 0x461BCD PUSH1 0xE5 SHL DUP2 MSTORE PUSH1 0x20 PUSH1 0x4 DUP3 ADD MSTORE PUSH1 0x1C PUSH1 0x24 DUP3 ADD MSTORE PUSH32 0x6D6178547850657263656E742065786365656473206469766964657200000000 PUSH1 0x44 DUP3 ADD MSTORE PUSH1 0x64 ADD PUSH2 0x6D5 JUMP JUMPDEST PUSH2 0x136F PUSH2 0x3E8 PUSH2 0x10FC DUP4 PUSH1 0xB SLOAD PUSH2 0x1B74 SWAP1 SWAP2 SWAP1 PUSH4 0xFFFFFFFF AND JUMP JUMPDEST PUSH1 0x15 SSTORE POP JUMP JUMPDEST PUSH1 0x0 SLOAD PUSH1 0x1 PUSH1 0x1 PUSH1 0xA0 SHL SUB AND CALLER EQ PUSH2 0x139F JUMPI PUSH1 0x40 MLOAD PUSH3 0x461BCD PUSH1 0xE5 SHL DUP2 MSTORE PUSH1 0x4 ADD PUSH2 0x6D5 SWAP1 PUSH2 0x258E JUMP JUMPDEST PUSH1 0x1 PUSH1 0x1 PUSH1 0xA0 SHL SUB AND PUSH1 0x0 SWAP1 DUP2 MSTORE PUSH1 0x5 PUSH1 0x20 MSTORE PUSH1 0x40 SWAP1 KECCAK256 DUP1 SLOAD PUSH1 0xFF NOT AND SWAP1 SSTORE JUMP JUMPDEST PUSH1 0x0 SLOAD PUSH1 0x1 PUSH1 0x1 PUSH1 0xA0 SHL SUB AND CALLER EQ PUSH2 0x13EA JUMPI PUSH1 0x40 MLOAD PUSH3 0x461BCD PUSH1 0xE5 SHL DUP2 MSTORE PUSH1 0x4 ADD PUSH2 0x6D5 SWAP1 PUSH2 0x258E JUMP JUMPDEST PUSH1 0x1 PUSH1 0x1 PUSH1 0xA0 SHL SUB DUP2 AND PUSH2 0x144F JUMPI PUSH1 0x40 MLOAD PUSH3 0x461BCD PUSH1 0xE5 SHL DUP2 MSTORE PUSH1 0x20 PUSH1 0x4 DUP3 ADD MSTORE PUSH1 0x26 PUSH1 0x24 DUP3 ADD MSTORE PUSH32 0x4F776E61626C653A206E6577206F776E657220697320746865207A65726F2061 PUSH1 0x44 DUP3 ADD MSTORE PUSH6 0x646472657373 PUSH1 0xD0 SHL PUSH1 0x64 DUP3 ADD MSTORE PUSH1 0x84 ADD PUSH2 0x6D5 JUMP JUMPDEST PUSH1 0x0 DUP1 SLOAD PUSH1 0x40 MLOAD PUSH1 0x1 PUSH1 0x1 PUSH1 0xA0 SHL SUB DUP1 DUP6 AND SWAP4 SWAP3 AND SWAP2 PUSH32 0x8BE0079C531659141344CD1FD0A4F28419497F9722A3DAAFE3B4186F6B6457E0 SWAP2 LOG3 PUSH1 0x0 DUP1 SLOAD PUSH1 0x1 PUSH1 0x1 PUSH1 0xA0 SHL SUB NOT AND PUSH1 0x1 PUSH1 0x1 PUSH1 0xA0 SHL SUB SWAP3 SWAP1 SWAP3 AND SWAP2 SWAP1 SWAP2 OR SWAP1 SSTORE JUMP JUMPDEST PUSH1 0x1 PUSH1 0x1 PUSH1 0xA0 SHL SUB DUP4 AND PUSH2 0x150C JUMPI PUSH1 0x40 MLOAD PUSH3 0x461BCD PUSH1 0xE5 SHL DUP2 MSTORE PUSH1 0x20 PUSH1 0x4 DUP3 ADD MSTORE PUSH1 0x24 DUP1 DUP3 ADD MSTORE PUSH32 0x45524332303A20617070726F76652066726F6D20746865207A65726F20616464 PUSH1 0x44 DUP3 ADD MSTORE PUSH4 0x72657373 PUSH1 0xE0 SHL PUSH1 0x64 DUP3 ADD MSTORE PUSH1 0x84 ADD PUSH2 0x6D5 JUMP JUMPDEST PUSH1 0x1 PUSH1 0x1 PUSH1 0xA0 SHL SUB DUP3 AND PUSH2 0x156D JUMPI PUSH1 0x40 MLOAD PUSH3 0x461BCD PUSH1 0xE5 SHL DUP2 MSTORE PUSH1 0x20 PUSH1 0x4 DUP3 ADD MSTORE PUSH1 0x22 PUSH1 0x24 DUP3 ADD MSTORE PUSH32 0x45524332303A20617070726F766520746F20746865207A65726F206164647265 PUSH1 0x44 DUP3 ADD MSTORE PUSH2 0x7373 PUSH1 0xF0 SHL PUSH1 0x64 DUP3 ADD MSTORE PUSH1 0x84 ADD PUSH2 0x6D5 JUMP JUMPDEST PUSH1 0x1 PUSH1 0x1 PUSH1 0xA0 SHL SUB DUP4 DUP2 AND PUSH1 0x0 DUP2 DUP2 MSTORE PUSH1 0x4 PUSH1 0x20 SWAP1 DUP2 MSTORE PUSH1 0x40 DUP1 DUP4 KECCAK256 SWAP5 DUP8 AND DUP1 DUP5 MSTORE SWAP5 DUP3 MSTORE SWAP2 DUP3 SWAP1 KECCAK256 DUP6 SWAP1 SSTORE SWAP1 MLOAD DUP5 DUP2 MSTORE PUSH32 0x8C5BE1E5EBEC7D5BD14F71427D1E84F3DD0314C0F7B2291E5B200AC8C7C3B925 SWAP2 ADD PUSH1 0x40 MLOAD DUP1 SWAP2 SUB SWAP1 LOG3 POP POP POP JUMP JUMPDEST PUSH1 0x1 PUSH1 0x1 PUSH1 0xA0 SHL SUB DUP4 AND PUSH2 0x1632 JUMPI PUSH1 0x40 MLOAD PUSH3 0x461BCD PUSH1 0xE5 SHL DUP2 MSTORE PUSH1 0x20 PUSH1 0x4 DUP3 ADD MSTORE PUSH1 0x25 PUSH1 0x24 DUP3 ADD MSTORE PUSH32 0x45524332303A207472616E736665722066726F6D20746865207A65726F206164 PUSH1 0x44 DUP3 ADD MSTORE PUSH5 0x6472657373 PUSH1 0xD8 SHL PUSH1 0x64 DUP3 ADD MSTORE PUSH1 0x84 ADD PUSH2 0x6D5 JUMP JUMPDEST PUSH1 0x1 PUSH1 0x1 PUSH1 0xA0 SHL SUB DUP3 AND PUSH2 0x1694 JUMPI PUSH1 0x40 MLOAD PUSH3 0x461BCD PUSH1 0xE5 SHL DUP2 MSTORE PUSH1 0x20 PUSH1 0x4 DUP3 ADD MSTORE PUSH1 0x23 PUSH1 0x24 DUP3 ADD MSTORE PUSH32 0x45524332303A207472616E7366657220746F20746865207A65726F2061646472 PUSH1 0x44 DUP3 ADD MSTORE PUSH3 0x657373 PUSH1 0xE8 SHL PUSH1 0x64 DUP3 ADD MSTORE PUSH1 0x84 ADD PUSH2 0x6D5 JUMP JUMPDEST PUSH1 0x0 DUP2 GT PUSH2 0x16F6 JUMPI PUSH1 0x40 MLOAD PUSH3 0x461BCD PUSH1 0xE5 SHL DUP2 MSTORE PUSH1 0x20 PUSH1 0x4 DUP3 ADD MSTORE PUSH1 0x29 PUSH1 0x24 DUP3 ADD MSTORE PUSH32 0x5472616E7366657220616D6F756E74206D757374206265206772656174657220 PUSH1 0x44 DUP3 ADD MSTORE PUSH9 0x7468616E207A65726F PUSH1 0xB8 SHL PUSH1 0x64 DUP3 ADD MSTORE PUSH1 0x84 ADD PUSH2 0x6D5 JUMP JUMPDEST PUSH1 0x1 PUSH1 0x1 PUSH1 0xA0 SHL SUB DUP4 AND PUSH1 0x0 SWAP1 DUP2 MSTORE PUSH1 0x8 PUSH1 0x20 MSTORE PUSH1 0x40 SWAP1 KECCAK256 SLOAD PUSH1 0xFF AND ISZERO PUSH2 0x1755 JUMPI PUSH1 0x40 MLOAD PUSH3 0x461BCD PUSH1 0xE5 SHL DUP2 MSTORE PUSH1 0x20 PUSH1 0x4 DUP3 ADD MSTORE PUSH1 0x13 PUSH1 0x24 DUP3 ADD MSTORE PUSH19 0x165BDD48185C9948189B1858DADB1A5CDD1959 PUSH1 0x6A SHL PUSH1 0x44 DUP3 ADD MSTORE PUSH1 0x64 ADD PUSH2 0x6D5 JUMP JUMPDEST CALLER PUSH1 0x0 SWAP1 DUP2 MSTORE PUSH1 0x8 PUSH1 0x20 MSTORE PUSH1 0x40 SWAP1 KECCAK256 SLOAD PUSH1 0xFF AND ISZERO PUSH2 0x17A3 JUMPI PUSH1 0x40 MLOAD PUSH3 0x461BCD PUSH1 0xE5 SHL DUP2 MSTORE PUSH1 0x20 PUSH1 0x4 DUP3 ADD MSTORE PUSH1 0xB PUSH1 0x24 DUP3 ADD MSTORE PUSH11 0x189B1858DADB1A5CDD1959 PUSH1 0xAA SHL PUSH1 0x44 DUP3 ADD MSTORE PUSH1 0x64 ADD PUSH2 0x6D5 JUMP JUMPDEST ORIGIN PUSH1 0x0 SWAP1 DUP2 MSTORE PUSH1 0x8 PUSH1 0x20 MSTORE PUSH1 0x40 SWAP1 KECCAK256 SLOAD PUSH1 0xFF AND ISZERO PUSH2 0x17F1 JUMPI PUSH1 0x40 MLOAD PUSH3 0x461BCD PUSH1 0xE5 SHL DUP2 MSTORE PUSH1 0x20 PUSH1 0x4 DUP3 ADD MSTORE PUSH1 0xB PUSH1 0x24 DUP3 ADD MSTORE PUSH11 0x189B1858DADB1A5CDD1959 PUSH1 0xAA SHL PUSH1 0x44 DUP3 ADD MSTORE PUSH1 0x64 ADD PUSH2 0x6D5 JUMP JUMPDEST PUSH1 0x1 PUSH1 0x1 PUSH1 0xA0 SHL SUB DUP4 AND PUSH1 0x0 SWAP1 DUP2 MSTORE PUSH1 0x5 PUSH1 0x20 MSTORE PUSH1 0x40 SWAP1 KECCAK256 SLOAD PUSH1 0x1 SWAP1 PUSH1 0xFF AND DUP1 PUSH2 0x1833 JUMPI POP PUSH1 0x1 PUSH1 0x1 PUSH1 0xA0 SHL SUB DUP4 AND PUSH1 0x0 SWAP1 DUP2 MSTORE PUSH1 0x5 PUSH1 0x20 MSTORE PUSH1 0x40 SWAP1 KECCAK256 SLOAD PUSH1 0xFF AND JUMPDEST ISZERO PUSH2 0x183C JUMPI POP PUSH1 0x0 JUMPDEST DUP1 ISZERO PUSH2 0x1994 JUMPI PUSH1 0x1 PUSH1 0x1 PUSH1 0xA0 SHL SUB DUP5 AND PUSH1 0x0 SWAP1 DUP2 MSTORE PUSH1 0x9 PUSH1 0x20 MSTORE PUSH1 0x40 SWAP1 KECCAK256 SLOAD PUSH1 0xFF AND ISZERO DUP1 ISZERO PUSH2 0x1884 JUMPI POP PUSH1 0x1 PUSH1 0x1 PUSH1 0xA0 SHL SUB DUP4 AND PUSH1 0x0 SWAP1 DUP2 MSTORE PUSH1 0x9 PUSH1 0x20 MSTORE PUSH1 0x40 SWAP1 KECCAK256 SLOAD PUSH1 0xFF AND ISZERO JUMPDEST ISZERO PUSH2 0x1994 JUMPI PUSH1 0x15 SLOAD DUP3 GT ISZERO PUSH2 0x18EC JUMPI PUSH1 0x40 MLOAD PUSH3 0x461BCD PUSH1 0xE5 SHL DUP2 MSTORE PUSH1 0x20 PUSH1 0x4 DUP3 ADD MSTORE PUSH1 0x28 PUSH1 0x24 DUP3 ADD MSTORE PUSH32 0x5472616E7366657220616D6F756E74206578636565647320746865206D617854 PUSH1 0x44 DUP3 ADD MSTORE PUSH8 0x3C20B6B7BAB73A17 PUSH1 0xC1 SHL PUSH1 0x64 DUP3 ADD MSTORE PUSH1 0x84 ADD PUSH2 0x6D5 JUMP JUMPDEST PUSH32 0x0 PUSH1 0x1 PUSH1 0x1 PUSH1 0xA0 SHL SUB AND DUP4 PUSH1 0x1 PUSH1 0x1 PUSH1 0xA0 SHL SUB AND EQ PUSH2 0x1994 JUMPI PUSH1 0x16 SLOAD PUSH2 0x1931 DUP5 PUSH2 0xE39 JUMP JUMPDEST PUSH2 0x193B SWAP1 DUP5 PUSH2 0x2654 JUMP JUMPDEST GT ISZERO PUSH2 0x1994 JUMPI PUSH1 0x40 MLOAD PUSH3 0x461BCD PUSH1 0xE5 SHL DUP2 MSTORE PUSH1 0x20 PUSH1 0x4 DUP3 ADD MSTORE PUSH1 0x22 PUSH1 0x24 DUP3 ADD MSTORE PUSH32 0x526563697069656E742065786365656473206D61782077616C6C65742073697A PUSH1 0x44 DUP3 ADD MSTORE PUSH2 0x3297 PUSH1 0xF1 SHL PUSH1 0x64 DUP3 ADD MSTORE PUSH1 0x84 ADD PUSH2 0x6D5 JUMP JUMPDEST PUSH2 0x1003 DUP5 DUP5 DUP5 DUP5 PUSH2 0x1BF3 JUMP JUMPDEST PUSH1 0x0 DUP2 DUP5 DUP5 GT ISZERO PUSH2 0x19C4 JUMPI PUSH1 0x40 MLOAD PUSH3 0x461BCD PUSH1 0xE5 SHL DUP2 MSTORE PUSH1 0x4 ADD PUSH2 0x6D5 SWAP2 SWAP1 PUSH2 0x23D7 JUMP JUMPDEST POP PUSH1 0x0 PUSH2 0x19D1 DUP5 DUP7 PUSH2 0x25EF JUMP JUMPDEST SWAP6 SWAP5 POP POP POP POP POP JUMP JUMPDEST PUSH1 0x0 DUP1 PUSH1 0x0 PUSH2 0x19E7 PUSH2 0x1E47 JUMP JUMPDEST SWAP1 SWAP3 POP SWAP1 POP PUSH2 0x19F6 DUP3 DUP3 PUSH2 0x19FD JUMP JUMPDEST SWAP3 POP POP POP SWAP1 JUMP JUMPDEST PUSH1 0x0 PUSH2 0x959 DUP4 DUP4 PUSH1 0x40 MLOAD DUP1 PUSH1 0x40 ADD PUSH1 0x40 MSTORE DUP1 PUSH1 0x1A DUP2 MSTORE PUSH1 0x20 ADD PUSH32 0x536166654D6174683A206469766973696F6E206279207A65726F000000000000 DUP2 MSTORE POP PUSH2 0x1FC9 JUMP JUMPDEST PUSH1 0x0 DUP1 PUSH2 0x1A4C DUP4 DUP6 PUSH2 0x2654 JUMP JUMPDEST SWAP1 POP DUP4 DUP2 LT ISZERO PUSH2 0x959 JUMPI PUSH1 0x40 MLOAD PUSH3 0x461BCD PUSH1 0xE5 SHL DUP2 MSTORE PUSH1 0x20 PUSH1 0x4 DUP3 ADD MSTORE PUSH1 0x1B PUSH1 0x24 DUP3 ADD MSTORE PUSH32 0x536166654D6174683A206164646974696F6E206F766572666C6F770000000000 PUSH1 0x44 DUP3 ADD MSTORE PUSH1 0x64 ADD PUSH2 0x6D5 JUMP JUMPDEST PUSH1 0x0 PUSH2 0x959 DUP4 DUP4 PUSH1 0x40 MLOAD DUP1 PUSH1 0x40 ADD PUSH1 0x40 MSTORE DUP1 PUSH1 0x1E DUP2 MSTORE PUSH1 0x20 ADD PUSH32 0x536166654D6174683A207375627472616374696F6E206F766572666C6F770000 DUP2 MSTORE POP PUSH2 0x19A0 JUMP JUMPDEST PUSH1 0x0 DUP1 PUSH1 0x0 DUP1 PUSH2 0x1AEF DUP6 PUSH2 0x1FF7 JUMP JUMPDEST SWAP1 POP PUSH1 0x0 PUSH2 0x1AFC DUP7 PUSH2 0x2013 JUMP JUMPDEST SWAP1 POP PUSH1 0x0 PUSH2 0x1B0A DUP8 DUP5 PUSH2 0x1A9E JUMP JUMPDEST SWAP1 POP PUSH2 0x1B16 DUP2 DUP4 PUSH2 0x1A9E JUMP JUMPDEST SWAP8 SWAP3 SWAP7 POP SWAP1 SWAP5 POP SWAP1 SWAP3 POP POP POP JUMP JUMPDEST PUSH1 0x0 DUP1 DUP1 DUP1 PUSH2 0x1B33 DUP9 DUP7 PUSH2 0x1B74 JUMP JUMPDEST SWAP1 POP PUSH1 0x0 PUSH2 0x1B41 DUP9 DUP8 PUSH2 0x1B74 JUMP JUMPDEST SWAP1 POP PUSH1 0x0 PUSH2 0x1B4F DUP9 DUP9 PUSH2 0x1B74 JUMP JUMPDEST SWAP1 POP PUSH1 0x0 PUSH2 0x1B61 DUP3 PUSH2 0xBA7 DUP7 DUP7 PUSH2 0x1A9E JUMP JUMPDEST SWAP4 SWAP12 SWAP4 SWAP11 POP SWAP2 SWAP9 POP SWAP2 SWAP7 POP POP POP POP POP POP POP JUMP JUMPDEST PUSH1 0x0 DUP3 PUSH2 0x1B83 JUMPI POP PUSH1 0x0 PUSH2 0x6A5 JUMP JUMPDEST PUSH1 0x0 PUSH2 0x1B8F DUP4 DUP6 PUSH2 0x266C JUMP JUMPDEST SWAP1 POP DUP3 PUSH2 0x1B9C DUP6 DUP4 PUSH2 0x268B JUMP JUMPDEST EQ PUSH2 0x959 JUMPI PUSH1 0x40 MLOAD PUSH3 0x461BCD PUSH1 0xE5 SHL DUP2 MSTORE PUSH1 0x20 PUSH1 0x4 DUP3 ADD MSTORE PUSH1 0x21 PUSH1 0x24 DUP3 ADD MSTORE PUSH32 0x536166654D6174683A206D756C7469706C69636174696F6E206F766572666C6F PUSH1 0x44 DUP3 ADD MSTORE PUSH1 0x77 PUSH1 0xF8 SHL PUSH1 0x64 DUP3 ADD MSTORE PUSH1 0x84 ADD PUSH2 0x6D5 JUMP JUMPDEST DUP1 ISZERO PUSH2 0x1CE1 JUMPI PUSH2 0x1C0B PUSH1 0x14 DUP1 SLOAD PUSH4 0xFFFFFFFF NOT AND SWAP1 SSTORE JUMP JUMPDEST PUSH32 0x0 PUSH1 0x1 PUSH1 0x1 PUSH1 0xA0 SHL SUB AND DUP5 PUSH1 0x1 PUSH1 0x1 PUSH1 0xA0 SHL SUB AND EQ ISZERO PUSH2 0x1C76 JUMPI PUSH2 0x1C76 PUSH1 0x12 SLOAD PUSH1 0x14 DUP1 SLOAD PUSH3 0x10000 DUP1 DUP5 DIV PUSH2 0xFFFF SWAP1 DUP2 AND SWAP1 SWAP2 MUL PUSH4 0xFFFFFFFF NOT SWAP1 SWAP3 AND SWAP4 AND SWAP3 SWAP1 SWAP3 OR SWAP2 SWAP1 SWAP2 OR SWAP1 SSTORE JUMP JUMPDEST PUSH32 0x0 PUSH1 0x1 PUSH1 0x1 PUSH1 0xA0 SHL SUB AND DUP4 PUSH1 0x1 PUSH1 0x1 PUSH1 0xA0 SHL SUB AND EQ ISZERO PUSH2 0x1CE1 JUMPI PUSH2 0x1CE1 PUSH1 0x13 SLOAD PUSH1 0x14 DUP1 SLOAD PUSH3 0x10000 DUP1 DUP5 DIV PUSH2 0xFFFF SWAP1 DUP2 AND SWAP1 SWAP2 MUL PUSH4 0xFFFFFFFF NOT SWAP1 SWAP3 AND SWAP4 AND SWAP3 SWAP1 SWAP3 OR SWAP2 SWAP1 SWAP2 OR SWAP1 SSTORE JUMP JUMPDEST PUSH1 0x1 PUSH1 0x1 PUSH1 0xA0 SHL SUB DUP5 AND PUSH1 0x0 SWAP1 DUP2 MSTORE PUSH1 0x6 PUSH1 0x20 MSTORE PUSH1 0x40 SWAP1 KECCAK256 SLOAD PUSH1 0xFF AND DUP1 ISZERO PUSH2 0x1D22 JUMPI POP PUSH1 0x1 PUSH1 0x1 PUSH1 0xA0 SHL SUB DUP4 AND PUSH1 0x0 SWAP1 DUP2 MSTORE PUSH1 0x6 PUSH1 0x20 MSTORE PUSH1 0x40 SWAP1 KECCAK256 SLOAD PUSH1 0xFF AND ISZERO JUMPDEST ISZERO PUSH2 0x1D37 JUMPI PUSH2 0x1D32 DUP5 DUP5 DUP5 PUSH2 0x2035 JUMP JUMPDEST PUSH2 0x1E35 JUMP JUMPDEST PUSH1 0x1 PUSH1 0x1 PUSH1 0xA0 SHL SUB DUP5 AND PUSH1 0x0 SWAP1 DUP2 MSTORE PUSH1 0x6 PUSH1 0x20 MSTORE PUSH1 0x40 SWAP1 KECCAK256 SLOAD PUSH1 0xFF AND ISZERO DUP1 ISZERO PUSH2 0x1D78 JUMPI POP PUSH1 0x1 PUSH1 0x1 PUSH1 0xA0 SHL SUB DUP4 AND PUSH1 0x0 SWAP1 DUP2 MSTORE PUSH1 0x6 PUSH1 0x20 MSTORE PUSH1 0x40 SWAP1 KECCAK256 SLOAD PUSH1 0xFF AND JUMPDEST ISZERO PUSH2 0x1D88 JUMPI PUSH2 0x1D32 DUP5 DUP5 DUP5 PUSH2 0x2169 JUMP JUMPDEST PUSH1 0x1 PUSH1 0x1 PUSH1 0xA0 SHL SUB DUP5 AND PUSH1 0x0 SWAP1 DUP2 MSTORE PUSH1 0x6 PUSH1 0x20 MSTORE PUSH1 0x40 SWAP1 KECCAK256 SLOAD PUSH1 0xFF AND ISZERO DUP1 ISZERO PUSH2 0x1DCA JUMPI POP PUSH1 0x1 PUSH1 0x1 PUSH1 0xA0 SHL SUB DUP4 AND PUSH1 0x0 SWAP1 DUP2 MSTORE PUSH1 0x6 PUSH1 0x20 MSTORE PUSH1 0x40 SWAP1 KECCAK256 SLOAD PUSH1 0xFF AND ISZERO JUMPDEST ISZERO PUSH2 0x1DDA JUMPI PUSH2 0x1D32 DUP5 DUP5 DUP5 PUSH2 0x2220 JUMP JUMPDEST PUSH1 0x1 PUSH1 0x1 PUSH1 0xA0 SHL SUB DUP5 AND PUSH1 0x0 SWAP1 DUP2 MSTORE PUSH1 0x6 PUSH1 0x20 MSTORE PUSH1 0x40 SWAP1 KECCAK256 SLOAD PUSH1 0xFF AND DUP1 ISZERO PUSH2 0x1E1A JUMPI POP PUSH1 0x1 PUSH1 0x1 PUSH1 0xA0 SHL SUB DUP4 AND PUSH1 0x0 SWAP1 DUP2 MSTORE PUSH1 0x6 PUSH1 0x20 MSTORE PUSH1 0x40 SWAP1 KECCAK256 SLOAD PUSH1 0xFF AND JUMPDEST ISZERO PUSH2 0x1E2A JUMPI PUSH2 0x1D32 DUP5 DUP5 DUP5 PUSH2 0x2272 JUMP JUMPDEST PUSH2 0x1E35 DUP5 DUP5 DUP5 PUSH2 0x2220 JUMP JUMPDEST PUSH2 0x1003 PUSH1 0x14 DUP1 SLOAD PUSH4 0xFFFFFFFF NOT AND SWAP1 SSTORE JUMP JUMPDEST PUSH1 0xC SLOAD PUSH1 0xB SLOAD PUSH1 0x0 SWAP2 DUP3 SWAP2 DUP3 JUMPDEST PUSH1 0x7 SLOAD DUP2 LT ISZERO PUSH2 0x1F99 JUMPI DUP3 PUSH1 0x2 PUSH1 0x0 PUSH1 0x7 DUP5 DUP2 SLOAD DUP2 LT PUSH2 0x1E76 JUMPI PUSH2 0x1E76 PUSH2 0x25C3 JUMP JUMPDEST PUSH1 0x0 SWAP2 DUP3 MSTORE PUSH1 0x20 DUP1 DUP4 KECCAK256 SWAP1 SWAP2 ADD SLOAD PUSH1 0x1 PUSH1 0x1 PUSH1 0xA0 SHL SUB AND DUP4 MSTORE DUP3 ADD SWAP3 SWAP1 SWAP3 MSTORE PUSH1 0x40 ADD SWAP1 KECCAK256 SLOAD GT DUP1 PUSH2 0x1EE1 JUMPI POP DUP2 PUSH1 0x3 PUSH1 0x0 PUSH1 0x7 DUP5 DUP2 SLOAD DUP2 LT PUSH2 0x1EBA JUMPI PUSH2 0x1EBA PUSH2 0x25C3 JUMP JUMPDEST PUSH1 0x0 SWAP2 DUP3 MSTORE PUSH1 0x20 DUP1 DUP4 KECCAK256 SWAP1 SWAP2 ADD SLOAD PUSH1 0x1 PUSH1 0x1 PUSH1 0xA0 SHL SUB AND DUP4 MSTORE DUP3 ADD SWAP3 SWAP1 SWAP3 MSTORE PUSH1 0x40 ADD SWAP1 KECCAK256 SLOAD GT JUMPDEST ISZERO PUSH2 0x1EF7 JUMPI PUSH1 0xC SLOAD PUSH1 0xB SLOAD SWAP5 POP SWAP5 POP POP POP POP SWAP1 SWAP2 JUMP JUMPDEST PUSH2 0x1F3D PUSH1 0x2 PUSH1 0x0 PUSH1 0x7 DUP5 DUP2 SLOAD DUP2 LT PUSH2 0x1F11 JUMPI PUSH2 0x1F11 PUSH2 0x25C3 JUMP JUMPDEST PUSH1 0x0 SWAP2 DUP3 MSTORE PUSH1 0x20 DUP1 DUP4 KECCAK256 SWAP1 SWAP2 ADD SLOAD PUSH1 0x1 PUSH1 0x1 PUSH1 0xA0 SHL SUB AND DUP4 MSTORE DUP3 ADD SWAP3 SWAP1 SWAP3 MSTORE PUSH1 0x40 ADD SWAP1 KECCAK256 SLOAD DUP5 SWAP1 PUSH2 0x1A9E JUMP JUMPDEST SWAP3 POP PUSH2 0x1F85 PUSH1 0x3 PUSH1 0x0 PUSH1 0x7 DUP5 DUP2 SLOAD DUP2 LT PUSH2 0x1F59 JUMPI PUSH2 0x1F59 PUSH2 0x25C3 JUMP JUMPDEST PUSH1 0x0 SWAP2 DUP3 MSTORE PUSH1 0x20 DUP1 DUP4 KECCAK256 SWAP1 SWAP2 ADD SLOAD PUSH1 0x1 PUSH1 0x1 PUSH1 0xA0 SHL SUB AND DUP4 MSTORE DUP3 ADD SWAP3 SWAP1 SWAP3 MSTORE PUSH1 0x40 ADD SWAP1 KECCAK256 SLOAD DUP4 SWAP1 PUSH2 0x1A9E JUMP JUMPDEST SWAP2 POP DUP1 PUSH2 0x1F91 DUP2 PUSH2 0x261C JUMP JUMPDEST SWAP2 POP POP PUSH2 0x1E54 JUMP JUMPDEST POP PUSH1 0xB SLOAD PUSH1 0xC SLOAD PUSH2 0x1FA9 SWAP2 PUSH2 0x19FD JUMP JUMPDEST DUP3 LT ISZERO PUSH2 0x1FC0 JUMPI PUSH1 0xC SLOAD PUSH1 0xB SLOAD SWAP4 POP SWAP4 POP POP POP SWAP1 SWAP2 JUMP JUMPDEST SWAP1 SWAP4 SWAP1 SWAP3 POP SWAP1 POP JUMP JUMPDEST PUSH1 0x0 DUP2 DUP4 PUSH2 0x1FEA JUMPI PUSH1 0x40 MLOAD PUSH3 0x461BCD PUSH1 0xE5 SHL DUP2 MSTORE PUSH1 0x4 ADD PUSH2 0x6D5 SWAP2 SWAP1 PUSH2 0x23D7 JUMP JUMPDEST POP PUSH1 0x0 PUSH2 0x19D1 DUP5 DUP7 PUSH2 0x268B JUMP JUMPDEST PUSH1 0x14 SLOAD PUSH1 0x0 SWAP1 PUSH2 0x6A5 SWAP1 PUSH1 0x64 SWAP1 PUSH2 0x10FC SWAP1 DUP6 SWAP1 PUSH2 0xFFFF AND PUSH2 0x1B74 JUMP JUMPDEST PUSH1 0x14 SLOAD PUSH1 0x0 SWAP1 PUSH2 0x6A5 SWAP1 PUSH1 0x64 SWAP1 PUSH2 0x10FC SWAP1 DUP6 SWAP1 PUSH3 0x10000 SWAP1 DIV PUSH2 0xFFFF AND PUSH2 0x1B74 JUMP JUMPDEST PUSH1 0x0 DUP1 PUSH1 0x0 PUSH2 0x2043 DUP5 PUSH2 0x1AE0 JUMP JUMPDEST SWAP3 POP SWAP3 POP SWAP3 POP PUSH1 0x0 DUP1 PUSH1 0x0 PUSH2 0x205C DUP8 DUP7 DUP7 PUSH2 0xCC1 PUSH2 0x19DA JUMP JUMPDEST PUSH1 0x1 PUSH1 0x1 PUSH1 0xA0 SHL SUB DUP13 AND PUSH1 0x0 SWAP1 DUP2 MSTORE PUSH1 0x3 PUSH1 0x20 MSTORE PUSH1 0x40 SWAP1 KECCAK256 SLOAD SWAP3 SWAP6 POP SWAP1 SWAP4 POP SWAP2 POP PUSH2 0x2087 SWAP1 DUP9 PUSH2 0x1A9E JUMP JUMPDEST PUSH1 0x1 PUSH1 0x1 PUSH1 0xA0 SHL SUB DUP11 AND PUSH1 0x0 SWAP1 DUP2 MSTORE PUSH1 0x3 PUSH1 0x20 SWAP1 DUP2 MSTORE PUSH1 0x40 DUP1 DUP4 KECCAK256 SWAP4 SWAP1 SWAP4 SSTORE PUSH1 0x2 SWAP1 MSTORE KECCAK256 SLOAD PUSH2 0x20B6 SWAP1 DUP5 PUSH2 0x1A9E JUMP JUMPDEST PUSH1 0x1 PUSH1 0x1 PUSH1 0xA0 SHL SUB DUP1 DUP12 AND PUSH1 0x0 SWAP1 DUP2 MSTORE PUSH1 0x2 PUSH1 0x20 MSTORE PUSH1 0x40 DUP1 DUP3 KECCAK256 SWAP4 SWAP1 SWAP4 SSTORE SWAP1 DUP11 AND DUP2 MSTORE KECCAK256 SLOAD PUSH2 0x20E5 SWAP1 DUP4 PUSH2 0x1A3F JUMP JUMPDEST PUSH1 0x1 PUSH1 0x1 PUSH1 0xA0 SHL SUB DUP10 AND PUSH1 0x0 SWAP1 DUP2 MSTORE PUSH1 0x2 PUSH1 0x20 MSTORE PUSH1 0x40 SWAP1 KECCAK256 SSTORE PUSH2 0x2107 DUP5 PUSH2 0x22F3 JUMP JUMPDEST PUSH2 0x2111 DUP2 DUP7 PUSH2 0x23B3 JUMP JUMPDEST DUP8 PUSH1 0x1 PUSH1 0x1 PUSH1 0xA0 SHL SUB AND DUP10 PUSH1 0x1 PUSH1 0x1 PUSH1 0xA0 SHL SUB AND PUSH32 0xDDF252AD1BE2C89B69C2B068FC378DAA952BA7F163C4A11628F55A4DF523B3EF DUP9 PUSH1 0x40 MLOAD PUSH2 0x2156 SWAP2 DUP2 MSTORE PUSH1 0x20 ADD SWAP1 JUMP JUMPDEST PUSH1 0x40 MLOAD DUP1 SWAP2 SUB SWAP1 LOG3 POP POP POP POP POP POP POP POP POP JUMP JUMPDEST PUSH1 0x0 DUP1 PUSH1 0x0 PUSH2 0x2177 DUP5 PUSH2 0x1AE0 JUMP JUMPDEST SWAP3 POP SWAP3 POP SWAP3 POP PUSH1 0x0 DUP1 PUSH1 0x0 PUSH2 0x2190 DUP8 DUP7 DUP7 PUSH2 0xCC1 PUSH2 0x19DA JUMP JUMPDEST PUSH1 0x1 PUSH1 0x1 PUSH1 0xA0 SHL SUB DUP13 AND PUSH1 0x0 SWAP1 DUP2 MSTORE PUSH1 0x2 PUSH1 0x20 MSTORE PUSH1 0x40 SWAP1 KECCAK256 SLOAD SWAP3 SWAP6 POP SWAP1 SWAP4 POP SWAP2 POP PUSH2 0x21BB SWAP1 DUP5 PUSH2 0x1A9E JUMP JUMPDEST PUSH1 0x1 PUSH1 0x1 PUSH1 0xA0 SHL SUB DUP1 DUP12 AND PUSH1 0x0 SWAP1 DUP2 MSTORE PUSH1 0x2 PUSH1 0x20 SWAP1 DUP2 MSTORE PUSH1 0x40 DUP1 DUP4 KECCAK256 SWAP5 SWAP1 SWAP5 SSTORE SWAP2 DUP12 AND DUP2 MSTORE PUSH1 0x3 SWAP1 SWAP2 MSTORE KECCAK256 SLOAD PUSH2 0x21F1 SWAP1 DUP8 PUSH2 0x1A3F JUMP JUMPDEST PUSH1 0x1 PUSH1 0x1 PUSH1 0xA0 SHL SUB DUP10 AND PUSH1 0x0 SWAP1 DUP2 MSTORE PUSH1 0x3 PUSH1 0x20 SWAP1 DUP2 MSTORE PUSH1 0x40 DUP1 DUP4 KECCAK256 SWAP4 SWAP1 SWAP4 SSTORE PUSH1 0x2 SWAP1 MSTORE KECCAK256 SLOAD PUSH2 0x20E5 SWAP1 DUP4 PUSH2 0x1A3F JUMP JUMPDEST PUSH1 0x0 DUP1 PUSH1 0x0 PUSH2 0x222E DUP5 PUSH2 0x1AE0 JUMP JUMPDEST SWAP3 POP SWAP3 POP SWAP3 POP PUSH1 0x0 DUP1 PUSH1 0x0 PUSH2 0x2247 DUP8 DUP7 DUP7 PUSH2 0xCC1 PUSH2 0x19DA JUMP JUMPDEST PUSH1 0x1 PUSH1 0x1 PUSH1 0xA0 SHL SUB DUP13 AND PUSH1 0x0 SWAP1 DUP2 MSTORE PUSH1 0x2 PUSH1 0x20 MSTORE PUSH1 0x40 SWAP1 KECCAK256 SLOAD SWAP3 SWAP6 POP SWAP1 SWAP4 POP SWAP2 POP PUSH2 0x20B6 SWAP1 DUP5 PUSH2 0x1A9E JUMP JUMPDEST PUSH1 0x0 DUP1 PUSH1 0x0 PUSH2 0x2280 DUP5 PUSH2 0x1AE0 JUMP JUMPDEST SWAP3 POP SWAP3 POP SWAP3 POP PUSH1 0x0 DUP1 PUSH1 0x0 PUSH2 0x2299 DUP8 DUP7 DUP7 PUSH2 0xCC1 PUSH2 0x19DA JUMP JUMPDEST PUSH1 0x1 PUSH1 0x1 PUSH1 0xA0 SHL SUB DUP13 AND PUSH1 0x0 SWAP1 DUP2 MSTORE PUSH1 0x3 PUSH1 0x20 MSTORE PUSH1 0x40 SWAP1 KECCAK256 SLOAD SWAP3 SWAP6 POP SWAP1 SWAP4 POP SWAP2 POP PUSH2 0x22C4 SWAP1 DUP9 PUSH2 0x1A9E JUMP JUMPDEST PUSH1 0x1 PUSH1 0x1 PUSH1 0xA0 SHL SUB DUP11 AND PUSH1 0x0 SWAP1 DUP2 MSTORE PUSH1 0x3 PUSH1 0x20 SWAP1 DUP2 MSTORE PUSH1 0x40 DUP1 DUP4 KECCAK256 SWAP4 SWAP1 SWAP4 SSTORE PUSH1 0x2 SWAP1 MSTORE KECCAK256 SLOAD PUSH2 0x21BB SWAP1 DUP5 PUSH2 0x1A9E JUMP JUMPDEST PUSH1 0x0 PUSH2 0x22FD PUSH2 0x19DA JUMP JUMPDEST SWAP1 POP PUSH1 0x0 PUSH2 0x230B DUP4 DUP4 PUSH2 0x1B74 JUMP JUMPDEST PUSH1 0xE SLOAD PUSH1 0x1 PUSH1 0x1 PUSH1 0xA0 SHL SUB AND PUSH1 0x0 SWAP1 DUP2 MSTORE PUSH1 0x2 PUSH1 0x20 MSTORE PUSH1 0x40 SWAP1 KECCAK256 SLOAD SWAP1 SWAP2 POP PUSH2 0x2333 SWAP1 DUP3 PUSH2 0x1A3F JUMP JUMPDEST PUSH1 0xE DUP1 SLOAD PUSH1 0x1 PUSH1 0x1 PUSH1 0xA0 SHL SUB SWAP1 DUP2 AND PUSH1 0x0 SWAP1 DUP2 MSTORE PUSH1 0x2 PUSH1 0x20 SWAP1 DUP2 MSTORE PUSH1 0x40 DUP1 DUP4 KECCAK256 SWAP6 SWAP1 SWAP6 SSTORE SWAP3 SLOAD SWAP1 SWAP2 AND DUP2 MSTORE PUSH1 0x6 SWAP1 SWAP2 MSTORE KECCAK256 SLOAD PUSH1 0xFF AND ISZERO PUSH2 0x23AE JUMPI PUSH1 0xE SLOAD PUSH1 0x1 PUSH1 0x1 PUSH1 0xA0 SHL SUB AND PUSH1 0x0 SWAP1 DUP2 MSTORE PUSH1 0x3 PUSH1 0x20 MSTORE PUSH1 0x40 SWAP1 KECCAK256 SLOAD PUSH2 0x2392 SWAP1 DUP5 PUSH2 0x1A3F JUMP JUMPDEST PUSH1 0xE SLOAD PUSH1 0x1 PUSH1 0x1 PUSH1 0xA0 SHL SUB AND PUSH1 0x0 SWAP1 DUP2 MSTORE PUSH1 0x3 PUSH1 0x20 MSTORE PUSH1 0x40 SWAP1 KECCAK256 SSTORE JUMPDEST POP POP POP JUMP JUMPDEST PUSH1 0xC SLOAD PUSH2 0x23C0 SWAP1 DUP4 PUSH2 0x1A9E JUMP JUMPDEST PUSH1 0xC SSTORE PUSH1 0xD SLOAD PUSH2 0x23D0 SWAP1 DUP3 PUSH2 0x1A3F JUMP JUMPDEST PUSH1 0xD SSTORE POP POP JUMP JUMPDEST PUSH1 0x0 PUSH1 0x20 DUP1 DUP4 MSTORE DUP4 MLOAD DUP1 DUP3 DUP6 ADD MSTORE PUSH1 0x0 JUMPDEST DUP2 DUP2 LT ISZERO PUSH2 0x2404 JUMPI DUP6 DUP2 ADD DUP4 ADD MLOAD DUP6 DUP3 ADD PUSH1 0x40 ADD MSTORE DUP3 ADD PUSH2 0x23E8 JUMP JUMPDEST DUP2 DUP2 GT ISZERO PUSH2 0x2416 JUMPI PUSH1 0x0 PUSH1 0x40 DUP4 DUP8 ADD ADD MSTORE JUMPDEST POP PUSH1 0x1F ADD PUSH1 0x1F NOT AND SWAP3 SWAP1 SWAP3 ADD PUSH1 0x40 ADD SWAP4 SWAP3 POP POP POP JUMP JUMPDEST PUSH1 0x1 PUSH1 0x1 PUSH1 0xA0 SHL SUB DUP2 AND DUP2 EQ PUSH2 0x2441 JUMPI PUSH1 0x0 DUP1 REVERT JUMPDEST POP JUMP JUMPDEST PUSH1 0x0 DUP1 PUSH1 0x40 DUP4 DUP6 SUB SLT ISZERO PUSH2 0x2457 JUMPI PUSH1 0x0 DUP1 REVERT JUMPDEST DUP3 CALLDATALOAD PUSH2 0x2462 DUP2 PUSH2 0x242C JUMP JUMPDEST SWAP5 PUSH1 0x20 SWAP4 SWAP1 SWAP4 ADD CALLDATALOAD SWAP4 POP POP POP JUMP JUMPDEST PUSH1 0x0 PUSH1 0x20 DUP3 DUP5 SUB SLT ISZERO PUSH2 0x2482 JUMPI PUSH1 0x0 DUP1 REVERT JUMPDEST DUP2 CALLDATALOAD PUSH2 0x959 DUP2 PUSH2 0x242C JUMP JUMPDEST PUSH1 0x0 DUP1 PUSH1 0x0 PUSH1 0x60 DUP5 DUP7 SUB SLT ISZERO PUSH2 0x24A2 JUMPI PUSH1 0x0 DUP1 REVERT JUMPDEST DUP4 CALLDATALOAD PUSH2 0x24AD DUP2 PUSH2 0x242C JUMP JUMPDEST SWAP3 POP PUSH1 0x20 DUP5 ADD CALLDATALOAD PUSH2 0x24BD DUP2 PUSH2 0x242C JUMP JUMPDEST SWAP3 SWAP6 SWAP3 SWAP5 POP POP POP PUSH1 0x40 SWAP2 SWAP1 SWAP2 ADD CALLDATALOAD SWAP1 JUMP JUMPDEST PUSH1 0x0 PUSH1 0x20 DUP3 DUP5 SUB SLT ISZERO PUSH2 0x24E0 JUMPI PUSH1 0x0 DUP1 REVERT JUMPDEST POP CALLDATALOAD SWAP2 SWAP1 POP JUMP JUMPDEST DUP1 ISZERO ISZERO DUP2 EQ PUSH2 0x2441 JUMPI PUSH1 0x0 DUP1 REVERT JUMPDEST PUSH1 0x0 DUP1 PUSH1 0x40 DUP4 DUP6 SUB SLT ISZERO PUSH2 0x2508 JUMPI PUSH1 0x0 DUP1 REVERT JUMPDEST DUP3 CALLDATALOAD SWAP2 POP PUSH1 0x20 DUP4 ADD CALLDATALOAD PUSH2 0x251A DUP2 PUSH2 0x24E7 JUMP JUMPDEST DUP1 SWAP2 POP POP SWAP3 POP SWAP3 SWAP1 POP JUMP JUMPDEST PUSH1 0x0 DUP1 PUSH1 0x40 DUP4 DUP6 SUB SLT ISZERO PUSH2 0x2538 JUMPI PUSH1 0x0 DUP1 REVERT JUMPDEST DUP3 CALLDATALOAD PUSH2 0x2543 DUP2 PUSH2 0x242C JUMP JUMPDEST SWAP2 POP PUSH1 0x20 DUP4 ADD CALLDATALOAD PUSH2 0x251A DUP2 PUSH2 0x242C JUMP JUMPDEST PUSH1 0x1 DUP2 DUP2 SHR SWAP1 DUP3 AND DUP1 PUSH2 0x2567 JUMPI PUSH1 0x7F DUP3 AND SWAP2 POP JUMPDEST PUSH1 0x20 DUP3 LT DUP2 EQ ISZERO PUSH2 0x2588 JUMPI PUSH4 0x4E487B71 PUSH1 0xE0 SHL PUSH1 0x0 MSTORE PUSH1 0x22 PUSH1 0x4 MSTORE PUSH1 0x24 PUSH1 0x0 REVERT JUMPDEST POP SWAP2 SWAP1 POP JUMP JUMPDEST PUSH1 0x20 DUP1 DUP3 MSTORE DUP2 DUP2 ADD MSTORE PUSH32 0x4F776E61626C653A2063616C6C6572206973206E6F7420746865206F776E6572 PUSH1 0x40 DUP3 ADD MSTORE PUSH1 0x60 ADD SWAP1 JUMP JUMPDEST PUSH4 0x4E487B71 PUSH1 0xE0 SHL PUSH1 0x0 MSTORE PUSH1 0x32 PUSH1 0x4 MSTORE PUSH1 0x24 PUSH1 0x0 REVERT JUMPDEST PUSH4 0x4E487B71 PUSH1 0xE0 SHL PUSH1 0x0 MSTORE PUSH1 0x11 PUSH1 0x4 MSTORE PUSH1 0x24 PUSH1 0x0 REVERT JUMPDEST PUSH1 0x0 DUP3 DUP3 LT ISZERO PUSH2 0x2601 JUMPI PUSH2 0x2601 PUSH2 0x25D9 JUMP JUMPDEST POP SUB SWAP1 JUMP JUMPDEST PUSH4 0x4E487B71 PUSH1 0xE0 SHL PUSH1 0x0 MSTORE PUSH1 0x31 PUSH1 0x4 MSTORE PUSH1 0x24 PUSH1 0x0 REVERT JUMPDEST PUSH1 0x0 PUSH1 0x0 NOT DUP3 EQ ISZERO PUSH2 0x2630 JUMPI PUSH2 0x2630 PUSH2 0x25D9 JUMP JUMPDEST POP PUSH1 0x1 ADD SWAP1 JUMP JUMPDEST PUSH1 0x0 PUSH1 0x20 DUP3 DUP5 SUB SLT ISZERO PUSH2 0x2649 JUMPI PUSH1 0x0 DUP1 REVERT JUMPDEST DUP2 MLOAD PUSH2 0x959 DUP2 PUSH2 0x24E7 JUMP JUMPDEST PUSH1 0x0 DUP3 NOT DUP3 GT ISZERO PUSH2 0x2667 JUMPI PUSH2 0x2667 PUSH2 0x25D9 JUMP JUMPDEST POP ADD SWAP1 JUMP JUMPDEST PUSH1 0x0 DUP2 PUSH1 0x0 NOT DIV DUP4 GT DUP3 ISZERO ISZERO AND ISZERO PUSH2 0x2686 JUMPI PUSH2 0x2686 PUSH2 0x25D9 JUMP JUMPDEST POP MUL SWAP1 JUMP JUMPDEST PUSH1 0x0 DUP3 PUSH2 0x26A8 JUMPI PUSH4 0x4E487B71 PUSH1 0xE0 SHL PUSH1 0x0 MSTORE PUSH1 0x12 PUSH1 0x4 MSTORE PUSH1 0x24 PUSH1 0x0 REVERT JUMPDEST POP DIV SWAP1 JUMP INVALID GASLIMIT MSTORE NUMBER ORIGIN ADDRESS GASPRICE KECCAK256 PUSH21 0x72616E7366657220616D6F756E7420657863656564 PUSH20 0x20616C6C6F77616E636545524332303A20646563 PUSH19 0x656173656420616C6C6F77616E63652062656C PUSH16 0x77207A65726FA2646970667358221220 0xAA OR 0xF 0xD1 SWAP4 0x2E 0xE2 ORIGIN SWAP8 PUSH26 0x2089715B04ACF719B51F0B4D71187B457180B3497C2E64736F6C PUSH4 0x4300080A STOP CALLER "
				},
				"gasEstimates": {
					"creation": {
						"codeDepositCost": "2006400",
						"executionCost": "infinite",
						"totalCost": "infinite"
					},
					"external": {
						"": "261",
						"_maxTxAmount()": "2407",
						"_maxWalletSize()": "2362",
						"_setMaxWalletSizePercent(uint256)": "infinite",
						"_taxPool()": "2448",
						"addBotToBlacklist(address)": "77547",
						"allowance(address,address)": "infinite",
						"approve(address,uint256)": "24660",
						"balanceOf(address)": "infinite",
						"burn(uint256)": "infinite",
						"buyFee()": "2430",
						"decimals()": "2335",
						"decreaseAllowance(address,uint256)": "infinite",
						"excludeFromFee(address)": "26878",
						"excludeFromLimit(address)": "26835",
						"excludeFromReward(address)": "infinite",
						"includeInFee(address)": "26848",
						"includeInLimit(address)": "26827",
						"includeInReward(address)": "infinite",
						"increaseAllowance(address,uint256)": "27095",
						"isExcludedFromFee(address)": "2589",
						"isExcludedFromLimit(address)": "2609",
						"isExcludedFromReward(address)": "2677",
						"name()": "infinite",
						"owner()": "2376",
						"reflectionFromToken(uint256,bool)": "infinite",
						"removeBotFromBlacklist(address)": "infinite",
						"renounceOwnership()": "30255",
						"sellFee()": "2475",
						"setMaxTxPercent(uint256)": "infinite",
						"symbol()": "infinite",
						"tokenFromReflection(uint256)": "infinite",
						"totalFees()": "2394",
						"totalSupply()": "2338",
						"transfer(address,uint256)": "infinite",
						"transferFrom(address,address,uint256)": "infinite",
						"transferOwnership(address)": "30526",
						"uniswapV2Pair()": "infinite",
						"uniswapV2Router()": "infinite",
						"updateTaxPoolWallet(address)": "26838",
						"withdrawToken(address,uint256)": "infinite"
					},
					"internal": {
						"_approve(address,address,uint256)": "infinite",
						"_getCurrentSupply()": "infinite",
						"_getRValues(uint256,uint256,uint256,uint256)": "infinite",
						"_getRate()": "infinite",
						"_getTValues(uint256)": "infinite",
						"_reflectFee(uint256,uint256)": "infinite",
						"_takeMarketing(uint256)": "infinite",
						"_tokenTransfer(address,address,uint256,bool)": "infinite",
						"_transfer(address,address,uint256)": "infinite",
						"_transferBothExcluded(address,address,uint256)": "infinite",
						"_transferFromExcluded(address,address,uint256)": "infinite",
						"_transferStandard(address,address,uint256)": "infinite",
						"_transferToExcluded(address,address,uint256)": "infinite",
						"addLiquidity(uint256,uint256)": "infinite",
						"calculateMarketingFee(uint256)": "infinite",
						"calculateTaxFee(uint256)": "infinite",
						"removeAllFee()": "infinite",
						"setBuy()": "infinite",
						"setSell()": "infinite",
						"swapTokensForEth(uint256)": "infinite"
					}
				},
				"methodIdentifiers": {
					"_maxTxAmount()": "7d1db4a5",
					"_maxWalletSize()": "8f9a55c0",
					"_setMaxWalletSizePercent(uint256)": "af2ce614",
					"_taxPool()": "4eeb94ce",
					"addBotToBlacklist(address)": "1d7ef879",
					"allowance(address,address)": "dd62ed3e",
					"approve(address,uint256)": "095ea7b3",
					"balanceOf(address)": "70a08231",
					"burn(uint256)": "42966c68",
					"buyFee()": "47062402",
					"decimals()": "313ce567",
					"decreaseAllowance(address,uint256)": "a457c2d7",
					"excludeFromFee(address)": "437823ec",
					"excludeFromLimit(address)": "0bd3a7f9",
					"excludeFromReward(address)": "52390c02",
					"includeInFee(address)": "ea2f0b37",
					"includeInLimit(address)": "91d919a9",
					"includeInReward(address)": "3685d419",
					"increaseAllowance(address,uint256)": "39509351",
					"isExcludedFromFee(address)": "5342acb4",
					"isExcludedFromLimit(address)": "d94160e0",
					"isExcludedFromReward(address)": "88f82020",
					"name()": "06fdde03",
					"owner()": "8da5cb5b",
					"reflectionFromToken(uint256,bool)": "4549b039",
					"removeBotFromBlacklist(address)": "b030b34a",
					"renounceOwnership()": "715018a6",
					"sellFee()": "2b14ca56",
					"setMaxTxPercent(uint256)": "d543dbeb",
					"symbol()": "95d89b41",
					"tokenFromReflection(uint256)": "2d838119",
					"totalFees()": "13114a9d",
					"totalSupply()": "18160ddd",
					"transfer(address,uint256)": "a9059cbb",
					"transferFrom(address,address,uint256)": "23b872dd",
					"transferOwnership(address)": "f2fde38b",
					"uniswapV2Pair()": "49bd5a5e",
					"uniswapV2Router()": "1694505e",
					"updateTaxPoolWallet(address)": "ba1c4246",
					"withdrawToken(address,uint256)": "9e281a98"
				}
			},
			"storageLayout": {
				"storage": [
					{
						"astId": 476,
						"contract": "contracts/coffe.sol:CoffeeCrypto",
						"label": "_owner",
						"offset": 0,
						"slot": "0",
						"type": "t_address"
					},
					{
						"astId": 478,
						"contract": "contracts/coffe.sol:CoffeeCrypto",
						"label": "_previousOwner",
						"offset": 0,
						"slot": "1",
						"type": "t_address"
					},
					{
						"astId": 1288,
						"contract": "contracts/coffe.sol:CoffeeCrypto",
						"label": "_rOwned",
						"offset": 0,
						"slot": "2",
						"type": "t_mapping(t_address,t_uint256)"
					},
					{
						"astId": 1292,
						"contract": "contracts/coffe.sol:CoffeeCrypto",
						"label": "_tOwned",
						"offset": 0,
						"slot": "3",
						"type": "t_mapping(t_address,t_uint256)"
					},
					{
						"astId": 1298,
						"contract": "contracts/coffe.sol:CoffeeCrypto",
						"label": "_allowances",
						"offset": 0,
						"slot": "4",
						"type": "t_mapping(t_address,t_mapping(t_address,t_uint256))"
					},
					{
						"astId": 1302,
						"contract": "contracts/coffe.sol:CoffeeCrypto",
						"label": "_isExcludedFromFee",
						"offset": 0,
						"slot": "5",
						"type": "t_mapping(t_address,t_bool)"
					},
					{
						"astId": 1306,
						"contract": "contracts/coffe.sol:CoffeeCrypto",
						"label": "_isExcluded",
						"offset": 0,
						"slot": "6",
						"type": "t_mapping(t_address,t_bool)"
					},
					{
						"astId": 1309,
						"contract": "contracts/coffe.sol:CoffeeCrypto",
						"label": "_excluded",
						"offset": 0,
						"slot": "7",
						"type": "t_array(t_address)dyn_storage"
					},
					{
						"astId": 1313,
						"contract": "contracts/coffe.sol:CoffeeCrypto",
						"label": "_isBlackListedBot",
						"offset": 0,
						"slot": "8",
						"type": "t_mapping(t_address,t_bool)"
					},
					{
						"astId": 1317,
						"contract": "contracts/coffe.sol:CoffeeCrypto",
						"label": "_isExcludedFromLimit",
						"offset": 0,
						"slot": "9",
						"type": "t_mapping(t_address,t_bool)"
					},
					{
						"astId": 1320,
						"contract": "contracts/coffe.sol:CoffeeCrypto",
						"label": "_blackListedBots",
						"offset": 0,
						"slot": "10",
						"type": "t_array(t_address)dyn_storage"
					},
					{
						"astId": 1338,
						"contract": "contracts/coffe.sol:CoffeeCrypto",
						"label": "_tTotal",
						"offset": 0,
						"slot": "11",
						"type": "t_uint256"
					},
					{
						"astId": 1347,
						"contract": "contracts/coffe.sol:CoffeeCrypto",
						"label": "_rTotal",
						"offset": 0,
						"slot": "12",
						"type": "t_uint256"
					},
					{
						"astId": 1349,
						"contract": "contracts/coffe.sol:CoffeeCrypto",
						"label": "_tFeeTotal",
						"offset": 0,
						"slot": "13",
						"type": "t_uint256"
					},
					{
						"astId": 1358,
						"contract": "contracts/coffe.sol:CoffeeCrypto",
						"label": "_taxPool",
						"offset": 0,
						"slot": "14",
						"type": "t_address_payable"
					},
					{
						"astId": 1361,
						"contract": "contracts/coffe.sol:CoffeeCrypto",
						"label": "_name",
						"offset": 0,
						"slot": "15",
						"type": "t_string_storage"
					},
					{
						"astId": 1364,
						"contract": "contracts/coffe.sol:CoffeeCrypto",
						"label": "_symbol",
						"offset": 0,
						"slot": "16",
						"type": "t_string_storage"
					},
					{
						"astId": 1367,
						"contract": "contracts/coffe.sol:CoffeeCrypto",
						"label": "_decimals",
						"offset": 0,
						"slot": "17",
						"type": "t_uint8"
					},
					{
						"astId": 1380,
						"contract": "contracts/coffe.sol:CoffeeCrypto",
						"label": "buyFee",
						"offset": 0,
						"slot": "18",
						"type": "t_struct(BuyFee)1372_storage"
					},
					{
						"astId": 1383,
						"contract": "contracts/coffe.sol:CoffeeCrypto",
						"label": "sellFee",
						"offset": 0,
						"slot": "19",
						"type": "t_struct(SellFee)1377_storage"
					},
					{
						"astId": 1385,
						"contract": "contracts/coffe.sol:CoffeeCrypto",
						"label": "_taxFee",
						"offset": 0,
						"slot": "20",
						"type": "t_uint16"
					},
					{
						"astId": 1387,
						"contract": "contracts/coffe.sol:CoffeeCrypto",
						"label": "_marketingFee",
						"offset": 2,
						"slot": "20",
						"type": "t_uint16"
					},
					{
						"astId": 1403,
						"contract": "contracts/coffe.sol:CoffeeCrypto",
						"label": "_maxTxAmount",
						"offset": 0,
						"slot": "21",
						"type": "t_uint256"
					},
					{
						"astId": 1414,
						"contract": "contracts/coffe.sol:CoffeeCrypto",
						"label": "_maxWalletSize",
						"offset": 0,
						"slot": "22",
						"type": "t_uint256"
					}
				],
				"types": {
					"t_address": {
						"encoding": "inplace",
						"label": "address",
						"numberOfBytes": "20"
					},
					"t_address_payable": {
						"encoding": "inplace",
						"label": "address payable",
						"numberOfBytes": "20"
					},
					"t_array(t_address)dyn_storage": {
						"base": "t_address",
						"encoding": "dynamic_array",
						"label": "address[]",
						"numberOfBytes": "32"
					},
					"t_bool": {
						"encoding": "inplace",
						"label": "bool",
						"numberOfBytes": "1"
					},
					"t_mapping(t_address,t_bool)": {
						"encoding": "mapping",
						"key": "t_address",
						"label": "mapping(address => bool)",
						"numberOfBytes": "32",
						"value": "t_bool"
					},
					"t_mapping(t_address,t_mapping(t_address,t_uint256))": {
						"encoding": "mapping",
						"key": "t_address",
						"label": "mapping(address => mapping(address => uint256))",
						"numberOfBytes": "32",
						"value": "t_mapping(t_address,t_uint256)"
					},
					"t_mapping(t_address,t_uint256)": {
						"encoding": "mapping",
						"key": "t_address",
						"label": "mapping(address => uint256)",
						"numberOfBytes": "32",
						"value": "t_uint256"
					},
					"t_string_storage": {
						"encoding": "bytes",
						"label": "string",
						"numberOfBytes": "32"
					},
					"t_struct(BuyFee)1372_storage": {
						"encoding": "inplace",
						"label": "struct CoffeeCrypto.BuyFee",
						"members": [
							{
								"astId": 1369,
								"contract": "contracts/coffe.sol:CoffeeCrypto",
								"label": "tax",
								"offset": 0,
								"slot": "0",
								"type": "t_uint16"
							},
							{
								"astId": 1371,
								"contract": "contracts/coffe.sol:CoffeeCrypto",
								"label": "marketing",
								"offset": 2,
								"slot": "0",
								"type": "t_uint16"
							}
						],
						"numberOfBytes": "32"
					},
					"t_struct(SellFee)1377_storage": {
						"encoding": "inplace",
						"label": "struct CoffeeCrypto.SellFee",
						"members": [
							{
								"astId": 1374,
								"contract": "contracts/coffe.sol:CoffeeCrypto",
								"label": "tax",
								"offset": 0,
								"slot": "0",
								"type": "t_uint16"
							},
							{
								"astId": 1376,
								"contract": "contracts/coffe.sol:CoffeeCrypto",
								"label": "marketing",
								"offset": 2,
								"slot": "0",
								"type": "t_uint16"
							}
						],
						"numberOfBytes": "32"
					},
					"t_uint16": {
						"encoding": "inplace",
						"label": "uint16",
						"numberOfBytes": "2"
					},
					"t_uint256": {
						"encoding": "inplace",
						"label": "uint256",
						"numberOfBytes": "32"
					},
					"t_uint8": {
						"encoding": "inplace",
						"label": "uint8",
						"numberOfBytes": "1"
					}
				}
			},
			"userdoc": {
				"kind": "user",
				"methods": {},
				"version": 1
			}
		}
	}
}