{
	"contracts/coffe.sol": {
		"Ownable": {
			"abi": [
				{
					"inputs": [],
					"stateMutability": "nonpayable",
					"type": "constructor"
				},
				{
					"anonymous": false,
					"inputs": [
						{
							"indexed": true,
							"internalType": "address",
							"name": "previousOwner",
							"type": "address"
						},
						{
							"indexed": true,
							"internalType": "address",
							"name": "newOwner",
							"type": "address"
						}
					],
					"name": "OwnershipTransferred",
					"type": "event"
				},
				{
					"inputs": [],
					"name": "owner",
					"outputs": [
						{
							"internalType": "address",
							"name": "",
							"type": "address"
						}
					],
					"stateMutability": "view",
					"type": "function"
				},
				{
					"inputs": [],
					"name": "renounceOwnership",
					"outputs": [],
					"stateMutability": "nonpayable",
					"type": "function"
				},
				{
					"inputs": [
						{
							"internalType": "address",
							"name": "newOwner",
							"type": "address"
						}
					],
					"name": "transferOwnership",
					"outputs": [],
					"stateMutability": "nonpayable",
					"type": "function"
				}
			],
			"devdoc": {
				"kind": "dev",
				"methods": {},
				"version": 1
			},
			"evm": {
				"assembly": "    /* \"contracts/coffe.sol\":7713:8784  contract Ownable is Context {... */\n  mstore(0x40, 0x80)\n    /* \"contracts/coffe.sol\":7939:8092  constructor() {... */\n  callvalue\n  dup1\n  iszero\n  tag_1\n  jumpi\n  0x00\n  dup1\n  revert\ntag_1:\n  pop\n    /* \"contracts/coffe.sol\":7964:7981  address msgSender */\n  0x00\n    /* \"contracts/coffe.sol\":8007:8025  _owner = msgSender */\n  dup1\n  sload\n  not(sub(shl(0xa0, 0x01), 0x01))\n  and\n    /* \"contracts/coffe.sol\":4348:4358  msg.sender */\n  caller\n    /* \"contracts/coffe.sol\":8007:8025  _owner = msgSender */\n  swap1\n  dup2\n  or\n  dup3\n  sstore\n    /* \"contracts/coffe.sol\":8041:8084  OwnershipTransferred(address(0), msgSender) */\n  mload(0x40)\n    /* \"contracts/coffe.sol\":4348:4358  msg.sender */\n  swap1\n  swap2\n  dup3\n  swap2\n    /* \"contracts/coffe.sol\":8041:8084  OwnershipTransferred(address(0), msgSender) */\n  0x8be0079c531659141344cd1fd0a4f28419497f9722a3daafe3b4186f6b6457e0\n  swap1\n    /* \"contracts/coffe.sol\":7964:7981  address msgSender */\n  dup3\n  swap1\n    /* \"contracts/coffe.sol\":8041:8084  OwnershipTransferred(address(0), msgSender) */\n  log3\n    /* \"contracts/coffe.sol\":7953:8092  {... */\n  pop\n    /* \"contracts/coffe.sol\":7713:8784  contract Ownable is Context {... */\n  dataSize(sub_0)\n  dup1\n  dataOffset(sub_0)\n  0x00\n  codecopy\n  0x00\n  return\nstop\n\nsub_0: assembly {\n        /* \"contracts/coffe.sol\":7713:8784  contract Ownable is Context {... */\n      mstore(0x40, 0x80)\n      callvalue\n      dup1\n      iszero\n      tag_1\n      jumpi\n      0x00\n      dup1\n      revert\n    tag_1:\n      pop\n      jumpi(tag_2, lt(calldatasize, 0x04))\n      shr(0xe0, calldataload(0x00))\n      dup1\n      0x715018a6\n      eq\n      tag_3\n      jumpi\n      dup1\n      0x8da5cb5b\n      eq\n      tag_4\n      jumpi\n      dup1\n      0xf2fde38b\n      eq\n      tag_5\n      jumpi\n    tag_2:\n      0x00\n      dup1\n      revert\n        /* \"contracts/coffe.sol\":8332:8480  function renounceOwnership() public virtual onlyOwner {... */\n    tag_3:\n      tag_6\n      tag_7\n      jump\t// in\n    tag_6:\n      stop\n        /* \"contracts/coffe.sol\":8106:8185  function owner() public view returns (address) {... */\n    tag_4:\n        /* \"contracts/coffe.sol\":8144:8151  address */\n      0x00\n        /* \"contracts/coffe.sol\":8171:8177  _owner */\n      sload\n        /* \"contracts/coffe.sol\":8106:8185  function owner() public view returns (address) {... */\n      0x40\n      dup1\n      mload\n      sub(shl(0xa0, 0x01), 0x01)\n        /* \"contracts/coffe.sol\":8171:8177  _owner */\n      swap1\n      swap3\n      and\n        /* \"#utility.yul\":160:211   */\n      dup3\n      mstore\n        /* \"contracts/coffe.sol\":8106:8185  function owner() public view returns (address) {... */\n      mload\n      swap1\n      dup2\n      swap1\n      sub\n        /* \"#utility.yul\":148:150   */\n      0x20\n        /* \"contracts/coffe.sol\":8106:8185  function owner() public view returns (address) {... */\n      add\n      swap1\n      return\n        /* \"contracts/coffe.sol\":8494:8775  function transferOwnership(address newOwner) public virtual onlyOwner {... */\n    tag_5:\n      tag_6\n      tag_13\n      calldatasize\n      0x04\n      tag_14\n      jump\t// in\n    tag_13:\n      tag_15\n      jump\t// in\n        /* \"contracts/coffe.sol\":8332:8480  function renounceOwnership() public virtual onlyOwner {... */\n    tag_7:\n        /* \"contracts/coffe.sol\":8239:8245  _owner */\n      and(sub(shl(0xa0, 0x01), 0x01), sload(0x00))\n        /* \"contracts/coffe.sol\":4348:4358  msg.sender */\n      caller\n        /* \"contracts/coffe.sol\":8239:8261  _owner == _msgSender() */\n      eq\n        /* \"contracts/coffe.sol\":8231:8298  require(_owner == _msgSender(), \"Ownable: caller is not the owner\") */\n      tag_19\n      jumpi\n      mload(0x40)\n      shl(0xe5, 0x461bcd)\n      dup2\n      mstore\n        /* \"#utility.yul\":715:717   */\n      0x20\n        /* \"contracts/coffe.sol\":8231:8298  require(_owner == _msgSender(), \"Ownable: caller is not the owner\") */\n      0x04\n      dup3\n      add\n        /* \"#utility.yul\":697:718   */\n      dup2\n      swap1\n      mstore\n        /* \"#utility.yul\":734:752   */\n      0x24\n      dup3\n      add\n        /* \"#utility.yul\":727:757   */\n      mstore\n        /* \"#utility.yul\":793:827   */\n      0x4f776e61626c653a2063616c6c6572206973206e6f7420746865206f776e6572\n        /* \"#utility.yul\":773:791   */\n      0x44\n      dup3\n      add\n        /* \"#utility.yul\":766:828   */\n      mstore\n        /* \"#utility.yul\":845:863   */\n      0x64\n      add\n        /* \"contracts/coffe.sol\":8231:8298  require(_owner == _msgSender(), \"Ownable: caller is not the owner\") */\n    tag_20:\n      mload(0x40)\n      dup1\n      swap2\n      sub\n      swap1\n      revert\n    tag_19:\n        /* \"contracts/coffe.sol\":8439:8440  0 */\n      0x00\n        /* \"contracts/coffe.sol\":8423:8429  _owner */\n      dup1\n      sload\n        /* \"contracts/coffe.sol\":8402:8442  OwnershipTransferred(_owner, address(0)) */\n      mload(0x40)\n      sub(shl(0xa0, 0x01), 0x01)\n        /* \"contracts/coffe.sol\":8423:8429  _owner */\n      swap1\n      swap2\n      and\n      swap1\n        /* \"contracts/coffe.sol\":8402:8442  OwnershipTransferred(_owner, address(0)) */\n      0x8be0079c531659141344cd1fd0a4f28419497f9722a3daafe3b4186f6b6457e0\n      swap1\n        /* \"contracts/coffe.sol\":8439:8440  0 */\n      dup4\n      swap1\n        /* \"contracts/coffe.sol\":8402:8442  OwnershipTransferred(_owner, address(0)) */\n      log3\n        /* \"contracts/coffe.sol\":8470:8471  0 */\n      0x00\n        /* \"contracts/coffe.sol\":8453:8472  _owner = address(0) */\n      dup1\n      sload\n      not(sub(shl(0xa0, 0x01), 0x01))\n      and\n      swap1\n      sstore\n        /* \"contracts/coffe.sol\":8332:8480  function renounceOwnership() public virtual onlyOwner {... */\n      jump\t// out\n        /* \"contracts/coffe.sol\":8494:8775  function transferOwnership(address newOwner) public virtual onlyOwner {... */\n    tag_15:\n        /* \"contracts/coffe.sol\":8239:8245  _owner */\n      and(sub(shl(0xa0, 0x01), 0x01), sload(0x00))\n        /* \"contracts/coffe.sol\":4348:4358  msg.sender */\n      caller\n        /* \"contracts/coffe.sol\":8239:8261  _owner == _msgSender() */\n      eq\n        /* \"contracts/coffe.sol\":8231:8298  require(_owner == _msgSender(), \"Ownable: caller is not the owner\") */\n      tag_26\n      jumpi\n      mload(0x40)\n      shl(0xe5, 0x461bcd)\n      dup2\n      mstore\n        /* \"#utility.yul\":715:717   */\n      0x20\n        /* \"contracts/coffe.sol\":8231:8298  require(_owner == _msgSender(), \"Ownable: caller is not the owner\") */\n      0x04\n      dup3\n      add\n        /* \"#utility.yul\":697:718   */\n      dup2\n      swap1\n      mstore\n        /* \"#utility.yul\":734:752   */\n      0x24\n      dup3\n      add\n        /* \"#utility.yul\":727:757   */\n      mstore\n        /* \"#utility.yul\":793:827   */\n      0x4f776e61626c653a2063616c6c6572206973206e6f7420746865206f776e6572\n        /* \"#utility.yul\":773:791   */\n      0x44\n      dup3\n      add\n        /* \"#utility.yul\":766:828   */\n      mstore\n        /* \"#utility.yul\":845:863   */\n      0x64\n      add\n        /* \"contracts/coffe.sol\":8231:8298  require(_owner == _msgSender(), \"Ownable: caller is not the owner\") */\n      tag_20\n        /* \"#utility.yul\":513:869   */\n      jump\n        /* \"contracts/coffe.sol\":8231:8298  require(_owner == _msgSender(), \"Ownable: caller is not the owner\") */\n    tag_26:\n      sub(shl(0xa0, 0x01), 0x01)\n        /* \"contracts/coffe.sol\":8597:8619  newOwner != address(0) */\n      dup2\n      and\n        /* \"contracts/coffe.sol\":8575:8685  require(... */\n      tag_29\n      jumpi\n      mload(0x40)\n      shl(0xe5, 0x461bcd)\n      dup2\n      mstore\n        /* \"#utility.yul\":1076:1078   */\n      0x20\n        /* \"contracts/coffe.sol\":8575:8685  require(... */\n      0x04\n      dup3\n      add\n        /* \"#utility.yul\":1058:1079   */\n      mstore\n        /* \"#utility.yul\":1115:1117   */\n      0x26\n        /* \"#utility.yul\":1095:1113   */\n      0x24\n      dup3\n      add\n        /* \"#utility.yul\":1088:1118   */\n      mstore\n        /* \"#utility.yul\":1154:1188   */\n      0x4f776e61626c653a206e6577206f776e657220697320746865207a65726f2061\n        /* \"#utility.yul\":1134:1152   */\n      0x44\n      dup3\n      add\n        /* \"#utility.yul\":1127:1189   */\n      mstore\n      shl(0xd0, 0x646472657373)\n        /* \"#utility.yul\":1205:1223   */\n      0x64\n      dup3\n      add\n        /* \"#utility.yul\":1198:1234   */\n      mstore\n        /* \"#utility.yul\":1251:1270   */\n      0x84\n      add\n        /* \"contracts/coffe.sol\":8575:8685  require(... */\n      tag_20\n        /* \"#utility.yul\":874:1276   */\n      jump\n        /* \"contracts/coffe.sol\":8575:8685  require(... */\n    tag_29:\n        /* \"contracts/coffe.sol\":8722:8728  _owner */\n      0x00\n      dup1\n      sload\n        /* \"contracts/coffe.sol\":8701:8739  OwnershipTransferred(_owner, newOwner) */\n      mload(0x40)\n      sub(shl(0xa0, 0x01), 0x01)\n      dup1\n      dup6\n      and\n      swap4\n        /* \"contracts/coffe.sol\":8722:8728  _owner */\n      swap3\n      and\n      swap2\n        /* \"contracts/coffe.sol\":8701:8739  OwnershipTransferred(_owner, newOwner) */\n      0x8be0079c531659141344cd1fd0a4f28419497f9722a3daafe3b4186f6b6457e0\n      swap2\n      log3\n        /* \"contracts/coffe.sol\":8750:8756  _owner */\n      0x00\n        /* \"contracts/coffe.sol\":8750:8767  _owner = newOwner */\n      dup1\n      sload\n      not(sub(shl(0xa0, 0x01), 0x01))\n      and\n      sub(shl(0xa0, 0x01), 0x01)\n      swap3\n      swap1\n      swap3\n      and\n      swap2\n      swap1\n      swap2\n      or\n      swap1\n      sstore\n        /* \"contracts/coffe.sol\":8494:8775  function transferOwnership(address newOwner) public virtual onlyOwner {... */\n      jump\t// out\n        /* \"#utility.yul\":222:508   */\n    tag_14:\n        /* \"#utility.yul\":281:287   */\n      0x00\n        /* \"#utility.yul\":334:336   */\n      0x20\n        /* \"#utility.yul\":322:331   */\n      dup3\n        /* \"#utility.yul\":313:320   */\n      dup5\n        /* \"#utility.yul\":309:332   */\n      sub\n        /* \"#utility.yul\":305:337   */\n      slt\n        /* \"#utility.yul\":302:354   */\n      iszero\n      tag_36\n      jumpi\n        /* \"#utility.yul\":350:351   */\n      0x00\n        /* \"#utility.yul\":347:348   */\n      dup1\n        /* \"#utility.yul\":340:352   */\n      revert\n        /* \"#utility.yul\":302:354   */\n    tag_36:\n        /* \"#utility.yul\":376:399   */\n      dup2\n      calldataload\n      sub(shl(0xa0, 0x01), 0x01)\n        /* \"#utility.yul\":428:459   */\n      dup2\n      and\n        /* \"#utility.yul\":418:460   */\n      dup2\n      eq\n        /* \"#utility.yul\":408:478   */\n      tag_37\n      jumpi\n        /* \"#utility.yul\":474:475   */\n      0x00\n        /* \"#utility.yul\":471:472   */\n      dup1\n        /* \"#utility.yul\":464:476   */\n      revert\n        /* \"#utility.yul\":408:478   */\n    tag_37:\n        /* \"#utility.yul\":497:502   */\n      swap4\n        /* \"#utility.yul\":222:508   */\n      swap3\n      pop\n      pop\n      pop\n      jump\t// out\n\n    auxdata: 0xa2646970667358221220b85768fa7fd3bccc474e6e63b7120a29342a1926c27815f212e624142e4a9a8364736f6c634300080a0033\n}\n",
				"bytecode": {
					"linkReferences": {},
					"object": "608060405234801561001057600080fd5b50600080546001600160a01b031916339081178255604051909182917f8be0079c531659141344cd1fd0a4f28419497f9722a3daafe3b4186f6b6457e0908290a3506102ab806100616000396000f3fe608060405234801561001057600080fd5b50600436106100415760003560e01c8063715018a6146100465780638da5cb5b14610050578063f2fde38b1461006f575b600080fd5b61004e610082565b005b600054604080516001600160a01b039092168252519081900360200190f35b61004e61007d366004610245565b61012b565b6000546001600160a01b031633146100e15760405162461bcd60e51b815260206004820181905260248201527f4f776e61626c653a2063616c6c6572206973206e6f7420746865206f776e657260448201526064015b60405180910390fd5b600080546040516001600160a01b03909116907f8be0079c531659141344cd1fd0a4f28419497f9722a3daafe3b4186f6b6457e0908390a3600080546001600160a01b0319169055565b6000546001600160a01b031633146101855760405162461bcd60e51b815260206004820181905260248201527f4f776e61626c653a2063616c6c6572206973206e6f7420746865206f776e657260448201526064016100d8565b6001600160a01b0381166101ea5760405162461bcd60e51b815260206004820152602660248201527f4f776e61626c653a206e6577206f776e657220697320746865207a65726f206160448201526564647265737360d01b60648201526084016100d8565b600080546040516001600160a01b03808516939216917f8be0079c531659141344cd1fd0a4f28419497f9722a3daafe3b4186f6b6457e091a3600080546001600160a01b0319166001600160a01b0392909216919091179055565b60006020828403121561025757600080fd5b81356001600160a01b038116811461026e57600080fd5b939250505056fea2646970667358221220b85768fa7fd3bccc474e6e63b7120a29342a1926c27815f212e624142e4a9a8364736f6c634300080a0033",
					"opcodes": "PUSH1 0x80 PUSH1 0x40 MSTORE CALLVALUE DUP1 ISZERO PUSH2 0x10 JUMPI PUSH1 0x0 DUP1 REVERT JUMPDEST POP PUSH1 0x0 DUP1 SLOAD PUSH1 0x1 PUSH1 0x1 PUSH1 0xA0 SHL SUB NOT AND CALLER SWAP1 DUP2 OR DUP3 SSTORE PUSH1 0x40 MLOAD SWAP1 SWAP2 DUP3 SWAP2 PUSH32 0x8BE0079C531659141344CD1FD0A4F28419497F9722A3DAAFE3B4186F6B6457E0 SWAP1 DUP3 SWAP1 LOG3 POP PUSH2 0x2AB DUP1 PUSH2 0x61 PUSH1 0x0 CODECOPY PUSH1 0x0 RETURN INVALID PUSH1 0x80 PUSH1 0x40 MSTORE CALLVALUE DUP1 ISZERO PUSH2 0x10 JUMPI PUSH1 0x0 DUP1 REVERT JUMPDEST POP PUSH1 0x4 CALLDATASIZE LT PUSH2 0x41 JUMPI PUSH1 0x0 CALLDATALOAD PUSH1 0xE0 SHR DUP1 PUSH4 0x715018A6 EQ PUSH2 0x46 JUMPI DUP1 PUSH4 0x8DA5CB5B EQ PUSH2 0x50 JUMPI DUP1 PUSH4 0xF2FDE38B EQ PUSH2 0x6F JUMPI JUMPDEST PUSH1 0x0 DUP1 REVERT JUMPDEST PUSH2 0x4E PUSH2 0x82 JUMP JUMPDEST STOP JUMPDEST PUSH1 0x0 SLOAD PUSH1 0x40 DUP1 MLOAD PUSH1 0x1 PUSH1 0x1 PUSH1 0xA0 SHL SUB SWAP1 SWAP3 AND DUP3 MSTORE MLOAD SWAP1 DUP2 SWAP1 SUB PUSH1 0x20 ADD SWAP1 RETURN JUMPDEST PUSH2 0x4E PUSH2 0x7D CALLDATASIZE PUSH1 0x4 PUSH2 0x245 JUMP JUMPDEST PUSH2 0x12B JUMP JUMPDEST PUSH1 0x0 SLOAD PUSH1 0x1 PUSH1 0x1 PUSH1 0xA0 SHL SUB AND CALLER EQ PUSH2 0xE1 JUMPI PUSH1 0x40 MLOAD PUSH3 0x461BCD PUSH1 0xE5 SHL DUP2 MSTORE PUSH1 0x20 PUSH1 0x4 DUP3 ADD DUP2 SWAP1 MSTORE PUSH1 0x24 DUP3 ADD MSTORE PUSH32 0x4F776E61626C653A2063616C6C6572206973206E6F7420746865206F776E6572 PUSH1 0x44 DUP3 ADD MSTORE PUSH1 0x64 ADD JUMPDEST PUSH1 0x40 MLOAD DUP1 SWAP2 SUB SWAP1 REVERT JUMPDEST PUSH1 0x0 DUP1 SLOAD PUSH1 0x40 MLOAD PUSH1 0x1 PUSH1 0x1 PUSH1 0xA0 SHL SUB SWAP1 SWAP2 AND SWAP1 PUSH32 0x8BE0079C531659141344CD1FD0A4F28419497F9722A3DAAFE3B4186F6B6457E0 SWAP1 DUP4 SWAP1 LOG3 PUSH1 0x0 DUP1 SLOAD PUSH1 0x1 PUSH1 0x1 PUSH1 0xA0 SHL SUB NOT AND SWAP1 SSTORE JUMP JUMPDEST PUSH1 0x0 SLOAD PUSH1 0x1 PUSH1 0x1 PUSH1 0xA0 SHL SUB AND CALLER EQ PUSH2 0x185 JUMPI PUSH1 0x40 MLOAD PUSH3 0x461BCD PUSH1 0xE5 SHL DUP2 MSTORE PUSH1 0x20 PUSH1 0x4 DUP3 ADD DUP2 SWAP1 MSTORE PUSH1 0x24 DUP3 ADD MSTORE PUSH32 0x4F776E61626C653A2063616C6C6572206973206E6F7420746865206F776E6572 PUSH1 0x44 DUP3 ADD MSTORE PUSH1 0x64 ADD PUSH2 0xD8 JUMP JUMPDEST PUSH1 0x1 PUSH1 0x1 PUSH1 0xA0 SHL SUB DUP2 AND PUSH2 0x1EA JUMPI PUSH1 0x40 MLOAD PUSH3 0x461BCD PUSH1 0xE5 SHL DUP2 MSTORE PUSH1 0x20 PUSH1 0x4 DUP3 ADD MSTORE PUSH1 0x26 PUSH1 0x24 DUP3 ADD MSTORE PUSH32 0x4F776E61626C653A206E6577206F776E657220697320746865207A65726F2061 PUSH1 0x44 DUP3 ADD MSTORE PUSH6 0x646472657373 PUSH1 0xD0 SHL PUSH1 0x64 DUP3 ADD MSTORE PUSH1 0x84 ADD PUSH2 0xD8 JUMP JUMPDEST PUSH1 0x0 DUP1 SLOAD PUSH1 0x40 MLOAD PUSH1 0x1 PUSH1 0x1 PUSH1 0xA0 SHL SUB DUP1 DUP6 AND SWAP4 SWAP3 AND SWAP2 PUSH32 0x8BE0079C531659141344CD1FD0A4F28419497F9722A3DAAFE3B4186F6B6457E0 SWAP2 LOG3 PUSH1 0x0 DUP1 SLOAD PUSH1 0x1 PUSH1 0x1 PUSH1 0xA0 SHL SUB NOT AND PUSH1 0x1 PUSH1 0x1 PUSH1 0xA0 SHL SUB SWAP3 SWAP1 SWAP3 AND SWAP2 SWAP1 SWAP2 OR SWAP1 SSTORE JUMP JUMPDEST PUSH1 0x0 PUSH1 0x20 DUP3 DUP5 SUB SLT ISZERO PUSH2 0x257 JUMPI PUSH1 0x0 DUP1 REVERT JUMPDEST DUP2 CALLDATALOAD PUSH1 0x1 PUSH1 0x1 PUSH1 0xA0 SHL SUB DUP2 AND DUP2 EQ PUSH2 0x26E JUMPI PUSH1 0x0 DUP1 REVERT JUMPDEST SWAP4 SWAP3 POP POP POP JUMP INVALID LOG2 PUSH5 0x6970667358 0x22 SLT KECCAK256 0xB8 JUMPI PUSH9 0xFA7FD3BCCC474E6E63 0xB7 SLT EXP 0x29 CALLVALUE 0x2A NOT 0x26 0xC2 PUSH25 0x15F212E624142E4A9A8364736F6C634300080A003300000000 "
				},
				"gasEstimates": {
					"creation": {
						"codeDepositCost": "136600",
						"executionCost": "25956",
						"totalCost": "162556"
					},
					"external": {
						"owner()": "2292",
						"renounceOwnership()": "30143",
						"transferOwnership(address)": "30387"
					}
				},
				"methodIdentifiers": {
					"owner()": "8da5cb5b",
					"renounceOwnership()": "715018a6",
					"transferOwnership(address)": "f2fde38b"
				}
			},
			"storageLayout": {
				"storage": [
					{
						"astId": 476,
						"contract": "contracts/coffe.sol:Ownable",
						"label": "_owner",
						"offset": 0,
						"slot": "0",
						"type": "t_address"
					},
					{
						"astId": 478,
						"contract": "contracts/coffe.sol:Ownable",
						"label": "_previousOwner",
						"offset": 0,
						"slot": "1",
						"type": "t_address"
					}
				],
				"types": {
					"t_address": {
						"encoding": "inplace",
						"label": "address",
						"numberOfBytes": "20"
					}
				}
			},
			"userdoc": {
				"kind": "user",
				"methods": {},
				"version": 1
			}
		}
	}
}