{
	"data": {
		"bytecode": {
			"linkReferences": {},
			"object": "60c0604052662386f26fc10000600b8190556200001f90600019620004bd565b6200002d90600019620004e0565b600c908155600e80546001600160a01b03191673c97137bdc16bb7a7548710ee0256410251cb4956179055604080518082019091528181526b436f6666652043727970746f60a01b60209091019081526200008c91600f919062000417565b50604080518082019091526004808252634346454560e01b6020909201918252620000ba9160109162000417565b506011805460ff19166008179055681b1ae4d6e2ef500000601555686c6b935b8bbd400000601655348015620000ef57600080fd5b50600080546001600160a01b031916339081178255604051909182917f8be0079c531659141344cd1fd0a4f28419497f9722a3daafe3b4186f6b6457e0908290a350600c5433600090815260026020908152604091829020929092556012805463ffffffff1990811662020002179091556013805490911662050005179055805163c45a015560e01b8152905173d99d1c33f9fc3444f8101754abc46c52416550d192839263c45a015592600480830193928290030181865afa158015620001bb573d6000803e3d6000fd5b505050506040513d601f19601f82011682018060405250810190620001e1919062000506565b6001600160a01b031663c9c6539630836001600160a01b031663ad5c46486040518163ffffffff1660e01b8152600401602060405180830381865afa1580156200022f573d6000803e3d6000fd5b505050506040513d601f19601f8201168201806040525081019062000255919062000506565b6040516001600160e01b031960e085901b1681526001600160a01b039283166004820152911660248201526044016020604051808303816000875af1158015620002a3573d6000803e3d6000fd5b505050506040513d601f19601f82011682018060405250810190620002c9919062000506565b6001600160a01b0390811660a0528116608052600160056000620002f56000546001600160a01b031690565b6001600160a01b03908116825260208083019390935260409182016000908120805495151560ff1996871617905530815260058452828120805486166001908117909155600e805484168352848320805488168317905554909216815260099384905291822080549094168117909355620003786000546001600160a01b031690565b6001600160a01b0316815260208082019290925260409081016000908120805494151560ff199586161790553081526009909252902080549091166001179055620003c03390565b6001600160a01b031660006001600160a01b03167fddf252ad1be2c89b69c2b068fc378daa952ba7f163c4a11628f55a4df523b3ef600b546040516200040891815260200190565b60405180910390a35062000575565b828054620004259062000538565b90600052602060002090601f01602090048101928262000449576000855562000494565b82601f106200046457805160ff191683800117855562000494565b8280016001018555821562000494579182015b828111156200049457825182559160200191906001019062000477565b50620004a2929150620004a6565b5090565b5b80821115620004a25760008155600101620004a7565b600082620004db57634e487b7160e01b600052601260045260246000fd5b500690565b6000828210156200050157634e487b7160e01b600052601160045260246000fd5b500390565b6000602082840312156200051957600080fd5b81516001600160a01b03811681146200053157600080fd5b9392505050565b600181811c908216806200054d57607f821691505b602082108114156200056f57634e487b7160e01b600052602260045260246000fd5b50919050565b60805160a051612668620005b0600039600081816103db0152818161182001528181611b030152611b6e015260006102af01526126686000f3fe608060405234801561001057600080fd5b506004361061023d5760003560e01c80635342acb41161013b578063a457c2d7116100b8578063d543dbeb1161007c578063d543dbeb14610546578063d94160e014610559578063dd62ed3e14610585578063ea2f0b37146105be578063f2fde38b146105d157600080fd5b8063a457c2d7146104e7578063a9059cbb146104fa578063af2ce6141461050d578063b030b34a14610520578063ba1c42461461053357600080fd5b80638da5cb5b116100ff5780638da5cb5b1461049f5780638f9a55c0146104b057806391d919a9146104b957806395d89b41146104cc5780639e281a98146104d457600080fd5b80635342acb41461042357806370a082311461044f578063715018a6146104625780637d1db4a51461046a57806388f820201461047357600080fd5b80632d838119116101c95780634549b0391161018d5780634549b039146103ab57806347062402146103be57806349bd5a5e146103d65780634eeb94ce146103fd57806352390c021461041057600080fd5b80632d8381191461034a578063313ce5671461035d5780633685d419146103725780633950935114610385578063437823ec1461039857600080fd5b80631694505e116102105780631694505e146102aa57806318160ddd146102e95780631d7ef879146102f157806323b872dd146103045780632b14ca561461031757600080fd5b806306fdde0314610242578063095ea7b3146102605780630bd3a7f91461028357806313114a9d14610298575b600080fd5b61024a6105e4565b604051610257919061230f565b60405180910390f35b61027361026e36600461237c565b610676565b6040519015158152602001610257565b6102966102913660046123a8565b61068d565b005b600d545b604051908152602001610257565b6102d17f000000000000000000000000000000000000000000000000000000000000000081565b6040516001600160a01b039091168152602001610257565b600b5461029c565b6102966102ff3660046123a8565b6106e4565b6102736103123660046123c5565b610855565b60135461032f9061ffff808216916201000090041682565b6040805161ffff938416815292909116602083015201610257565b61029c610358366004612406565b6108be565b60115460405160ff9091168152602001610257565b6102966103803660046123a8565b610942565b61027361039336600461237c565b610af9565b6102966103a63660046123a8565b610b2f565b61029c6103b936600461242d565b610b7d565b60125461032f9061ffff808216916201000090041682565b6102d17f000000000000000000000000000000000000000000000000000000000000000081565b600e546102d1906001600160a01b031681565b61029661041e3660046123a8565b610c18565b6102736104313660046123a8565b6001600160a01b031660009081526005602052604090205460ff1690565b61029c61045d3660046123a8565b610d6b565b610296610dca565b61029c60155481565b6102736104813660046123a8565b6001600160a01b031660009081526006602052604090205460ff1690565b6000546001600160a01b03166102d1565b61029c60165481565b6102966104c73660046123a8565b610e3e565b61024a610e89565b6102966104e236600461237c565b610e98565b6102736104f536600461237c565b610f3b565b61027361050836600461237c565b610f8a565b61029661051b366004612406565b610f97565b61029661052e3660046123a8565b61103a565b6102966105413660046123a8565b6111be565b610296610554366004612406565b61120a565b6102736105673660046123a8565b6001600160a01b031660009081526009602052604090205460ff1690565b61029c61059336600461245d565b6001600160a01b03918216600090815260046020908152604080832093909416825291909152205490565b6102966105cc3660046123a8565b6112a7565b6102966105df3660046123a8565b6112f2565b6060600f80546105f39061248b565b80601f016020809104026020016040519081016040528092919081815260200182805461061f9061248b565b801561066c5780601f106106415761010080835404028352916020019161066c565b820191906000526020600020905b81548152906001019060200180831161064f57829003601f168201915b5050505050905090565b60006106833384846113dc565b5060015b92915050565b6000546001600160a01b031633146106c05760405162461bcd60e51b81526004016106b7906124c6565b60405180910390fd5b6001600160a01b03166000908152600960205260409020805460ff19166001179055565b6000546001600160a01b0316331461070e5760405162461bcd60e51b81526004016106b7906124c6565b73d99d1c33f9fc3444f8101754abc46c52416550d16001600160a01b03821614156107865760405162461bcd60e51b815260206004820152602260248201527f57652063616e6e6f7420626c61636b6c69737420556e695377617020726f757460448201526132b960f11b60648201526084016106b7565b6001600160a01b03811660009081526008602052604090205460ff16156107ef5760405162461bcd60e51b815260206004820152601e60248201527f4163636f756e7420697320616c726561647920626c61636b6c6973746564000060448201526064016106b7565b6001600160a01b03166000818152600860205260408120805460ff19166001908117909155600a805491820181559091527fc65a7bb8d6351c1cf70c95a316cc6a92839c986682d98bc35f958f4883f9d2a80180546001600160a01b0319169091179055565b6000610862848484611500565b6108b484336108af856040518060600160405280602881526020016125e6602891396001600160a01b038a16600090815260046020908152604080832033845290915290205491906118d2565b6113dc565b5060019392505050565b6000600c548211156109255760405162461bcd60e51b815260206004820152602a60248201527f416d6f756e74206d757374206265206c657373207468616e20746f74616c207260448201526965666c656374696f6e7360b01b60648201526084016106b7565b600061092f61190c565b905061093b838261192f565b9392505050565b6000546001600160a01b0316331461096c5760405162461bcd60e51b81526004016106b7906124c6565b6001600160a01b03811660009081526006602052604090205460ff166109d45760405162461bcd60e51b815260206004820152601760248201527f4163636f756e74206973206e6f74206578636c7564656400000000000000000060448201526064016106b7565b60005b600754811015610af557816001600160a01b0316600782815481106109fe576109fe6124fb565b6000918252602090912001546001600160a01b03161415610ae35760078054610a2990600190612527565b81548110610a3957610a396124fb565b600091825260209091200154600780546001600160a01b039092169183908110610a6557610a656124fb565b600091825260208083209190910180546001600160a01b0319166001600160a01b039485161790559184168152600382526040808220829055600690925220805460ff191690556007805480610abd57610abd61253e565b600082815260209020810160001990810180546001600160a01b03191690550190555050565b80610aed81612554565b9150506109d7565b5050565b3360008181526004602090815260408083206001600160a01b038716845290915281205490916106839185906108af9086611971565b6000546001600160a01b03163314610b595760405162461bcd60e51b81526004016106b7906124c6565b6001600160a01b03166000908152600560205260409020805460ff19166001179055565b6000600b54831115610bd15760405162461bcd60e51b815260206004820152601f60248201527f416d6f756e74206d757374206265206c657373207468616e20737570706c790060448201526064016106b7565b600080610bdd856119d0565b9250925050600080610bf8878585610bf361190c565b611a14565b509150915085610c0d57509250610687915050565b935061068792505050565b6000546001600160a01b03163314610c425760405162461bcd60e51b81526004016106b7906124c6565b6001600160a01b03811660009081526006602052604090205460ff1615610cab5760405162461bcd60e51b815260206004820152601b60248201527f4163636f756e7420697320616c7265616479206578636c75646564000000000060448201526064016106b7565b6001600160a01b03811660009081526002602052604090205415610d05576001600160a01b038116600090815260026020526040902054610ceb906108be565b6001600160a01b0382166000908152600360205260409020555b6001600160a01b03166000818152600660205260408120805460ff191660019081179091556007805491820181559091527fa66cc928b5edb82af9bd49922954155ab7b0942694bea4ce44661d9a8736c6880180546001600160a01b0319169091179055565b6001600160a01b03811660009081526006602052604081205460ff1615610da857506001600160a01b031660009081526003602052604090205490565b6001600160a01b038216600090815260026020526040902054610687906108be565b6000546001600160a01b03163314610df45760405162461bcd60e51b81526004016106b7906124c6565b600080546040516001600160a01b03909116907f8be0079c531659141344cd1fd0a4f28419497f9722a3daafe3b4186f6b6457e0908390a3600080546001600160a01b0319169055565b6000546001600160a01b03163314610e685760405162461bcd60e51b81526004016106b7906124c6565b6001600160a01b03166000908152600960205260409020805460ff19169055565b6060601080546105f39061248b565b6000546001600160a01b03163314610ec25760405162461bcd60e51b81526004016106b7906124c6565b60405163a9059cbb60e01b81523360048201526024810182905282906001600160a01b0382169063a9059cbb906044016020604051808303816000875af1158015610f11573d6000803e3d6000fd5b505050506040513d601f19601f82011682018060405250810190610f35919061256f565b50505050565b600061068333846108af8560405180606001604052806025815260200161260e602591393360009081526004602090815260408083206001600160a01b038d16845290915290205491906118d2565b6000610683338484611500565b6000546001600160a01b03163314610fc15760405162461bcd60e51b81526004016106b7906124c6565b6103e88111156110135760405162461bcd60e51b815260206004820152601d60248201527f6d617857616c6c657453697a652065786365656473206469766964657200000060448201526064016106b7565b6110346103e861102e83600b54611a6a90919063ffffffff16565b9061192f565b60165550565b6000546001600160a01b031633146110645760405162461bcd60e51b81526004016106b7906124c6565b6001600160a01b03811660009081526008602052604090205460ff166110cc5760405162461bcd60e51b815260206004820152601a60248201527f4163636f756e74206973206e6f7420626c61636b6c697374656400000000000060448201526064016106b7565b60005b600a54811015610af557816001600160a01b0316600a82815481106110f6576110f66124fb565b6000918252602090912001546001600160a01b031614156111ac57600a805461112190600190612527565b81548110611131576111316124fb565b600091825260209091200154600a80546001600160a01b03909216918390811061115d5761115d6124fb565b600091825260208083209190910180546001600160a01b0319166001600160a01b039485161790559184168152600890915260409020805460ff19169055600a805480610abd57610abd61253e565b806111b681612554565b9150506110cf565b6000546001600160a01b031633146111e85760405162461bcd60e51b81526004016106b7906124c6565b600e80546001600160a01b0319166001600160a01b0392909216919091179055565b6000546001600160a01b031633146112345760405162461bcd60e51b81526004016106b7906124c6565b6103e88111156112865760405162461bcd60e51b815260206004820152601c60248201527f6d6178547850657263656e74206578636565647320646976696465720000000060448201526064016106b7565b6112a16103e861102e83600b54611a6a90919063ffffffff16565b60155550565b6000546001600160a01b031633146112d15760405162461bcd60e51b81526004016106b7906124c6565b6001600160a01b03166000908152600560205260409020805460ff19169055565b6000546001600160a01b0316331461131c5760405162461bcd60e51b81526004016106b7906124c6565b6001600160a01b0381166113815760405162461bcd60e51b815260206004820152602660248201527f4f776e61626c653a206e6577206f776e657220697320746865207a65726f206160448201526564647265737360d01b60648201526084016106b7565b600080546040516001600160a01b03808516939216917f8be0079c531659141344cd1fd0a4f28419497f9722a3daafe3b4186f6b6457e091a3600080546001600160a01b0319166001600160a01b0392909216919091179055565b6001600160a01b03831661143e5760405162461bcd60e51b8152602060048201526024808201527f45524332303a20617070726f76652066726f6d20746865207a65726f206164646044820152637265737360e01b60648201526084016106b7565b6001600160a01b03821661149f5760405162461bcd60e51b815260206004820152602260248201527f45524332303a20617070726f766520746f20746865207a65726f206164647265604482015261737360f01b60648201526084016106b7565b6001600160a01b0383811660008181526004602090815260408083209487168084529482529182902085905590518481527f8c5be1e5ebec7d5bd14f71427d1e84f3dd0314c0f7b2291e5b200ac8c7c3b925910160405180910390a3505050565b6001600160a01b0383166115645760405162461bcd60e51b815260206004820152602560248201527f45524332303a207472616e736665722066726f6d20746865207a65726f206164604482015264647265737360d81b60648201526084016106b7565b6001600160a01b0382166115c65760405162461bcd60e51b815260206004820152602360248201527f45524332303a207472616e7366657220746f20746865207a65726f206164647260448201526265737360e81b60648201526084016106b7565b600081116116285760405162461bcd60e51b815260206004820152602960248201527f5472616e7366657220616d6f756e74206d7573742062652067726561746572206044820152687468616e207a65726f60b81b60648201526084016106b7565b6001600160a01b03831660009081526008602052604090205460ff16156116875760405162461bcd60e51b8152602060048201526013602482015272165bdd48185c9948189b1858dadb1a5cdd1959606a1b60448201526064016106b7565b3360009081526008602052604090205460ff16156116d55760405162461bcd60e51b815260206004820152600b60248201526a189b1858dadb1a5cdd195960aa1b60448201526064016106b7565b3260009081526008602052604090205460ff16156117235760405162461bcd60e51b815260206004820152600b60248201526a189b1858dadb1a5cdd195960aa1b60448201526064016106b7565b6001600160a01b03831660009081526005602052604090205460019060ff168061176557506001600160a01b03831660009081526005602052604090205460ff165b1561176e575060005b80156118c6576001600160a01b03841660009081526009602052604090205460ff161580156117b657506001600160a01b03831660009081526009602052604090205460ff16155b156118c65760155482111561181e5760405162461bcd60e51b815260206004820152602860248201527f5472616e7366657220616d6f756e74206578636565647320746865206d6178546044820152673c20b6b7bab73a1760c11b60648201526084016106b7565b7f00000000000000000000000000000000000000000000000000000000000000006001600160a01b0316836001600160a01b0316146118c65760165461186384610d6b565b61186d908461258c565b11156118c65760405162461bcd60e51b815260206004820152602260248201527f526563697069656e742065786365656473206d61782077616c6c65742073697a604482015261329760f11b60648201526084016106b7565b610f3584848484611ae9565b600081848411156118f65760405162461bcd60e51b81526004016106b7919061230f565b5060006119038486612527565b95945050505050565b6000806000611919611d3d565b9092509050611928828261192f565b9250505090565b600061093b83836040518060400160405280601a81526020017f536166654d6174683a206469766973696f6e206279207a65726f000000000000815250611ebf565b60008061197e838561258c565b90508381101561093b5760405162461bcd60e51b815260206004820152601b60248201527f536166654d6174683a206164646974696f6e206f766572666c6f77000000000060448201526064016106b7565b6000806000806119df85611eed565b905060006119ec86611f09565b905060006119fa8784611f2b565b9050611a068183611f2b565b979296509094509092505050565b6000808080611a238886611a6a565b90506000611a318887611a6a565b90506000611a3f8888611a6a565b90506000611a5782611a518686611f2b565b90611f2b565b939b939a50919850919650505050505050565b600082611a7957506000610687565b6000611a8583856125a4565b905082611a9285836125c3565b1461093b5760405162461bcd60e51b815260206004820152602160248201527f536166654d6174683a206d756c7469706c69636174696f6e206f766572666c6f6044820152607760f81b60648201526084016106b7565b8015611bd757611b016014805463ffffffff19169055565b7f00000000000000000000000000000000000000000000000000000000000000006001600160a01b0316846001600160a01b03161415611b6c57611b6c601254601480546201000080840461ffff90811690910263ffffffff19909216931692909217919091179055565b7f00000000000000000000000000000000000000000000000000000000000000006001600160a01b0316836001600160a01b03161415611bd757611bd7601354601480546201000080840461ffff90811690910263ffffffff19909216931692909217919091179055565b6001600160a01b03841660009081526006602052604090205460ff168015611c1857506001600160a01b03831660009081526006602052604090205460ff16155b15611c2d57611c28848484611f6d565b611d2b565b6001600160a01b03841660009081526006602052604090205460ff16158015611c6e57506001600160a01b03831660009081526006602052604090205460ff165b15611c7e57611c288484846120a1565b6001600160a01b03841660009081526006602052604090205460ff16158015611cc057506001600160a01b03831660009081526006602052604090205460ff16155b15611cd057611c28848484612158565b6001600160a01b03841660009081526006602052604090205460ff168015611d1057506001600160a01b03831660009081526006602052604090205460ff165b15611d2057611c288484846121aa565b611d2b848484612158565b610f356014805463ffffffff19169055565b600c54600b546000918291825b600754811015611e8f57826002600060078481548110611d6c57611d6c6124fb565b60009182526020808320909101546001600160a01b031683528201929092526040019020541180611dd75750816003600060078481548110611db057611db06124fb565b60009182526020808320909101546001600160a01b03168352820192909252604001902054115b15611ded57600c54600b54945094505050509091565b611e336002600060078481548110611e0757611e076124fb565b60009182526020808320909101546001600160a01b031683528201929092526040019020548490611f2b565b9250611e7b6003600060078481548110611e4f57611e4f6124fb565b60009182526020808320909101546001600160a01b031683528201929092526040019020548390611f2b565b915080611e8781612554565b915050611d4a565b50600b54600c54611e9f9161192f565b821015611eb657600c54600b549350935050509091565b90939092509050565b60008183611ee05760405162461bcd60e51b81526004016106b7919061230f565b50600061190384866125c3565b6014546000906106879060649061102e90859061ffff16611a6a565b6014546000906106879060649061102e90859062010000900461ffff16611a6a565b600061093b83836040518060400160405280601e81526020017f536166654d6174683a207375627472616374696f6e206f766572666c6f7700008152506118d2565b6000806000611f7b846119d0565b9250925092506000806000611f94878686610bf361190c565b6001600160a01b038c166000908152600360205260409020549295509093509150611fbf9088611f2b565b6001600160a01b038a16600090815260036020908152604080832093909355600290522054611fee9084611f2b565b6001600160a01b03808b1660009081526002602052604080822093909355908a168152205461201d9083611971565b6001600160a01b03891660009081526002602052604090205561203f8461222b565b61204981866122eb565b876001600160a01b0316896001600160a01b03167fddf252ad1be2c89b69c2b068fc378daa952ba7f163c4a11628f55a4df523b3ef8860405161208e91815260200190565b60405180910390a3505050505050505050565b60008060006120af846119d0565b92509250925060008060006120c8878686610bf361190c565b6001600160a01b038c1660009081526002602052604090205492955090935091506120f39084611f2b565b6001600160a01b03808b16600090815260026020908152604080832094909455918b168152600390915220546121299087611971565b6001600160a01b03891660009081526003602090815260408083209390935560029052205461201d9083611971565b6000806000612166846119d0565b925092509250600080600061217f878686610bf361190c565b6001600160a01b038c166000908152600260205260409020549295509093509150611fee9084611f2b565b60008060006121b8846119d0565b92509250925060008060006121d1878686610bf361190c565b6001600160a01b038c1660009081526003602052604090205492955090935091506121fc9088611f2b565b6001600160a01b038a166000908152600360209081526040808320939093556002905220546120f39084611f2b565b600061223561190c565b905060006122438383611a6a565b600e546001600160a01b031660009081526002602052604090205490915061226b9082611971565b600e80546001600160a01b03908116600090815260026020908152604080832095909555925490911681526006909152205460ff16156122e657600e546001600160a01b03166000908152600360205260409020546122ca9084611971565b600e546001600160a01b03166000908152600360205260409020555b505050565b600c546122f89083611f2b565b600c55600d546123089082611971565b600d555050565b600060208083528351808285015260005b8181101561233c57858101830151858201604001528201612320565b8181111561234e576000604083870101525b50601f01601f1916929092016040019392505050565b6001600160a01b038116811461237957600080fd5b50565b6000806040838503121561238f57600080fd5b823561239a81612364565b946020939093013593505050565b6000602082840312156123ba57600080fd5b813561093b81612364565b6000806000606084860312156123da57600080fd5b83356123e581612364565b925060208401356123f581612364565b929592945050506040919091013590565b60006020828403121561241857600080fd5b5035919050565b801515811461237957600080fd5b6000806040838503121561244057600080fd5b8235915060208301356124528161241f565b809150509250929050565b6000806040838503121561247057600080fd5b823561247b81612364565b9150602083013561245281612364565b600181811c9082168061249f57607f821691505b602082108114156124c057634e487b7160e01b600052602260045260246000fd5b50919050565b6020808252818101527f4f776e61626c653a2063616c6c6572206973206e6f7420746865206f776e6572604082015260600190565b634e487b7160e01b600052603260045260246000fd5b634e487b7160e01b600052601160045260246000fd5b60008282101561253957612539612511565b500390565b634e487b7160e01b600052603160045260246000fd5b600060001982141561256857612568612511565b5060010190565b60006020828403121561258157600080fd5b815161093b8161241f565b6000821982111561259f5761259f612511565b500190565b60008160001904831182151516156125be576125be612511565b500290565b6000826125e057634e487b7160e01b600052601260045260246000fd5b50049056fe45524332303a207472616e7366657220616d6f756e74206578636565647320616c6c6f77616e636545524332303a2064656372656173656420616c6c6f77616e63652062656c6f77207a65726fa26469706673582212207016eeff90730f75e585454a20032d6aa45c24b7dfbf3a9513d3aecdb2d6274864736f6c634300080a0033",
			"opcodes": "PUSH1 0xC0 PUSH1 0x40 MSTORE PUSH7 0x2386F26FC10000 PUSH1 0xB DUP2 SWAP1 SSTORE PUSH3 0x1F SWAP1 PUSH1 0x0 NOT PUSH3 0x4BD JUMP JUMPDEST PUSH3 0x2D SWAP1 PUSH1 0x0 NOT PUSH3 0x4E0 JUMP JUMPDEST PUSH1 0xC SWAP1 DUP2 SSTORE PUSH1 0xE DUP1 SLOAD PUSH1 0x1 PUSH1 0x1 PUSH1 0xA0 SHL SUB NOT AND PUSH20 0xC97137BDC16BB7A7548710EE0256410251CB4956 OR SWAP1 SSTORE PUSH1 0x40 DUP1 MLOAD DUP1 DUP3 ADD SWAP1 SWAP2 MSTORE DUP2 DUP2 MSTORE PUSH12 0x436F6666652043727970746F PUSH1 0xA0 SHL PUSH1 0x20 SWAP1 SWAP2 ADD SWAP1 DUP2 MSTORE PUSH3 0x8C SWAP2 PUSH1 0xF SWAP2 SWAP1 PUSH3 0x417 JUMP JUMPDEST POP PUSH1 0x40 DUP1 MLOAD DUP1 DUP3 ADD SWAP1 SWAP2 MSTORE PUSH1 0x4 DUP1 DUP3 MSTORE PUSH4 0x43464545 PUSH1 0xE0 SHL PUSH1 0x20 SWAP1 SWAP3 ADD SWAP2 DUP3 MSTORE PUSH3 0xBA SWAP2 PUSH1 0x10 SWAP2 PUSH3 0x417 JUMP JUMPDEST POP PUSH1 0x11 DUP1 SLOAD PUSH1 0xFF NOT AND PUSH1 0x8 OR SWAP1 SSTORE PUSH9 0x1B1AE4D6E2EF500000 PUSH1 0x15 SSTORE PUSH9 0x6C6B935B8BBD400000 PUSH1 0x16 SSTORE CALLVALUE DUP1 ISZERO PUSH3 0xEF JUMPI PUSH1 0x0 DUP1 REVERT JUMPDEST POP PUSH1 0x0 DUP1 SLOAD PUSH1 0x1 PUSH1 0x1 PUSH1 0xA0 SHL SUB NOT AND CALLER SWAP1 DUP2 OR DUP3 SSTORE PUSH1 0x40 MLOAD SWAP1 SWAP2 DUP3 SWAP2 PUSH32 0x8BE0079C531659141344CD1FD0A4F28419497F9722A3DAAFE3B4186F6B6457E0 SWAP1 DUP3 SWAP1 LOG3 POP PUSH1 0xC SLOAD CALLER PUSH1 0x0 SWAP1 DUP2 MSTORE PUSH1 0x2 PUSH1 0x20 SWAP1 DUP2 MSTORE PUSH1 0x40 SWAP2 DUP3 SWAP1 KECCAK256 SWAP3 SWAP1 SWAP3 SSTORE PUSH1 0x12 DUP1 SLOAD PUSH4 0xFFFFFFFF NOT SWAP1 DUP2 AND PUSH3 0x20002 OR SWAP1 SWAP2 SSTORE PUSH1 0x13 DUP1 SLOAD SWAP1 SWAP2 AND PUSH3 0x50005 OR SWAP1 SSTORE DUP1 MLOAD PUSH4 0xC45A0155 PUSH1 0xE0 SHL DUP2 MSTORE SWAP1 MLOAD PUSH20 0xD99D1C33F9FC3444F8101754ABC46C52416550D1 SWAP3 DUP4 SWAP3 PUSH4 0xC45A0155 SWAP3 PUSH1 0x4 DUP1 DUP4 ADD SWAP4 SWAP3 DUP3 SWAP1 SUB ADD DUP2 DUP7 GAS STATICCALL ISZERO DUP1 ISZERO PUSH3 0x1BB JUMPI RETURNDATASIZE PUSH1 0x0 DUP1 RETURNDATACOPY RETURNDATASIZE PUSH1 0x0 REVERT JUMPDEST POP POP POP POP PUSH1 0x40 MLOAD RETURNDATASIZE PUSH1 0x1F NOT PUSH1 0x1F DUP3 ADD AND DUP3 ADD DUP1 PUSH1 0x40 MSTORE POP DUP2 ADD SWAP1 PUSH3 0x1E1 SWAP2 SWAP1 PUSH3 0x506 JUMP JUMPDEST PUSH1 0x1 PUSH1 0x1 PUSH1 0xA0 SHL SUB AND PUSH4 0xC9C65396 ADDRESS DUP4 PUSH1 0x1 PUSH1 0x1 PUSH1 0xA0 SHL SUB AND PUSH4 0xAD5C4648 PUSH1 0x40 MLOAD DUP2 PUSH4 0xFFFFFFFF AND PUSH1 0xE0 SHL DUP2 MSTORE PUSH1 0x4 ADD PUSH1 0x20 PUSH1 0x40 MLOAD DUP1 DUP4 SUB DUP2 DUP7 GAS STATICCALL ISZERO DUP1 ISZERO PUSH3 0x22F JUMPI RETURNDATASIZE PUSH1 0x0 DUP1 RETURNDATACOPY RETURNDATASIZE PUSH1 0x0 REVERT JUMPDEST POP POP POP POP PUSH1 0x40 MLOAD RETURNDATASIZE PUSH1 0x1F NOT PUSH1 0x1F DUP3 ADD AND DUP3 ADD DUP1 PUSH1 0x40 MSTORE POP DUP2 ADD SWAP1 PUSH3 0x255 SWAP2 SWAP1 PUSH3 0x506 JUMP JUMPDEST PUSH1 0x40 MLOAD PUSH1 0x1 PUSH1 0x1 PUSH1 0xE0 SHL SUB NOT PUSH1 0xE0 DUP6 SWAP1 SHL AND DUP2 MSTORE PUSH1 0x1 PUSH1 0x1 PUSH1 0xA0 SHL SUB SWAP3 DUP4 AND PUSH1 0x4 DUP3 ADD MSTORE SWAP2 AND PUSH1 0x24 DUP3 ADD MSTORE PUSH1 0x44 ADD PUSH1 0x20 PUSH1 0x40 MLOAD DUP1 DUP4 SUB DUP2 PUSH1 0x0 DUP8 GAS CALL ISZERO DUP1 ISZERO PUSH3 0x2A3 JUMPI RETURNDATASIZE PUSH1 0x0 DUP1 RETURNDATACOPY RETURNDATASIZE PUSH1 0x0 REVERT JUMPDEST POP POP POP POP PUSH1 0x40 MLOAD RETURNDATASIZE PUSH1 0x1F NOT PUSH1 0x1F DUP3 ADD AND DUP3 ADD DUP1 PUSH1 0x40 MSTORE POP DUP2 ADD SWAP1 PUSH3 0x2C9 SWAP2 SWAP1 PUSH3 0x506 JUMP JUMPDEST PUSH1 0x1 PUSH1 0x1 PUSH1 0xA0 SHL SUB SWAP1 DUP2 AND PUSH1 0xA0 MSTORE DUP2 AND PUSH1 0x80 MSTORE PUSH1 0x1 PUSH1 0x5 PUSH1 0x0 PUSH3 0x2F5 PUSH1 0x0 SLOAD PUSH1 0x1 PUSH1 0x1 PUSH1 0xA0 SHL SUB AND SWAP1 JUMP JUMPDEST PUSH1 0x1 PUSH1 0x1 PUSH1 0xA0 SHL SUB SWAP1 DUP2 AND DUP3 MSTORE PUSH1 0x20 DUP1 DUP4 ADD SWAP4 SWAP1 SWAP4 MSTORE PUSH1 0x40 SWAP2 DUP3 ADD PUSH1 0x0 SWAP1 DUP2 KECCAK256 DUP1 SLOAD SWAP6 ISZERO ISZERO PUSH1 0xFF NOT SWAP7 DUP8 AND OR SWAP1 SSTORE ADDRESS DUP2 MSTORE PUSH1 0x5 DUP5 MSTORE DUP3 DUP2 KECCAK256 DUP1 SLOAD DUP7 AND PUSH1 0x1 SWAP1 DUP2 OR SWAP1 SWAP2 SSTORE PUSH1 0xE DUP1 SLOAD DUP5 AND DUP4 MSTORE DUP5 DUP4 KECCAK256 DUP1 SLOAD DUP9 AND DUP4 OR SWAP1 SSTORE SLOAD SWAP1 SWAP3 AND DUP2 MSTORE PUSH1 0x9 SWAP4 DUP5 SWAP1 MSTORE SWAP2 DUP3 KECCAK256 DUP1 SLOAD SWAP1 SWAP5 AND DUP2 OR SWAP1 SWAP4 SSTORE PUSH3 0x378 PUSH1 0x0 SLOAD PUSH1 0x1 PUSH1 0x1 PUSH1 0xA0 SHL SUB AND SWAP1 JUMP JUMPDEST PUSH1 0x1 PUSH1 0x1 PUSH1 0xA0 SHL SUB AND DUP2 MSTORE PUSH1 0x20 DUP1 DUP3 ADD SWAP3 SWAP1 SWAP3 MSTORE PUSH1 0x40 SWAP1 DUP2 ADD PUSH1 0x0 SWAP1 DUP2 KECCAK256 DUP1 SLOAD SWAP5 ISZERO ISZERO PUSH1 0xFF NOT SWAP6 DUP7 AND OR SWAP1 SSTORE ADDRESS DUP2 MSTORE PUSH1 0x9 SWAP1 SWAP3 MSTORE SWAP1 KECCAK256 DUP1 SLOAD SWAP1 SWAP2 AND PUSH1 0x1 OR SWAP1 SSTORE PUSH3 0x3C0 CALLER SWAP1 JUMP JUMPDEST PUSH1 0x1 PUSH1 0x1 PUSH1 0xA0 SHL SUB AND PUSH1 0x0 PUSH1 0x1 PUSH1 0x1 PUSH1 0xA0 SHL SUB AND PUSH32 0xDDF252AD1BE2C89B69C2B068FC378DAA952BA7F163C4A11628F55A4DF523B3EF PUSH1 0xB SLOAD PUSH1 0x40 MLOAD PUSH3 0x408 SWAP2 DUP2 MSTORE PUSH1 0x20 ADD SWAP1 JUMP JUMPDEST PUSH1 0x40 MLOAD DUP1 SWAP2 SUB SWAP1 LOG3 POP PUSH3 0x575 JUMP JUMPDEST DUP3 DUP1 SLOAD PUSH3 0x425 SWAP1 PUSH3 0x538 JUMP JUMPDEST SWAP1 PUSH1 0x0 MSTORE PUSH1 0x20 PUSH1 0x0 KECCAK256 SWAP1 PUSH1 0x1F ADD PUSH1 0x20 SWAP1 DIV DUP2 ADD SWAP3 DUP3 PUSH3 0x449 JUMPI PUSH1 0x0 DUP6 SSTORE PUSH3 0x494 JUMP JUMPDEST DUP3 PUSH1 0x1F LT PUSH3 0x464 JUMPI DUP1 MLOAD PUSH1 0xFF NOT AND DUP4 DUP1 ADD OR DUP6 SSTORE PUSH3 0x494 JUMP JUMPDEST DUP3 DUP1 ADD PUSH1 0x1 ADD DUP6 SSTORE DUP3 ISZERO PUSH3 0x494 JUMPI SWAP2 DUP3 ADD JUMPDEST DUP3 DUP2 GT ISZERO PUSH3 0x494 JUMPI DUP3 MLOAD DUP3 SSTORE SWAP2 PUSH1 0x20 ADD SWAP2 SWAP1 PUSH1 0x1 ADD SWAP1 PUSH3 0x477 JUMP JUMPDEST POP PUSH3 0x4A2 SWAP3 SWAP2 POP PUSH3 0x4A6 JUMP JUMPDEST POP SWAP1 JUMP JUMPDEST JUMPDEST DUP1 DUP3 GT ISZERO PUSH3 0x4A2 JUMPI PUSH1 0x0 DUP2 SSTORE PUSH1 0x1 ADD PUSH3 0x4A7 JUMP JUMPDEST PUSH1 0x0 DUP3 PUSH3 0x4DB JUMPI PUSH4 0x4E487B71 PUSH1 0xE0 SHL PUSH1 0x0 MSTORE PUSH1 0x12 PUSH1 0x4 MSTORE PUSH1 0x24 PUSH1 0x0 REVERT JUMPDEST POP MOD SWAP1 JUMP JUMPDEST PUSH1 0x0 DUP3 DUP3 LT ISZERO PUSH3 0x501 JUMPI PUSH4 0x4E487B71 PUSH1 0xE0 SHL PUSH1 0x0 MSTORE PUSH1 0x11 PUSH1 0x4 MSTORE PUSH1 0x24 PUSH1 0x0 REVERT JUMPDEST POP SUB SWAP1 JUMP JUMPDEST PUSH1 0x0 PUSH1 0x20 DUP3 DUP5 SUB SLT ISZERO PUSH3 0x519 JUMPI PUSH1 0x0 DUP1 REVERT JUMPDEST DUP2 MLOAD PUSH1 0x1 PUSH1 0x1 PUSH1 0xA0 SHL SUB DUP2 AND DUP2 EQ PUSH3 0x531 JUMPI PUSH1 0x0 DUP1 REVERT JUMPDEST SWAP4 SWAP3 POP POP POP JUMP JUMPDEST PUSH1 0x1 DUP2 DUP2 SHR SWAP1 DUP3 AND DUP1 PUSH3 0x54D JUMPI PUSH1 0x7F DUP3 AND SWAP2 POP JUMPDEST PUSH1 0x20 DUP3 LT DUP2 EQ ISZERO PUSH3 0x56F JUMPI PUSH4 0x4E487B71 PUSH1 0xE0 SHL PUSH1 0x0 MSTORE PUSH1 0x22 PUSH1 0x4 MSTORE PUSH1 0x24 PUSH1 0x0 REVERT JUMPDEST POP SWAP2 SWAP1 POP JUMP JUMPDEST PUSH1 0x80 MLOAD PUSH1 0xA0 MLOAD PUSH2 0x2668 PUSH3 0x5B0 PUSH1 0x0 CODECOPY PUSH1 0x0 DUP2 DUP2 PUSH2 0x3DB ADD MSTORE DUP2 DUP2 PUSH2 0x1820 ADD MSTORE DUP2 DUP2 PUSH2 0x1B03 ADD MSTORE PUSH2 0x1B6E ADD MSTORE PUSH1 0x0 PUSH2 0x2AF ADD MSTORE PUSH2 0x2668 PUSH1 0x0 RETURN INVALID PUSH1 0x80 PUSH1 0x40 MSTORE CALLVALUE DUP1 ISZERO PUSH2 0x10 JUMPI PUSH1 0x0 DUP1 REVERT JUMPDEST POP PUSH1 0x4 CALLDATASIZE LT PUSH2 0x23D JUMPI PUSH1 0x0 CALLDATALOAD PUSH1 0xE0 SHR DUP1 PUSH4 0x5342ACB4 GT PUSH2 0x13B JUMPI DUP1 PUSH4 0xA457C2D7 GT PUSH2 0xB8 JUMPI DUP1 PUSH4 0xD543DBEB GT PUSH2 0x7C JUMPI DUP1 PUSH4 0xD543DBEB EQ PUSH2 0x546 JUMPI DUP1 PUSH4 0xD94160E0 EQ PUSH2 0x559 JUMPI DUP1 PUSH4 0xDD62ED3E EQ PUSH2 0x585 JUMPI DUP1 PUSH4 0xEA2F0B37 EQ PUSH2 0x5BE JUMPI DUP1 PUSH4 0xF2FDE38B EQ PUSH2 0x5D1 JUMPI PUSH1 0x0 DUP1 REVERT JUMPDEST DUP1 PUSH4 0xA457C2D7 EQ PUSH2 0x4E7 JUMPI DUP1 PUSH4 0xA9059CBB EQ PUSH2 0x4FA JUMPI DUP1 PUSH4 0xAF2CE614 EQ PUSH2 0x50D JUMPI DUP1 PUSH4 0xB030B34A EQ PUSH2 0x520 JUMPI DUP1 PUSH4 0xBA1C4246 EQ PUSH2 0x533 JUMPI PUSH1 0x0 DUP1 REVERT JUMPDEST DUP1 PUSH4 0x8DA5CB5B GT PUSH2 0xFF JUMPI DUP1 PUSH4 0x8DA5CB5B EQ PUSH2 0x49F JUMPI DUP1 PUSH4 0x8F9A55C0 EQ PUSH2 0x4B0 JUMPI DUP1 PUSH4 0x91D919A9 EQ PUSH2 0x4B9 JUMPI DUP1 PUSH4 0x95D89B41 EQ PUSH2 0x4CC JUMPI DUP1 PUSH4 0x9E281A98 EQ PUSH2 0x4D4 JUMPI PUSH1 0x0 DUP1 REVERT JUMPDEST DUP1 PUSH4 0x5342ACB4 EQ PUSH2 0x423 JUMPI DUP1 PUSH4 0x70A08231 EQ PUSH2 0x44F JUMPI DUP1 PUSH4 0x715018A6 EQ PUSH2 0x462 JUMPI DUP1 PUSH4 0x7D1DB4A5 EQ PUSH2 0x46A JUMPI DUP1 PUSH4 0x88F82020 EQ PUSH2 0x473 JUMPI PUSH1 0x0 DUP1 REVERT JUMPDEST DUP1 PUSH4 0x2D838119 GT PUSH2 0x1C9 JUMPI DUP1 PUSH4 0x4549B039 GT PUSH2 0x18D JUMPI DUP1 PUSH4 0x4549B039 EQ PUSH2 0x3AB JUMPI DUP1 PUSH4 0x47062402 EQ PUSH2 0x3BE JUMPI DUP1 PUSH4 0x49BD5A5E EQ PUSH2 0x3D6 JUMPI DUP1 PUSH4 0x4EEB94CE EQ PUSH2 0x3FD JUMPI DUP1 PUSH4 0x52390C02 EQ PUSH2 0x410 JUMPI PUSH1 0x0 DUP1 REVERT JUMPDEST DUP1 PUSH4 0x2D838119 EQ PUSH2 0x34A JUMPI DUP1 PUSH4 0x313CE567 EQ PUSH2 0x35D JUMPI DUP1 PUSH4 0x3685D419 EQ PUSH2 0x372 JUMPI DUP1 PUSH4 0x39509351 EQ PUSH2 0x385 JUMPI DUP1 PUSH4 0x437823EC EQ PUSH2 0x398 JUMPI PUSH1 0x0 DUP1 REVERT JUMPDEST DUP1 PUSH4 0x1694505E GT PUSH2 0x210 JUMPI DUP1 PUSH4 0x1694505E EQ PUSH2 0x2AA JUMPI DUP1 PUSH4 0x18160DDD EQ PUSH2 0x2E9 JUMPI DUP1 PUSH4 0x1D7EF879 EQ PUSH2 0x2F1 JUMPI DUP1 PUSH4 0x23B872DD EQ PUSH2 0x304 JUMPI DUP1 PUSH4 0x2B14CA56 EQ PUSH2 0x317 JUMPI PUSH1 0x0 DUP1 REVERT JUMPDEST DUP1 PUSH4 0x6FDDE03 EQ PUSH2 0x242 JUMPI DUP1 PUSH4 0x95EA7B3 EQ PUSH2 0x260 JUMPI DUP1 PUSH4 0xBD3A7F9 EQ PUSH2 0x283 JUMPI DUP1 PUSH4 0x13114A9D EQ PUSH2 0x298 JUMPI JUMPDEST PUSH1 0x0 DUP1 REVERT JUMPDEST PUSH2 0x24A PUSH2 0x5E4 JUMP JUMPDEST PUSH1 0x40 MLOAD PUSH2 0x257 SWAP2 SWAP1 PUSH2 0x230F JUMP JUMPDEST PUSH1 0x40 MLOAD DUP1 SWAP2 SUB SWAP1 RETURN JUMPDEST PUSH2 0x273 PUSH2 0x26E CALLDATASIZE PUSH1 0x4 PUSH2 0x237C JUMP JUMPDEST PUSH2 0x676 JUMP JUMPDEST PUSH1 0x40 MLOAD SWAP1 ISZERO ISZERO DUP2 MSTORE PUSH1 0x20 ADD PUSH2 0x257 JUMP JUMPDEST PUSH2 0x296 PUSH2 0x291 CALLDATASIZE PUSH1 0x4 PUSH2 0x23A8 JUMP JUMPDEST PUSH2 0x68D JUMP JUMPDEST STOP JUMPDEST PUSH1 0xD SLOAD JUMPDEST PUSH1 0x40 MLOAD SWAP1 DUP2 MSTORE PUSH1 0x20 ADD PUSH2 0x257 JUMP JUMPDEST PUSH2 0x2D1 PUSH32 0x0 DUP2 JUMP JUMPDEST PUSH1 0x40 MLOAD PUSH1 0x1 PUSH1 0x1 PUSH1 0xA0 SHL SUB SWAP1 SWAP2 AND DUP2 MSTORE PUSH1 0x20 ADD PUSH2 0x257 JUMP JUMPDEST PUSH1 0xB SLOAD PUSH2 0x29C JUMP JUMPDEST PUSH2 0x296 PUSH2 0x2FF CALLDATASIZE PUSH1 0x4 PUSH2 0x23A8 JUMP JUMPDEST PUSH2 0x6E4 JUMP JUMPDEST PUSH2 0x273 PUSH2 0x312 CALLDATASIZE PUSH1 0x4 PUSH2 0x23C5 JUMP JUMPDEST PUSH2 0x855 JUMP JUMPDEST PUSH1 0x13 SLOAD PUSH2 0x32F SWAP1 PUSH2 0xFFFF DUP1 DUP3 AND SWAP2 PUSH3 0x10000 SWAP1 DIV AND DUP3 JUMP JUMPDEST PUSH1 0x40 DUP1 MLOAD PUSH2 0xFFFF SWAP4 DUP5 AND DUP2 MSTORE SWAP3 SWAP1 SWAP2 AND PUSH1 0x20 DUP4 ADD MSTORE ADD PUSH2 0x257 JUMP JUMPDEST PUSH2 0x29C PUSH2 0x358 CALLDATASIZE PUSH1 0x4 PUSH2 0x2406 JUMP JUMPDEST PUSH2 0x8BE JUMP JUMPDEST PUSH1 0x11 SLOAD PUSH1 0x40 MLOAD PUSH1 0xFF SWAP1 SWAP2 AND DUP2 MSTORE PUSH1 0x20 ADD PUSH2 0x257 JUMP JUMPDEST PUSH2 0x296 PUSH2 0x380 CALLDATASIZE PUSH1 0x4 PUSH2 0x23A8 JUMP JUMPDEST PUSH2 0x942 JUMP JUMPDEST PUSH2 0x273 PUSH2 0x393 CALLDATASIZE PUSH1 0x4 PUSH2 0x237C JUMP JUMPDEST PUSH2 0xAF9 JUMP JUMPDEST PUSH2 0x296 PUSH2 0x3A6 CALLDATASIZE PUSH1 0x4 PUSH2 0x23A8 JUMP JUMPDEST PUSH2 0xB2F JUMP JUMPDEST PUSH2 0x29C PUSH2 0x3B9 CALLDATASIZE PUSH1 0x4 PUSH2 0x242D JUMP JUMPDEST PUSH2 0xB7D JUMP JUMPDEST PUSH1 0x12 SLOAD PUSH2 0x32F SWAP1 PUSH2 0xFFFF DUP1 DUP3 AND SWAP2 PUSH3 0x10000 SWAP1 DIV AND DUP3 JUMP JUMPDEST PUSH2 0x2D1 PUSH32 0x0 DUP2 JUMP JUMPDEST PUSH1 0xE SLOAD PUSH2 0x2D1 SWAP1 PUSH1 0x1 PUSH1 0x1 PUSH1 0xA0 SHL SUB AND DUP2 JUMP JUMPDEST PUSH2 0x296 PUSH2 0x41E CALLDATASIZE PUSH1 0x4 PUSH2 0x23A8 JUMP JUMPDEST PUSH2 0xC18 JUMP JUMPDEST PUSH2 0x273 PUSH2 0x431 CALLDATASIZE PUSH1 0x4 PUSH2 0x23A8 JUMP JUMPDEST PUSH1 0x1 PUSH1 0x1 PUSH1 0xA0 SHL SUB AND PUSH1 0x0 SWAP1 DUP2 MSTORE PUSH1 0x5 PUSH1 0x20 MSTORE PUSH1 0x40 SWAP1 KECCAK256 SLOAD PUSH1 0xFF AND SWAP1 JUMP JUMPDEST PUSH2 0x29C PUSH2 0x45D CALLDATASIZE PUSH1 0x4 PUSH2 0x23A8 JUMP JUMPDEST PUSH2 0xD6B JUMP JUMPDEST PUSH2 0x296 PUSH2 0xDCA JUMP JUMPDEST PUSH2 0x29C PUSH1 0x15 SLOAD DUP2 JUMP JUMPDEST PUSH2 0x273 PUSH2 0x481 CALLDATASIZE PUSH1 0x4 PUSH2 0x23A8 JUMP JUMPDEST PUSH1 0x1 PUSH1 0x1 PUSH1 0xA0 SHL SUB AND PUSH1 0x0 SWAP1 DUP2 MSTORE PUSH1 0x6 PUSH1 0x20 MSTORE PUSH1 0x40 SWAP1 KECCAK256 SLOAD PUSH1 0xFF AND SWAP1 JUMP JUMPDEST PUSH1 0x0 SLOAD PUSH1 0x1 PUSH1 0x1 PUSH1 0xA0 SHL SUB AND PUSH2 0x2D1 JUMP JUMPDEST PUSH2 0x29C PUSH1 0x16 SLOAD DUP2 JUMP JUMPDEST PUSH2 0x296 PUSH2 0x4C7 CALLDATASIZE PUSH1 0x4 PUSH2 0x23A8 JUMP JUMPDEST PUSH2 0xE3E JUMP JUMPDEST PUSH2 0x24A PUSH2 0xE89 JUMP JUMPDEST PUSH2 0x296 PUSH2 0x4E2 CALLDATASIZE PUSH1 0x4 PUSH2 0x237C JUMP JUMPDEST PUSH2 0xE98 JUMP JUMPDEST PUSH2 0x273 PUSH2 0x4F5 CALLDATASIZE PUSH1 0x4 PUSH2 0x237C JUMP JUMPDEST PUSH2 0xF3B JUMP JUMPDEST PUSH2 0x273 PUSH2 0x508 CALLDATASIZE PUSH1 0x4 PUSH2 0x237C JUMP JUMPDEST PUSH2 0xF8A JUMP JUMPDEST PUSH2 0x296 PUSH2 0x51B CALLDATASIZE PUSH1 0x4 PUSH2 0x2406 JUMP JUMPDEST PUSH2 0xF97 JUMP JUMPDEST PUSH2 0x296 PUSH2 0x52E CALLDATASIZE PUSH1 0x4 PUSH2 0x23A8 JUMP JUMPDEST PUSH2 0x103A JUMP JUMPDEST PUSH2 0x296 PUSH2 0x541 CALLDATASIZE PUSH1 0x4 PUSH2 0x23A8 JUMP JUMPDEST PUSH2 0x11BE JUMP JUMPDEST PUSH2 0x296 PUSH2 0x554 CALLDATASIZE PUSH1 0x4 PUSH2 0x2406 JUMP JUMPDEST PUSH2 0x120A JUMP JUMPDEST PUSH2 0x273 PUSH2 0x567 CALLDATASIZE PUSH1 0x4 PUSH2 0x23A8 JUMP JUMPDEST PUSH1 0x1 PUSH1 0x1 PUSH1 0xA0 SHL SUB AND PUSH1 0x0 SWAP1 DUP2 MSTORE PUSH1 0x9 PUSH1 0x20 MSTORE PUSH1 0x40 SWAP1 KECCAK256 SLOAD PUSH1 0xFF AND SWAP1 JUMP JUMPDEST PUSH2 0x29C PUSH2 0x593 CALLDATASIZE PUSH1 0x4 PUSH2 0x245D JUMP JUMPDEST PUSH1 0x1 PUSH1 0x1 PUSH1 0xA0 SHL SUB SWAP2 DUP3 AND PUSH1 0x0 SWAP1 DUP2 MSTORE PUSH1 0x4 PUSH1 0x20 SWAP1 DUP2 MSTORE PUSH1 0x40 DUP1 DUP4 KECCAK256 SWAP4 SWAP1 SWAP5 AND DUP3 MSTORE SWAP2 SWAP1 SWAP2 MSTORE KECCAK256 SLOAD SWAP1 JUMP JUMPDEST PUSH2 0x296 PUSH2 0x5CC CALLDATASIZE PUSH1 0x4 PUSH2 0x23A8 JUMP JUMPDEST PUSH2 0x12A7 JUMP JUMPDEST PUSH2 0x296 PUSH2 0x5DF CALLDATASIZE PUSH1 0x4 PUSH2 0x23A8 JUMP JUMPDEST PUSH2 0x12F2 JUMP JUMPDEST PUSH1 0x60 PUSH1 0xF DUP1 SLOAD PUSH2 0x5F3 SWAP1 PUSH2 0x248B JUMP JUMPDEST DUP1 PUSH1 0x1F ADD PUSH1 0x20 DUP1 SWAP2 DIV MUL PUSH1 0x20 ADD PUSH1 0x40 MLOAD SWAP1 DUP2 ADD PUSH1 0x40 MSTORE DUP1 SWAP3 SWAP2 SWAP1 DUP2 DUP2 MSTORE PUSH1 0x20 ADD DUP3 DUP1 SLOAD PUSH2 0x61F SWAP1 PUSH2 0x248B JUMP JUMPDEST DUP1 ISZERO PUSH2 0x66C JUMPI DUP1 PUSH1 0x1F LT PUSH2 0x641 JUMPI PUSH2 0x100 DUP1 DUP4 SLOAD DIV MUL DUP4 MSTORE SWAP2 PUSH1 0x20 ADD SWAP2 PUSH2 0x66C JUMP JUMPDEST DUP3 ADD SWAP2 SWAP1 PUSH1 0x0 MSTORE PUSH1 0x20 PUSH1 0x0 KECCAK256 SWAP1 JUMPDEST DUP2 SLOAD DUP2 MSTORE SWAP1 PUSH1 0x1 ADD SWAP1 PUSH1 0x20 ADD DUP1 DUP4 GT PUSH2 0x64F JUMPI DUP3 SWAP1 SUB PUSH1 0x1F AND DUP3 ADD SWAP2 JUMPDEST POP POP POP POP POP SWAP1 POP SWAP1 JUMP JUMPDEST PUSH1 0x0 PUSH2 0x683 CALLER DUP5 DUP5 PUSH2 0x13DC JUMP JUMPDEST POP PUSH1 0x1 JUMPDEST SWAP3 SWAP2 POP POP JUMP JUMPDEST PUSH1 0x0 SLOAD PUSH1 0x1 PUSH1 0x1 PUSH1 0xA0 SHL SUB AND CALLER EQ PUSH2 0x6C0 JUMPI PUSH1 0x40 MLOAD PUSH3 0x461BCD PUSH1 0xE5 SHL DUP2 MSTORE PUSH1 0x4 ADD PUSH2 0x6B7 SWAP1 PUSH2 0x24C6 JUMP JUMPDEST PUSH1 0x40 MLOAD DUP1 SWAP2 SUB SWAP1 REVERT JUMPDEST PUSH1 0x1 PUSH1 0x1 PUSH1 0xA0 SHL SUB AND PUSH1 0x0 SWAP1 DUP2 MSTORE PUSH1 0x9 PUSH1 0x20 MSTORE PUSH1 0x40 SWAP1 KECCAK256 DUP1 SLOAD PUSH1 0xFF NOT AND PUSH1 0x1 OR SWAP1 SSTORE JUMP JUMPDEST PUSH1 0x0 SLOAD PUSH1 0x1 PUSH1 0x1 PUSH1 0xA0 SHL SUB AND CALLER EQ PUSH2 0x70E JUMPI PUSH1 0x40 MLOAD PUSH3 0x461BCD PUSH1 0xE5 SHL DUP2 MSTORE PUSH1 0x4 ADD PUSH2 0x6B7 SWAP1 PUSH2 0x24C6 JUMP JUMPDEST PUSH20 0xD99D1C33F9FC3444F8101754ABC46C52416550D1 PUSH1 0x1 PUSH1 0x1 PUSH1 0xA0 SHL SUB DUP3 AND EQ ISZERO PUSH2 0x786 JUMPI PUSH1 0x40 MLOAD PUSH3 0x461BCD PUSH1 0xE5 SHL DUP2 MSTORE PUSH1 0x20 PUSH1 0x4 DUP3 ADD MSTORE PUSH1 0x22 PUSH1 0x24 DUP3 ADD MSTORE PUSH32 0x57652063616E6E6F7420626C61636B6C69737420556E695377617020726F7574 PUSH1 0x44 DUP3 ADD MSTORE PUSH2 0x32B9 PUSH1 0xF1 SHL PUSH1 0x64 DUP3 ADD MSTORE PUSH1 0x84 ADD PUSH2 0x6B7 JUMP JUMPDEST PUSH1 0x1 PUSH1 0x1 PUSH1 0xA0 SHL SUB DUP2 AND PUSH1 0x0 SWAP1 DUP2 MSTORE PUSH1 0x8 PUSH1 0x20 MSTORE PUSH1 0x40 SWAP1 KECCAK256 SLOAD PUSH1 0xFF AND ISZERO PUSH2 0x7EF JUMPI PUSH1 0x40 MLOAD PUSH3 0x461BCD PUSH1 0xE5 SHL DUP2 MSTORE PUSH1 0x20 PUSH1 0x4 DUP3 ADD MSTORE PUSH1 0x1E PUSH1 0x24 DUP3 ADD MSTORE PUSH32 0x4163636F756E7420697320616C726561647920626C61636B6C69737465640000 PUSH1 0x44 DUP3 ADD MSTORE PUSH1 0x64 ADD PUSH2 0x6B7 JUMP JUMPDEST PUSH1 0x1 PUSH1 0x1 PUSH1 0xA0 SHL SUB AND PUSH1 0x0 DUP2 DUP2 MSTORE PUSH1 0x8 PUSH1 0x20 MSTORE PUSH1 0x40 DUP2 KECCAK256 DUP1 SLOAD PUSH1 0xFF NOT AND PUSH1 0x1 SWAP1 DUP2 OR SWAP1 SWAP2 SSTORE PUSH1 0xA DUP1 SLOAD SWAP2 DUP3 ADD DUP2 SSTORE SWAP1 SWAP2 MSTORE PUSH32 0xC65A7BB8D6351C1CF70C95A316CC6A92839C986682D98BC35F958F4883F9D2A8 ADD DUP1 SLOAD PUSH1 0x1 PUSH1 0x1 PUSH1 0xA0 SHL SUB NOT AND SWAP1 SWAP2 OR SWAP1 SSTORE JUMP JUMPDEST PUSH1 0x0 PUSH2 0x862 DUP5 DUP5 DUP5 PUSH2 0x1500 JUMP JUMPDEST PUSH2 0x8B4 DUP5 CALLER PUSH2 0x8AF DUP6 PUSH1 0x40 MLOAD DUP1 PUSH1 0x60 ADD PUSH1 0x40 MSTORE DUP1 PUSH1 0x28 DUP2 MSTORE PUSH1 0x20 ADD PUSH2 0x25E6 PUSH1 0x28 SWAP2 CODECOPY PUSH1 0x1 PUSH1 0x1 PUSH1 0xA0 SHL SUB DUP11 AND PUSH1 0x0 SWAP1 DUP2 MSTORE PUSH1 0x4 PUSH1 0x20 SWAP1 DUP2 MSTORE PUSH1 0x40 DUP1 DUP4 KECCAK256 CALLER DUP5 MSTORE SWAP1 SWAP2 MSTORE SWAP1 KECCAK256 SLOAD SWAP2 SWAP1 PUSH2 0x18D2 JUMP JUMPDEST PUSH2 0x13DC JUMP JUMPDEST POP PUSH1 0x1 SWAP4 SWAP3 POP POP POP JUMP JUMPDEST PUSH1 0x0 PUSH1 0xC SLOAD DUP3 GT ISZERO PUSH2 0x925 JUMPI PUSH1 0x40 MLOAD PUSH3 0x461BCD PUSH1 0xE5 SHL DUP2 MSTORE PUSH1 0x20 PUSH1 0x4 DUP3 ADD MSTORE PUSH1 0x2A PUSH1 0x24 DUP3 ADD MSTORE PUSH32 0x416D6F756E74206D757374206265206C657373207468616E20746F74616C2072 PUSH1 0x44 DUP3 ADD MSTORE PUSH10 0x65666C656374696F6E73 PUSH1 0xB0 SHL PUSH1 0x64 DUP3 ADD MSTORE PUSH1 0x84 ADD PUSH2 0x6B7 JUMP JUMPDEST PUSH1 0x0 PUSH2 0x92F PUSH2 0x190C JUMP JUMPDEST SWAP1 POP PUSH2 0x93B DUP4 DUP3 PUSH2 0x192F JUMP JUMPDEST SWAP4 SWAP3 POP POP POP JUMP JUMPDEST PUSH1 0x0 SLOAD PUSH1 0x1 PUSH1 0x1 PUSH1 0xA0 SHL SUB AND CALLER EQ PUSH2 0x96C JUMPI PUSH1 0x40 MLOAD PUSH3 0x461BCD PUSH1 0xE5 SHL DUP2 MSTORE PUSH1 0x4 ADD PUSH2 0x6B7 SWAP1 PUSH2 0x24C6 JUMP JUMPDEST PUSH1 0x1 PUSH1 0x1 PUSH1 0xA0 SHL SUB DUP2 AND PUSH1 0x0 SWAP1 DUP2 MSTORE PUSH1 0x6 PUSH1 0x20 MSTORE PUSH1 0x40 SWAP1 KECCAK256 SLOAD PUSH1 0xFF AND PUSH2 0x9D4 JUMPI PUSH1 0x40 MLOAD PUSH3 0x461BCD PUSH1 0xE5 SHL DUP2 MSTORE PUSH1 0x20 PUSH1 0x4 DUP3 ADD MSTORE PUSH1 0x17 PUSH1 0x24 DUP3 ADD MSTORE PUSH32 0x4163636F756E74206973206E6F74206578636C75646564000000000000000000 PUSH1 0x44 DUP3 ADD MSTORE PUSH1 0x64 ADD PUSH2 0x6B7 JUMP JUMPDEST PUSH1 0x0 JUMPDEST PUSH1 0x7 SLOAD DUP2 LT ISZERO PUSH2 0xAF5 JUMPI DUP2 PUSH1 0x1 PUSH1 0x1 PUSH1 0xA0 SHL SUB AND PUSH1 0x7 DUP3 DUP2 SLOAD DUP2 LT PUSH2 0x9FE JUMPI PUSH2 0x9FE PUSH2 0x24FB JUMP JUMPDEST PUSH1 0x0 SWAP2 DUP3 MSTORE PUSH1 0x20 SWAP1 SWAP2 KECCAK256 ADD SLOAD PUSH1 0x1 PUSH1 0x1 PUSH1 0xA0 SHL SUB AND EQ ISZERO PUSH2 0xAE3 JUMPI PUSH1 0x7 DUP1 SLOAD PUSH2 0xA29 SWAP1 PUSH1 0x1 SWAP1 PUSH2 0x2527 JUMP JUMPDEST DUP2 SLOAD DUP2 LT PUSH2 0xA39 JUMPI PUSH2 0xA39 PUSH2 0x24FB JUMP JUMPDEST PUSH1 0x0 SWAP2 DUP3 MSTORE PUSH1 0x20 SWAP1 SWAP2 KECCAK256 ADD SLOAD PUSH1 0x7 DUP1 SLOAD PUSH1 0x1 PUSH1 0x1 PUSH1 0xA0 SHL SUB SWAP1 SWAP3 AND SWAP2 DUP4 SWAP1 DUP2 LT PUSH2 0xA65 JUMPI PUSH2 0xA65 PUSH2 0x24FB JUMP JUMPDEST PUSH1 0x0 SWAP2 DUP3 MSTORE PUSH1 0x20 DUP1 DUP4 KECCAK256 SWAP2 SWAP1 SWAP2 ADD DUP1 SLOAD PUSH1 0x1 PUSH1 0x1 PUSH1 0xA0 SHL SUB NOT AND PUSH1 0x1 PUSH1 0x1 PUSH1 0xA0 SHL SUB SWAP5 DUP6 AND OR SWAP1 SSTORE SWAP2 DUP5 AND DUP2 MSTORE PUSH1 0x3 DUP3 MSTORE PUSH1 0x40 DUP1 DUP3 KECCAK256 DUP3 SWAP1 SSTORE PUSH1 0x6 SWAP1 SWAP3 MSTORE KECCAK256 DUP1 SLOAD PUSH1 0xFF NOT AND SWAP1 SSTORE PUSH1 0x7 DUP1 SLOAD DUP1 PUSH2 0xABD JUMPI PUSH2 0xABD PUSH2 0x253E JUMP JUMPDEST PUSH1 0x0 DUP3 DUP2 MSTORE PUSH1 0x20 SWAP1 KECCAK256 DUP2 ADD PUSH1 0x0 NOT SWAP1 DUP2 ADD DUP1 SLOAD PUSH1 0x1 PUSH1 0x1 PUSH1 0xA0 SHL SUB NOT AND SWAP1 SSTORE ADD SWAP1 SSTORE POP POP JUMP JUMPDEST DUP1 PUSH2 0xAED DUP2 PUSH2 0x2554 JUMP JUMPDEST SWAP2 POP POP PUSH2 0x9D7 JUMP JUMPDEST POP POP JUMP JUMPDEST CALLER PUSH1 0x0 DUP2 DUP2 MSTORE PUSH1 0x4 PUSH1 0x20 SWAP1 DUP2 MSTORE PUSH1 0x40 DUP1 DUP4 KECCAK256 PUSH1 0x1 PUSH1 0x1 PUSH1 0xA0 SHL SUB DUP8 AND DUP5 MSTORE SWAP1 SWAP2 MSTORE DUP2 KECCAK256 SLOAD SWAP1 SWAP2 PUSH2 0x683 SWAP2 DUP6 SWAP1 PUSH2 0x8AF SWAP1 DUP7 PUSH2 0x1971 JUMP JUMPDEST PUSH1 0x0 SLOAD PUSH1 0x1 PUSH1 0x1 PUSH1 0xA0 SHL SUB AND CALLER EQ PUSH2 0xB59 JUMPI PUSH1 0x40 MLOAD PUSH3 0x461BCD PUSH1 0xE5 SHL DUP2 MSTORE PUSH1 0x4 ADD PUSH2 0x6B7 SWAP1 PUSH2 0x24C6 JUMP JUMPDEST PUSH1 0x1 PUSH1 0x1 PUSH1 0xA0 SHL SUB AND PUSH1 0x0 SWAP1 DUP2 MSTORE PUSH1 0x5 PUSH1 0x20 MSTORE PUSH1 0x40 SWAP1 KECCAK256 DUP1 SLOAD PUSH1 0xFF NOT AND PUSH1 0x1 OR SWAP1 SSTORE JUMP JUMPDEST PUSH1 0x0 PUSH1 0xB SLOAD DUP4 GT ISZERO PUSH2 0xBD1 JUMPI PUSH1 0x40 MLOAD PUSH3 0x461BCD PUSH1 0xE5 SHL DUP2 MSTORE PUSH1 0x20 PUSH1 0x4 DUP3 ADD MSTORE PUSH1 0x1F PUSH1 0x24 DUP3 ADD MSTORE PUSH32 0x416D6F756E74206D757374206265206C657373207468616E20737570706C7900 PUSH1 0x44 DUP3 ADD MSTORE PUSH1 0x64 ADD PUSH2 0x6B7 JUMP JUMPDEST PUSH1 0x0 DUP1 PUSH2 0xBDD DUP6 PUSH2 0x19D0 JUMP JUMPDEST SWAP3 POP SWAP3 POP POP PUSH1 0x0 DUP1 PUSH2 0xBF8 DUP8 DUP6 DUP6 PUSH2 0xBF3 PUSH2 0x190C JUMP JUMPDEST PUSH2 0x1A14 JUMP JUMPDEST POP SWAP2 POP SWAP2 POP DUP6 PUSH2 0xC0D JUMPI POP SWAP3 POP PUSH2 0x687 SWAP2 POP POP JUMP JUMPDEST SWAP4 POP PUSH2 0x687 SWAP3 POP POP POP JUMP JUMPDEST PUSH1 0x0 SLOAD PUSH1 0x1 PUSH1 0x1 PUSH1 0xA0 SHL SUB AND CALLER EQ PUSH2 0xC42 JUMPI PUSH1 0x40 MLOAD PUSH3 0x461BCD PUSH1 0xE5 SHL DUP2 MSTORE PUSH1 0x4 ADD PUSH2 0x6B7 SWAP1 PUSH2 0x24C6 JUMP JUMPDEST PUSH1 0x1 PUSH1 0x1 PUSH1 0xA0 SHL SUB DUP2 AND PUSH1 0x0 SWAP1 DUP2 MSTORE PUSH1 0x6 PUSH1 0x20 MSTORE PUSH1 0x40 SWAP1 KECCAK256 SLOAD PUSH1 0xFF AND ISZERO PUSH2 0xCAB JUMPI PUSH1 0x40 MLOAD PUSH3 0x461BCD PUSH1 0xE5 SHL DUP2 MSTORE PUSH1 0x20 PUSH1 0x4 DUP3 ADD MSTORE PUSH1 0x1B PUSH1 0x24 DUP3 ADD MSTORE PUSH32 0x4163636F756E7420697320616C7265616479206578636C756465640000000000 PUSH1 0x44 DUP3 ADD MSTORE PUSH1 0x64 ADD PUSH2 0x6B7 JUMP JUMPDEST PUSH1 0x1 PUSH1 0x1 PUSH1 0xA0 SHL SUB DUP2 AND PUSH1 0x0 SWAP1 DUP2 MSTORE PUSH1 0x2 PUSH1 0x20 MSTORE PUSH1 0x40 SWAP1 KECCAK256 SLOAD ISZERO PUSH2 0xD05 JUMPI PUSH1 0x1 PUSH1 0x1 PUSH1 0xA0 SHL SUB DUP2 AND PUSH1 0x0 SWAP1 DUP2 MSTORE PUSH1 0x2 PUSH1 0x20 MSTORE PUSH1 0x40 SWAP1 KECCAK256 SLOAD PUSH2 0xCEB SWAP1 PUSH2 0x8BE JUMP JUMPDEST PUSH1 0x1 PUSH1 0x1 PUSH1 0xA0 SHL SUB DUP3 AND PUSH1 0x0 SWAP1 DUP2 MSTORE PUSH1 0x3 PUSH1 0x20 MSTORE PUSH1 0x40 SWAP1 KECCAK256 SSTORE JUMPDEST PUSH1 0x1 PUSH1 0x1 PUSH1 0xA0 SHL SUB AND PUSH1 0x0 DUP2 DUP2 MSTORE PUSH1 0x6 PUSH1 0x20 MSTORE PUSH1 0x40 DUP2 KECCAK256 DUP1 SLOAD PUSH1 0xFF NOT AND PUSH1 0x1 SWAP1 DUP2 OR SWAP1 SWAP2 SSTORE PUSH1 0x7 DUP1 SLOAD SWAP2 DUP3 ADD DUP2 SSTORE SWAP1 SWAP2 MSTORE PUSH32 0xA66CC928B5EDB82AF9BD49922954155AB7B0942694BEA4CE44661D9A8736C688 ADD DUP1 SLOAD PUSH1 0x1 PUSH1 0x1 PUSH1 0xA0 SHL SUB NOT AND SWAP1 SWAP2 OR SWAP1 SSTORE JUMP JUMPDEST PUSH1 0x1 PUSH1 0x1 PUSH1 0xA0 SHL SUB DUP2 AND PUSH1 0x0 SWAP1 DUP2 MSTORE PUSH1 0x6 PUSH1 0x20 MSTORE PUSH1 0x40 DUP2 KECCAK256 SLOAD PUSH1 0xFF AND ISZERO PUSH2 0xDA8 JUMPI POP PUSH1 0x1 PUSH1 0x1 PUSH1 0xA0 SHL SUB AND PUSH1 0x0 SWAP1 DUP2 MSTORE PUSH1 0x3 PUSH1 0x20 MSTORE PUSH1 0x40 SWAP1 KECCAK256 SLOAD SWAP1 JUMP JUMPDEST PUSH1 0x1 PUSH1 0x1 PUSH1 0xA0 SHL SUB DUP3 AND PUSH1 0x0 SWAP1 DUP2 MSTORE PUSH1 0x2 PUSH1 0x20 MSTORE PUSH1 0x40 SWAP1 KECCAK256 SLOAD PUSH2 0x687 SWAP1 PUSH2 0x8BE JUMP JUMPDEST PUSH1 0x0 SLOAD PUSH1 0x1 PUSH1 0x1 PUSH1 0xA0 SHL SUB AND CALLER EQ PUSH2 0xDF4 JUMPI PUSH1 0x40 MLOAD PUSH3 0x461BCD PUSH1 0xE5 SHL DUP2 MSTORE PUSH1 0x4 ADD PUSH2 0x6B7 SWAP1 PUSH2 0x24C6 JUMP JUMPDEST PUSH1 0x0 DUP1 SLOAD PUSH1 0x40 MLOAD PUSH1 0x1 PUSH1 0x1 PUSH1 0xA0 SHL SUB SWAP1 SWAP2 AND SWAP1 PUSH32 0x8BE0079C531659141344CD1FD0A4F28419497F9722A3DAAFE3B4186F6B6457E0 SWAP1 DUP4 SWAP1 LOG3 PUSH1 0x0 DUP1 SLOAD PUSH1 0x1 PUSH1 0x1 PUSH1 0xA0 SHL SUB NOT AND SWAP1 SSTORE JUMP JUMPDEST PUSH1 0x0 SLOAD PUSH1 0x1 PUSH1 0x1 PUSH1 0xA0 SHL SUB AND CALLER EQ PUSH2 0xE68 JUMPI PUSH1 0x40 MLOAD PUSH3 0x461BCD PUSH1 0xE5 SHL DUP2 MSTORE PUSH1 0x4 ADD PUSH2 0x6B7 SWAP1 PUSH2 0x24C6 JUMP JUMPDEST PUSH1 0x1 PUSH1 0x1 PUSH1 0xA0 SHL SUB AND PUSH1 0x0 SWAP1 DUP2 MSTORE PUSH1 0x9 PUSH1 0x20 MSTORE PUSH1 0x40 SWAP1 KECCAK256 DUP1 SLOAD PUSH1 0xFF NOT AND SWAP1 SSTORE JUMP JUMPDEST PUSH1 0x60 PUSH1 0x10 DUP1 SLOAD PUSH2 0x5F3 SWAP1 PUSH2 0x248B JUMP JUMPDEST PUSH1 0x0 SLOAD PUSH1 0x1 PUSH1 0x1 PUSH1 0xA0 SHL SUB AND CALLER EQ PUSH2 0xEC2 JUMPI PUSH1 0x40 MLOAD PUSH3 0x461BCD PUSH1 0xE5 SHL DUP2 MSTORE PUSH1 0x4 ADD PUSH2 0x6B7 SWAP1 PUSH2 0x24C6 JUMP JUMPDEST PUSH1 0x40 MLOAD PUSH4 0xA9059CBB PUSH1 0xE0 SHL DUP2 MSTORE CALLER PUSH1 0x4 DUP3 ADD MSTORE PUSH1 0x24 DUP2 ADD DUP3 SWAP1 MSTORE DUP3 SWAP1 PUSH1 0x1 PUSH1 0x1 PUSH1 0xA0 SHL SUB DUP3 AND SWAP1 PUSH4 0xA9059CBB SWAP1 PUSH1 0x44 ADD PUSH1 0x20 PUSH1 0x40 MLOAD DUP1 DUP4 SUB DUP2 PUSH1 0x0 DUP8 GAS CALL ISZERO DUP1 ISZERO PUSH2 0xF11 JUMPI RETURNDATASIZE PUSH1 0x0 DUP1 RETURNDATACOPY RETURNDATASIZE PUSH1 0x0 REVERT JUMPDEST POP POP POP POP PUSH1 0x40 MLOAD RETURNDATASIZE PUSH1 0x1F NOT PUSH1 0x1F DUP3 ADD AND DUP3 ADD DUP1 PUSH1 0x40 MSTORE POP DUP2 ADD SWAP1 PUSH2 0xF35 SWAP2 SWAP1 PUSH2 0x256F JUMP JUMPDEST POP POP POP POP JUMP JUMPDEST PUSH1 0x0 PUSH2 0x683 CALLER DUP5 PUSH2 0x8AF DUP6 PUSH1 0x40 MLOAD DUP1 PUSH1 0x60 ADD PUSH1 0x40 MSTORE DUP1 PUSH1 0x25 DUP2 MSTORE PUSH1 0x20 ADD PUSH2 0x260E PUSH1 0x25 SWAP2 CODECOPY CALLER PUSH1 0x0 SWAP1 DUP2 MSTORE PUSH1 0x4 PUSH1 0x20 SWAP1 DUP2 MSTORE PUSH1 0x40 DUP1 DUP4 KECCAK256 PUSH1 0x1 PUSH1 0x1 PUSH1 0xA0 SHL SUB DUP14 AND DUP5 MSTORE SWAP1 SWAP2 MSTORE SWAP1 KECCAK256 SLOAD SWAP2 SWAP1 PUSH2 0x18D2 JUMP JUMPDEST PUSH1 0x0 PUSH2 0x683 CALLER DUP5 DUP5 PUSH2 0x1500 JUMP JUMPDEST PUSH1 0x0 SLOAD PUSH1 0x1 PUSH1 0x1 PUSH1 0xA0 SHL SUB AND CALLER EQ PUSH2 0xFC1 JUMPI PUSH1 0x40 MLOAD PUSH3 0x461BCD PUSH1 0xE5 SHL DUP2 MSTORE PUSH1 0x4 ADD PUSH2 0x6B7 SWAP1 PUSH2 0x24C6 JUMP JUMPDEST PUSH2 0x3E8 DUP2 GT ISZERO PUSH2 0x1013 JUMPI PUSH1 0x40 MLOAD PUSH3 0x461BCD PUSH1 0xE5 SHL DUP2 MSTORE PUSH1 0x20 PUSH1 0x4 DUP3 ADD MSTORE PUSH1 0x1D PUSH1 0x24 DUP3 ADD MSTORE PUSH32 0x6D617857616C6C657453697A6520657863656564732064697669646572000000 PUSH1 0x44 DUP3 ADD MSTORE PUSH1 0x64 ADD PUSH2 0x6B7 JUMP JUMPDEST PUSH2 0x1034 PUSH2 0x3E8 PUSH2 0x102E DUP4 PUSH1 0xB SLOAD PUSH2 0x1A6A SWAP1 SWAP2 SWAP1 PUSH4 0xFFFFFFFF AND JUMP JUMPDEST SWAP1 PUSH2 0x192F JUMP JUMPDEST PUSH1 0x16 SSTORE POP JUMP JUMPDEST PUSH1 0x0 SLOAD PUSH1 0x1 PUSH1 0x1 PUSH1 0xA0 SHL SUB AND CALLER EQ PUSH2 0x1064 JUMPI PUSH1 0x40 MLOAD PUSH3 0x461BCD PUSH1 0xE5 SHL DUP2 MSTORE PUSH1 0x4 ADD PUSH2 0x6B7 SWAP1 PUSH2 0x24C6 JUMP JUMPDEST PUSH1 0x1 PUSH1 0x1 PUSH1 0xA0 SHL SUB DUP2 AND PUSH1 0x0 SWAP1 DUP2 MSTORE PUSH1 0x8 PUSH1 0x20 MSTORE PUSH1 0x40 SWAP1 KECCAK256 SLOAD PUSH1 0xFF AND PUSH2 0x10CC JUMPI PUSH1 0x40 MLOAD PUSH3 0x461BCD PUSH1 0xE5 SHL DUP2 MSTORE PUSH1 0x20 PUSH1 0x4 DUP3 ADD MSTORE PUSH1 0x1A PUSH1 0x24 DUP3 ADD MSTORE PUSH32 0x4163636F756E74206973206E6F7420626C61636B6C6973746564000000000000 PUSH1 0x44 DUP3 ADD MSTORE PUSH1 0x64 ADD PUSH2 0x6B7 JUMP JUMPDEST PUSH1 0x0 JUMPDEST PUSH1 0xA SLOAD DUP2 LT ISZERO PUSH2 0xAF5 JUMPI DUP2 PUSH1 0x1 PUSH1 0x1 PUSH1 0xA0 SHL SUB AND PUSH1 0xA DUP3 DUP2 SLOAD DUP2 LT PUSH2 0x10F6 JUMPI PUSH2 0x10F6 PUSH2 0x24FB JUMP JUMPDEST PUSH1 0x0 SWAP2 DUP3 MSTORE PUSH1 0x20 SWAP1 SWAP2 KECCAK256 ADD SLOAD PUSH1 0x1 PUSH1 0x1 PUSH1 0xA0 SHL SUB AND EQ ISZERO PUSH2 0x11AC JUMPI PUSH1 0xA DUP1 SLOAD PUSH2 0x1121 SWAP1 PUSH1 0x1 SWAP1 PUSH2 0x2527 JUMP JUMPDEST DUP2 SLOAD DUP2 LT PUSH2 0x1131 JUMPI PUSH2 0x1131 PUSH2 0x24FB JUMP JUMPDEST PUSH1 0x0 SWAP2 DUP3 MSTORE PUSH1 0x20 SWAP1 SWAP2 KECCAK256 ADD SLOAD PUSH1 0xA DUP1 SLOAD PUSH1 0x1 PUSH1 0x1 PUSH1 0xA0 SHL SUB SWAP1 SWAP3 AND SWAP2 DUP4 SWAP1 DUP2 LT PUSH2 0x115D JUMPI PUSH2 0x115D PUSH2 0x24FB JUMP JUMPDEST PUSH1 0x0 SWAP2 DUP3 MSTORE PUSH1 0x20 DUP1 DUP4 KECCAK256 SWAP2 SWAP1 SWAP2 ADD DUP1 SLOAD PUSH1 0x1 PUSH1 0x1 PUSH1 0xA0 SHL SUB NOT AND PUSH1 0x1 PUSH1 0x1 PUSH1 0xA0 SHL SUB SWAP5 DUP6 AND OR SWAP1 SSTORE SWAP2 DUP5 AND DUP2 MSTORE PUSH1 0x8 SWAP1 SWAP2 MSTORE PUSH1 0x40 SWAP1 KECCAK256 DUP1 SLOAD PUSH1 0xFF NOT AND SWAP1 SSTORE PUSH1 0xA DUP1 SLOAD DUP1 PUSH2 0xABD JUMPI PUSH2 0xABD PUSH2 0x253E JUMP JUMPDEST DUP1 PUSH2 0x11B6 DUP2 PUSH2 0x2554 JUMP JUMPDEST SWAP2 POP POP PUSH2 0x10CF JUMP JUMPDEST PUSH1 0x0 SLOAD PUSH1 0x1 PUSH1 0x1 PUSH1 0xA0 SHL SUB AND CALLER EQ PUSH2 0x11E8 JUMPI PUSH1 0x40 MLOAD PUSH3 0x461BCD PUSH1 0xE5 SHL DUP2 MSTORE PUSH1 0x4 ADD PUSH2 0x6B7 SWAP1 PUSH2 0x24C6 JUMP JUMPDEST PUSH1 0xE DUP1 SLOAD PUSH1 0x1 PUSH1 0x1 PUSH1 0xA0 SHL SUB NOT AND PUSH1 0x1 PUSH1 0x1 PUSH1 0xA0 SHL SUB SWAP3 SWAP1 SWAP3 AND SWAP2 SWAP1 SWAP2 OR SWAP1 SSTORE JUMP JUMPDEST PUSH1 0x0 SLOAD PUSH1 0x1 PUSH1 0x1 PUSH1 0xA0 SHL SUB AND CALLER EQ PUSH2 0x1234 JUMPI PUSH1 0x40 MLOAD PUSH3 0x461BCD PUSH1 0xE5 SHL DUP2 MSTORE PUSH1 0x4 ADD PUSH2 0x6B7 SWAP1 PUSH2 0x24C6 JUMP JUMPDEST PUSH2 0x3E8 DUP2 GT ISZERO PUSH2 0x1286 JUMPI PUSH1 0x40 MLOAD PUSH3 0x461BCD PUSH1 0xE5 SHL DUP2 MSTORE PUSH1 0x20 PUSH1 0x4 DUP3 ADD MSTORE PUSH1 0x1C PUSH1 0x24 DUP3 ADD MSTORE PUSH32 0x6D6178547850657263656E742065786365656473206469766964657200000000 PUSH1 0x44 DUP3 ADD MSTORE PUSH1 0x64 ADD PUSH2 0x6B7 JUMP JUMPDEST PUSH2 0x12A1 PUSH2 0x3E8 PUSH2 0x102E DUP4 PUSH1 0xB SLOAD PUSH2 0x1A6A SWAP1 SWAP2 SWAP1 PUSH4 0xFFFFFFFF AND JUMP JUMPDEST PUSH1 0x15 SSTORE POP JUMP JUMPDEST PUSH1 0x0 SLOAD PUSH1 0x1 PUSH1 0x1 PUSH1 0xA0 SHL SUB AND CALLER EQ PUSH2 0x12D1 JUMPI PUSH1 0x40 MLOAD PUSH3 0x461BCD PUSH1 0xE5 SHL DUP2 MSTORE PUSH1 0x4 ADD PUSH2 0x6B7 SWAP1 PUSH2 0x24C6 JUMP JUMPDEST PUSH1 0x1 PUSH1 0x1 PUSH1 0xA0 SHL SUB AND PUSH1 0x0 SWAP1 DUP2 MSTORE PUSH1 0x5 PUSH1 0x20 MSTORE PUSH1 0x40 SWAP1 KECCAK256 DUP1 SLOAD PUSH1 0xFF NOT AND SWAP1 SSTORE JUMP JUMPDEST PUSH1 0x0 SLOAD PUSH1 0x1 PUSH1 0x1 PUSH1 0xA0 SHL SUB AND CALLER EQ PUSH2 0x131C JUMPI PUSH1 0x40 MLOAD PUSH3 0x461BCD PUSH1 0xE5 SHL DUP2 MSTORE PUSH1 0x4 ADD PUSH2 0x6B7 SWAP1 PUSH2 0x24C6 JUMP JUMPDEST PUSH1 0x1 PUSH1 0x1 PUSH1 0xA0 SHL SUB DUP2 AND PUSH2 0x1381 JUMPI PUSH1 0x40 MLOAD PUSH3 0x461BCD PUSH1 0xE5 SHL DUP2 MSTORE PUSH1 0x20 PUSH1 0x4 DUP3 ADD MSTORE PUSH1 0x26 PUSH1 0x24 DUP3 ADD MSTORE PUSH32 0x4F776E61626C653A206E6577206F776E657220697320746865207A65726F2061 PUSH1 0x44 DUP3 ADD MSTORE PUSH6 0x646472657373 PUSH1 0xD0 SHL PUSH1 0x64 DUP3 ADD MSTORE PUSH1 0x84 ADD PUSH2 0x6B7 JUMP JUMPDEST PUSH1 0x0 DUP1 SLOAD PUSH1 0x40 MLOAD PUSH1 0x1 PUSH1 0x1 PUSH1 0xA0 SHL SUB DUP1 DUP6 AND SWAP4 SWAP3 AND SWAP2 PUSH32 0x8BE0079C531659141344CD1FD0A4F28419497F9722A3DAAFE3B4186F6B6457E0 SWAP2 LOG3 PUSH1 0x0 DUP1 SLOAD PUSH1 0x1 PUSH1 0x1 PUSH1 0xA0 SHL SUB NOT AND PUSH1 0x1 PUSH1 0x1 PUSH1 0xA0 SHL SUB SWAP3 SWAP1 SWAP3 AND SWAP2 SWAP1 SWAP2 OR SWAP1 SSTORE JUMP JUMPDEST PUSH1 0x1 PUSH1 0x1 PUSH1 0xA0 SHL SUB DUP4 AND PUSH2 0x143E JUMPI PUSH1 0x40 MLOAD PUSH3 0x461BCD PUSH1 0xE5 SHL DUP2 MSTORE PUSH1 0x20 PUSH1 0x4 DUP3 ADD MSTORE PUSH1 0x24 DUP1 DUP3 ADD MSTORE PUSH32 0x45524332303A20617070726F76652066726F6D20746865207A65726F20616464 PUSH1 0x44 DUP3 ADD MSTORE PUSH4 0x72657373 PUSH1 0xE0 SHL PUSH1 0x64 DUP3 ADD MSTORE PUSH1 0x84 ADD PUSH2 0x6B7 JUMP JUMPDEST PUSH1 0x1 PUSH1 0x1 PUSH1 0xA0 SHL SUB DUP3 AND PUSH2 0x149F JUMPI PUSH1 0x40 MLOAD PUSH3 0x461BCD PUSH1 0xE5 SHL DUP2 MSTORE PUSH1 0x20 PUSH1 0x4 DUP3 ADD MSTORE PUSH1 0x22 PUSH1 0x24 DUP3 ADD MSTORE PUSH32 0x45524332303A20617070726F766520746F20746865207A65726F206164647265 PUSH1 0x44 DUP3 ADD MSTORE PUSH2 0x7373 PUSH1 0xF0 SHL PUSH1 0x64 DUP3 ADD MSTORE PUSH1 0x84 ADD PUSH2 0x6B7 JUMP JUMPDEST PUSH1 0x1 PUSH1 0x1 PUSH1 0xA0 SHL SUB DUP4 DUP2 AND PUSH1 0x0 DUP2 DUP2 MSTORE PUSH1 0x4 PUSH1 0x20 SWAP1 DUP2 MSTORE PUSH1 0x40 DUP1 DUP4 KECCAK256 SWAP5 DUP8 AND DUP1 DUP5 MSTORE SWAP5 DUP3 MSTORE SWAP2 DUP3 SWAP1 KECCAK256 DUP6 SWAP1 SSTORE SWAP1 MLOAD DUP5 DUP2 MSTORE PUSH32 0x8C5BE1E5EBEC7D5BD14F71427D1E84F3DD0314C0F7B2291E5B200AC8C7C3B925 SWAP2 ADD PUSH1 0x40 MLOAD DUP1 SWAP2 SUB SWAP1 LOG3 POP POP POP JUMP JUMPDEST PUSH1 0x1 PUSH1 0x1 PUSH1 0xA0 SHL SUB DUP4 AND PUSH2 0x1564 JUMPI PUSH1 0x40 MLOAD PUSH3 0x461BCD PUSH1 0xE5 SHL DUP2 MSTORE PUSH1 0x20 PUSH1 0x4 DUP3 ADD MSTORE PUSH1 0x25 PUSH1 0x24 DUP3 ADD MSTORE PUSH32 0x45524332303A207472616E736665722066726F6D20746865207A65726F206164 PUSH1 0x44 DUP3 ADD MSTORE PUSH5 0x6472657373 PUSH1 0xD8 SHL PUSH1 0x64 DUP3 ADD MSTORE PUSH1 0x84 ADD PUSH2 0x6B7 JUMP JUMPDEST PUSH1 0x1 PUSH1 0x1 PUSH1 0xA0 SHL SUB DUP3 AND PUSH2 0x15C6 JUMPI PUSH1 0x40 MLOAD PUSH3 0x461BCD PUSH1 0xE5 SHL DUP2 MSTORE PUSH1 0x20 PUSH1 0x4 DUP3 ADD MSTORE PUSH1 0x23 PUSH1 0x24 DUP3 ADD MSTORE PUSH32 0x45524332303A207472616E7366657220746F20746865207A65726F2061646472 PUSH1 0x44 DUP3 ADD MSTORE PUSH3 0x657373 PUSH1 0xE8 SHL PUSH1 0x64 DUP3 ADD MSTORE PUSH1 0x84 ADD PUSH2 0x6B7 JUMP JUMPDEST PUSH1 0x0 DUP2 GT PUSH2 0x1628 JUMPI PUSH1 0x40 MLOAD PUSH3 0x461BCD PUSH1 0xE5 SHL DUP2 MSTORE PUSH1 0x20 PUSH1 0x4 DUP3 ADD MSTORE PUSH1 0x29 PUSH1 0x24 DUP3 ADD MSTORE PUSH32 0x5472616E7366657220616D6F756E74206D757374206265206772656174657220 PUSH1 0x44 DUP3 ADD MSTORE PUSH9 0x7468616E207A65726F PUSH1 0xB8 SHL PUSH1 0x64 DUP3 ADD MSTORE PUSH1 0x84 ADD PUSH2 0x6B7 JUMP JUMPDEST PUSH1 0x1 PUSH1 0x1 PUSH1 0xA0 SHL SUB DUP4 AND PUSH1 0x0 SWAP1 DUP2 MSTORE PUSH1 0x8 PUSH1 0x20 MSTORE PUSH1 0x40 SWAP1 KECCAK256 SLOAD PUSH1 0xFF AND ISZERO PUSH2 0x1687 JUMPI PUSH1 0x40 MLOAD PUSH3 0x461BCD PUSH1 0xE5 SHL DUP2 MSTORE PUSH1 0x20 PUSH1 0x4 DUP3 ADD MSTORE PUSH1 0x13 PUSH1 0x24 DUP3 ADD MSTORE PUSH19 0x165BDD48185C9948189B1858DADB1A5CDD1959 PUSH1 0x6A SHL PUSH1 0x44 DUP3 ADD MSTORE PUSH1 0x64 ADD PUSH2 0x6B7 JUMP JUMPDEST CALLER PUSH1 0x0 SWAP1 DUP2 MSTORE PUSH1 0x8 PUSH1 0x20 MSTORE PUSH1 0x40 SWAP1 KECCAK256 SLOAD PUSH1 0xFF AND ISZERO PUSH2 0x16D5 JUMPI PUSH1 0x40 MLOAD PUSH3 0x461BCD PUSH1 0xE5 SHL DUP2 MSTORE PUSH1 0x20 PUSH1 0x4 DUP3 ADD MSTORE PUSH1 0xB PUSH1 0x24 DUP3 ADD MSTORE PUSH11 0x189B1858DADB1A5CDD1959 PUSH1 0xAA SHL PUSH1 0x44 DUP3 ADD MSTORE PUSH1 0x64 ADD PUSH2 0x6B7 JUMP JUMPDEST ORIGIN PUSH1 0x0 SWAP1 DUP2 MSTORE PUSH1 0x8 PUSH1 0x20 MSTORE PUSH1 0x40 SWAP1 KECCAK256 SLOAD PUSH1 0xFF AND ISZERO PUSH2 0x1723 JUMPI PUSH1 0x40 MLOAD PUSH3 0x461BCD PUSH1 0xE5 SHL DUP2 MSTORE PUSH1 0x20 PUSH1 0x4 DUP3 ADD MSTORE PUSH1 0xB PUSH1 0x24 DUP3 ADD MSTORE PUSH11 0x189B1858DADB1A5CDD1959 PUSH1 0xAA SHL PUSH1 0x44 DUP3 ADD MSTORE PUSH1 0x64 ADD PUSH2 0x6B7 JUMP JUMPDEST PUSH1 0x1 PUSH1 0x1 PUSH1 0xA0 SHL SUB DUP4 AND PUSH1 0x0 SWAP1 DUP2 MSTORE PUSH1 0x5 PUSH1 0x20 MSTORE PUSH1 0x40 SWAP1 KECCAK256 SLOAD PUSH1 0x1 SWAP1 PUSH1 0xFF AND DUP1 PUSH2 0x1765 JUMPI POP PUSH1 0x1 PUSH1 0x1 PUSH1 0xA0 SHL SUB DUP4 AND PUSH1 0x0 SWAP1 DUP2 MSTORE PUSH1 0x5 PUSH1 0x20 MSTORE PUSH1 0x40 SWAP1 KECCAK256 SLOAD PUSH1 0xFF AND JUMPDEST ISZERO PUSH2 0x176E JUMPI POP PUSH1 0x0 JUMPDEST DUP1 ISZERO PUSH2 0x18C6 JUMPI PUSH1 0x1 PUSH1 0x1 PUSH1 0xA0 SHL SUB DUP5 AND PUSH1 0x0 SWAP1 DUP2 MSTORE PUSH1 0x9 PUSH1 0x20 MSTORE PUSH1 0x40 SWAP1 KECCAK256 SLOAD PUSH1 0xFF AND ISZERO DUP1 ISZERO PUSH2 0x17B6 JUMPI POP PUSH1 0x1 PUSH1 0x1 PUSH1 0xA0 SHL SUB DUP4 AND PUSH1 0x0 SWAP1 DUP2 MSTORE PUSH1 0x9 PUSH1 0x20 MSTORE PUSH1 0x40 SWAP1 KECCAK256 SLOAD PUSH1 0xFF AND ISZERO JUMPDEST ISZERO PUSH2 0x18C6 JUMPI PUSH1 0x15 SLOAD DUP3 GT ISZERO PUSH2 0x181E JUMPI PUSH1 0x40 MLOAD PUSH3 0x461BCD PUSH1 0xE5 SHL DUP2 MSTORE PUSH1 0x20 PUSH1 0x4 DUP3 ADD MSTORE PUSH1 0x28 PUSH1 0x24 DUP3 ADD MSTORE PUSH32 0x5472616E7366657220616D6F756E74206578636565647320746865206D617854 PUSH1 0x44 DUP3 ADD MSTORE PUSH8 0x3C20B6B7BAB73A17 PUSH1 0xC1 SHL PUSH1 0x64 DUP3 ADD MSTORE PUSH1 0x84 ADD PUSH2 0x6B7 JUMP JUMPDEST PUSH32 0x0 PUSH1 0x1 PUSH1 0x1 PUSH1 0xA0 SHL SUB AND DUP4 PUSH1 0x1 PUSH1 0x1 PUSH1 0xA0 SHL SUB AND EQ PUSH2 0x18C6 JUMPI PUSH1 0x16 SLOAD PUSH2 0x1863 DUP5 PUSH2 0xD6B JUMP JUMPDEST PUSH2 0x186D SWAP1 DUP5 PUSH2 0x258C JUMP JUMPDEST GT ISZERO PUSH2 0x18C6 JUMPI PUSH1 0x40 MLOAD PUSH3 0x461BCD PUSH1 0xE5 SHL DUP2 MSTORE PUSH1 0x20 PUSH1 0x4 DUP3 ADD MSTORE PUSH1 0x22 PUSH1 0x24 DUP3 ADD MSTORE PUSH32 0x526563697069656E742065786365656473206D61782077616C6C65742073697A PUSH1 0x44 DUP3 ADD MSTORE PUSH2 0x3297 PUSH1 0xF1 SHL PUSH1 0x64 DUP3 ADD MSTORE PUSH1 0x84 ADD PUSH2 0x6B7 JUMP JUMPDEST PUSH2 0xF35 DUP5 DUP5 DUP5 DUP5 PUSH2 0x1AE9 JUMP JUMPDEST PUSH1 0x0 DUP2 DUP5 DUP5 GT ISZERO PUSH2 0x18F6 JUMPI PUSH1 0x40 MLOAD PUSH3 0x461BCD PUSH1 0xE5 SHL DUP2 MSTORE PUSH1 0x4 ADD PUSH2 0x6B7 SWAP2 SWAP1 PUSH2 0x230F JUMP JUMPDEST POP PUSH1 0x0 PUSH2 0x1903 DUP5 DUP7 PUSH2 0x2527 JUMP JUMPDEST SWAP6 SWAP5 POP POP POP POP POP JUMP JUMPDEST PUSH1 0x0 DUP1 PUSH1 0x0 PUSH2 0x1919 PUSH2 0x1D3D JUMP JUMPDEST SWAP1 SWAP3 POP SWAP1 POP PUSH2 0x1928 DUP3 DUP3 PUSH2 0x192F JUMP JUMPDEST SWAP3 POP POP POP SWAP1 JUMP JUMPDEST PUSH1 0x0 PUSH2 0x93B DUP4 DUP4 PUSH1 0x40 MLOAD DUP1 PUSH1 0x40 ADD PUSH1 0x40 MSTORE DUP1 PUSH1 0x1A DUP2 MSTORE PUSH1 0x20 ADD PUSH32 0x536166654D6174683A206469766973696F6E206279207A65726F000000000000 DUP2 MSTORE POP PUSH2 0x1EBF JUMP JUMPDEST PUSH1 0x0 DUP1 PUSH2 0x197E DUP4 DUP6 PUSH2 0x258C JUMP JUMPDEST SWAP1 POP DUP4 DUP2 LT ISZERO PUSH2 0x93B JUMPI PUSH1 0x40 MLOAD PUSH3 0x461BCD PUSH1 0xE5 SHL DUP2 MSTORE PUSH1 0x20 PUSH1 0x4 DUP3 ADD MSTORE PUSH1 0x1B PUSH1 0x24 DUP3 ADD MSTORE PUSH32 0x536166654D6174683A206164646974696F6E206F766572666C6F770000000000 PUSH1 0x44 DUP3 ADD MSTORE PUSH1 0x64 ADD PUSH2 0x6B7 JUMP JUMPDEST PUSH1 0x0 DUP1 PUSH1 0x0 DUP1 PUSH2 0x19DF DUP6 PUSH2 0x1EED JUMP JUMPDEST SWAP1 POP PUSH1 0x0 PUSH2 0x19EC DUP7 PUSH2 0x1F09 JUMP JUMPDEST SWAP1 POP PUSH1 0x0 PUSH2 0x19FA DUP8 DUP5 PUSH2 0x1F2B JUMP JUMPDEST SWAP1 POP PUSH2 0x1A06 DUP2 DUP4 PUSH2 0x1F2B JUMP JUMPDEST SWAP8 SWAP3 SWAP7 POP SWAP1 SWAP5 POP SWAP1 SWAP3 POP POP POP JUMP JUMPDEST PUSH1 0x0 DUP1 DUP1 DUP1 PUSH2 0x1A23 DUP9 DUP7 PUSH2 0x1A6A JUMP JUMPDEST SWAP1 POP PUSH1 0x0 PUSH2 0x1A31 DUP9 DUP8 PUSH2 0x1A6A JUMP JUMPDEST SWAP1 POP PUSH1 0x0 PUSH2 0x1A3F DUP9 DUP9 PUSH2 0x1A6A JUMP JUMPDEST SWAP1 POP PUSH1 0x0 PUSH2 0x1A57 DUP3 PUSH2 0x1A51 DUP7 DUP7 PUSH2 0x1F2B JUMP JUMPDEST SWAP1 PUSH2 0x1F2B JUMP JUMPDEST SWAP4 SWAP12 SWAP4 SWAP11 POP SWAP2 SWAP9 POP SWAP2 SWAP7 POP POP POP POP POP POP POP JUMP JUMPDEST PUSH1 0x0 DUP3 PUSH2 0x1A79 JUMPI POP PUSH1 0x0 PUSH2 0x687 JUMP JUMPDEST PUSH1 0x0 PUSH2 0x1A85 DUP4 DUP6 PUSH2 0x25A4 JUMP JUMPDEST SWAP1 POP DUP3 PUSH2 0x1A92 DUP6 DUP4 PUSH2 0x25C3 JUMP JUMPDEST EQ PUSH2 0x93B JUMPI PUSH1 0x40 MLOAD PUSH3 0x461BCD PUSH1 0xE5 SHL DUP2 MSTORE PUSH1 0x20 PUSH1 0x4 DUP3 ADD MSTORE PUSH1 0x21 PUSH1 0x24 DUP3 ADD MSTORE PUSH32 0x536166654D6174683A206D756C7469706C69636174696F6E206F766572666C6F PUSH1 0x44 DUP3 ADD MSTORE PUSH1 0x77 PUSH1 0xF8 SHL PUSH1 0x64 DUP3 ADD MSTORE PUSH1 0x84 ADD PUSH2 0x6B7 JUMP JUMPDEST DUP1 ISZERO PUSH2 0x1BD7 JUMPI PUSH2 0x1B01 PUSH1 0x14 DUP1 SLOAD PUSH4 0xFFFFFFFF NOT AND SWAP1 SSTORE JUMP JUMPDEST PUSH32 0x0 PUSH1 0x1 PUSH1 0x1 PUSH1 0xA0 SHL SUB AND DUP5 PUSH1 0x1 PUSH1 0x1 PUSH1 0xA0 SHL SUB AND EQ ISZERO PUSH2 0x1B6C JUMPI PUSH2 0x1B6C PUSH1 0x12 SLOAD PUSH1 0x14 DUP1 SLOAD PUSH3 0x10000 DUP1 DUP5 DIV PUSH2 0xFFFF SWAP1 DUP2 AND SWAP1 SWAP2 MUL PUSH4 0xFFFFFFFF NOT SWAP1 SWAP3 AND SWAP4 AND SWAP3 SWAP1 SWAP3 OR SWAP2 SWAP1 SWAP2 OR SWAP1 SSTORE JUMP JUMPDEST PUSH32 0x0 PUSH1 0x1 PUSH1 0x1 PUSH1 0xA0 SHL SUB AND DUP4 PUSH1 0x1 PUSH1 0x1 PUSH1 0xA0 SHL SUB AND EQ ISZERO PUSH2 0x1BD7 JUMPI PUSH2 0x1BD7 PUSH1 0x13 SLOAD PUSH1 0x14 DUP1 SLOAD PUSH3 0x10000 DUP1 DUP5 DIV PUSH2 0xFFFF SWAP1 DUP2 AND SWAP1 SWAP2 MUL PUSH4 0xFFFFFFFF NOT SWAP1 SWAP3 AND SWAP4 AND SWAP3 SWAP1 SWAP3 OR SWAP2 SWAP1 SWAP2 OR SWAP1 SSTORE JUMP JUMPDEST PUSH1 0x1 PUSH1 0x1 PUSH1 0xA0 SHL SUB DUP5 AND PUSH1 0x0 SWAP1 DUP2 MSTORE PUSH1 0x6 PUSH1 0x20 MSTORE PUSH1 0x40 SWAP1 KECCAK256 SLOAD PUSH1 0xFF AND DUP1 ISZERO PUSH2 0x1C18 JUMPI POP PUSH1 0x1 PUSH1 0x1 PUSH1 0xA0 SHL SUB DUP4 AND PUSH1 0x0 SWAP1 DUP2 MSTORE PUSH1 0x6 PUSH1 0x20 MSTORE PUSH1 0x40 SWAP1 KECCAK256 SLOAD PUSH1 0xFF AND ISZERO JUMPDEST ISZERO PUSH2 0x1C2D JUMPI PUSH2 0x1C28 DUP5 DUP5 DUP5 PUSH2 0x1F6D JUMP JUMPDEST PUSH2 0x1D2B JUMP JUMPDEST PUSH1 0x1 PUSH1 0x1 PUSH1 0xA0 SHL SUB DUP5 AND PUSH1 0x0 SWAP1 DUP2 MSTORE PUSH1 0x6 PUSH1 0x20 MSTORE PUSH1 0x40 SWAP1 KECCAK256 SLOAD PUSH1 0xFF AND ISZERO DUP1 ISZERO PUSH2 0x1C6E JUMPI POP PUSH1 0x1 PUSH1 0x1 PUSH1 0xA0 SHL SUB DUP4 AND PUSH1 0x0 SWAP1 DUP2 MSTORE PUSH1 0x6 PUSH1 0x20 MSTORE PUSH1 0x40 SWAP1 KECCAK256 SLOAD PUSH1 0xFF AND JUMPDEST ISZERO PUSH2 0x1C7E JUMPI PUSH2 0x1C28 DUP5 DUP5 DUP5 PUSH2 0x20A1 JUMP JUMPDEST PUSH1 0x1 PUSH1 0x1 PUSH1 0xA0 SHL SUB DUP5 AND PUSH1 0x0 SWAP1 DUP2 MSTORE PUSH1 0x6 PUSH1 0x20 MSTORE PUSH1 0x40 SWAP1 KECCAK256 SLOAD PUSH1 0xFF AND ISZERO DUP1 ISZERO PUSH2 0x1CC0 JUMPI POP PUSH1 0x1 PUSH1 0x1 PUSH1 0xA0 SHL SUB DUP4 AND PUSH1 0x0 SWAP1 DUP2 MSTORE PUSH1 0x6 PUSH1 0x20 MSTORE PUSH1 0x40 SWAP1 KECCAK256 SLOAD PUSH1 0xFF AND ISZERO JUMPDEST ISZERO PUSH2 0x1CD0 JUMPI PUSH2 0x1C28 DUP5 DUP5 DUP5 PUSH2 0x2158 JUMP JUMPDEST PUSH1 0x1 PUSH1 0x1 PUSH1 0xA0 SHL SUB DUP5 AND PUSH1 0x0 SWAP1 DUP2 MSTORE PUSH1 0x6 PUSH1 0x20 MSTORE PUSH1 0x40 SWAP1 KECCAK256 SLOAD PUSH1 0xFF AND DUP1 ISZERO PUSH2 0x1D10 JUMPI POP PUSH1 0x1 PUSH1 0x1 PUSH1 0xA0 SHL SUB DUP4 AND PUSH1 0x0 SWAP1 DUP2 MSTORE PUSH1 0x6 PUSH1 0x20 MSTORE PUSH1 0x40 SWAP1 KECCAK256 SLOAD PUSH1 0xFF AND JUMPDEST ISZERO PUSH2 0x1D20 JUMPI PUSH2 0x1C28 DUP5 DUP5 DUP5 PUSH2 0x21AA JUMP JUMPDEST PUSH2 0x1D2B DUP5 DUP5 DUP5 PUSH2 0x2158 JUMP JUMPDEST PUSH2 0xF35 PUSH1 0x14 DUP1 SLOAD PUSH4 0xFFFFFFFF NOT AND SWAP1 SSTORE JUMP JUMPDEST PUSH1 0xC SLOAD PUSH1 0xB SLOAD PUSH1 0x0 SWAP2 DUP3 SWAP2 DUP3 JUMPDEST PUSH1 0x7 SLOAD DUP2 LT ISZERO PUSH2 0x1E8F JUMPI DUP3 PUSH1 0x2 PUSH1 0x0 PUSH1 0x7 DUP5 DUP2 SLOAD DUP2 LT PUSH2 0x1D6C JUMPI PUSH2 0x1D6C PUSH2 0x24FB JUMP JUMPDEST PUSH1 0x0 SWAP2 DUP3 MSTORE PUSH1 0x20 DUP1 DUP4 KECCAK256 SWAP1 SWAP2 ADD SLOAD PUSH1 0x1 PUSH1 0x1 PUSH1 0xA0 SHL SUB AND DUP4 MSTORE DUP3 ADD SWAP3 SWAP1 SWAP3 MSTORE PUSH1 0x40 ADD SWAP1 KECCAK256 SLOAD GT DUP1 PUSH2 0x1DD7 JUMPI POP DUP2 PUSH1 0x3 PUSH1 0x0 PUSH1 0x7 DUP5 DUP2 SLOAD DUP2 LT PUSH2 0x1DB0 JUMPI PUSH2 0x1DB0 PUSH2 0x24FB JUMP JUMPDEST PUSH1 0x0 SWAP2 DUP3 MSTORE PUSH1 0x20 DUP1 DUP4 KECCAK256 SWAP1 SWAP2 ADD SLOAD PUSH1 0x1 PUSH1 0x1 PUSH1 0xA0 SHL SUB AND DUP4 MSTORE DUP3 ADD SWAP3 SWAP1 SWAP3 MSTORE PUSH1 0x40 ADD SWAP1 KECCAK256 SLOAD GT JUMPDEST ISZERO PUSH2 0x1DED JUMPI PUSH1 0xC SLOAD PUSH1 0xB SLOAD SWAP5 POP SWAP5 POP POP POP POP SWAP1 SWAP2 JUMP JUMPDEST PUSH2 0x1E33 PUSH1 0x2 PUSH1 0x0 PUSH1 0x7 DUP5 DUP2 SLOAD DUP2 LT PUSH2 0x1E07 JUMPI PUSH2 0x1E07 PUSH2 0x24FB JUMP JUMPDEST PUSH1 0x0 SWAP2 DUP3 MSTORE PUSH1 0x20 DUP1 DUP4 KECCAK256 SWAP1 SWAP2 ADD SLOAD PUSH1 0x1 PUSH1 0x1 PUSH1 0xA0 SHL SUB AND DUP4 MSTORE DUP3 ADD SWAP3 SWAP1 SWAP3 MSTORE PUSH1 0x40 ADD SWAP1 KECCAK256 SLOAD DUP5 SWAP1 PUSH2 0x1F2B JUMP JUMPDEST SWAP3 POP PUSH2 0x1E7B PUSH1 0x3 PUSH1 0x0 PUSH1 0x7 DUP5 DUP2 SLOAD DUP2 LT PUSH2 0x1E4F JUMPI PUSH2 0x1E4F PUSH2 0x24FB JUMP JUMPDEST PUSH1 0x0 SWAP2 DUP3 MSTORE PUSH1 0x20 DUP1 DUP4 KECCAK256 SWAP1 SWAP2 ADD SLOAD PUSH1 0x1 PUSH1 0x1 PUSH1 0xA0 SHL SUB AND DUP4 MSTORE DUP3 ADD SWAP3 SWAP1 SWAP3 MSTORE PUSH1 0x40 ADD SWAP1 KECCAK256 SLOAD DUP4 SWAP1 PUSH2 0x1F2B JUMP JUMPDEST SWAP2 POP DUP1 PUSH2 0x1E87 DUP2 PUSH2 0x2554 JUMP JUMPDEST SWAP2 POP POP PUSH2 0x1D4A JUMP JUMPDEST POP PUSH1 0xB SLOAD PUSH1 0xC SLOAD PUSH2 0x1E9F SWAP2 PUSH2 0x192F JUMP JUMPDEST DUP3 LT ISZERO PUSH2 0x1EB6 JUMPI PUSH1 0xC SLOAD PUSH1 0xB SLOAD SWAP4 POP SWAP4 POP POP POP SWAP1 SWAP2 JUMP JUMPDEST SWAP1 SWAP4 SWAP1 SWAP3 POP SWAP1 POP JUMP JUMPDEST PUSH1 0x0 DUP2 DUP4 PUSH2 0x1EE0 JUMPI PUSH1 0x40 MLOAD PUSH3 0x461BCD PUSH1 0xE5 SHL DUP2 MSTORE PUSH1 0x4 ADD PUSH2 0x6B7 SWAP2 SWAP1 PUSH2 0x230F JUMP JUMPDEST POP PUSH1 0x0 PUSH2 0x1903 DUP5 DUP7 PUSH2 0x25C3 JUMP JUMPDEST PUSH1 0x14 SLOAD PUSH1 0x0 SWAP1 PUSH2 0x687 SWAP1 PUSH1 0x64 SWAP1 PUSH2 0x102E SWAP1 DUP6 SWAP1 PUSH2 0xFFFF AND PUSH2 0x1A6A JUMP JUMPDEST PUSH1 0x14 SLOAD PUSH1 0x0 SWAP1 PUSH2 0x687 SWAP1 PUSH1 0x64 SWAP1 PUSH2 0x102E SWAP1 DUP6 SWAP1 PUSH3 0x10000 SWAP1 DIV PUSH2 0xFFFF AND PUSH2 0x1A6A JUMP JUMPDEST PUSH1 0x0 PUSH2 0x93B DUP4 DUP4 PUSH1 0x40 MLOAD DUP1 PUSH1 0x40 ADD PUSH1 0x40 MSTORE DUP1 PUSH1 0x1E DUP2 MSTORE PUSH1 0x20 ADD PUSH32 0x536166654D6174683A207375627472616374696F6E206F766572666C6F770000 DUP2 MSTORE POP PUSH2 0x18D2 JUMP JUMPDEST PUSH1 0x0 DUP1 PUSH1 0x0 PUSH2 0x1F7B DUP5 PUSH2 0x19D0 JUMP JUMPDEST SWAP3 POP SWAP3 POP SWAP3 POP PUSH1 0x0 DUP1 PUSH1 0x0 PUSH2 0x1F94 DUP8 DUP7 DUP7 PUSH2 0xBF3 PUSH2 0x190C JUMP JUMPDEST PUSH1 0x1 PUSH1 0x1 PUSH1 0xA0 SHL SUB DUP13 AND PUSH1 0x0 SWAP1 DUP2 MSTORE PUSH1 0x3 PUSH1 0x20 MSTORE PUSH1 0x40 SWAP1 KECCAK256 SLOAD SWAP3 SWAP6 POP SWAP1 SWAP4 POP SWAP2 POP PUSH2 0x1FBF SWAP1 DUP9 PUSH2 0x1F2B JUMP JUMPDEST PUSH1 0x1 PUSH1 0x1 PUSH1 0xA0 SHL SUB DUP11 AND PUSH1 0x0 SWAP1 DUP2 MSTORE PUSH1 0x3 PUSH1 0x20 SWAP1 DUP2 MSTORE PUSH1 0x40 DUP1 DUP4 KECCAK256 SWAP4 SWAP1 SWAP4 SSTORE PUSH1 0x2 SWAP1 MSTORE KECCAK256 SLOAD PUSH2 0x1FEE SWAP1 DUP5 PUSH2 0x1F2B JUMP JUMPDEST PUSH1 0x1 PUSH1 0x1 PUSH1 0xA0 SHL SUB DUP1 DUP12 AND PUSH1 0x0 SWAP1 DUP2 MSTORE PUSH1 0x2 PUSH1 0x20 MSTORE PUSH1 0x40 DUP1 DUP3 KECCAK256 SWAP4 SWAP1 SWAP4 SSTORE SWAP1 DUP11 AND DUP2 MSTORE KECCAK256 SLOAD PUSH2 0x201D SWAP1 DUP4 PUSH2 0x1971 JUMP JUMPDEST PUSH1 0x1 PUSH1 0x1 PUSH1 0xA0 SHL SUB DUP10 AND PUSH1 0x0 SWAP1 DUP2 MSTORE PUSH1 0x2 PUSH1 0x20 MSTORE PUSH1 0x40 SWAP1 KECCAK256 SSTORE PUSH2 0x203F DUP5 PUSH2 0x222B JUMP JUMPDEST PUSH2 0x2049 DUP2 DUP7 PUSH2 0x22EB JUMP JUMPDEST DUP8 PUSH1 0x1 PUSH1 0x1 PUSH1 0xA0 SHL SUB AND DUP10 PUSH1 0x1 PUSH1 0x1 PUSH1 0xA0 SHL SUB AND PUSH32 0xDDF252AD1BE2C89B69C2B068FC378DAA952BA7F163C4A11628F55A4DF523B3EF DUP9 PUSH1 0x40 MLOAD PUSH2 0x208E SWAP2 DUP2 MSTORE PUSH1 0x20 ADD SWAP1 JUMP JUMPDEST PUSH1 0x40 MLOAD DUP1 SWAP2 SUB SWAP1 LOG3 POP POP POP POP POP POP POP POP POP JUMP JUMPDEST PUSH1 0x0 DUP1 PUSH1 0x0 PUSH2 0x20AF DUP5 PUSH2 0x19D0 JUMP JUMPDEST SWAP3 POP SWAP3 POP SWAP3 POP PUSH1 0x0 DUP1 PUSH1 0x0 PUSH2 0x20C8 DUP8 DUP7 DUP7 PUSH2 0xBF3 PUSH2 0x190C JUMP JUMPDEST PUSH1 0x1 PUSH1 0x1 PUSH1 0xA0 SHL SUB DUP13 AND PUSH1 0x0 SWAP1 DUP2 MSTORE PUSH1 0x2 PUSH1 0x20 MSTORE PUSH1 0x40 SWAP1 KECCAK256 SLOAD SWAP3 SWAP6 POP SWAP1 SWAP4 POP SWAP2 POP PUSH2 0x20F3 SWAP1 DUP5 PUSH2 0x1F2B JUMP JUMPDEST PUSH1 0x1 PUSH1 0x1 PUSH1 0xA0 SHL SUB DUP1 DUP12 AND PUSH1 0x0 SWAP1 DUP2 MSTORE PUSH1 0x2 PUSH1 0x20 SWAP1 DUP2 MSTORE PUSH1 0x40 DUP1 DUP4 KECCAK256 SWAP5 SWAP1 SWAP5 SSTORE SWAP2 DUP12 AND DUP2 MSTORE PUSH1 0x3 SWAP1 SWAP2 MSTORE KECCAK256 SLOAD PUSH2 0x2129 SWAP1 DUP8 PUSH2 0x1971 JUMP JUMPDEST PUSH1 0x1 PUSH1 0x1 PUSH1 0xA0 SHL SUB DUP10 AND PUSH1 0x0 SWAP1 DUP2 MSTORE PUSH1 0x3 PUSH1 0x20 SWAP1 DUP2 MSTORE PUSH1 0x40 DUP1 DUP4 KECCAK256 SWAP4 SWAP1 SWAP4 SSTORE PUSH1 0x2 SWAP1 MSTORE KECCAK256 SLOAD PUSH2 0x201D SWAP1 DUP4 PUSH2 0x1971 JUMP JUMPDEST PUSH1 0x0 DUP1 PUSH1 0x0 PUSH2 0x2166 DUP5 PUSH2 0x19D0 JUMP JUMPDEST SWAP3 POP SWAP3 POP SWAP3 POP PUSH1 0x0 DUP1 PUSH1 0x0 PUSH2 0x217F DUP8 DUP7 DUP7 PUSH2 0xBF3 PUSH2 0x190C JUMP JUMPDEST PUSH1 0x1 PUSH1 0x1 PUSH1 0xA0 SHL SUB DUP13 AND PUSH1 0x0 SWAP1 DUP2 MSTORE PUSH1 0x2 PUSH1 0x20 MSTORE PUSH1 0x40 SWAP1 KECCAK256 SLOAD SWAP3 SWAP6 POP SWAP1 SWAP4 POP SWAP2 POP PUSH2 0x1FEE SWAP1 DUP5 PUSH2 0x1F2B JUMP JUMPDEST PUSH1 0x0 DUP1 PUSH1 0x0 PUSH2 0x21B8 DUP5 PUSH2 0x19D0 JUMP JUMPDEST SWAP3 POP SWAP3 POP SWAP3 POP PUSH1 0x0 DUP1 PUSH1 0x0 PUSH2 0x21D1 DUP8 DUP7 DUP7 PUSH2 0xBF3 PUSH2 0x190C JUMP JUMPDEST PUSH1 0x1 PUSH1 0x1 PUSH1 0xA0 SHL SUB DUP13 AND PUSH1 0x0 SWAP1 DUP2 MSTORE PUSH1 0x3 PUSH1 0x20 MSTORE PUSH1 0x40 SWAP1 KECCAK256 SLOAD SWAP3 SWAP6 POP SWAP1 SWAP4 POP SWAP2 POP PUSH2 0x21FC SWAP1 DUP9 PUSH2 0x1F2B JUMP JUMPDEST PUSH1 0x1 PUSH1 0x1 PUSH1 0xA0 SHL SUB DUP11 AND PUSH1 0x0 SWAP1 DUP2 MSTORE PUSH1 0x3 PUSH1 0x20 SWAP1 DUP2 MSTORE PUSH1 0x40 DUP1 DUP4 KECCAK256 SWAP4 SWAP1 SWAP4 SSTORE PUSH1 0x2 SWAP1 MSTORE KECCAK256 SLOAD PUSH2 0x20F3 SWAP1 DUP5 PUSH2 0x1F2B JUMP JUMPDEST PUSH1 0x0 PUSH2 0x2235 PUSH2 0x190C JUMP JUMPDEST SWAP1 POP PUSH1 0x0 PUSH2 0x2243 DUP4 DUP4 PUSH2 0x1A6A JUMP JUMPDEST PUSH1 0xE SLOAD PUSH1 0x1 PUSH1 0x1 PUSH1 0xA0 SHL SUB AND PUSH1 0x0 SWAP1 DUP2 MSTORE PUSH1 0x2 PUSH1 0x20 MSTORE PUSH1 0x40 SWAP1 KECCAK256 SLOAD SWAP1 SWAP2 POP PUSH2 0x226B SWAP1 DUP3 PUSH2 0x1971 JUMP JUMPDEST PUSH1 0xE DUP1 SLOAD PUSH1 0x1 PUSH1 0x1 PUSH1 0xA0 SHL SUB SWAP1 DUP2 AND PUSH1 0x0 SWAP1 DUP2 MSTORE PUSH1 0x2 PUSH1 0x20 SWAP1 DUP2 MSTORE PUSH1 0x40 DUP1 DUP4 KECCAK256 SWAP6 SWAP1 SWAP6 SSTORE SWAP3 SLOAD SWAP1 SWAP2 AND DUP2 MSTORE PUSH1 0x6 SWAP1 SWAP2 MSTORE KECCAK256 SLOAD PUSH1 0xFF AND ISZERO PUSH2 0x22E6 JUMPI PUSH1 0xE SLOAD PUSH1 0x1 PUSH1 0x1 PUSH1 0xA0 SHL SUB AND PUSH1 0x0 SWAP1 DUP2 MSTORE PUSH1 0x3 PUSH1 0x20 MSTORE PUSH1 0x40 SWAP1 KECCAK256 SLOAD PUSH2 0x22CA SWAP1 DUP5 PUSH2 0x1971 JUMP JUMPDEST PUSH1 0xE SLOAD PUSH1 0x1 PUSH1 0x1 PUSH1 0xA0 SHL SUB AND PUSH1 0x0 SWAP1 DUP2 MSTORE PUSH1 0x3 PUSH1 0x20 MSTORE PUSH1 0x40 SWAP1 KECCAK256 SSTORE JUMPDEST POP POP POP JUMP JUMPDEST PUSH1 0xC SLOAD PUSH2 0x22F8 SWAP1 DUP4 PUSH2 0x1F2B JUMP JUMPDEST PUSH1 0xC SSTORE PUSH1 0xD SLOAD PUSH2 0x2308 SWAP1 DUP3 PUSH2 0x1971 JUMP JUMPDEST PUSH1 0xD SSTORE POP POP JUMP JUMPDEST PUSH1 0x0 PUSH1 0x20 DUP1 DUP4 MSTORE DUP4 MLOAD DUP1 DUP3 DUP6 ADD MSTORE PUSH1 0x0 JUMPDEST DUP2 DUP2 LT ISZERO PUSH2 0x233C JUMPI DUP6 DUP2 ADD DUP4 ADD MLOAD DUP6 DUP3 ADD PUSH1 0x40 ADD MSTORE DUP3 ADD PUSH2 0x2320 JUMP JUMPDEST DUP2 DUP2 GT ISZERO PUSH2 0x234E JUMPI PUSH1 0x0 PUSH1 0x40 DUP4 DUP8 ADD ADD MSTORE JUMPDEST POP PUSH1 0x1F ADD PUSH1 0x1F NOT AND SWAP3 SWAP1 SWAP3 ADD PUSH1 0x40 ADD SWAP4 SWAP3 POP POP POP JUMP JUMPDEST PUSH1 0x1 PUSH1 0x1 PUSH1 0xA0 SHL SUB DUP2 AND DUP2 EQ PUSH2 0x2379 JUMPI PUSH1 0x0 DUP1 REVERT JUMPDEST POP JUMP JUMPDEST PUSH1 0x0 DUP1 PUSH1 0x40 DUP4 DUP6 SUB SLT ISZERO PUSH2 0x238F JUMPI PUSH1 0x0 DUP1 REVERT JUMPDEST DUP3 CALLDATALOAD PUSH2 0x239A DUP2 PUSH2 0x2364 JUMP JUMPDEST SWAP5 PUSH1 0x20 SWAP4 SWAP1 SWAP4 ADD CALLDATALOAD SWAP4 POP POP POP JUMP JUMPDEST PUSH1 0x0 PUSH1 0x20 DUP3 DUP5 SUB SLT ISZERO PUSH2 0x23BA JUMPI PUSH1 0x0 DUP1 REVERT JUMPDEST DUP2 CALLDATALOAD PUSH2 0x93B DUP2 PUSH2 0x2364 JUMP JUMPDEST PUSH1 0x0 DUP1 PUSH1 0x0 PUSH1 0x60 DUP5 DUP7 SUB SLT ISZERO PUSH2 0x23DA JUMPI PUSH1 0x0 DUP1 REVERT JUMPDEST DUP4 CALLDATALOAD PUSH2 0x23E5 DUP2 PUSH2 0x2364 JUMP JUMPDEST SWAP3 POP PUSH1 0x20 DUP5 ADD CALLDATALOAD PUSH2 0x23F5 DUP2 PUSH2 0x2364 JUMP JUMPDEST SWAP3 SWAP6 SWAP3 SWAP5 POP POP POP PUSH1 0x40 SWAP2 SWAP1 SWAP2 ADD CALLDATALOAD SWAP1 JUMP JUMPDEST PUSH1 0x0 PUSH1 0x20 DUP3 DUP5 SUB SLT ISZERO PUSH2 0x2418 JUMPI PUSH1 0x0 DUP1 REVERT JUMPDEST POP CALLDATALOAD SWAP2 SWAP1 POP JUMP JUMPDEST DUP1 ISZERO ISZERO DUP2 EQ PUSH2 0x2379 JUMPI PUSH1 0x0 DUP1 REVERT JUMPDEST PUSH1 0x0 DUP1 PUSH1 0x40 DUP4 DUP6 SUB SLT ISZERO PUSH2 0x2440 JUMPI PUSH1 0x0 DUP1 REVERT JUMPDEST DUP3 CALLDATALOAD SWAP2 POP PUSH1 0x20 DUP4 ADD CALLDATALOAD PUSH2 0x2452 DUP2 PUSH2 0x241F JUMP JUMPDEST DUP1 SWAP2 POP POP SWAP3 POP SWAP3 SWAP1 POP JUMP JUMPDEST PUSH1 0x0 DUP1 PUSH1 0x40 DUP4 DUP6 SUB SLT ISZERO PUSH2 0x2470 JUMPI PUSH1 0x0 DUP1 REVERT JUMPDEST DUP3 CALLDATALOAD PUSH2 0x247B DUP2 PUSH2 0x2364 JUMP JUMPDEST SWAP2 POP PUSH1 0x20 DUP4 ADD CALLDATALOAD PUSH2 0x2452 DUP2 PUSH2 0x2364 JUMP JUMPDEST PUSH1 0x1 DUP2 DUP2 SHR SWAP1 DUP3 AND DUP1 PUSH2 0x249F JUMPI PUSH1 0x7F DUP3 AND SWAP2 POP JUMPDEST PUSH1 0x20 DUP3 LT DUP2 EQ ISZERO PUSH2 0x24C0 JUMPI PUSH4 0x4E487B71 PUSH1 0xE0 SHL PUSH1 0x0 MSTORE PUSH1 0x22 PUSH1 0x4 MSTORE PUSH1 0x24 PUSH1 0x0 REVERT JUMPDEST POP SWAP2 SWAP1 POP JUMP JUMPDEST PUSH1 0x20 DUP1 DUP3 MSTORE DUP2 DUP2 ADD MSTORE PUSH32 0x4F776E61626C653A2063616C6C6572206973206E6F7420746865206F776E6572 PUSH1 0x40 DUP3 ADD MSTORE PUSH1 0x60 ADD SWAP1 JUMP JUMPDEST PUSH4 0x4E487B71 PUSH1 0xE0 SHL PUSH1 0x0 MSTORE PUSH1 0x32 PUSH1 0x4 MSTORE PUSH1 0x24 PUSH1 0x0 REVERT JUMPDEST PUSH4 0x4E487B71 PUSH1 0xE0 SHL PUSH1 0x0 MSTORE PUSH1 0x11 PUSH1 0x4 MSTORE PUSH1 0x24 PUSH1 0x0 REVERT JUMPDEST PUSH1 0x0 DUP3 DUP3 LT ISZERO PUSH2 0x2539 JUMPI PUSH2 0x2539 PUSH2 0x2511 JUMP JUMPDEST POP SUB SWAP1 JUMP JUMPDEST PUSH4 0x4E487B71 PUSH1 0xE0 SHL PUSH1 0x0 MSTORE PUSH1 0x31 PUSH1 0x4 MSTORE PUSH1 0x24 PUSH1 0x0 REVERT JUMPDEST PUSH1 0x0 PUSH1 0x0 NOT DUP3 EQ ISZERO PUSH2 0x2568 JUMPI PUSH2 0x2568 PUSH2 0x2511 JUMP JUMPDEST POP PUSH1 0x1 ADD SWAP1 JUMP JUMPDEST PUSH1 0x0 PUSH1 0x20 DUP3 DUP5 SUB SLT ISZERO PUSH2 0x2581 JUMPI PUSH1 0x0 DUP1 REVERT JUMPDEST DUP2 MLOAD PUSH2 0x93B DUP2 PUSH2 0x241F JUMP JUMPDEST PUSH1 0x0 DUP3 NOT DUP3 GT ISZERO PUSH2 0x259F JUMPI PUSH2 0x259F PUSH2 0x2511 JUMP JUMPDEST POP ADD SWAP1 JUMP JUMPDEST PUSH1 0x0 DUP2 PUSH1 0x0 NOT DIV DUP4 GT DUP3 ISZERO ISZERO AND ISZERO PUSH2 0x25BE JUMPI PUSH2 0x25BE PUSH2 0x2511 JUMP JUMPDEST POP MUL SWAP1 JUMP JUMPDEST PUSH1 0x0 DUP3 PUSH2 0x25E0 JUMPI PUSH4 0x4E487B71 PUSH1 0xE0 SHL PUSH1 0x0 MSTORE PUSH1 0x12 PUSH1 0x4 MSTORE PUSH1 0x24 PUSH1 0x0 REVERT JUMPDEST POP DIV SWAP1 JUMP INVALID GASLIMIT MSTORE NUMBER ORIGIN ADDRESS GASPRICE KECCAK256 PUSH21 0x72616E7366657220616D6F756E7420657863656564 PUSH20 0x20616C6C6F77616E636545524332303A20646563 PUSH19 0x656173656420616C6C6F77616E63652062656C PUSH16 0x77207A65726FA2646970667358221220 PUSH17 0x16EEFF90730F75E585454A20032D6AA45C 0x24 0xB7 0xDF 0xBF GASPRICE SWAP6 SGT 0xD3 0xAE 0xCD 0xB2 0xD6 0x27 BASEFEE PUSH5 0x736F6C6343 STOP ADDMOD EXP STOP CALLER "
		},
		"gasEstimates": {
			"creation": {
				"codeDepositCost": "1966400",
				"executionCost": "infinite",
				"totalCost": "infinite"
			},
			"external": {
				"": "239",
				"_maxTxAmount()": "2407",
				"_maxWalletSize()": "2362",
				"_setMaxWalletSizePercent(uint256)": "infinite",
				"_taxPool()": "2448",
				"addBotToBlacklist(address)": "77569",
				"allowance(address,address)": "infinite",
				"approve(address,uint256)": "24660",
				"balanceOf(address)": "infinite",
				"buyFee()": "2430",
				"decimals()": "2357",
				"decreaseAllowance(address,uint256)": "infinite",
				"excludeFromFee(address)": "26878",
				"excludeFromLimit(address)": "26835",
				"excludeFromReward(address)": "infinite",
				"includeInFee(address)": "26848",
				"includeInLimit(address)": "26827",
				"includeInReward(address)": "infinite",
				"increaseAllowance(address,uint256)": "27117",
				"isExcludedFromFee(address)": "2589",
				"isExcludedFromLimit(address)": "2609",
				"isExcludedFromReward(address)": "2677",
				"name()": "infinite",
				"owner()": "2376",
				"reflectionFromToken(uint256,bool)": "infinite",
				"removeBotFromBlacklist(address)": "infinite",
				"renounceOwnership()": "30255",
				"sellFee()": "2497",
				"setMaxTxPercent(uint256)": "infinite",
				"symbol()": "infinite",
				"tokenFromReflection(uint256)": "infinite",
				"totalFees()": "2394",
				"totalSupply()": "2360",
				"transfer(address,uint256)": "infinite",
				"transferFrom(address,address,uint256)": "infinite",
				"transferOwnership(address)": "30526",
				"uniswapV2Pair()": "infinite",
				"uniswapV2Router()": "infinite",
				"updateTaxPoolWallet(address)": "26838",
				"withdrawToken(address,uint256)": "infinite"
			},
			"internal": {
				"_approve(address,address,uint256)": "infinite",
				"_getCurrentSupply()": "infinite",
				"_getRValues(uint256,uint256,uint256,uint256)": "infinite",
				"_getRate()": "infinite",
				"_getTValues(uint256)": "infinite",
				"_reflectFee(uint256,uint256)": "infinite",
				"_takeMarketing(uint256)": "infinite",
				"_tokenTransfer(address,address,uint256,bool)": "infinite",
				"_transfer(address,address,uint256)": "infinite",
				"_transferBothExcluded(address,address,uint256)": "infinite",
				"_transferFromExcluded(address,address,uint256)": "infinite",
				"_transferStandard(address,address,uint256)": "infinite",
				"_transferToExcluded(address,address,uint256)": "infinite",
				"addLiquidity(uint256,uint256)": "infinite",
				"calculateMarketingFee(uint256)": "infinite",
				"calculateTaxFee(uint256)": "infinite",
				"removeAllFee()": "infinite",
				"setBuy()": "infinite",
				"setSell()": "infinite",
				"swapTokensForEth(uint256)": "infinite"
			}
		},
		"methodIdentifiers": {
			"_maxTxAmount()": "7d1db4a5",
			"_maxWalletSize()": "8f9a55c0",
			"_setMaxWalletSizePercent(uint256)": "af2ce614",
			"_taxPool()": "4eeb94ce",
			"addBotToBlacklist(address)": "1d7ef879",
			"allowance(address,address)": "dd62ed3e",
			"approve(address,uint256)": "095ea7b3",
			"balanceOf(address)": "70a08231",
			"buyFee()": "47062402",
			"decimals()": "313ce567",
			"decreaseAllowance(address,uint256)": "a457c2d7",
			"excludeFromFee(address)": "437823ec",
			"excludeFromLimit(address)": "0bd3a7f9",
			"excludeFromReward(address)": "52390c02",
			"includeInFee(address)": "ea2f0b37",
			"includeInLimit(address)": "91d919a9",
			"includeInReward(address)": "3685d419",
			"increaseAllowance(address,uint256)": "39509351",
			"isExcludedFromFee(address)": "5342acb4",
			"isExcludedFromLimit(address)": "d94160e0",
			"isExcludedFromReward(address)": "88f82020",
			"name()": "06fdde03",
			"owner()": "8da5cb5b",
			"reflectionFromToken(uint256,bool)": "4549b039",
			"removeBotFromBlacklist(address)": "b030b34a",
			"renounceOwnership()": "715018a6",
			"sellFee()": "2b14ca56",
			"setMaxTxPercent(uint256)": "d543dbeb",
			"symbol()": "95d89b41",
			"tokenFromReflection(uint256)": "2d838119",
			"totalFees()": "13114a9d",
			"totalSupply()": "18160ddd",
			"transfer(address,uint256)": "a9059cbb",
			"transferFrom(address,address,uint256)": "23b872dd",
			"transferOwnership(address)": "f2fde38b",
			"uniswapV2Pair()": "49bd5a5e",
			"uniswapV2Router()": "1694505e",
			"updateTaxPoolWallet(address)": "ba1c4246",
			"withdrawToken(address,uint256)": "9e281a98"
		}
	},
	"abi": [
		{
			"inputs": [],
			"stateMutability": "nonpayable",
			"type": "constructor"
		},
		{
			"anonymous": false,
			"inputs": [
				{
					"indexed": true,
					"internalType": "address",
					"name": "owner",
					"type": "address"
				},
				{
					"indexed": true,
					"internalType": "address",
					"name": "spender",
					"type": "address"
				},
				{
					"indexed": false,
					"internalType": "uint256",
					"name": "value",
					"type": "uint256"
				}
			],
			"name": "Approval",
			"type": "event"
		},
		{
			"anonymous": false,
			"inputs": [
				{
					"indexed": true,
					"internalType": "address",
					"name": "previousOwner",
					"type": "address"
				},
				{
					"indexed": true,
					"internalType": "address",
					"name": "newOwner",
					"type": "address"
				}
			],
			"name": "OwnershipTransferred",
			"type": "event"
		},
		{
			"anonymous": false,
			"inputs": [
				{
					"indexed": true,
					"internalType": "address",
					"name": "from",
					"type": "address"
				},
				{
					"indexed": true,
					"internalType": "address",
					"name": "to",
					"type": "address"
				},
				{
					"indexed": false,
					"internalType": "uint256",
					"name": "value",
					"type": "uint256"
				}
			],
			"name": "Transfer",
			"type": "event"
		},
		{
			"anonymous": false,
			"inputs": [
				{
					"indexed": false,
					"internalType": "address",
					"name": "account",
					"type": "address"
				}
			],
			"name": "botAddedToBlacklist",
			"type": "event"
		},
		{
			"anonymous": false,
			"inputs": [
				{
					"indexed": false,
					"internalType": "address",
					"name": "account",
					"type": "address"
				}
			],
			"name": "botRemovedFromBlacklist",
			"type": "event"
		},
		{
			"stateMutability": "nonpayable",
			"type": "fallback"
		},
		{
			"inputs": [],
			"name": "_maxTxAmount",
			"outputs": [
				{
					"internalType": "uint256",
					"name": "",
					"type": "uint256"
				}
			],
			"stateMutability": "view",
			"type": "function"
		},
		{
			"inputs": [],
			"name": "_maxWalletSize",
			"outputs": [
				{
					"internalType": "uint256",
					"name": "",
					"type": "uint256"
				}
			],
			"stateMutability": "view",
			"type": "function"
		},
		{
			"inputs": [
				{
					"internalType": "uint256",
					"name": "maxWalletSize",
					"type": "uint256"
				}
			],
			"name": "_setMaxWalletSizePercent",
			"outputs": [],
			"stateMutability": "nonpayable",
			"type": "function"
		},
		{
			"inputs": [],
			"name": "_taxPool",
			"outputs": [
				{
					"internalType": "address payable",
					"name": "",
					"type": "address"
				}
			],
			"stateMutability": "view",
			"type": "function"
		},
		{
			"inputs": [
				{
					"internalType": "address",
					"name": "account",
					"type": "address"
				}
			],
			"name": "addBotToBlacklist",
			"outputs": [],
			"stateMutability": "nonpayable",
			"type": "function"
		},
		{
			"inputs": [
				{
					"internalType": "address",
					"name": "owner",
					"type": "address"
				},
				{
					"internalType": "address",
					"name": "spender",
					"type": "address"
				}
			],
			"name": "allowance",
			"outputs": [
				{
					"internalType": "uint256",
					"name": "",
					"type": "uint256"
				}
			],
			"stateMutability": "view",
			"type": "function"
		},
		{
			"inputs": [
				{
					"internalType": "address",
					"name": "spender",
					"type": "address"
				},
				{
					"internalType": "uint256",
					"name": "amount",
					"type": "uint256"
				}
			],
			"name": "approve",
			"outputs": [
				{
					"internalType": "bool",
					"name": "",
					"type": "bool"
				}
			],
			"stateMutability": "nonpayable",
			"type": "function"
		},
		{
			"inputs": [
				{
					"internalType": "address",
					"name": "account",
					"type": "address"
				}
			],
			"name": "balanceOf",
			"outputs": [
				{
					"internalType": "uint256",
					"name": "",
					"type": "uint256"
				}
			],
			"stateMutability": "view",
			"type": "function"
		},
		{
			"inputs": [],
			"name": "buyFee",
			"outputs": [
				{
					"internalType": "uint16",
					"name": "tax",
					"type": "uint16"
				},
				{
					"internalType": "uint16",
					"name": "marketing",
					"type": "uint16"
				}
			],
			"stateMutability": "view",
			"type": "function"
		},
		{
			"inputs": [],
			"name": "decimals",
			"outputs": [
				{
					"internalType": "uint8",
					"name": "",
					"type": "uint8"
				}
			],
			"stateMutability": "view",
			"type": "function"
		},
		{
			"inputs": [
				{
					"internalType": "address",
					"name": "spender",
					"type": "address"
				},
				{
					"internalType": "uint256",
					"name": "subtractedValue",
					"type": "uint256"
				}
			],
			"name": "decreaseAllowance",
			"outputs": [
				{
					"internalType": "bool",
					"name": "",
					"type": "bool"
				}
			],
			"stateMutability": "nonpayable",
			"type": "function"
		},
		{
			"inputs": [
				{
					"internalType": "address",
					"name": "account",
					"type": "address"
				}
			],
			"name": "excludeFromFee",
			"outputs": [],
			"stateMutability": "nonpayable",
			"type": "function"
		},
		{
			"inputs": [
				{
					"internalType": "address",
					"name": "account",
					"type": "address"
				}
			],
			"name": "excludeFromLimit",
			"outputs": [],
			"stateMutability": "nonpayable",
			"type": "function"
		},
		{
			"inputs": [
				{
					"internalType": "address",
					"name": "account",
					"type": "address"
				}
			],
			"name": "excludeFromReward",
			"outputs": [],
			"stateMutability": "nonpayable",
			"type": "function"
		},
		{
			"inputs": [
				{
					"internalType": "address",
					"name": "account",
					"type": "address"
				}
			],
			"name": "includeInFee",
			"outputs": [],
			"stateMutability": "nonpayable",
			"type": "function"
		},
		{
			"inputs": [
				{
					"internalType": "address",
					"name": "account",
					"type": "address"
				}
			],
			"name": "includeInLimit",
			"outputs": [],
			"stateMutability": "nonpayable",
			"type": "function"
		},
		{
			"inputs": [
				{
					"internalType": "address",
					"name": "account",
					"type": "address"
				}
			],
			"name": "includeInReward",
			"outputs": [],
			"stateMutability": "nonpayable",
			"type": "function"
		},
		{
			"inputs": [
				{
					"internalType": "address",
					"name": "spender",
					"type": "address"
				},
				{
					"internalType": "uint256",
					"name": "addedValue",
					"type": "uint256"
				}
			],
			"name": "increaseAllowance",
			"outputs": [
				{
					"internalType": "bool",
					"name": "",
					"type": "bool"
				}
			],
			"stateMutability": "nonpayable",
			"type": "function"
		},
		{
			"inputs": [
				{
					"internalType": "address",
					"name": "account",
					"type": "address"
				}
			],
			"name": "isExcludedFromFee",
			"outputs": [
				{
					"internalType": "bool",
					"name": "",
					"type": "bool"
				}
			],
			"stateMutability": "view",
			"type": "function"
		},
		{
			"inputs": [
				{
					"internalType": "address",
					"name": "account",
					"type": "address"
				}
			],
			"name": "isExcludedFromLimit",
			"outputs": [
				{
					"internalType": "bool",
					"name": "",
					"type": "bool"
				}
			],
			"stateMutability": "view",
			"type": "function"
		},
		{
			"inputs": [
				{
					"internalType": "address",
					"name": "account",
					"type": "address"
				}
			],
			"name": "isExcludedFromReward",
			"outputs": [
				{
					"internalType": "bool",
					"name": "",
					"type": "bool"
				}
			],
			"stateMutability": "view",
			"type": "function"
		},
		{
			"inputs": [],
			"name": "name",
			"outputs": [
				{
					"internalType": "string",
					"name": "",
					"type": "string"
				}
			],
			"stateMutability": "view",
			"type": "function"
		},
		{
			"inputs": [],
			"name": "owner",
			"outputs": [
				{
					"internalType": "address",
					"name": "",
					"type": "address"
				}
			],
			"stateMutability": "view",
			"type": "function"
		},
		{
			"inputs": [
				{
					"internalType": "uint256",
					"name": "tAmount",
					"type": "uint256"
				},
				{
					"internalType": "bool",
					"name": "deductTransferFee",
					"type": "bool"
				}
			],
			"name": "reflectionFromToken",
			"outputs": [
				{
					"internalType": "uint256",
					"name": "",
					"type": "uint256"
				}
			],
			"stateMutability": "view",
			"type": "function"
		},
		{
			"inputs": [
				{
					"internalType": "address",
					"name": "account",
					"type": "address"
				}
			],
			"name": "removeBotFromBlacklist",
			"outputs": [],
			"stateMutability": "nonpayable",
			"type": "function"
		},
		{
			"inputs": [],
			"name": "renounceOwnership",
			"outputs": [],
			"stateMutability": "nonpayable",
			"type": "function"
		},
		{
			"inputs": [],
			"name": "sellFee",
			"outputs": [
				{
					"internalType": "uint16",
					"name": "tax",
					"type": "uint16"
				},
				{
					"internalType": "uint16",
					"name": "marketing",
					"type": "uint16"
				}
			],
			"stateMutability": "view",
			"type": "function"
		},
		{
			"inputs": [
				{
					"internalType": "uint256",
					"name": "maxTxPercent",
					"type": "uint256"
				}
			],
			"name": "setMaxTxPercent",
			"outputs": [],
			"stateMutability": "nonpayable",
			"type": "function"
		},
		{
			"inputs": [],
			"name": "symbol",
			"outputs": [
				{
					"internalType": "string",
					"name": "",
					"type": "string"
				}
			],
			"stateMutability": "view",
			"type": "function"
		},
		{
			"inputs": [
				{
					"internalType": "uint256",
					"name": "rAmount",
					"type": "uint256"
				}
			],
			"name": "tokenFromReflection",
			"outputs": [
				{
					"internalType": "uint256",
					"name": "",
					"type": "uint256"
				}
			],
			"stateMutability": "view",
			"type": "function"
		},
		{
			"inputs": [],
			"name": "totalFees",
			"outputs": [
				{
					"internalType": "uint256",
					"name": "",
					"type": "uint256"
				}
			],
			"stateMutability": "view",
			"type": "function"
		},
		{
			"inputs": [],
			"name": "totalSupply",
			"outputs": [
				{
					"internalType": "uint256",
					"name": "",
					"type": "uint256"
				}
			],
			"stateMutability": "view",
			"type": "function"
		},
		{
			"inputs": [
				{
					"internalType": "address",
					"name": "recipient",
					"type": "address"
				},
				{
					"internalType": "uint256",
					"name": "amount",
					"type": "uint256"
				}
			],
			"name": "transfer",
			"outputs": [
				{
					"internalType": "bool",
					"name": "",
					"type": "bool"
				}
			],
			"stateMutability": "nonpayable",
			"type": "function"
		},
		{
			"inputs": [
				{
					"internalType": "address",
					"name": "sender",
					"type": "address"
				},
				{
					"internalType": "address",
					"name": "recipient",
					"type": "address"
				},
				{
					"internalType": "uint256",
					"name": "amount",
					"type": "uint256"
				}
			],
			"name": "transferFrom",
			"outputs": [
				{
					"internalType": "bool",
					"name": "",
					"type": "bool"
				}
			],
			"stateMutability": "nonpayable",
			"type": "function"
		},
		{
			"inputs": [
				{
					"internalType": "address",
					"name": "newOwner",
					"type": "address"
				}
			],
			"name": "transferOwnership",
			"outputs": [],
			"stateMutability": "nonpayable",
			"type": "function"
		},
		{
			"inputs": [],
			"name": "uniswapV2Pair",
			"outputs": [
				{
					"internalType": "address",
					"name": "",
					"type": "address"
				}
			],
			"stateMutability": "view",
			"type": "function"
		},
		{
			"inputs": [],
			"name": "uniswapV2Router",
			"outputs": [
				{
					"internalType": "contract IUniswapV2Router02",
					"name": "",
					"type": "address"
				}
			],
			"stateMutability": "view",
			"type": "function"
		},
		{
			"inputs": [
				{
					"internalType": "address payable",
					"name": "newAddress",
					"type": "address"
				}
			],
			"name": "updateTaxPoolWallet",
			"outputs": [],
			"stateMutability": "nonpayable",
			"type": "function"
		},
		{
			"inputs": [
				{
					"internalType": "address",
					"name": "_tokenContract",
					"type": "address"
				},
				{
					"internalType": "uint256",
					"name": "_amount",
					"type": "uint256"
				}
			],
			"name": "withdrawToken",
			"outputs": [],
			"stateMutability": "nonpayable",
			"type": "function"
		}
	]
}